{
    "contractName": "FlightSuretyOracle",
    "abi": [
        {
            "inputs": [],
            "stateMutability": "nonpayable",
            "type": "constructor"
        },
        {
            "anonymous": false,
            "inputs": [
                {
                    "indexed": true,
                    "internalType": "uint256",
                    "name": "flightID",
                    "type": "uint256"
                },
                {
                    "indexed": false,
                    "internalType": "uint64",
                    "name": "realArrival",
                    "type": "uint64"
                },
                {
                    "indexed": false,
                    "internalType": "uint64",
                    "name": "realDeparture",
                    "type": "uint64"
                },
                {
                    "indexed": false,
                    "internalType": "bool",
                    "name": "isLate",
                    "type": "bool"
                }
            ],
            "name": "AcceptedResponse",
            "type": "event"
        },
        {
            "anonymous": false,
            "inputs": [
                {
                    "indexed": true,
                    "internalType": "uint256",
                    "name": "requestID",
                    "type": "uint256"
                },
                {
                    "indexed": true,
                    "internalType": "uint256",
                    "name": "flightID",
                    "type": "uint256"
                }
            ],
            "name": "FailedRequest",
            "type": "event"
        },
        {
            "anonymous": false,
            "inputs": [
                {
                    "indexed": true,
                    "internalType": "uint256",
                    "name": "requestID",
                    "type": "uint256"
                },
                {
                    "indexed": true,
                    "internalType": "uint256",
                    "name": "flightID",
                    "type": "uint256"
                },
                {
                    "indexed": true,
                    "internalType": "uint256",
                    "name": "activatedIndex",
                    "type": "uint256"
                },
                {
                    "indexed": false,
                    "internalType": "string",
                    "name": "flightRef",
                    "type": "string"
                }
            ],
            "name": "NewRequest",
            "type": "event"
        },
        {
            "anonymous": false,
            "inputs": [
                {
                    "indexed": true,
                    "internalType": "uint256",
                    "name": "requestID",
                    "type": "uint256"
                },
                {
                    "indexed": true,
                    "internalType": "uint256",
                    "name": "flightID",
                    "type": "uint256"
                },
                {
                    "indexed": true,
                    "internalType": "address",
                    "name": "oracleProvider",
                    "type": "address"
                },
                {
                    "indexed": false,
                    "internalType": "uint64",
                    "name": "realDeparture",
                    "type": "uint64"
                },
                {
                    "indexed": false,
                    "internalType": "uint64",
                    "name": "realArrival",
                    "type": "uint64"
                }
            ],
            "name": "NewResponse",
            "type": "event"
        },
        {
            "anonymous": false,
            "inputs": [
                {
                    "indexed": true,
                    "internalType": "uint256",
                    "name": "flightID",
                    "type": "uint256"
                },
                {
                    "indexed": false,
                    "internalType": "uint64",
                    "name": "realDeparture",
                    "type": "uint64"
                },
                {
                    "indexed": false,
                    "internalType": "uint64",
                    "name": "realArrival",
                    "type": "uint64"
                },
                {
                    "indexed": false,
                    "internalType": "bool",
                    "name": "isLate",
                    "type": "bool"
                }
            ],
            "name": "UpdatedFlight",
            "type": "event"
        },
        {
            "inputs": [],
            "name": "ACCEPTED_ANSWER_TRESHOLD",
            "outputs": [
                {
                    "internalType": "uint256",
                    "name": "",
                    "type": "uint256"
                }
            ],
            "stateMutability": "view",
            "type": "function"
        },
        {
            "inputs": [],
            "name": "AUTHORIZED_FLIGHT_DELAY",
            "outputs": [
                {
                    "internalType": "uint256",
                    "name": "",
                    "type": "uint256"
                }
            ],
            "stateMutability": "view",
            "type": "function"
        },
        {
            "inputs": [
                {
                    "internalType": "uint256",
                    "name": "_flightID",
                    "type": "uint256"
                },
                {
                    "internalType": "string",
                    "name": "_flightRef",
                    "type": "string"
                }
            ],
            "name": "createRequest",
            "outputs": [],
            "stateMutability": "nonpayable",
            "type": "function"
        },
        {
            "inputs": [],
            "name": "destructContract",
            "outputs": [],
            "stateMutability": "nonpayable",
            "type": "function"
        },
        {
            "inputs": [
                {
                    "internalType": "address",
                    "name": "_flightSuretyData",
                    "type": "address"
                },
                {
                    "internalType": "address",
                    "name": "_oracleProviderRole",
                    "type": "address"
                }
            ],
            "name": "initialize",
            "outputs": [],
            "stateMutability": "nonpayable",
            "type": "function"
        },
        {
            "inputs": [],
            "name": "isOwner",
            "outputs": [
                {
                    "internalType": "bool",
                    "name": "_isOwner",
                    "type": "bool"
                }
            ],
            "stateMutability": "view",
            "type": "function"
        },
        {
            "inputs": [
                {
                    "internalType": "uint256",
                    "name": "_requestID",
                    "type": "uint256"
                },
                {
                    "internalType": "uint64",
                    "name": "_realDeparture",
                    "type": "uint64"
                },
                {
                    "internalType": "uint64",
                    "name": "_realArrival",
                    "type": "uint64"
                }
            ],
            "name": "respondToRequest",
            "outputs": [],
            "stateMutability": "nonpayable",
            "type": "function"
        },
        {
            "inputs": [
                {
                    "internalType": "address",
                    "name": "_newOwner",
                    "type": "address"
                }
            ],
            "name": "transferOwnership",
            "outputs": [],
            "stateMutability": "nonpayable",
            "type": "function"
        }
    ],
    "bytecode": "608060405234801561001057600080fd5b50600080546001600160a01b03191633179055611358806100326000396000f3fe608060405234801561001057600080fd5b50600436106100885760003560e01c80639499e0181161005b5780639499e018146100ef578063cadddd7d146100f7578063f2fde38b1461010a578063fa78a4031461011d57600080fd5b80634642d2671461008d578063485cc955146100a25780636667761e146100b55780638f32d59b146100d1575b600080fd5b6100a061009b366004611114565b610125565b005b6100a06100b0366004610eed565b610369565b6100be610e1081565b6040519081526020015b60405180910390f35b6000546001600160a01b0316331460405190151581526020016100c8565b6100a06103c1565b6100a0610105366004611099565b6103f9565b6100a0610118366004610ed0565b610689565b6100be600281565b60085460405163775cbd8d60e01b81523360048201819052916001600160a01b03169063775cbd8d9060240160206040518083038186803b15801561016957600080fd5b505afa15801561017d573d6000803e3d6000fd5b505050506040513d601f19601f820116820180604052508101906101a19190610f26565b6101c65760405162461bcd60e51b81526004016101bd906111b3565b60405180910390fd5b600084815260036020526040808220546007549151633a4396cb60e01b81526004810182905290929182916001600160a01b0390911690633a4396cb9060240160006040518083038186803b15801561021e57600080fd5b505afa158015610232573d6000803e3d6000fd5b505050506040513d6000823e601f3d908101601f1916820160405261025a9190810190610f41565b505050505092509250506000826001600160401b031611801561028657506000816001600160401b0316115b6102c75760405162461bcd60e51b8152602060048201526012602482015271666c69676874206d7573742065786973747360701b60448201526064016101bd565b60008781526005602090815260408083203380855292529091205488919060ff16156103355760405162461bcd60e51b815260206004820152601b60248201527f63616c6c65722068617320616c726561647920616e737765726564000000000060448201526064016101bd565b600089815260036020526040902054610350338b8b8b6106d5565b61035d338b8b8b856108cc565b50505050505050505050565b6000546001600160a01b031633146103935760405162461bcd60e51b81526004016101bd90611185565b600780546001600160a01b039384166001600160a01b03199182161790915560088054929093169116179055565b6000546001600160a01b031633146103eb5760405162461bcd60e51b81526004016101bd90611185565b6000546001600160a01b0316ff5b60085460405163775cbd8d60e01b81523360048201819052916001600160a01b03169063775cbd8d9060240160206040518083038186803b15801561043d57600080fd5b505afa158015610451573d6000803e3d6000fd5b505050506040513d601f19601f820116820180604052508101906104759190610f26565b6104915760405162461bcd60e51b81526004016101bd906111b3565b600754604051633a4396cb60e01b815260048101869052859160009182916001600160a01b031690633a4396cb9060240160006040518083038186803b1580156104da57600080fd5b505afa1580156104ee573d6000803e3d6000fd5b505050506040513d6000823e601f3d908101601f191682016040526105169190810190610f41565b505050505092509250506000826001600160401b031611801561054257506000816001600160401b0316115b6105835760405162461bcd60e51b8152602060048201526012602482015271666c69676874206d7573742065786973747360701b60448201526064016101bd565b600061058f6005610b90565b6002805491925060006105a18361128c565b9190505550604051806080016040528089815260200188888080601f01602080910402602001604051908101604052809392919081815260200183838082843760009201829052509385525050506020808301859052604092830182905260025482526003815291902082518155828201518051919261062992600185019290910190610e0c565b50604082015181600201556060820151816003015590505080886002547fca9e621fdc96e6f22f70cb156bd2a2070b94f571d304c7fd10de5532b7df07c88a8a604051610677929190611156565b60405180910390a45050505050505050565b6000546001600160a01b031633146106b35760405162461bcd60e51b81526004016101bd90611185565b600080546001600160a01b0319166001600160a01b0392909216919091179055565b60008381526003602081905260408220018054916106f28361128c565b909155505060008381526005602090815260408083206001600160a01b03881684528252808320805460ff19166001179055858352600482528083206001600160401b0386168452909152812080549161074b8361128c565b909155505060008381526004602090815260408083206001600160401b0385168452909152812080549161077e8361128c565b90915550506000838152600660205260409020546001600160401b03166107dd57600083815260066020526040902080546001600160401b03838116600160401b026fffffffffffffffffffffffffffffffff19909216908516171790555b60008381526004602090815260408083206001600160401b03868116855281845282852054888652600685528386205490911685529252909120541115610847576000838152600660205260409020805467ffffffffffffffff19166001600160401b0384161790555b60008381526004602090815260408083206001600160401b038581168552818452828520548886526006855283862054600160401b9004909116855292529091205411156108c657600083815260066020526040902080546fffffffffffffffff00000000000000001916600160401b6001600160401b038416021790555b50505050565b600084815260046020908152604080832060068352818420546001600160401b03168452909152902054600211801590610937575060008481526004602090815260408083206006835281842054600160401b90046001600160401b03168452909152902054600211155b15610ade57600754604051633a4396cb60e01b815260048101839052600091829182916001600160a01b031690633a4396cb9060240160006040518083038186803b15801561098557600080fd5b505afa158015610999573d6000803e3d6000fd5b505050506040513d6000823e601f3d908101601f191682016040526109c19190810190610f41565b975050505050935093505060006109db8885858a8a610bfc565b90506109e78183610ca5565b604080516001600160401b03808a168252881660208201526001600160a01b038b169187918b917f6df3b5fe0784f75088290e5600d09ae7171e7fe10b267a42c174adec3347240e910160405180910390a4604080516001600160401b0388811682528916602082015282151581830152905186917f6dc1daabe93cf7db34702c320e2bad8c3ce355c88a708ea8fdd236309b8eb2ee919081900360600190a2604080516001600160401b0389811682528816602082015282151581830152905186917fc836efc6512c31c528bdba0acef435557e48c3ddbe83ef5ac1b6386fc4fd5749919081900360600190a250505050610b89565b6000848152600360208190526040909120015460021015610b36576000848152600360205260408082205490519091829187917f7f502fdd694680e3c61a6b1d8efc70881651552e6885a8dafbc874e9da1f12c891a3505b604080516001600160401b038086168252841660208201526001600160a01b03871691839187917f6df3b5fe0784f75088290e5600d09ae7171e7fe10b267a42c174adec3347240e910160405180910390a45b5050505050565b6000606460015410610ba25760006001555b6001805483916000610bb38361128c565b90915550610bc190426111fa565b604051602001610bd391815260200190565b6040516020818303038152906040528051906020012060001c610bf691906112a7565b92915050565b6000610c0a85858585610d9b565b60008781526003602052604090819020546007549151633b5fc92f60e21b8152600481018290526001600160401b038088166024830152861660448201528315156064820152929350916001600160a01b039091169063ed7f24bc90608401600060405180830381600087803b158015610c8357600080fd5b505af1158015610c97573d6000803e3d6000fd5b505050505095945050505050565b81610d975760075460408051631a9160d760e31b815290516000926001600160a01b03169163d48b06b8916004808301926020929190829003018186803b158015610cef57600080fd5b505afa158015610d03573d6000803e3d6000fd5b505050506040513d601f19601f82011682018060405250810190610d279190611080565b90506000610d358284610df9565b600754604051630b33771560e01b8152600481018390529192506001600160a01b031690630b33771590602401600060405180830381600087803b158015610d7c57600080fd5b505af1158015610d90573d6000803e3d6000fd5b5050505050505b5050565b600080610da88484611229565b90506000610db68787611229565b9050806001600160401b0316610e10836001600160401b0316610dd99190611212565b1115610dea57600192505050610df1565b6000925050505b949350505050565b6000610e058284611212565b9392505050565b828054610e1890611251565b90600052602060002090601f016020900481019282610e3a5760008555610e80565b82601f10610e5357805160ff1916838001178555610e80565b82800160010185558215610e80579182015b82811115610e80578251825591602001919060010190610e65565b50610e8c929150610e90565b5090565b5b80821115610e8c5760008155600101610e91565b8051610eb0816112f5565b919050565b80518015158114610eb057600080fd5b8051610eb08161130d565b600060208284031215610ee257600080fd5b8135610e05816112f5565b60008060408385031215610f0057600080fd5b8235610f0b816112f5565b91506020830135610f1b816112f5565b809150509250929050565b600060208284031215610f3857600080fd5b610e0582610eb5565b600080600080600080600080610100898b031215610f5e57600080fd5b88516001600160401b0380821115610f7557600080fd5b818b0191508b601f830112610f8957600080fd5b815181811115610f9b57610f9b6112df565b604051601f8201601f19908116603f01168101908382118183101715610fc357610fc36112df565b81604052828152602093508e84848701011115610fdf57600080fd5b600091505b828210156110015784820184015181830185015290830190610fe4565b828211156110125760008484830101525b9b506110229150508b8201610ec5565b9850505061103260408a01610ec5565b955061104060608a01610ec5565b945061104e60808a01610ec5565b935061105c60a08a01610eb5565b925061106a60c08a01610ea5565b915060e089015190509295985092959890939650565b60006020828403121561109257600080fd5b5051919050565b6000806000604084860312156110ae57600080fd5b8335925060208401356001600160401b03808211156110cc57600080fd5b818601915086601f8301126110e057600080fd5b8135818111156110ef57600080fd5b87602082850101111561110157600080fd5b6020830194508093505050509250925092565b60008060006060848603121561112957600080fd5b83359250602084013561113b8161130d565b9150604084013561114b8161130d565b809150509250925092565b60208152816020820152818360408301376000818301604090810191909152601f909201601f19160101919050565b60208082526014908201527331b0b63632b91036bab9ba1031329037bbb732b960611b604082015260600190565b60208082526027908201527f63616c6c6572206973206e6f7420616374697661746564206f7261636c6520706040820152663937bb34b232b960c91b606082015260800190565b6000821982111561120d5761120d6112c9565b500190565b600082821015611224576112246112c9565b500390565b60006001600160401b0383811690831681811015611249576112496112c9565b039392505050565b600181811c9082168061126557607f821691505b6020821081141561128657634e487b7160e01b600052602260045260246000fd5b50919050565b60006000198214156112a0576112a06112c9565b5060010190565b6000826112c457634e487b7160e01b600052601260045260246000fd5b500690565b634e487b7160e01b600052601160045260246000fd5b634e487b7160e01b600052604160045260246000fd5b6001600160a01b038116811461130a57600080fd5b50565b6001600160401b038116811461130a57600080fdfea2646970667358221220cf917d536ab23fe1c62a9fd00199b903e7a7efd98fdd4501712bd47a38f13fd364736f6c63430008070033",
    "sourcePath": "/home/tothemoon_/Documents/FlightInsurance/contracts/FlightSuretyOracle/FlightSuretyOracle.sol",
    "compiler": {
        "name": "solc",
        "version": "0.8.7+commit.e28d00a7"
    },
    "functionHashes": {
        "ACCEPTED_ANSWER_TRESHOLD()": "fa78a403",
        "AUTHORIZED_FLIGHT_DELAY()": "6667761e",
        "createRequest(uint256,string)": "cadddd7d",
        "destructContract()": "9499e018",
        "initialize(address,address)": "485cc955",
        "isOwner()": "8f32d59b",
        "respondToRequest(uint256,uint64,uint64)": "4642d267",
        "transferOwnership(address)": "f2fde38b"
    },
    "gasEstimates": {
        "creation": {
            "codeDepositCost": "990400",
            "executionCost": "25262",
            "totalCost": "1015662"
        },
        "external": {
            "ACCEPTED_ANSWER_TRESHOLD()": "250",
            "AUTHORIZED_FLIGHT_DELAY()": "229",
            "createRequest(uint256,string)": "infinite",
            "destructContract()": "31996",
            "initialize(address,address)": "infinite",
            "isOwner()": "2376",
            "respondToRequest(uint256,uint64,uint64)": "infinite",
            "transferOwnership(address)": "26749"
        },
        "internal": {
            "_acceptResponse(address,uint256,uint64,uint64,uint256)": "infinite",
            "_updateFlight(uint256,uint64,uint64,uint64,uint64)": "infinite",
            "_updateResponses(address,uint256,uint64,uint64)": "infinite",
            "_updateTotalInsuredValue(bool,uint256)": "infinite",
            "checkFlightIsLate(uint64,uint64,uint64,uint64)": "infinite"
        }
    }
}