{
    "contractName": "FlightSuretyOracle",
    "abi": [
        {
            "inputs": [],
            "stateMutability": "nonpayable",
            "type": "constructor"
        },
        {
            "anonymous": false,
            "inputs": [
                {
                    "indexed": true,
                    "internalType": "uint256",
                    "name": "flightID",
                    "type": "uint256"
                },
                {
                    "indexed": false,
                    "internalType": "uint256",
                    "name": "realArrival",
                    "type": "uint256"
                },
                {
                    "indexed": false,
                    "internalType": "uint256",
                    "name": "realDeparture",
                    "type": "uint256"
                },
                {
                    "indexed": false,
                    "internalType": "bool",
                    "name": "isLate",
                    "type": "bool"
                }
            ],
            "name": "AcceptedResponse",
            "type": "event"
        },
        {
            "anonymous": false,
            "inputs": [
                {
                    "indexed": true,
                    "internalType": "uint256",
                    "name": "requestID",
                    "type": "uint256"
                },
                {
                    "indexed": true,
                    "internalType": "uint256",
                    "name": "flightID",
                    "type": "uint256"
                }
            ],
            "name": "FailedRequest",
            "type": "event"
        },
        {
            "anonymous": false,
            "inputs": [
                {
                    "indexed": true,
                    "internalType": "uint256",
                    "name": "requestID",
                    "type": "uint256"
                },
                {
                    "indexed": true,
                    "internalType": "uint256",
                    "name": "flightID",
                    "type": "uint256"
                },
                {
                    "indexed": true,
                    "internalType": "uint256",
                    "name": "activatedIndex",
                    "type": "uint256"
                },
                {
                    "indexed": false,
                    "internalType": "string",
                    "name": "flightRef",
                    "type": "string"
                }
            ],
            "name": "NewRequest",
            "type": "event"
        },
        {
            "anonymous": false,
            "inputs": [
                {
                    "indexed": true,
                    "internalType": "uint256",
                    "name": "requestID",
                    "type": "uint256"
                },
                {
                    "indexed": true,
                    "internalType": "uint256",
                    "name": "flightID",
                    "type": "uint256"
                },
                {
                    "indexed": false,
                    "internalType": "uint256",
                    "name": "realDeparture",
                    "type": "uint256"
                },
                {
                    "indexed": false,
                    "internalType": "uint256",
                    "name": "realArrival",
                    "type": "uint256"
                }
            ],
            "name": "NewResponse",
            "type": "event"
        },
        {
            "anonymous": false,
            "inputs": [
                {
                    "indexed": true,
                    "internalType": "uint256",
                    "name": "flightID",
                    "type": "uint256"
                },
                {
                    "indexed": false,
                    "internalType": "uint256",
                    "name": "realDeparture",
                    "type": "uint256"
                },
                {
                    "indexed": false,
                    "internalType": "uint256",
                    "name": "realArrival",
                    "type": "uint256"
                },
                {
                    "indexed": false,
                    "internalType": "bool",
                    "name": "isLate",
                    "type": "bool"
                }
            ],
            "name": "UpdatedFlight",
            "type": "event"
        },
        {
            "inputs": [
                {
                    "internalType": "uint256",
                    "name": "_flightID",
                    "type": "uint256"
                },
                {
                    "internalType": "string",
                    "name": "_flightRef",
                    "type": "string"
                }
            ],
            "name": "createRequest",
            "outputs": [],
            "stateMutability": "nonpayable",
            "type": "function"
        },
        {
            "inputs": [],
            "name": "destructContract",
            "outputs": [],
            "stateMutability": "nonpayable",
            "type": "function"
        },
        {
            "inputs": [
                {
                    "internalType": "address",
                    "name": "_flightSuretyData",
                    "type": "address"
                },
                {
                    "internalType": "address",
                    "name": "_oracleProviderRole",
                    "type": "address"
                }
            ],
            "name": "initialize",
            "outputs": [],
            "stateMutability": "nonpayable",
            "type": "function"
        },
        {
            "inputs": [],
            "name": "isOwner",
            "outputs": [
                {
                    "internalType": "bool",
                    "name": "_isOwner",
                    "type": "bool"
                }
            ],
            "stateMutability": "view",
            "type": "function"
        },
        {
            "inputs": [
                {
                    "internalType": "uint256",
                    "name": "_requestID",
                    "type": "uint256"
                },
                {
                    "internalType": "uint256",
                    "name": "_realDeparture",
                    "type": "uint256"
                },
                {
                    "internalType": "uint256",
                    "name": "_realArrival",
                    "type": "uint256"
                }
            ],
            "name": "respondToRequest",
            "outputs": [],
            "stateMutability": "nonpayable",
            "type": "function"
        },
        {
            "inputs": [
                {
                    "internalType": "address",
                    "name": "_newOwner",
                    "type": "address"
                }
            ],
            "name": "transferOwnership",
            "outputs": [],
            "stateMutability": "nonpayable",
            "type": "function"
        }
    ],
    "bytecode": "608060405234801561001057600080fd5b50600080546001600160a01b031916331790556111f9806100326000396000f3fe608060405234801561001057600080fd5b50600436106100625760003560e01c80633cc7a34714610067578063485cc9551461007c5780638f32d59b1461008f5780639499e018146100b1578063cadddd7d146100b9578063f2fde38b146100cc575b600080fd5b61007a610075366004611008565b6100df565b005b61007a61008a366004610ddf565b610325565b6000546001600160a01b03163314604051901515815260200160405180910390f35b61007a61037d565b61007a6100c7366004610f8c565b6103b5565b61007a6100da366004610dc2565b610647565b60085460405163775cbd8d60e01b81523360048201819052916001600160a01b03169063775cbd8d9060240160206040518083038186803b15801561012357600080fd5b505afa158015610137573d6000803e3d6000fd5b505050506040513d601f19601f8201168201806040525081019061015b9190610e18565b6101805760405162461bcd60e51b815260040161017790611091565b60405180910390fd5b600084815260036020526040808220546007549151633a4396cb60e01b81526004810182905290929182916001600160a01b0390911690633a4396cb9060240160006040518083038186803b1580156101d857600080fd5b505afa1580156101ec573d6000803e3d6000fd5b505050506040513d6000823e601f3d908101601f191682016040526102149190810190610e33565b5050505050925092505060008267ffffffffffffffff16118015610242575060008167ffffffffffffffff16115b6102835760405162461bcd60e51b8152602060048201526012602482015271666c69676874206d7573742065786973747360701b6044820152606401610177565b60008781526005602090815260408083203380855292529091205488919060ff16156102f15760405162461bcd60e51b815260206004820152601b60248201527f63616c6c65722068617320616c726561647920616e73776572656400000000006044820152606401610177565b60008981526003602052604090205461030d338b8b8b85610693565b6103198a8a8a84610805565b50505050505050505050565b6000546001600160a01b0316331461034f5760405162461bcd60e51b815260040161017790611063565b600780546001600160a01b039384166001600160a01b03199182161790915560088054929093169116179055565b6000546001600160a01b031633146103a75760405162461bcd60e51b815260040161017790611063565b6000546001600160a01b0316ff5b60085460405163775cbd8d60e01b81523360048201819052916001600160a01b03169063775cbd8d9060240160206040518083038186803b1580156103f957600080fd5b505afa15801561040d573d6000803e3d6000fd5b505050506040513d601f19601f820116820180604052508101906104319190610e18565b61044d5760405162461bcd60e51b815260040161017790611091565b600754604051633a4396cb60e01b815260048101869052859160009182916001600160a01b031690633a4396cb9060240160006040518083038186803b15801561049657600080fd5b505afa1580156104aa573d6000803e3d6000fd5b505050506040513d6000823e601f3d908101601f191682016040526104d29190810190610e33565b5050505050925092505060008267ffffffffffffffff16118015610500575060008167ffffffffffffffff16115b6105415760405162461bcd60e51b8152602060048201526012602482015271666c69676874206d7573742065786973747360701b6044820152606401610177565b600061054d6014610a88565b60028054919250600061055f83611142565b9190505550604051806080016040528089815260200188888080601f0160208091040260200160405190810160405280939291908181526020018383808284376000920182905250938552505050602080830185905260409283018290526002548252600381529190208251815582820151805191926105e792600185019290910190610cf1565b50604082015181600201556060820151816003015590505080886002547fca9e621fdc96e6f22f70cb156bd2a2070b94f571d304c7fd10de5532b7df07c88a8a604051610635929190611034565b60405180910390a45050505050505050565b6000546001600160a01b031633146106715760405162461bcd60e51b815260040161017790611063565b600080546001600160a01b0319166001600160a01b0392909216919091179055565b60008481526003602081905260408220018054916106b083611142565b909155505060008481526005602090815260408083206001600160a01b03891684528252808320805460ff1916600117905586835260048252808320868452909152812080549161070083611142565b90915550506000848152600460209081526040808320858452909152812080549161072a83611142565b90915550506000848152600460209081526040808320868452808352818420548885526006845282852054855292529091205411156107755760008481526006602052604090208390555b6000848152600460209081526040808320858452808352818420548885526006845282852060010154855292529091205411156107c15760008481526006602052604090208290600101555b6040805184815260208101849052829186917fed89dd676a91650c6b31f799532dca44ef7be22b763895233144dec6be9d70ee910160405180910390a35050505050565b60008481526004602090815260408083206006835281842054845290915290205460051180159061085a5750600084815260046020908152604080832060068352818420600101548452909152902054600511155b156109ec57600754604051633a4396cb60e01b815260048101839052600091829182916001600160a01b031690633a4396cb9060240160006040518083038186803b1580156108a857600080fd5b505afa1580156108bc573d6000803e3d6000fd5b505050506040513d6000823e601f3d908101601f191682016040526108e49190810190610e33565b97505050505093509350506000610912888567ffffffffffffffff168567ffffffffffffffff168a8a610af4565b905061091e8183610b9e565b604080518881526020810188905286918a917fed89dd676a91650c6b31f799532dca44ef7be22b763895233144dec6be9d70ee910160405180910390a3604080518781526020810189905282151581830152905186917fb4bd258ec42c6067930a0c04b821418ef8a1357290a95e154fecbe7f079f8c48919081900360600190a2604080518881526020810188905282151581830152905186917fe91efb510e8104be9abbfc0d3d33bf17c65044e767c599822ac1be59fabe7f07919081900360600190a250505050610a82565b6000848152600360208190526040909120015460051015610a44576000848152600360205260408082205490519091829187917f7f502fdd694680e3c61a6b1d8efc70881651552e6885a8dafbc874e9da1f12c891a3505b6040805184815260208101849052829186917fed89dd676a91650c6b31f799532dca44ef7be22b763895233144dec6be9d70ee910160405180910390a35b50505050565b6000606460015410610a9a5760006001555b6001805483916000610aab83611142565b90915550610ab990426110d8565b604051602001610acb91815260200190565b6040516020818303038152906040528051906020012060001c610aee919061115d565b92915050565b6000610b0285858585610c94565b60008781526003602052604090819020546007549151633b5fc92f60e21b81526004810182905267ffffffffffffffff8088166024830152861660448201528315156064820152929350916001600160a01b039091169063ed7f24bc90608401600060405180830381600087803b158015610b7c57600080fd5b505af1158015610b90573d6000803e3d6000fd5b505050505095945050505050565b81610c905760075460408051631a9160d760e31b815290516000926001600160a01b03169163d48b06b8916004808301926020929190829003018186803b158015610be857600080fd5b505afa158015610bfc573d6000803e3d6000fd5b505050506040513d601f19601f82011682018060405250810190610c209190610f73565b90506000610c2e8284610cde565b600754604051630b33771560e01b8152600481018390529192506001600160a01b031690630b33771590602401600060405180830381600087803b158015610c7557600080fd5b505af1158015610c89573d6000803e3d6000fd5b5050505050505b5050565b600080610ca184846110f0565b90506000610caf87876110f0565b905080610cbe610e10846110f0565b1115610ccf57600192505050610cd6565b6000925050505b949350505050565b6000610cea82846110f0565b9392505050565b828054610cfd90611107565b90600052602060002090601f016020900481019282610d1f5760008555610d65565b82601f10610d3857805160ff1916838001178555610d65565b82800160010185558215610d65579182015b82811115610d65578251825591602001919060010190610d4a565b50610d71929150610d75565b5090565b5b80821115610d715760008155600101610d76565b8051610d95816111ab565b919050565b80518015158114610d9557600080fd5b805167ffffffffffffffff81168114610d9557600080fd5b600060208284031215610dd457600080fd5b8135610cea816111ab565b60008060408385031215610df257600080fd5b8235610dfd816111ab565b91506020830135610e0d816111ab565b809150509250929050565b600060208284031215610e2a57600080fd5b610cea82610d9a565b600080600080600080600080610100898b031215610e5057600080fd5b885167ffffffffffffffff80821115610e6857600080fd5b818b0191508b601f830112610e7c57600080fd5b815181811115610e8e57610e8e611195565b604051601f8201601f19908116603f01168101908382118183101715610eb657610eb6611195565b81604052828152602093508e84848701011115610ed257600080fd5b600091505b82821015610ef45784820184015181830185015290830190610ed7565b82821115610f055760008484830101525b9b50610f159150508b8201610daa565b98505050610f2560408a01610daa565b9550610f3360608a01610daa565b9450610f4160808a01610daa565b9350610f4f60a08a01610d9a565b9250610f5d60c08a01610d8a565b915060e089015190509295985092959890939650565b600060208284031215610f8557600080fd5b5051919050565b600080600060408486031215610fa157600080fd5b83359250602084013567ffffffffffffffff80821115610fc057600080fd5b818601915086601f830112610fd457600080fd5b813581811115610fe357600080fd5b876020828501011115610ff557600080fd5b6020830194508093505050509250925092565b60008060006060848603121561101d57600080fd5b505081359360208301359350604090920135919050565b60208152816020820152818360408301376000818301604090810191909152601f909201601f19160101919050565b60208082526014908201527331b0b63632b91036bab9ba1031329037bbb732b960611b604082015260600190565b60208082526027908201527f63616c6c6572206973206e6f7420616374697661746564206f7261636c6520706040820152663937bb34b232b960c91b606082015260800190565b600082198211156110eb576110eb61117f565b500190565b6000828210156111025761110261117f565b500390565b600181811c9082168061111b57607f821691505b6020821081141561113c57634e487b7160e01b600052602260045260246000fd5b50919050565b60006000198214156111565761115661117f565b5060010190565b60008261117a57634e487b7160e01b600052601260045260246000fd5b500690565b634e487b7160e01b600052601160045260246000fd5b634e487b7160e01b600052604160045260246000fd5b6001600160a01b03811681146111c057600080fd5b5056fea2646970667358221220a5e0714717e2a3ee6709e5ee490792b8b895d126f2d14dc57611909db854bf3864736f6c63430008070033",
    "sourcePath": "/home/tothemoon_/Documents/FlightInsurance/contracts/FlightSuretyOracle/FlightSuretyOracle.sol",
    "compiler": {
        "name": "solc",
        "version": "0.8.7+commit.e28d00a7"
    },
    "functionHashes": {
        "createRequest(uint256,string)": "cadddd7d",
        "destructContract()": "9499e018",
        "initialize(address,address)": "485cc955",
        "isOwner()": "8f32d59b",
        "respondToRequest(uint256,uint256,uint256)": "3cc7a347",
        "transferOwnership(address)": "f2fde38b"
    },
    "gasEstimates": {
        "creation": {
            "codeDepositCost": "920200",
            "executionCost": "25190",
            "totalCost": "945390"
        },
        "external": {
            "createRequest(uint256,string)": "infinite",
            "destructContract()": "32040",
            "initialize(address,address)": "infinite",
            "isOwner()": "2319",
            "respondToRequest(uint256,uint256,uint256)": "infinite",
            "transferOwnership(address)": "26793"
        },
        "internal": {
            "_acceptResponse(uint256,uint256,uint256,uint256)": "infinite",
            "_updateFlight(uint256,uint256,uint256,uint256,uint256)": "infinite",
            "_updateResponses(address,uint256,uint256,uint256,uint256)": "infinite",
            "_updateTotalInsuredValue(bool,uint256)": "infinite",
            "checkFlightIsLate(uint256,uint256,uint256,uint256)": "infinite"
        }
    }
}