{
  "contractName": "FlightSuretyOracle",
  "abi": [
    {
      "inputs": [
        {
          "internalType": "uint64",
          "name": "_authorizedFlightDelay",
          "type": "uint64"
        }
      ],
      "stateMutability": "nonpayable",
      "type": "constructor"
    },
    {
      "anonymous": false,
      "inputs": [
        {
          "indexed": true,
          "internalType": "uint256",
          "name": "flightID",
          "type": "uint256"
        },
        {
          "indexed": false,
          "internalType": "uint64",
          "name": "realArrival",
          "type": "uint64"
        },
        {
          "indexed": false,
          "internalType": "uint64",
          "name": "realDeparture",
          "type": "uint64"
        },
        {
          "indexed": false,
          "internalType": "bool",
          "name": "isLate",
          "type": "bool"
        }
      ],
      "name": "AcceptedResponse",
      "type": "event"
    },
    {
      "anonymous": false,
      "inputs": [
        {
          "indexed": true,
          "internalType": "uint256",
          "name": "requestID",
          "type": "uint256"
        },
        {
          "indexed": true,
          "internalType": "uint256",
          "name": "flightID",
          "type": "uint256"
        }
      ],
      "name": "FailedRequest",
      "type": "event"
    },
    {
      "anonymous": false,
      "inputs": [
        {
          "indexed": true,
          "internalType": "uint256",
          "name": "requestID",
          "type": "uint256"
        },
        {
          "indexed": true,
          "internalType": "uint256",
          "name": "flightID",
          "type": "uint256"
        },
        {
          "indexed": true,
          "internalType": "uint256",
          "name": "activatedIndex",
          "type": "uint256"
        },
        {
          "indexed": false,
          "internalType": "string",
          "name": "flightRef",
          "type": "string"
        }
      ],
      "name": "NewRequest",
      "type": "event"
    },
    {
      "anonymous": false,
      "inputs": [
        {
          "indexed": true,
          "internalType": "uint256",
          "name": "requestID",
          "type": "uint256"
        },
        {
          "indexed": true,
          "internalType": "uint256",
          "name": "flightID",
          "type": "uint256"
        },
        {
          "indexed": true,
          "internalType": "address",
          "name": "oracleProvider",
          "type": "address"
        },
        {
          "indexed": false,
          "internalType": "uint64",
          "name": "realDeparture",
          "type": "uint64"
        },
        {
          "indexed": false,
          "internalType": "uint64",
          "name": "realArrival",
          "type": "uint64"
        }
      ],
      "name": "NewResponse",
      "type": "event"
    },
    {
      "anonymous": false,
      "inputs": [
        {
          "indexed": true,
          "internalType": "uint256",
          "name": "flightID",
          "type": "uint256"
        },
        {
          "indexed": false,
          "internalType": "uint64",
          "name": "realDeparture",
          "type": "uint64"
        },
        {
          "indexed": false,
          "internalType": "uint64",
          "name": "realArrival",
          "type": "uint64"
        },
        {
          "indexed": false,
          "internalType": "bool",
          "name": "isLate",
          "type": "bool"
        }
      ],
      "name": "UpdatedFlight",
      "type": "event"
    },
    {
      "inputs": [],
      "name": "authorizedFlightDelay",
      "outputs": [
        {
          "internalType": "uint64",
          "name": "",
          "type": "uint64"
        }
      ],
      "stateMutability": "view",
      "type": "function",
      "constant": true
    },
    {
      "inputs": [],
      "name": "destructContract",
      "outputs": [],
      "stateMutability": "nonpayable",
      "type": "function"
    },
    {
      "inputs": [],
      "name": "isOwner",
      "outputs": [
        {
          "internalType": "bool",
          "name": "_isOwner",
          "type": "bool"
        }
      ],
      "stateMutability": "view",
      "type": "function",
      "constant": true
    },
    {
      "inputs": [
        {
          "internalType": "address",
          "name": "_newOwner",
          "type": "address"
        }
      ],
      "name": "transferOwnership",
      "outputs": [],
      "stateMutability": "nonpayable",
      "type": "function"
    },
    {
      "inputs": [
        {
          "internalType": "address",
          "name": "_flightSuretyData",
          "type": "address"
        },
        {
          "internalType": "address",
          "name": "_oracleProviderRole",
          "type": "address"
        }
      ],
      "name": "initialize",
      "outputs": [],
      "stateMutability": "nonpayable",
      "type": "function"
    },
    {
      "inputs": [
        {
          "internalType": "uint256",
          "name": "_flightID",
          "type": "uint256"
        },
        {
          "internalType": "string",
          "name": "_flightRef",
          "type": "string"
        }
      ],
      "name": "createRequest",
      "outputs": [],
      "stateMutability": "nonpayable",
      "type": "function"
    },
    {
      "inputs": [
        {
          "internalType": "uint256",
          "name": "_requestID",
          "type": "uint256"
        },
        {
          "internalType": "uint64",
          "name": "_realDeparture",
          "type": "uint64"
        },
        {
          "internalType": "uint64",
          "name": "_realArrival",
          "type": "uint64"
        }
      ],
      "name": "respondToRequest",
      "outputs": [],
      "stateMutability": "nonpayable",
      "type": "function"
    },
    {
      "inputs": [],
      "name": "getActivatedOracleProvidersCount",
      "outputs": [
        {
          "internalType": "uint256",
          "name": "count",
          "type": "uint256"
        }
      ],
      "stateMutability": "view",
      "type": "function",
      "constant": true
    }
  ],
  "bytecode": "0x608060405234801561001057600080fd5b506040516115e83803806115e883398101604081905261002f91610067565b600080546001600160a01b03191633179055600280546001600160401b039092166001600160401b0319909216919091179055610095565b600060208284031215610078578081fd5b81516001600160401b038116811461008e578182fd5b9392505050565b611544806100a46000396000f3fe608060405234801561001057600080fd5b50600436106100885760003560e01c8063cadddd7d1161005b578063cadddd7d146100db578063cde6940e146100ee578063d3ad531314610103578063f2fde38b1461011857610088565b80634642d2671461008d578063485cc955146100a25780638f32d59b146100b55780639499e018146100d3575b600080fd5b6100a061009b3660046111de565b61012b565b005b6100a06100b0366004610fcc565b610320565b6100bd610378565b6040516100ca919061123c565b60405180910390f35b6100a0610389565b6100a06100e9366004611168565b6103c1565b6100f6610634565b6040516100ca9190611375565b61010b610643565b6040516100ca919061121f565b6100a0610126366004610fa9565b6106c5565b60095460405163775cbd8d60e01b815233916001600160a01b03169063775cbd8d9061015b908490600401611228565b60206040518083038186803b15801561017357600080fd5b505afa158015610187573d6000803e3d6000fd5b505050506040513d601f19601f820116820180604052508101906101ab9190611004565b6101d05760405162461bcd60e51b81526004016101c7906112db565b60405180910390fd5b6000848152600460208190526040808320546008549151633a4396cb60e01b815290939283926001600160a01b031691633a4396cb916102129187910161121f565b60006040518083038186803b15801561022a57600080fd5b505afa15801561023e573d6000803e3d6000fd5b505050506040513d6000823e601f3d908101601f19168201604052610266919081019061101e565b505050505092509250506000826001600160401b031611801561029257506000816001600160401b0316115b6102ae5760405162461bcd60e51b81526004016101c790611322565b60008781526006602090815260408083203380855292529091205488919060ff16156102ec5760405162461bcd60e51b81526004016101c790611276565b600089815260046020526040902054610307338b8b8b610711565b610314338b8b8b8561090c565b50505050505050505050565b6000546001600160a01b0316331461034a5760405162461bcd60e51b81526004016101c7906112ad565b600880546001600160a01b039384166001600160a01b03199182161790915560098054929093169116179055565b6000546001600160a01b0316331490565b6000546001600160a01b031633146103b35760405162461bcd60e51b81526004016101c7906112ad565b6000546001600160a01b0316ff5b60095460405163775cbd8d60e01b815233916001600160a01b03169063775cbd8d906103f1908490600401611228565b60206040518083038186803b15801561040957600080fd5b505afa15801561041d573d6000803e3d6000fd5b505050506040513d601f19601f820116820180604052508101906104419190611004565b61045d5760405162461bcd60e51b81526004016101c7906112db565b600854604051633a4396cb60e01b8152859160009182916001600160a01b031690633a4396cb9061049290869060040161121f565b60006040518083038186803b1580156104aa57600080fd5b505afa1580156104be573d6000803e3d6000fd5b505050506040513d6000823e601f3d908101601f191682016040526104e6919081019061101e565b505050505092509250506000826001600160401b031611801561051257506000816001600160401b0316115b61052e5760405162461bcd60e51b81526004016101c790611322565b600061053a6005610c84565b60035490915061054b906001610cf0565b600381905550604051806080016040528089815260200188888080601f0160208091040260200160405190810160405280939291908181526020018383808284376000920182905250938552505050602080830185905260409283018290526003548252600481529190208251815582820151805191926105d492600185019290910190610eea565b50604082015181600201556060820151816003015590505080886003547fca9e621fdc96e6f22f70cb156bd2a2070b94f571d304c7fd10de5532b7df07c88a8a604051610622929190611247565b60405180910390a45050505050505050565b6002546001600160401b031681565b6009546040805163d3ad531360e01b815290516000926001600160a01b03169163d3ad5313916004808301926020929190829003018186803b15801561068857600080fd5b505afa15801561069c573d6000803e3d6000fd5b505050506040513d601f19601f820116820180604052508101906106c09190611150565b905090565b6000546001600160a01b031633146106ef5760405162461bcd60e51b81526004016101c7906112ad565b600080546001600160a01b0319166001600160a01b0392909216919091179055565b600083815260046020526040812060030180549161072e83611470565b909155505060008381526006602090815260408083206001600160a01b03881684528252808320805460ff19166001179055858352600582528083206001600160401b0386168452909152812080549161078783611470565b909155505060008381526005602090815260408083206001600160401b038516845290915281208054916107ba83611470565b90915550506000838152600760205260409020546001600160401b031661082257600083815260076020526040902080546001600160401b03838116600160401b0267ffffffffffffffff60401b1991861667ffffffffffffffff1990931692909217161790555b60008381526005602090815260408083206001600160401b0386811685528184528285205488865260078552838620549091168552925290912054111561088c576000838152600760205260409020805467ffffffffffffffff19166001600160401b0384161790555b60008381526005602090815260408083206001600160401b038581168552818452828520548886526007855283862054600160401b900490911685529252909120541115610906576000838152600760205260409020805467ffffffffffffffff60401b1916600160401b6001600160401b038416021790555b50505050565b6109886002306001600160a01b031663d3ad53136040518163ffffffff1660e01b815260040160206040518083038186803b15801561094a57600080fd5b505afa15801561095e573d6000803e3d6000fd5b505050506040513d601f19601f820116820180604052508101906109829190611150565b90610d05565b600085815260056020908152604080832060078352818420546001600160401b0316845290915290205410801590610a2d57506109f96002306001600160a01b031663d3ad53136040518163ffffffff1660e01b815260040160206040518083038186803b15801561094a57600080fd5b60008581526005602090815260408083206007835281842054600160401b90046001600160401b0316845290915290205410155b15610ba457600854604051633a4396cb60e01b815260009182916001600160a01b0390911690633a4396cb90610a6790869060040161121f565b60006040518083038186803b158015610a7f57600080fd5b505afa158015610a93573d6000803e3d6000fd5b505050506040513d6000823e601f3d908101601f19168201604052610abb919081019061101e565b975050505050935050506000610ad387848888610d11565b9050610adf8183610da2565b876001600160a01b031684887f6df3b5fe0784f75088290e5600d09ae7171e7fe10b267a42c174adec3347240e8989604051610b1c929190611389565b60405180910390a4837f6dc1daabe93cf7db34702c320e2bad8c3ce355c88a708ea8fdd236309b8eb2ee868884604051610b58939291906113a3565b60405180910390a2837fc836efc6512c31c528bdba0acef435557e48c3ddbe83ef5ac1b6386fc4fd5749878784604051610b94939291906113a3565b60405180910390a2505050610c7d565b610be26002306001600160a01b031663d3ad53136040518163ffffffff1660e01b815260040160206040518083038186803b15801561094a57600080fd5b6000858152600460205260409020600301541115610c37576000848152600460205260408082205490519091829187917f7f502fdd694680e3c61a6b1d8efc70881651552e6885a8dafbc874e9da1f12c891a3505b846001600160a01b031681857f6df3b5fe0784f75088290e5600d09ae7171e7fe10b267a42c174adec3347240e8686604051610c74929190611389565b60405180910390a45b5050505050565b6000606460015410610c965760006001555b6001805483916000610ca783611470565b90915550610cb590426113c7565b604051602001610cc5919061121f565b6040516020818303038152906040528051906020012060001c610ce8919061148b565b90505b919050565b6000610cfc82846113c7565b90505b92915050565b6000610cfc828461140a565b6000610d1d8483610e9c565b600086815260046020819052604091829020546008549251633b5fc92f60e21b8152939450926001600160a01b039092169163ed7f24bc91610d679185918991899189910161134e565b600060405180830381600087803b158015610d8157600080fd5b505af1158015610d95573d6000803e3d6000fd5b5050505050949350505050565b81610e985760085460408051631a9160d760e31b815290516000926001600160a01b03169163d48b06b8916004808301926020929190829003018186803b158015610dec57600080fd5b505afa158015610e00573d6000803e3d6000fd5b505050506040513d601f19601f82011682018060405250810190610e249190611150565b90506000610e328284610ede565b600854604051630b33771560e01b81529192506001600160a01b031690630b33771590610e6390849060040161121f565b600060405180830381600087803b158015610e7d57600080fd5b505af1158015610e91573d6000803e3d6000fd5b5050505050505b5050565b600254600090610eb5906001600160401b0316846113df565b6001600160401b0316826001600160401b03161115610ed657506001610cff565b506000610cff565b6000610cfc828461141e565b828054610ef690611435565b90600052602060002090601f016020900481019282610f185760008555610f5e565b82601f10610f3157805160ff1916838001178555610f5e565b82800160010185558215610f5e579182015b82811115610f5e578251825591602001919060010190610f43565b50610f6a929150610f6e565b5090565b5b80821115610f6a5760008155600101610f6f565b8051610ceb816114e1565b80518015158114610ceb57600080fd5b8051610ceb816114f9565b600060208284031215610fba578081fd5b8135610fc5816114e1565b9392505050565b60008060408385031215610fde578081fd5b8235610fe9816114e1565b91506020830135610ff9816114e1565b809150509250929050565b600060208284031215611015578081fd5b610cfc82610f8e565b600080600080600080600080610100898b03121561103a578384fd5b88516001600160401b0380821115611050578586fd5b818b0191508b601f830112611063578586fd5b815181811115611075576110756114cb565b6040516020601f8301601f191682018101848111838210171561109a5761109a6114cb565b60405282825284830181018f10156110b0578889fd5b8893505b828410156110d157848401810151828501820152928301926110b4565b828411156110e157888184840101525b819c506110ef818f01610f9e565b9b50505050505061110260408a01610f9e565b955061111060608a01610f9e565b945061111e60808a01610f9e565b935061112c60a08a01610f8e565b925061113a60c08a01610f83565b915060e089015190509295985092959890939650565b600060208284031215611161578081fd5b5051919050565b60008060006040848603121561117c578283fd5b8335925060208401356001600160401b0380821115611199578384fd5b818601915086601f8301126111ac578384fd5b8135818111156111ba578485fd5b8760208285010111156111cb578485fd5b6020830194508093505050509250925092565b6000806000606084860312156111f2578283fd5b833592506020840135611204816114f9565b91506040840135611214816114f9565b809150509250925092565b90815260200190565b6001600160a01b0391909116815260200190565b901515815260200190565b60006020825282602083015282846040840137818301604090810191909152601f909201601f19160101919050565b6020808252601b908201527f63616c6c65722068617320616c726561647920616e7377657265640000000000604082015260600190565b60208082526014908201527331b0b63632b91036bab9ba1031329037bbb732b960611b604082015260600190565b60208082526027908201527f63616c6c6572206973206e6f7420616374697661746564206f7261636c6520706040820152663937bb34b232b960c91b606082015260800190565b602080825260129082015271666c69676874206d7573742065786973747360701b604082015260600190565b9384526001600160401b039283166020850152911660408301521515606082015260800190565b6001600160401b0391909116815260200190565b6001600160401b0392831681529116602082015260400190565b6001600160401b039384168152919092166020820152901515604082015260600190565b600082198211156113da576113da61149f565b500190565b60006001600160401b038083168185168083038211156114015761140161149f565b01949350505050565b600082611419576114196114b5565b500490565b6000828210156114305761143061149f565b500390565b60028104600182168061144957607f821691505b6020821081141561146a57634e487b7160e01b600052602260045260246000fd5b50919050565b60006000198214156114845761148461149f565b5060010190565b60008261149a5761149a6114b5565b500690565b634e487b7160e01b600052601160045260246000fd5b634e487b7160e01b600052601260045260246000fd5b634e487b7160e01b600052604160045260246000fd5b6001600160a01b03811681146114f657600080fd5b50565b6001600160401b03811681146114f657600080fdfea264697066735822122059bae7726786905f6f1b3ae00c3254674099f620cd2225fcd43458ba624db85e64736f6c63430008000033",
  "immutableReferences": {},
  "source": "// SPDX-License-Identifier: UNLICENSED\npragma solidity ^0.8.00;\n\nimport \"../Ownable/Ownable.sol\";\nimport \"../Random/Random.sol\";\nimport \"./interfaces/IOracleProviderRoleOracle.sol\";\nimport \"./interfaces/IFlightSuretyDataOracle.sol\";\nimport \"@openzeppelin/contracts/utils/math/SafeMath.sol\";\n\ncontract FlightSuretyOracle is Ownable, Random {\n    using SafeMath for uint256;\n    struct Request {\n        uint256 flightID;\n        string flightRef;\n        uint256 activatedIndex;\n        uint256 responseCount;\n    }\n\n    // one hour flight delay = 3600 block\n    uint64 public authorizedFlightDelay;\n    uint256 currentRequestID;\n    mapping(uint256 => Request) requests;\n    mapping(uint256 => mapping(uint64 => uint256)) responses;\n    mapping(uint256 => mapping(address => bool)) responseCallers;\n    mapping(uint256 => uint64[2]) acceptedAnswer;\n    IFlightSuretyDataOracle flightSuretyData;\n    IOracleProviderRoleOracle oracleProviderRole;\n\n    // requests related events\n    event NewRequest(\n        uint256 indexed requestID,\n        uint256 indexed flightID,\n        uint256 indexed activatedIndex,\n        string flightRef\n    );\n    event FailedRequest(uint256 indexed requestID, uint256 indexed flightID);\n    // responses related events\n    event NewResponse(\n        uint256 indexed requestID,\n        uint256 indexed flightID,\n        address indexed oracleProvider,\n        uint64 realDeparture,\n        uint64 realArrival\n    );\n    event AcceptedResponse(\n        uint256 indexed flightID,\n        uint64 realArrival,\n        uint64 realDeparture,\n        bool isLate\n    );\n    // flights related events\n    event UpdatedFlight(\n        uint256 indexed flightID,\n        uint64 realDeparture,\n        uint64 realArrival,\n        bool isLate\n    );\n\n    modifier onlyActivatedOracleProvider(address _caller) {\n        require(\n            oracleProviderRole.isActivatedOracleProvider(_caller),\n            \"caller is not activated oracle provider\"\n        );\n        _;\n    }\n\n    modifier onlySelectedOracleProvider(uint256 _requestID) {\n        uint256[3] memory oracleProvidersIndexes = oracleProviderRole\n            .getOracleProviderIndexes(msg.sender);\n        require(\n            oracleProvidersIndexes[0] == requests[_requestID].activatedIndex ||\n                oracleProvidersIndexes[1] ==\n                requests[_requestID].activatedIndex ||\n                oracleProvidersIndexes[2] ==\n                requests[_requestID].activatedIndex,\n            \"oracle provider indexes must match request indexes\"\n        );\n        _;\n    }\n\n    modifier requireOracleProviderHasNotAnsweredRequest(\n        uint256 requestID,\n        address caller\n    ) {\n        require(\n            !responseCallers[requestID][caller],\n            \"caller has already answered\"\n        );\n        _;\n    }\n\n    modifier requireFlightExists(uint256 _flightID) {\n        (\n            ,\n            uint64 estimatedDeparture,\n            uint64 estimatedArrival,\n            ,\n            ,\n            ,\n            ,\n\n        ) = flightSuretyData.getFlight(_flightID);\n        require(\n            estimatedDeparture > 0 && estimatedArrival > 0,\n            \"flight must exists\"\n        );\n        _;\n    }\n\n    // constructor setting authorized flight delay\n    constructor(uint64 _authorizedFlightDelay) Ownable() {\n        authorizedFlightDelay = _authorizedFlightDelay;\n    }\n\n    // initialize external contracts addresses\n    function initialize(address _flightSuretyData, address _oracleProviderRole)\n        external\n        onlyOwner\n    {\n        // registering external contracts address\n        flightSuretyData = IFlightSuretyDataOracle(_flightSuretyData);\n        oracleProviderRole = IOracleProviderRoleOracle(_oracleProviderRole);\n    }\n\n    // create a request for a targeted oracle provider subset\n    function createRequest(uint256 _flightID, string calldata _flightRef)\n        external\n        onlyActivatedOracleProvider(msg.sender)\n        requireFlightExists(_flightID)\n    {\n        uint256 _randomIndex = _rand(5);\n        currentRequestID = currentRequestID.add(1);\n        requests[currentRequestID] = Request({\n            flightID: _flightID,\n            flightRef: _flightRef,\n            activatedIndex: _randomIndex,\n            responseCount: 0\n        });\n        emit NewRequest(currentRequestID, _flightID, _randomIndex, _flightRef);\n    }\n\n    // update responses to a request and validate the accepted outcome according to multiparty consensus rules\n    function respondToRequest(\n        uint256 _requestID,\n        uint64 _realDeparture,\n        uint64 _realArrival\n    )\n        external\n        onlyActivatedOracleProvider(msg.sender)\n        requireFlightExists(requests[_requestID].flightID)\n        requireOracleProviderHasNotAnsweredRequest(_requestID, msg.sender)\n    {\n        uint256 flightID = requests[_requestID].flightID;\n        _updateResponses(msg.sender, _requestID, _realDeparture, _realArrival);\n        _acceptResponse(\n            msg.sender,\n            _requestID,\n            _realDeparture,\n            _realArrival,\n            flightID\n        );\n    }\n\n    // update responses to a request incrementing each outcomes to decide which response makes consensus among the selected set of oracle provider\n    function _updateResponses(\n        address _caller,\n        uint256 _requestID,\n        uint64 _realDeparture,\n        uint64 _realArrival\n    ) internal {\n        // increment response count related to request\n        requests[_requestID].responseCount++;\n        // set caller of a request to msg.sender to forbid multi call for a single request\n        responseCallers[_requestID][_caller] = true;\n        // set the proposed real departure field of a request id an count agreement + 1\n        responses[_requestID][_realDeparture]++;\n        // set the proposed real arrival field of a request id an count agreement + 1\n        responses[_requestID][_realArrival]++;\n        // if first response to a request set it as the accepted answer\n        if (acceptedAnswer[_requestID][0] == 0) {\n            acceptedAnswer[_requestID][0] = _realDeparture;\n            acceptedAnswer[_requestID][1] = _realArrival;\n        }\n        // change the accepted answers according to the oracle call\n        if (\n            responses[_requestID][acceptedAnswer[_requestID][0]] >\n            responses[_requestID][_realDeparture]\n        ) {\n            acceptedAnswer[_requestID][0] = _realDeparture;\n        }\n\n        if (\n            responses[_requestID][acceptedAnswer[_requestID][1]] >\n            responses[_requestID][_realArrival]\n        ) {\n            acceptedAnswer[_requestID][1] = _realArrival;\n        }\n    }\n\n    // accept or reject an accepted response as the final one according to a set treshold constant\n    function _acceptResponse(\n        address _caller,\n        uint256 _requestID,\n        uint64 _realDeparture,\n        uint64 _realArrival,\n        uint256 flightID\n    ) internal {\n        // check if consensus treshold on the accepted answer (the most present data) is reached\n        if (\n            responses[_requestID][acceptedAnswer[_requestID][0]] >=\n            this.getActivatedOracleProvidersCount().div(2) &&\n            responses[_requestID][acceptedAnswer[_requestID][1]] >=\n            this.getActivatedOracleProvidersCount().div(2)\n        ) {\n            // get flight\n            (\n                ,\n                ,\n                uint64 _estimatedArrival,\n                ,\n                ,\n                ,\n                ,\n                uint256 insuredValue\n            ) = flightSuretyData.getFlight(flightID);\n            // update flight attributes\n            bool _isLate = _updateFlight(\n                _requestID,\n                _estimatedArrival,\n                _realDeparture,\n                _realArrival\n            );\n            // update total insured value if flight is not late (no funds to cover anymore)\n            _updateTotalInsuredValue(_isLate, insuredValue);\n            emit NewResponse(\n                _requestID,\n                flightID,\n                _caller,\n                _realDeparture,\n                _realArrival\n            );\n            emit AcceptedResponse(\n                flightID,\n                _realArrival,\n                _realDeparture,\n                _isLate\n            );\n            emit UpdatedFlight(flightID, _realDeparture, _realArrival, _isLate);\n        } else {\n            if (\n                requests[_requestID].responseCount >\n                this.getActivatedOracleProvidersCount().div(2)\n            ) {\n                uint256 _flightID = requests[_requestID].flightID;\n                emit FailedRequest(_requestID, _flightID);\n            }\n            emit NewResponse(\n                _requestID,\n                flightID,\n                _caller,\n                _realDeparture,\n                _realArrival\n            );\n        }\n    }\n\n    // check if a flight is late\n    function checkFlightIsLate(uint64 _estimatedArrival, uint64 _realArrival)\n        internal\n        view\n        returns (bool isLate)\n    {\n        if (_realArrival > _estimatedArrival + authorizedFlightDelay) {\n            return true;\n        } else {\n            return false;\n        }\n    }\n\n    function getActivatedOracleProvidersCount()\n        external\n        view\n        returns (uint256 count)\n    {\n        return oracleProviderRole.getActivatedOracleProvidersCount();\n    }\n\n    // update flight data\n    function _updateFlight(\n        uint256 _requestID,\n        uint64 _estimatedArrival,\n        uint64 _realDeparture,\n        uint64 _realArrival\n    ) internal returns (bool _isLate) {\n        _isLate = checkFlightIsLate(_estimatedArrival, _realArrival);\n        uint256 _flightID = requests[_requestID].flightID;\n        flightSuretyData.updateFlight(\n            _flightID,\n            _realDeparture,\n            _realArrival,\n            _isLate\n        );\n        return _isLate;\n    }\n\n    // update insured value if flight is not late (no funds to cover anymore)\n    function _updateTotalInsuredValue(bool _isLate, uint256 _flightInsuredValue)\n        internal\n    {\n        if (!_isLate) {\n            uint256 totalInsuredValue = flightSuretyData.getTotalInsuredValue();\n            uint256 newTotalInsuredValue = totalInsuredValue.sub(\n                _flightInsuredValue\n            );\n            flightSuretyData.setTotalInsuredValue(newTotalInsuredValue);\n        }\n    }\n}\n",
  "sourcePath": "/home/tothemoon_/Documents/FlightInsurance/contracts/FlightSuretyOracle/FlightSuretyOracle.sol",
  "compiler": {
    "name": "solc",
    "version": "0.8.0+commit.c7dfd78e.Emscripten.clang"
  },
  "schemaVersion": "3.4.2",
  "updatedAt": "2021-08-16T07:14:01.887Z",
  "networkType": "ethereum",
  "devdoc": {
    "kind": "dev",
    "methods": {},
    "version": 1
  },
  "userdoc": {
    "kind": "user",
    "methods": {},
    "version": 1
  }
}