{
  "contractName": "FlightSuretyApp",
  "abi": [
    {
      "inputs": [],
      "stateMutability": "nonpayable",
      "type": "constructor"
    },
    {
      "anonymous": false,
      "inputs": [
        {
          "indexed": true,
          "internalType": "uint256",
          "name": "proposalID",
          "type": "uint256"
        },
        {
          "indexed": false,
          "internalType": "uint256",
          "name": "insuranceCoverage",
          "type": "uint256"
        }
      ],
      "name": "ActivatedInsuranceCoverageAmendmentProposal",
      "type": "event"
    },
    {
      "anonymous": false,
      "inputs": [
        {
          "indexed": true,
          "internalType": "address",
          "name": "insuranceProvider",
          "type": "address"
        }
      ],
      "name": "ActivatedInsuranceProvider",
      "type": "event"
    },
    {
      "anonymous": false,
      "inputs": [
        {
          "indexed": true,
          "internalType": "uint256",
          "name": "proposalID",
          "type": "uint256"
        },
        {
          "indexed": false,
          "internalType": "uint256",
          "name": "lockedMembershipFee",
          "type": "uint256"
        }
      ],
      "name": "ActivatedMembershipFeeAmendmentProposal",
      "type": "event"
    },
    {
      "anonymous": false,
      "inputs": [
        {
          "indexed": true,
          "internalType": "address",
          "name": "oracleProvider",
          "type": "address"
        }
      ],
      "name": "ActivatedOracleProvider",
      "type": "event"
    },
    {
      "anonymous": false,
      "inputs": [
        {
          "indexed": true,
          "internalType": "address",
          "name": "contractOwner",
          "type": "address"
        },
        {
          "indexed": false,
          "internalType": "address",
          "name": "caller",
          "type": "address"
        },
        {
          "indexed": false,
          "internalType": "address",
          "name": "contractAddress",
          "type": "address"
        }
      ],
      "name": "AuthorizedCaller",
      "type": "event"
    },
    {
      "anonymous": false,
      "inputs": [
        {
          "indexed": true,
          "internalType": "uint256",
          "name": "flightID",
          "type": "uint256"
        },
        {
          "indexed": true,
          "internalType": "address",
          "name": "insuranceProvider",
          "type": "address"
        },
        {
          "indexed": false,
          "internalType": "uint256",
          "name": "estimatedDeparture",
          "type": "uint256"
        },
        {
          "indexed": false,
          "internalType": "uint256",
          "name": "estimatedArrival",
          "type": "uint256"
        },
        {
          "indexed": false,
          "internalType": "string",
          "name": "flightRef",
          "type": "string"
        },
        {
          "indexed": false,
          "internalType": "uint256",
          "name": "rate",
          "type": "uint256"
        }
      ],
      "name": "NewFlight",
      "type": "event"
    },
    {
      "anonymous": false,
      "inputs": [
        {
          "indexed": true,
          "internalType": "address",
          "name": "passenger",
          "type": "address"
        },
        {
          "indexed": true,
          "internalType": "address",
          "name": "insuranceProvider",
          "type": "address"
        },
        {
          "indexed": true,
          "internalType": "uint256",
          "name": "insuranceID",
          "type": "uint256"
        },
        {
          "indexed": false,
          "internalType": "uint256",
          "name": "flightID",
          "type": "uint256"
        },
        {
          "indexed": false,
          "internalType": "uint256",
          "name": "insuredValue",
          "type": "uint256"
        }
      ],
      "name": "NewInsurance",
      "type": "event"
    },
    {
      "anonymous": false,
      "inputs": [
        {
          "indexed": true,
          "internalType": "uint256",
          "name": "proposalID",
          "type": "uint256"
        },
        {
          "indexed": true,
          "internalType": "address",
          "name": "caller",
          "type": "address"
        },
        {
          "indexed": false,
          "internalType": "uint256",
          "name": "insuranceCoverage",
          "type": "uint256"
        }
      ],
      "name": "NewInsuranceCoverageAmendmentProposal",
      "type": "event"
    },
    {
      "anonymous": false,
      "inputs": [
        {
          "indexed": true,
          "internalType": "uint256",
          "name": "proposalID",
          "type": "uint256"
        },
        {
          "indexed": true,
          "internalType": "address",
          "name": "caller",
          "type": "address"
        },
        {
          "indexed": false,
          "internalType": "uint256",
          "name": "proposedMembershipFee",
          "type": "uint256"
        }
      ],
      "name": "NewMembershipFeeAmendmentProposal",
      "type": "event"
    },
    {
      "anonymous": false,
      "inputs": [
        {
          "indexed": true,
          "internalType": "address",
          "name": "owner",
          "type": "address"
        },
        {
          "indexed": true,
          "internalType": "address",
          "name": "insuranceProvider",
          "type": "address"
        },
        {
          "indexed": true,
          "internalType": "uint256",
          "name": "insuranceID",
          "type": "uint256"
        },
        {
          "indexed": false,
          "internalType": "uint256",
          "name": "flightID",
          "type": "uint256"
        },
        {
          "indexed": false,
          "internalType": "uint256",
          "name": "insuredValue",
          "type": "uint256"
        }
      ],
      "name": "NewPayout",
      "type": "event"
    },
    {
      "anonymous": false,
      "inputs": [
        {
          "indexed": true,
          "internalType": "uint256",
          "name": "proposalID",
          "type": "uint256"
        },
        {
          "indexed": true,
          "internalType": "address",
          "name": "voter",
          "type": "address"
        }
      ],
      "name": "NewVoteInsuranceCoverageAmendmentProposal",
      "type": "event"
    },
    {
      "anonymous": false,
      "inputs": [
        {
          "indexed": true,
          "internalType": "address",
          "name": "voter",
          "type": "address"
        },
        {
          "indexed": true,
          "internalType": "bool",
          "name": "side",
          "type": "bool"
        },
        {
          "indexed": true,
          "internalType": "address",
          "name": "votee",
          "type": "address"
        }
      ],
      "name": "NewVoteInsuranceProvider",
      "type": "event"
    },
    {
      "anonymous": false,
      "inputs": [
        {
          "indexed": true,
          "internalType": "uint256",
          "name": "proposalID",
          "type": "uint256"
        },
        {
          "indexed": true,
          "internalType": "address",
          "name": "voter",
          "type": "address"
        }
      ],
      "name": "NewVoteMembershipFeeAmendmentProposal",
      "type": "event"
    },
    {
      "anonymous": false,
      "inputs": [
        {
          "indexed": true,
          "internalType": "address",
          "name": "voter",
          "type": "address"
        },
        {
          "indexed": true,
          "internalType": "bool",
          "name": "side",
          "type": "bool"
        },
        {
          "indexed": true,
          "internalType": "address",
          "name": "votee",
          "type": "address"
        }
      ],
      "name": "NewVoteOracleProvider",
      "type": "event"
    },
    {
      "anonymous": false,
      "inputs": [
        {
          "indexed": true,
          "internalType": "address",
          "name": "insuranceProvider",
          "type": "address"
        }
      ],
      "name": "RegisteredInsuranceProvider",
      "type": "event"
    },
    {
      "anonymous": false,
      "inputs": [
        {
          "indexed": true,
          "internalType": "address",
          "name": "oracleProvider",
          "type": "address"
        }
      ],
      "name": "RegisteredOracleProvider",
      "type": "event"
    },
    {
      "anonymous": false,
      "inputs": [
        {
          "indexed": true,
          "internalType": "address",
          "name": "insuranceProvider",
          "type": "address"
        }
      ],
      "name": "RemovedInsuranceProvider",
      "type": "event"
    },
    {
      "anonymous": false,
      "inputs": [
        {
          "indexed": true,
          "internalType": "address",
          "name": "oracleProvider",
          "type": "address"
        }
      ],
      "name": "RemovedOracleProvider",
      "type": "event"
    },
    {
      "anonymous": false,
      "inputs": [
        {
          "indexed": true,
          "internalType": "address",
          "name": "contractOwner",
          "type": "address"
        },
        {
          "indexed": false,
          "internalType": "address",
          "name": "caller",
          "type": "address"
        },
        {
          "indexed": false,
          "internalType": "address",
          "name": "contractAddress",
          "type": "address"
        }
      ],
      "name": "UnauthorizedCaller",
      "type": "event"
    },
    {
      "inputs": [],
      "name": "PROPOSAL_VALID_BLOCK_NUMBER",
      "outputs": [
        {
          "internalType": "uint256",
          "name": "",
          "type": "uint256"
        }
      ],
      "stateMutability": "view",
      "type": "function",
      "constant": true
    },
    {
      "inputs": [],
      "name": "TOKEN_HOLDER_MINIMUM_BLOCK_REQUIREMENT",
      "outputs": [
        {
          "internalType": "uint256",
          "name": "",
          "type": "uint256"
        }
      ],
      "stateMutability": "view",
      "type": "function",
      "constant": true
    },
    {
      "inputs": [],
      "name": "destructContract",
      "outputs": [],
      "stateMutability": "nonpayable",
      "type": "function"
    },
    {
      "inputs": [],
      "name": "isOwner",
      "outputs": [
        {
          "internalType": "bool",
          "name": "_isOwner",
          "type": "bool"
        }
      ],
      "stateMutability": "view",
      "type": "function",
      "constant": true
    },
    {
      "inputs": [
        {
          "internalType": "address",
          "name": "_newOwner",
          "type": "address"
        }
      ],
      "name": "transferOwnership",
      "outputs": [],
      "stateMutability": "nonpayable",
      "type": "function"
    },
    {
      "inputs": [
        {
          "internalType": "address",
          "name": "_flightSuretyData",
          "type": "address"
        },
        {
          "internalType": "address",
          "name": "_insuranceCoverageAmendmentProposal",
          "type": "address"
        },
        {
          "internalType": "address",
          "name": "_membershipFeeAmendmentProposal",
          "type": "address"
        },
        {
          "internalType": "address",
          "name": "_insuranceProviderRole",
          "type": "address"
        },
        {
          "internalType": "address",
          "name": "_oracleProviderRole",
          "type": "address"
        },
        {
          "internalType": "address",
          "name": "_flightSuretyShares",
          "type": "address"
        }
      ],
      "name": "initialize",
      "outputs": [],
      "stateMutability": "nonpayable",
      "type": "function"
    },
    {
      "inputs": [
        {
          "internalType": "address",
          "name": "_authorizedCaller",
          "type": "address"
        },
        {
          "internalType": "bool",
          "name": "_access",
          "type": "bool"
        }
      ],
      "name": "updateAuthorizedCallerFlightSuretyData",
      "outputs": [],
      "stateMutability": "nonpayable",
      "type": "function"
    },
    {
      "inputs": [
        {
          "internalType": "address",
          "name": "_authorizedCaller",
          "type": "address"
        },
        {
          "internalType": "bool",
          "name": "_access",
          "type": "bool"
        }
      ],
      "name": "updateAuthorizedCallerInsuranceCoverageAmendmentProposal",
      "outputs": [],
      "stateMutability": "nonpayable",
      "type": "function"
    },
    {
      "inputs": [
        {
          "internalType": "address",
          "name": "_authorizedCaller",
          "type": "address"
        },
        {
          "internalType": "bool",
          "name": "_access",
          "type": "bool"
        }
      ],
      "name": "updateAuthorizedCallerMembershipFeeAmendmentProposal",
      "outputs": [],
      "stateMutability": "nonpayable",
      "type": "function"
    },
    {
      "inputs": [
        {
          "internalType": "address",
          "name": "_authorizedCaller",
          "type": "address"
        },
        {
          "internalType": "bool",
          "name": "_access",
          "type": "bool"
        }
      ],
      "name": "updateAuthorizedCallerInsuranceProviderRole",
      "outputs": [],
      "stateMutability": "nonpayable",
      "type": "function"
    },
    {
      "inputs": [
        {
          "internalType": "address",
          "name": "_authorizedCaller",
          "type": "address"
        },
        {
          "internalType": "bool",
          "name": "_access",
          "type": "bool"
        }
      ],
      "name": "updateAuthorizedCallerOracleProviderRole",
      "outputs": [],
      "stateMutability": "nonpayable",
      "type": "function"
    },
    {
      "inputs": [
        {
          "internalType": "address",
          "name": "_authorizedCaller",
          "type": "address"
        },
        {
          "internalType": "bool",
          "name": "_access",
          "type": "bool"
        }
      ],
      "name": "updateAuthorizedCallerFlighSuretyShares",
      "outputs": [],
      "stateMutability": "nonpayable",
      "type": "function"
    },
    {
      "inputs": [],
      "name": "registerInsuranceProvider",
      "outputs": [],
      "stateMutability": "payable",
      "type": "function",
      "payable": true
    },
    {
      "inputs": [],
      "name": "registerOracleProvider",
      "outputs": [],
      "stateMutability": "payable",
      "type": "function",
      "payable": true
    },
    {
      "inputs": [
        {
          "internalType": "address",
          "name": "_account",
          "type": "address"
        }
      ],
      "name": "voteInsuranceProviderMembership",
      "outputs": [],
      "stateMutability": "nonpayable",
      "type": "function"
    },
    {
      "inputs": [
        {
          "internalType": "address",
          "name": "_account",
          "type": "address"
        }
      ],
      "name": "voteOracleProviderMembership",
      "outputs": [],
      "stateMutability": "nonpayable",
      "type": "function"
    },
    {
      "inputs": [
        {
          "internalType": "string",
          "name": "_flightRef",
          "type": "string"
        },
        {
          "internalType": "uint64",
          "name": "_estimatedDeparture",
          "type": "uint64"
        },
        {
          "internalType": "uint64",
          "name": "_estimatedArrival",
          "type": "uint64"
        },
        {
          "internalType": "uint256",
          "name": "_rate",
          "type": "uint256"
        }
      ],
      "name": "registerFlight",
      "outputs": [],
      "stateMutability": "nonpayable",
      "type": "function"
    },
    {
      "inputs": [
        {
          "internalType": "uint256",
          "name": "_flightID",
          "type": "uint256"
        }
      ],
      "name": "getFlightInitialData",
      "outputs": [
        {
          "internalType": "string",
          "name": "flightRef",
          "type": "string"
        },
        {
          "internalType": "uint64",
          "name": "estimatedDeparture",
          "type": "uint64"
        },
        {
          "internalType": "uint64",
          "name": "estimatedArrival",
          "type": "uint64"
        },
        {
          "internalType": "address",
          "name": "insuranceProvider",
          "type": "address"
        },
        {
          "internalType": "uint256",
          "name": "rate",
          "type": "uint256"
        }
      ],
      "stateMutability": "view",
      "type": "function",
      "constant": true
    },
    {
      "inputs": [
        {
          "internalType": "uint256",
          "name": "_flightID",
          "type": "uint256"
        }
      ],
      "name": "getFlightSettlementData",
      "outputs": [
        {
          "internalType": "string",
          "name": "flightRef",
          "type": "string"
        },
        {
          "internalType": "uint64",
          "name": "realDeparture",
          "type": "uint64"
        },
        {
          "internalType": "uint64",
          "name": "realArrival",
          "type": "uint64"
        },
        {
          "internalType": "bool",
          "name": "isLate",
          "type": "bool"
        },
        {
          "internalType": "address",
          "name": "insuranceProvider",
          "type": "address"
        },
        {
          "internalType": "uint256",
          "name": "insuredValue",
          "type": "uint256"
        }
      ],
      "stateMutability": "view",
      "type": "function",
      "constant": true
    },
    {
      "inputs": [
        {
          "internalType": "uint256",
          "name": "_flightID",
          "type": "uint256"
        }
      ],
      "name": "registerInsurance",
      "outputs": [],
      "stateMutability": "payable",
      "type": "function",
      "payable": true
    },
    {
      "inputs": [
        {
          "internalType": "uint256",
          "name": "_insuranceID",
          "type": "uint256"
        }
      ],
      "name": "claimInsurance",
      "outputs": [],
      "stateMutability": "payable",
      "type": "function",
      "payable": true
    },
    {
      "inputs": [],
      "name": "currentMembershipFee",
      "outputs": [
        {
          "internalType": "uint256",
          "name": "",
          "type": "uint256"
        }
      ],
      "stateMutability": "view",
      "type": "function",
      "constant": true
    },
    {
      "inputs": [],
      "name": "currentInsuranceCoverageRatio",
      "outputs": [
        {
          "internalType": "uint256",
          "name": "",
          "type": "uint256"
        }
      ],
      "stateMutability": "view",
      "type": "function",
      "constant": true
    },
    {
      "inputs": [
        {
          "internalType": "uint256",
          "name": "_proposedValue",
          "type": "uint256"
        }
      ],
      "name": "registerMembershipFeeAmendmentProposal",
      "outputs": [],
      "stateMutability": "nonpayable",
      "type": "function"
    },
    {
      "inputs": [
        {
          "internalType": "uint256",
          "name": "_proposalID",
          "type": "uint256"
        }
      ],
      "name": "voteMembershipFeeAmendmentProposal",
      "outputs": [],
      "stateMutability": "nonpayable",
      "type": "function"
    },
    {
      "inputs": [
        {
          "internalType": "uint256",
          "name": "_proposedValue",
          "type": "uint256"
        }
      ],
      "name": "registerInsuranceCoverageAmendmentProposal",
      "outputs": [],
      "stateMutability": "nonpayable",
      "type": "function"
    },
    {
      "inputs": [
        {
          "internalType": "uint256",
          "name": "_proposalID",
          "type": "uint256"
        }
      ],
      "name": "voteInsuranceCoverageAmendmentProposal",
      "outputs": [],
      "stateMutability": "nonpayable",
      "type": "function"
    },
    {
      "inputs": [],
      "name": "getOracleIndexes",
      "outputs": [
        {
          "internalType": "uint256",
          "name": "index1",
          "type": "uint256"
        },
        {
          "internalType": "uint256",
          "name": "index2",
          "type": "uint256"
        },
        {
          "internalType": "uint256",
          "name": "index3",
          "type": "uint256"
        }
      ],
      "stateMutability": "view",
      "type": "function",
      "constant": true
    }
  ],
  "bytecode": "0x608060405234801561001057600080fd5b50600080546001600160a01b03191633179055614c65806100326000396000f3fe6080604052600436106101b75760003560e01c80636c548134116100ec578063c7aa26281161008a578063d94f2dd111610064578063d94f2dd114610494578063f2fde38b146104a9578063f55f6651146104c9578063f85920d8146104e9576101b7565b8063c7aa262814610434578063ca51f66414610454578063cc2a9a5b14610474576101b7565b80639499e018116100c65780639499e018146103ae57806397a10723146103c3578063bbab5166146103f4578063be37811414610414576101b7565b80636c548134146103645780638a4fa7f01461036c5780638f32d59b1461038c576101b7565b806327a5fe7e11610159578063554a75ca11610133578063554a75ca146102d25780635ed5207b146102f25780635eeb2d881461031257806366fa5e8514610344576101b7565b806327a5fe7e14610272578063383da3631461029257806342f3cc5f146102b2576101b7565b806317905a2f1161019557806317905a2f146102205780631abbc6101461022a578063210870bb1461023f5780632600fc9b1461025f576101b7565b806301b64a66146101bc57806304a11de7146101e7578063175a2ead146101fc575b600080fd5b3480156101c857600080fd5b506101d16104fc565b6040516101de9190614a40565b60405180910390f35b3480156101f357600080fd5b506101d1610503565b34801561020857600080fd5b50610211610585565b6040516101de93929190614a93565b6102286106c0565b005b34801561023657600080fd5b506101d16109ee565b34801561024b57600080fd5b5061022861025a366004614221565b610a33565b61022861026d366004614428565b610b9e565b34801561027e57600080fd5b5061022861028d366004614221565b610ff4565b34801561029e57600080fd5b506102286102ad366004614428565b611146565b3480156102be57600080fd5b506102286102cd366004614184565b6116f0565b3480156102de57600080fd5b506102286102ed366004614221565b611bda565b3480156102fe57600080fd5b5061022861030d366004614221565b611d2c565b34801561031e57600080fd5b5061033261032d366004614428565b611e7c565b6040516101de96959493929190614672565b34801561035057600080fd5b5061022861035f366004614428565b611f26565b6102286124c2565b34801561037857600080fd5b50610228610387366004614428565b6127f1565b34801561039857600080fd5b506103a1612a72565b6040516101de91906145fc565b3480156103ba57600080fd5b50610228612a83565b3480156103cf57600080fd5b506103e36103de366004614428565b612abb565b6040516101de959493929190614628565b34801561040057600080fd5b5061022861040f366004614221565b612b60565b34801561042057600080fd5b5061022861042f366004614184565b612cb2565b34801561044057600080fd5b5061022861044f366004614221565b6131a2565b34801561046057600080fd5b5061022861046f366004614275565b6132f4565b34801561048057600080fd5b5061022861048f3660046141a0565b61353d565b3480156104a057600080fd5b506101d1613687565b3480156104b557600080fd5b506102286104c4366004614184565b61368e565b3480156104d557600080fd5b506102286104e4366004614428565b6136da565b6102286104f7366004614428565b61395b565b6205f37081565b6002546040805163fde0c46360e01b815290516000926001600160a01b03169163fde0c463916004808301926020929190829003018186803b15801561054857600080fd5b505afa15801561055c573d6000803e3d6000fd5b505050506040513d601f19601f820116820180604052508101906105809190614440565b905090565b60055460405163775cbd8d60e01b81526000918291829133916001600160a01b039091169063775cbd8d906105be908490600401614525565b60206040518083038186803b1580156105d657600080fd5b505afa1580156105ea573d6000803e3d6000fd5b505050506040513d601f19601f8201168201806040525081019061060e9190614259565b6106335760405162461bcd60e51b815260040161062a9061498b565b60405180910390fd5b6005546040516321addc4d60e11b81526001600160a01b039091169063435bb89a90610663903390600401614525565b60606040518083038186803b15801561067b57600080fd5b505afa15801561068f573d6000803e3d6000fd5b505050506040513d601f19601f820116820180604052508101906106b391906144a2565b9195509350915050909192565b600354604080516332393eb760e21b815290516000926001600160a01b03169163c8e4fadc916004808301926020929190829003018186803b15801561070557600080fd5b505afa158015610719573d6000803e3d6000fd5b505050506040513d601f19601f8201168201806040525081019061073d9190614440565b90508034101561075f5760405162461bcd60e51b815260040161062a906146c4565b8034111561079f57306108fc6107753484613f0c565b6040518115909202916000818181858888f1935050505015801561079d573d6000803e3d6000fd5b505b60048054604051635a2449a960e01b81526001600160a01b0390911691635a2449a9916107ce91339101614525565b600060405180830381600087803b1580156107e857600080fd5b505af11580156107fc573d6000803e3d6000fd5b505050506000600460009054906101000a90046001600160a01b03166001600160a01b0316632dfa077c6040518163ffffffff1660e01b815260040160206040518083038186803b15801561085057600080fd5b505afa158015610864573d6000803e3d6000fd5b505050506040513d601f19601f820116820180604052508101906108889190614440565b9050600481116109be5760048054604051636c66623d60e11b81526001600160a01b039091169163d8ccc47a916108c191339101614525565b600060405180830381600087803b1580156108db57600080fd5b505af11580156108ef573d6000803e3d6000fd5b5050505060006108fd613f1f565b6006546040516340c10f1960e01b81529192506001600160a01b0316906340c10f199061093090339085906004016145c2565b600060405180830381600087803b15801561094a57600080fd5b505af115801561095e573d6000803e3d6000fd5b50506040513392507fcfbd886b9409cf70d4b4a060d1e556397e323b33a7000b106b281cc43b0c26419150600090a260405133907f5dbffd047c48d57a7d972a24d9fe3ced4753a2b27c6b277fc905b1607ab99afe90600090a2506109ea565b60405133907fcfbd886b9409cf70d4b4a060d1e556397e323b33a7000b106b281cc43b0c264190600090a25b5050565b600354604080516332393eb760e21b815290516000926001600160a01b03169163c8e4fadc916004808301926020929190829003018186803b15801561054857600080fd5b6000546001600160a01b03163314610a5d5760405162461bcd60e51b815260040161062a90614926565b8015610b0157600654604051632c388d5d60e01b81526001600160a01b0390911690632c388d5d90610a93908590600401614525565b600060405180830381600087803b158015610aad57600080fd5b505af1158015610ac1573d6000803e3d6000fd5b5050600654604051339350600080516020614bf08339815191529250610af49186916001600160a01b0390911690614539565b60405180910390a26109ea565b60065460405163256462d760e11b81526001600160a01b0390911690634ac8c5ae90610b31908590600401614525565b600060405180830381600087803b158015610b4b57600080fd5b505af1158015610b5f573d6000803e3d6000fd5b5050600654604051339350600080516020614c108339815191529250610b929186916001600160a01b0390911690614539565b60405180910390a25050565b600154604051633a4396cb60e01b815282916000916001600160a01b0390911690633a4396cb90610bd3908590600401614a40565b60006040518083038186803b158015610beb57600080fd5b505afa158015610bff573d6000803e3d6000fd5b505050506040513d6000823e601f3d908101601f19168201604052610c27919081019061430c565b50505050505050915050428167ffffffffffffffff1611610c5a5760405162461bcd60e51b815260040161062a90614804565b600154604051633a4396cb60e01b815284916000916001600160a01b0390911690633a4396cb90610c8f908590600401614a40565b60006040518083038186803b158015610ca757600080fd5b505afa158015610cbb573d6000803e3d6000fd5b505050506040513d6000823e601f3d908101601f19168201604052610ce3919081019061430c565b9850505050505050505080341015610d0d5760405162461bcd60e51b815260040161062a9061473d565b6000610d193483614b40565b9050346000610db6610db183600160009054906101000a90046001600160a01b03166001600160a01b031663d48b06b86040518163ffffffff1660e01b815260040160206040518083038186803b158015610d7357600080fd5b505afa158015610d87573d6000803e3d6000fd5b505050506040513d601f19601f82011682018060405250810190610dab9190614440565b90613f24565b613f30565b905047811115610dd85760405162461bcd60e51b815260040161062a9061483b565b600154604051633a4396cb60e01b815260009182916001600160a01b0390911690633a4396cb90610e0d908d90600401614a40565b60006040518083038186803b158015610e2557600080fd5b505afa158015610e39573d6000803e3d6000fd5b505050506040513d6000823e601f3d908101601f19168201604052610e61919081019061430c565b9850509750505050505050600160009054906101000a90046001600160a01b03166001600160a01b031663390fc413338c846040518463ffffffff1660e01b8152600401610eb1939291906145db565b600060405180830381600087803b158015610ecb57600080fd5b505af1158015610edf573d6000803e3d6000fd5b50505050610eec81613fd9565b600154604080516317291e0560e11b815290516000926001600160a01b031691632e523c0a916004808301926020929190829003018186803b158015610f3157600080fd5b505afa158015610f45573d6000803e3d6000fd5b505050506040513d601f19601f82011682018060405250810190610f699190614440565b905080836001600160a01b0316336001600160a01b03167f92de6a95faf2432685c9d5eaf71891cadcf05e0b18ec223068412a8cb52ebb608e86604051610fb1929190614a85565b60405180910390a4505060405133935084156108fc0292508491506000818181858888f19350505050158015610feb573d6000803e3d6000fd5b50505050505050565b6000546001600160a01b0316331461101e5760405162461bcd60e51b815260040161062a90614926565b80156110b557600154604051632c388d5d60e01b81526001600160a01b0390911690632c388d5d90611054908590600401614525565b600060405180830381600087803b15801561106e57600080fd5b505af1158015611082573d6000803e3d6000fd5b5050600154604051339350600080516020614bf08339815191529250610af49186916001600160a01b0390911690614539565b60015460405163256462d760e11b81526001600160a01b0390911690634ac8c5ae906110e5908590600401614525565b600060405180830381600087803b1580156110ff57600080fd5b505af1158015611113573d6000803e3d6000fd5b5050600154604051339350600080516020614c108339815191529250610b929186916001600160a01b0390911690614539565b6006546040516370a0823160e01b815233916000916001600160a01b03909116906370a082319061117b908590600401614525565b60206040518083038186803b15801561119357600080fd5b505afa1580156111a7573d6000803e3d6000fd5b505050506040513d601f19601f820116820180604052508101906111cb9190614440565b116111e85760405162461bcd60e51b815260040161062a906149d2565b600654604051631bb7b02160e11b815233916205f370916001600160a01b039091169063376f60429061121f908590600401614525565b60206040518083038186803b15801561123757600080fd5b505afa15801561124b573d6000803e3d6000fd5b505050506040513d601f19601f8201168201806040525081019061126f9190614440565b6112799043614b40565b10156112975760405162461bcd60e51b815260040161062a906146fb565b60035460405163086b7e0b60e21b8152339185916001600160a01b03909116906321adf82c906112cd90859085906004016145c2565b60206040518083038186803b1580156112e557600080fd5b505afa1580156112f9573d6000803e3d6000fd5b505050506040513d601f19601f8201168201806040525081019061131d9190614259565b1561133a5760405162461bcd60e51b815260040161062a90614954565b600354604051635d7eb9d360e11b815286916202bf20916001600160a01b039091169063bafd73a690611371908590600401614a40565b60206040518083038186803b15801561138957600080fd5b505afa15801561139d573d6000803e3d6000fd5b505050506040513d601f19601f820116820180604052508101906113c19190614440565b6113cb9043614b40565b11156113e95760405162461bcd60e51b815260040161062a90614a09565b6003546006546040516370a0823160e01b81526001600160a01b039283169263785e7c10928a92339260019216906370a082319061142b908590600401614525565b60206040518083038186803b15801561144357600080fd5b505afa158015611457573d6000803e3d6000fd5b505050506040513d601f19601f8201168201806040525081019061147b9190614440565b6040518563ffffffff1660e01b815260040161149a9493929190614a49565b600060405180830381600087803b1580156114b457600080fd5b505af11580156114c8573d6000803e3d6000fd5b5050600354600092506001600160a01b0316905063b83c24be8860016114ec6140be565b6040518463ffffffff1660e01b815260040161150a93929190614a6f565b60206040518083038186803b15801561152257600080fd5b505afa158015611536573d6000803e3d6000fd5b505050506040513d601f19601f8201168201806040525081019061155a9190614259565b905080156116ba5760035460405163020df34960e41b81526001600160a01b03909116906320df349090611592908a90600401614a40565b600060405180830381600087803b1580156115ac57600080fd5b505af11580156115c0573d6000803e3d6000fd5b505050506000600360009054906101000a90046001600160a01b03166001600160a01b031663c8e4fadc6040518163ffffffff1660e01b815260040160206040518083038186803b15801561161457600080fd5b505afa158015611628573d6000803e3d6000fd5b505050506040513d601f19601f8201168201806040525081019061164c9190614440565b604051909150339089907f0450a2b5feaa1ee53edb36ef2d8854b1a508547d111e43b5b1ead1b090a5daa290600090a3877f1b454f919e7ff592d633a0d62845314e86de1463aa34dea4aab7c0ab6945a73d826040516116ac9190614a40565b60405180910390a250610feb565b604051339088907f0450a2b5feaa1ee53edb36ef2d8854b1a508547d111e43b5b1ead1b090a5daa290600090a350505050505050565b6006546040516370a0823160e01b815233916000916001600160a01b03909116906370a0823190611725908590600401614525565b60206040518083038186803b15801561173d57600080fd5b505afa158015611751573d6000803e3d6000fd5b505050506040513d601f19601f820116820180604052508101906117759190614440565b116117925760405162461bcd60e51b815260040161062a906149d2565b600654604051631bb7b02160e11b815233916205f370916001600160a01b039091169063376f6042906117c9908590600401614525565b60206040518083038186803b1580156117e157600080fd5b505afa1580156117f5573d6000803e3d6000fd5b505050506040513d601f19601f820116820180604052508101906118199190614440565b6118239043614b40565b10156118415760405162461bcd60e51b815260040161062a906146fb565b600480546040516283c70f60e31b8152339286926001600160a01b03169163041e387891611873918591879101614539565b60206040518083038186803b15801561188b57600080fd5b505afa15801561189f573d6000803e3d6000fd5b505050506040513d601f19601f820116820180604052508101906118c39190614259565b156118e05760405162461bcd60e51b815260040161062a90614954565b600480546006546040516370a0823160e01b81526001600160a01b0392831693637cd913159333938b939116916370a082319161191f91869101614525565b60206040518083038186803b15801561193757600080fd5b505afa15801561194b573d6000803e3d6000fd5b505050506040513d601f19601f8201168201806040525081019061196f9190614440565b6040518463ffffffff1660e01b815260040161198d93929190614553565b600060405180830381600087803b1580156119a757600080fd5b505af11580156119bb573d6000803e3d6000fd5b5050600454600092506001600160a01b0316905063c287a6486001886119df6140be565b6040518463ffffffff1660e01b81526004016119fd93929190614607565b60206040518083038186803b158015611a1557600080fd5b505afa158015611a29573d6000803e3d6000fd5b505050506040513d601f19601f82011682018060405250810190611a4d9190614259565b90508015611b985760048054604051636c66623d60e11b81526001600160a01b039091169163d8ccc47a91611a84918a9101614525565b600060405180830381600087803b158015611a9e57600080fd5b505af1158015611ab2573d6000803e3d6000fd5b505050506000611ac0613f1f565b6006546040516340c10f1960e01b81529192506001600160a01b0316906340c10f1990611af3908a9085906004016145c2565b600060405180830381600087803b158015611b0d57600080fd5b505af1158015611b21573d6000803e3d6000fd5b50506040516001600160a01b038a1692506001915033907fa9d2bc6dc1b37950fdc57b26b1bcc905538ce9c54a8d46b9a043b61f61d84db990600090a46040516001600160a01b038816907f5dbffd047c48d57a7d972a24d9fe3ced4753a2b27c6b277fc905b1607ab99afe90600090a250611bd2565b6040516001600160a01b0387169060019033907fa9d2bc6dc1b37950fdc57b26b1bcc905538ce9c54a8d46b9a043b61f61d84db990600090a45b505050505050565b6000546001600160a01b03163314611c045760405162461bcd60e51b815260040161062a90614926565b8015611c9b57600254604051632c388d5d60e01b81526001600160a01b0390911690632c388d5d90611c3a908590600401614525565b600060405180830381600087803b158015611c5457600080fd5b505af1158015611c68573d6000803e3d6000fd5b5050600254604051339350600080516020614bf08339815191529250610af49186916001600160a01b0390911690614539565b60025460405163256462d760e11b81526001600160a01b0390911690634ac8c5ae90611ccb908590600401614525565b600060405180830381600087803b158015611ce557600080fd5b505af1158015611cf9573d6000803e3d6000fd5b5050600254604051339350600080516020614c108339815191529250610b929186916001600160a01b0390911690614539565b6000546001600160a01b03163314611d565760405162461bcd60e51b815260040161062a90614926565b8015611dec5760048054604051632c388d5d60e01b81526001600160a01b0390911691632c388d5d91611d8b91869101614525565b600060405180830381600087803b158015611da557600080fd5b505af1158015611db9573d6000803e3d6000fd5b5050600454604051339350600080516020614bf08339815191529250610af49186916001600160a01b0390911690614539565b6004805460405163256462d760e11b81526001600160a01b0390911691634ac8c5ae91611e1b91869101614525565b600060405180830381600087803b158015611e3557600080fd5b505af1158015611e49573d6000803e3d6000fd5b5050600454604051339350600080516020614c108339815191529250610b929186916001600160a01b0390911690614539565b600154604051633a4396cb60e01b815260609160009182918291829182916001600160a01b0390911690633a4396cb90611eba908a90600401614a40565b60006040518083038186803b158015611ed257600080fd5b505afa158015611ee6573d6000803e3d6000fd5b505050506040513d6000823e601f3d908101601f19168201604052611f0e919081019061430c565b50969e939d50919b5099509750929550919350505050565b6006546040516370a0823160e01b815233916000916001600160a01b03909116906370a0823190611f5b908590600401614525565b60206040518083038186803b158015611f7357600080fd5b505afa158015611f87573d6000803e3d6000fd5b505050506040513d601f19601f82011682018060405250810190611fab9190614440565b11611fc85760405162461bcd60e51b815260040161062a906149d2565b600654604051631bb7b02160e11b815233916205f370916001600160a01b039091169063376f604290611fff908590600401614525565b60206040518083038186803b15801561201757600080fd5b505afa15801561202b573d6000803e3d6000fd5b505050506040513d601f19601f8201168201806040525081019061204f9190614440565b6120599043614b40565b10156120775760405162461bcd60e51b815260040161062a906146fb565b60025460405163a49854d960e01b8152339185916001600160a01b039091169063a49854d9906120ad90859085906004016145c2565b60206040518083038186803b1580156120c557600080fd5b505afa1580156120d9573d6000803e3d6000fd5b505050506040513d601f19601f820116820180604052508101906120fd9190614259565b1561211a5760405162461bcd60e51b815260040161062a90614954565b600354604051635d7eb9d360e11b815286916202bf20916001600160a01b039091169063bafd73a690612151908590600401614a40565b60206040518083038186803b15801561216957600080fd5b505afa15801561217d573d6000803e3d6000fd5b505050506040513d601f19601f820116820180604052508101906121a19190614440565b6121ab9043614b40565b11156121c95760405162461bcd60e51b815260040161062a90614a09565b6002546006546040516370a0823160e01b81526001600160a01b0392831692632cb1feed928a92339260019216906370a082319061220b908590600401614525565b60206040518083038186803b15801561222357600080fd5b505afa158015612237573d6000803e3d6000fd5b505050506040513d601f19601f8201168201806040525081019061225b9190614440565b6040518563ffffffff1660e01b815260040161227a9493929190614a49565b600060405180830381600087803b15801561229457600080fd5b505af11580156122a8573d6000803e3d6000fd5b5050600254600092506001600160a01b0316905063a0aea5e08860016122cc6140be565b6040518463ffffffff1660e01b81526004016122ea93929190614a6f565b60206040518083038186803b15801561230257600080fd5b505afa158015612316573d6000803e3d6000fd5b505050506040513d601f19601f8201168201806040525081019061233a9190614259565b9050801561248c576002546040516325c613fd60e11b81526001600160a01b0390911690634b8c27fa90612372908a90600401614a40565b600060405180830381600087803b15801561238c57600080fd5b505af11580156123a0573d6000803e3d6000fd5b505050506000600260009054906101000a90046001600160a01b03166001600160a01b031663fde0c4636040518163ffffffff1660e01b815260040160206040518083038186803b1580156123f457600080fd5b505afa158015612408573d6000803e3d6000fd5b505050506040513d601f19601f8201168201806040525081019061242c9190614440565b604051909150339089907f7906920cd6c70de2c0c6380adfa74d93af1ff8f5e5b03d1605194fef988add7990600090a3877f13d4caf5982979691a014920086fb5cac4da0ce48f86c7b4c0d0cadbef27fae4826040516116ac9190614a40565b604051339088907f7906920cd6c70de2c0c6380adfa74d93af1ff8f5e5b03d1605194fef988add7990600090a350505050505050565b600354604080516332393eb760e21b815290516000926001600160a01b03169163c8e4fadc916004808301926020929190829003018186803b15801561250757600080fd5b505afa15801561251b573d6000803e3d6000fd5b505050506040513d601f19601f8201168201806040525081019061253f9190614440565b9050803410156125615760405162461bcd60e51b815260040161062a906146c4565b803411156125a157306108fc6125773484613f0c565b6040518115909202916000818181858888f1935050505015801561259f573d6000803e3d6000fd5b505b60055460405163316b047d60e01b81526001600160a01b039091169063316b047d906125d1903390600401614525565b600060405180830381600087803b1580156125eb57600080fd5b505af11580156125ff573d6000803e3d6000fd5b505050506000600560009054906101000a90046001600160a01b03166001600160a01b03166356c589de6040518163ffffffff1660e01b815260040160206040518083038186803b15801561265357600080fd5b505afa158015612667573d6000803e3d6000fd5b505050506040513d601f19601f8201168201806040525081019061268b9190614440565b9050600481116127c2576005546040516324f5341760e21b81526001600160a01b03909116906393d4d05c906126c5903390600401614525565b600060405180830381600087803b1580156126df57600080fd5b505af11580156126f3573d6000803e3d6000fd5b505050506000612701613f1f565b6006546040516340c10f1960e01b81529192506001600160a01b0316906340c10f199061273490339085906004016145c2565b600060405180830381600087803b15801561274e57600080fd5b505af1158015612762573d6000803e3d6000fd5b50506040513392507f0418be85575ebac30df5dffbfd641fbbdaafb2b1806fc3637eb7062a70bed9329150600090a260405133907f5e06803b8b6ec4a58bfd8973f079830b31cbb81e939420c22febecc8acdb3f8d90600090a2506109ea565b60405133907f0418be85575ebac30df5dffbfd641fbbdaafb2b1806fc3637eb7062a70bed93290600090a25050565b6006546040516370a0823160e01b815233916000916001600160a01b03909116906370a0823190612826908590600401614525565b60206040518083038186803b15801561283e57600080fd5b505afa158015612852573d6000803e3d6000fd5b505050506040513d601f19601f820116820180604052508101906128769190614440565b116128935760405162461bcd60e51b815260040161062a906149d2565b6002546006546040516370a0823160e01b81526001600160a01b0392831692637f2020c79233928792909116906370a08231906128d4908590600401614525565b60206040518083038186803b1580156128ec57600080fd5b505afa158015612900573d6000803e3d6000fd5b505050506040513d601f19601f820116820180604052508101906129249190614440565b6040518463ffffffff1660e01b8152600401612942939291906145db565b600060405180830381600087803b15801561295c57600080fd5b505af1158015612970573d6000803e3d6000fd5b505050506000600260009054906101000a90046001600160a01b03166001600160a01b0316630b0c98686040518163ffffffff1660e01b815260040160206040518083038186803b1580156129c457600080fd5b505afa1580156129d8573d6000803e3d6000fd5b505050506040513d601f19601f820116820180604052508101906129fc9190614440565b9050336001600160a01b0316817f455712cb79d839f8ca6a0ab7a15765738906c98f331d0ee1fff1ff591550f2b685604051612a389190614a40565b60405180910390a3604051339082907f7906920cd6c70de2c0c6380adfa74d93af1ff8f5e5b03d1605194fef988add7990600090a3505050565b6000546001600160a01b0316331490565b6000546001600160a01b03163314612aad5760405162461bcd60e51b815260040161062a90614926565b6000546001600160a01b0316ff5b600154604051633a4396cb60e01b81526060916000918291829182916001600160a01b031690633a4396cb90612af5908990600401614a40565b60006040518083038186803b158015612b0d57600080fd5b505afa158015612b21573d6000803e3d6000fd5b505050506040513d6000823e601f3d908101601f19168201604052612b49919081019061430c565b979e969d50949b5099509497509295505050505050565b6000546001600160a01b03163314612b8a5760405162461bcd60e51b815260040161062a90614926565b8015612c2157600354604051632c388d5d60e01b81526001600160a01b0390911690632c388d5d90612bc0908590600401614525565b600060405180830381600087803b158015612bda57600080fd5b505af1158015612bee573d6000803e3d6000fd5b5050600354604051339350600080516020614bf08339815191529250610af49186916001600160a01b0390911690614539565b60035460405163256462d760e11b81526001600160a01b0390911690634ac8c5ae90612c51908590600401614525565b600060405180830381600087803b158015612c6b57600080fd5b505af1158015612c7f573d6000803e3d6000fd5b5050600354604051339350600080516020614c108339815191529250610b929186916001600160a01b0390911690614539565b6006546040516370a0823160e01b815233916000916001600160a01b03909116906370a0823190612ce7908590600401614525565b60206040518083038186803b158015612cff57600080fd5b505afa158015612d13573d6000803e3d6000fd5b505050506040513d601f19601f82011682018060405250810190612d379190614440565b11612d545760405162461bcd60e51b815260040161062a906149d2565b600654604051631bb7b02160e11b815233916205f370916001600160a01b039091169063376f604290612d8b908590600401614525565b60206040518083038186803b158015612da357600080fd5b505afa158015612db7573d6000803e3d6000fd5b505050506040513d601f19601f82011682018060405250810190612ddb9190614440565b612de59043614b40565b1015612e035760405162461bcd60e51b815260040161062a906146fb565b60055460405163614c2bd360e11b8152339185916001600160a01b039091169063c29857a690612e399084908690600401614539565b60206040518083038186803b158015612e5157600080fd5b505afa158015612e65573d6000803e3d6000fd5b505050506040513d601f19601f82011682018060405250810190612e899190614259565b15612ea65760405162461bcd60e51b815260040161062a90614954565b6005546006546040516370a0823160e01b81526001600160a01b0392831692636ba155b19233928a92909116906370a0823190612ee7908590600401614525565b60206040518083038186803b158015612eff57600080fd5b505afa158015612f13573d6000803e3d6000fd5b505050506040513d601f19601f82011682018060405250810190612f379190614440565b6040518463ffffffff1660e01b8152600401612f5593929190614553565b600060405180830381600087803b158015612f6f57600080fd5b505af1158015612f83573d6000803e3d6000fd5b5050600554600092506001600160a01b0316905063f0a58708600188612fa76140be565b6040518463ffffffff1660e01b8152600401612fc593929190614607565b60206040518083038186803b158015612fdd57600080fd5b505afa158015612ff1573d6000803e3d6000fd5b505050506040513d601f19601f820116820180604052508101906130159190614259565b90508015613161576005546040516324f5341760e21b81526001600160a01b03909116906393d4d05c9061304d908990600401614525565b600060405180830381600087803b15801561306757600080fd5b505af115801561307b573d6000803e3d6000fd5b505050506000613089613f1f565b6006546040516340c10f1960e01b81529192506001600160a01b0316906340c10f19906130bc908a9085906004016145c2565b600060405180830381600087803b1580156130d657600080fd5b505af11580156130ea573d6000803e3d6000fd5b50506040516001600160a01b038a1692506001915033907f1b3fee018a3b7e52d087ea8e3f391b759e9e934802971c8f99e51ffdcb27d44490600090a46040516001600160a01b038816907f5e06803b8b6ec4a58bfd8973f079830b31cbb81e939420c22febecc8acdb3f8d90600090a250611bd2565b6040516001600160a01b0387169060019033907f1b3fee018a3b7e52d087ea8e3f391b759e9e934802971c8f99e51ffdcb27d44490600090a4505050505050565b6000546001600160a01b031633146131cc5760405162461bcd60e51b815260040161062a90614926565b801561326357600554604051632c388d5d60e01b81526001600160a01b0390911690632c388d5d90613202908590600401614525565b600060405180830381600087803b15801561321c57600080fd5b505af1158015613230573d6000803e3d6000fd5b5050600554604051339350600080516020614bf08339815191529250610af49186916001600160a01b0390911690614539565b60055460405163256462d760e11b81526001600160a01b0390911690634ac8c5ae90613293908590600401614525565b600060405180830381600087803b1580156132ad57600080fd5b505af11580156132c1573d6000803e3d6000fd5b5050600554604051339350600080516020614c108339815191529250610b929186916001600160a01b0390911690614539565b6004805460405163d81bfa8960e01b815233926001600160a01b039092169163d81bfa899161332591859101614525565b60206040518083038186803b15801561333d57600080fd5b505afa158015613351573d6000803e3d6000fd5b505050506040513d601f19601f820116820180604052508101906133759190614259565b6133915760405162461bcd60e51b815260040161062a906147b9565b8367ffffffffffffffff168367ffffffffffffffff168342831180156133b657504282115b80156133c157508282115b80156133d55750670de0b6b3a76400008111155b6133f15760405162461bcd60e51b815260040161062a906148cb565b6001546040516351457a7960e01b81526001600160a01b03909116906351457a799061342b9033908d908d908d908d908d90600401614577565b600060405180830381600087803b15801561344557600080fd5b505af1158015613459573d6000803e3d6000fd5b505050506000600160009054906101000a90046001600160a01b03166001600160a01b0316637cae395c6040518163ffffffff1660e01b815260040160206040518083038186803b1580156134ad57600080fd5b505afa1580156134c1573d6000803e3d6000fd5b505050506040513d601f19601f820116820180604052508101906134e59190614440565b9050336001600160a01b0316817f67cabf62aee63d11db89c260f398a37186342310f4a0df30da1341719878147a8a8a8e8e8c604051613529959493929190614aa9565b60405180910390a350505050505050505050565b6000546001600160a01b031633146135675760405162461bcd60e51b815260040161062a90614926565b600180546001600160a01b03199081166001600160a01b0389811691909117909255600280548216888416179055600380548216878416179055600480548216868416178082556005805484168786161790556006805490931685851617909255604051635a2449a960e01b81529190921691635a2449a9916135ec91339101614525565b600060405180830381600087803b15801561360657600080fd5b505af115801561361a573d6000803e3d6000fd5b505060048054604051636c66623d60e11b81526001600160a01b03909116935063d8ccc47a925061364d91339101614525565b600060405180830381600087803b15801561366757600080fd5b505af115801561367b573d6000803e3d6000fd5b50505050505050505050565b6202bf2081565b6000546001600160a01b031633146136b85760405162461bcd60e51b815260040161062a90614926565b600080546001600160a01b0319166001600160a01b0392909216919091179055565b6006546040516370a0823160e01b815233916000916001600160a01b03909116906370a082319061370f908590600401614525565b60206040518083038186803b15801561372757600080fd5b505afa15801561373b573d6000803e3d6000fd5b505050506040513d601f19601f8201168201806040525081019061375f9190614440565b1161377c5760405162461bcd60e51b815260040161062a906149d2565b6003546006546040516370a0823160e01b81526001600160a01b039283169263fb0a33459233928792909116906370a08231906137bd908590600401614525565b60206040518083038186803b1580156137d557600080fd5b505afa1580156137e9573d6000803e3d6000fd5b505050506040513d601f19601f8201168201806040525081019061380d9190614440565b6040518463ffffffff1660e01b815260040161382b939291906145db565b600060405180830381600087803b15801561384557600080fd5b505af1158015613859573d6000803e3d6000fd5b505050506000600360009054906101000a90046001600160a01b03166001600160a01b031663ca5c1b4f6040518163ffffffff1660e01b815260040160206040518083038186803b1580156138ad57600080fd5b505afa1580156138c1573d6000803e3d6000fd5b505050506040513d601f19601f820116820180604052508101906138e59190614440565b9050336001600160a01b0316817f35f1d4a02bce65638da910c669076031fb59178f55931d6d2f1a8a035e382f99856040516139219190614a40565b60405180910390a3604051339082907f0450a2b5feaa1ee53edb36ef2d8854b1a508547d111e43b5b1ead1b090a5daa290600090a3505050565b6001546040516342fd730160e11b815282916000916001600160a01b03909116906385fae60290613990908590600401614a40565b60806040518083038186803b1580156139a857600080fd5b505afa1580156139bc573d6000803e3d6000fd5b505050506040513d601f19601f820116820180604052508101906139e09190614458565b5050600154604051633a4396cb60e01b81529293506000926001600160a01b039091169150633a4396cb90613a19908590600401614a40565b60006040518083038186803b158015613a3157600080fd5b505afa158015613a45573d6000803e3d6000fd5b505050506040513d6000823e601f3d908101601f19168201604052613a6d919081019061430c565b5050509550505050505080613a945760405162461bcd60e51b815260040161062a906148f9565b6001546040516342fd730160e11b815285916000916001600160a01b03909116906385fae60290613ac9908590600401614a40565b60806040518083038186803b158015613ae157600080fd5b505afa158015613af5573d6000803e3d6000fd5b505050506040513d601f19601f82011682018060405250810190613b199190614458565b50925050506001600160a01b0381163314613b465760405162461bcd60e51b815260040161062a90614782565b6001546040516342fd730160e11b815287916000916001600160a01b03909116906385fae60290613b7b908590600401614a40565b60806040518083038186803b158015613b9357600080fd5b505afa158015613ba7573d6000803e3d6000fd5b505050506040513d601f19601f82011682018060405250810190613bcb9190614458565b93505050508015613bee5760405162461bcd60e51b815260040161062a90614887565b6001546040516342fd730160e11b815260009182916001600160a01b03909116906385fae60290613c23908d90600401614a40565b60806040518083038186803b158015613c3b57600080fd5b505afa158015613c4f573d6000803e3d6000fd5b505050506040513d601f19601f82011682018060405250810190613c739190614458565b5050600154604051633a4396cb60e01b81529294509092506000916001600160a01b0390911690633a4396cb90613cae908690600401614a40565b60006040518083038186803b158015613cc657600080fd5b505afa158015613cda573d6000803e3d6000fd5b505050506040513d6000823e601f3d908101601f19168201604052613d02919081019061430c565b50509650505050505050600160009054906101000a90046001600160a01b03166001600160a01b03166326b517468c6040518263ffffffff1660e01b8152600401613d4d9190614a40565b600060405180830381600087803b158015613d6757600080fd5b505af1158015613d7b573d6000803e3d6000fd5b505050506000600160009054906101000a90046001600160a01b03166001600160a01b031663d48b06b86040518163ffffffff1660e01b815260040160206040518083038186803b158015613dcf57600080fd5b505afa158015613de3573d6000803e3d6000fd5b505050506040513d601f19601f82011682018060405250810190613e079190614440565b6001549091506001600160a01b0316630b337715613e258386613f0c565b6040518263ffffffff1660e01b8152600401613e419190614a40565b600060405180830381600087803b158015613e5b57600080fd5b505af1158015613e6f573d6000803e3d6000fd5b505050506000613e7e84613f30565b604051909150339082156108fc029083906000818181858888f19350505050158015613eae573d6000803e3d6000fd5b508c836001600160a01b0316336001600160a01b03167f8bcc9e02955c4d671e14fe3bd5031c47f36b1591d090a4c7df99aa82d830d7838888604051613ef5929190614a85565b60405180910390a450505050505050505050505050565b6000613f188284614b40565b9392505050565b600190565b6000613f188284614ae9565b600080600260009054906101000a90046001600160a01b03166001600160a01b031663fde0c4636040518163ffffffff1660e01b815260040160206040518083038186803b158015613f8157600080fd5b505afa158015613f95573d6000803e3d6000fd5b505050506040513d601f19601f82011682018060405250810190613fb99190614440565b9050613fd06064613fca858461414b565b90614157565b9150505b919050565b60015460408051631a9160d760e31b815290516000926001600160a01b03169163d48b06b8916004808301926020929190829003018186803b15801561401e57600080fd5b505afa158015614032573d6000803e3d6000fd5b505050506040513d601f19601f820116820180604052508101906140569190614440565b6001549091506001600160a01b0316630b3377156140748385613f24565b6040518263ffffffff1660e01b81526004016140909190614a40565b600060405180830381600087803b1580156140aa57600080fd5b505af1158015611bd2573d6000803e3d6000fd5b60006105806002600660009054906101000a90046001600160a01b03166001600160a01b03166318160ddd6040518163ffffffff1660e01b815260040160206040518083038186803b15801561411357600080fd5b505afa158015614127573d6000803e3d6000fd5b505050506040513d601f19601f82011682018060405250810190613fca9190614440565b6000613f188284614b21565b6000613f188284614b01565b8051613fd481614bb3565b8051613fd481614bcb565b8051613fd481614bd9565b600060208284031215614195578081fd5b8135613f1881614bb3565b60008060008060008060c087890312156141b8578182fd5b86356141c381614bb3565b955060208701356141d381614bb3565b945060408701356141e381614bb3565b935060608701356141f381614bb3565b9250608087013561420381614bb3565b915060a087013561421381614bb3565b809150509295509295509295565b60008060408385031215614233578182fd5b823561423e81614bb3565b9150602083013561424e81614bcb565b809150509250929050565b60006020828403121561426a578081fd5b8151613f1881614bcb565b60008060008060006080868803121561428c578081fd5b853567ffffffffffffffff808211156142a3578283fd5b818801915088601f8301126142b6578283fd5b8135818111156142c4578384fd5b8960208285010111156142d5578384fd5b602092830197509550508601356142eb81614bd9565b925060408601356142fb81614bd9565b949793965091946060013592915050565b60008060008060008060008060006101208a8c03121561432a578283fd5b895167ffffffffffffffff80821115614341578485fd5b818c0191508c601f830112614354578485fd5b81518181111561436657614366614b9d565b604051601f8201601f19168101602001838111828210171561438a5761438a614b9d565b6040528181528382016020018f10156143a1578687fd5b6143b2826020830160208701614b57565b9b506143c49250505060208b01614179565b97506143d260408b01614179565b96506143e060608b01614179565b95506143ee60808b01614179565b94506143fc60a08b0161416e565b935061440a60c08b01614163565b925060e08a015191506101008a015190509295985092959850929598565b600060208284031215614439578081fd5b5035919050565b600060208284031215614451578081fd5b5051919050565b6000806000806080858703121561446d578384fd5b8451935060208501519250604085015161448681614bb3565b606086015190925061449781614bcb565b939692955090935050565b6000806000606084860312156144b6578081fd5b8351925060208401519150604084015190509250925092565b60008284528282602086013780602084860101526020601f19601f85011685010190509392505050565b60008151808452614511816020860160208601614b57565b601f01601f19169290920160200192915050565b6001600160a01b0391909116815260200190565b6001600160a01b0392831681529116602082015260400190565b6001600160a01b039384168152919092166020820152604081019190915260600190565b6001600160a01b038716815260a06020820181905260009061459c90830187896144cf565b67ffffffffffffffff958616604084015293909416606082015260800152949350505050565b6001600160a01b03929092168252602082015260400190565b6001600160a01b039390931683526020830191909152604082015260600190565b901515815260200190565b92151583526001600160a01b03919091166020830152604082015260600190565b600060a0825261463b60a08301886144f9565b67ffffffffffffffff96871660208401529490951660408201526001600160a01b0392909216606083015260809091015292915050565b600060c0825261468560c08301896144f9565b67ffffffffffffffff978816602084015295909616604082015292151560608401526001600160a01b0391909116608083015260a09091015292915050565b6020808252601e908201527f696e636f7272656374206665652073656e7420746f20636f6e74726163740000604082015260600190565b60208082526022908201527f63616c6c6572206d75737420626520616e206f6c6420746f6b656e20686f6c6460408201526132b960f11b606082015260800190565b60208082526025908201527f73656e742076616c756520646f6573206e6f74206d6174636820666c69676874604082015264207261746560d81b606082015260800190565b6020808252601e908201527f63616c6c6572206d75737420626520696e737572616e6365206f776e65720000604082015260600190565b6020808252602b908201527f63616c6c6572206d7573742062652061637469766174656420696e737572616e60408201526a31b290383937bb34b232b960a91b606082015260800190565b6020808252601f908201527f666c6967687420646570617274757265206d7573742062652066757475726500604082015260600190565b6020808252602c908201527f63757272656e742066756e6473206d75737420636f766572206e657720696e7360408201526b7572616e63652076616c756560a01b606082015260800190565b60208082526024908201527f696e737572616e6365206d757374206e6f742068617665206265656e20636c616040820152631a5b595960e21b606082015260800190565b602080825260149082015273199b1a59da1d081b5d5cdd081899481d985b1a5960621b604082015260600190565b602080825260139082015272666c69676874206d757374206265206c61746560681b604082015260600190565b60208082526014908201527331b0b63632b91036bab9ba1031329037bbb732b960611b604082015260600190565b60208082526018908201527f63616c6c65722068617320616c726561647920766f7465640000000000000000604082015260600190565b60208082526027908201527f63616c6c6572206973206e6f7420616374697661746564206f7261636c6520706040820152663937bb34b232b960c91b606082015260800190565b6020808252601b908201527f63616c6c6572206d75737420626520746f6b656e20686f6c6465720000000000604082015260600190565b6020808252601b908201527f766f74696e672070726f706f73616c2068617320657870697265640000000000604082015260600190565b90815260200190565b9384526001600160a01b0392909216602084015215156040830152606082015260800190565b9283529015156020830152604082015260600190565b918252602082015260400190565b9283526020830191909152604082015260600190565b600067ffffffffffffffff808816835280871660208401525060806040830152614ad76080830185876144cf565b90508260608301529695505050505050565b60008219821115614afc57614afc614b87565b500190565b600082614b1c57634e487b7160e01b81526012600452602481fd5b500490565b6000816000190483118215151615614b3b57614b3b614b87565b500290565b600082821015614b5257614b52614b87565b500390565b60005b83811015614b72578181015183820152602001614b5a565b83811115614b81576000848401525b50505050565b634e487b7160e01b600052601160045260246000fd5b634e487b7160e01b600052604160045260246000fd5b6001600160a01b0381168114614bc857600080fd5b50565b8015158114614bc857600080fd5b67ffffffffffffffff81168114614bc857600080fdfe49162bd91fa9e98bc15e1a54c488b20acf9a442cfd08a398bbdd552db92e98e7eefee6ee18d218075d0332898b2f8dbd4d9d18666bb47b86fd5bb8ddf7b188c0a264697066735822122021705768e7cb46f8ee3fdbbfd9209ed2a693fc5e88b15bb14b7d5381eecc17e764736f6c63430008000033",
  "immutableReferences": {},
  "source": "// SPDX-License-Identifier: UNLICENSED\npragma solidity ^0.8.00;\n\nimport \"./interfaces/IFlightSuretyData.sol\";\nimport \"./interfaces/IInsuranceCoverageAmendmentProposal.sol\";\nimport \"./interfaces/IMembershipFeeAmendmentProposal.sol\";\nimport \"./interfaces/IInsuranceProviderRole.sol\";\nimport \"./interfaces/IOracleProviderRole.sol\";\nimport \"./interfaces/IFlightSuretyOracle.sol\";\nimport \"./interfaces/IFlightSuretyShares.sol\";\nimport \"../Ownable/Ownable.sol\";\nimport \"@openzeppelin/contracts/utils/math/SafeMath.sol\";\n\ncontract FlightSuretyApp is Ownable {\n    using SafeMath for uint256;\n    // insurance providers related events\n    event RegisteredInsuranceProvider(address indexed insuranceProvider);\n    event ActivatedInsuranceProvider(address indexed insuranceProvider);\n    event RemovedInsuranceProvider(address indexed insuranceProvider);\n    event NewVoteInsuranceProvider(\n        address indexed voter,\n        bool indexed side,\n        address indexed votee\n    );\n\n    // oracle providers related events\n    event RegisteredOracleProvider(address indexed oracleProvider);\n    event ActivatedOracleProvider(address indexed oracleProvider);\n    event RemovedOracleProvider(address indexed oracleProvider);\n    event NewVoteOracleProvider(\n        address indexed voter,\n        bool indexed side,\n        address indexed votee\n    );\n\n    // flights related events\n    event NewFlight(\n        uint256 indexed flightID,\n        address indexed insuranceProvider,\n        uint256 estimatedDeparture,\n        uint256 estimatedArrival,\n        string flightRef,\n        uint256 rate\n    );\n\n    // insurances related events\n    event NewInsurance(\n        address indexed passenger,\n        address indexed insuranceProvider,\n        uint256 indexed insuranceID,\n        uint256 flightID,\n        uint256 insuredValue\n    );\n\n    event NewPayout(\n        address indexed owner,\n        address indexed insuranceProvider,\n        uint256 indexed insuranceID,\n        uint256 flightID,\n        uint256 insuredValue\n    );\n\n    // settings amendment proposal related events\n    event NewMembershipFeeAmendmentProposal(\n        uint256 indexed proposalID,\n        address indexed caller,\n        uint256 proposedMembershipFee\n    );\n    event NewVoteMembershipFeeAmendmentProposal(\n        uint256 indexed proposalID,\n        address indexed voter\n    );\n    event ActivatedMembershipFeeAmendmentProposal(\n        uint256 indexed proposalID,\n        uint256 lockedMembershipFee\n    );\n    event NewInsuranceCoverageAmendmentProposal(\n        uint256 indexed proposalID,\n        address indexed caller,\n        uint256 insuranceCoverage\n    );\n    event ActivatedInsuranceCoverageAmendmentProposal(\n        uint256 indexed proposalID,\n        uint256 insuranceCoverage\n    );\n    event NewVoteInsuranceCoverageAmendmentProposal(\n        uint256 indexed proposalID,\n        address indexed voter\n    );\n\n    // authorize caller related events\n    event AuthorizedCaller(\n        address indexed contractOwner,\n        address caller,\n        address contractAddress\n    );\n    event UnauthorizedCaller(\n        address indexed contractOwner,\n        address caller,\n        address contractAddress\n    );\n\n    uint256 constant public TOKEN_HOLDER_MINIMUM_BLOCK_REQUIREMENT = 390000;\n    uint256 constant public PROPOSAL_VALID_BLOCK_NUMBER = 180000;\n\n    IFlightSuretyData flightSuretyData;\n    IInsuranceCoverageAmendmentProposal insuranceCoverageAmendmentProposal;\n    IMembershipFeeAmendmentProposal membershipFeeAmendmentProposal;\n    IInsuranceProviderRole insuranceProviderRole;\n    IOracleProviderRole oracleProviderRole;\n    IFlightSuretyShares flightSuretyShares;\n\n    // settings amendment proposals related checks\n\n    modifier requireTokenHolderHasNotVotedInsuranceCoverageAmendmentProposal(\n        address _caller,\n        uint256 _proposalID\n    ) {\n        require(\n            !insuranceCoverageAmendmentProposal\n                .hasVotedInsuranceCoverageAmendmentProposal(\n                    _caller,\n                    _proposalID\n                ),\n            \"caller has already voted\"\n        );\n        _;\n    }\n\n    modifier requireTokenHolderHasNotVotedMembershipFeeAmendmentProposal(\n        address _caller,\n        uint256 _proposalID\n    ) {\n        require(\n            !membershipFeeAmendmentProposal\n                .hasVotedMembershipFeeAmendmentProposal(_caller, _proposalID),\n            \"caller has already voted\"\n        );\n        _;\n    }\n\n    modifier requireProposalIsActive(uint256 proposalID) {\n        require(\n            block.number -\n                membershipFeeAmendmentProposal.getProposalCreatedAt(\n                    proposalID\n                ) <=\n                PROPOSAL_VALID_BLOCK_NUMBER,\n            \"voting proposal has expired\"\n        );\n        _;\n    }\n\n    // flights related checks\n\n    modifier requireValidFlight(\n        uint256 estimatedDeparture,\n        uint256 estimatedArrival,\n        uint256 rate\n    ) {\n        require(\n            estimatedDeparture > block.timestamp &&\n                estimatedArrival > block.timestamp &&\n                estimatedArrival > estimatedDeparture &&\n                rate <= 1 ether,\n            \"flight must be valid\"\n        );\n        _;\n    }\n\n    // insurances related checks\n\n    modifier requireMessageValueGreatherOrEqualToFlightRate(uint256 _flightID) {\n        (, , , , , , , , uint256 rate) = flightSuretyData.getFlight(_flightID);\n        require(msg.value >= rate, \"sent value does not match flight rate\");\n        uint256 amountDue = rate - msg.value;\n        _;\n        payable(msg.sender).transfer(amountDue);\n    }\n\n    modifier requireFutureFlight(uint256 _flightID) {\n        (, uint64 estimatedDeparture, , , , , , , ) = flightSuretyData\n            .getFlight(_flightID);\n        require(\n            estimatedDeparture > block.timestamp,\n            \"flight departure must be future\"\n        );\n        _;\n    }\n\n    modifier requireFlightIsLate(uint256 _insuranceID) {\n        (uint256 flightID, , , ) = flightSuretyData.getInsurance(_insuranceID);\n        (, , , , , bool isLate, , , ) = flightSuretyData.getFlight(flightID);\n        require(isLate, \"flight must be late\");\n        _;\n    }\n\n    modifier onlyInsuranceIsNotClaimed(uint256 _insuranceID) {\n        (, , , bool claimed) = flightSuretyData.getInsurance(_insuranceID);\n        require(!claimed, \"insurance must not have been claimed\");\n        _;\n    }\n    modifier onlyInsuranceOwner(uint256 _insuranceID) {\n        (, , address owner, ) = flightSuretyData.getInsurance(_insuranceID);\n        require(msg.sender == owner, \"caller must be insurance owner\");\n        _;\n    }\n\n    modifier requireTotalInsuredValueCoverage(uint256 newInsuranceValue) {\n        uint256 totalFundsWithCoverage = _calculateInsuredValueBenefits(\n            flightSuretyData.getTotalInsuredValue().add(newInsuranceValue)\n        );\n        require(\n            totalFundsWithCoverage <= address(this).balance,\n            \"current funds must cover new insurance value\"\n        );\n        _;\n    }\n\n    // membership fee checks\n\n    modifier requireMembershipFee() {\n        uint256 _currentMembershipFee = membershipFeeAmendmentProposal\n            .getCurrentMembershipFee();\n        require(\n            msg.value >= _currentMembershipFee,\n            \"incorrect fee sent to contract\"\n        );\n\n        if (msg.value > _currentMembershipFee) {\n            payable(address(this)).transfer(\n                msg.value.sub(_currentMembershipFee)\n            );\n        }\n        _;\n    }\n\n    // common roles checks\n\n    modifier onlyActivatedProvider(address _caller) {\n        require(\n            insuranceProviderRole.isActivatedInsuranceProvider(_caller) ||\n                oracleProviderRole.isActivatedOracleProvider(_caller),\n            \"caller must be activated provider\"\n        );\n        _;\n    }\n\n    modifier onlyTokenHolder(address _caller) {\n        require(\n            flightSuretyShares.balanceOf(_caller) > 0,\n            \"caller must be token holder\"\n        );\n        _;\n    }\n\n    modifier requireTokenHolderIsOldEnough(address _caller) {\n        require(\n            block.number - flightSuretyShares.ownershipBlockNum(_caller) >=\n                TOKEN_HOLDER_MINIMUM_BLOCK_REQUIREMENT,\n            \"caller must be an old token holder\"\n        );\n        _;\n    }\n\n    // insurance providers checks\n\n    modifier onlyRegisteredInsuranceProvider(address _caller) {\n        require(\n            insuranceProviderRole.isRegisteredInsuranceProvider(_caller),\n            \"caller must be insurance provider\"\n        );\n        _;\n    }\n\n    modifier onlyActivatedInsuranceProvider(address _caller) {\n        require(\n            insuranceProviderRole.isActivatedInsuranceProvider(_caller),\n            \"caller must be activated insurance provider\"\n        );\n        _;\n    }\n\n    modifier requireTokenHolderHasNotVotedInsuranceProviderMembership(\n        address _caller,\n        address _account\n    ) {\n        require(\n            !insuranceProviderRole.hasVotedInsuranceProviderMembership(\n                _account,\n                _caller\n            ),\n            \"caller has already voted\"\n        );\n        _;\n    }\n\n    // oracle providers checks\n\n    modifier onlyRegisteredOracleProvider(address _caller) {\n        require(\n            oracleProviderRole.isRegisteredOracleProvider(_caller),\n            \"caller must be oracle provider\"\n        );\n        _;\n    }\n\n    modifier onlyActivatedOracleProvider(address _caller) {\n        require(\n            oracleProviderRole.isActivatedOracleProvider(_caller),\n            \"caller is not activated oracle provider\"\n        );\n        _;\n    }\n\n    modifier requireTokenHolderHasNotVotedOracleProviderMembership(\n        address _caller,\n        address _account\n    ) {\n        require(\n            !oracleProviderRole.hasVotedOracleProviderMembership(\n                _account,\n                _caller\n            ),\n            \"caller has already voted\"\n        );\n        _;\n    }\n\n    constructor() Ownable() {}\n\n    // initialize external contracts addresses\n    function initialize(\n        address _flightSuretyData,\n        address _insuranceCoverageAmendmentProposal,\n        address _membershipFeeAmendmentProposal,\n        address _insuranceProviderRole,\n        address _oracleProviderRole,\n        address _flightSuretyShares\n    ) external onlyOwner {\n        // registering external contracts address\n        flightSuretyData = IFlightSuretyData(_flightSuretyData);\n        insuranceCoverageAmendmentProposal = IInsuranceCoverageAmendmentProposal(\n            _insuranceCoverageAmendmentProposal\n        );\n        membershipFeeAmendmentProposal = IMembershipFeeAmendmentProposal(\n            _membershipFeeAmendmentProposal\n        );\n        insuranceProviderRole = IInsuranceProviderRole(_insuranceProviderRole);\n        oracleProviderRole = IOracleProviderRole(_oracleProviderRole);\n        flightSuretyShares = IFlightSuretyShares(_flightSuretyShares);\n        // make the contract owner a registered insurance provider\n        insuranceProviderRole.addInsuranceProvider(msg.sender);\n        // make the contract owner an activated insurance provider\n        insuranceProviderRole.activateInsuranceProvider(msg.sender);\n    }\n\n    /* external contracts calls management */\n\n    function updateAuthorizedCallerFlightSuretyData(\n        address _authorizedCaller,\n        bool _access\n    ) external onlyOwner {\n        if (_access) {\n            flightSuretyData.authorizeCaller(_authorizedCaller);\n            emit AuthorizedCaller(\n                msg.sender,\n                _authorizedCaller,\n                address(flightSuretyData)\n            );\n        } else {\n            flightSuretyData.unauthorizeCaller(_authorizedCaller);\n            emit UnauthorizedCaller(\n                msg.sender,\n                _authorizedCaller,\n                address(flightSuretyData)\n            );\n        }\n    }\n\n    function updateAuthorizedCallerInsuranceCoverageAmendmentProposal(\n        address _authorizedCaller,\n        bool _access\n    ) external onlyOwner {\n        if (_access) {\n            insuranceCoverageAmendmentProposal.authorizeCaller(\n                _authorizedCaller\n            );\n            emit AuthorizedCaller(\n                msg.sender,\n                _authorizedCaller,\n                address(insuranceCoverageAmendmentProposal)\n            );\n        } else {\n            insuranceCoverageAmendmentProposal.unauthorizeCaller(\n                _authorizedCaller\n            );\n            emit UnauthorizedCaller(\n                msg.sender,\n                _authorizedCaller,\n                address(insuranceCoverageAmendmentProposal)\n            );\n        }\n    }\n\n    function updateAuthorizedCallerMembershipFeeAmendmentProposal(\n        address _authorizedCaller,\n        bool _access\n    ) external onlyOwner {\n        if (_access) {\n            membershipFeeAmendmentProposal.authorizeCaller(_authorizedCaller);\n            emit AuthorizedCaller(\n                msg.sender,\n                _authorizedCaller,\n                address(membershipFeeAmendmentProposal)\n            );\n        } else {\n            membershipFeeAmendmentProposal.unauthorizeCaller(_authorizedCaller);\n            emit UnauthorizedCaller(\n                msg.sender,\n                _authorizedCaller,\n                address(membershipFeeAmendmentProposal)\n            );\n        }\n    }\n\n    function updateAuthorizedCallerInsuranceProviderRole(\n        address _authorizedCaller,\n        bool _access\n    ) external onlyOwner {\n        if (_access) {\n            insuranceProviderRole.authorizeCaller(_authorizedCaller);\n            emit AuthorizedCaller(\n                msg.sender,\n                _authorizedCaller,\n                address(insuranceProviderRole)\n            );\n        } else {\n            insuranceProviderRole.unauthorizeCaller(_authorizedCaller);\n            emit UnauthorizedCaller(\n                msg.sender,\n                _authorizedCaller,\n                address(insuranceProviderRole)\n            );\n        }\n    }\n\n    function updateAuthorizedCallerOracleProviderRole(\n        address _authorizedCaller,\n        bool _access\n    ) external onlyOwner {\n        if (_access) {\n            oracleProviderRole.authorizeCaller(_authorizedCaller);\n            emit AuthorizedCaller(\n                msg.sender,\n                _authorizedCaller,\n                address(oracleProviderRole)\n            );\n        } else {\n            oracleProviderRole.unauthorizeCaller(_authorizedCaller);\n            emit UnauthorizedCaller(\n                msg.sender,\n                _authorizedCaller,\n                address(oracleProviderRole)\n            );\n        }\n    }\n\n    function updateAuthorizedCallerFlighSuretyShares(\n        address _authorizedCaller,\n        bool _access\n    ) external onlyOwner {\n        if (_access) {\n            flightSuretyShares.authorizeCaller(_authorizedCaller);\n            emit AuthorizedCaller(\n                msg.sender,\n                _authorizedCaller,\n                address(flightSuretyShares)\n            );\n        } else {\n            flightSuretyShares.unauthorizeCaller(_authorizedCaller);\n            emit UnauthorizedCaller(\n                msg.sender,\n                _authorizedCaller,\n                address(flightSuretyShares)\n            );\n        }\n    }\n\n    /* providers registrations */\n\n    // insurance providers\n\n    function registerInsuranceProvider() external payable requireMembershipFee {\n        insuranceProviderRole.addInsuranceProvider(msg.sender);\n        uint256 registeredInsuranceProviderCount = insuranceProviderRole\n            .getRegisteredInsuranceProvidersCount();\n        if (registeredInsuranceProviderCount <= 4) {\n            insuranceProviderRole.activateInsuranceProvider(msg.sender);\n            uint256 sharesToMint = _calculateSharesToMint();\n            flightSuretyShares.mint(msg.sender, sharesToMint);\n            emit RegisteredInsuranceProvider(msg.sender);\n            emit ActivatedInsuranceProvider(msg.sender);\n        } else {\n            emit RegisteredInsuranceProvider(msg.sender);\n        }\n    }\n\n    // oracle providers\n\n    function registerOracleProvider() external payable requireMembershipFee {\n        oracleProviderRole.addOracleProvider(msg.sender);\n        uint256 registeredOracleProviderCount = oracleProviderRole\n            .getRegisteredOracleProvidersCount();\n        if (registeredOracleProviderCount <= 4) {\n            oracleProviderRole.activateOracleProvider(msg.sender);\n            uint256 sharesToMint = _calculateSharesToMint();\n            flightSuretyShares.mint(msg.sender, sharesToMint);\n            emit RegisteredOracleProvider(msg.sender);\n            emit ActivatedOracleProvider(msg.sender);\n        } else {\n            emit RegisteredOracleProvider(msg.sender);\n        }\n    }\n\n    /* votes providers */\n\n    // insurance providers\n\n    function voteInsuranceProviderMembership(address _account)\n        external\n        onlyTokenHolder(msg.sender)\n        requireTokenHolderIsOldEnough(msg.sender)\n        requireTokenHolderHasNotVotedInsuranceProviderMembership(\n            msg.sender,\n            _account\n        )\n    {\n        insuranceProviderRole.voteInsuranceProviderMembership(\n            msg.sender,\n            _account,\n            flightSuretyShares.balanceOf(msg.sender)\n        );\n        bool consensusCheck = insuranceProviderRole\n            .hasReachedConsensusInsuranceProviderMembership(\n                true,\n                _account,\n                _calculateProvidersConsensusTreshold()\n            );\n        if (consensusCheck) {\n            insuranceProviderRole.activateInsuranceProvider(_account);\n            uint256 sharesToMint = _calculateSharesToMint();\n            flightSuretyShares.mint(_account, sharesToMint);\n            emit NewVoteInsuranceProvider(msg.sender, true, _account);\n            emit ActivatedInsuranceProvider(_account);\n        } else {\n            emit NewVoteInsuranceProvider(msg.sender, true, _account);\n        }\n    }\n\n    // oracle providers\n\n    function voteOracleProviderMembership(address _account)\n        external\n        onlyTokenHolder(msg.sender)\n        requireTokenHolderIsOldEnough(msg.sender)\n        requireTokenHolderHasNotVotedOracleProviderMembership(\n            msg.sender,\n            _account\n        )\n    {\n        oracleProviderRole.voteOracleProviderMembership(\n            msg.sender,\n            _account,\n            flightSuretyShares.balanceOf(msg.sender)\n        );\n        bool consensusCheck = oracleProviderRole\n            .hasReachedConsensusOracleProviderMembership(\n                true,\n                _account,\n                _calculateProvidersConsensusTreshold()\n            );\n        if (consensusCheck) {\n            oracleProviderRole.activateOracleProvider(_account);\n            uint256 sharesToMint = _calculateSharesToMint();\n            flightSuretyShares.mint(_account, sharesToMint);\n            emit NewVoteOracleProvider(msg.sender, true, _account);\n            emit ActivatedOracleProvider(_account);\n        } else {\n            emit NewVoteOracleProvider(msg.sender, true, _account);\n        }\n    }\n\n    /* flights management */\n\n    function registerFlight(\n        string calldata _flightRef,\n        uint64 _estimatedDeparture,\n        uint64 _estimatedArrival,\n        uint256 _rate\n    )\n        external\n        onlyActivatedInsuranceProvider(msg.sender)\n        requireValidFlight(_estimatedDeparture, _estimatedArrival, _rate)\n    {\n        flightSuretyData.registerFlight(\n            msg.sender,\n            _flightRef,\n            _estimatedDeparture,\n            _estimatedArrival,\n            _rate\n        );\n        uint256 flightID = flightSuretyData.getCurrentFlightID();\n        emit NewFlight(\n            flightID,\n            msg.sender,\n            _estimatedDeparture,\n            _estimatedArrival,\n            _flightRef,\n            _rate\n        );\n    }\n\n    function getFlightInitialData(uint256 _flightID)\n        external\n        view\n        returns (\n            string memory flightRef,\n            uint64 estimatedDeparture,\n            uint64 estimatedArrival,\n            address insuranceProvider,\n            uint256 rate\n        )\n    {\n        (\n            flightRef,\n            estimatedDeparture,\n            estimatedArrival,\n            ,\n            ,\n            ,\n            insuranceProvider,\n            ,\n            rate\n        ) = flightSuretyData.getFlight(_flightID);\n        return (\n            flightRef,\n            estimatedDeparture,\n            estimatedArrival,\n            insuranceProvider,\n            rate\n        );\n    }\n\n    function getFlightSettlementData(uint256 _flightID)\n        external\n        view\n        returns (\n            string memory flightRef,\n            uint64 realDeparture,\n            uint64 realArrival,\n            bool isLate,\n            address insuranceProvider,\n            uint256 insuredValue\n        )\n    {\n        (\n            flightRef,\n            ,\n            ,\n            realDeparture,\n            realArrival,\n            isLate,\n            insuranceProvider,\n            insuredValue,\n\n        ) = flightSuretyData.getFlight(_flightID);\n        return (\n            flightRef,\n            realDeparture,\n            realArrival,\n            isLate,\n            insuranceProvider,\n            insuredValue\n        );\n    }\n\n    /* insurances management */\n\n    function registerInsurance(uint256 _flightID)\n        external\n        payable\n        requireFutureFlight(_flightID)\n        requireMessageValueGreatherOrEqualToFlightRate(_flightID)\n        requireTotalInsuredValueCoverage(msg.value)\n    {\n        // fetch flight rate\n        (\n            ,\n            ,\n            ,\n            ,\n            ,\n            ,\n            address insuranceProvider,\n            ,\n            uint256 rate\n        ) = flightSuretyData.getFlight(_flightID);\n        // create insurance for the caller\n        flightSuretyData.insure(msg.sender, _flightID, rate);\n        // update total insured value  (locking up funds to be sure to be able to cover all funds locked up in contract)\n        _incrementTotalInsuredValue(rate);\n        uint256 insuranceID = flightSuretyData.getCurrentInsuranceID();\n        emit NewInsurance(\n            msg.sender,\n            insuranceProvider,\n            insuranceID,\n            _flightID,\n            rate\n        );\n    }\n\n    function claimInsurance(uint256 _insuranceID)\n        external\n        payable\n        requireFlightIsLate(_insuranceID)\n        onlyInsuranceOwner(_insuranceID)\n        onlyInsuranceIsNotClaimed(_insuranceID)\n    {\n        // fetch the insurance insured value\n        (uint256 flightID, uint256 insuredValue, , ) = flightSuretyData\n            .getInsurance(_insuranceID);\n        // fetch the flight data\n        (, , , , , , address insuranceProvider, , ) = flightSuretyData\n            .getFlight(flightID);\n        // update insurance to claimed\n        flightSuretyData.setInsuranceToClaimed(_insuranceID);\n        // update total insured value as funds are about to be sent (unlocking funds to take new insurance contracts)\n        uint256 currentTotalInsuredValue = flightSuretyData\n            .getTotalInsuredValue();\n        flightSuretyData.setTotalInsuredValue(\n            currentTotalInsuredValue.sub(insuredValue)\n        );\n        // calculate the amount to transfer according to the insurance coverage policy\n        uint256 amountToTransfer = _calculateInsuredValueBenefits(insuredValue);\n        payable(msg.sender).transfer(amountToTransfer);\n        emit NewPayout(\n            msg.sender,\n            insuranceProvider,\n            _insuranceID,\n            flightID,\n            insuredValue\n        );\n    }\n\n    /* Settings amendment proposals*/\n\n    // fetch the current membership fee\n    function currentMembershipFee() external view returns (uint256) {\n        return membershipFeeAmendmentProposal.getCurrentMembershipFee();\n    }\n\n    // fetch the current insurance coverage ratio\n    function currentInsuranceCoverageRatio() external view returns (uint256) {\n        return insuranceCoverageAmendmentProposal.getCurrentInsuranceCoverage();\n    }\n\n    // membership fee amendment proposals\n\n    function registerMembershipFeeAmendmentProposal(uint256 _proposedValue)\n        external\n        onlyTokenHolder(msg.sender)\n    {\n        membershipFeeAmendmentProposal.registerMembershipFeeAmendmentProposal(\n            msg.sender,\n            _proposedValue,\n            flightSuretyShares.balanceOf(msg.sender)\n        );\n        uint256 _proposalID = membershipFeeAmendmentProposal\n            .getMembershipFeeAmendmentProposalCurrentProposalID();\n        emit NewMembershipFeeAmendmentProposal(\n            _proposalID,\n            msg.sender,\n            _proposedValue\n        );\n        emit NewVoteMembershipFeeAmendmentProposal(_proposalID, msg.sender);\n    }\n\n    function voteMembershipFeeAmendmentProposal(uint256 _proposalID)\n        external\n        onlyTokenHolder(msg.sender)\n        requireTokenHolderIsOldEnough(msg.sender)\n        requireTokenHolderHasNotVotedMembershipFeeAmendmentProposal(\n            msg.sender,\n            _proposalID\n        )\n        requireProposalIsActive(_proposalID)\n    {\n        membershipFeeAmendmentProposal.voteMembershipFeeAmendmentProposal(\n            _proposalID,\n            msg.sender,\n            true,\n            flightSuretyShares.balanceOf(msg.sender)\n        );\n        bool consensusCheck = membershipFeeAmendmentProposal\n            .hasMembershipFeeAmendmentProposalReachedConsensus(\n                _proposalID,\n                true,\n                _calculateProvidersConsensusTreshold()\n            );\n        if (consensusCheck) {\n            membershipFeeAmendmentProposal\n                .activateMembershipFeeAmendmentProposal(_proposalID);\n            uint256 lockedMembershipFee = membershipFeeAmendmentProposal\n                .getCurrentMembershipFee();\n            emit NewVoteMembershipFeeAmendmentProposal(_proposalID, msg.sender);\n            emit ActivatedMembershipFeeAmendmentProposal(\n                _proposalID,\n                lockedMembershipFee\n            );\n        } else {\n            emit NewVoteMembershipFeeAmendmentProposal(_proposalID, msg.sender);\n        }\n    }\n\n    // insurance coverage amendment proposal\n\n    function registerInsuranceCoverageAmendmentProposal(uint256 _proposedValue)\n        external\n        onlyTokenHolder(msg.sender)\n    {\n        insuranceCoverageAmendmentProposal\n            .registerInsuranceCoverageAmendmentProposal(\n                msg.sender,\n                _proposedValue,\n                flightSuretyShares.balanceOf(msg.sender)\n            );\n        uint256 _proposalID = insuranceCoverageAmendmentProposal\n            .getInsuranceCoverageAmendmentCurrentProposalID();\n        emit NewInsuranceCoverageAmendmentProposal(\n            _proposalID,\n            msg.sender,\n            _proposedValue\n        );\n        emit NewVoteInsuranceCoverageAmendmentProposal(_proposalID, msg.sender);\n    }\n\n    function voteInsuranceCoverageAmendmentProposal(uint256 _proposalID)\n        external\n        onlyTokenHolder(msg.sender)\n        requireTokenHolderIsOldEnough(msg.sender)\n        requireTokenHolderHasNotVotedInsuranceCoverageAmendmentProposal(\n            msg.sender,\n            _proposalID\n        )\n        requireProposalIsActive(_proposalID)\n    {\n        insuranceCoverageAmendmentProposal\n            .voteInsuranceCoverageAmendmentProposal(\n                _proposalID,\n                msg.sender,\n                true,\n                flightSuretyShares.balanceOf(msg.sender)\n            );\n        bool consensusCheck = insuranceCoverageAmendmentProposal\n            .hasInsuranceCoverageAmendmentProposalReachedConsensus(\n                _proposalID,\n                true,\n                _calculateProvidersConsensusTreshold()\n            );\n        if (consensusCheck) {\n            insuranceCoverageAmendmentProposal\n                .activateInsuranceCoverageAmendmentProposal(_proposalID);\n            uint256 insuranceCoverage = insuranceCoverageAmendmentProposal\n                .getCurrentInsuranceCoverage();\n            emit NewVoteInsuranceCoverageAmendmentProposal(\n                _proposalID,\n                msg.sender\n            );\n            emit ActivatedInsuranceCoverageAmendmentProposal(\n                _proposalID,\n                insuranceCoverage\n            );\n        } else {\n            emit NewVoteInsuranceCoverageAmendmentProposal(\n                _proposalID,\n                msg.sender\n            );\n        }\n    }\n\n     // fetch the oracle provider indexes\n    function getOracleIndexes() external view onlyActivatedOracleProvider(msg.sender)\n        returns (\n            uint256 index1,\n            uint256 index2,\n            uint256 index3\n        ){\n            (index1, index2, index3) = oracleProviderRole.getOracleIndexes(msg.sender);\n            return (index1, index2, index3);\n        }\n\n    function _incrementTotalInsuredValue(uint256 _addedValue) internal {\n        uint256 currentTotalInsuredValue = flightSuretyData\n            .getTotalInsuredValue();\n        flightSuretyData.setTotalInsuredValue(\n            currentTotalInsuredValue.add(_addedValue)\n        );\n    }\n\n    function _calculateInsuredValueBenefits(uint256 initialValue)\n        internal\n        view\n        returns (uint256 insuredValueCoverage)\n    {\n        uint256 currentInsuranceCoverage = insuranceCoverageAmendmentProposal\n            .getCurrentInsuranceCoverage();\n        return initialValue.mul(currentInsuranceCoverage).div(100);\n    }\n\n    function _calculateProvidersConsensusTreshold()\n        internal\n        view\n        returns (uint256 providersConsensusTreshold)\n    {\n        return flightSuretyShares.totalSupply().div(2);\n    }\n\n    function _calculateSharesToMint()\n        internal\n        pure\n        returns (uint256 sharesToMint)\n    {\n        return 1;\n    }\n}\n",
  "sourcePath": "/home/tothemoon_/Documents/FlightInsurance/contracts/FlightSuretyApp/FlightSuretyApp.sol",
  "compiler": {
    "name": "solc",
    "version": "0.8.0+commit.c7dfd78e.Emscripten.clang"
  },
  "schemaVersion": "3.4.2",
  "updatedAt": "2021-08-15T08:42:12.076Z",
  "networkType": "ethereum",
  "devdoc": {
    "kind": "dev",
    "methods": {},
    "version": 1
  },
  "userdoc": {
    "kind": "user",
    "methods": {},
    "version": 1
  }
}