{
  "contractName": "FlightSuretyShares",
  "abi": [
    {
      "inputs": [
        {
          "internalType": "address",
          "name": "_appContractAddress",
          "type": "address"
        }
      ],
      "stateMutability": "nonpayable",
      "type": "constructor"
    },
    {
      "anonymous": false,
      "inputs": [
        {
          "indexed": true,
          "internalType": "address",
          "name": "owner",
          "type": "address"
        },
        {
          "indexed": true,
          "internalType": "address",
          "name": "spender",
          "type": "address"
        },
        {
          "indexed": false,
          "internalType": "uint256",
          "name": "value",
          "type": "uint256"
        }
      ],
      "name": "Approval",
      "type": "event"
    },
    {
      "anonymous": false,
      "inputs": [
        {
          "indexed": true,
          "internalType": "address",
          "name": "from",
          "type": "address"
        },
        {
          "indexed": true,
          "internalType": "address",
          "name": "to",
          "type": "address"
        },
        {
          "indexed": false,
          "internalType": "uint256",
          "name": "value",
          "type": "uint256"
        }
      ],
      "name": "Transfer",
      "type": "event"
    },
    {
      "inputs": [
        {
          "internalType": "address",
          "name": "owner",
          "type": "address"
        },
        {
          "internalType": "address",
          "name": "spender",
          "type": "address"
        }
      ],
      "name": "allowance",
      "outputs": [
        {
          "internalType": "uint256",
          "name": "",
          "type": "uint256"
        }
      ],
      "stateMutability": "view",
      "type": "function"
    },
    {
      "inputs": [
        {
          "internalType": "address",
          "name": "spender",
          "type": "address"
        },
        {
          "internalType": "uint256",
          "name": "amount",
          "type": "uint256"
        }
      ],
      "name": "approve",
      "outputs": [
        {
          "internalType": "bool",
          "name": "",
          "type": "bool"
        }
      ],
      "stateMutability": "nonpayable",
      "type": "function"
    },
    {
      "inputs": [
        {
          "internalType": "address",
          "name": "account",
          "type": "address"
        }
      ],
      "name": "balanceOf",
      "outputs": [
        {
          "internalType": "uint256",
          "name": "",
          "type": "uint256"
        }
      ],
      "stateMutability": "view",
      "type": "function"
    },
    {
      "inputs": [],
      "name": "decimals",
      "outputs": [
        {
          "internalType": "uint8",
          "name": "",
          "type": "uint8"
        }
      ],
      "stateMutability": "view",
      "type": "function"
    },
    {
      "inputs": [
        {
          "internalType": "address",
          "name": "spender",
          "type": "address"
        },
        {
          "internalType": "uint256",
          "name": "subtractedValue",
          "type": "uint256"
        }
      ],
      "name": "decreaseAllowance",
      "outputs": [
        {
          "internalType": "bool",
          "name": "",
          "type": "bool"
        }
      ],
      "stateMutability": "nonpayable",
      "type": "function"
    },
    {
      "inputs": [],
      "name": "destructContract",
      "outputs": [],
      "stateMutability": "nonpayable",
      "type": "function"
    },
    {
      "inputs": [
        {
          "internalType": "address",
          "name": "spender",
          "type": "address"
        },
        {
          "internalType": "uint256",
          "name": "addedValue",
          "type": "uint256"
        }
      ],
      "name": "increaseAllowance",
      "outputs": [
        {
          "internalType": "bool",
          "name": "",
          "type": "bool"
        }
      ],
      "stateMutability": "nonpayable",
      "type": "function"
    },
    {
      "inputs": [],
      "name": "name",
      "outputs": [
        {
          "internalType": "string",
          "name": "",
          "type": "string"
        }
      ],
      "stateMutability": "view",
      "type": "function"
    },
    {
      "inputs": [
        {
          "internalType": "address",
          "name": "account",
          "type": "address"
        }
      ],
      "name": "ownershipDate",
      "outputs": [
        {
          "internalType": "uint256",
          "name": "",
          "type": "uint256"
        }
      ],
      "stateMutability": "view",
      "type": "function"
    },
    {
      "inputs": [],
      "name": "symbol",
      "outputs": [
        {
          "internalType": "string",
          "name": "",
          "type": "string"
        }
      ],
      "stateMutability": "view",
      "type": "function"
    },
    {
      "inputs": [],
      "name": "totalSupply",
      "outputs": [
        {
          "internalType": "uint256",
          "name": "",
          "type": "uint256"
        }
      ],
      "stateMutability": "view",
      "type": "function"
    },
    {
      "inputs": [
        {
          "internalType": "address",
          "name": "recipient",
          "type": "address"
        },
        {
          "internalType": "uint256",
          "name": "amount",
          "type": "uint256"
        }
      ],
      "name": "transfer",
      "outputs": [
        {
          "internalType": "bool",
          "name": "",
          "type": "bool"
        }
      ],
      "stateMutability": "nonpayable",
      "type": "function"
    },
    {
      "inputs": [
        {
          "internalType": "address",
          "name": "sender",
          "type": "address"
        },
        {
          "internalType": "address",
          "name": "recipient",
          "type": "address"
        },
        {
          "internalType": "uint256",
          "name": "amount",
          "type": "uint256"
        }
      ],
      "name": "transferFrom",
      "outputs": [
        {
          "internalType": "bool",
          "name": "",
          "type": "bool"
        }
      ],
      "stateMutability": "nonpayable",
      "type": "function"
    },
    {
      "inputs": [
        {
          "internalType": "address",
          "name": "_newOwner",
          "type": "address"
        }
      ],
      "name": "transferOwnership",
      "outputs": [],
      "stateMutability": "nonpayable",
      "type": "function"
    },
    {
      "inputs": [
        {
          "internalType": "address",
          "name": "_caller",
          "type": "address"
        }
      ],
      "name": "authorizeCaller",
      "outputs": [],
      "stateMutability": "nonpayable",
      "type": "function"
    },
    {
      "inputs": [
        {
          "internalType": "address",
          "name": "_caller",
          "type": "address"
        }
      ],
      "name": "unauthorizeCaller",
      "outputs": [],
      "stateMutability": "nonpayable",
      "type": "function"
    },
    {
      "inputs": [
        {
          "internalType": "address",
          "name": "account",
          "type": "address"
        },
        {
          "internalType": "uint256",
          "name": "amount",
          "type": "uint256"
        }
      ],
      "name": "mint",
      "outputs": [],
      "stateMutability": "nonpayable",
      "type": "function"
    },
    {
      "inputs": [
        {
          "internalType": "address",
          "name": "account",
          "type": "address"
        },
        {
          "internalType": "uint256",
          "name": "amount",
          "type": "uint256"
        }
      ],
      "name": "burn",
      "outputs": [],
      "stateMutability": "nonpayable",
      "type": "function"
    }
  ],
  "bytecode": "0x60806040523480156200001157600080fd5b506040516200122238038062001222833981016040819052620000349162000182565b6040805180820182526012815271466c6967687453757265747953686172657360701b60208083019182528351808501909452600384526246535360e81b9084015281519192916200008991600491620000dc565b5080516200009f906005906020840190620000dc565b5050600680546001600160a01b03191633179055506001600160a01b03166000908152600760205260409020805460ff19166001179055620001ef565b828054620000ea90620001b2565b90600052602060002090601f0160209004810192826200010e576000855562000159565b82601f106200012957805160ff191683800117855562000159565b8280016001018555821562000159579182015b82811115620001595782518255916020019190600101906200013c565b50620001679291506200016b565b5090565b5b808211156200016757600081556001016200016c565b60006020828403121562000194578081fd5b81516001600160a01b0381168114620001ab578182fd5b9392505050565b600281046001821680620001c757607f821691505b60208210811415620001e957634e487b7160e01b600052602260045260246000fd5b50919050565b61102380620001ff6000396000f3fe608060405234801561001057600080fd5b50600436106101165760003560e01c806370a08231116100a2578063a457c2d711610071578063a457c2d71461021a578063a9059cbb1461022d578063d1b4b4ca14610240578063dd62ed3e14610253578063f2fde38b1461026657610116565b806370a08231146101e45780639499e018146101f757806395d89b41146101ff5780639dc29fac1461020757610116565b80632c388d5d116100e95780632c388d5d14610181578063313ce5671461019657806339509351146101ab57806340c10f19146101be5780634ac8c5ae146101d157610116565b806306fdde031461011b578063095ea7b31461013957806318160ddd1461015957806323b872dd1461016e575b600080fd5b610123610279565b6040516101309190610bf1565b60405180910390f35b61014c610147366004610bbd565b61030b565b6040516101309190610be6565b610161610328565b6040516101309190610f56565b61014c61017c366004610b82565b61032e565b61019461018f366004610b2f565b6103c7565b005b61019e610417565b6040516101309190610f5f565b61014c6101b9366004610bbd565b61041c565b6101946101cc366004610bbd565b610470565b6101946101df366004610b2f565b6104c2565b6101616101f2366004610b2f565b61050f565b61019461052e565b610123610566565b610194610215366004610bbd565b610575565b61014c610228366004610bbd565b6105c3565b61014c61023b366004610bbd565b61063c565b61016161024e366004610b2f565b610650565b610161610261366004610b50565b61066b565b610194610274366004610b2f565b610696565b60606004805461028890610f9c565b80601f01602080910402602001604051908101604052809291908181526020018280546102b490610f9c565b80156103015780601f106102d657610100808354040283529160200191610301565b820191906000526020600020905b8154815290600101906020018083116102e457829003601f168201915b5050505050905090565b600061031f6103186106e2565b84846106e6565b50600192915050565b60035490565b600061033b84848461079a565b6001600160a01b03841660009081526002602052604081208161035c6106e2565b6001600160a01b03166001600160a01b03168152602001908152602001600020549050828110156103a85760405162461bcd60e51b815260040161039f90610d9a565b60405180910390fd5b6103bc856103b46106e2565b8584036106e6565b506001949350505050565b6006546001600160a01b03163314806103ef57503360009081526007602052604090205460ff165b61040b5760405162461bcd60e51b815260040161039f90610d0b565b610414816108e7565b50565b601290565b600061031f6104296106e2565b8484600260006104376106e2565b6001600160a01b03908116825260208083019390935260409182016000908120918b168152925290205461046b9190610f6d565b6106e6565b6006546001600160a01b031633148061049857503360009081526007602052604090205460ff165b6104b45760405162461bcd60e51b815260040161039f90610d0b565b6104be828261090b565b5050565b6006546001600160a01b03163314806104ea57503360009081526007602052604090205460ff165b6105065760405162461bcd60e51b815260040161039f90610d0b565b610414816109de565b6001600160a01b0381166000908152602081905260409020545b919050565b6006546001600160a01b031633146105585760405162461bcd60e51b815260040161039f90610e68565b6006546001600160a01b0316ff5b60606005805461028890610f9c565b6006546001600160a01b031633148061059d57503360009081526007602052604090205460ff165b6105b95760405162461bcd60e51b815260040161039f90610d0b565b6104be82826109ff565b600080600260006105d26106e2565b6001600160a01b039081168252602080830193909352604091820160009081209188168152925290205490508281101561061e5760405162461bcd60e51b815260040161039f90610eda565b6106326106296106e2565b858584036106e6565b5060019392505050565b600061031f6106496106e2565b848461079a565b6001600160a01b031660009081526001602052604090205490565b6001600160a01b03918216600090815260026020908152604080832093909416825291909152205490565b6006546001600160a01b031633146106c05760405162461bcd60e51b815260040161039f90610e68565b600680546001600160a01b0319166001600160a01b0392909216919091179055565b3390565b6001600160a01b03831661070c5760405162461bcd60e51b815260040161039f90610e96565b6001600160a01b0382166107325760405162461bcd60e51b815260040161039f90610cc9565b6001600160a01b0380841660008181526002602090815260408083209487168084529490915290819020849055517f8c5be1e5ebec7d5bd14f71427d1e84f3dd0314c0f7b2291e5b200ac8c7c3b9259061078d908590610f56565b60405180910390a3505050565b6001600160a01b0383166107c05760405162461bcd60e51b815260040161039f90610e23565b6001600160a01b0382166107e65760405162461bcd60e51b815260040161039f90610c44565b6107f1838383610af7565b6001600160a01b0383166000908152602081905260409020548181101561082a5760405162461bcd60e51b815260040161039f90610d54565b6001600160a01b03841660009081526020819052604081208383039055610852908590610afc565b61085c8343610afc565b6001600160a01b03831660009081526020819052604081208054849290610884908490610f6d565b92505081905550826001600160a01b0316846001600160a01b03167fddf252ad1be2c89b69c2b068fc378daa952ba7f163c4a11628f55a4df523b3ef846040516108ce9190610f56565b60405180910390a36108e1848484610af7565b50505050565b6001600160a01b03166000908152600760205260409020805460ff19166001179055565b6001600160a01b0382166109315760405162461bcd60e51b815260040161039f90610f1f565b61093d60008383610af7565b806003600082825461094f9190610f6d565b9091555061095f90508243610afc565b6001600160a01b03821660009081526020819052604081208054839290610987908490610f6d565b90915550506040516001600160a01b038316906000907fddf252ad1be2c89b69c2b068fc378daa952ba7f163c4a11628f55a4df523b3ef906109ca908590610f56565b60405180910390a36104be60008383610af7565b6001600160a01b03166000908152600760205260409020805460ff19169055565b6001600160a01b038216610a255760405162461bcd60e51b815260040161039f90610de2565b610a3182600083610af7565b6001600160a01b03821660009081526020819052604090205481811015610a6a5760405162461bcd60e51b815260040161039f90610c87565b6001600160a01b03831660009081526020819052604081208383039055610a92908490610afc565b8160036000828254610aa49190610f85565b90915550506040516000906001600160a01b038516907fddf252ad1be2c89b69c2b068fc378daa952ba7f163c4a11628f55a4df523b3ef90610ae7908690610f56565b60405180910390a3610af7836000845b505050565b6001600160a01b03909116600090815260016020526040902055565b80356001600160a01b038116811461052957600080fd5b600060208284031215610b40578081fd5b610b4982610b18565b9392505050565b60008060408385031215610b62578081fd5b610b6b83610b18565b9150610b7960208401610b18565b90509250929050565b600080600060608486031215610b96578081fd5b610b9f84610b18565b9250610bad60208501610b18565b9150604084013590509250925092565b60008060408385031215610bcf578182fd5b610bd883610b18565b946020939093013593505050565b901515815260200190565b6000602080835283518082850152825b81811015610c1d57858101830151858201604001528201610c01565b81811115610c2e5783604083870101525b50601f01601f1916929092016040019392505050565b60208082526023908201527f45524332303a207472616e7366657220746f20746865207a65726f206164647260408201526265737360e81b606082015260800190565b60208082526022908201527f45524332303a206275726e20616d6f756e7420657863656564732062616c616e604082015261636560f01b606082015260800190565b60208082526022908201527f45524332303a20617070726f766520746f20746865207a65726f206164647265604082015261737360f01b606082015260800190565b60208082526029908201527f63616c6c6572206d757374206265206f776e6572206f7220617574686f72697a60408201526832b21031b0b63632b960b91b606082015260800190565b60208082526026908201527f45524332303a207472616e7366657220616d6f756e7420657863656564732062604082015265616c616e636560d01b606082015260800190565b60208082526028908201527f45524332303a207472616e7366657220616d6f756e74206578636565647320616040820152676c6c6f77616e636560c01b606082015260800190565b60208082526021908201527f45524332303a206275726e2066726f6d20746865207a65726f206164647265736040820152607360f81b606082015260800190565b60208082526025908201527f45524332303a207472616e736665722066726f6d20746865207a65726f206164604082015264647265737360d81b606082015260800190565b60208082526014908201527331b0b63632b91036bab9ba1031329037bbb732b960611b604082015260600190565b60208082526024908201527f45524332303a20617070726f76652066726f6d20746865207a65726f206164646040820152637265737360e01b606082015260800190565b60208082526025908201527f45524332303a2064656372656173656420616c6c6f77616e63652062656c6f77604082015264207a65726f60d81b606082015260800190565b6020808252601f908201527f45524332303a206d696e7420746f20746865207a65726f206164647265737300604082015260600190565b90815260200190565b60ff91909116815260200190565b60008219821115610f8057610f80610fd7565b500190565b600082821015610f9757610f97610fd7565b500390565b600281046001821680610fb057607f821691505b60208210811415610fd157634e487b7160e01b600052602260045260246000fd5b50919050565b634e487b7160e01b600052601160045260246000fdfea2646970667358221220cfa8206404a14b5266017d60edd3924dc34b3faa2af930c60e19fd6150e38c9764736f6c63430008000033",
  "immutableReferences": {},
  "source": "// SPDX-License-Identifier: UNLICENSED\npragma solidity ^0.8.00;\n\nimport \"../Ownable/Ownable.sol\";\nimport \"../CallerAuditable/CallerAuditable.sol\";\nimport \"./ERC20.sol\";\n\ncontract FlightSuretyShares is ERC20, Ownable, CallerAuditable {\n    mapping(address => uint256) _tokenBase;\n    modifier onlyOwnerOrAuthorizedCaller() {\n        require(\n            msg.sender == owner || authorizedCallers[msg.sender],\n            \"caller must be owner or authorized caller\"\n        );\n        _;\n    }\n\n    // constructor setting owner and initial authorized caller address aka appAddress\n    constructor(address _appContractAddress)\n        Ownable()\n        ERC20(\"FlightSuretyShares\", \"FSS\")\n    {\n        authorizedCallers[_appContractAddress] = true;\n    }\n\n    // authorize a new caller to call the contract\n    function authorizeCaller(address _caller)\n        external\n        onlyOwnerOrAuthorizedCaller\n    {\n        _authorizeCaller(_caller);\n    }\n\n    // remove an existing caller rights to call the contract\n    function unauthorizeCaller(address _caller)\n        external\n        onlyOwnerOrAuthorizedCaller\n    {\n        _unauthorizeCaller(_caller);\n    }\n\n    // allow token minting on deposit of funds by orclae or insurance providers\n    function mint(address account, uint256 amount)\n        external\n        onlyOwnerOrAuthorizedCaller\n    {\n        _mint(account, amount);\n    }\n\n    // allow token burning on ban of an account\n    function burn(address account, uint256 amount)\n        external\n        onlyOwnerOrAuthorizedCaller\n    {\n        _burn(account, amount);\n    }\n}\n",
  "sourcePath": "/home/tothemoon_/Documents/FlightInsurance/contracts/FlightSuretyShares/FlightSuretyShares.sol",
  "compiler": {
    "name": "solc",
    "version": "0.8.0+commit.c7dfd78e.Emscripten.clang"
  },
  "schemaVersion": "3.4.2",
  "updatedAt": "2021-08-13T06:28:57.989Z",
  "devdoc": {
    "kind": "dev",
    "methods": {
      "allowance(address,address)": {
        "details": "See {IERC20-allowance}."
      },
      "approve(address,uint256)": {
        "details": "See {IERC20-approve}. Requirements: - `spender` cannot be the zero address."
      },
      "balanceOf(address)": {
        "details": "See {IERC20-balanceOf}."
      },
      "decimals()": {
        "details": "Returns the number of decimals used to get its user representation. For example, if `decimals` equals `2`, a balance of `505` tokens should be displayed to a user as `5,05` (`505 / 10 ** 2`). Tokens usually opt for a value of 18, imitating the relationship between Ether and Wei. This is the value {ERC20} uses, unless this function is overridden; NOTE: This information is only used for _display_ purposes: it in no way affects any of the arithmetic of the contract, including {IERC20-balanceOf} and {IERC20-transfer}."
      },
      "decreaseAllowance(address,uint256)": {
        "details": "Atomically decreases the allowance granted to `spender` by the caller. This is an alternative to {approve} that can be used as a mitigation for problems described in {IERC20-approve}. Emits an {Approval} event indicating the updated allowance. Requirements: - `spender` cannot be the zero address. - `spender` must have allowance for the caller of at least `subtractedValue`."
      },
      "increaseAllowance(address,uint256)": {
        "details": "Atomically increases the allowance granted to `spender` by the caller. This is an alternative to {approve} that can be used as a mitigation for problems described in {IERC20-approve}. Emits an {Approval} event indicating the updated allowance. Requirements: - `spender` cannot be the zero address."
      },
      "name()": {
        "details": "Returns the name of the token."
      },
      "ownershipDate(address)": {
        "details": "Returns the name of the token."
      },
      "symbol()": {
        "details": "Returns the symbol of the token, usually a shorter version of the name."
      },
      "totalSupply()": {
        "details": "See {IERC20-totalSupply}."
      },
      "transfer(address,uint256)": {
        "details": "See {IERC20-transfer}. Requirements: - `recipient` cannot be the zero address. - the caller must have a balance of at least `amount`."
      },
      "transferFrom(address,address,uint256)": {
        "details": "See {IERC20-transferFrom}. Emits an {Approval} event indicating the updated allowance. This is not required by the EIP. See the note at the beginning of {ERC20}. Requirements: - `sender` and `recipient` cannot be the zero address. - `sender` must have a balance of at least `amount`. - the caller must have allowance for ``sender``'s tokens of at least `amount`."
      }
    },
    "version": 1
  },
  "userdoc": {
    "kind": "user",
    "methods": {},
    "version": 1
  }
}