{
  "contractName": "FlightSuretyApp",
  "abi": [
    {
      "inputs": [
        {
          "internalType": "uint256",
          "name": "_tokenHolderMinBlockRequirement",
          "type": "uint256"
        },
        {
          "internalType": "uint256",
          "name": "_proposalValidBlockNum",
          "type": "uint256"
        }
      ],
      "stateMutability": "nonpayable",
      "type": "constructor"
    },
    {
      "anonymous": false,
      "inputs": [
        {
          "indexed": true,
          "internalType": "uint256",
          "name": "proposalID",
          "type": "uint256"
        },
        {
          "indexed": false,
          "internalType": "uint256",
          "name": "insuranceCoverage",
          "type": "uint256"
        }
      ],
      "name": "ActivatedInsuranceCoverageAmendmentProposal",
      "type": "event"
    },
    {
      "anonymous": false,
      "inputs": [
        {
          "indexed": true,
          "internalType": "address",
          "name": "insuranceProvider",
          "type": "address"
        }
      ],
      "name": "ActivatedInsuranceProvider",
      "type": "event"
    },
    {
      "anonymous": false,
      "inputs": [
        {
          "indexed": true,
          "internalType": "uint256",
          "name": "proposalID",
          "type": "uint256"
        },
        {
          "indexed": false,
          "internalType": "uint256",
          "name": "lockedMembershipFee",
          "type": "uint256"
        }
      ],
      "name": "ActivatedMembershipFeeAmendmentProposal",
      "type": "event"
    },
    {
      "anonymous": false,
      "inputs": [
        {
          "indexed": true,
          "internalType": "address",
          "name": "oracleProvider",
          "type": "address"
        }
      ],
      "name": "ActivatedOracleProvider",
      "type": "event"
    },
    {
      "anonymous": false,
      "inputs": [
        {
          "indexed": true,
          "internalType": "address",
          "name": "contractOwner",
          "type": "address"
        },
        {
          "indexed": false,
          "internalType": "address",
          "name": "caller",
          "type": "address"
        },
        {
          "indexed": false,
          "internalType": "address",
          "name": "contractAddress",
          "type": "address"
        }
      ],
      "name": "AuthorizedCaller",
      "type": "event"
    },
    {
      "anonymous": false,
      "inputs": [
        {
          "indexed": true,
          "internalType": "uint256",
          "name": "flightID",
          "type": "uint256"
        },
        {
          "indexed": true,
          "internalType": "address",
          "name": "insuranceProvider",
          "type": "address"
        },
        {
          "indexed": false,
          "internalType": "uint256",
          "name": "estimatedDeparture",
          "type": "uint256"
        },
        {
          "indexed": false,
          "internalType": "uint256",
          "name": "estimatedArrival",
          "type": "uint256"
        },
        {
          "indexed": false,
          "internalType": "string",
          "name": "flightRef",
          "type": "string"
        },
        {
          "indexed": false,
          "internalType": "uint256",
          "name": "rate",
          "type": "uint256"
        }
      ],
      "name": "NewFlight",
      "type": "event"
    },
    {
      "anonymous": false,
      "inputs": [
        {
          "indexed": true,
          "internalType": "address",
          "name": "passenger",
          "type": "address"
        },
        {
          "indexed": true,
          "internalType": "address",
          "name": "insuranceProvider",
          "type": "address"
        },
        {
          "indexed": true,
          "internalType": "uint256",
          "name": "insuranceID",
          "type": "uint256"
        },
        {
          "indexed": false,
          "internalType": "uint256",
          "name": "flightID",
          "type": "uint256"
        },
        {
          "indexed": false,
          "internalType": "uint256",
          "name": "insuredValue",
          "type": "uint256"
        }
      ],
      "name": "NewInsurance",
      "type": "event"
    },
    {
      "anonymous": false,
      "inputs": [
        {
          "indexed": true,
          "internalType": "uint256",
          "name": "proposalID",
          "type": "uint256"
        },
        {
          "indexed": true,
          "internalType": "address",
          "name": "caller",
          "type": "address"
        },
        {
          "indexed": false,
          "internalType": "uint256",
          "name": "insuranceCoverage",
          "type": "uint256"
        }
      ],
      "name": "NewInsuranceCoverageAmendmentProposal",
      "type": "event"
    },
    {
      "anonymous": false,
      "inputs": [
        {
          "indexed": true,
          "internalType": "uint256",
          "name": "proposalID",
          "type": "uint256"
        },
        {
          "indexed": true,
          "internalType": "address",
          "name": "caller",
          "type": "address"
        },
        {
          "indexed": false,
          "internalType": "uint256",
          "name": "proposedMembershipFee",
          "type": "uint256"
        }
      ],
      "name": "NewMembershipFeeAmendmentProposal",
      "type": "event"
    },
    {
      "anonymous": false,
      "inputs": [
        {
          "indexed": true,
          "internalType": "address",
          "name": "owner",
          "type": "address"
        },
        {
          "indexed": true,
          "internalType": "address",
          "name": "insuranceProvider",
          "type": "address"
        },
        {
          "indexed": true,
          "internalType": "uint256",
          "name": "flightID",
          "type": "uint256"
        },
        {
          "indexed": false,
          "internalType": "uint256",
          "name": "insuredValue",
          "type": "uint256"
        },
        {
          "indexed": false,
          "internalType": "uint256",
          "name": "insuranceID",
          "type": "uint256"
        }
      ],
      "name": "NewPayout",
      "type": "event"
    },
    {
      "anonymous": false,
      "inputs": [
        {
          "indexed": true,
          "internalType": "uint256",
          "name": "proposalID",
          "type": "uint256"
        },
        {
          "indexed": true,
          "internalType": "address",
          "name": "voter",
          "type": "address"
        }
      ],
      "name": "NewVoteInsuranceCoverageAmendmentProposal",
      "type": "event"
    },
    {
      "anonymous": false,
      "inputs": [
        {
          "indexed": true,
          "internalType": "address",
          "name": "voter",
          "type": "address"
        },
        {
          "indexed": true,
          "internalType": "bool",
          "name": "side",
          "type": "bool"
        },
        {
          "indexed": true,
          "internalType": "address",
          "name": "votee",
          "type": "address"
        }
      ],
      "name": "NewVoteInsuranceProvider",
      "type": "event"
    },
    {
      "anonymous": false,
      "inputs": [
        {
          "indexed": true,
          "internalType": "uint256",
          "name": "proposalID",
          "type": "uint256"
        },
        {
          "indexed": true,
          "internalType": "address",
          "name": "voter",
          "type": "address"
        }
      ],
      "name": "NewVoteMembershipFeeAmendmentProposal",
      "type": "event"
    },
    {
      "anonymous": false,
      "inputs": [
        {
          "indexed": true,
          "internalType": "address",
          "name": "voter",
          "type": "address"
        },
        {
          "indexed": true,
          "internalType": "bool",
          "name": "side",
          "type": "bool"
        },
        {
          "indexed": true,
          "internalType": "address",
          "name": "votee",
          "type": "address"
        }
      ],
      "name": "NewVoteOracleProvider",
      "type": "event"
    },
    {
      "anonymous": false,
      "inputs": [
        {
          "indexed": true,
          "internalType": "address",
          "name": "insuranceProvider",
          "type": "address"
        }
      ],
      "name": "RegisteredInsuranceProvider",
      "type": "event"
    },
    {
      "anonymous": false,
      "inputs": [
        {
          "indexed": true,
          "internalType": "address",
          "name": "oracleProvider",
          "type": "address"
        }
      ],
      "name": "RegisteredOracleProvider",
      "type": "event"
    },
    {
      "anonymous": false,
      "inputs": [
        {
          "indexed": true,
          "internalType": "address",
          "name": "insuranceProvider",
          "type": "address"
        }
      ],
      "name": "RemovedInsuranceProvider",
      "type": "event"
    },
    {
      "anonymous": false,
      "inputs": [
        {
          "indexed": true,
          "internalType": "address",
          "name": "oracleProvider",
          "type": "address"
        }
      ],
      "name": "RemovedOracleProvider",
      "type": "event"
    },
    {
      "anonymous": false,
      "inputs": [
        {
          "indexed": true,
          "internalType": "address",
          "name": "contractOwner",
          "type": "address"
        },
        {
          "indexed": false,
          "internalType": "address",
          "name": "caller",
          "type": "address"
        },
        {
          "indexed": false,
          "internalType": "address",
          "name": "contractAddress",
          "type": "address"
        }
      ],
      "name": "UnauthorizedCaller",
      "type": "event"
    },
    {
      "inputs": [],
      "name": "destructContract",
      "outputs": [],
      "stateMutability": "nonpayable",
      "type": "function"
    },
    {
      "inputs": [],
      "name": "isOwner",
      "outputs": [
        {
          "internalType": "bool",
          "name": "_isOwner",
          "type": "bool"
        }
      ],
      "stateMutability": "view",
      "type": "function",
      "constant": true
    },
    {
      "inputs": [],
      "name": "proposalValidBlockNum",
      "outputs": [
        {
          "internalType": "uint256",
          "name": "",
          "type": "uint256"
        }
      ],
      "stateMutability": "view",
      "type": "function",
      "constant": true
    },
    {
      "inputs": [],
      "name": "tokenHolderMinBlockRequirement",
      "outputs": [
        {
          "internalType": "uint256",
          "name": "",
          "type": "uint256"
        }
      ],
      "stateMutability": "view",
      "type": "function",
      "constant": true
    },
    {
      "inputs": [
        {
          "internalType": "address",
          "name": "_newOwner",
          "type": "address"
        }
      ],
      "name": "transferOwnership",
      "outputs": [],
      "stateMutability": "nonpayable",
      "type": "function"
    },
    {
      "inputs": [
        {
          "internalType": "address",
          "name": "_flightSuretyData",
          "type": "address"
        },
        {
          "internalType": "address",
          "name": "_insuranceCoverageAmendmentProposal",
          "type": "address"
        },
        {
          "internalType": "address",
          "name": "_membershipFeeAmendmentProposal",
          "type": "address"
        },
        {
          "internalType": "address",
          "name": "_insuranceProviderRole",
          "type": "address"
        },
        {
          "internalType": "address",
          "name": "_oracleProviderRole",
          "type": "address"
        },
        {
          "internalType": "address",
          "name": "_flightSuretyShares",
          "type": "address"
        }
      ],
      "name": "initialize",
      "outputs": [],
      "stateMutability": "nonpayable",
      "type": "function"
    },
    {
      "inputs": [
        {
          "internalType": "bool",
          "name": "_operationnal",
          "type": "bool"
        }
      ],
      "name": "setOperationnal",
      "outputs": [],
      "stateMutability": "nonpayable",
      "type": "function"
    },
    {
      "inputs": [
        {
          "internalType": "address",
          "name": "_authorizedCaller",
          "type": "address"
        },
        {
          "internalType": "bool",
          "name": "_access",
          "type": "bool"
        }
      ],
      "name": "updateAuthorizedCallerFlightSuretyData",
      "outputs": [],
      "stateMutability": "nonpayable",
      "type": "function"
    },
    {
      "inputs": [
        {
          "internalType": "address",
          "name": "_authorizedCaller",
          "type": "address"
        },
        {
          "internalType": "bool",
          "name": "_access",
          "type": "bool"
        }
      ],
      "name": "updateAuthorizedCallerInsuranceCoverageAmendmentProposal",
      "outputs": [],
      "stateMutability": "nonpayable",
      "type": "function"
    },
    {
      "inputs": [
        {
          "internalType": "address",
          "name": "_authorizedCaller",
          "type": "address"
        },
        {
          "internalType": "bool",
          "name": "_access",
          "type": "bool"
        }
      ],
      "name": "updateAuthorizedCallerMembershipFeeAmendmentProposal",
      "outputs": [],
      "stateMutability": "nonpayable",
      "type": "function"
    },
    {
      "inputs": [
        {
          "internalType": "address",
          "name": "_authorizedCaller",
          "type": "address"
        },
        {
          "internalType": "bool",
          "name": "_access",
          "type": "bool"
        }
      ],
      "name": "updateAuthorizedCallerInsuranceProviderRole",
      "outputs": [],
      "stateMutability": "nonpayable",
      "type": "function"
    },
    {
      "inputs": [
        {
          "internalType": "address",
          "name": "_authorizedCaller",
          "type": "address"
        },
        {
          "internalType": "bool",
          "name": "_access",
          "type": "bool"
        }
      ],
      "name": "updateAuthorizedCallerOracleProviderRole",
      "outputs": [],
      "stateMutability": "nonpayable",
      "type": "function"
    },
    {
      "inputs": [
        {
          "internalType": "address",
          "name": "_authorizedCaller",
          "type": "address"
        },
        {
          "internalType": "bool",
          "name": "_access",
          "type": "bool"
        }
      ],
      "name": "updateAuthorizedCallerFlighSuretyShares",
      "outputs": [],
      "stateMutability": "nonpayable",
      "type": "function"
    },
    {
      "inputs": [
        {
          "internalType": "address",
          "name": "account",
          "type": "address"
        }
      ],
      "name": "registerInsuranceProvider",
      "outputs": [],
      "stateMutability": "nonpayable",
      "type": "function"
    },
    {
      "inputs": [],
      "name": "fundInsuranceProvider",
      "outputs": [],
      "stateMutability": "payable",
      "type": "function",
      "payable": true
    },
    {
      "inputs": [],
      "name": "registerOracleProvider",
      "outputs": [],
      "stateMutability": "payable",
      "type": "function",
      "payable": true
    },
    {
      "inputs": [
        {
          "internalType": "address",
          "name": "_account",
          "type": "address"
        }
      ],
      "name": "voteInsuranceProviderMembership",
      "outputs": [],
      "stateMutability": "nonpayable",
      "type": "function"
    },
    {
      "inputs": [
        {
          "internalType": "address",
          "name": "_account",
          "type": "address"
        }
      ],
      "name": "voteOracleProviderMembership",
      "outputs": [],
      "stateMutability": "nonpayable",
      "type": "function"
    },
    {
      "inputs": [
        {
          "internalType": "string",
          "name": "_flightRef",
          "type": "string"
        },
        {
          "internalType": "uint64",
          "name": "_estimatedDeparture",
          "type": "uint64"
        },
        {
          "internalType": "uint64",
          "name": "_estimatedArrival",
          "type": "uint64"
        },
        {
          "internalType": "uint256",
          "name": "_rate",
          "type": "uint256"
        }
      ],
      "name": "registerFlight",
      "outputs": [],
      "stateMutability": "nonpayable",
      "type": "function"
    },
    {
      "inputs": [
        {
          "internalType": "uint256",
          "name": "_flightID",
          "type": "uint256"
        }
      ],
      "name": "getFlightInitialData",
      "outputs": [
        {
          "internalType": "string",
          "name": "flightRef",
          "type": "string"
        },
        {
          "internalType": "uint64",
          "name": "estimatedDeparture",
          "type": "uint64"
        },
        {
          "internalType": "uint64",
          "name": "estimatedArrival",
          "type": "uint64"
        },
        {
          "internalType": "address",
          "name": "insuranceProvider",
          "type": "address"
        },
        {
          "internalType": "uint256",
          "name": "rate",
          "type": "uint256"
        }
      ],
      "stateMutability": "view",
      "type": "function",
      "constant": true
    },
    {
      "inputs": [
        {
          "internalType": "uint256",
          "name": "_flightID",
          "type": "uint256"
        }
      ],
      "name": "getFlightSettlementData",
      "outputs": [
        {
          "internalType": "string",
          "name": "flightRef",
          "type": "string"
        },
        {
          "internalType": "uint64",
          "name": "realDeparture",
          "type": "uint64"
        },
        {
          "internalType": "uint64",
          "name": "realArrival",
          "type": "uint64"
        },
        {
          "internalType": "bool",
          "name": "isLate",
          "type": "bool"
        },
        {
          "internalType": "address",
          "name": "insuranceProvider",
          "type": "address"
        },
        {
          "internalType": "uint256",
          "name": "insuredValue",
          "type": "uint256"
        }
      ],
      "stateMutability": "view",
      "type": "function",
      "constant": true
    },
    {
      "inputs": [
        {
          "internalType": "uint256",
          "name": "_flightID",
          "type": "uint256"
        }
      ],
      "name": "registerInsurance",
      "outputs": [],
      "stateMutability": "payable",
      "type": "function",
      "payable": true
    },
    {
      "inputs": [
        {
          "internalType": "uint256",
          "name": "_insuranceID",
          "type": "uint256"
        }
      ],
      "name": "claimInsurance",
      "outputs": [],
      "stateMutability": "payable",
      "type": "function",
      "payable": true
    },
    {
      "inputs": [],
      "name": "currentMembershipFee",
      "outputs": [
        {
          "internalType": "uint256",
          "name": "",
          "type": "uint256"
        }
      ],
      "stateMutability": "view",
      "type": "function",
      "constant": true
    },
    {
      "inputs": [],
      "name": "currentInsuranceCoverageRatio",
      "outputs": [
        {
          "internalType": "uint256",
          "name": "",
          "type": "uint256"
        }
      ],
      "stateMutability": "view",
      "type": "function",
      "constant": true
    },
    {
      "inputs": [
        {
          "internalType": "uint256",
          "name": "_proposedValue",
          "type": "uint256"
        }
      ],
      "name": "registerMembershipFeeAmendmentProposal",
      "outputs": [],
      "stateMutability": "nonpayable",
      "type": "function"
    },
    {
      "inputs": [
        {
          "internalType": "uint256",
          "name": "_proposalID",
          "type": "uint256"
        }
      ],
      "name": "voteMembershipFeeAmendmentProposal",
      "outputs": [],
      "stateMutability": "nonpayable",
      "type": "function"
    },
    {
      "inputs": [
        {
          "internalType": "uint256",
          "name": "_proposedValue",
          "type": "uint256"
        }
      ],
      "name": "registerInsuranceCoverageAmendmentProposal",
      "outputs": [],
      "stateMutability": "nonpayable",
      "type": "function"
    },
    {
      "inputs": [
        {
          "internalType": "uint256",
          "name": "_proposalID",
          "type": "uint256"
        }
      ],
      "name": "voteInsuranceCoverageAmendmentProposal",
      "outputs": [],
      "stateMutability": "nonpayable",
      "type": "function"
    },
    {
      "inputs": [],
      "name": "getOracleIndexes",
      "outputs": [
        {
          "internalType": "uint256",
          "name": "index1",
          "type": "uint256"
        },
        {
          "internalType": "uint256",
          "name": "index2",
          "type": "uint256"
        },
        {
          "internalType": "uint256",
          "name": "index3",
          "type": "uint256"
        }
      ],
      "stateMutability": "view",
      "type": "function",
      "constant": true
    }
  ],
  "bytecode": "0x60806040523480156200001157600080fd5b506040516200521e3803806200521e833981016040819052620000349162000064565b6000805460ff60a01b196001600160a01b0319909116331716600160a01b17905560019190915560025562000088565b6000806040838503121562000077578182fd5b505080516020909101519092909150565b61518680620000986000396000f3fe6080604052600436106101cd5760003560e01c80638a4fa7f0116100f7578063bbab516611610095578063cc2a9a5b11610064578063cc2a9a5b146104df578063f2fde38b146104ff578063f55f66511461051f578063f85920d81461053f576101cd565b8063bbab51661461045f578063be3781141461047f578063c7aa26281461049f578063ca51f664146104bf576101cd565b806397a10723116100d157806397a10723146103f1578063a6c131fb14610422578063ab54139814610442578063ab9269a514610457576101cd565b80638a4fa7f01461039a5780638f32d59b146103ba5780639499e018146103dc576101cd565b8063383da3631161016f5780635eeb2d881161013e5780635eeb2d881461032057806366fa5e85146103525780636c548134146103725780636de994c51461037a576101cd565b8063383da363146102a057806342f3cc5f146102c0578063554a75ca146102e05780635ed5207b14610300576101cd565b8063210870bb116101ab578063210870bb146102365780632600fc9b1461025857806327a5fe7e1461026b5780632e24a3ea1461028b576101cd565b806304a11de7146101d2578063175a2ead146101fd5780631abbc61014610221575b600080fd5b3480156101de57600080fd5b506101e7610552565b6040516101f49190614f68565b60405180910390f35b34801561020957600080fd5b506102126105df565b6040516101f493929190614fbb565b34801561022d57600080fd5b506101e761071a565b34801561024257600080fd5b50610256610251366004614689565b61075f565b005b6102566102663660046148ac565b6108cb565b34801561027757600080fd5b50610256610286366004614689565b610d51565b34801561029757600080fd5b506101e7610ea3565b3480156102ac57600080fd5b506102566102bb3660046148ac565b610ea9565b3480156102cc57600080fd5b506102566102db3660046145ec565b61142e565b3480156102ec57600080fd5b506102566102fb366004614689565b611991565b34801561030c57600080fd5b5061025661031b366004614689565b611ae1565b34801561032c57600080fd5b5061034061033b3660046148ac565b611c33565b6040516101f496959493929190614af9565b34801561035e57600080fd5b5061025661036d3660046148ac565b611cdd565b6102566121fa565b34801561038657600080fd5b506102566103953660046145ec565b6125a8565b3480156103a657600080fd5b506102566103b53660046148ac565b612707565b3480156103c657600080fd5b506103cf6129af565b6040516101f49190614a83565b3480156103e857600080fd5b506102566129c0565b3480156103fd57600080fd5b5061041161040c3660046148ac565b6129f8565b6040516101f4959493929190614aaf565b34801561042e57600080fd5b5061025661043d3660046146c1565b612a9d565b34801561044e57600080fd5b506101e7612ad3565b610256612ad9565b34801561046b57600080fd5b5061025661047a366004614689565b612f22565b34801561048b57600080fd5b5061025661049a3660046145ec565b613074565b3480156104ab57600080fd5b506102566104ba366004614689565b61353a565b3480156104cb57600080fd5b506102566104da3660046146f9565b61368c565b3480156104eb57600080fd5b506102566104fa366004614608565b6138fd565b34801561050b57600080fd5b5061025661051a3660046145ec565b613a9f565b34801561052b57600080fd5b5061025661053a3660046148ac565b613aeb565b61025661054d3660046148ac565b613d95565b6000600460009054906101000a90046001600160a01b03166001600160a01b031663fde0c4636040518163ffffffff1660e01b815260040160206040518083038186803b1580156105a257600080fd5b505afa1580156105b6573d6000803e3d6000fd5b505050506040513d601f19601f820116820180604052508101906105da91906148c4565b905090565b60075460405163775cbd8d60e01b81526000918291829133916001600160a01b039091169063775cbd8d906106189084906004016149ac565b60206040518083038186803b15801561063057600080fd5b505afa158015610644573d6000803e3d6000fd5b505050506040513d601f19601f8201168201806040525081019061066891906146dd565b61068d5760405162461bcd60e51b815260040161068490614e53565b60405180910390fd5b6007546040516321addc4d60e11b81526001600160a01b039091169063435bb89a906106bd9033906004016149ac565b60606040518083038186803b1580156106d557600080fd5b505afa1580156106e9573d6000803e3d6000fd5b505050506040513d601f19601f8201168201806040525081019061070d9190614926565b9195509350915050909192565b600554604080516332393eb760e21b815290516000926001600160a01b03169163c8e4fadc916004808301926020929190829003018186803b1580156105a257600080fd5b6000546001600160a01b031633146107895760405162461bcd60e51b815260040161068490614dee565b801561082d57600854604051632c388d5d60e01b81526001600160a01b0390911690632c388d5d906107bf9085906004016149ac565b600060405180830381600087803b1580156107d957600080fd5b505af11580156107ed573d6000803e3d6000fd5b505060085460405133935060008051602061511183398151915292506108209186916001600160a01b03909116906149c0565b60405180910390a26108c7565b60085460405163256462d760e11b81526001600160a01b0390911690634ac8c5ae9061085d9085906004016149ac565b600060405180830381600087803b15801561087757600080fd5b505af115801561088b573d6000803e3d6000fd5b505060085460405133935060008051602061513183398151915292506108be9186916001600160a01b03909116906149c0565b60405180910390a25b5050565b600054600160a01b900460ff166108f45760405162461bcd60e51b815260040161068490614efa565b600354604051633a4396cb60e01b815282916000916001600160a01b0390911690633a4396cb90610929908590600401614f68565b60006040518083038186803b15801561094157600080fd5b505afa158015610955573d6000803e3d6000fd5b505050506040513d6000823e601f3d908101601f1916820160405261097d9190810190614790565b50505050505050915050428167ffffffffffffffff16116109b05760405162461bcd60e51b815260040161068490614ccc565b600354604051633a4396cb60e01b815284916000916001600160a01b0390911690633a4396cb906109e5908590600401614f68565b60006040518083038186803b1580156109fd57600080fd5b505afa158015610a11573d6000803e3d6000fd5b505050506040513d6000823e601f3d908101601f19168201604052610a399190810190614790565b9850505050505050505080341015610a635760405162461bcd60e51b815260040161068490614bc4565b6000610a6f823461435b565b9050346000610b0482600360009054906101000a90046001600160a01b03166001600160a01b031663d48b06b86040518163ffffffff1660e01b815260040160206040518083038186803b158015610ac657600080fd5b505afa158015610ada573d6000803e3d6000fd5b505050506040513d601f19601f82011682018060405250810190610afe91906148c4565b9061436e565b90506000610b118261437a565b905047811115610b335760405162461bcd60e51b815260040161068490614d03565b600354604051633a4396cb60e01b815260009182916001600160a01b0390911690633a4396cb90610b68908e90600401614f68565b60006040518083038186803b158015610b8057600080fd5b505afa158015610b94573d6000803e3d6000fd5b505050506040513d6000823e601f3d908101601f19168201604052610bbc9190810190614790565b9850509750505050505050600360009054906101000a90046001600160a01b03166001600160a01b031663390fc413338d846040518463ffffffff1660e01b8152600401610c0c93929190614a62565b600060405180830381600087803b158015610c2657600080fd5b505af1158015610c3a573d6000803e3d6000fd5b50505050610c4781614416565b600354604080516317291e0560e11b815290516000926001600160a01b031691632e523c0a916004808301926020929190829003018186803b158015610c8c57600080fd5b505afa158015610ca0573d6000803e3d6000fd5b505050506040513d601f19601f82011682018060405250810190610cc491906148c4565b905080836001600160a01b0316336001600160a01b03167f92de6a95faf2432685c9d5eaf71891cadcf05e0b18ec223068412a8cb52ebb608f86604051610d0c929190614fad565b60405180910390a4505060405133945085156108fc02935085925090506000818181858888f19350505050158015610d48573d6000803e3d6000fd5b50505050505050565b6000546001600160a01b03163314610d7b5760405162461bcd60e51b815260040161068490614dee565b8015610e1257600354604051632c388d5d60e01b81526001600160a01b0390911690632c388d5d90610db19085906004016149ac565b600060405180830381600087803b158015610dcb57600080fd5b505af1158015610ddf573d6000803e3d6000fd5b505060035460405133935060008051602061511183398151915292506108209186916001600160a01b03909116906149c0565b60035460405163256462d760e11b81526001600160a01b0390911690634ac8c5ae90610e429085906004016149ac565b600060405180830381600087803b158015610e5c57600080fd5b505af1158015610e70573d6000803e3d6000fd5b505060035460405133935060008051602061513183398151915292506108be9186916001600160a01b03909116906149c0565b60015481565b600054600160a01b900460ff16610ed25760405162461bcd60e51b815260040161068490614efa565b6008546040516370a0823160e01b815233916000916001600160a01b03909116906370a0823190610f079085906004016149ac565b60206040518083038186803b158015610f1f57600080fd5b505afa158015610f33573d6000803e3d6000fd5b505050506040513d601f19601f82011682018060405250810190610f5791906148c4565b11610f745760405162461bcd60e51b815260040161068490614ec3565b600854604051631bb7b02160e11b81523391600091611002916001600160a01b03169063376f604290610fab9086906004016149ac565b60206040518083038186803b158015610fc357600080fd5b505afa158015610fd7573d6000803e3d6000fd5b505050506040513d601f19601f82011682018060405250810190610ffb91906148c4565b439061435b565b90506001548110156110265760405162461bcd60e51b815260040161068490614b82565b60055460405163086b7e0b60e21b8152339186916001600160a01b03909116906321adf82c9061105c9085908590600401614a49565b60206040518083038186803b15801561107457600080fd5b505afa158015611088573d6000803e3d6000fd5b505050506040513d601f19601f820116820180604052508101906110ac91906146dd565b156110c95760405162461bcd60e51b815260040161068490614e1c565b600554604051635d7eb9d360e11b81528791600091611100916001600160a01b03169063bafd73a690610fab908690600401614f68565b90506002548111156111245760405162461bcd60e51b815260040161068490614f31565b6005546008546040516370a0823160e01b81526001600160a01b039283169263785e7c10928c92339260019216906370a08231906111669085906004016149ac565b60206040518083038186803b15801561117e57600080fd5b505afa158015611192573d6000803e3d6000fd5b505050506040513d601f19601f820116820180604052508101906111b691906148c4565b6040518563ffffffff1660e01b81526004016111d59493929190614f71565b600060405180830381600087803b1580156111ef57600080fd5b505af1158015611203573d6000803e3d6000fd5b5050600554600092506001600160a01b0316905063b83c24be8a6001611227614503565b6040518463ffffffff1660e01b815260040161124593929190614f97565b60206040518083038186803b15801561125d57600080fd5b505afa158015611271573d6000803e3d6000fd5b505050506040513d601f19601f8201168201806040525081019061129591906146dd565b905080156113f55760055460405163020df34960e41b81526001600160a01b03909116906320df3490906112cd908c90600401614f68565b600060405180830381600087803b1580156112e757600080fd5b505af11580156112fb573d6000803e3d6000fd5b505050506000600560009054906101000a90046001600160a01b03166001600160a01b031663c8e4fadc6040518163ffffffff1660e01b815260040160206040518083038186803b15801561134f57600080fd5b505afa158015611363573d6000803e3d6000fd5b505050506040513d601f19601f8201168201806040525081019061138791906148c4565b60405190915033908b907f0450a2b5feaa1ee53edb36ef2d8854b1a508547d111e43b5b1ead1b090a5daa290600090a3897f1b454f919e7ff592d633a0d62845314e86de1463aa34dea4aab7c0ab6945a73d826040516113e79190614f68565b60405180910390a250611423565b60405133908a907f0450a2b5feaa1ee53edb36ef2d8854b1a508547d111e43b5b1ead1b090a5daa290600090a35b505050505050505050565b600054600160a01b900460ff166114575760405162461bcd60e51b815260040161068490614efa565b60065460405163d81bfa8960e01b815233916001600160a01b03169063d81bfa89906114879084906004016149ac565b60206040518083038186803b15801561149f57600080fd5b505afa1580156114b3573d6000803e3d6000fd5b505050506040513d601f19601f820116820180604052508101906114d791906146dd565b6114f35760405162461bcd60e51b815260040161068490614c81565b6008546040516370a0823160e01b815233916000916001600160a01b03909116906370a08231906115289085906004016149ac565b60206040518083038186803b15801561154057600080fd5b505afa158015611554573d6000803e3d6000fd5b505050506040513d601f19601f8201168201806040525081019061157891906148c4565b116115955760405162461bcd60e51b815260040161068490614ec3565b600854604051631bb7b02160e11b815233916000916115cc916001600160a01b03169063376f604290610fab9086906004016149ac565b90506001548110156115f05760405162461bcd60e51b815260040161068490614b82565b6006546040516283c70f60e31b8152339187916001600160a01b039091169063041e38789061162590849086906004016149c0565b60206040518083038186803b15801561163d57600080fd5b505afa158015611651573d6000803e3d6000fd5b505050506040513d601f19601f8201168201806040525081019061167591906146dd565b156116925760405162461bcd60e51b815260040161068490614e1c565b6006546008546040516370a0823160e01b81526001600160a01b0392831692637cd913159233928c92909116906370a08231906116d39085906004016149ac565b60206040518083038186803b1580156116eb57600080fd5b505afa1580156116ff573d6000803e3d6000fd5b505050506040513d601f19601f8201168201806040525081019061172391906148c4565b6040518463ffffffff1660e01b8152600401611741939291906149da565b600060405180830381600087803b15801561175b57600080fd5b505af115801561176f573d6000803e3d6000fd5b5050600654600092506001600160a01b0316905063c287a64860018a611793614503565b6040518463ffffffff1660e01b81526004016117b193929190614a8e565b60206040518083038186803b1580156117c957600080fd5b505afa1580156117dd573d6000803e3d6000fd5b505050506040513d601f19601f8201168201806040525081019061180191906146dd565b9050801561194d57600654604051636c66623d60e11b81526001600160a01b039091169063d8ccc47a90611839908b906004016149ac565b600060405180830381600087803b15801561185357600080fd5b505af1158015611867573d6000803e3d6000fd5b505050506000611875614590565b6008546040516340c10f1960e01b81529192506001600160a01b0316906340c10f19906118a8908c908590600401614a49565b600060405180830381600087803b1580156118c257600080fd5b505af11580156118d6573d6000803e3d6000fd5b50506040516001600160a01b038c1692506001915033907fa9d2bc6dc1b37950fdc57b26b1bcc905538ce9c54a8d46b9a043b61f61d84db990600090a46040516001600160a01b038a16907f5dbffd047c48d57a7d972a24d9fe3ced4753a2b27c6b277fc905b1607ab99afe90600090a250611987565b6040516001600160a01b0389169060019033907fa9d2bc6dc1b37950fdc57b26b1bcc905538ce9c54a8d46b9a043b61f61d84db990600090a45b5050505050505050565b6000546001600160a01b031633146119bb5760405162461bcd60e51b815260040161068490614dee565b8015611a515760048054604051632c388d5d60e01b81526001600160a01b0390911691632c388d5d916119f0918691016149ac565b600060405180830381600087803b158015611a0a57600080fd5b505af1158015611a1e573d6000803e3d6000fd5b505060045460405133935060008051602061511183398151915292506108209186916001600160a01b03909116906149c0565b6004805460405163256462d760e11b81526001600160a01b0390911691634ac8c5ae91611a80918691016149ac565b600060405180830381600087803b158015611a9a57600080fd5b505af1158015611aae573d6000803e3d6000fd5b505060045460405133935060008051602061513183398151915292506108be9186916001600160a01b03909116906149c0565b6000546001600160a01b03163314611b0b5760405162461bcd60e51b815260040161068490614dee565b8015611ba257600654604051632c388d5d60e01b81526001600160a01b0390911690632c388d5d90611b419085906004016149ac565b600060405180830381600087803b158015611b5b57600080fd5b505af1158015611b6f573d6000803e3d6000fd5b505060065460405133935060008051602061511183398151915292506108209186916001600160a01b03909116906149c0565b60065460405163256462d760e11b81526001600160a01b0390911690634ac8c5ae90611bd29085906004016149ac565b600060405180830381600087803b158015611bec57600080fd5b505af1158015611c00573d6000803e3d6000fd5b505060065460405133935060008051602061513183398151915292506108be9186916001600160a01b03909116906149c0565b600354604051633a4396cb60e01b815260609160009182918291829182916001600160a01b0390911690633a4396cb90611c71908a90600401614f68565b60006040518083038186803b158015611c8957600080fd5b505afa158015611c9d573d6000803e3d6000fd5b505050506040513d6000823e601f3d908101601f19168201604052611cc59190810190614790565b50969e939d50919b5099509750929550919350505050565b600054600160a01b900460ff16611d065760405162461bcd60e51b815260040161068490614efa565b6008546040516370a0823160e01b815233916000916001600160a01b03909116906370a0823190611d3b9085906004016149ac565b60206040518083038186803b158015611d5357600080fd5b505afa158015611d67573d6000803e3d6000fd5b505050506040513d601f19601f82011682018060405250810190611d8b91906148c4565b11611da85760405162461bcd60e51b815260040161068490614ec3565b600854604051631bb7b02160e11b81523391600091611ddf916001600160a01b03169063376f604290610fab9086906004016149ac565b9050600154811015611e035760405162461bcd60e51b815260040161068490614b82565b6004805460405163a49854d960e01b8152339287926001600160a01b03169163a49854d991611e36918691869101614a49565b60206040518083038186803b158015611e4e57600080fd5b505afa158015611e62573d6000803e3d6000fd5b505050506040513d601f19601f82011682018060405250810190611e8691906146dd565b15611ea35760405162461bcd60e51b815260040161068490614e1c565b600554604051635d7eb9d360e11b81528791600091611eda916001600160a01b03169063bafd73a690610fab908690600401614f68565b9050600254811115611efe5760405162461bcd60e51b815260040161068490614f31565b600480546008546040516370a0823160e01b81526001600160a01b0392831693632cb1feed938d93339360019391909216916370a0823191611f42918691016149ac565b60206040518083038186803b158015611f5a57600080fd5b505afa158015611f6e573d6000803e3d6000fd5b505050506040513d601f19601f82011682018060405250810190611f9291906148c4565b6040518563ffffffff1660e01b8152600401611fb19493929190614f71565b600060405180830381600087803b158015611fcb57600080fd5b505af1158015611fdf573d6000803e3d6000fd5b5050600454600092506001600160a01b0316905063a0aea5e08a6001612003614503565b6040518463ffffffff1660e01b815260040161202193929190614f97565b60206040518083038186803b15801561203957600080fd5b505afa15801561204d573d6000803e3d6000fd5b505050506040513d601f19601f8201168201806040525081019061207191906146dd565b905080156121c257600480546040516325c613fd60e11b81526001600160a01b0390911691634b8c27fa916120a8918d9101614f68565b600060405180830381600087803b1580156120c257600080fd5b505af11580156120d6573d6000803e3d6000fd5b505050506000600460009054906101000a90046001600160a01b03166001600160a01b031663fde0c4636040518163ffffffff1660e01b815260040160206040518083038186803b15801561212a57600080fd5b505afa15801561213e573d6000803e3d6000fd5b505050506040513d601f19601f8201168201806040525081019061216291906148c4565b60405190915033908b907f7906920cd6c70de2c0c6380adfa74d93af1ff8f5e5b03d1605194fef988add7990600090a3897f13d4caf5982979691a014920086fb5cac4da0ce48f86c7b4c0d0cadbef27fae4826040516113e79190614f68565b60405133908a907f7906920cd6c70de2c0c6380adfa74d93af1ff8f5e5b03d1605194fef988add7990600090a3505050505050505050565b600054600160a01b900460ff166122235760405162461bcd60e51b815260040161068490614efa565b600554604080516332393eb760e21b815290516000926001600160a01b03169163c8e4fadc916004808301926020929190829003018186803b15801561226857600080fd5b505afa15801561227c573d6000803e3d6000fd5b505050506040513d601f19601f820116820180604052508101906122a091906148c4565b9050803410156122c25760405162461bcd60e51b815260040161068490614b4b565b803411156123575760006122d6348361435b565b90506000336001600160a01b0316826040516122f1906149a9565b60006040518083038185875af1925050503d806000811461232e576040519150601f19603f3d011682016040523d82523d6000602084013e612333565b606091505b50509050806123545760405162461bcd60e51b815260040161068490614e9a565b50505b60075460405163316b047d60e01b81526001600160a01b039091169063316b047d906123879033906004016149ac565b600060405180830381600087803b1580156123a157600080fd5b505af11580156123b5573d6000803e3d6000fd5b505050506000600760009054906101000a90046001600160a01b03166001600160a01b03166356c589de6040518163ffffffff1660e01b815260040160206040518083038186803b15801561240957600080fd5b505afa15801561241d573d6000803e3d6000fd5b505050506040513d601f19601f8201168201806040525081019061244191906148c4565b90506005811015612579576007546040516324f5341760e21b81526001600160a01b03909116906393d4d05c9061247c9033906004016149ac565b600060405180830381600087803b15801561249657600080fd5b505af11580156124aa573d6000803e3d6000fd5b5050505060006124b8614590565b6008546040516340c10f1960e01b81529192506001600160a01b0316906340c10f19906124eb9033908590600401614a49565b600060405180830381600087803b15801561250557600080fd5b505af1158015612519573d6000803e3d6000fd5b50506040513392507f0418be85575ebac30df5dffbfd641fbbdaafb2b1806fc3637eb7062a70bed9329150600090a260405133907f5e06803b8b6ec4a58bfd8973f079830b31cbb81e939420c22febecc8acdb3f8d90600090a2506108c7565b60405133907f0418be85575ebac30df5dffbfd641fbbdaafb2b1806fc3637eb7062a70bed93290600090a25050565b600054600160a01b900460ff166125d15760405162461bcd60e51b815260040161068490614efa565b60065460405163d81bfa8960e01b815233916001600160a01b03169063d81bfa89906126019084906004016149ac565b60206040518083038186803b15801561261957600080fd5b505afa15801561262d573d6000803e3d6000fd5b505050506040513d601f19601f8201168201806040525081019061265191906146dd565b61266d5760405162461bcd60e51b815260040161068490614c81565b600654604051635a2449a960e01b81526001600160a01b0390911690635a2449a99061269d9085906004016149ac565b600060405180830381600087803b1580156126b757600080fd5b505af11580156126cb573d6000803e3d6000fd5b50506040516001600160a01b03851692507fcfbd886b9409cf70d4b4a060d1e556397e323b33a7000b106b281cc43b0c26419150600090a25050565b600054600160a01b900460ff166127305760405162461bcd60e51b815260040161068490614efa565b6008546040516370a0823160e01b815233916000916001600160a01b03909116906370a08231906127659085906004016149ac565b60206040518083038186803b15801561277d57600080fd5b505afa158015612791573d6000803e3d6000fd5b505050506040513d601f19601f820116820180604052508101906127b591906148c4565b116127d25760405162461bcd60e51b815260040161068490614ec3565b600480546008546040516370a0823160e01b81526001600160a01b0392831693637f2020c793339388939116916370a0823191612811918691016149ac565b60206040518083038186803b15801561282957600080fd5b505afa15801561283d573d6000803e3d6000fd5b505050506040513d601f19601f8201168201806040525081019061286191906148c4565b6040518463ffffffff1660e01b815260040161287f93929190614a62565b600060405180830381600087803b15801561289957600080fd5b505af11580156128ad573d6000803e3d6000fd5b505050506000600460009054906101000a90046001600160a01b03166001600160a01b0316630b0c98686040518163ffffffff1660e01b815260040160206040518083038186803b15801561290157600080fd5b505afa158015612915573d6000803e3d6000fd5b505050506040513d601f19601f8201168201806040525081019061293991906148c4565b9050336001600160a01b0316817f455712cb79d839f8ca6a0ab7a15765738906c98f331d0ee1fff1ff591550f2b6856040516129759190614f68565b60405180910390a3604051339082907f7906920cd6c70de2c0c6380adfa74d93af1ff8f5e5b03d1605194fef988add7990600090a3505050565b6000546001600160a01b0316331490565b6000546001600160a01b031633146129ea5760405162461bcd60e51b815260040161068490614dee565b6000546001600160a01b0316ff5b600354604051633a4396cb60e01b81526060916000918291829182916001600160a01b031690633a4396cb90612a32908990600401614f68565b60006040518083038186803b158015612a4a57600080fd5b505afa158015612a5e573d6000803e3d6000fd5b505050506040513d6000823e601f3d908101601f19168201604052612a869190810190614790565b979e969d50949b5099509497509295505050505050565b6000546001600160a01b03163314612ac75760405162461bcd60e51b815260040161068490614dee565b612ad081614595565b50565b60025481565b60065460405163199b5a6b60e31b815233916001600160a01b03169063ccdad35890612b099084906004016149ac565b60206040518083038186803b158015612b2157600080fd5b505afa158015612b35573d6000803e3d6000fd5b505050506040513d601f19601f82011682018060405250810190612b5991906146dd565b612b755760405162461bcd60e51b815260040161068490614c40565b600554604080516332393eb760e21b815290516000926001600160a01b03169163c8e4fadc916004808301926020929190829003018186803b158015612bba57600080fd5b505afa158015612bce573d6000803e3d6000fd5b505050506040513d601f19601f82011682018060405250810190612bf291906148c4565b905080341015612c145760405162461bcd60e51b815260040161068490614b4b565b80341115612ca9576000612c28348361435b565b90506000336001600160a01b031682604051612c43906149a9565b60006040518083038185875af1925050503d8060008114612c80576040519150601f19603f3d011682016040523d82523d6000602084013e612c85565b606091505b5050905080612ca65760405162461bcd60e51b815260040161068490614e9a565b50505b600554604080516332393eb760e21b815290516000926001600160a01b03169163c8e4fadc916004808301926020929190829003018186803b158015612cee57600080fd5b505afa158015612d02573d6000803e3d6000fd5b505050506040513d601f19601f82011682018060405250810190612d2691906148c4565b600654604051639419701b60e01b81529192506001600160a01b031690639419701b90612d599033908590600401614a49565b600060405180830381600087803b158015612d7357600080fd5b505af1158015612d87573d6000803e3d6000fd5b505050506000600660009054906101000a90046001600160a01b03166001600160a01b0316632dfa077c6040518163ffffffff1660e01b815260040160206040518083038186803b158015612ddb57600080fd5b505afa158015612def573d6000803e3d6000fd5b505050506040513d601f19601f82011682018060405250810190612e1391906148c4565b90506005811015612f1c57600654604051636c66623d60e11b81526001600160a01b039091169063d8ccc47a90612e4e9033906004016149ac565b600060405180830381600087803b158015612e6857600080fd5b505af1158015612e7c573d6000803e3d6000fd5b505050506000612e8a614590565b6008546040516340c10f1960e01b81529192506001600160a01b0316906340c10f1990612ebd9033908590600401614a49565b600060405180830381600087803b158015612ed757600080fd5b505af1158015612eeb573d6000803e3d6000fd5b50506040513392507f5dbffd047c48d57a7d972a24d9fe3ced4753a2b27c6b277fc905b1607ab99afe9150600090a2505b50505050565b6000546001600160a01b03163314612f4c5760405162461bcd60e51b815260040161068490614dee565b8015612fe357600554604051632c388d5d60e01b81526001600160a01b0390911690632c388d5d90612f829085906004016149ac565b600060405180830381600087803b158015612f9c57600080fd5b505af1158015612fb0573d6000803e3d6000fd5b505060055460405133935060008051602061511183398151915292506108209186916001600160a01b03909116906149c0565b60055460405163256462d760e11b81526001600160a01b0390911690634ac8c5ae906130139085906004016149ac565b600060405180830381600087803b15801561302d57600080fd5b505af1158015613041573d6000803e3d6000fd5b505060055460405133935060008051602061513183398151915292506108be9186916001600160a01b03909116906149c0565b600054600160a01b900460ff1661309d5760405162461bcd60e51b815260040161068490614efa565b6008546040516370a0823160e01b815233916000916001600160a01b03909116906370a08231906130d29085906004016149ac565b60206040518083038186803b1580156130ea57600080fd5b505afa1580156130fe573d6000803e3d6000fd5b505050506040513d601f19601f8201168201806040525081019061312291906148c4565b1161313f5760405162461bcd60e51b815260040161068490614ec3565b600854604051631bb7b02160e11b81523391600091613176916001600160a01b03169063376f604290610fab9086906004016149ac565b905060015481101561319a5760405162461bcd60e51b815260040161068490614b82565b60075460405163614c2bd360e11b8152339186916001600160a01b039091169063c29857a6906131d090849086906004016149c0565b60206040518083038186803b1580156131e857600080fd5b505afa1580156131fc573d6000803e3d6000fd5b505050506040513d601f19601f8201168201806040525081019061322091906146dd565b1561323d5760405162461bcd60e51b815260040161068490614e1c565b6007546008546040516370a0823160e01b81526001600160a01b0392831692636ba155b19233928b92909116906370a082319061327e9085906004016149ac565b60206040518083038186803b15801561329657600080fd5b505afa1580156132aa573d6000803e3d6000fd5b505050506040513d601f19601f820116820180604052508101906132ce91906148c4565b6040518463ffffffff1660e01b81526004016132ec939291906149da565b600060405180830381600087803b15801561330657600080fd5b505af115801561331a573d6000803e3d6000fd5b5050600754600092506001600160a01b0316905063f0a5870860018961333e614503565b6040518463ffffffff1660e01b815260040161335c93929190614a8e565b60206040518083038186803b15801561337457600080fd5b505afa158015613388573d6000803e3d6000fd5b505050506040513d601f19601f820116820180604052508101906133ac91906146dd565b905080156134f8576007546040516324f5341760e21b81526001600160a01b03909116906393d4d05c906133e4908a906004016149ac565b600060405180830381600087803b1580156133fe57600080fd5b505af1158015613412573d6000803e3d6000fd5b505050506000613420614590565b6008546040516340c10f1960e01b81529192506001600160a01b0316906340c10f1990613453908b908590600401614a49565b600060405180830381600087803b15801561346d57600080fd5b505af1158015613481573d6000803e3d6000fd5b50506040516001600160a01b038b1692506001915033907f1b3fee018a3b7e52d087ea8e3f391b759e9e934802971c8f99e51ffdcb27d44490600090a46040516001600160a01b038916907f5e06803b8b6ec4a58bfd8973f079830b31cbb81e939420c22febecc8acdb3f8d90600090a250610d48565b6040516001600160a01b0388169060019033907f1b3fee018a3b7e52d087ea8e3f391b759e9e934802971c8f99e51ffdcb27d44490600090a450505050505050565b6000546001600160a01b031633146135645760405162461bcd60e51b815260040161068490614dee565b80156135fb57600754604051632c388d5d60e01b81526001600160a01b0390911690632c388d5d9061359a9085906004016149ac565b600060405180830381600087803b1580156135b457600080fd5b505af11580156135c8573d6000803e3d6000fd5b505060075460405133935060008051602061511183398151915292506108209186916001600160a01b03909116906149c0565b60075460405163256462d760e11b81526001600160a01b0390911690634ac8c5ae9061362b9085906004016149ac565b600060405180830381600087803b15801561364557600080fd5b505af1158015613659573d6000803e3d6000fd5b505060075460405133935060008051602061513183398151915292506108be9186916001600160a01b03909116906149c0565b600054600160a01b900460ff166136b55760405162461bcd60e51b815260040161068490614efa565b60065460405163d81bfa8960e01b815233916001600160a01b03169063d81bfa89906136e59084906004016149ac565b60206040518083038186803b1580156136fd57600080fd5b505afa158015613711573d6000803e3d6000fd5b505050506040513d601f19601f8201168201806040525081019061373591906146dd565b6137515760405162461bcd60e51b815260040161068490614c81565b8367ffffffffffffffff168367ffffffffffffffff1683428311801561377657504282115b801561378157508282115b80156137955750670de0b6b3a76400008111155b6137b15760405162461bcd60e51b815260040161068490614d93565b6003546040516351457a7960e01b81526001600160a01b03909116906351457a79906137eb9033908d908d908d908d908d906004016149fe565b600060405180830381600087803b15801561380557600080fd5b505af1158015613819573d6000803e3d6000fd5b505050506000600360009054906101000a90046001600160a01b03166001600160a01b0316637cae395c6040518163ffffffff1660e01b815260040160206040518083038186803b15801561386d57600080fd5b505afa158015613881573d6000803e3d6000fd5b505050506040513d601f19601f820116820180604052508101906138a591906148c4565b9050336001600160a01b0316817f67cabf62aee63d11db89c260f398a37186342310f4a0df30da1341719878147a8a8a8e8e8c6040516138e9959493929190614fd1565b60405180910390a350505050505050505050565b6000546001600160a01b031633146139275760405162461bcd60e51b815260040161068490614dee565b600380546001600160a01b03199081166001600160a01b038981169190911790925560048054821688841617815560058054831688851617905560068054831687851617908190556007805484168786161790556008805490931685851617909255604051635a2449a960e01b81529190921691635a2449a9916139ad913391016149ac565b600060405180830381600087803b1580156139c757600080fd5b505af11580156139db573d6000803e3d6000fd5b5050600654604051636c66623d60e11b81526001600160a01b03909116925063d8ccc47a9150613a0f9033906004016149ac565b600060405180830381600087803b158015613a2957600080fd5b505af1158015613a3d573d6000803e3d6000fd5b50506040513392507fcfbd886b9409cf70d4b4a060d1e556397e323b33a7000b106b281cc43b0c26419150600090a260405133907f5dbffd047c48d57a7d972a24d9fe3ced4753a2b27c6b277fc905b1607ab99afe90600090a2505050505050565b6000546001600160a01b03163314613ac95760405162461bcd60e51b815260040161068490614dee565b600080546001600160a01b0319166001600160a01b0392909216919091179055565b600054600160a01b900460ff16613b145760405162461bcd60e51b815260040161068490614efa565b6008546040516370a0823160e01b815233916000916001600160a01b03909116906370a0823190613b499085906004016149ac565b60206040518083038186803b158015613b6157600080fd5b505afa158015613b75573d6000803e3d6000fd5b505050506040513d601f19601f82011682018060405250810190613b9991906148c4565b11613bb65760405162461bcd60e51b815260040161068490614ec3565b6005546008546040516370a0823160e01b81526001600160a01b039283169263fb0a33459233928792909116906370a0823190613bf79085906004016149ac565b60206040518083038186803b158015613c0f57600080fd5b505afa158015613c23573d6000803e3d6000fd5b505050506040513d601f19601f82011682018060405250810190613c4791906148c4565b6040518463ffffffff1660e01b8152600401613c6593929190614a62565b600060405180830381600087803b158015613c7f57600080fd5b505af1158015613c93573d6000803e3d6000fd5b505050506000600560009054906101000a90046001600160a01b03166001600160a01b031663ca5c1b4f6040518163ffffffff1660e01b815260040160206040518083038186803b158015613ce757600080fd5b505afa158015613cfb573d6000803e3d6000fd5b505050506040513d601f19601f82011682018060405250810190613d1f91906148c4565b9050336001600160a01b0316817f35f1d4a02bce65638da910c669076031fb59178f55931d6d2f1a8a035e382f9985604051613d5b9190614f68565b60405180910390a3604051339082907f0450a2b5feaa1ee53edb36ef2d8854b1a508547d111e43b5b1ead1b090a5daa290600090a3505050565b600054600160a01b900460ff16613dbe5760405162461bcd60e51b815260040161068490614efa565b6003546040516342fd730160e11b815282916000916001600160a01b03909116906385fae60290613df3908590600401614f68565b60806040518083038186803b158015613e0b57600080fd5b505afa158015613e1f573d6000803e3d6000fd5b505050506040513d601f19601f82011682018060405250810190613e4391906148dc565b5050600354604051633a4396cb60e01b81529293506000926001600160a01b039091169150633a4396cb90613e7c908590600401614f68565b60006040518083038186803b158015613e9457600080fd5b505afa158015613ea8573d6000803e3d6000fd5b505050506040513d6000823e601f3d908101601f19168201604052613ed09190810190614790565b5050509550505050505080613ef75760405162461bcd60e51b815260040161068490614dc1565b6003546040516342fd730160e11b815285916000916001600160a01b03909116906385fae60290613f2c908590600401614f68565b60806040518083038186803b158015613f4457600080fd5b505afa158015613f58573d6000803e3d6000fd5b505050506040513d601f19601f82011682018060405250810190613f7c91906148dc565b50925050506001600160a01b0381163314613fa95760405162461bcd60e51b815260040161068490614c09565b6003546040516342fd730160e11b815287916000916001600160a01b03909116906385fae60290613fde908590600401614f68565b60806040518083038186803b158015613ff657600080fd5b505afa15801561400a573d6000803e3d6000fd5b505050506040513d601f19601f8201168201806040525081019061402e91906148dc565b935050505080156140515760405162461bcd60e51b815260040161068490614d4f565b6003546040516342fd730160e11b815260009182916001600160a01b03909116906385fae60290614086908d90600401614f68565b60806040518083038186803b15801561409e57600080fd5b505afa1580156140b2573d6000803e3d6000fd5b505050506040513d601f19601f820116820180604052508101906140d691906148dc565b5050600354604051633a4396cb60e01b81529294509092506000916001600160a01b0390911690633a4396cb90614111908690600401614f68565b60006040518083038186803b15801561412957600080fd5b505afa15801561413d573d6000803e3d6000fd5b505050506040513d6000823e601f3d908101601f191682016040526141659190810190614790565b50509650505050505050600360009054906101000a90046001600160a01b03166001600160a01b03166326b517468c6040518263ffffffff1660e01b81526004016141b09190614f68565b600060405180830381600087803b1580156141ca57600080fd5b505af11580156141de573d6000803e3d6000fd5b505060035460408051631a9160d760e31b815290516001600160a01b039092169350630b3377159250614273918691859163d48b06b891600480820192602092909190829003018186803b15801561423557600080fd5b505afa158015614249573d6000803e3d6000fd5b505050506040513d601f19601f8201168201806040525081019061426d91906148c4565b9061435b565b6040518263ffffffff1660e01b815260040161428f9190614f68565b600060405180830381600087803b1580156142a957600080fd5b505af11580156142bd573d6000803e3d6000fd5b50505050336001600160a01b03166108fc6142d78461437a565b6040518115909202916000818181858888f193505050501580156142ff573d6000803e3d6000fd5b5082816001600160a01b0316336001600160a01b03167f8bcc9e02955c4d671e14fe3bd5031c47f36b1591d090a4c7df99aa82d830d783858f604051614346929190614fad565b60405180910390a45050505050505050505050565b60006143678284615068565b9392505050565b60006143678284615011565b600480546040805163fde0c46360e01b8152905160009384936001600160a01b03169263fde0c4639281830192602092829003018186803b1580156143be57600080fd5b505afa1580156143d2573d6000803e3d6000fd5b505050506040513d601f19601f820116820180604052508101906143f691906148c4565b905061440d606461440785846145b3565b906145bf565b9150505b919050565b60035460408051631a9160d760e31b815290516000926001600160a01b03169163d48b06b8916004808301926020929190829003018186803b15801561445b57600080fd5b505afa15801561446f573d6000803e3d6000fd5b505050506040513d601f19601f8201168201806040525081019061449391906148c4565b6003549091506001600160a01b0316630b3377156144b1838561436e565b6040518263ffffffff1660e01b81526004016144cd9190614f68565b600060405180830381600087803b1580156144e757600080fd5b505af11580156144fb573d6000803e3d6000fd5b505050505050565b60006105da6002600860009054906101000a90046001600160a01b03166001600160a01b03166318160ddd6040518163ffffffff1660e01b815260040160206040518083038186803b15801561455857600080fd5b505afa15801561456c573d6000803e3d6000fd5b505050506040513d601f19601f8201168201806040525081019061440791906148c4565b600190565b60008054911515600160a01b0260ff60a01b19909216919091179055565b60006143678284615049565b60006143678284615029565b8051614411816150d7565b8051614411816150ec565b8051614411816150fa565b6000602082840312156145fd578081fd5b8135614367816150d7565b60008060008060008060c08789031215614620578182fd5b863561462b816150d7565b9550602087013561463b816150d7565b9450604087013561464b816150d7565b9350606087013561465b816150d7565b9250608087013561466b816150d7565b915060a087013561467b816150d7565b809150509295509295509295565b6000806040838503121561469b578182fd5b82356146a6816150d7565b915060208301356146b6816150ec565b809150509250929050565b6000602082840312156146d2578081fd5b8135614367816150ec565b6000602082840312156146ee578081fd5b8151614367816150ec565b600080600080600060808688031215614710578081fd5b853567ffffffffffffffff80821115614727578283fd5b818801915088601f83011261473a578283fd5b813581811115614748578384fd5b896020828501011115614759578384fd5b6020928301975095505086013561476f816150fa565b9250604086013561477f816150fa565b949793965091946060013592915050565b60008060008060008060008060006101208a8c0312156147ae578283fd5b895167ffffffffffffffff808211156147c5578485fd5b818c0191508c601f8301126147d8578485fd5b8151818111156147ea576147ea6150c1565b604051601f8201601f19168101602001838111828210171561480e5761480e6150c1565b6040528181528382016020018f1015614825578687fd5b61483682602083016020870161507f565b9b506148489250505060208b016145e1565b975061485660408b016145e1565b965061486460608b016145e1565b955061487260808b016145e1565b945061488060a08b016145d6565b935061488e60c08b016145cb565b925060e08a015191506101008a015190509295985092959850929598565b6000602082840312156148bd578081fd5b5035919050565b6000602082840312156148d5578081fd5b5051919050565b600080600080608085870312156148f1578384fd5b8451935060208501519250604085015161490a816150d7565b606086015190925061491b816150ec565b939692955090935050565b60008060006060848603121561493a578081fd5b8351925060208401519150604084015190509250925092565b60008284528282602086013780602084860101526020601f19601f85011685010190509392505050565b6000815180845261499581602086016020860161507f565b601f01601f19169290920160200192915050565b90565b6001600160a01b0391909116815260200190565b6001600160a01b0392831681529116602082015260400190565b6001600160a01b039384168152919092166020820152604081019190915260600190565b6001600160a01b038716815260a060208201819052600090614a239083018789614953565b67ffffffffffffffff958616604084015293909416606082015260800152949350505050565b6001600160a01b03929092168252602082015260400190565b6001600160a01b039390931683526020830191909152604082015260600190565b901515815260200190565b92151583526001600160a01b03919091166020830152604082015260600190565b600060a08252614ac260a083018861497d565b67ffffffffffffffff96871660208401529490951660408201526001600160a01b0392909216606083015260809091015292915050565b600060c08252614b0c60c083018961497d565b67ffffffffffffffff978816602084015295909616604082015292151560608401526001600160a01b0391909116608083015260a09091015292915050565b6020808252601e908201527f696e636f7272656374206665652073656e7420746f20636f6e74726163740000604082015260600190565b60208082526022908201527f63616c6c6572206d75737420626520616e206f6c6420746f6b656e20686f6c6460408201526132b960f11b606082015260800190565b60208082526025908201527f73656e742076616c756520646f6573206e6f74206d6174636820666c69676874604082015264207261746560d81b606082015260800190565b6020808252601e908201527f63616c6c6572206d75737420626520696e737572616e6365206f776e65720000604082015260600190565b60208082526021908201527f63616c6c6572206d75737420626520696e737572616e63652070726f766964656040820152603960f91b606082015260800190565b6020808252602b908201527f63616c6c6572206d7573742062652061637469766174656420696e737572616e60408201526a31b290383937bb34b232b960a91b606082015260800190565b6020808252601f908201527f666c6967687420646570617274757265206d7573742062652066757475726500604082015260600190565b6020808252602c908201527f63757272656e742066756e6473206d75737420636f766572206e657720696e7360408201526b7572616e63652076616c756560a01b606082015260800190565b60208082526024908201527f696e737572616e6365206d757374206e6f742068617665206265656e20636c616040820152631a5b595960e21b606082015260800190565b602080825260149082015273199b1a59da1d081b5d5cdd081899481d985b1a5960621b604082015260600190565b602080825260139082015272666c69676874206d757374206265206c61746560681b604082015260600190565b60208082526014908201527331b0b63632b91036bab9ba1031329037bbb732b960611b604082015260600190565b60208082526018908201527f63616c6c65722068617320616c726561647920766f7465640000000000000000604082015260600190565b60208082526027908201527f63616c6c6572206973206e6f7420616374697661746564206f7261636c6520706040820152663937bb34b232b960c91b606082015260800190565b6020808252600f908201526e1d1c985b9cd9995c8819985a5b1959608a1b604082015260600190565b6020808252601b908201527f63616c6c6572206d75737420626520746f6b656e20686f6c6465720000000000604082015260600190565b6020808252601d908201527f636f6e7472616374206d757374206265206f7065726174696f6e6e616c000000604082015260600190565b6020808252601b908201527f766f74696e672070726f706f73616c2068617320657870697265640000000000604082015260600190565b90815260200190565b9384526001600160a01b0392909216602084015215156040830152606082015260800190565b9283529015156020830152604082015260600190565b918252602082015260400190565b9283526020830191909152604082015260600190565b600067ffffffffffffffff808816835280871660208401525060806040830152614fff608083018587614953565b90508260608301529695505050505050565b60008219821115615024576150246150ab565b500190565b60008261504457634e487b7160e01b81526012600452602481fd5b500490565b6000816000190483118215151615615063576150636150ab565b500290565b60008282101561507a5761507a6150ab565b500390565b60005b8381101561509a578181015183820152602001615082565b83811115612f1c5750506000910152565b634e487b7160e01b600052601160045260246000fd5b634e487b7160e01b600052604160045260246000fd5b6001600160a01b0381168114612ad057600080fd5b8015158114612ad057600080fd5b67ffffffffffffffff81168114612ad057600080fdfe49162bd91fa9e98bc15e1a54c488b20acf9a442cfd08a398bbdd552db92e98e7eefee6ee18d218075d0332898b2f8dbd4d9d18666bb47b86fd5bb8ddf7b188c0a264697066735822122020f279bbc7624d7ae955fe8257e4bbb84e7b0bc60b5b38676b974fb4b77b272c64736f6c63430008000033",
  "immutableReferences": {},
  "source": "// SPDX-License-Identifier: UNLICENSED\npragma solidity ^0.8.00;\n\nimport \"./interfaces/IFlightSuretyData.sol\";\nimport \"./interfaces/IInsuranceCoverageAmendmentProposal.sol\";\nimport \"./interfaces/IMembershipFeeAmendmentProposal.sol\";\nimport \"./interfaces/IInsuranceProviderRole.sol\";\nimport \"./interfaces/IOracleProviderRole.sol\";\nimport \"./interfaces/IFlightSuretyOracle.sol\";\nimport \"./interfaces/IFlightSuretyShares.sol\";\nimport \"../Ownable/Ownable.sol\";\nimport \"../Pausable/Pausable.sol\";\nimport \"@openzeppelin/contracts/utils/math/SafeMath.sol\";\n\ncontract FlightSuretyApp is Ownable, Pausable {\n    using SafeMath for uint256;\n    // insurance providers related events\n    event RegisteredInsuranceProvider(address indexed insuranceProvider);\n    event ActivatedInsuranceProvider(address indexed insuranceProvider);\n    event RemovedInsuranceProvider(address indexed insuranceProvider);\n    event NewVoteInsuranceProvider(\n        address indexed voter,\n        bool indexed side,\n        address indexed votee\n    );\n\n    // oracle providers related events\n    event RegisteredOracleProvider(address indexed oracleProvider);\n    event ActivatedOracleProvider(address indexed oracleProvider);\n    event RemovedOracleProvider(address indexed oracleProvider);\n    event NewVoteOracleProvider(\n        address indexed voter,\n        bool indexed side,\n        address indexed votee\n    );\n\n    // flights related events\n    event NewFlight(\n        uint256 indexed flightID,\n        address indexed insuranceProvider,\n        uint256 estimatedDeparture,\n        uint256 estimatedArrival,\n        string flightRef,\n        uint256 rate\n    );\n\n    // insurances related events\n    event NewInsurance(\n        address indexed passenger,\n        address indexed insuranceProvider,\n        uint256 indexed insuranceID,\n        uint256 flightID,\n        uint256 insuredValue\n    );\n\n    event NewPayout(\n        address indexed owner,\n        address indexed insuranceProvider,\n        uint256 indexed flightID,\n        uint256 insuredValue,\n        uint256 insuranceID\n    );\n\n    // settings amendment proposal related events\n    event NewMembershipFeeAmendmentProposal(\n        uint256 indexed proposalID,\n        address indexed caller,\n        uint256 proposedMembershipFee\n    );\n    event NewVoteMembershipFeeAmendmentProposal(\n        uint256 indexed proposalID,\n        address indexed voter\n    );\n    event ActivatedMembershipFeeAmendmentProposal(\n        uint256 indexed proposalID,\n        uint256 lockedMembershipFee\n    );\n    event NewInsuranceCoverageAmendmentProposal(\n        uint256 indexed proposalID,\n        address indexed caller,\n        uint256 insuranceCoverage\n    );\n    event ActivatedInsuranceCoverageAmendmentProposal(\n        uint256 indexed proposalID,\n        uint256 insuranceCoverage\n    );\n    event NewVoteInsuranceCoverageAmendmentProposal(\n        uint256 indexed proposalID,\n        address indexed voter\n    );\n\n    // authorize caller related events\n    event AuthorizedCaller(\n        address indexed contractOwner,\n        address caller,\n        address contractAddress\n    );\n    event UnauthorizedCaller(\n        address indexed contractOwner,\n        address caller,\n        address contractAddress\n    );\n\n    // public contract settings to set constraint to user vote in general\n    uint256 public tokenHolderMinBlockRequirement;\n    // public contract setting to set constraint on user proposal vote\n    uint256 public proposalValidBlockNum;\n\n    IFlightSuretyData flightSuretyData;\n    IInsuranceCoverageAmendmentProposal insuranceCoverageAmendmentProposal;\n    IMembershipFeeAmendmentProposal membershipFeeAmendmentProposal;\n    IInsuranceProviderRole insuranceProviderRole;\n    IOracleProviderRole oracleProviderRole;\n    IFlightSuretyShares flightSuretyShares;\n\n    // settings amendment proposals related checks\n\n    modifier requireTokenHolderHasNotVotedInsuranceCoverageAmendmentProposal(\n        address _caller,\n        uint256 _proposalID\n    ) {\n        require(\n            !insuranceCoverageAmendmentProposal\n                .hasVotedInsuranceCoverageAmendmentProposal(\n                    _caller,\n                    _proposalID\n                ),\n            \"caller has already voted\"\n        );\n        _;\n    }\n\n    modifier requireTokenHolderHasNotVotedMembershipFeeAmendmentProposal(\n        address _caller,\n        uint256 _proposalID\n    ) {\n        require(\n            !membershipFeeAmendmentProposal\n                .hasVotedMembershipFeeAmendmentProposal(_caller, _proposalID),\n            \"caller has already voted\"\n        );\n        _;\n    }\n\n    modifier requireProposalIsActive(uint256 proposalID) {\n        uint256 elapsedBlock = block.number.sub(\n            membershipFeeAmendmentProposal.getProposalCreatedAt(proposalID)\n        );\n        require(\n            elapsedBlock <= proposalValidBlockNum,\n            \"voting proposal has expired\"\n        );\n        _;\n    }\n\n    // flights related checks\n\n    modifier requireValidFlight(\n        uint256 estimatedDeparture,\n        uint256 estimatedArrival,\n        uint256 rate\n    ) {\n        require(\n            estimatedDeparture > block.timestamp &&\n                estimatedArrival > block.timestamp &&\n                estimatedArrival > estimatedDeparture &&\n                rate <= 1 ether,\n            \"flight must be valid\"\n        );\n        _;\n    }\n\n    // insurances related checks\n\n    modifier requireMessageValueGreatherOrEqualToFlightRate(uint256 _flightID) {\n        (, , , , , , , , uint256 rate) = flightSuretyData.getFlight(_flightID);\n        require(msg.value >= rate, \"sent value does not match flight rate\");\n        uint256 amountDue = rate.sub(msg.value);\n        _;\n        payable(msg.sender).transfer(amountDue);\n    }\n\n    modifier requireFutureFlight(uint256 _flightID) {\n        (, uint64 estimatedDeparture, , , , , , , ) = flightSuretyData\n            .getFlight(_flightID);\n        require(\n            estimatedDeparture > block.timestamp,\n            \"flight departure must be future\"\n        );\n        _;\n    }\n\n    modifier requireFlightIsLate(uint256 _insuranceID) {\n        (uint256 flightID, , , ) = flightSuretyData.getInsurance(_insuranceID);\n        (, , , , , bool isLate, , , ) = flightSuretyData.getFlight(flightID);\n        require(isLate, \"flight must be late\");\n        _;\n    }\n\n    modifier onlyInsuranceIsNotClaimed(uint256 _insuranceID) {\n        (, , , bool claimed) = flightSuretyData.getInsurance(_insuranceID);\n        require(!claimed, \"insurance must not have been claimed\");\n        _;\n    }\n    modifier onlyInsuranceOwner(uint256 _insuranceID) {\n        (, , address owner, ) = flightSuretyData.getInsurance(_insuranceID);\n        require(msg.sender == owner, \"caller must be insurance owner\");\n        _;\n    }\n\n    modifier requireTotalInsuredValueCoverage(uint256 newInsuranceValue) {\n        uint256 newTotalInsuredValue = flightSuretyData\n            .getTotalInsuredValue()\n            .add(newInsuranceValue);\n        uint256 totalFundsWithCoverage = _calculateInsuredValueBenefits(\n            newTotalInsuredValue\n        );\n        require(\n            totalFundsWithCoverage <= address(this).balance,\n            \"current funds must cover new insurance value\"\n        );\n        _;\n    }\n\n    // membership fee checks\n\n    modifier requireMembershipFee() {\n        uint256 _currentMembershipFee = membershipFeeAmendmentProposal\n            .getCurrentMembershipFee();\n        require(\n            msg.value >= _currentMembershipFee,\n            \"incorrect fee sent to contract\"\n        );\n\n        if (msg.value > _currentMembershipFee) {\n            uint256 _amountDue = msg.value.sub(_currentMembershipFee);\n            (bool success, ) = payable(msg.sender).call{value: _amountDue}(\"\");\n            require(success, \"transfer failed\");\n        }\n        _;\n    }\n\n    // common roles checks\n\n    modifier onlyActivatedProvider(address _caller) {\n        require(\n            insuranceProviderRole.isActivatedInsuranceProvider(_caller) ||\n                oracleProviderRole.isActivatedOracleProvider(_caller),\n            \"caller must be activated provider\"\n        );\n        _;\n    }\n\n    modifier onlyTokenHolder(address _caller) {\n        require(\n            flightSuretyShares.balanceOf(_caller) > 0,\n            \"caller must be token holder\"\n        );\n        _;\n    }\n\n    modifier requireTokenHolderIsOldEnough(address _caller) {\n        uint256 blockElapsed = block.number.sub(\n            flightSuretyShares.ownershipBlockNum(_caller)\n        );\n        require(\n            blockElapsed >= tokenHolderMinBlockRequirement,\n            \"caller must be an old token holder\"\n        );\n        _;\n    }\n\n    // insurance providers checks\n\n    modifier onlyRegisteredInsuranceProvider(address _caller) {\n        require(\n            insuranceProviderRole.isRegisteredInsuranceProvider(_caller),\n            \"caller must be insurance provider\"\n        );\n        _;\n    }\n\n    modifier onlyActivatedInsuranceProvider(address _caller) {\n        require(\n            insuranceProviderRole.isActivatedInsuranceProvider(_caller),\n            \"caller must be activated insurance provider\"\n        );\n        _;\n    }\n\n    modifier requireTokenHolderHasNotVotedInsuranceProviderMembership(\n        address _caller,\n        address _account\n    ) {\n        require(\n            !insuranceProviderRole.hasVotedInsuranceProviderMembership(\n                _account,\n                _caller\n            ),\n            \"caller has already voted\"\n        );\n        _;\n    }\n\n    // oracle providers checks\n\n    modifier onlyRegisteredOracleProvider(address _caller) {\n        require(\n            oracleProviderRole.isRegisteredOracleProvider(_caller),\n            \"caller must be oracle provider\"\n        );\n        _;\n    }\n\n    modifier onlyActivatedOracleProvider(address _caller) {\n        require(\n            oracleProviderRole.isActivatedOracleProvider(_caller),\n            \"caller is not activated oracle provider\"\n        );\n        _;\n    }\n\n    modifier requireTokenHolderHasNotVotedOracleProviderMembership(\n        address _caller,\n        address _account\n    ) {\n        require(\n            !oracleProviderRole.hasVotedOracleProviderMembership(\n                _account,\n                _caller\n            ),\n            \"caller has already voted\"\n        );\n        _;\n    }\n\n    constructor(\n        uint256 _tokenHolderMinBlockRequirement,\n        uint256 _proposalValidBlockNum\n    ) Ownable() Pausable() {\n        // public contract settings to set constraint to user vote in general\n        tokenHolderMinBlockRequirement = _tokenHolderMinBlockRequirement;\n        // public contract setting to set constraint on user proposal vote\n        proposalValidBlockNum = _proposalValidBlockNum;\n    }\n\n    // initialize external contracts addresses\n    function initialize(\n        address _flightSuretyData,\n        address _insuranceCoverageAmendmentProposal,\n        address _membershipFeeAmendmentProposal,\n        address _insuranceProviderRole,\n        address _oracleProviderRole,\n        address _flightSuretyShares\n    ) external onlyOwner {\n        // registering external contracts address\n        flightSuretyData = IFlightSuretyData(_flightSuretyData);\n        insuranceCoverageAmendmentProposal = IInsuranceCoverageAmendmentProposal(\n            _insuranceCoverageAmendmentProposal\n        );\n        membershipFeeAmendmentProposal = IMembershipFeeAmendmentProposal(\n            _membershipFeeAmendmentProposal\n        );\n        insuranceProviderRole = IInsuranceProviderRole(_insuranceProviderRole);\n        oracleProviderRole = IOracleProviderRole(_oracleProviderRole);\n        flightSuretyShares = IFlightSuretyShares(_flightSuretyShares);\n        // make the contract owner a registered insurance provider\n        insuranceProviderRole.addInsuranceProvider(msg.sender);\n        // make the contract owner an activated insurance provider\n        insuranceProviderRole.activateInsuranceProvider(msg.sender);\n        emit RegisteredInsuranceProvider(msg.sender);\n        emit ActivatedInsuranceProvider(msg.sender);\n    }\n\n    /* operationnal status */\n\n    function setOperationnal(bool _operationnal) external onlyOwner {\n        _setOperationnal(_operationnal);\n    }\n\n    /* external contracts calls management */\n\n    function updateAuthorizedCallerFlightSuretyData(\n        address _authorizedCaller,\n        bool _access\n    ) external onlyOwner {\n        if (_access) {\n            flightSuretyData.authorizeCaller(_authorizedCaller);\n            emit AuthorizedCaller(\n                msg.sender,\n                _authorizedCaller,\n                address(flightSuretyData)\n            );\n        } else {\n            flightSuretyData.unauthorizeCaller(_authorizedCaller);\n            emit UnauthorizedCaller(\n                msg.sender,\n                _authorizedCaller,\n                address(flightSuretyData)\n            );\n        }\n    }\n\n    function updateAuthorizedCallerInsuranceCoverageAmendmentProposal(\n        address _authorizedCaller,\n        bool _access\n    ) external onlyOwner {\n        if (_access) {\n            insuranceCoverageAmendmentProposal.authorizeCaller(\n                _authorizedCaller\n            );\n            emit AuthorizedCaller(\n                msg.sender,\n                _authorizedCaller,\n                address(insuranceCoverageAmendmentProposal)\n            );\n        } else {\n            insuranceCoverageAmendmentProposal.unauthorizeCaller(\n                _authorizedCaller\n            );\n            emit UnauthorizedCaller(\n                msg.sender,\n                _authorizedCaller,\n                address(insuranceCoverageAmendmentProposal)\n            );\n        }\n    }\n\n    function updateAuthorizedCallerMembershipFeeAmendmentProposal(\n        address _authorizedCaller,\n        bool _access\n    ) external onlyOwner {\n        if (_access) {\n            membershipFeeAmendmentProposal.authorizeCaller(_authorizedCaller);\n            emit AuthorizedCaller(\n                msg.sender,\n                _authorizedCaller,\n                address(membershipFeeAmendmentProposal)\n            );\n        } else {\n            membershipFeeAmendmentProposal.unauthorizeCaller(_authorizedCaller);\n            emit UnauthorizedCaller(\n                msg.sender,\n                _authorizedCaller,\n                address(membershipFeeAmendmentProposal)\n            );\n        }\n    }\n\n    function updateAuthorizedCallerInsuranceProviderRole(\n        address _authorizedCaller,\n        bool _access\n    ) external onlyOwner {\n        if (_access) {\n            insuranceProviderRole.authorizeCaller(_authorizedCaller);\n            emit AuthorizedCaller(\n                msg.sender,\n                _authorizedCaller,\n                address(insuranceProviderRole)\n            );\n        } else {\n            insuranceProviderRole.unauthorizeCaller(_authorizedCaller);\n            emit UnauthorizedCaller(\n                msg.sender,\n                _authorizedCaller,\n                address(insuranceProviderRole)\n            );\n        }\n    }\n\n    function updateAuthorizedCallerOracleProviderRole(\n        address _authorizedCaller,\n        bool _access\n    ) external onlyOwner {\n        if (_access) {\n            oracleProviderRole.authorizeCaller(_authorizedCaller);\n            emit AuthorizedCaller(\n                msg.sender,\n                _authorizedCaller,\n                address(oracleProviderRole)\n            );\n        } else {\n            oracleProviderRole.unauthorizeCaller(_authorizedCaller);\n            emit UnauthorizedCaller(\n                msg.sender,\n                _authorizedCaller,\n                address(oracleProviderRole)\n            );\n        }\n    }\n\n    function updateAuthorizedCallerFlighSuretyShares(\n        address _authorizedCaller,\n        bool _access\n    ) external onlyOwner {\n        if (_access) {\n            flightSuretyShares.authorizeCaller(_authorizedCaller);\n            emit AuthorizedCaller(\n                msg.sender,\n                _authorizedCaller,\n                address(flightSuretyShares)\n            );\n        } else {\n            flightSuretyShares.unauthorizeCaller(_authorizedCaller);\n            emit UnauthorizedCaller(\n                msg.sender,\n                _authorizedCaller,\n                address(flightSuretyShares)\n            );\n        }\n    }\n\n    /* providers registrations */\n\n    // insurance providers\n\n    function registerInsuranceProvider(address account)\n        external\n        onlyOperational\n        onlyActivatedInsuranceProvider(msg.sender)\n    {\n        insuranceProviderRole.addInsuranceProvider(account);\n        emit RegisteredInsuranceProvider(account);\n    }\n\n    // fund an insurance provider aka airline\n    function fundInsuranceProvider()\n        external\n        payable\n        onlyRegisteredInsuranceProvider(msg.sender)\n        requireMembershipFee\n    {\n        uint256 _currentMembershipFee = membershipFeeAmendmentProposal\n            .getCurrentMembershipFee();\n        insuranceProviderRole.fundInsuranceProvider(\n            msg.sender,\n            _currentMembershipFee\n        );\n        uint256 registeredInsuranceProviderCount = insuranceProviderRole\n            .getRegisteredInsuranceProvidersCount();\n        if (registeredInsuranceProviderCount < 5) {\n            insuranceProviderRole.activateInsuranceProvider(msg.sender);\n            uint256 sharesToMint = _calculateSharesToMint();\n            flightSuretyShares.mint(msg.sender, sharesToMint);\n            emit ActivatedInsuranceProvider(msg.sender);\n        }\n    }\n\n    // oracle providers\n\n    function registerOracleProvider()\n        external\n        payable\n        onlyOperational\n        requireMembershipFee\n    {\n        oracleProviderRole.addOracleProvider(msg.sender);\n        uint256 registeredOracleProviderCount = oracleProviderRole\n            .getRegisteredOracleProvidersCount();\n        if (registeredOracleProviderCount < 5) {\n            oracleProviderRole.activateOracleProvider(msg.sender);\n            uint256 sharesToMint = _calculateSharesToMint();\n            flightSuretyShares.mint(msg.sender, sharesToMint);\n            emit RegisteredOracleProvider(msg.sender);\n            emit ActivatedOracleProvider(msg.sender);\n        } else {\n            emit RegisteredOracleProvider(msg.sender);\n        }\n    }\n\n    /* votes providers */\n\n    // insurance providers\n\n    function voteInsuranceProviderMembership(address _account)\n        external\n        onlyOperational\n        onlyActivatedInsuranceProvider(msg.sender)\n        onlyTokenHolder(msg.sender)\n        requireTokenHolderIsOldEnough(msg.sender)\n        requireTokenHolderHasNotVotedInsuranceProviderMembership(\n            msg.sender,\n            _account\n        )\n    {\n        insuranceProviderRole.voteInsuranceProviderMembership(\n            msg.sender,\n            _account,\n            flightSuretyShares.balanceOf(msg.sender)\n        );\n        bool consensusCheck = insuranceProviderRole\n            .hasReachedConsensusInsuranceProviderMembership(\n                true,\n                _account,\n                _calculateProvidersConsensusTreshold()\n            );\n        if (consensusCheck) {\n            insuranceProviderRole.activateInsuranceProvider(_account);\n            uint256 sharesToMint = _calculateSharesToMint();\n            flightSuretyShares.mint(_account, sharesToMint);\n            emit NewVoteInsuranceProvider(msg.sender, true, _account);\n            emit ActivatedInsuranceProvider(_account);\n        } else {\n            emit NewVoteInsuranceProvider(msg.sender, true, _account);\n        }\n    }\n\n    // oracle providers\n\n    function voteOracleProviderMembership(address _account)\n        external\n        onlyOperational\n        onlyTokenHolder(msg.sender)\n        requireTokenHolderIsOldEnough(msg.sender)\n        requireTokenHolderHasNotVotedOracleProviderMembership(\n            msg.sender,\n            _account\n        )\n    {\n        oracleProviderRole.voteOracleProviderMembership(\n            msg.sender,\n            _account,\n            flightSuretyShares.balanceOf(msg.sender)\n        );\n        bool consensusCheck = oracleProviderRole\n            .hasReachedConsensusOracleProviderMembership(\n                true,\n                _account,\n                _calculateProvidersConsensusTreshold()\n            );\n        if (consensusCheck) {\n            oracleProviderRole.activateOracleProvider(_account);\n            uint256 sharesToMint = _calculateSharesToMint();\n            flightSuretyShares.mint(_account, sharesToMint);\n            emit NewVoteOracleProvider(msg.sender, true, _account);\n            emit ActivatedOracleProvider(_account);\n        } else {\n            emit NewVoteOracleProvider(msg.sender, true, _account);\n        }\n    }\n\n    /* flights management */\n\n    function registerFlight(\n        string calldata _flightRef,\n        uint64 _estimatedDeparture,\n        uint64 _estimatedArrival,\n        uint256 _rate\n    )\n        external\n        onlyOperational\n        onlyActivatedInsuranceProvider(msg.sender)\n        requireValidFlight(_estimatedDeparture, _estimatedArrival, _rate)\n    {\n        flightSuretyData.registerFlight(\n            msg.sender,\n            _flightRef,\n            _estimatedDeparture,\n            _estimatedArrival,\n            _rate\n        );\n        uint256 flightID = flightSuretyData.getCurrentFlightID();\n        emit NewFlight(\n            flightID,\n            msg.sender,\n            _estimatedDeparture,\n            _estimatedArrival,\n            _flightRef,\n            _rate\n        );\n    }\n\n    function getFlightInitialData(uint256 _flightID)\n        external\n        view\n        returns (\n            string memory flightRef,\n            uint64 estimatedDeparture,\n            uint64 estimatedArrival,\n            address insuranceProvider,\n            uint256 rate\n        )\n    {\n        (\n            flightRef,\n            estimatedDeparture,\n            estimatedArrival,\n            ,\n            ,\n            ,\n            insuranceProvider,\n            ,\n            rate\n        ) = flightSuretyData.getFlight(_flightID);\n        return (\n            flightRef,\n            estimatedDeparture,\n            estimatedArrival,\n            insuranceProvider,\n            rate\n        );\n    }\n\n    function getFlightSettlementData(uint256 _flightID)\n        external\n        view\n        returns (\n            string memory flightRef,\n            uint64 realDeparture,\n            uint64 realArrival,\n            bool isLate,\n            address insuranceProvider,\n            uint256 insuredValue\n        )\n    {\n        (\n            flightRef,\n            ,\n            ,\n            realDeparture,\n            realArrival,\n            isLate,\n            insuranceProvider,\n            insuredValue,\n\n        ) = flightSuretyData.getFlight(_flightID);\n        return (\n            flightRef,\n            realDeparture,\n            realArrival,\n            isLate,\n            insuranceProvider,\n            insuredValue\n        );\n    }\n\n    /* insurances management */\n\n    function registerInsurance(uint256 _flightID)\n        external\n        payable\n        onlyOperational\n        requireFutureFlight(_flightID)\n        requireMessageValueGreatherOrEqualToFlightRate(_flightID)\n        requireTotalInsuredValueCoverage(msg.value)\n    {\n        // fetch flight rate\n        (\n            ,\n            ,\n            ,\n            ,\n            ,\n            ,\n            address insuranceProvider,\n            ,\n            uint256 rate\n        ) = flightSuretyData.getFlight(_flightID);\n        // create insurance for the caller\n        flightSuretyData.insure(msg.sender, _flightID, rate);\n        // update total insured value  (locking up funds to be sure to be able to cover all funds locked up in contract)\n        _incrementTotalInsuredValue(rate);\n        uint256 insuranceID = flightSuretyData.getCurrentInsuranceID();\n        emit NewInsurance(\n            msg.sender,\n            insuranceProvider,\n            insuranceID,\n            _flightID,\n            rate\n        );\n    }\n\n    function claimInsurance(uint256 _insuranceID)\n        external\n        payable\n        onlyOperational\n        requireFlightIsLate(_insuranceID)\n        onlyInsuranceOwner(_insuranceID)\n        onlyInsuranceIsNotClaimed(_insuranceID)\n    {\n        // fetch the insurance insured value\n        (uint256 flightID, uint256 insuredValue, , ) = flightSuretyData\n            .getInsurance(_insuranceID);\n        // fetch the flight data\n        (, , , , , , address insuranceProvider, , ) = flightSuretyData\n            .getFlight(flightID);\n        // update insurance to claimed\n        flightSuretyData.setInsuranceToClaimed(_insuranceID);\n        // update total insured value as funds are about to be sent (unlocking funds to take new insurance contracts)\n        flightSuretyData.setTotalInsuredValue(\n            flightSuretyData.getTotalInsuredValue().sub(insuredValue)\n        );\n        // calculate the amount to transfer according to the insurance coverage policy\n        payable(msg.sender).transfer(\n            _calculateInsuredValueBenefits(insuredValue)\n        );\n        emit NewPayout(\n            msg.sender,\n            insuranceProvider,\n            flightID,\n            insuredValue,\n            _insuranceID\n        );\n    }\n\n    /* Settings amendment proposals*/\n\n    // fetch the current membership fee\n    function currentMembershipFee() external view returns (uint256) {\n        return membershipFeeAmendmentProposal.getCurrentMembershipFee();\n    }\n\n    // fetch the current insurance coverage ratio\n    function currentInsuranceCoverageRatio() external view returns (uint256) {\n        return insuranceCoverageAmendmentProposal.getCurrentInsuranceCoverage();\n    }\n\n    // membership fee amendment proposals\n\n    function registerMembershipFeeAmendmentProposal(uint256 _proposedValue)\n        external\n        onlyOperational\n        onlyTokenHolder(msg.sender)\n    {\n        membershipFeeAmendmentProposal.registerMembershipFeeAmendmentProposal(\n            msg.sender,\n            _proposedValue,\n            flightSuretyShares.balanceOf(msg.sender)\n        );\n        uint256 _proposalID = membershipFeeAmendmentProposal\n            .getMembershipFeeAmendmentProposalCurrentProposalID();\n        emit NewMembershipFeeAmendmentProposal(\n            _proposalID,\n            msg.sender,\n            _proposedValue\n        );\n        emit NewVoteMembershipFeeAmendmentProposal(_proposalID, msg.sender);\n    }\n\n    function voteMembershipFeeAmendmentProposal(uint256 _proposalID)\n        external\n        onlyOperational\n        onlyTokenHolder(msg.sender)\n        requireTokenHolderIsOldEnough(msg.sender)\n        requireTokenHolderHasNotVotedMembershipFeeAmendmentProposal(\n            msg.sender,\n            _proposalID\n        )\n        requireProposalIsActive(_proposalID)\n    {\n        membershipFeeAmendmentProposal.voteMembershipFeeAmendmentProposal(\n            _proposalID,\n            msg.sender,\n            true,\n            flightSuretyShares.balanceOf(msg.sender)\n        );\n        bool consensusCheck = membershipFeeAmendmentProposal\n            .hasMembershipFeeAmendmentProposalReachedConsensus(\n                _proposalID,\n                true,\n                _calculateProvidersConsensusTreshold()\n            );\n        if (consensusCheck) {\n            membershipFeeAmendmentProposal\n                .activateMembershipFeeAmendmentProposal(_proposalID);\n            uint256 lockedMembershipFee = membershipFeeAmendmentProposal\n                .getCurrentMembershipFee();\n            emit NewVoteMembershipFeeAmendmentProposal(_proposalID, msg.sender);\n            emit ActivatedMembershipFeeAmendmentProposal(\n                _proposalID,\n                lockedMembershipFee\n            );\n        } else {\n            emit NewVoteMembershipFeeAmendmentProposal(_proposalID, msg.sender);\n        }\n    }\n\n    // insurance coverage amendment proposal\n\n    function registerInsuranceCoverageAmendmentProposal(uint256 _proposedValue)\n        external\n        onlyOperational\n        onlyTokenHolder(msg.sender)\n    {\n        insuranceCoverageAmendmentProposal\n            .registerInsuranceCoverageAmendmentProposal(\n                msg.sender,\n                _proposedValue,\n                flightSuretyShares.balanceOf(msg.sender)\n            );\n        uint256 _proposalID = insuranceCoverageAmendmentProposal\n            .getInsuranceCoverageAmendmentCurrentProposalID();\n        emit NewInsuranceCoverageAmendmentProposal(\n            _proposalID,\n            msg.sender,\n            _proposedValue\n        );\n        emit NewVoteInsuranceCoverageAmendmentProposal(_proposalID, msg.sender);\n    }\n\n    function voteInsuranceCoverageAmendmentProposal(uint256 _proposalID)\n        external\n        onlyOperational\n        onlyTokenHolder(msg.sender)\n        requireTokenHolderIsOldEnough(msg.sender)\n        requireTokenHolderHasNotVotedInsuranceCoverageAmendmentProposal(\n            msg.sender,\n            _proposalID\n        )\n        requireProposalIsActive(_proposalID)\n    {\n        insuranceCoverageAmendmentProposal\n            .voteInsuranceCoverageAmendmentProposal(\n                _proposalID,\n                msg.sender,\n                true,\n                flightSuretyShares.balanceOf(msg.sender)\n            );\n        bool consensusCheck = insuranceCoverageAmendmentProposal\n            .hasInsuranceCoverageAmendmentProposalReachedConsensus(\n                _proposalID,\n                true,\n                _calculateProvidersConsensusTreshold()\n            );\n        if (consensusCheck) {\n            insuranceCoverageAmendmentProposal\n                .activateInsuranceCoverageAmendmentProposal(_proposalID);\n            uint256 insuranceCoverage = insuranceCoverageAmendmentProposal\n                .getCurrentInsuranceCoverage();\n            emit NewVoteInsuranceCoverageAmendmentProposal(\n                _proposalID,\n                msg.sender\n            );\n            emit ActivatedInsuranceCoverageAmendmentProposal(\n                _proposalID,\n                insuranceCoverage\n            );\n        } else {\n            emit NewVoteInsuranceCoverageAmendmentProposal(\n                _proposalID,\n                msg.sender\n            );\n        }\n    }\n\n    // fetch the oracle provider indexes\n    function getOracleIndexes()\n        external\n        view\n        onlyActivatedOracleProvider(msg.sender)\n        returns (\n            uint256 index1,\n            uint256 index2,\n            uint256 index3\n        )\n    {\n        (index1, index2, index3) = oracleProviderRole.getOracleIndexes(\n            msg.sender\n        );\n        return (index1, index2, index3);\n    }\n\n    function _incrementTotalInsuredValue(uint256 _addedValue) internal {\n        uint256 currentTotalInsuredValue = flightSuretyData\n            .getTotalInsuredValue();\n        flightSuretyData.setTotalInsuredValue(\n            currentTotalInsuredValue.add(_addedValue)\n        );\n    }\n\n    function _calculateInsuredValueBenefits(uint256 initialValue)\n        internal\n        view\n        returns (uint256 insuredValueCoverage)\n    {\n        uint256 currentInsuranceCoverage = insuranceCoverageAmendmentProposal\n            .getCurrentInsuranceCoverage();\n        return initialValue.mul(currentInsuranceCoverage).div(100);\n    }\n\n    function _calculateProvidersConsensusTreshold()\n        internal\n        view\n        returns (uint256 providersConsensusTreshold)\n    {\n        return flightSuretyShares.totalSupply().div(2);\n    }\n\n    function _calculateSharesToMint()\n        internal\n        pure\n        returns (uint256 sharesToMint)\n    {\n        return 1;\n    }\n}\n",
  "sourcePath": "/home/tothemoon_/Documents/FlightInsurance/contracts/FlightSuretyApp/FlightSuretyApp.sol",
  "compiler": {
    "name": "solc",
    "version": "0.8.0+commit.c7dfd78e.Emscripten.clang"
  },
  "schemaVersion": "3.4.2",
  "updatedAt": "2021-08-16T15:17:47.173Z",
  "networkType": "ethereum",
  "devdoc": {
    "kind": "dev",
    "methods": {},
    "version": 1
  },
  "userdoc": {
    "kind": "user",
    "methods": {},
    "version": 1
  }
}