{
  "contractName": "FlightSuretyShares",
  "abi": [
    {
      "inputs": [
        {
          "internalType": "address",
          "name": "_appContractAddress",
          "type": "address"
        }
      ],
      "stateMutability": "nonpayable",
      "type": "constructor"
    },
    {
      "anonymous": false,
      "inputs": [
        {
          "indexed": true,
          "internalType": "address",
          "name": "owner",
          "type": "address"
        },
        {
          "indexed": true,
          "internalType": "address",
          "name": "spender",
          "type": "address"
        },
        {
          "indexed": false,
          "internalType": "uint256",
          "name": "value",
          "type": "uint256"
        }
      ],
      "name": "Approval",
      "type": "event"
    },
    {
      "anonymous": false,
      "inputs": [
        {
          "indexed": true,
          "internalType": "address",
          "name": "from",
          "type": "address"
        },
        {
          "indexed": true,
          "internalType": "address",
          "name": "to",
          "type": "address"
        },
        {
          "indexed": false,
          "internalType": "uint256",
          "name": "value",
          "type": "uint256"
        }
      ],
      "name": "Transfer",
      "type": "event"
    },
    {
      "inputs": [
        {
          "internalType": "address",
          "name": "owner",
          "type": "address"
        },
        {
          "internalType": "address",
          "name": "spender",
          "type": "address"
        }
      ],
      "name": "allowance",
      "outputs": [
        {
          "internalType": "uint256",
          "name": "",
          "type": "uint256"
        }
      ],
      "stateMutability": "view",
      "type": "function",
      "constant": true
    },
    {
      "inputs": [
        {
          "internalType": "address",
          "name": "spender",
          "type": "address"
        },
        {
          "internalType": "uint256",
          "name": "amount",
          "type": "uint256"
        }
      ],
      "name": "approve",
      "outputs": [
        {
          "internalType": "bool",
          "name": "",
          "type": "bool"
        }
      ],
      "stateMutability": "nonpayable",
      "type": "function"
    },
    {
      "inputs": [
        {
          "internalType": "address",
          "name": "account",
          "type": "address"
        }
      ],
      "name": "balanceOf",
      "outputs": [
        {
          "internalType": "uint256",
          "name": "",
          "type": "uint256"
        }
      ],
      "stateMutability": "view",
      "type": "function",
      "constant": true
    },
    {
      "inputs": [
        {
          "internalType": "address",
          "name": "account",
          "type": "address"
        }
      ],
      "name": "blockNumBeforeRedeem",
      "outputs": [
        {
          "internalType": "uint256",
          "name": "",
          "type": "uint256"
        }
      ],
      "stateMutability": "view",
      "type": "function",
      "constant": true
    },
    {
      "inputs": [],
      "name": "decimals",
      "outputs": [
        {
          "internalType": "uint8",
          "name": "",
          "type": "uint8"
        }
      ],
      "stateMutability": "view",
      "type": "function",
      "constant": true
    },
    {
      "inputs": [
        {
          "internalType": "address",
          "name": "spender",
          "type": "address"
        },
        {
          "internalType": "uint256",
          "name": "subtractedValue",
          "type": "uint256"
        }
      ],
      "name": "decreaseAllowance",
      "outputs": [
        {
          "internalType": "bool",
          "name": "",
          "type": "bool"
        }
      ],
      "stateMutability": "nonpayable",
      "type": "function"
    },
    {
      "inputs": [],
      "name": "defaultBlockNumBeforeRedeem",
      "outputs": [
        {
          "internalType": "uint256",
          "name": "",
          "type": "uint256"
        }
      ],
      "stateMutability": "view",
      "type": "function",
      "constant": true
    },
    {
      "inputs": [],
      "name": "destructContract",
      "outputs": [],
      "stateMutability": "nonpayable",
      "type": "function"
    },
    {
      "inputs": [
        {
          "internalType": "address",
          "name": "spender",
          "type": "address"
        },
        {
          "internalType": "uint256",
          "name": "addedValue",
          "type": "uint256"
        }
      ],
      "name": "increaseAllowance",
      "outputs": [
        {
          "internalType": "bool",
          "name": "",
          "type": "bool"
        }
      ],
      "stateMutability": "nonpayable",
      "type": "function"
    },
    {
      "inputs": [],
      "name": "isOwner",
      "outputs": [
        {
          "internalType": "bool",
          "name": "_isOwner",
          "type": "bool"
        }
      ],
      "stateMutability": "view",
      "type": "function",
      "constant": true
    },
    {
      "inputs": [],
      "name": "name",
      "outputs": [
        {
          "internalType": "string",
          "name": "",
          "type": "string"
        }
      ],
      "stateMutability": "view",
      "type": "function",
      "constant": true
    },
    {
      "inputs": [
        {
          "internalType": "address",
          "name": "account",
          "type": "address"
        }
      ],
      "name": "ownershipBlockNum",
      "outputs": [
        {
          "internalType": "uint256",
          "name": "",
          "type": "uint256"
        }
      ],
      "stateMutability": "view",
      "type": "function",
      "constant": true
    },
    {
      "inputs": [],
      "name": "symbol",
      "outputs": [
        {
          "internalType": "string",
          "name": "",
          "type": "string"
        }
      ],
      "stateMutability": "view",
      "type": "function",
      "constant": true
    },
    {
      "inputs": [],
      "name": "totalSupply",
      "outputs": [
        {
          "internalType": "uint256",
          "name": "",
          "type": "uint256"
        }
      ],
      "stateMutability": "view",
      "type": "function",
      "constant": true
    },
    {
      "inputs": [
        {
          "internalType": "address",
          "name": "recipient",
          "type": "address"
        },
        {
          "internalType": "uint256",
          "name": "amount",
          "type": "uint256"
        }
      ],
      "name": "transfer",
      "outputs": [
        {
          "internalType": "bool",
          "name": "",
          "type": "bool"
        }
      ],
      "stateMutability": "nonpayable",
      "type": "function"
    },
    {
      "inputs": [
        {
          "internalType": "address",
          "name": "sender",
          "type": "address"
        },
        {
          "internalType": "address",
          "name": "recipient",
          "type": "address"
        },
        {
          "internalType": "uint256",
          "name": "amount",
          "type": "uint256"
        }
      ],
      "name": "transferFrom",
      "outputs": [
        {
          "internalType": "bool",
          "name": "",
          "type": "bool"
        }
      ],
      "stateMutability": "nonpayable",
      "type": "function"
    },
    {
      "inputs": [
        {
          "internalType": "address",
          "name": "_newOwner",
          "type": "address"
        }
      ],
      "name": "transferOwnership",
      "outputs": [],
      "stateMutability": "nonpayable",
      "type": "function"
    },
    {
      "inputs": [
        {
          "internalType": "address",
          "name": "_caller",
          "type": "address"
        }
      ],
      "name": "authorizeCaller",
      "outputs": [],
      "stateMutability": "nonpayable",
      "type": "function"
    },
    {
      "inputs": [
        {
          "internalType": "address",
          "name": "_caller",
          "type": "address"
        }
      ],
      "name": "unauthorizeCaller",
      "outputs": [],
      "stateMutability": "nonpayable",
      "type": "function"
    },
    {
      "inputs": [
        {
          "internalType": "address",
          "name": "account",
          "type": "address"
        },
        {
          "internalType": "uint256",
          "name": "amount",
          "type": "uint256"
        }
      ],
      "name": "mint",
      "outputs": [],
      "stateMutability": "nonpayable",
      "type": "function"
    },
    {
      "inputs": [
        {
          "internalType": "address",
          "name": "account",
          "type": "address"
        },
        {
          "internalType": "uint256",
          "name": "amount",
          "type": "uint256"
        }
      ],
      "name": "burn",
      "outputs": [],
      "stateMutability": "nonpayable",
      "type": "function"
    }
  ],
  "bytecode": "0x60806040523480156200001157600080fd5b50604051620012e3380380620012e383398101604081905262000034916200018b565b6040805180820182526012815271466c6967687453757265747953686172657360701b60208083019182528351808501909452600384526246535360e81b908401528151919291622625a0916200008f9160059190620000e5565b508151620000a5906006906020850190620000e5565b506007555050600880546001600160a01b031916331790556001600160a01b03166000908152600960205260409020805460ff19166001179055620001f8565b828054620000f390620001bb565b90600052602060002090601f01602090048101928262000117576000855562000162565b82601f106200013257805160ff191683800117855562000162565b8280016001018555821562000162579182015b828111156200016257825182559160200191906001019062000145565b506200017092915062000174565b5090565b5b8082111562000170576000815560010162000175565b6000602082840312156200019d578081fd5b81516001600160a01b0381168114620001b4578182fd5b9392505050565b600281046001821680620001d057607f821691505b60208210811415620001f257634e487b7160e01b600052602260045260246000fd5b50919050565b6110db80620002086000396000f3fe608060405234801561001057600080fd5b50600436106101375760003560e01c806370a08231116100b8578063a457c2d71161007c578063a457c2d714610256578063a9059cbb14610269578063aaef85471461027c578063b3b31c761461028f578063dd62ed3e14610297578063f2fde38b146102aa57610137565b806370a08231146102185780638f32d59b1461022b5780639499e0181461023357806395d89b411461023b5780639dc29fac1461024357610137565b8063313ce567116100ff578063313ce567146101b7578063376f6042146101cc57806339509351146101df57806340c10f19146101f25780634ac8c5ae1461020557610137565b806306fdde031461013c578063095ea7b31461015a57806318160ddd1461017a57806323b872dd1461018f5780632c388d5d146101a2575b600080fd5b6101446102bd565b6040516101519190610ca9565b60405180910390f35b61016d610168366004610c75565b61034f565b6040516101519190610c9e565b61018261036c565b604051610151919061100e565b61016d61019d366004610c3a565b610372565b6101b56101b0366004610be7565b61040b565b005b6101bf61045b565b6040516101519190611017565b6101826101da366004610be7565b610460565b61016d6101ed366004610c75565b61047f565b6101b5610200366004610c75565b6104d3565b6101b5610213366004610be7565b610525565b610182610226366004610be7565b610572565b61016d61058d565b6101b561059e565b6101446105d6565b6101b5610251366004610c75565b6105e5565b61016d610264366004610c75565b610633565b61016d610277366004610c75565b6106ac565b61018261028a366004610be7565b6106c0565b6101826106db565b6101826102a5366004610c08565b6106e1565b6101b56102b8366004610be7565b61070c565b6060600580546102cc90611054565b80601f01602080910402602001604051908101604052809291908181526020018280546102f890611054565b80156103455780601f1061031a57610100808354040283529160200191610345565b820191906000526020600020905b81548152906001019060200180831161032857829003601f168201915b5050505050905090565b600061036361035c610758565b848461075c565b50600192915050565b60045490565b600061037f848484610810565b6001600160a01b0384166000908152600360205260408120816103a0610758565b6001600160a01b03166001600160a01b03168152602001908152602001600020549050828110156103ec5760405162461bcd60e51b81526004016103e390610e52565b60405180910390fd5b610400856103f8610758565b85840361075c565b506001949350505050565b6008546001600160a01b031633148061043357503360009081526009602052604090205460ff165b61044f5760405162461bcd60e51b81526004016103e390610dc3565b61045881610969565b50565b601290565b6001600160a01b0381166000908152600160205260409020545b919050565b600061036361048c610758565b84846003600061049a610758565b6001600160a01b03908116825260208083019390935260409182016000908120918b16815292529020546104ce9190611025565b61075c565b6008546001600160a01b03163314806104fb57503360009081526009602052604090205460ff165b6105175760405162461bcd60e51b81526004016103e390610dc3565b610521828261098d565b5050565b6008546001600160a01b031633148061054d57503360009081526009602052604090205460ff165b6105695760405162461bcd60e51b81526004016103e390610dc3565b61045881610a6c565b6001600160a01b031660009081526020819052604090205490565b6008546001600160a01b0316331490565b6008546001600160a01b031633146105c85760405162461bcd60e51b81526004016103e390610f20565b6008546001600160a01b0316ff5b6060600680546102cc90611054565b6008546001600160a01b031633148061060d57503360009081526009602052604090205460ff165b6106295760405162461bcd60e51b81526004016103e390610dc3565b6105218282610a8d565b60008060036000610642610758565b6001600160a01b039081168252602080830193909352604091820160009081209188168152925290205490508281101561068e5760405162461bcd60e51b81526004016103e390610f92565b6106a2610699610758565b8585840361075c565b5060019392505050565b60006103636106b9610758565b8484610810565b6001600160a01b031660009081526002602052604090205490565b60075490565b6001600160a01b03918216600090815260036020908152604080832093909416825291909152205490565b6008546001600160a01b031633146107365760405162461bcd60e51b81526004016103e390610f20565b600880546001600160a01b0319166001600160a01b0392909216919091179055565b3390565b6001600160a01b0383166107825760405162461bcd60e51b81526004016103e390610f4e565b6001600160a01b0382166107a85760405162461bcd60e51b81526004016103e390610d81565b6001600160a01b0380841660008181526003602090815260408083209487168084529490915290819020849055517f8c5be1e5ebec7d5bd14f71427d1e84f3dd0314c0f7b2291e5b200ac8c7c3b9259061080390859061100e565b60405180910390a3505050565b6001600160a01b0383166108365760405162461bcd60e51b81526004016103e390610edb565b6001600160a01b03821661085c5760405162461bcd60e51b81526004016103e390610cfc565b610867838383610b85565b6001600160a01b038316600090815260208190526040902054818110156108a05760405162461bcd60e51b81526004016103e390610e0c565b6001600160a01b038416600090815260208190526040812083830390556108c8908590610b8a565b6108d28343610b8a565b6108de83600754610ba6565b6001600160a01b03831660009081526020819052604081208054849290610906908490611025565b92505081905550826001600160a01b0316846001600160a01b03167fddf252ad1be2c89b69c2b068fc378daa952ba7f163c4a11628f55a4df523b3ef84604051610950919061100e565b60405180910390a3610963848484610b85565b50505050565b6001600160a01b03166000908152600960205260409020805460ff19166001179055565b6001600160a01b0382166109b35760405162461bcd60e51b81526004016103e390610fd7565b6109bf60008383610b85565b80600460008282546109d19190611025565b909155506109e190508243610b8a565b6109ed82600754610ba6565b6001600160a01b03821660009081526020819052604081208054839290610a15908490611025565b90915550506040516001600160a01b038316906000907fddf252ad1be2c89b69c2b068fc378daa952ba7f163c4a11628f55a4df523b3ef90610a5890859061100e565b60405180910390a361052160008383610b85565b6001600160a01b03166000908152600960205260409020805460ff19169055565b6001600160a01b038216610ab35760405162461bcd60e51b81526004016103e390610e9a565b610abf82600083610b85565b6001600160a01b03821660009081526020819052604090205481811015610af85760405162461bcd60e51b81526004016103e390610d3f565b6001600160a01b03831660009081526020819052604081208383039055610b20908490610b8a565b8160046000828254610b32919061103d565b90915550506040516000906001600160a01b038516907fddf252ad1be2c89b69c2b068fc378daa952ba7f163c4a11628f55a4df523b3ef90610b7590869061100e565b60405180910390a3610b85836000845b505050565b6001600160a01b03909116600090815260016020526040902055565b610bb08143611025565b6001600160a01b0390921660009081526002602052604090209190915550565b80356001600160a01b038116811461047a57600080fd5b600060208284031215610bf8578081fd5b610c0182610bd0565b9392505050565b60008060408385031215610c1a578081fd5b610c2383610bd0565b9150610c3160208401610bd0565b90509250929050565b600080600060608486031215610c4e578081fd5b610c5784610bd0565b9250610c6560208501610bd0565b9150604084013590509250925092565b60008060408385031215610c87578182fd5b610c9083610bd0565b946020939093013593505050565b901515815260200190565b6000602080835283518082850152825b81811015610cd557858101830151858201604001528201610cb9565b81811115610ce65783604083870101525b50601f01601f1916929092016040019392505050565b60208082526023908201527f45524332303a207472616e7366657220746f20746865207a65726f206164647260408201526265737360e81b606082015260800190565b60208082526022908201527f45524332303a206275726e20616d6f756e7420657863656564732062616c616e604082015261636560f01b606082015260800190565b60208082526022908201527f45524332303a20617070726f766520746f20746865207a65726f206164647265604082015261737360f01b606082015260800190565b60208082526029908201527f63616c6c6572206d757374206265206f776e6572206f7220617574686f72697a60408201526832b21031b0b63632b960b91b606082015260800190565b60208082526026908201527f45524332303a207472616e7366657220616d6f756e7420657863656564732062604082015265616c616e636560d01b606082015260800190565b60208082526028908201527f45524332303a207472616e7366657220616d6f756e74206578636565647320616040820152676c6c6f77616e636560c01b606082015260800190565b60208082526021908201527f45524332303a206275726e2066726f6d20746865207a65726f206164647265736040820152607360f81b606082015260800190565b60208082526025908201527f45524332303a207472616e736665722066726f6d20746865207a65726f206164604082015264647265737360d81b606082015260800190565b60208082526014908201527331b0b63632b91036bab9ba1031329037bbb732b960611b604082015260600190565b60208082526024908201527f45524332303a20617070726f76652066726f6d20746865207a65726f206164646040820152637265737360e01b606082015260800190565b60208082526025908201527f45524332303a2064656372656173656420616c6c6f77616e63652062656c6f77604082015264207a65726f60d81b606082015260800190565b6020808252601f908201527f45524332303a206d696e7420746f20746865207a65726f206164647265737300604082015260600190565b90815260200190565b60ff91909116815260200190565b600082198211156110385761103861108f565b500190565b60008282101561104f5761104f61108f565b500390565b60028104600182168061106857607f821691505b6020821081141561108957634e487b7160e01b600052602260045260246000fd5b50919050565b634e487b7160e01b600052601160045260246000fdfea264697066735822122014de39c299c387b20ce298d4bd6b3806e585cb81e9671a68faf91583aa1ee11e64736f6c63430008000033",
  "immutableReferences": {},
  "source": "// SPDX-License-Identifier: UNLICENSED\npragma solidity ^0.8.00;\n\nimport \"../Ownable/Ownable.sol\";\nimport \"../CallerAuditable/CallerAuditable.sol\";\nimport \"./ERC20.sol\";\n\ncontract FlightSuretyShares is ERC20, Ownable, CallerAuditable {\n    mapping(address => uint256) _tokenBase;\n    modifier onlyOwnerOrAuthorizedCaller() {\n        require(\n            msg.sender == owner || authorizedCallers[msg.sender],\n            \"caller must be owner or authorized caller\"\n        );\n        _;\n    }\n\n    // constructor setting owner and initial authorized caller address aka appAddress and making contract a special kind of ERC20\n    constructor(address _appContractAddress)\n        Ownable()\n        ERC20(\"FlightSuretyShares\", \"FSS\", 2500000)\n    {\n        authorizedCallers[_appContractAddress] = true;\n    }\n\n    // authorize a new caller to call the contract\n    function authorizeCaller(address _caller)\n        external\n        onlyOwnerOrAuthorizedCaller\n    {\n        _authorizeCaller(_caller);\n    }\n\n    // remove an existing caller rights to call the contract\n    function unauthorizeCaller(address _caller)\n        external\n        onlyOwnerOrAuthorizedCaller\n    {\n        _unauthorizeCaller(_caller);\n    }\n\n    // allow token minting on deposit of funds by orclae or insurance providers\n    function mint(address account, uint256 amount)\n        external\n        onlyOwnerOrAuthorizedCaller\n    {\n        _mint(account, amount);\n    }\n\n    // allow token burning on ban of an account\n    function burn(address account, uint256 amount)\n        external\n        onlyOwnerOrAuthorizedCaller\n    {\n        _burn(account, amount);\n    }\n}\n",
  "sourcePath": "/home/tothemoon_/Documents/FlightInsurance/contracts/FlightSuretyShares/FlightSuretyShares.sol",
  "compiler": {
    "name": "solc",
    "version": "0.8.0+commit.c7dfd78e.Emscripten.clang"
  },
  "schemaVersion": "3.4.2",
  "updatedAt": "2021-08-19T08:23:17.869Z",
  "networkType": "ethereum",
  "devdoc": {
    "kind": "dev",
    "methods": {
      "allowance(address,address)": {
        "details": "See {IERC20-allowance}."
      },
      "approve(address,uint256)": {
        "details": "See {IERC20-approve}. Requirements: - `spender` cannot be the zero address."
      },
      "balanceOf(address)": {
        "details": "See {IERC20-balanceOf}."
      },
      "blockNumBeforeRedeem(address)": {
        "details": "Returns the block number starting at wich the token can be redeem"
      },
      "decimals()": {
        "details": "Returns the number of decimals used to get its user representation. For example, if `decimals` equals `2`, a balance of `505` tokens should be displayed to a user as `5,05` (`505 / 10 ** 2`). Tokens usually opt for a value of 18, imitating the relationship between Ether and Wei. This is the value {ERC20} uses, unless this function is overridden; NOTE: This information is only used for _display_ purposes: it in no way affects any of the arithmetic of the contract, including {IERC20-balanceOf} and {IERC20-transfer}."
      },
      "decreaseAllowance(address,uint256)": {
        "details": "Atomically decreases the allowance granted to `spender` by the caller. This is an alternative to {approve} that can be used as a mitigation for problems described in {IERC20-approve}. Emits an {Approval} event indicating the updated allowance. Requirements: - `spender` cannot be the zero address. - `spender` must have allowance for the caller of at least `subtractedValue`."
      },
      "defaultBlockNumBeforeRedeem()": {
        "details": "Returns the default number of block for a token to be redeemed name."
      },
      "increaseAllowance(address,uint256)": {
        "details": "Atomically increases the allowance granted to `spender` by the caller. This is an alternative to {approve} that can be used as a mitigation for problems described in {IERC20-approve}. Emits an {Approval} event indicating the updated allowance. Requirements: - `spender` cannot be the zero address."
      },
      "name()": {
        "details": "Returns the name of the token."
      },
      "ownershipBlockNum(address)": {
        "details": "Returns the block number at wich the token have been aquired/owned"
      },
      "symbol()": {
        "details": "Returns the symbol of the token, usually a shorter version of the name."
      },
      "totalSupply()": {
        "details": "See {IERC20-totalSupply}."
      },
      "transfer(address,uint256)": {
        "details": "See {IERC20-transfer}. Requirements: - `recipient` cannot be the zero address. - the caller must have a balance of at least `amount`."
      },
      "transferFrom(address,address,uint256)": {
        "details": "See {IERC20-transferFrom}. Emits an {Approval} event indicating the updated allowance. This is not required by the EIP. See the note at the beginning of {ERC20}. Requirements: - `sender` and `recipient` cannot be the zero address. - `sender` must have a balance of at least `amount`. - the caller must have allowance for ``sender``'s tokens of at least `amount`."
      }
    },
    "version": 1
  },
  "userdoc": {
    "kind": "user",
    "methods": {},
    "version": 1
  }
}