{
  "contractName": "FlightSuretyOracle",
  "abi": [
    {
      "inputs": [],
      "stateMutability": "nonpayable",
      "type": "constructor"
    },
    {
      "anonymous": false,
      "inputs": [
        {
          "indexed": true,
          "internalType": "uint256",
          "name": "flightID",
          "type": "uint256"
        },
        {
          "indexed": false,
          "internalType": "uint256",
          "name": "realArrival",
          "type": "uint256"
        },
        {
          "indexed": false,
          "internalType": "uint256",
          "name": "realDeparture",
          "type": "uint256"
        },
        {
          "indexed": false,
          "internalType": "bool",
          "name": "isLate",
          "type": "bool"
        }
      ],
      "name": "AcceptedResponse",
      "type": "event"
    },
    {
      "anonymous": false,
      "inputs": [
        {
          "indexed": true,
          "internalType": "uint256",
          "name": "requestID",
          "type": "uint256"
        },
        {
          "indexed": true,
          "internalType": "uint256",
          "name": "flightID",
          "type": "uint256"
        }
      ],
      "name": "FailedRequest",
      "type": "event"
    },
    {
      "anonymous": false,
      "inputs": [
        {
          "indexed": true,
          "internalType": "uint256",
          "name": "requestID",
          "type": "uint256"
        },
        {
          "indexed": true,
          "internalType": "uint256",
          "name": "flightID",
          "type": "uint256"
        },
        {
          "indexed": true,
          "internalType": "uint256",
          "name": "activatedIndex",
          "type": "uint256"
        },
        {
          "indexed": false,
          "internalType": "string",
          "name": "flightRef",
          "type": "string"
        }
      ],
      "name": "NewRequest",
      "type": "event"
    },
    {
      "anonymous": false,
      "inputs": [
        {
          "indexed": true,
          "internalType": "uint256",
          "name": "requestID",
          "type": "uint256"
        },
        {
          "indexed": true,
          "internalType": "uint256",
          "name": "flightID",
          "type": "uint256"
        },
        {
          "indexed": true,
          "internalType": "address",
          "name": "oracleProvider",
          "type": "address"
        },
        {
          "indexed": false,
          "internalType": "uint256",
          "name": "realDeparture",
          "type": "uint256"
        },
        {
          "indexed": false,
          "internalType": "uint256",
          "name": "realArrival",
          "type": "uint256"
        }
      ],
      "name": "NewResponse",
      "type": "event"
    },
    {
      "anonymous": false,
      "inputs": [
        {
          "indexed": true,
          "internalType": "uint256",
          "name": "flightID",
          "type": "uint256"
        },
        {
          "indexed": false,
          "internalType": "uint256",
          "name": "realDeparture",
          "type": "uint256"
        },
        {
          "indexed": false,
          "internalType": "uint256",
          "name": "realArrival",
          "type": "uint256"
        },
        {
          "indexed": false,
          "internalType": "bool",
          "name": "isLate",
          "type": "bool"
        }
      ],
      "name": "UpdatedFlight",
      "type": "event"
    },
    {
      "inputs": [],
      "name": "destructContract",
      "outputs": [],
      "stateMutability": "nonpayable",
      "type": "function"
    },
    {
      "inputs": [],
      "name": "isOwner",
      "outputs": [
        {
          "internalType": "bool",
          "name": "_isOwner",
          "type": "bool"
        }
      ],
      "stateMutability": "view",
      "type": "function",
      "constant": true
    },
    {
      "inputs": [
        {
          "internalType": "address",
          "name": "_newOwner",
          "type": "address"
        }
      ],
      "name": "transferOwnership",
      "outputs": [],
      "stateMutability": "nonpayable",
      "type": "function"
    },
    {
      "inputs": [
        {
          "internalType": "address",
          "name": "_flightSuretyData",
          "type": "address"
        },
        {
          "internalType": "address",
          "name": "_oracleProviderRole",
          "type": "address"
        }
      ],
      "name": "initialize",
      "outputs": [],
      "stateMutability": "nonpayable",
      "type": "function"
    },
    {
      "inputs": [
        {
          "internalType": "uint256",
          "name": "_flightID",
          "type": "uint256"
        },
        {
          "internalType": "string",
          "name": "_flightRef",
          "type": "string"
        }
      ],
      "name": "createRequest",
      "outputs": [],
      "stateMutability": "nonpayable",
      "type": "function"
    },
    {
      "inputs": [
        {
          "internalType": "uint256",
          "name": "_requestID",
          "type": "uint256"
        },
        {
          "internalType": "uint256",
          "name": "_realDeparture",
          "type": "uint256"
        },
        {
          "internalType": "uint256",
          "name": "_realArrival",
          "type": "uint256"
        }
      ],
      "name": "respondToRequest",
      "outputs": [],
      "stateMutability": "nonpayable",
      "type": "function"
    }
  ],
  "bytecode": "0x608060405234801561001057600080fd5b50600080546001600160a01b0319163317905561120c806100326000396000f3fe608060405234801561001057600080fd5b50600436106100625760003560e01c80633cc7a34714610067578063485cc9551461007c5780638f32d59b1461008f5780639499e018146100ad578063cadddd7d146100b5578063f2fde38b146100c8575b600080fd5b61007a610075366004610f45565b6100db565b005b61007a61008a366004610d31565b6102d4565b61009761032c565b6040516100a49190610f8d565b60405180910390f35b61007a61033d565b61007a6100c3366004610ece565b610375565b61007a6100d6366004610d15565b6105ea565b60085460405163775cbd8d60e01b815233916001600160a01b03169063775cbd8d9061010b908490600401610f79565b60206040518083038186803b15801561012357600080fd5b505afa158015610137573d6000803e3d6000fd5b505050506040513d601f19601f8201168201806040525081019061015b9190610d69565b6101805760405162461bcd60e51b81526004016101779061102c565b60405180910390fd5b600084815260036020526040808220546007549151633a4396cb60e01b815290929182916001600160a01b0390911690633a4396cb906101c4908690600401610f70565b60006040518083038186803b1580156101dc57600080fd5b505afa1580156101f0573d6000803e3d6000fd5b505050506040513d6000823e601f3d908101601f191682016040526102189190810190610d83565b5050505050925092505060008267ffffffffffffffff16118015610246575060008167ffffffffffffffff16115b6102625760405162461bcd60e51b815260040161017790611073565b60008781526005602090815260408083203380855292529091205488919060ff16156102a05760405162461bcd60e51b815260040161017790610fc7565b6000898152600360205260409020546102bb338b8b8b610636565b6102c8338b8b8b8561076a565b50505050505050505050565b6000546001600160a01b031633146102fe5760405162461bcd60e51b815260040161017790610ffe565b600780546001600160a01b039384166001600160a01b03199182161790915560088054929093169116179055565b6000546001600160a01b0316331490565b6000546001600160a01b031633146103675760405162461bcd60e51b815260040161017790610ffe565b6000546001600160a01b0316ff5b60085460405163775cbd8d60e01b815233916001600160a01b03169063775cbd8d906103a5908490600401610f79565b60206040518083038186803b1580156103bd57600080fd5b505afa1580156103d1573d6000803e3d6000fd5b505050506040513d601f19601f820116820180604052508101906103f59190610d69565b6104115760405162461bcd60e51b81526004016101779061102c565b600754604051633a4396cb60e01b8152859160009182916001600160a01b031690633a4396cb90610446908690600401610f70565b60006040518083038186803b15801561045e57600080fd5b505afa158015610472573d6000803e3d6000fd5b505050506040513d6000823e601f3d908101601f1916820160405261049a9190810190610d83565b5050505050925092505060008267ffffffffffffffff161180156104c8575060008167ffffffffffffffff16115b6104e45760405162461bcd60e51b815260040161017790611073565b60006104f060146109f2565b60028054919250600061050283611157565b9190505550604051806080016040528089815260200188888080601f01602080910402602001604051908101604052809392919081815260200183838082843760009201829052509385525050506020808301859052604092830182905260025482526003815291902082518155828201518051919261058a92600185019290910190610c49565b50604082015181600201556060820151816003015590505080886002547fca9e621fdc96e6f22f70cb156bd2a2070b94f571d304c7fd10de5532b7df07c88a8a6040516105d8929190610f98565b60405180910390a45050505050505050565b6000546001600160a01b031633146106145760405162461bcd60e51b815260040161017790610ffe565b600080546001600160a01b0319166001600160a01b0392909216919091179055565b600083815260036020819052604082200180549161065383611157565b909155505060008381526005602090815260408083206001600160a01b03881684528252808320805460ff191660011790558583526004825280832085845290915281208054916106a383611157565b9091555050600083815260046020908152604080832084845290915281208054916106cd83611157565b90915550506000838152600460209081526040808320858452808352818420548785526006845282852054855292529091205411156107185760008381526006602052604090208290555b6000838152600460209081526040808320848452808352818420548785526006845282852060010154855292529091205411156107645760008381526006602052604090208190600101555b50505050565b6000848152600460209081526040808320600683528184205484529091529020546005118015906107bf5750600084815260046020908152604080832060068352818420600101548452909152902054600511155b1561094d57600754604051633a4396cb60e01b8152600091829182916001600160a01b031690633a4396cb906107f9908790600401610f70565b60006040518083038186803b15801561081157600080fd5b505afa158015610825573d6000803e3d6000fd5b505050506040513d6000823e601f3d908101601f1916820160405261084d9190810190610d83565b9750505050509350935050600061087b888567ffffffffffffffff168567ffffffffffffffff168a8a610a5e565b90506108878183610af2565b886001600160a01b031685897f60e4c6ab84b61f18ee21f952917018d6bfc1c20aa59373ec7cf2d94bd83842f78a8a6040516108c492919061109f565b60405180910390a4847fb4bd258ec42c6067930a0c04b821418ef8a1357290a95e154fecbe7f079f8c48878984604051610900939291906110ad565b60405180910390a2847fe91efb510e8104be9abbfc0d3d33bf17c65044e767c599822ac1be59fabe7f0788888460405161093c939291906110ad565b60405180910390a2505050506109eb565b60008481526003602081905260409091200154600510156109a5576000848152600360205260408082205490519091829187917f7f502fdd694680e3c61a6b1d8efc70881651552e6885a8dafbc874e9da1f12c891a3505b846001600160a01b031681857f60e4c6ab84b61f18ee21f952917018d6bfc1c20aa59373ec7cf2d94bd83842f786866040516109e292919061109f565b60405180910390a45b5050505050565b6000606460015410610a045760006001555b6001805483916000610a1583611157565b90915550610a2390426110ed565b604051602001610a339190610f70565b6040516020818303038152906040528051906020012060001c610a569190611172565b90505b919050565b6000610a6c85858585610bec565b60008781526003602052604090819020546007549151633b5fc92f60e21b8152929350916001600160a01b039091169063ed7f24bc90610ab69084908890889088906004016110c5565b600060405180830381600087803b158015610ad057600080fd5b505af1158015610ae4573d6000803e3d6000fd5b505050505095945050505050565b81610be85760075460408051631a9160d760e31b815290516000926001600160a01b03169163d48b06b8916004808301926020929190829003018186803b158015610b3c57600080fd5b505afa158015610b50573d6000803e3d6000fd5b505050506040513d601f19601f82011682018060405250810190610b749190610eb6565b90506000610b828284610c36565b600754604051630b33771560e01b81529192506001600160a01b031690630b33771590610bb3908490600401610f70565b600060405180830381600087803b158015610bcd57600080fd5b505af1158015610be1573d6000803e3d6000fd5b5050505050505b5050565b600080610bf98484611105565b90506000610c078787611105565b905080610c16610e1084611105565b1115610c2757600192505050610c2e565b6000925050505b949350505050565b6000610c428284611105565b9392505050565b828054610c559061111c565b90600052602060002090601f016020900481019282610c775760008555610cbd565b82601f10610c9057805160ff1916838001178555610cbd565b82800160010185558215610cbd579182015b82811115610cbd578251825591602001919060010190610ca2565b50610cc9929150610ccd565b5090565b5b80821115610cc95760008155600101610cce565b8051610a59816111be565b80518015158114610a5957600080fd5b805167ffffffffffffffff81168114610a5957600080fd5b600060208284031215610d26578081fd5b8135610c42816111be565b60008060408385031215610d43578081fd5b8235610d4e816111be565b91506020830135610d5e816111be565b809150509250929050565b600060208284031215610d7a578081fd5b610c4282610ced565b600080600080600080600080610100898b031215610d9f578384fd5b885167ffffffffffffffff80821115610db6578586fd5b818b0191508b601f830112610dc9578586fd5b815181811115610ddb57610ddb6111a8565b6040516020601f8301601f1916820181018481118382101715610e0057610e006111a8565b60405282825284830181018f1015610e16578889fd5b8893505b82841015610e375784840181015182850182015292830192610e1a565b82841115610e4757888184840101525b819c50610e55818f01610cfd565b9b505050505050610e6860408a01610cfd565b9550610e7660608a01610cfd565b9450610e8460808a01610cfd565b9350610e9260a08a01610ced565b9250610ea060c08a01610ce2565b915060e089015190509295985092959890939650565b600060208284031215610ec7578081fd5b5051919050565b600080600060408486031215610ee2578283fd5b83359250602084013567ffffffffffffffff80821115610f00578384fd5b818601915086601f830112610f13578384fd5b813581811115610f21578485fd5b876020828501011115610f32578485fd5b6020830194508093505050509250925092565b600080600060608486031215610f59578283fd5b505081359360208301359350604090920135919050565b90815260200190565b6001600160a01b0391909116815260200190565b901515815260200190565b60006020825282602083015282846040840137818301604090810191909152601f909201601f19160101919050565b6020808252601b908201527f63616c6c65722068617320616c726561647920616e7377657265640000000000604082015260600190565b60208082526014908201527331b0b63632b91036bab9ba1031329037bbb732b960611b604082015260600190565b60208082526027908201527f63616c6c6572206973206e6f7420616374697661746564206f7261636c6520706040820152663937bb34b232b960c91b606082015260800190565b602080825260129082015271666c69676874206d7573742065786973747360701b604082015260600190565b918252602082015260400190565b92835260208301919091521515604082015260600190565b93845267ffffffffffffffff9283166020850152911660408301521515606082015260800190565b6000821982111561110057611100611192565b500190565b60008282101561111757611117611192565b500390565b60028104600182168061113057607f821691505b6020821081141561115157634e487b7160e01b600052602260045260246000fd5b50919050565b600060001982141561116b5761116b611192565b5060010190565b60008261118d57634e487b7160e01b81526012600452602481fd5b500690565b634e487b7160e01b600052601160045260246000fd5b634e487b7160e01b600052604160045260246000fd5b6001600160a01b03811681146111d357600080fd5b5056fea2646970667358221220c27ccd07467a8bd9d2d26e0b26e455e0be406f9b628fd2163ef3ee8352a0ef4564736f6c63430008000033",
  "immutableReferences": {},
  "source": "// SPDX-License-Identifier: UNLICENSED\npragma solidity ^0.8.00;\n\nimport \"../Ownable/Ownable.sol\";\nimport \"../Random/Random.sol\";\nimport \"./interfaces/IOracleProviderRoleOracle.sol\";\nimport \"./interfaces/IFlightSuretyDataOracle.sol\";\nimport \"@openzeppelin/contracts/utils/math/SafeMath.sol\";\n\ncontract FlightSuretyOracle is Ownable, Random {\n    using SafeMath for uint256;\n    struct Request {\n        uint256 flightID;\n        string flightRef;\n        uint256 activatedIndex;\n        uint256 responseCount;\n    }\n    // consensus is reached after x similar answers\n    uint256 constant ACCEPTED_ANSWER_TRESHOLD = 5;\n    // one hour flight delay\n    uint256 constant AUTHORIZED_FLIGHT_DELAY = 3600;\n    uint256 currentRequestID;\n    mapping(uint256 => Request) requests;\n    mapping(uint256 => mapping(uint256 => uint256)) responses;\n    mapping(uint256 => mapping(address => bool)) responseCallers;\n    mapping(uint256 => uint256[2]) acceptedAnswer;\n    IFlightSuretyDataOracle flightSuretyData;\n    IOracleProviderRoleOracle oracleProviderRole;\n\n    // requests related events\n    event NewRequest(\n        uint256 indexed requestID,\n        uint256 indexed flightID,\n        uint256 indexed activatedIndex,\n        string flightRef\n    );\n    event FailedRequest(uint256 indexed requestID, uint256 indexed flightID);\n    // responses related events\n    event NewResponse(\n        uint256 indexed requestID,\n        uint256 indexed flightID,\n        address indexed oracleProvider,\n        uint256 realDeparture,\n        uint256 realArrival\n    );\n    event AcceptedResponse(\n        uint256 indexed flightID,\n        uint256 realArrival,\n        uint256 realDeparture,\n        bool isLate\n    );\n    // flights related events\n    event UpdatedFlight(\n        uint256 indexed flightID,\n        uint256 realDeparture,\n        uint256 realArrival,\n        bool isLate\n    );\n\n    modifier onlyActivatedOracleProvider(address _caller) {\n        require(\n            oracleProviderRole.isActivatedOracleProvider(_caller),\n            \"caller is not activated oracle provider\"\n        );\n        _;\n    }\n\n    modifier onlySelectedOracleProvider(uint256 _requestID) {\n        uint256[3] memory oracleProvidersIndexes = oracleProviderRole\n            .getOracleProviderIndexes(msg.sender);\n        require(\n            oracleProvidersIndexes[0] == requests[_requestID].activatedIndex ||\n                oracleProvidersIndexes[1] ==\n                requests[_requestID].activatedIndex ||\n                oracleProvidersIndexes[2] ==\n                requests[_requestID].activatedIndex,\n            \"oracle provider indexes must match request indexes\"\n        );\n        _;\n    }\n\n    modifier requireOracleProviderHasNotAnsweredRequest(\n        uint256 requestID,\n        address caller\n    ) {\n        require(\n            !responseCallers[requestID][caller],\n            \"caller has already answered\"\n        );\n        _;\n    }\n\n    modifier requireFlightExists(uint256 _flightID) {\n        (\n            ,\n            uint64 estimatedDeparture,\n            uint64 estimatedArrival,\n            ,\n            ,\n            ,\n            ,\n\n        ) = flightSuretyData.getFlight(_flightID);\n        require(\n            estimatedDeparture > 0 && estimatedArrival > 0,\n            \"flight must exists\"\n        );\n        _;\n    }\n\n    // constructor setting owner and initial authorized caller address aka appAddress\n    constructor() Ownable() {}\n\n    // initialize external contracts addresses\n    function initialize(address _flightSuretyData, address _oracleProviderRole)\n        external\n        onlyOwner\n    {\n        // registering external contracts address\n        flightSuretyData = IFlightSuretyDataOracle(_flightSuretyData);\n        oracleProviderRole = IOracleProviderRoleOracle(_oracleProviderRole);\n    }\n\n    // create a request for a targeted oracle provider subset\n    function createRequest(uint256 _flightID, string calldata _flightRef)\n        external\n        onlyActivatedOracleProvider(msg.sender)\n        requireFlightExists(_flightID)\n    {\n        uint256 _randomIndex = _rand(20);\n        currentRequestID++;\n        requests[currentRequestID] = Request({\n            flightID: _flightID,\n            flightRef: _flightRef,\n            activatedIndex: _randomIndex,\n            responseCount: 0\n        });\n        emit NewRequest(currentRequestID, _flightID, _randomIndex, _flightRef);\n    }\n\n    // update responses to a request and validate the accepted outcome according to multiparty consensus rules\n    function respondToRequest(\n        uint256 _requestID,\n        uint256 _realDeparture,\n        uint256 _realArrival\n    )\n        external\n        onlyActivatedOracleProvider(msg.sender)\n        requireFlightExists(requests[_requestID].flightID)\n        requireOracleProviderHasNotAnsweredRequest(_requestID, msg.sender)\n    {\n        uint256 flightID = requests[_requestID].flightID;\n        _updateResponses(\n            msg.sender,\n            _requestID,\n            _realDeparture,\n            _realArrival\n        );\n        _acceptResponse(\n            msg.sender,\n            _requestID,\n            _realDeparture,\n            _realArrival,\n            flightID\n        );\n    }\n\n    // update responses to a request incrementing each outcomes to decide which response makes consensus among the selected set of oracle provider\n    function _updateResponses(\n        address _caller,\n        uint256 _requestID,\n        uint256 _realDeparture,\n        uint256 _realArrival\n    ) internal {\n        requests[_requestID].responseCount++;\n        responseCallers[_requestID][_caller] = true;\n        responses[_requestID][_realDeparture]++;\n        responses[_requestID][_realArrival]++;\n        if (\n            responses[_requestID][acceptedAnswer[_requestID][0]] >\n            responses[_requestID][_realDeparture]\n        ) {\n            acceptedAnswer[_requestID][0] = _realDeparture;\n        }\n\n        if (\n            responses[_requestID][acceptedAnswer[_requestID][1]] >\n            responses[_requestID][_realArrival]\n        ) {\n            acceptedAnswer[_requestID][1] = _realArrival;\n        }\n    }\n\n    // accept or reject an accepted response as the final one according to a set treshold constant\n    function _acceptResponse(\n        address _caller,\n        uint256 _requestID,\n        uint256 _realDeparture,\n        uint256 _realArrival,\n        uint256 flightID\n    ) internal {\n        if (\n            responses[_requestID][acceptedAnswer[_requestID][0]] >=\n            ACCEPTED_ANSWER_TRESHOLD &&\n            responses[_requestID][acceptedAnswer[_requestID][1]] >=\n            ACCEPTED_ANSWER_TRESHOLD\n        ) {\n            // get flight\n            (\n                ,\n                uint64 _estimatedDeparture,\n                uint64 _estimatedArrival,\n                ,\n                ,\n                ,\n                ,\n                uint256 insuredValue\n            ) = flightSuretyData.getFlight(flightID);\n            // update flight attributes\n            bool _isLate = _updateFlight(\n                _requestID,\n                _estimatedDeparture,\n                _estimatedArrival,\n                _realDeparture,\n                _realArrival\n            );\n            // update total insured value if flight is not late (no funds to cover anymore)\n            _updateTotalInsuredValue(_isLate, insuredValue);\n            emit NewResponse(\n                _requestID,\n                flightID,\n                _caller,\n                _realDeparture,\n                _realArrival\n            );\n            emit AcceptedResponse(\n                flightID,\n                _realArrival,\n                _realDeparture,\n                _isLate\n            );\n            emit UpdatedFlight(flightID, _realDeparture, _realArrival, _isLate);\n        } else {\n            if (requests[_requestID].responseCount > ACCEPTED_ANSWER_TRESHOLD) {\n                uint256 _flightID = requests[_requestID].flightID;\n                emit FailedRequest(_requestID, _flightID);\n            }\n            emit NewResponse(\n                _requestID,\n                flightID,\n                _caller,\n                _realDeparture,\n                _realArrival\n            );\n        }\n    }\n\n    // check if a flight is late\n    function checkFlightIsLate(\n        uint256 _estimatedDeparture,\n        uint256 _estimatedArrival,\n        uint256 _realDeparture,\n        uint256 _realArrival\n    ) internal pure returns (bool isLate) {\n        uint256 realFlightDuration = _realArrival - _realDeparture;\n        uint256 estimatedFlightDuration = _estimatedArrival -\n            _estimatedDeparture;\n        if (\n            realFlightDuration - AUTHORIZED_FLIGHT_DELAY >\n            estimatedFlightDuration\n        ) {\n            return true;\n        } else {\n            return false;\n        }\n    }\n\n    // update flight data\n    function _updateFlight(\n        uint256 _requestID,\n        uint256 _estimatedDeparture,\n        uint256 _estimatedArrival,\n        uint256 _realDeparture,\n        uint256 _realArrival\n    ) internal returns (bool _isLate) {\n        _isLate = checkFlightIsLate(\n            _estimatedDeparture,\n            _estimatedArrival,\n            _realDeparture,\n            _realArrival\n        );\n        uint256 _flightID = requests[_requestID].flightID;\n        flightSuretyData.updateFlight(\n            _flightID,\n            uint64(_realDeparture),\n            uint64(_realArrival),\n            _isLate\n        );\n        return _isLate;\n    }\n\n    // update insured value if flight is not late (no funds to cover anymore)\n    function _updateTotalInsuredValue(bool _isLate, uint256 _flightInsuredValue)\n        internal\n    {\n        if (!_isLate) {\n            uint256 totalInsuredValue = flightSuretyData.getTotalInsuredValue();\n            uint256 newTotalInsuredValue = totalInsuredValue.sub(\n                _flightInsuredValue\n            );\n            flightSuretyData.setTotalInsuredValue(newTotalInsuredValue);\n        }\n    }\n}\n",
  "sourcePath": "/home/tothemoon_/Documents/FlightInsurance/contracts/FlightSuretyOracle/FlightSuretyOracle.sol",
  "compiler": {
    "name": "solc",
    "version": "0.8.0+commit.c7dfd78e.Emscripten.clang"
  },
  "schemaVersion": "3.4.2",
  "updatedAt": "2021-08-14T18:24:26.107Z",
  "networkType": "ethereum",
  "devdoc": {
    "kind": "dev",
    "methods": {},
    "version": 1
  },
  "userdoc": {
    "kind": "user",
    "methods": {},
    "version": 1
  }
}