{
  "contractName": "FlightSuretyOracle",
  "abi": [
    {
      "inputs": [],
      "stateMutability": "nonpayable",
      "type": "constructor"
    },
    {
      "anonymous": false,
      "inputs": [
        {
          "indexed": true,
          "internalType": "uint256",
          "name": "flightID",
          "type": "uint256"
        },
        {
          "indexed": false,
          "internalType": "uint64",
          "name": "realArrival",
          "type": "uint64"
        },
        {
          "indexed": false,
          "internalType": "uint64",
          "name": "realDeparture",
          "type": "uint64"
        },
        {
          "indexed": false,
          "internalType": "bool",
          "name": "isLate",
          "type": "bool"
        }
      ],
      "name": "AcceptedResponse",
      "type": "event"
    },
    {
      "anonymous": false,
      "inputs": [
        {
          "indexed": true,
          "internalType": "uint256",
          "name": "requestID",
          "type": "uint256"
        },
        {
          "indexed": true,
          "internalType": "uint256",
          "name": "flightID",
          "type": "uint256"
        }
      ],
      "name": "FailedRequest",
      "type": "event"
    },
    {
      "anonymous": false,
      "inputs": [
        {
          "indexed": true,
          "internalType": "uint256",
          "name": "requestID",
          "type": "uint256"
        },
        {
          "indexed": true,
          "internalType": "uint256",
          "name": "flightID",
          "type": "uint256"
        },
        {
          "indexed": true,
          "internalType": "uint256",
          "name": "activatedIndex",
          "type": "uint256"
        },
        {
          "indexed": false,
          "internalType": "string",
          "name": "flightRef",
          "type": "string"
        }
      ],
      "name": "NewRequest",
      "type": "event"
    },
    {
      "anonymous": false,
      "inputs": [
        {
          "indexed": true,
          "internalType": "uint256",
          "name": "requestID",
          "type": "uint256"
        },
        {
          "indexed": true,
          "internalType": "uint256",
          "name": "flightID",
          "type": "uint256"
        },
        {
          "indexed": true,
          "internalType": "address",
          "name": "oracleProvider",
          "type": "address"
        },
        {
          "indexed": false,
          "internalType": "uint64",
          "name": "realDeparture",
          "type": "uint64"
        },
        {
          "indexed": false,
          "internalType": "uint64",
          "name": "realArrival",
          "type": "uint64"
        }
      ],
      "name": "NewResponse",
      "type": "event"
    },
    {
      "anonymous": false,
      "inputs": [
        {
          "indexed": true,
          "internalType": "uint256",
          "name": "flightID",
          "type": "uint256"
        },
        {
          "indexed": false,
          "internalType": "uint64",
          "name": "realDeparture",
          "type": "uint64"
        },
        {
          "indexed": false,
          "internalType": "uint64",
          "name": "realArrival",
          "type": "uint64"
        },
        {
          "indexed": false,
          "internalType": "bool",
          "name": "isLate",
          "type": "bool"
        }
      ],
      "name": "UpdatedFlight",
      "type": "event"
    },
    {
      "inputs": [],
      "name": "ACCEPTED_ANSWER_TRESHOLD",
      "outputs": [
        {
          "internalType": "uint256",
          "name": "",
          "type": "uint256"
        }
      ],
      "stateMutability": "view",
      "type": "function",
      "constant": true
    },
    {
      "inputs": [],
      "name": "AUTHORIZED_FLIGHT_DELAY",
      "outputs": [
        {
          "internalType": "uint64",
          "name": "",
          "type": "uint64"
        }
      ],
      "stateMutability": "view",
      "type": "function",
      "constant": true
    },
    {
      "inputs": [],
      "name": "destructContract",
      "outputs": [],
      "stateMutability": "nonpayable",
      "type": "function"
    },
    {
      "inputs": [],
      "name": "isOwner",
      "outputs": [
        {
          "internalType": "bool",
          "name": "_isOwner",
          "type": "bool"
        }
      ],
      "stateMutability": "view",
      "type": "function",
      "constant": true
    },
    {
      "inputs": [
        {
          "internalType": "address",
          "name": "_newOwner",
          "type": "address"
        }
      ],
      "name": "transferOwnership",
      "outputs": [],
      "stateMutability": "nonpayable",
      "type": "function"
    },
    {
      "inputs": [
        {
          "internalType": "address",
          "name": "_flightSuretyData",
          "type": "address"
        },
        {
          "internalType": "address",
          "name": "_oracleProviderRole",
          "type": "address"
        }
      ],
      "name": "initialize",
      "outputs": [],
      "stateMutability": "nonpayable",
      "type": "function"
    },
    {
      "inputs": [
        {
          "internalType": "uint256",
          "name": "_flightID",
          "type": "uint256"
        },
        {
          "internalType": "string",
          "name": "_flightRef",
          "type": "string"
        }
      ],
      "name": "createRequest",
      "outputs": [],
      "stateMutability": "nonpayable",
      "type": "function"
    },
    {
      "inputs": [
        {
          "internalType": "uint256",
          "name": "_requestID",
          "type": "uint256"
        },
        {
          "internalType": "uint64",
          "name": "_realDeparture",
          "type": "uint64"
        },
        {
          "internalType": "uint64",
          "name": "_realArrival",
          "type": "uint64"
        }
      ],
      "name": "respondToRequest",
      "outputs": [],
      "stateMutability": "nonpayable",
      "type": "function"
    }
  ],
  "bytecode": "0x608060405234801561001057600080fd5b50600080546001600160a01b03191633179055611387806100326000396000f3fe608060405234801561001057600080fd5b50600436106100885760003560e01c80639499e0181161005b5780639499e018146100e8578063cadddd7d146100f0578063f2fde38b14610103578063fa78a4031461011657610088565b80634642d2671461008d578063485cc955146100a25780636667761e146100b55780638f32d59b146100d3575b600080fd5b6100a061009b36600461103f565b61012b565b005b6100a06100b0366004610e2d565b610322565b6100bd61037a565b6040516100ca91906111d6565b60405180910390f35b6100db610380565b6040516100ca919061109d565b6100a0610391565b6100a06100fe366004610fc9565b6103c9565b6100a0610111366004610e11565b61063c565b61011e610688565b6040516100ca9190611080565b60085460405163775cbd8d60e01b815233916001600160a01b03169063775cbd8d9061015b908490600401611089565b60206040518083038186803b15801561017357600080fd5b505afa158015610187573d6000803e3d6000fd5b505050506040513d601f19601f820116820180604052508101906101ab9190610e65565b6101d05760405162461bcd60e51b81526004016101c79061113c565b60405180910390fd5b600084815260036020526040808220546007549151633a4396cb60e01b815290929182916001600160a01b0390911690633a4396cb90610214908690600401611080565b60006040518083038186803b15801561022c57600080fd5b505afa158015610240573d6000803e3d6000fd5b505050506040513d6000823e601f3d908101601f191682016040526102689190810190610e7f565b505050505092509250506000826001600160401b031611801561029457506000816001600160401b0316115b6102b05760405162461bcd60e51b81526004016101c790611183565b60008781526005602090815260408083203380855292529091205488919060ff16156102ee5760405162461bcd60e51b81526004016101c7906110d7565b600089815260036020526040902054610309338b8b8b61068d565b610316338b8b8b85610888565b50505050505050505050565b6000546001600160a01b0316331461034c5760405162461bcd60e51b81526004016101c79061110e565b600780546001600160a01b039384166001600160a01b03199182161790915560088054929093169116179055565b610e1081565b6000546001600160a01b0316331490565b6000546001600160a01b031633146103bb5760405162461bcd60e51b81526004016101c79061110e565b6000546001600160a01b0316ff5b60085460405163775cbd8d60e01b815233916001600160a01b03169063775cbd8d906103f9908490600401611089565b60206040518083038186803b15801561041157600080fd5b505afa158015610425573d6000803e3d6000fd5b505050506040513d601f19601f820116820180604052508101906104499190610e65565b6104655760405162461bcd60e51b81526004016101c79061113c565b600754604051633a4396cb60e01b8152859160009182916001600160a01b031690633a4396cb9061049a908690600401611080565b60006040518083038186803b1580156104b257600080fd5b505afa1580156104c6573d6000803e3d6000fd5b505050506040513d6000823e601f3d908101601f191682016040526104ee9190810190610e7f565b505050505092509250506000826001600160401b031611801561051a57506000816001600160401b0316115b6105365760405162461bcd60e51b81526004016101c790611183565b60006105426005610b0f565b600280549192506000610554836112bd565b9190505550604051806080016040528089815260200188888080601f0160208091040260200160405190810160405280939291908181526020018383808284376000920182905250938552505050602080830185905260409283018290526002548252600381529190208251815582820151805191926105dc92600185019290910190610d52565b50604082015181600201556060820151816003015590505080886002547fca9e621fdc96e6f22f70cb156bd2a2070b94f571d304c7fd10de5532b7df07c88a8a60405161062a9291906110a8565b60405180910390a45050505050505050565b6000546001600160a01b031633146106665760405162461bcd60e51b81526004016101c79061110e565b600080546001600160a01b0319166001600160a01b0392909216919091179055565b600281565b60008381526003602081905260408220018054916106aa836112bd565b909155505060008381526005602090815260408083206001600160a01b03881684528252808320805460ff19166001179055858352600482528083206001600160401b03861684529091528120805491610703836112bd565b909155505060008381526004602090815260408083206001600160401b03851684529091528120805491610736836112bd565b90915550506000838152600660205260409020546001600160401b031661079e57600083815260066020526040902080546001600160401b03838116600160401b0267ffffffffffffffff60401b1991861667ffffffffffffffff1990931692909217161790555b60008381526004602090815260408083206001600160401b03868116855281845282852054888652600685528386205490911685529252909120541115610808576000838152600660205260409020805467ffffffffffffffff19166001600160401b0384161790555b60008381526004602090815260408083206001600160401b038581168552818452828520548886526006855283862054600160401b900490911685529252909120541115610882576000838152600660205260409020805467ffffffffffffffff60401b1916600160401b6001600160401b038416021790555b50505050565b600084815260046020908152604080832060068352818420546001600160401b031684529091529020546002118015906108f3575060008481526004602090815260408083206006835281842054600160401b90046001600160401b03168452909152902054600211155b15610a6a57600754604051633a4396cb60e01b815260009182916001600160a01b0390911690633a4396cb9061092d908690600401611080565b60006040518083038186803b15801561094557600080fd5b505afa158015610959573d6000803e3d6000fd5b505050506040513d6000823e601f3d908101601f191682016040526109819190810190610e7f565b97505050505093505050600061099987848888610b7b565b90506109a58183610c0c565b876001600160a01b031684887f6df3b5fe0784f75088290e5600d09ae7171e7fe10b267a42c174adec3347240e89896040516109e29291906111ea565b60405180910390a4837f6dc1daabe93cf7db34702c320e2bad8c3ce355c88a708ea8fdd236309b8eb2ee868884604051610a1e93929190611204565b60405180910390a2837fc836efc6512c31c528bdba0acef435557e48c3ddbe83ef5ac1b6386fc4fd5749878784604051610a5a93929190611204565b60405180910390a2505050610b08565b6000848152600360208190526040909120015460021015610ac2576000848152600360205260408082205490519091829187917f7f502fdd694680e3c61a6b1d8efc70881651552e6885a8dafbc874e9da1f12c891a3505b846001600160a01b031681857f6df3b5fe0784f75088290e5600d09ae7171e7fe10b267a42c174adec3347240e8686604051610aff9291906111ea565b60405180910390a45b5050505050565b6000606460015410610b215760006001555b6001805483916000610b32836112bd565b90915550610b409042611228565b604051602001610b509190611080565b6040516020818303038152906040528051906020012060001c610b7391906112d8565b90505b919050565b6000610b878483610d06565b60008681526003602052604090819020546007549151633b5fc92f60e21b8152929350916001600160a01b039091169063ed7f24bc90610bd19084908890889088906004016111af565b600060405180830381600087803b158015610beb57600080fd5b505af1158015610bff573d6000803e3d6000fd5b5050505050949350505050565b81610d025760075460408051631a9160d760e31b815290516000926001600160a01b03169163d48b06b8916004808301926020929190829003018186803b158015610c5657600080fd5b505afa158015610c6a573d6000803e3d6000fd5b505050506040513d601f19601f82011682018060405250810190610c8e9190610fb1565b90506000610c9c8284610d3f565b600754604051630b33771560e01b81529192506001600160a01b031690630b33771590610ccd908490600401611080565b600060405180830381600087803b158015610ce757600080fd5b505af1158015610cfb573d6000803e3d6000fd5b5050505050505b5050565b6000610d14610e1084611240565b6001600160401b0316826001600160401b03161115610d3557506001610d39565b5060005b92915050565b6000610d4b828461126b565b9392505050565b828054610d5e90611282565b90600052602060002090601f016020900481019282610d805760008555610dc6565b82601f10610d9957805160ff1916838001178555610dc6565b82800160010185558215610dc6579182015b82811115610dc6578251825591602001919060010190610dab565b50610dd2929150610dd6565b5090565b5b80821115610dd25760008155600101610dd7565b8051610b7681611324565b80518015158114610b7657600080fd5b8051610b768161133c565b600060208284031215610e22578081fd5b8135610d4b81611324565b60008060408385031215610e3f578081fd5b8235610e4a81611324565b91506020830135610e5a81611324565b809150509250929050565b600060208284031215610e76578081fd5b610d4b82610df6565b600080600080600080600080610100898b031215610e9b578384fd5b88516001600160401b0380821115610eb1578586fd5b818b0191508b601f830112610ec4578586fd5b815181811115610ed657610ed661130e565b6040516020601f8301601f1916820181018481118382101715610efb57610efb61130e565b60405282825284830181018f1015610f11578889fd5b8893505b82841015610f325784840181015182850182015292830192610f15565b82841115610f4257888184840101525b819c50610f50818f01610e06565b9b505050505050610f6360408a01610e06565b9550610f7160608a01610e06565b9450610f7f60808a01610e06565b9350610f8d60a08a01610df6565b9250610f9b60c08a01610deb565b915060e089015190509295985092959890939650565b600060208284031215610fc2578081fd5b5051919050565b600080600060408486031215610fdd578283fd5b8335925060208401356001600160401b0380821115610ffa578384fd5b818601915086601f83011261100d578384fd5b81358181111561101b578485fd5b87602082850101111561102c578485fd5b6020830194508093505050509250925092565b600080600060608486031215611053578283fd5b8335925060208401356110658161133c565b915060408401356110758161133c565b809150509250925092565b90815260200190565b6001600160a01b0391909116815260200190565b901515815260200190565b60006020825282602083015282846040840137818301604090810191909152601f909201601f19160101919050565b6020808252601b908201527f63616c6c65722068617320616c726561647920616e7377657265640000000000604082015260600190565b60208082526014908201527331b0b63632b91036bab9ba1031329037bbb732b960611b604082015260600190565b60208082526027908201527f63616c6c6572206973206e6f7420616374697661746564206f7261636c6520706040820152663937bb34b232b960c91b606082015260800190565b602080825260129082015271666c69676874206d7573742065786973747360701b604082015260600190565b9384526001600160401b039283166020850152911660408301521515606082015260800190565b6001600160401b0391909116815260200190565b6001600160401b0392831681529116602082015260400190565b6001600160401b039384168152919092166020820152901515604082015260600190565b6000821982111561123b5761123b6112f8565b500190565b60006001600160401b03808316818516808303821115611262576112626112f8565b01949350505050565b60008282101561127d5761127d6112f8565b500390565b60028104600182168061129657607f821691505b602082108114156112b757634e487b7160e01b600052602260045260246000fd5b50919050565b60006000198214156112d1576112d16112f8565b5060010190565b6000826112f357634e487b7160e01b81526012600452602481fd5b500690565b634e487b7160e01b600052601160045260246000fd5b634e487b7160e01b600052604160045260246000fd5b6001600160a01b038116811461133957600080fd5b50565b6001600160401b038116811461133957600080fdfea2646970667358221220e03014a4a03adbafe049fa683460b04d0ed9435b2f322b6fc4177cba56191f4d64736f6c63430008000033",
  "immutableReferences": {},
  "source": "// SPDX-License-Identifier: UNLICENSED\npragma solidity ^0.8.00;\n\nimport \"../Ownable/Ownable.sol\";\nimport \"../Random/Random.sol\";\nimport \"./interfaces/IOracleProviderRoleOracle.sol\";\nimport \"./interfaces/IFlightSuretyDataOracle.sol\";\nimport \"@openzeppelin/contracts/utils/math/SafeMath.sol\";\n\ncontract FlightSuretyOracle is Ownable, Random {\n    using SafeMath for uint256;\n    struct Request {\n        uint256 flightID;\n        string flightRef;\n        uint256 activatedIndex;\n        uint256 responseCount;\n    }\n    // consensus is reached after x similar answers\n    uint256 public constant ACCEPTED_ANSWER_TRESHOLD = 2;\n    // one hour flight delay = 3600 block\n    uint64 public constant AUTHORIZED_FLIGHT_DELAY = 3600;\n    uint256 currentRequestID;\n    mapping(uint256 => Request) requests;\n    mapping(uint256 => mapping(uint64 => uint256)) responses;\n    mapping(uint256 => mapping(address => bool)) responseCallers;\n    mapping(uint256 => uint64[2]) acceptedAnswer;\n    IFlightSuretyDataOracle flightSuretyData;\n    IOracleProviderRoleOracle oracleProviderRole;\n\n    // requests related events\n    event NewRequest(\n        uint256 indexed requestID,\n        uint256 indexed flightID,\n        uint256 indexed activatedIndex,\n        string flightRef\n    );\n    event FailedRequest(uint256 indexed requestID, uint256 indexed flightID);\n    // responses related events\n    event NewResponse(\n        uint256 indexed requestID,\n        uint256 indexed flightID,\n        address indexed oracleProvider,\n        uint64 realDeparture,\n        uint64 realArrival\n    );\n    event AcceptedResponse(\n        uint256 indexed flightID,\n        uint64 realArrival,\n        uint64 realDeparture,\n        bool isLate\n    );\n    // flights related events\n    event UpdatedFlight(\n        uint256 indexed flightID,\n        uint64 realDeparture,\n        uint64 realArrival,\n        bool isLate\n    );\n\n    modifier onlyActivatedOracleProvider(address _caller) {\n        require(\n            oracleProviderRole.isActivatedOracleProvider(_caller),\n            \"caller is not activated oracle provider\"\n        );\n        _;\n    }\n\n    modifier onlySelectedOracleProvider(uint256 _requestID) {\n        uint256[3] memory oracleProvidersIndexes = oracleProviderRole\n            .getOracleProviderIndexes(msg.sender);\n        require(\n            oracleProvidersIndexes[0] == requests[_requestID].activatedIndex ||\n                oracleProvidersIndexes[1] ==\n                requests[_requestID].activatedIndex ||\n                oracleProvidersIndexes[2] ==\n                requests[_requestID].activatedIndex,\n            \"oracle provider indexes must match request indexes\"\n        );\n        _;\n    }\n\n    modifier requireOracleProviderHasNotAnsweredRequest(\n        uint256 requestID,\n        address caller\n    ) {\n        require(\n            !responseCallers[requestID][caller],\n            \"caller has already answered\"\n        );\n        _;\n    }\n\n    modifier requireFlightExists(uint256 _flightID) {\n        (\n            ,\n            uint64 estimatedDeparture,\n            uint64 estimatedArrival,\n            ,\n            ,\n            ,\n            ,\n\n        ) = flightSuretyData.getFlight(_flightID);\n        require(\n            estimatedDeparture > 0 && estimatedArrival > 0,\n            \"flight must exists\"\n        );\n        _;\n    }\n\n    // constructor setting owner and initial authorized caller address aka appAddress\n    constructor() Ownable() {}\n\n    // initialize external contracts addresses\n    function initialize(address _flightSuretyData, address _oracleProviderRole)\n        external\n        onlyOwner\n    {\n        // registering external contracts address\n        flightSuretyData = IFlightSuretyDataOracle(_flightSuretyData);\n        oracleProviderRole = IOracleProviderRoleOracle(_oracleProviderRole);\n    }\n\n    // create a request for a targeted oracle provider subset\n    function createRequest(uint256 _flightID, string calldata _flightRef)\n        external\n        onlyActivatedOracleProvider(msg.sender)\n        requireFlightExists(_flightID)\n    {\n        uint256 _randomIndex = _rand(5);\n        currentRequestID++;\n        requests[currentRequestID] = Request({\n            flightID: _flightID,\n            flightRef: _flightRef,\n            activatedIndex: _randomIndex,\n            responseCount: 0\n        });\n        emit NewRequest(currentRequestID, _flightID, _randomIndex, _flightRef);\n    }\n\n    // update responses to a request and validate the accepted outcome according to multiparty consensus rules\n    function respondToRequest(\n        uint256 _requestID,\n        uint64 _realDeparture,\n        uint64 _realArrival\n    )\n        external\n        onlyActivatedOracleProvider(msg.sender)\n        requireFlightExists(requests[_requestID].flightID)\n        requireOracleProviderHasNotAnsweredRequest(_requestID, msg.sender)\n    {\n        uint256 flightID = requests[_requestID].flightID;\n        _updateResponses(msg.sender, _requestID, _realDeparture, _realArrival);\n        _acceptResponse(\n            msg.sender,\n            _requestID,\n            _realDeparture,\n            _realArrival,\n            flightID\n        );\n    }\n\n    // update responses to a request incrementing each outcomes to decide which response makes consensus among the selected set of oracle provider\n    function _updateResponses(\n        address _caller,\n        uint256 _requestID,\n        uint64 _realDeparture,\n        uint64 _realArrival\n    ) internal {\n        // increment response count related to request\n        requests[_requestID].responseCount++;\n        // set caller of a request to msg.sender to forbid multi call for a single request\n        responseCallers[_requestID][_caller] = true;\n        // set the proposed real departure field of a request id an count agreement + 1\n        responses[_requestID][_realDeparture]++;\n        // set the proposed real arrival field of a request id an count agreement + 1\n        responses[_requestID][_realArrival]++;\n        // if first response to a request set it as the accepted answer\n        if (acceptedAnswer[_requestID][0] == 0) {\n            acceptedAnswer[_requestID][0] = _realDeparture;\n            acceptedAnswer[_requestID][1] = _realArrival;\n        }\n        // change the accepted answers according to the oracle call\n        if (\n            responses[_requestID][acceptedAnswer[_requestID][0]] >\n            responses[_requestID][_realDeparture]\n        ) {\n            acceptedAnswer[_requestID][0] = _realDeparture;\n        }\n\n        if (\n            responses[_requestID][acceptedAnswer[_requestID][1]] >\n            responses[_requestID][_realArrival]\n        ) {\n            acceptedAnswer[_requestID][1] = _realArrival;\n        }\n    }\n\n    // accept or reject an accepted response as the final one according to a set treshold constant\n    function _acceptResponse(\n        address _caller,\n        uint256 _requestID,\n        uint64 _realDeparture,\n        uint64 _realArrival,\n        uint256 flightID\n    ) internal {\n        // check if consensus treshold on the accepted answer (the most present data) is reached\n        if (\n            responses[_requestID][acceptedAnswer[_requestID][0]] >=\n            ACCEPTED_ANSWER_TRESHOLD &&\n            responses[_requestID][acceptedAnswer[_requestID][1]] >=\n            ACCEPTED_ANSWER_TRESHOLD\n        ) {\n            // get flight\n            (\n                ,\n                ,\n                uint64 _estimatedArrival,\n                ,\n                ,\n                ,\n                ,\n                uint256 insuredValue\n            ) = flightSuretyData.getFlight(flightID);\n            // update flight attributes\n            bool _isLate = _updateFlight(\n                _requestID,\n                _estimatedArrival,\n                _realDeparture,\n                _realArrival\n            );\n            // update total insured value if flight is not late (no funds to cover anymore)\n            _updateTotalInsuredValue(_isLate, insuredValue);\n            emit NewResponse(\n                _requestID,\n                flightID,\n                _caller,\n                _realDeparture,\n                _realArrival\n            );\n            emit AcceptedResponse(\n                flightID,\n                _realArrival,\n                _realDeparture,\n                _isLate\n            );\n            emit UpdatedFlight(flightID, _realDeparture, _realArrival, _isLate);\n        } else {\n            if (requests[_requestID].responseCount > ACCEPTED_ANSWER_TRESHOLD) {\n                uint256 _flightID = requests[_requestID].flightID;\n                emit FailedRequest(_requestID, _flightID);\n            }\n            emit NewResponse(\n                _requestID,\n                flightID,\n                _caller,\n                _realDeparture,\n                _realArrival\n            );\n        }\n    }\n\n    // check if a flight is late\n    function checkFlightIsLate(\n        uint64 _estimatedArrival,\n        uint64 _realArrival\n    ) internal pure returns (bool isLate) {\n        if (_realArrival > _estimatedArrival + AUTHORIZED_FLIGHT_DELAY) {\n            return true;\n        } else {\n            return false;\n        }\n    }\n\n    // update flight data\n    function _updateFlight(\n        uint256 _requestID,\n        uint64 _estimatedArrival,\n        uint64 _realDeparture,\n        uint64 _realArrival\n    ) internal returns (bool _isLate) {\n        _isLate = checkFlightIsLate(\n            _estimatedArrival,\n            _realArrival\n        );\n        uint256 _flightID = requests[_requestID].flightID;\n        flightSuretyData.updateFlight(\n            _flightID,\n            _realDeparture,\n            _realArrival,\n            _isLate\n        );\n        return _isLate;\n    }\n\n    // update insured value if flight is not late (no funds to cover anymore)\n    function _updateTotalInsuredValue(bool _isLate, uint256 _flightInsuredValue)\n        internal\n    {\n        if (!_isLate) {\n            uint256 totalInsuredValue = flightSuretyData.getTotalInsuredValue();\n            uint256 newTotalInsuredValue = totalInsuredValue.sub(\n                _flightInsuredValue\n            );\n            flightSuretyData.setTotalInsuredValue(newTotalInsuredValue);\n        }\n    }\n}\n",
  "sourcePath": "/home/tothemoon_/Documents/FlightInsurance/contracts/FlightSuretyOracle/FlightSuretyOracle.sol",
  "compiler": {
    "name": "solc",
    "version": "0.8.0+commit.c7dfd78e.Emscripten.clang"
  },
  "schemaVersion": "3.4.2",
  "updatedAt": "2021-08-15T19:24:32.956Z",
  "networkType": "ethereum",
  "devdoc": {
    "kind": "dev",
    "methods": {},
    "version": 1
  },
  "userdoc": {
    "kind": "user",
    "methods": {},
    "version": 1
  }
}