{
  "contractName": "FlightSuretyOracle",
  "abi": [
    {
      "inputs": [],
      "stateMutability": "nonpayable",
      "type": "constructor"
    },
    {
      "anonymous": false,
      "inputs": [
        {
          "indexed": true,
          "internalType": "uint256",
          "name": "flightID",
          "type": "uint256"
        },
        {
          "indexed": false,
          "internalType": "uint256",
          "name": "realArrival",
          "type": "uint256"
        },
        {
          "indexed": false,
          "internalType": "uint256",
          "name": "realDeparture",
          "type": "uint256"
        },
        {
          "indexed": false,
          "internalType": "bool",
          "name": "isLate",
          "type": "bool"
        }
      ],
      "name": "AcceptedResponse",
      "type": "event"
    },
    {
      "anonymous": false,
      "inputs": [
        {
          "indexed": true,
          "internalType": "uint256",
          "name": "requestID",
          "type": "uint256"
        },
        {
          "indexed": true,
          "internalType": "uint256",
          "name": "flightID",
          "type": "uint256"
        }
      ],
      "name": "FailedRequest",
      "type": "event"
    },
    {
      "anonymous": false,
      "inputs": [
        {
          "indexed": true,
          "internalType": "uint256",
          "name": "requestID",
          "type": "uint256"
        },
        {
          "indexed": true,
          "internalType": "uint256",
          "name": "flightID",
          "type": "uint256"
        },
        {
          "indexed": true,
          "internalType": "uint256",
          "name": "activatedIndex",
          "type": "uint256"
        },
        {
          "indexed": false,
          "internalType": "string",
          "name": "flightRef",
          "type": "string"
        }
      ],
      "name": "NewRequest",
      "type": "event"
    },
    {
      "anonymous": false,
      "inputs": [
        {
          "indexed": true,
          "internalType": "uint256",
          "name": "requestID",
          "type": "uint256"
        },
        {
          "indexed": true,
          "internalType": "uint256",
          "name": "flightID",
          "type": "uint256"
        },
        {
          "indexed": true,
          "internalType": "address",
          "name": "oracleProvider",
          "type": "address"
        },
        {
          "indexed": false,
          "internalType": "uint256",
          "name": "realDeparture",
          "type": "uint256"
        },
        {
          "indexed": false,
          "internalType": "uint256",
          "name": "realArrival",
          "type": "uint256"
        }
      ],
      "name": "NewResponse",
      "type": "event"
    },
    {
      "anonymous": false,
      "inputs": [
        {
          "indexed": true,
          "internalType": "uint256",
          "name": "flightID",
          "type": "uint256"
        },
        {
          "indexed": false,
          "internalType": "uint256",
          "name": "realDeparture",
          "type": "uint256"
        },
        {
          "indexed": false,
          "internalType": "uint256",
          "name": "realArrival",
          "type": "uint256"
        },
        {
          "indexed": false,
          "internalType": "bool",
          "name": "isLate",
          "type": "bool"
        }
      ],
      "name": "UpdatedFlight",
      "type": "event"
    },
    {
      "inputs": [],
      "name": "ACCEPTED_ANSWER_TRESHOLD",
      "outputs": [
        {
          "internalType": "uint256",
          "name": "",
          "type": "uint256"
        }
      ],
      "stateMutability": "view",
      "type": "function",
      "constant": true
    },
    {
      "inputs": [],
      "name": "AUTHORIZED_FLIGHT_DELAY",
      "outputs": [
        {
          "internalType": "uint256",
          "name": "",
          "type": "uint256"
        }
      ],
      "stateMutability": "view",
      "type": "function",
      "constant": true
    },
    {
      "inputs": [],
      "name": "destructContract",
      "outputs": [],
      "stateMutability": "nonpayable",
      "type": "function"
    },
    {
      "inputs": [],
      "name": "isOwner",
      "outputs": [
        {
          "internalType": "bool",
          "name": "_isOwner",
          "type": "bool"
        }
      ],
      "stateMutability": "view",
      "type": "function",
      "constant": true
    },
    {
      "inputs": [
        {
          "internalType": "address",
          "name": "_newOwner",
          "type": "address"
        }
      ],
      "name": "transferOwnership",
      "outputs": [],
      "stateMutability": "nonpayable",
      "type": "function"
    },
    {
      "inputs": [
        {
          "internalType": "address",
          "name": "_flightSuretyData",
          "type": "address"
        },
        {
          "internalType": "address",
          "name": "_oracleProviderRole",
          "type": "address"
        }
      ],
      "name": "initialize",
      "outputs": [],
      "stateMutability": "nonpayable",
      "type": "function"
    },
    {
      "inputs": [
        {
          "internalType": "uint256",
          "name": "_flightID",
          "type": "uint256"
        },
        {
          "internalType": "string",
          "name": "_flightRef",
          "type": "string"
        }
      ],
      "name": "createRequest",
      "outputs": [],
      "stateMutability": "nonpayable",
      "type": "function"
    },
    {
      "inputs": [
        {
          "internalType": "uint256",
          "name": "_requestID",
          "type": "uint256"
        },
        {
          "internalType": "uint256",
          "name": "_realDeparture",
          "type": "uint256"
        },
        {
          "internalType": "uint256",
          "name": "_realArrival",
          "type": "uint256"
        }
      ],
      "name": "respondToRequest",
      "outputs": [],
      "stateMutability": "nonpayable",
      "type": "function"
    }
  ],
  "bytecode": "0x608060405234801561001057600080fd5b50600080546001600160a01b0319163317905561125a806100326000396000f3fe608060405234801561001057600080fd5b50600436106100885760003560e01c80639499e0181161005b5780639499e018146100e8578063cadddd7d146100f0578063f2fde38b14610103578063fa78a4031461011657610088565b80633cc7a3471461008d578063485cc955146100a25780636667761e146100b55780638f32d59b146100d3575b600080fd5b6100a061009b366004610f93565b61011e565b005b6100a06100b0366004610d7f565b610317565b6100bd61036f565b6040516100ca9190610fbe565b60405180910390f35b6100db610375565b6040516100ca9190610fdb565b6100a0610386565b6100a06100fe366004610f1c565b6103be565b6100a0610111366004610d63565b610633565b6100bd61067f565b60085460405163775cbd8d60e01b815233916001600160a01b03169063775cbd8d9061014e908490600401610fc7565b60206040518083038186803b15801561016657600080fd5b505afa15801561017a573d6000803e3d6000fd5b505050506040513d601f19601f8201168201806040525081019061019e9190610db7565b6101c35760405162461bcd60e51b81526004016101ba9061107a565b60405180910390fd5b600084815260036020526040808220546007549151633a4396cb60e01b815290929182916001600160a01b0390911690633a4396cb90610207908690600401610fbe565b60006040518083038186803b15801561021f57600080fd5b505afa158015610233573d6000803e3d6000fd5b505050506040513d6000823e601f3d908101601f1916820160405261025b9190810190610dd1565b5050505050925092505060008267ffffffffffffffff16118015610289575060008167ffffffffffffffff16115b6102a55760405162461bcd60e51b81526004016101ba906110c1565b60008781526005602090815260408083203380855292529091205488919060ff16156102e35760405162461bcd60e51b81526004016101ba90611015565b6000898152600360205260409020546102fe338b8b8b610684565b61030b338b8b8b856107b8565b50505050505050505050565b6000546001600160a01b031633146103415760405162461bcd60e51b81526004016101ba9061104c565b600780546001600160a01b039384166001600160a01b03199182161790915560088054929093169116179055565b610e1081565b6000546001600160a01b0316331490565b6000546001600160a01b031633146103b05760405162461bcd60e51b81526004016101ba9061104c565b6000546001600160a01b0316ff5b60085460405163775cbd8d60e01b815233916001600160a01b03169063775cbd8d906103ee908490600401610fc7565b60206040518083038186803b15801561040657600080fd5b505afa15801561041a573d6000803e3d6000fd5b505050506040513d601f19601f8201168201806040525081019061043e9190610db7565b61045a5760405162461bcd60e51b81526004016101ba9061107a565b600754604051633a4396cb60e01b8152859160009182916001600160a01b031690633a4396cb9061048f908690600401610fbe565b60006040518083038186803b1580156104a757600080fd5b505afa1580156104bb573d6000803e3d6000fd5b505050506040513d6000823e601f3d908101601f191682016040526104e39190810190610dd1565b5050505050925092505060008267ffffffffffffffff16118015610511575060008167ffffffffffffffff16115b61052d5760405162461bcd60e51b81526004016101ba906110c1565b60006105396014610a40565b60028054919250600061054b836111a5565b9190505550604051806080016040528089815260200188888080601f0160208091040260200160405190810160405280939291908181526020018383808284376000920182905250938552505050602080830185905260409283018290526002548252600381529190208251815582820151805191926105d392600185019290910190610c97565b50604082015181600201556060820151816003015590505080886002547fca9e621fdc96e6f22f70cb156bd2a2070b94f571d304c7fd10de5532b7df07c88a8a604051610621929190610fe6565b60405180910390a45050505050505050565b6000546001600160a01b0316331461065d5760405162461bcd60e51b81526004016101ba9061104c565b600080546001600160a01b0319166001600160a01b0392909216919091179055565b600281565b60008381526003602081905260408220018054916106a1836111a5565b909155505060008381526005602090815260408083206001600160a01b03881684528252808320805460ff191660011790558583526004825280832085845290915281208054916106f1836111a5565b90915550506000838152600460209081526040808320848452909152812080549161071b836111a5565b90915550506000838152600460209081526040808320858452808352818420548785526006845282852054855292529091205411156107665760008381526006602052604090208290555b6000838152600460209081526040808320848452808352818420548785526006845282852060010154855292529091205411156107b25760008381526006602052604090208190600101555b50505050565b60008481526004602090815260408083206006835281842054845290915290205460021180159061080d5750600084815260046020908152604080832060068352818420600101548452909152902054600211155b1561099b57600754604051633a4396cb60e01b8152600091829182916001600160a01b031690633a4396cb90610847908790600401610fbe565b60006040518083038186803b15801561085f57600080fd5b505afa158015610873573d6000803e3d6000fd5b505050506040513d6000823e601f3d908101601f1916820160405261089b9190810190610dd1565b975050505050935093505060006108c9888567ffffffffffffffff168567ffffffffffffffff168a8a610aac565b90506108d58183610b40565b886001600160a01b031685897f60e4c6ab84b61f18ee21f952917018d6bfc1c20aa59373ec7cf2d94bd83842f78a8a6040516109129291906110ed565b60405180910390a4847fb4bd258ec42c6067930a0c04b821418ef8a1357290a95e154fecbe7f079f8c4887898460405161094e939291906110fb565b60405180910390a2847fe91efb510e8104be9abbfc0d3d33bf17c65044e767c599822ac1be59fabe7f0788888460405161098a939291906110fb565b60405180910390a250505050610a39565b60008481526003602081905260409091200154600210156109f3576000848152600360205260408082205490519091829187917f7f502fdd694680e3c61a6b1d8efc70881651552e6885a8dafbc874e9da1f12c891a3505b846001600160a01b031681857f60e4c6ab84b61f18ee21f952917018d6bfc1c20aa59373ec7cf2d94bd83842f78686604051610a309291906110ed565b60405180910390a45b5050505050565b6000606460015410610a525760006001555b6001805483916000610a63836111a5565b90915550610a71904261113b565b604051602001610a819190610fbe565b6040516020818303038152906040528051906020012060001c610aa491906111c0565b90505b919050565b6000610aba85858585610c3a565b60008781526003602052604090819020546007549151633b5fc92f60e21b8152929350916001600160a01b039091169063ed7f24bc90610b04908490889088908890600401611113565b600060405180830381600087803b158015610b1e57600080fd5b505af1158015610b32573d6000803e3d6000fd5b505050505095945050505050565b81610c365760075460408051631a9160d760e31b815290516000926001600160a01b03169163d48b06b8916004808301926020929190829003018186803b158015610b8a57600080fd5b505afa158015610b9e573d6000803e3d6000fd5b505050506040513d601f19601f82011682018060405250810190610bc29190610f04565b90506000610bd08284610c84565b600754604051630b33771560e01b81529192506001600160a01b031690630b33771590610c01908490600401610fbe565b600060405180830381600087803b158015610c1b57600080fd5b505af1158015610c2f573d6000803e3d6000fd5b5050505050505b5050565b600080610c478484611153565b90506000610c558787611153565b905080610c64610e1084611153565b1115610c7557600192505050610c7c565b6000925050505b949350505050565b6000610c908284611153565b9392505050565b828054610ca39061116a565b90600052602060002090601f016020900481019282610cc55760008555610d0b565b82601f10610cde57805160ff1916838001178555610d0b565b82800160010185558215610d0b579182015b82811115610d0b578251825591602001919060010190610cf0565b50610d17929150610d1b565b5090565b5b80821115610d175760008155600101610d1c565b8051610aa78161120c565b80518015158114610aa757600080fd5b805167ffffffffffffffff81168114610aa757600080fd5b600060208284031215610d74578081fd5b8135610c908161120c565b60008060408385031215610d91578081fd5b8235610d9c8161120c565b91506020830135610dac8161120c565b809150509250929050565b600060208284031215610dc8578081fd5b610c9082610d3b565b600080600080600080600080610100898b031215610ded578384fd5b885167ffffffffffffffff80821115610e04578586fd5b818b0191508b601f830112610e17578586fd5b815181811115610e2957610e296111f6565b6040516020601f8301601f1916820181018481118382101715610e4e57610e4e6111f6565b60405282825284830181018f1015610e64578889fd5b8893505b82841015610e855784840181015182850182015292830192610e68565b82841115610e9557888184840101525b819c50610ea3818f01610d4b565b9b505050505050610eb660408a01610d4b565b9550610ec460608a01610d4b565b9450610ed260808a01610d4b565b9350610ee060a08a01610d3b565b9250610eee60c08a01610d30565b915060e089015190509295985092959890939650565b600060208284031215610f15578081fd5b5051919050565b600080600060408486031215610f30578283fd5b83359250602084013567ffffffffffffffff80821115610f4e578384fd5b818601915086601f830112610f61578384fd5b813581811115610f6f578485fd5b876020828501011115610f80578485fd5b6020830194508093505050509250925092565b600080600060608486031215610fa7578283fd5b505081359360208301359350604090920135919050565b90815260200190565b6001600160a01b0391909116815260200190565b901515815260200190565b60006020825282602083015282846040840137818301604090810191909152601f909201601f19160101919050565b6020808252601b908201527f63616c6c65722068617320616c726561647920616e7377657265640000000000604082015260600190565b60208082526014908201527331b0b63632b91036bab9ba1031329037bbb732b960611b604082015260600190565b60208082526027908201527f63616c6c6572206973206e6f7420616374697661746564206f7261636c6520706040820152663937bb34b232b960c91b606082015260800190565b602080825260129082015271666c69676874206d7573742065786973747360701b604082015260600190565b918252602082015260400190565b92835260208301919091521515604082015260600190565b93845267ffffffffffffffff9283166020850152911660408301521515606082015260800190565b6000821982111561114e5761114e6111e0565b500190565b600082821015611165576111656111e0565b500390565b60028104600182168061117e57607f821691505b6020821081141561119f57634e487b7160e01b600052602260045260246000fd5b50919050565b60006000198214156111b9576111b96111e0565b5060010190565b6000826111db57634e487b7160e01b81526012600452602481fd5b500690565b634e487b7160e01b600052601160045260246000fd5b634e487b7160e01b600052604160045260246000fd5b6001600160a01b038116811461122157600080fd5b5056fea26469706673582212209e1a1e418e90edaf4164c7eddd4a4e383aca99ad8addce034e0b4e3de088624d64736f6c63430008000033",
  "immutableReferences": {},
  "source": "// SPDX-License-Identifier: UNLICENSED\npragma solidity ^0.8.00;\n\nimport \"../Ownable/Ownable.sol\";\nimport \"../Random/Random.sol\";\nimport \"./interfaces/IOracleProviderRoleOracle.sol\";\nimport \"./interfaces/IFlightSuretyDataOracle.sol\";\nimport \"@openzeppelin/contracts/utils/math/SafeMath.sol\";\n\ncontract FlightSuretyOracle is Ownable, Random {\n    using SafeMath for uint256;\n    struct Request {\n        uint256 flightID;\n        string flightRef;\n        uint256 activatedIndex;\n        uint256 responseCount;\n    }\n    // consensus is reached after x similar answers \n    uint256 constant public ACCEPTED_ANSWER_TRESHOLD = 2;\n    // one hour flight delay = 3600 block\n    uint256 constant public AUTHORIZED_FLIGHT_DELAY = 3600;\n    uint256 currentRequestID;\n    mapping(uint256 => Request) requests;\n    mapping(uint256 => mapping(uint256 => uint256)) responses;\n    mapping(uint256 => mapping(address => bool)) responseCallers;\n    mapping(uint256 => uint256[2]) acceptedAnswer;\n    IFlightSuretyDataOracle flightSuretyData;\n    IOracleProviderRoleOracle oracleProviderRole;\n\n    // requests related events\n    event NewRequest(\n        uint256 indexed requestID,\n        uint256 indexed flightID,\n        uint256 indexed activatedIndex,\n        string flightRef\n    );\n    event FailedRequest(uint256 indexed requestID, uint256 indexed flightID);\n    // responses related events\n    event NewResponse(\n        uint256 indexed requestID,\n        uint256 indexed flightID,\n        address indexed oracleProvider,\n        uint256 realDeparture,\n        uint256 realArrival\n    );\n    event AcceptedResponse(\n        uint256 indexed flightID,\n        uint256 realArrival,\n        uint256 realDeparture,\n        bool isLate\n    );\n    // flights related events\n    event UpdatedFlight(\n        uint256 indexed flightID,\n        uint256 realDeparture,\n        uint256 realArrival,\n        bool isLate\n    );\n\n    modifier onlyActivatedOracleProvider(address _caller) {\n        require(\n            oracleProviderRole.isActivatedOracleProvider(_caller),\n            \"caller is not activated oracle provider\"\n        );\n        _;\n    }\n\n    modifier onlySelectedOracleProvider(uint256 _requestID) {\n        uint256[3] memory oracleProvidersIndexes = oracleProviderRole\n            .getOracleProviderIndexes(msg.sender);\n        require(\n            oracleProvidersIndexes[0] == requests[_requestID].activatedIndex ||\n                oracleProvidersIndexes[1] ==\n                requests[_requestID].activatedIndex ||\n                oracleProvidersIndexes[2] ==\n                requests[_requestID].activatedIndex,\n            \"oracle provider indexes must match request indexes\"\n        );\n        _;\n    }\n\n    modifier requireOracleProviderHasNotAnsweredRequest(\n        uint256 requestID,\n        address caller\n    ) {\n        require(\n            !responseCallers[requestID][caller],\n            \"caller has already answered\"\n        );\n        _;\n    }\n\n    modifier requireFlightExists(uint256 _flightID) {\n        (\n            ,\n            uint64 estimatedDeparture,\n            uint64 estimatedArrival,\n            ,\n            ,\n            ,\n            ,\n\n        ) = flightSuretyData.getFlight(_flightID);\n        require(\n            estimatedDeparture > 0 && estimatedArrival > 0,\n            \"flight must exists\"\n        );\n        _;\n    }\n\n    // constructor setting owner and initial authorized caller address aka appAddress\n    constructor() Ownable() {}\n\n    // initialize external contracts addresses\n    function initialize(address _flightSuretyData, address _oracleProviderRole)\n        external\n        onlyOwner\n    {\n        // registering external contracts address\n        flightSuretyData = IFlightSuretyDataOracle(_flightSuretyData);\n        oracleProviderRole = IOracleProviderRoleOracle(_oracleProviderRole);\n    }\n\n    // create a request for a targeted oracle provider subset\n    function createRequest(uint256 _flightID, string calldata _flightRef)\n        external\n        onlyActivatedOracleProvider(msg.sender)\n        requireFlightExists(_flightID)\n    {\n        uint256 _randomIndex = _rand(20);\n        currentRequestID++;\n        requests[currentRequestID] = Request({\n            flightID: _flightID,\n            flightRef: _flightRef,\n            activatedIndex: _randomIndex,\n            responseCount: 0\n        });\n        emit NewRequest(currentRequestID, _flightID, _randomIndex, _flightRef);\n    }\n\n    // update responses to a request and validate the accepted outcome according to multiparty consensus rules\n    function respondToRequest(\n        uint256 _requestID,\n        uint256 _realDeparture,\n        uint256 _realArrival\n    )\n        external\n        onlyActivatedOracleProvider(msg.sender)\n        requireFlightExists(requests[_requestID].flightID)\n        requireOracleProviderHasNotAnsweredRequest(_requestID, msg.sender)\n    {\n        uint256 flightID = requests[_requestID].flightID;\n        _updateResponses(\n            msg.sender,\n            _requestID,\n            _realDeparture,\n            _realArrival\n        );\n        _acceptResponse(\n            msg.sender,\n            _requestID,\n            _realDeparture,\n            _realArrival,\n            flightID\n        );\n    }\n\n    // update responses to a request incrementing each outcomes to decide which response makes consensus among the selected set of oracle provider\n    function _updateResponses(\n        address _caller,\n        uint256 _requestID,\n        uint256 _realDeparture,\n        uint256 _realArrival\n    ) internal {\n        requests[_requestID].responseCount++;\n        responseCallers[_requestID][_caller] = true;\n        responses[_requestID][_realDeparture]++;\n        responses[_requestID][_realArrival]++;\n        if (\n            responses[_requestID][acceptedAnswer[_requestID][0]] >\n            responses[_requestID][_realDeparture]\n        ) {\n            acceptedAnswer[_requestID][0] = _realDeparture;\n        }\n\n        if (\n            responses[_requestID][acceptedAnswer[_requestID][1]] >\n            responses[_requestID][_realArrival]\n        ) {\n            acceptedAnswer[_requestID][1] = _realArrival;\n        }\n    }\n\n    // accept or reject an accepted response as the final one according to a set treshold constant\n    function _acceptResponse(\n        address _caller,\n        uint256 _requestID,\n        uint256 _realDeparture,\n        uint256 _realArrival,\n        uint256 flightID\n    ) internal {\n        if (\n            responses[_requestID][acceptedAnswer[_requestID][0]] >=\n            ACCEPTED_ANSWER_TRESHOLD &&\n            responses[_requestID][acceptedAnswer[_requestID][1]] >=\n            ACCEPTED_ANSWER_TRESHOLD\n        ) {\n            // get flight\n            (\n                ,\n                uint64 _estimatedDeparture,\n                uint64 _estimatedArrival,\n                ,\n                ,\n                ,\n                ,\n                uint256 insuredValue\n            ) = flightSuretyData.getFlight(flightID);\n            // update flight attributes\n            bool _isLate = _updateFlight(\n                _requestID,\n                _estimatedDeparture,\n                _estimatedArrival,\n                _realDeparture,\n                _realArrival\n            );\n            // update total insured value if flight is not late (no funds to cover anymore)\n            _updateTotalInsuredValue(_isLate, insuredValue);\n            emit NewResponse(\n                _requestID,\n                flightID,\n                _caller,\n                _realDeparture,\n                _realArrival\n            );\n            emit AcceptedResponse(\n                flightID,\n                _realArrival,\n                _realDeparture,\n                _isLate\n            );\n            emit UpdatedFlight(flightID, _realDeparture, _realArrival, _isLate);\n        } else {\n            if (requests[_requestID].responseCount > ACCEPTED_ANSWER_TRESHOLD) {\n                uint256 _flightID = requests[_requestID].flightID;\n                emit FailedRequest(_requestID, _flightID);\n            }\n            emit NewResponse(\n                _requestID,\n                flightID,\n                _caller,\n                _realDeparture,\n                _realArrival\n            );\n        }\n    }\n\n    // check if a flight is late\n    function checkFlightIsLate(\n        uint256 _estimatedDeparture,\n        uint256 _estimatedArrival,\n        uint256 _realDeparture,\n        uint256 _realArrival\n    ) internal pure returns (bool isLate) {\n        uint256 realFlightDuration = _realArrival - _realDeparture;\n        uint256 estimatedFlightDuration = _estimatedArrival -\n            _estimatedDeparture;\n        if (\n            realFlightDuration - AUTHORIZED_FLIGHT_DELAY >\n            estimatedFlightDuration\n        ) {\n            return true;\n        } else {\n            return false;\n        }\n    }\n\n    // update flight data\n    function _updateFlight(\n        uint256 _requestID,\n        uint256 _estimatedDeparture,\n        uint256 _estimatedArrival,\n        uint256 _realDeparture,\n        uint256 _realArrival\n    ) internal returns (bool _isLate) {\n        _isLate = checkFlightIsLate(\n            _estimatedDeparture,\n            _estimatedArrival,\n            _realDeparture,\n            _realArrival\n        );\n        uint256 _flightID = requests[_requestID].flightID;\n        flightSuretyData.updateFlight(\n            _flightID,\n            uint64(_realDeparture),\n            uint64(_realArrival),\n            _isLate\n        );\n        return _isLate;\n    }\n\n    // update insured value if flight is not late (no funds to cover anymore)\n    function _updateTotalInsuredValue(bool _isLate, uint256 _flightInsuredValue)\n        internal\n    {\n        if (!_isLate) {\n            uint256 totalInsuredValue = flightSuretyData.getTotalInsuredValue();\n            uint256 newTotalInsuredValue = totalInsuredValue.sub(\n                _flightInsuredValue\n            );\n            flightSuretyData.setTotalInsuredValue(newTotalInsuredValue);\n        }\n    }\n}\n",
  "sourcePath": "/home/tothemoon_/Documents/FlightInsurance/contracts/FlightSuretyOracle/FlightSuretyOracle.sol",
  "compiler": {
    "name": "solc",
    "version": "0.8.0+commit.c7dfd78e.Emscripten.clang"
  },
  "schemaVersion": "3.4.2",
  "updatedAt": "2021-08-15T11:32:18.994Z",
  "networkType": "ethereum",
  "devdoc": {
    "kind": "dev",
    "methods": {},
    "version": 1
  },
  "userdoc": {
    "kind": "user",
    "methods": {},
    "version": 1
  }
}