{
  "contractName": "FlightSuretyOracle",
  "abi": [
    {
      "inputs": [],
      "stateMutability": "nonpayable",
      "type": "constructor"
    },
    {
      "anonymous": false,
      "inputs": [
        {
          "indexed": false,
          "internalType": "uint256",
          "name": "_realArrival",
          "type": "uint256"
        },
        {
          "indexed": false,
          "internalType": "uint256",
          "name": "_realDeparture",
          "type": "uint256"
        },
        {
          "indexed": false,
          "internalType": "uint256",
          "name": "_isLate",
          "type": "uint256"
        }
      ],
      "name": "AcceptedResponse",
      "type": "event"
    },
    {
      "anonymous": false,
      "inputs": [
        {
          "indexed": true,
          "internalType": "uint256",
          "name": "requestID",
          "type": "uint256"
        },
        {
          "indexed": true,
          "internalType": "uint256",
          "name": "flightID",
          "type": "uint256"
        },
        {
          "indexed": false,
          "internalType": "string",
          "name": "flightRef",
          "type": "string"
        }
      ],
      "name": "FailedRequest",
      "type": "event"
    },
    {
      "anonymous": false,
      "inputs": [
        {
          "indexed": true,
          "internalType": "uint256",
          "name": "requestID",
          "type": "uint256"
        },
        {
          "indexed": true,
          "internalType": "uint256",
          "name": "flightID",
          "type": "uint256"
        },
        {
          "indexed": false,
          "internalType": "string",
          "name": "flightRef",
          "type": "string"
        }
      ],
      "name": "NewRequest",
      "type": "event"
    },
    {
      "anonymous": false,
      "inputs": [
        {
          "indexed": true,
          "internalType": "uint256",
          "name": "requestID",
          "type": "uint256"
        },
        {
          "indexed": false,
          "internalType": "uint256",
          "name": "realDeparture",
          "type": "uint256"
        },
        {
          "indexed": false,
          "internalType": "uint256",
          "name": "realArrival",
          "type": "uint256"
        },
        {
          "indexed": false,
          "internalType": "uint256",
          "name": "isLate",
          "type": "uint256"
        }
      ],
      "name": "NewResponse",
      "type": "event"
    },
    {
      "anonymous": false,
      "inputs": [
        {
          "indexed": true,
          "internalType": "uint256",
          "name": "flightID",
          "type": "uint256"
        },
        {
          "indexed": false,
          "internalType": "uint256",
          "name": "realDeparture",
          "type": "uint256"
        },
        {
          "indexed": false,
          "internalType": "uint256",
          "name": "realArrival",
          "type": "uint256"
        },
        {
          "indexed": false,
          "internalType": "bool",
          "name": "isLate",
          "type": "bool"
        }
      ],
      "name": "UpdatedFlight",
      "type": "event"
    },
    {
      "inputs": [],
      "name": "destructContract",
      "outputs": [],
      "stateMutability": "nonpayable",
      "type": "function"
    },
    {
      "inputs": [
        {
          "internalType": "address",
          "name": "_newOwner",
          "type": "address"
        }
      ],
      "name": "transferOwnership",
      "outputs": [],
      "stateMutability": "nonpayable",
      "type": "function"
    },
    {
      "inputs": [
        {
          "internalType": "address",
          "name": "_flightSuretyData",
          "type": "address"
        },
        {
          "internalType": "address",
          "name": "_oracleProviderRole",
          "type": "address"
        }
      ],
      "name": "initialize",
      "outputs": [],
      "stateMutability": "nonpayable",
      "type": "function"
    },
    {
      "inputs": [
        {
          "internalType": "uint256",
          "name": "_flightID",
          "type": "uint256"
        },
        {
          "internalType": "string",
          "name": "_flightRef",
          "type": "string"
        }
      ],
      "name": "createRequest",
      "outputs": [],
      "stateMutability": "nonpayable",
      "type": "function"
    },
    {
      "inputs": [
        {
          "internalType": "address",
          "name": "_caller",
          "type": "address"
        },
        {
          "internalType": "uint256",
          "name": "_requestID",
          "type": "uint256"
        },
        {
          "internalType": "uint256",
          "name": "_realDeparture",
          "type": "uint256"
        },
        {
          "internalType": "uint256",
          "name": "_realArrival",
          "type": "uint256"
        },
        {
          "internalType": "uint256",
          "name": "_isLate",
          "type": "uint256"
        }
      ],
      "name": "respondToRequest",
      "outputs": [],
      "stateMutability": "nonpayable",
      "type": "function"
    }
  ],
  "bytecode": "0x608060405234801561001057600080fd5b50600080546001600160a01b03191633179055611281806100326000396000f3fe608060405234801561001057600080fd5b50600436106100575760003560e01c806307d7644b1461005c578063485cc955146100715780639499e01814610084578063cadddd7d1461008c578063f2fde38b1461009f575b600080fd5b61006f61006a366004610dc2565b6100b2565b005b61006f61007f366004610d8a565b61025f565b61006f6102b7565b61006f61009a366004610f49565b6102ef565b61006f6100ad366004610d6e565b610565565b60085460405163775cbd8d60e01b815233916001600160a01b03169063775cbd8d906100e2908490600401610fc9565b602060405180830381600087803b1580156100fc57600080fd5b505af1158015610110573d6000803e3d6000fd5b505050506040513d601f19601f820116820180604052508101906101349190610e05565b6101595760405162461bcd60e51b81526004016101509061106d565b60405180910390fd5b600085815260036020526040808220546007549151633a4396cb60e01b815290929182916001600160a01b0390911690633a4396cb9061019d908690600401610fc0565b60006040518083038186803b1580156101b557600080fd5b505afa1580156101c9573d6000803e3d6000fd5b505050506040513d6000823e601f3d908101601f191682016040526101f19190810190610e1f565b5050505050925092505060008267ffffffffffffffff1611801561021f575060008167ffffffffffffffff16115b61023b5760405162461bcd60e51b8152600401610150906110b4565b61024889898989896105b1565b6102548888888861075c565b505050505050505050565b6000546001600160a01b031633146102895760405162461bcd60e51b81526004016101509061103f565b600780546001600160a01b039384166001600160a01b03199182161790915560088054929093169116179055565b6000546001600160a01b031633146102e15760405162461bcd60e51b81526004016101509061103f565b6000546001600160a01b0316ff5b60085460405163775cbd8d60e01b815233916001600160a01b03169063775cbd8d9061031f908490600401610fc9565b602060405180830381600087803b15801561033957600080fd5b505af115801561034d573d6000803e3d6000fd5b505050506040513d601f19601f820116820180604052508101906103719190610e05565b61038d5760405162461bcd60e51b81526004016101509061106d565b600754604051633a4396cb60e01b8152859160009182916001600160a01b031690633a4396cb906103c2908690600401610fc0565b60006040518083038186803b1580156103da57600080fd5b505afa1580156103ee573d6000803e3d6000fd5b505050506040513d6000823e601f3d908101601f191682016040526104169190810190610e1f565b5050505050925092505060008267ffffffffffffffff16118015610444575060008167ffffffffffffffff16115b6104605760405162461bcd60e51b8152600401610150906110b4565b600061046c6014610a96565b60028054919250600061047e836111cc565b9190505550604051806080016040528089815260200188888080601f01602080910402602001604051908101604052809392919081815260200183838082843760009201829052509385525050506020808301859052604092830182905260025482526003815291902082518155828201518051919261050692600185019290910190610ca2565b506040820151816002015560608201518160030155905050876002547fe40cd7e4fef29cc74d9af78e6893f1b63102b131a588f6d46a75f3e79f040e398989604051610553929190610fdd565b60405180910390a35050505050505050565b6000546001600160a01b0316331461058f5760405162461bcd60e51b81526004016101509061103f565b600080546001600160a01b0319166001600160a01b0392909216919091179055565b60008481526003602081905260408220018054916105ce836111cc565b909155505060008481526005602090815260408083206001600160a01b03891684528252808320805460ff1916600117905586835260048252808320868452909152812080549161061e836111cc565b909155505060008481526004602090815260408083208584529091528120805491610648836111cc565b909155505060008481526004602090815260408083208484529091528120805491610672836111cc565b90915550506000848152600460209081526040808320868452808352818420548885526006845282852054855292529091205411156106bd5760008481526006602052604090208390555b6000848152600460209081526040808320858452808352818420548885526006845282852060010154855292529091205411156107095760008481526006602052604090208290600101555b6000848152600460209081526040808320848452808352818420548885526006845282852060020154855292529091205411156107555760008481526006602052604090208190600201555b5050505050565b6000848152600460209081526040808320600683528184205484529091529020546005118015906107b15750600084815260046020908152604080832060068352818420600101548452909152902054600511155b80156107e15750600084815260046020908152604080832060068352818420600201548452909152902054600511155b1561095957600084815260036020526040808220546007549151633a4396cb60e01b815290929182916001600160a01b0390911690633a4396cb9061082a908690600401610fc0565b60006040518083038186803b15801561084257600080fd5b505afa158015610856573d6000803e3d6000fd5b505050506040513d6000823e601f3d908101601f1916820160405261087e9190810190610e1f565b9750509650505050505061089487878787610b02565b61089e8282610b95565b867fed89dd676a91650c6b31f799532dca44ef7be22b763895233144dec6be9d70ee8787876040516108d2939291906110f8565b60405180910390a27fbaeeb2d2f262ecf4febe73bbc8d759e0eb659617bffb4e6a8dfe2b55a9e80ea885878660405161090d939291906110f8565b60405180910390a1827fe91efb510e8104be9abbfc0d3d33bf17c65044e767c599822ac1be59fabe7f07878785604051610949939291906110e0565b60405180910390a2505050610a90565b6000848152600360208190526040909120015460051015610a5357600084815260036020526040812080546001909101805491929161099790611191565b80601f01602080910402602001604051908101604052809291908181526020018280546109c390611191565b8015610a105780601f106109e557610100808354040283529160200191610a10565b820191906000526020600020905b8154815290600101906020018083116109f357829003601f168201915b5050505050905081867fba14b70427c62a63128dc4b7a9be67fb2e823b9655056f0185b4e9dd0180134f83604051610a48919061100c565b60405180910390a350505b837fed89dd676a91650c6b31f799532dca44ef7be22b763895233144dec6be9d70ee848484604051610a87939291906110f8565b60405180910390a25b50505050565b6000606460015410610aa85760006001555b6001805483916000610ab9836111cc565b90915550610ac79042611136565b604051602001610ad79190610fc0565b6040516020818303038152906040528051906020012060001c610afa91906111e7565b90505b919050565b6000848152600360205260408120549060018314610b21576000610b24565b60015b600754604051633b5fc92f60e21b81529192506001600160a01b03169063ed7f24bc90610b5b90859089908990879060040161110e565b600060405180830381600087803b158015610b7557600080fd5b505af1158015610b89573d6000803e3d6000fd5b50505050505050505050565b81610c8b5760075460408051631a9160d760e31b815290516000926001600160a01b03169163d48b06b8916004808301926020929190829003018186803b158015610bdf57600080fd5b505afa158015610bf3573d6000803e3d6000fd5b505050506040513d601f19601f82011682018060405250810190610c179190610f31565b90506000610c258284610c8f565b600754604051630b33771560e01b81529192506001600160a01b031690630b33771590610c56908490600401610fc0565b600060405180830381600087803b158015610c7057600080fd5b505af1158015610c84573d6000803e3d6000fd5b5050505050505b5050565b6000610c9b828461114e565b9392505050565b828054610cae90611191565b90600052602060002090601f016020900481019282610cd05760008555610d16565b82601f10610ce957805160ff1916838001178555610d16565b82800160010185558215610d16579182015b82811115610d16578251825591602001919060010190610cfb565b50610d22929150610d26565b5090565b5b80821115610d225760008155600101610d27565b8051610afd81611233565b80518015158114610afd57600080fd5b805167ffffffffffffffff81168114610afd57600080fd5b600060208284031215610d7f578081fd5b8135610c9b81611233565b60008060408385031215610d9c578081fd5b8235610da781611233565b91506020830135610db781611233565b809150509250929050565b600080600080600060a08688031215610dd9578081fd5b8535610de481611233565b97602087013597506040870135966060810135965060800135945092505050565b600060208284031215610e16578081fd5b610c9b82610d46565b600080600080600080600080610100898b031215610e3b578283fd5b885167ffffffffffffffff80821115610e52578485fd5b818b0191508b601f830112610e65578485fd5b815181811115610e7757610e7761121d565b604051601f8201601f191681016020018381118282101715610e9b57610e9b61121d565b6040528181528382016020018e1015610eb2578687fd5b610ec3826020830160208701611165565b9a50610ed59250505060208a01610d56565b9650610ee360408a01610d56565b9550610ef160608a01610d56565b9450610eff60808a01610d56565b9350610f0d60a08a01610d46565b9250610f1b60c08a01610d3b565b915060e089015190509295985092959890939650565b600060208284031215610f42578081fd5b5051919050565b600080600060408486031215610f5d578283fd5b83359250602084013567ffffffffffffffff80821115610f7b578384fd5b818601915086601f830112610f8e578384fd5b813581811115610f9c578485fd5b876020828501011115610fad578485fd5b6020830194508093505050509250925092565b90815260200190565b6001600160a01b0391909116815260200190565b60006020825282602083015282846040840137818301604090810191909152601f909201601f19160101919050565b600060208252825180602084015261102b816040850160208701611165565b601f01601f19169190910160400192915050565b60208082526014908201527331b0b63632b91036bab9ba1031329037bbb732b960611b604082015260600190565b60208082526027908201527f63616c6c6572206973206e6f7420616374697661746564206f7261636c6520706040820152663937bb34b232b960c91b606082015260800190565b602080825260129082015271666c69676874206d7573742065786973747360701b604082015260600190565b92835260208301919091521515604082015260600190565b9283526020830191909152604082015260600190565b93845267ffffffffffffffff9283166020850152911660408301521515606082015260800190565b6000821982111561114957611149611207565b500190565b60008282101561116057611160611207565b500390565b60005b83811015611180578181015183820152602001611168565b83811115610a905750506000910152565b6002810460018216806111a557607f821691505b602082108114156111c657634e487b7160e01b600052602260045260246000fd5b50919050565b60006000198214156111e0576111e0611207565b5060010190565b60008261120257634e487b7160e01b81526012600452602481fd5b500690565b634e487b7160e01b600052601160045260246000fd5b634e487b7160e01b600052604160045260246000fd5b6001600160a01b038116811461124857600080fd5b5056fea26469706673582212208839511059aa46950366eaf22ee4e81f576d6e6ecaeaeb7732385746263d0bce64736f6c63430008000033",
  "immutableReferences": {},
  "source": "// SPDX-License-Identifier: UNLICENSED\npragma solidity ^0.8.00;\n\nimport \"../Ownable/Ownable.sol\";\nimport \"../Random/Random.sol\";\nimport \"./interfaces/IOracleProviderRoleOracle.sol\";\nimport \"./interfaces/IFlightSuretyDataOracle.sol\";\nimport \"@openzeppelin/contracts/utils/math/SafeMath.sol\";\n\ncontract FlightSuretyOracle is Ownable, Random {\n    using SafeMath for uint256;\n    struct Request {\n        uint256 flightID;\n        string flightRef;\n        uint256 activatedIndex;\n        uint256 responseCount;\n    }\n\n    uint256 constant ACCEPTED_ANSWER_TRESHOLD = 5;\n    uint256 currentRequestID;\n    mapping(uint256 => Request) requests;\n    mapping(uint256 => mapping(uint256 => uint256)) responses;\n    mapping(uint256 => mapping(address => bool)) responseCallers;\n    mapping(uint256 => uint256[3]) acceptedAnswer;\n    IFlightSuretyDataOracle flightSuretyData;\n    IOracleProviderRoleOracle oracleProviderRole;\n\n    // requests related events\n    event NewRequest(\n        uint256 indexed requestID,\n        uint256 indexed flightID,\n        string flightRef\n    );\n    event FailedRequest(\n        uint256 indexed requestID,\n        uint256 indexed flightID,\n        string flightRef\n    );\n    // responses related events\n    event NewResponse(\n        uint256 indexed requestID,\n        uint256 realDeparture,\n        uint256 realArrival,\n        uint256 isLate\n    );\n    event AcceptedResponse(\n        uint256 _realArrival,\n        uint256 _realDeparture,\n        uint256 _isLate\n    );\n    // flights related events\n    event UpdatedFlight(\n        uint256 indexed flightID,\n        uint256 realDeparture,\n        uint256 realArrival,\n        bool isLate\n    );\n\n    modifier onlyActivatedOracleProvider(address _caller) {\n        require(\n            oracleProviderRole.isActivatedOracleProvider(_caller),\n            \"caller is not activated oracle provider\"\n        );\n        _;\n    }\n\n    modifier onlySelectedOracleProvider(uint256 _requestID) {\n        uint256[3] memory oracleProvidersIndexes = oracleProviderRole\n            .getOracleProviderIndexes(msg.sender);\n        require(\n            oracleProvidersIndexes[0] == requests[_requestID].activatedIndex ||\n                oracleProvidersIndexes[1] ==\n                requests[_requestID].activatedIndex ||\n                oracleProvidersIndexes[2] ==\n                requests[_requestID].activatedIndex,\n            \"oracle provider indexes must match request indexes\"\n        );\n        _;\n    }\n\n    modifier requireFlightExists(uint256 _flightID) {\n        (\n            ,\n            uint64 estimatedDeparture,\n            uint64 estimatedArrival,\n            ,\n            ,\n            ,\n            ,\n\n        ) = flightSuretyData.getFlight(_flightID);\n        require(\n            estimatedDeparture > 0 && estimatedArrival > 0,\n            \"flight must exists\"\n        );\n        _;\n    }\n\n    // constructor setting owner and initial authorized caller address aka appAddress\n    constructor() Ownable() {}\n\n    // initialize external contracts addresses\n    function initialize(address _flightSuretyData, address _oracleProviderRole)\n        external\n        onlyOwner\n    {\n        // registering external contracts address\n        flightSuretyData = IFlightSuretyDataOracle(_flightSuretyData);\n        oracleProviderRole = IOracleProviderRoleOracle(_oracleProviderRole);\n    }\n\n    // create a request for a targeted oracle provider subset\n    function createRequest(uint256 _flightID, string calldata _flightRef)\n        external\n        onlyActivatedOracleProvider(msg.sender)\n        requireFlightExists(_flightID)\n    {\n        uint256 _randomIndex = _rand(20);\n        currentRequestID++;\n        requests[currentRequestID] = Request({\n            flightID: _flightID,\n            flightRef: _flightRef,\n            activatedIndex: _randomIndex,\n            responseCount: 0\n        });\n        emit NewRequest(currentRequestID, _flightID, _flightRef);\n    }\n\n    // update responses to a request and validate the accepted outcome according to multiparty consensus rules\n    function respondToRequest(\n        address _caller,\n        uint256 _requestID,\n        uint256 _realDeparture,\n        uint256 _realArrival,\n        uint256 _isLate\n    )\n        external\n        onlyActivatedOracleProvider(msg.sender)\n        requireFlightExists(requests[_requestID].flightID)\n    {\n        _updateResponses(\n            _caller,\n            _requestID,\n            _realDeparture,\n            _realArrival,\n            _isLate\n        );\n        _acceptResponse(_requestID, _realDeparture, _realArrival, _isLate);\n    }\n\n    // update responses to a request incrementing each outcomes to decide which response makes consensus among the selected set of oracle provider\n    function _updateResponses(\n        address _caller,\n        uint256 _requestID,\n        uint256 _realDeparture,\n        uint256 _realArrival,\n        uint256 _isLate\n    ) internal {\n        requests[_requestID].responseCount++;\n        responseCallers[_requestID][_caller] = true;\n        responses[_requestID][_realDeparture]++;\n        responses[_requestID][_realArrival]++;\n        responses[_requestID][_isLate]++;\n        if (\n            responses[_requestID][acceptedAnswer[_requestID][0]] >\n            responses[_requestID][_realDeparture]\n        ) {\n            acceptedAnswer[_requestID][0] = _realDeparture;\n        }\n\n        if (\n            responses[_requestID][acceptedAnswer[_requestID][1]] >\n            responses[_requestID][_realArrival]\n        ) {\n            acceptedAnswer[_requestID][1] = _realArrival;\n        }\n\n        if (\n            responses[_requestID][acceptedAnswer[_requestID][2]] >\n            responses[_requestID][_isLate]\n        ) {\n            acceptedAnswer[_requestID][2] = _isLate;\n        }\n    }\n\n    // accept or reject an accepted response as the final one according to a set treshold constant\n    function _acceptResponse(\n        uint256 _requestID,\n        uint256 _realDeparture,\n        uint256 _realArrival,\n        uint256 _isLate\n    ) internal {\n        if (\n            responses[_requestID][acceptedAnswer[_requestID][0]] >=\n            ACCEPTED_ANSWER_TRESHOLD &&\n            responses[_requestID][acceptedAnswer[_requestID][1]] >=\n            ACCEPTED_ANSWER_TRESHOLD &&\n            responses[_requestID][acceptedAnswer[_requestID][2]] >=\n            ACCEPTED_ANSWER_TRESHOLD\n        ) {\n            uint256 _flightID = requests[_requestID].flightID;\n            (, , , , , bool isLate, , uint256 insuredValue) = flightSuretyData\n                .getFlight(_flightID);\n            // update flight attributes\n            _updateFlight(_requestID, _realDeparture, _realArrival, _isLate);\n            // update total insured value if flight is not late (no funds to cover anymore)\n            _updateTotalInsuredValue(isLate, insuredValue);\n            emit NewResponse(_requestID, _realDeparture, _realArrival, _isLate);\n            emit AcceptedResponse(_realArrival, _realDeparture, _isLate);\n            emit UpdatedFlight(_flightID, _realDeparture, _realArrival, isLate);\n        } else {\n            if (requests[_requestID].responseCount > ACCEPTED_ANSWER_TRESHOLD) {\n                uint256 _flightID = requests[_requestID].flightID;\n                string memory _flightRef = requests[_requestID].flightRef;\n                emit FailedRequest(_requestID, _flightID, _flightRef);\n            }\n            emit NewResponse(_requestID, _realDeparture, _realArrival, _isLate);\n        }\n    }\n\n    // update flight data\n    function _updateFlight(\n        uint256 _requestID,\n        uint256 _realDeparture,\n        uint256 _realArrival,\n        uint256 _isLate\n    ) internal {\n        uint256 _flightID = requests[_requestID].flightID;\n        bool isLate = (_isLate == 1) ? true : false;\n        flightSuretyData.updateFlight(\n            _flightID,\n            uint64(_realDeparture),\n            uint64(_realArrival),\n            isLate\n        );\n    }\n\n    // update insured value if flight is not late (no funds to cover anymore)\n    function _updateTotalInsuredValue(bool _isLate, uint256 _flightInsuredValue)\n        internal\n    {\n        if (!_isLate) {\n            uint256 totalInsuredValue = flightSuretyData.getTotalInsuredValue();\n            uint256 newTotalInsuredValue = totalInsuredValue.sub(\n                _flightInsuredValue\n            );\n            flightSuretyData.setTotalInsuredValue(newTotalInsuredValue);\n        }\n    }\n}\n",
  "sourcePath": "/home/tothemoon_/Documents/FlightInsurance/contracts/FlightSuretyOracle/FlightSuretyOracle.sol",
  "compiler": {
    "name": "solc",
    "version": "0.8.0+commit.c7dfd78e.Emscripten.clang"
  },
  "schemaVersion": "3.4.2",
  "updatedAt": "2021-08-12T19:37:29.370Z",
  "networkType": "ethereum",
  "devdoc": {
    "kind": "dev",
    "methods": {},
    "version": 1
  },
  "userdoc": {
    "kind": "user",
    "methods": {},
    "version": 1
  }
}