{
  "contractName": "FlightSuretyOracle",
  "abi": [
    {
      "inputs": [],
      "stateMutability": "nonpayable",
      "type": "constructor"
    },
    {
      "anonymous": false,
      "inputs": [
        {
          "indexed": false,
          "internalType": "uint256",
          "name": "_realArrival",
          "type": "uint256"
        },
        {
          "indexed": false,
          "internalType": "uint256",
          "name": "_realDeparture",
          "type": "uint256"
        },
        {
          "indexed": false,
          "internalType": "uint256",
          "name": "_isLate",
          "type": "uint256"
        }
      ],
      "name": "AcceptedResponse",
      "type": "event"
    },
    {
      "anonymous": false,
      "inputs": [
        {
          "indexed": true,
          "internalType": "uint256",
          "name": "requestID",
          "type": "uint256"
        },
        {
          "indexed": true,
          "internalType": "uint256",
          "name": "flightID",
          "type": "uint256"
        },
        {
          "indexed": false,
          "internalType": "string",
          "name": "flightRef",
          "type": "string"
        }
      ],
      "name": "FailedRequest",
      "type": "event"
    },
    {
      "anonymous": false,
      "inputs": [
        {
          "indexed": true,
          "internalType": "uint256",
          "name": "requestID",
          "type": "uint256"
        },
        {
          "indexed": true,
          "internalType": "uint256",
          "name": "flightID",
          "type": "uint256"
        },
        {
          "indexed": false,
          "internalType": "string",
          "name": "flightRef",
          "type": "string"
        }
      ],
      "name": "NewRequest",
      "type": "event"
    },
    {
      "anonymous": false,
      "inputs": [
        {
          "indexed": true,
          "internalType": "uint256",
          "name": "requestID",
          "type": "uint256"
        },
        {
          "indexed": false,
          "internalType": "uint256",
          "name": "realDeparture",
          "type": "uint256"
        },
        {
          "indexed": false,
          "internalType": "uint256",
          "name": "realArrival",
          "type": "uint256"
        },
        {
          "indexed": false,
          "internalType": "uint256",
          "name": "isLate",
          "type": "uint256"
        }
      ],
      "name": "NewResponse",
      "type": "event"
    },
    {
      "anonymous": false,
      "inputs": [
        {
          "indexed": true,
          "internalType": "uint256",
          "name": "flightID",
          "type": "uint256"
        },
        {
          "indexed": false,
          "internalType": "uint256",
          "name": "realDeparture",
          "type": "uint256"
        },
        {
          "indexed": false,
          "internalType": "uint256",
          "name": "realArrival",
          "type": "uint256"
        },
        {
          "indexed": false,
          "internalType": "bool",
          "name": "isLate",
          "type": "bool"
        }
      ],
      "name": "UpdatedFlight",
      "type": "event"
    },
    {
      "inputs": [],
      "name": "destructContract",
      "outputs": [],
      "stateMutability": "nonpayable",
      "type": "function"
    },
    {
      "inputs": [],
      "name": "isOwner",
      "outputs": [
        {
          "internalType": "bool",
          "name": "_isOwner",
          "type": "bool"
        }
      ],
      "stateMutability": "view",
      "type": "function",
      "constant": true
    },
    {
      "inputs": [
        {
          "internalType": "address",
          "name": "_newOwner",
          "type": "address"
        }
      ],
      "name": "transferOwnership",
      "outputs": [],
      "stateMutability": "nonpayable",
      "type": "function"
    },
    {
      "inputs": [
        {
          "internalType": "address",
          "name": "_flightSuretyData",
          "type": "address"
        },
        {
          "internalType": "address",
          "name": "_oracleProviderRole",
          "type": "address"
        }
      ],
      "name": "initialize",
      "outputs": [],
      "stateMutability": "nonpayable",
      "type": "function"
    },
    {
      "inputs": [
        {
          "internalType": "uint256",
          "name": "_flightID",
          "type": "uint256"
        },
        {
          "internalType": "string",
          "name": "_flightRef",
          "type": "string"
        }
      ],
      "name": "createRequest",
      "outputs": [],
      "stateMutability": "nonpayable",
      "type": "function"
    },
    {
      "inputs": [
        {
          "internalType": "address",
          "name": "_caller",
          "type": "address"
        },
        {
          "internalType": "uint256",
          "name": "_requestID",
          "type": "uint256"
        },
        {
          "internalType": "uint256",
          "name": "_realDeparture",
          "type": "uint256"
        },
        {
          "internalType": "uint256",
          "name": "_realArrival",
          "type": "uint256"
        },
        {
          "internalType": "uint256",
          "name": "_isLate",
          "type": "uint256"
        }
      ],
      "name": "respondToRequest",
      "outputs": [],
      "stateMutability": "nonpayable",
      "type": "function"
    }
  ],
  "bytecode": "0x608060405234801561001057600080fd5b50600080546001600160a01b031916331790556112c6806100326000396000f3fe608060405234801561001057600080fd5b50600436106100625760003560e01c806307d7644b14610067578063485cc9551461007c5780638f32d59b1461008f5780639499e018146100ad578063cadddd7d146100b5578063f2fde38b146100c8575b600080fd5b61007a610075366004610dfc565b6100db565b005b61007a61008a366004610dc4565b610288565b6100976102e0565b6040516100a49190611017565b60405180910390f35b61007a6102f1565b61007a6100c3366004610f83565b610329565b61007a6100d6366004610da8565b61059f565b60085460405163775cbd8d60e01b815233916001600160a01b03169063775cbd8d9061010b908490600401611003565b602060405180830381600087803b15801561012557600080fd5b505af1158015610139573d6000803e3d6000fd5b505050506040513d601f19601f8201168201806040525081019061015d9190610e3f565b6101825760405162461bcd60e51b8152600401610179906110b2565b60405180910390fd5b600085815260036020526040808220546007549151633a4396cb60e01b815290929182916001600160a01b0390911690633a4396cb906101c6908690600401610ffa565b60006040518083038186803b1580156101de57600080fd5b505afa1580156101f2573d6000803e3d6000fd5b505050506040513d6000823e601f3d908101601f1916820160405261021a9190810190610e59565b5050505050925092505060008267ffffffffffffffff16118015610248575060008167ffffffffffffffff16115b6102645760405162461bcd60e51b8152600401610179906110f9565b61027189898989896105eb565b61027d88888888610796565b505050505050505050565b6000546001600160a01b031633146102b25760405162461bcd60e51b815260040161017990611084565b600780546001600160a01b039384166001600160a01b03199182161790915560088054929093169116179055565b6000546001600160a01b0316331490565b6000546001600160a01b0316331461031b5760405162461bcd60e51b815260040161017990611084565b6000546001600160a01b0316ff5b60085460405163775cbd8d60e01b815233916001600160a01b03169063775cbd8d90610359908490600401611003565b602060405180830381600087803b15801561037357600080fd5b505af1158015610387573d6000803e3d6000fd5b505050506040513d601f19601f820116820180604052508101906103ab9190610e3f565b6103c75760405162461bcd60e51b8152600401610179906110b2565b600754604051633a4396cb60e01b8152859160009182916001600160a01b031690633a4396cb906103fc908690600401610ffa565b60006040518083038186803b15801561041457600080fd5b505afa158015610428573d6000803e3d6000fd5b505050506040513d6000823e601f3d908101601f191682016040526104509190810190610e59565b5050505050925092505060008267ffffffffffffffff1611801561047e575060008167ffffffffffffffff16115b61049a5760405162461bcd60e51b8152600401610179906110f9565b60006104a66014610ad0565b6002805491925060006104b883611211565b9190505550604051806080016040528089815260200188888080601f01602080910402602001604051908101604052809392919081815260200183838082843760009201829052509385525050506020808301859052604092830182905260025482526003815291902082518155828201518051919261054092600185019290910190610cdc565b506040820151816002015560608201518160030155905050876002547fe40cd7e4fef29cc74d9af78e6893f1b63102b131a588f6d46a75f3e79f040e39898960405161058d929190611022565b60405180910390a35050505050505050565b6000546001600160a01b031633146105c95760405162461bcd60e51b815260040161017990611084565b600080546001600160a01b0319166001600160a01b0392909216919091179055565b600084815260036020819052604082200180549161060883611211565b909155505060008481526005602090815260408083206001600160a01b03891684528252808320805460ff1916600117905586835260048252808320868452909152812080549161065883611211565b90915550506000848152600460209081526040808320858452909152812080549161068283611211565b9091555050600084815260046020908152604080832084845290915281208054916106ac83611211565b90915550506000848152600460209081526040808320868452808352818420548885526006845282852054855292529091205411156106f75760008481526006602052604090208390555b6000848152600460209081526040808320858452808352818420548885526006845282852060010154855292529091205411156107435760008481526006602052604090208290600101555b60008481526004602090815260408083208484528083528184205488855260068452828520600201548552925290912054111561078f5760008481526006602052604090208190600201555b5050505050565b6000848152600460209081526040808320600683528184205484529091529020546005118015906107eb5750600084815260046020908152604080832060068352818420600101548452909152902054600511155b801561081b5750600084815260046020908152604080832060068352818420600201548452909152902054600511155b1561099357600084815260036020526040808220546007549151633a4396cb60e01b815290929182916001600160a01b0390911690633a4396cb90610864908690600401610ffa565b60006040518083038186803b15801561087c57600080fd5b505afa158015610890573d6000803e3d6000fd5b505050506040513d6000823e601f3d908101601f191682016040526108b89190810190610e59565b975050965050505050506108ce87878787610b3c565b6108d88282610bcf565b867fed89dd676a91650c6b31f799532dca44ef7be22b763895233144dec6be9d70ee87878760405161090c9392919061113d565b60405180910390a27fbaeeb2d2f262ecf4febe73bbc8d759e0eb659617bffb4e6a8dfe2b55a9e80ea88587866040516109479392919061113d565b60405180910390a1827fe91efb510e8104be9abbfc0d3d33bf17c65044e767c599822ac1be59fabe7f0787878560405161098393929190611125565b60405180910390a2505050610aca565b6000848152600360208190526040909120015460051015610a8d5760008481526003602052604081208054600190910180549192916109d1906111d6565b80601f01602080910402602001604051908101604052809291908181526020018280546109fd906111d6565b8015610a4a5780601f10610a1f57610100808354040283529160200191610a4a565b820191906000526020600020905b815481529060010190602001808311610a2d57829003601f168201915b5050505050905081867fba14b70427c62a63128dc4b7a9be67fb2e823b9655056f0185b4e9dd0180134f83604051610a829190611051565b60405180910390a350505b837fed89dd676a91650c6b31f799532dca44ef7be22b763895233144dec6be9d70ee848484604051610ac19392919061113d565b60405180910390a25b50505050565b6000606460015410610ae25760006001555b6001805483916000610af383611211565b90915550610b01904261117b565b604051602001610b119190610ffa565b6040516020818303038152906040528051906020012060001c610b34919061122c565b90505b919050565b6000848152600360205260408120549060018314610b5b576000610b5e565b60015b600754604051633b5fc92f60e21b81529192506001600160a01b03169063ed7f24bc90610b95908590899089908790600401611153565b600060405180830381600087803b158015610baf57600080fd5b505af1158015610bc3573d6000803e3d6000fd5b50505050505050505050565b81610cc55760075460408051631a9160d760e31b815290516000926001600160a01b03169163d48b06b8916004808301926020929190829003018186803b158015610c1957600080fd5b505afa158015610c2d573d6000803e3d6000fd5b505050506040513d601f19601f82011682018060405250810190610c519190610f6b565b90506000610c5f8284610cc9565b600754604051630b33771560e01b81529192506001600160a01b031690630b33771590610c90908490600401610ffa565b600060405180830381600087803b158015610caa57600080fd5b505af1158015610cbe573d6000803e3d6000fd5b5050505050505b5050565b6000610cd58284611193565b9392505050565b828054610ce8906111d6565b90600052602060002090601f016020900481019282610d0a5760008555610d50565b82601f10610d2357805160ff1916838001178555610d50565b82800160010185558215610d50579182015b82811115610d50578251825591602001919060010190610d35565b50610d5c929150610d60565b5090565b5b80821115610d5c5760008155600101610d61565b8051610b3781611278565b80518015158114610b3757600080fd5b805167ffffffffffffffff81168114610b3757600080fd5b600060208284031215610db9578081fd5b8135610cd581611278565b60008060408385031215610dd6578081fd5b8235610de181611278565b91506020830135610df181611278565b809150509250929050565b600080600080600060a08688031215610e13578081fd5b8535610e1e81611278565b97602087013597506040870135966060810135965060800135945092505050565b600060208284031215610e50578081fd5b610cd582610d80565b600080600080600080600080610100898b031215610e75578283fd5b885167ffffffffffffffff80821115610e8c578485fd5b818b0191508b601f830112610e9f578485fd5b815181811115610eb157610eb1611262565b604051601f8201601f191681016020018381118282101715610ed557610ed5611262565b6040528181528382016020018e1015610eec578687fd5b610efd8260208301602087016111aa565b9a50610f0f9250505060208a01610d90565b9650610f1d60408a01610d90565b9550610f2b60608a01610d90565b9450610f3960808a01610d90565b9350610f4760a08a01610d80565b9250610f5560c08a01610d75565b915060e089015190509295985092959890939650565b600060208284031215610f7c578081fd5b5051919050565b600080600060408486031215610f97578283fd5b83359250602084013567ffffffffffffffff80821115610fb5578384fd5b818601915086601f830112610fc8578384fd5b813581811115610fd6578485fd5b876020828501011115610fe7578485fd5b6020830194508093505050509250925092565b90815260200190565b6001600160a01b0391909116815260200190565b901515815260200190565b60006020825282602083015282846040840137818301604090810191909152601f909201601f19160101919050565b60006020825282518060208401526110708160408501602087016111aa565b601f01601f19169190910160400192915050565b60208082526014908201527331b0b63632b91036bab9ba1031329037bbb732b960611b604082015260600190565b60208082526027908201527f63616c6c6572206973206e6f7420616374697661746564206f7261636c6520706040820152663937bb34b232b960c91b606082015260800190565b602080825260129082015271666c69676874206d7573742065786973747360701b604082015260600190565b92835260208301919091521515604082015260600190565b9283526020830191909152604082015260600190565b93845267ffffffffffffffff9283166020850152911660408301521515606082015260800190565b6000821982111561118e5761118e61124c565b500190565b6000828210156111a5576111a561124c565b500390565b60005b838110156111c55781810151838201526020016111ad565b83811115610aca5750506000910152565b6002810460018216806111ea57607f821691505b6020821081141561120b57634e487b7160e01b600052602260045260246000fd5b50919050565b60006000198214156112255761122561124c565b5060010190565b60008261124757634e487b7160e01b81526012600452602481fd5b500690565b634e487b7160e01b600052601160045260246000fd5b634e487b7160e01b600052604160045260246000fd5b6001600160a01b038116811461128d57600080fd5b5056fea2646970667358221220381172ea8629bfdedc5dbef59688c320ae0444153dd6c7c9f88e0bf9552d3aa864736f6c63430008000033",
  "immutableReferences": {},
  "source": "// SPDX-License-Identifier: UNLICENSED\npragma solidity ^0.8.00;\n\nimport \"../Ownable/Ownable.sol\";\nimport \"../Random/Random.sol\";\nimport \"./interfaces/IOracleProviderRoleOracle.sol\";\nimport \"./interfaces/IFlightSuretyDataOracle.sol\";\nimport \"@openzeppelin/contracts/utils/math/SafeMath.sol\";\n\ncontract FlightSuretyOracle is Ownable, Random {\n    using SafeMath for uint256;\n    struct Request {\n        uint256 flightID;\n        string flightRef;\n        uint256 activatedIndex;\n        uint256 responseCount;\n    }\n\n    uint256 constant ACCEPTED_ANSWER_TRESHOLD = 5;\n    uint256 currentRequestID;\n    mapping(uint256 => Request) requests;\n    mapping(uint256 => mapping(uint256 => uint256)) responses;\n    mapping(uint256 => mapping(address => bool)) responseCallers;\n    mapping(uint256 => uint256[3]) acceptedAnswer;\n    IFlightSuretyDataOracle flightSuretyData;\n    IOracleProviderRoleOracle oracleProviderRole;\n\n    // requests related events\n    event NewRequest(\n        uint256 indexed requestID,\n        uint256 indexed flightID,\n        string flightRef\n    );\n    event FailedRequest(\n        uint256 indexed requestID,\n        uint256 indexed flightID,\n        string flightRef\n    );\n    // responses related events\n    event NewResponse(\n        uint256 indexed requestID,\n        uint256 realDeparture,\n        uint256 realArrival,\n        uint256 isLate\n    );\n    event AcceptedResponse(\n        uint256 _realArrival,\n        uint256 _realDeparture,\n        uint256 _isLate\n    );\n    // flights related events\n    event UpdatedFlight(\n        uint256 indexed flightID,\n        uint256 realDeparture,\n        uint256 realArrival,\n        bool isLate\n    );\n\n    modifier onlyActivatedOracleProvider(address _caller) {\n        require(\n            oracleProviderRole.isActivatedOracleProvider(_caller),\n            \"caller is not activated oracle provider\"\n        );\n        _;\n    }\n\n    modifier onlySelectedOracleProvider(uint256 _requestID) {\n        uint256[3] memory oracleProvidersIndexes = oracleProviderRole\n            .getOracleProviderIndexes(msg.sender);\n        require(\n            oracleProvidersIndexes[0] == requests[_requestID].activatedIndex ||\n                oracleProvidersIndexes[1] ==\n                requests[_requestID].activatedIndex ||\n                oracleProvidersIndexes[2] ==\n                requests[_requestID].activatedIndex,\n            \"oracle provider indexes must match request indexes\"\n        );\n        _;\n    }\n\n    modifier requireFlightExists(uint256 _flightID) {\n        (\n            ,\n            uint64 estimatedDeparture,\n            uint64 estimatedArrival,\n            ,\n            ,\n            ,\n            ,\n\n        ) = flightSuretyData.getFlight(_flightID);\n        require(\n            estimatedDeparture > 0 && estimatedArrival > 0,\n            \"flight must exists\"\n        );\n        _;\n    }\n\n    // constructor setting owner and initial authorized caller address aka appAddress\n    constructor() Ownable() {}\n\n    // initialize external contracts addresses\n    function initialize(address _flightSuretyData, address _oracleProviderRole)\n        external\n        onlyOwner\n    {\n        // registering external contracts address\n        flightSuretyData = IFlightSuretyDataOracle(_flightSuretyData);\n        oracleProviderRole = IOracleProviderRoleOracle(_oracleProviderRole);\n    }\n\n    // create a request for a targeted oracle provider subset\n    function createRequest(uint256 _flightID, string calldata _flightRef)\n        external\n        onlyActivatedOracleProvider(msg.sender)\n        requireFlightExists(_flightID)\n    {\n        uint256 _randomIndex = _rand(20);\n        currentRequestID++;\n        requests[currentRequestID] = Request({\n            flightID: _flightID,\n            flightRef: _flightRef,\n            activatedIndex: _randomIndex,\n            responseCount: 0\n        });\n        emit NewRequest(currentRequestID, _flightID, _flightRef);\n    }\n\n    // update responses to a request and validate the accepted outcome according to multiparty consensus rules\n    function respondToRequest(\n        address _caller,\n        uint256 _requestID,\n        uint256 _realDeparture,\n        uint256 _realArrival,\n        uint256 _isLate\n    )\n        external\n        onlyActivatedOracleProvider(msg.sender)\n        requireFlightExists(requests[_requestID].flightID)\n    {\n        _updateResponses(\n            _caller,\n            _requestID,\n            _realDeparture,\n            _realArrival,\n            _isLate\n        );\n        _acceptResponse(_requestID, _realDeparture, _realArrival, _isLate);\n    }\n\n    // update responses to a request incrementing each outcomes to decide which response makes consensus among the selected set of oracle provider\n    function _updateResponses(\n        address _caller,\n        uint256 _requestID,\n        uint256 _realDeparture,\n        uint256 _realArrival,\n        uint256 _isLate\n    ) internal {\n        requests[_requestID].responseCount++;\n        responseCallers[_requestID][_caller] = true;\n        responses[_requestID][_realDeparture]++;\n        responses[_requestID][_realArrival]++;\n        responses[_requestID][_isLate]++;\n        if (\n            responses[_requestID][acceptedAnswer[_requestID][0]] >\n            responses[_requestID][_realDeparture]\n        ) {\n            acceptedAnswer[_requestID][0] = _realDeparture;\n        }\n\n        if (\n            responses[_requestID][acceptedAnswer[_requestID][1]] >\n            responses[_requestID][_realArrival]\n        ) {\n            acceptedAnswer[_requestID][1] = _realArrival;\n        }\n\n        if (\n            responses[_requestID][acceptedAnswer[_requestID][2]] >\n            responses[_requestID][_isLate]\n        ) {\n            acceptedAnswer[_requestID][2] = _isLate;\n        }\n    }\n\n    // accept or reject an accepted response as the final one according to a set treshold constant\n    function _acceptResponse(\n        uint256 _requestID,\n        uint256 _realDeparture,\n        uint256 _realArrival,\n        uint256 _isLate\n    ) internal {\n        if (\n            responses[_requestID][acceptedAnswer[_requestID][0]] >=\n            ACCEPTED_ANSWER_TRESHOLD &&\n            responses[_requestID][acceptedAnswer[_requestID][1]] >=\n            ACCEPTED_ANSWER_TRESHOLD &&\n            responses[_requestID][acceptedAnswer[_requestID][2]] >=\n            ACCEPTED_ANSWER_TRESHOLD\n        ) {\n            uint256 _flightID = requests[_requestID].flightID;\n            (, , , , , bool isLate, , uint256 insuredValue) = flightSuretyData\n                .getFlight(_flightID);\n            // update flight attributes\n            _updateFlight(_requestID, _realDeparture, _realArrival, _isLate);\n            // update total insured value if flight is not late (no funds to cover anymore)\n            _updateTotalInsuredValue(isLate, insuredValue);\n            emit NewResponse(_requestID, _realDeparture, _realArrival, _isLate);\n            emit AcceptedResponse(_realArrival, _realDeparture, _isLate);\n            emit UpdatedFlight(_flightID, _realDeparture, _realArrival, isLate);\n        } else {\n            if (requests[_requestID].responseCount > ACCEPTED_ANSWER_TRESHOLD) {\n                uint256 _flightID = requests[_requestID].flightID;\n                string memory _flightRef = requests[_requestID].flightRef;\n                emit FailedRequest(_requestID, _flightID, _flightRef);\n            }\n            emit NewResponse(_requestID, _realDeparture, _realArrival, _isLate);\n        }\n    }\n\n    // update flight data\n    function _updateFlight(\n        uint256 _requestID,\n        uint256 _realDeparture,\n        uint256 _realArrival,\n        uint256 _isLate\n    ) internal {\n        uint256 _flightID = requests[_requestID].flightID;\n        bool isLate = (_isLate == 1) ? true : false;\n        flightSuretyData.updateFlight(\n            _flightID,\n            uint64(_realDeparture),\n            uint64(_realArrival),\n            isLate\n        );\n    }\n\n    // update insured value if flight is not late (no funds to cover anymore)\n    function _updateTotalInsuredValue(bool _isLate, uint256 _flightInsuredValue)\n        internal\n    {\n        if (!_isLate) {\n            uint256 totalInsuredValue = flightSuretyData.getTotalInsuredValue();\n            uint256 newTotalInsuredValue = totalInsuredValue.sub(\n                _flightInsuredValue\n            );\n            flightSuretyData.setTotalInsuredValue(newTotalInsuredValue);\n        }\n    }\n}\n",
  "sourcePath": "/home/tothemoon_/Documents/FlightInsurance/contracts/FlightSuretyOracle/FlightSuretyOracle.sol",
  "compiler": {
    "name": "solc",
    "version": "0.8.0+commit.c7dfd78e.Emscripten.clang"
  },
  "schemaVersion": "3.4.2",
  "updatedAt": "2021-08-13T12:31:19.307Z",
  "networkType": "ethereum",
  "devdoc": {
    "kind": "dev",
    "methods": {},
    "version": 1
  },
  "userdoc": {
    "kind": "user",
    "methods": {},
    "version": 1
  }
}