{
  "contractName": "FlightSuretyOracle",
  "abi": [
    {
      "inputs": [
        {
          "internalType": "uint64",
          "name": "_authorizedFlightDelay",
          "type": "uint64"
        }
      ],
      "stateMutability": "nonpayable",
      "type": "constructor"
    },
    {
      "anonymous": false,
      "inputs": [
        {
          "indexed": true,
          "internalType": "uint256",
          "name": "flightID",
          "type": "uint256"
        },
        {
          "indexed": false,
          "internalType": "uint64",
          "name": "realArrival",
          "type": "uint64"
        },
        {
          "indexed": false,
          "internalType": "uint64",
          "name": "realDeparture",
          "type": "uint64"
        },
        {
          "indexed": false,
          "internalType": "bool",
          "name": "isLate",
          "type": "bool"
        }
      ],
      "name": "AcceptedResponse",
      "type": "event"
    },
    {
      "anonymous": false,
      "inputs": [
        {
          "indexed": true,
          "internalType": "uint256",
          "name": "requestID",
          "type": "uint256"
        },
        {
          "indexed": true,
          "internalType": "uint256",
          "name": "flightID",
          "type": "uint256"
        }
      ],
      "name": "FailedRequest",
      "type": "event"
    },
    {
      "anonymous": false,
      "inputs": [
        {
          "indexed": true,
          "internalType": "uint256",
          "name": "requestID",
          "type": "uint256"
        },
        {
          "indexed": true,
          "internalType": "uint256",
          "name": "flightID",
          "type": "uint256"
        },
        {
          "indexed": true,
          "internalType": "uint256",
          "name": "activatedIndex",
          "type": "uint256"
        },
        {
          "indexed": false,
          "internalType": "string",
          "name": "flightRef",
          "type": "string"
        }
      ],
      "name": "NewRequest",
      "type": "event"
    },
    {
      "anonymous": false,
      "inputs": [
        {
          "indexed": true,
          "internalType": "uint256",
          "name": "requestID",
          "type": "uint256"
        },
        {
          "indexed": true,
          "internalType": "uint256",
          "name": "flightID",
          "type": "uint256"
        },
        {
          "indexed": true,
          "internalType": "address",
          "name": "oracleProvider",
          "type": "address"
        },
        {
          "indexed": false,
          "internalType": "uint64",
          "name": "realDeparture",
          "type": "uint64"
        },
        {
          "indexed": false,
          "internalType": "uint64",
          "name": "realArrival",
          "type": "uint64"
        }
      ],
      "name": "NewResponse",
      "type": "event"
    },
    {
      "anonymous": false,
      "inputs": [
        {
          "indexed": true,
          "internalType": "uint256",
          "name": "flightID",
          "type": "uint256"
        },
        {
          "indexed": false,
          "internalType": "uint64",
          "name": "realDeparture",
          "type": "uint64"
        },
        {
          "indexed": false,
          "internalType": "uint64",
          "name": "realArrival",
          "type": "uint64"
        },
        {
          "indexed": false,
          "internalType": "bool",
          "name": "isLate",
          "type": "bool"
        }
      ],
      "name": "UpdatedFlight",
      "type": "event"
    },
    {
      "inputs": [],
      "name": "authorizedFlightDelay",
      "outputs": [
        {
          "internalType": "uint64",
          "name": "",
          "type": "uint64"
        }
      ],
      "stateMutability": "view",
      "type": "function",
      "constant": true
    },
    {
      "inputs": [],
      "name": "destructContract",
      "outputs": [],
      "stateMutability": "nonpayable",
      "type": "function"
    },
    {
      "inputs": [],
      "name": "isOwner",
      "outputs": [
        {
          "internalType": "bool",
          "name": "_isOwner",
          "type": "bool"
        }
      ],
      "stateMutability": "view",
      "type": "function",
      "constant": true
    },
    {
      "inputs": [
        {
          "internalType": "address",
          "name": "_newOwner",
          "type": "address"
        }
      ],
      "name": "transferOwnership",
      "outputs": [],
      "stateMutability": "nonpayable",
      "type": "function"
    },
    {
      "inputs": [
        {
          "internalType": "address",
          "name": "_flightSuretyData",
          "type": "address"
        },
        {
          "internalType": "address",
          "name": "_oracleProviderRole",
          "type": "address"
        }
      ],
      "name": "initialize",
      "outputs": [],
      "stateMutability": "nonpayable",
      "type": "function"
    },
    {
      "inputs": [
        {
          "internalType": "bool",
          "name": "_operationnal",
          "type": "bool"
        }
      ],
      "name": "setOperationnal",
      "outputs": [],
      "stateMutability": "nonpayable",
      "type": "function"
    },
    {
      "inputs": [
        {
          "internalType": "uint256",
          "name": "_flightID",
          "type": "uint256"
        },
        {
          "internalType": "string",
          "name": "_flightRef",
          "type": "string"
        }
      ],
      "name": "createRequest",
      "outputs": [],
      "stateMutability": "nonpayable",
      "type": "function"
    },
    {
      "inputs": [
        {
          "internalType": "uint256",
          "name": "_requestID",
          "type": "uint256"
        },
        {
          "internalType": "uint64",
          "name": "_realDeparture",
          "type": "uint64"
        },
        {
          "internalType": "uint64",
          "name": "_realArrival",
          "type": "uint64"
        }
      ],
      "name": "respondToRequest",
      "outputs": [],
      "stateMutability": "nonpayable",
      "type": "function"
    },
    {
      "inputs": [],
      "name": "getActivatedOracleProvidersCount",
      "outputs": [
        {
          "internalType": "uint256",
          "name": "count",
          "type": "uint256"
        }
      ],
      "stateMutability": "view",
      "type": "function",
      "constant": true
    }
  ],
  "bytecode": "0x608060405234801561001057600080fd5b5060405161172b38038061172b83398101604081905261002f91610076565b6000805460ff60a01b196001600160a01b0319909116331716600160a01b179055600280546001600160401b039092166001600160401b03199092169190911790556100a4565b600060208284031215610087578081fd5b81516001600160401b038116811461009d578182fd5b9392505050565b611678806100b36000396000f3fe608060405234801561001057600080fd5b50600436106100935760003560e01c8063a6c131fb11610066578063a6c131fb146100e6578063cadddd7d146100f9578063cde6940e1461010c578063d3ad531314610121578063f2fde38b1461013657610093565b80634642d26714610098578063485cc955146100ad5780638f32d59b146100c05780639499e018146100de575b600080fd5b6100ab6100a63660046112d0565b610149565b005b6100ab6100bb3660046110a0565b610367565b6100c86103bf565b6040516100d5919061132e565b60405180910390f35b6100ab6103d0565b6100ab6100f43660046110d8565b610408565b6100ab61010736600461125a565b61043e565b6101146106da565b6040516100d5919061149e565b6101296106e9565b6040516100d59190611311565b6100ab61014436600461107d565b61076b565b600054600160a01b900460ff1661017b5760405162461bcd60e51b815260040161017290611440565b60405180910390fd5b60095460405163775cbd8d60e01b815233916001600160a01b03169063775cbd8d906101ab90849060040161131a565b60206040518083038186803b1580156101c357600080fd5b505afa1580156101d7573d6000803e3d6000fd5b505050506040513d601f19601f820116820180604052508101906101fb91906110f4565b6102175760405162461bcd60e51b8152600401610172906113cd565b6000848152600460208190526040808320546008549151633a4396cb60e01b815290939283926001600160a01b031691633a4396cb9161025991879101611311565b60006040518083038186803b15801561027157600080fd5b505afa158015610285573d6000803e3d6000fd5b505050506040513d6000823e601f3d908101601f191682016040526102ad9190810190611110565b505050505092509250506000826001600160401b03161180156102d957506000816001600160401b0316115b6102f55760405162461bcd60e51b815260040161017290611414565b60008781526006602090815260408083203380855292529091205488919060ff16156103335760405162461bcd60e51b815260040161017290611368565b60008981526004602052604090205461034e338b8b8b6107b7565b61035b338b8b8b856109b2565b50505050505050505050565b6000546001600160a01b031633146103915760405162461bcd60e51b81526004016101729061139f565b600880546001600160a01b039384166001600160a01b03199182161790915560098054929093169116179055565b6000546001600160a01b0316331490565b6000546001600160a01b031633146103fa5760405162461bcd60e51b81526004016101729061139f565b6000546001600160a01b0316ff5b6000546001600160a01b031633146104325760405162461bcd60e51b81526004016101729061139f565b61043b81610d2a565b50565b600054600160a01b900460ff166104675760405162461bcd60e51b815260040161017290611440565b60095460405163775cbd8d60e01b815233916001600160a01b03169063775cbd8d9061049790849060040161131a565b60206040518083038186803b1580156104af57600080fd5b505afa1580156104c3573d6000803e3d6000fd5b505050506040513d601f19601f820116820180604052508101906104e791906110f4565b6105035760405162461bcd60e51b8152600401610172906113cd565b600854604051633a4396cb60e01b8152859160009182916001600160a01b031690633a4396cb90610538908690600401611311565b60006040518083038186803b15801561055057600080fd5b505afa158015610564573d6000803e3d6000fd5b505050506040513d6000823e601f3d908101601f1916820160405261058c9190810190611110565b505050505092509250506000826001600160401b03161180156105b857506000816001600160401b0316115b6105d45760405162461bcd60e51b815260040161017290611414565b60006105e06005610d48565b6003549091506105f1906001610db4565b600381905550604051806080016040528089815260200188888080601f01602080910402602001604051908101604052809392919081815260200183838082843760009201829052509385525050506020808301859052604092830182905260035482526004815291902082518155828201518051919261067a92600185019290910190610fc3565b50604082015181600201556060820151816003015590505080886003547fca9e621fdc96e6f22f70cb156bd2a2070b94f571d304c7fd10de5532b7df07c88a8a6040516106c8929190611339565b60405180910390a45050505050505050565b6002546001600160401b031681565b6009546040805163d3ad531360e01b815290516000926001600160a01b03169163d3ad5313916004808301926020929190829003018186803b15801561072e57600080fd5b505afa158015610742573d6000803e3d6000fd5b505050506040513d601f19601f820116820180604052508101906107669190611242565b905090565b6000546001600160a01b031633146107955760405162461bcd60e51b81526004016101729061139f565b600080546001600160a01b0319166001600160a01b0392909216919091179055565b60008381526004602052604081206003018054916107d483611599565b909155505060008381526006602090815260408083206001600160a01b03881684528252808320805460ff19166001179055858352600582528083206001600160401b0386168452909152812080549161082d83611599565b909155505060008381526005602090815260408083206001600160401b0385168452909152812080549161086083611599565b90915550506000838152600760205260409020546001600160401b03166108c857600083815260076020526040902080546001600160401b03838116600160401b0267ffffffffffffffff60401b1991861667ffffffffffffffff1990931692909217161790555b60008381526005602090815260408083206001600160401b03868116855281845282852054888652600785528386205490911685529252909120541115610932576000838152600760205260409020805467ffffffffffffffff19166001600160401b0384161790555b60008381526005602090815260408083206001600160401b038581168552818452828520548886526007855283862054600160401b9004909116855292529091205411156109ac576000838152600760205260409020805467ffffffffffffffff60401b1916600160401b6001600160401b038416021790555b50505050565b610a2e6002306001600160a01b031663d3ad53136040518163ffffffff1660e01b815260040160206040518083038186803b1580156109f057600080fd5b505afa158015610a04573d6000803e3d6000fd5b505050506040513d601f19601f82011682018060405250810190610a289190611242565b90610dc9565b600085815260056020908152604080832060078352818420546001600160401b0316845290915290205410801590610ad35750610a9f6002306001600160a01b031663d3ad53136040518163ffffffff1660e01b815260040160206040518083038186803b1580156109f057600080fd5b60008581526005602090815260408083206007835281842054600160401b90046001600160401b0316845290915290205410155b15610c4a57600854604051633a4396cb60e01b815260009182916001600160a01b0390911690633a4396cb90610b0d908690600401611311565b60006040518083038186803b158015610b2557600080fd5b505afa158015610b39573d6000803e3d6000fd5b505050506040513d6000823e601f3d908101601f19168201604052610b619190810190611110565b975050505050935050506000610b7987848888610dd5565b9050610b858183610e66565b876001600160a01b031684887f6df3b5fe0784f75088290e5600d09ae7171e7fe10b267a42c174adec3347240e8989604051610bc29291906114b2565b60405180910390a4837f6dc1daabe93cf7db34702c320e2bad8c3ce355c88a708ea8fdd236309b8eb2ee868884604051610bfe939291906114cc565b60405180910390a2837fc836efc6512c31c528bdba0acef435557e48c3ddbe83ef5ac1b6386fc4fd5749878784604051610c3a939291906114cc565b60405180910390a2505050610d23565b610c886002306001600160a01b031663d3ad53136040518163ffffffff1660e01b815260040160206040518083038186803b1580156109f057600080fd5b6000858152600460205260409020600301541115610cdd576000848152600460205260408082205490519091829187917f7f502fdd694680e3c61a6b1d8efc70881651552e6885a8dafbc874e9da1f12c891a3505b846001600160a01b031681857f6df3b5fe0784f75088290e5600d09ae7171e7fe10b267a42c174adec3347240e8686604051610d1a9291906114b2565b60405180910390a45b5050505050565b60008054911515600160a01b0260ff60a01b19909216919091179055565b6000606460015410610d5a5760006001555b6001805483916000610d6b83611599565b90915550610d7990426114f0565b604051602001610d899190611311565b6040516020818303038152906040528051906020012060001c610dac91906115b4565b90505b919050565b6000610dc082846114f0565b90505b92915050565b6000610dc08284611533565b6000610de18483610f75565b600086815260046020819052604091829020546008549251633b5fc92f60e21b8152939450926001600160a01b039092169163ed7f24bc91610e2b91859189918991899101611477565b600060405180830381600087803b158015610e4557600080fd5b505af1158015610e59573d6000803e3d6000fd5b5050505050949350505050565b81158015610e745750600081115b15610f715760085460408051631a9160d760e31b815290516000926001600160a01b03169163d48b06b8916004808301926020929190829003018186803b158015610ebe57600080fd5b505afa158015610ed2573d6000803e3d6000fd5b505050506040513d601f19601f82011682018060405250810190610ef69190611242565b90508015610f6f576000610f0a8284610fb7565b600854604051630b33771560e01b81529192506001600160a01b031690630b33771590610f3b908490600401611311565b600060405180830381600087803b158015610f5557600080fd5b505af1158015610f69573d6000803e3d6000fd5b50505050505b505b5050565b600254600090610f8e906001600160401b031684611508565b6001600160401b0316826001600160401b03161115610faf57506001610dc3565b506000610dc3565b6000610dc08284611547565b828054610fcf9061155e565b90600052602060002090601f016020900481019282610ff15760008555611037565b82601f1061100a57805160ff1916838001178555611037565b82800160010185558215611037579182015b8281111561103757825182559160200191906001019061101c565b50611043929150611047565b5090565b5b808211156110435760008155600101611048565b8051610daf8161160a565b8051610daf8161161f565b8051610daf8161162d565b60006020828403121561108e578081fd5b81356110998161160a565b9392505050565b600080604083850312156110b2578081fd5b82356110bd8161160a565b915060208301356110cd8161160a565b809150509250929050565b6000602082840312156110e9578081fd5b81356110998161161f565b600060208284031215611105578081fd5b81516110998161161f565b600080600080600080600080610100898b03121561112c578384fd5b88516001600160401b0380821115611142578586fd5b818b0191508b601f830112611155578586fd5b815181811115611167576111676115f4565b6040516020601f8301601f191682018101848111838210171561118c5761118c6115f4565b60405282825284830181018f10156111a2578889fd5b8893505b828410156111c357848401810151828501820152928301926111a6565b828411156111d357888184840101525b819c506111e1818f01611072565b9b5050505050506111f460408a01611072565b955061120260608a01611072565b945061121060808a01611072565b935061121e60a08a01611067565b925061122c60c08a0161105c565b915060e089015190509295985092959890939650565b600060208284031215611253578081fd5b5051919050565b60008060006040848603121561126e578283fd5b8335925060208401356001600160401b038082111561128b578384fd5b818601915086601f83011261129e578384fd5b8135818111156112ac578485fd5b8760208285010111156112bd578485fd5b6020830194508093505050509250925092565b6000806000606084860312156112e4578283fd5b8335925060208401356112f68161162d565b915060408401356113068161162d565b809150509250925092565b90815260200190565b6001600160a01b0391909116815260200190565b901515815260200190565b60006020825282602083015282846040840137818301604090810191909152601f909201601f19160101919050565b6020808252601b908201527f63616c6c65722068617320616c726561647920616e7377657265640000000000604082015260600190565b60208082526014908201527331b0b63632b91036bab9ba1031329037bbb732b960611b604082015260600190565b60208082526027908201527f63616c6c6572206973206e6f7420616374697661746564206f7261636c6520706040820152663937bb34b232b960c91b606082015260800190565b602080825260129082015271666c69676874206d7573742065786973747360701b604082015260600190565b6020808252601d908201527f636f6e7472616374206d757374206265206f7065726174696f6e6e616c000000604082015260600190565b9384526001600160401b039283166020850152911660408301521515606082015260800190565b6001600160401b0391909116815260200190565b6001600160401b0392831681529116602082015260400190565b6001600160401b039384168152919092166020820152901515604082015260600190565b60008219821115611503576115036115c8565b500190565b60006001600160401b0380831681851680830382111561152a5761152a6115c8565b01949350505050565b600082611542576115426115de565b500490565b600082821015611559576115596115c8565b500390565b60028104600182168061157257607f821691505b6020821081141561159357634e487b7160e01b600052602260045260246000fd5b50919050565b60006000198214156115ad576115ad6115c8565b5060010190565b6000826115c3576115c36115de565b500690565b634e487b7160e01b600052601160045260246000fd5b634e487b7160e01b600052601260045260246000fd5b634e487b7160e01b600052604160045260246000fd5b6001600160a01b038116811461043b57600080fd5b801515811461043b57600080fd5b6001600160401b038116811461043b57600080fdfea26469706673582212205f0029213bb227738fc0edf4a89b2f31764d4a395c274253b14008f7eae2b74d64736f6c63430008000033",
  "immutableReferences": {},
  "source": "// SPDX-License-Identifier: UNLICENSED\npragma solidity ^0.8.00;\n\nimport \"../Ownable/Ownable.sol\";\nimport \"../Pausable/Pausable.sol\";\nimport \"../Random/Random.sol\";\nimport \"./interfaces/IOracleProviderRoleOracle.sol\";\nimport \"./interfaces/IFlightSuretyDataOracle.sol\";\nimport \"@openzeppelin/contracts/utils/math/SafeMath.sol\";\n\ncontract FlightSuretyOracle is Ownable, Pausable, Random {\n    using SafeMath for uint256;\n    struct Request {\n        uint256 flightID;\n        string flightRef;\n        uint256 activatedIndex;\n        uint256 responseCount;\n    }\n\n    // one hour flight delay = 3600 block\n    uint64 public authorizedFlightDelay;\n    uint256 currentRequestID;\n    mapping(uint256 => Request) requests;\n    mapping(uint256 => mapping(uint64 => uint256)) responses;\n    mapping(uint256 => mapping(address => bool)) responseCallers;\n    mapping(uint256 => uint64[2]) acceptedAnswer;\n    IFlightSuretyDataOracle flightSuretyData;\n    IOracleProviderRoleOracle oracleProviderRole;\n\n    // requests related events\n    event NewRequest(\n        uint256 indexed requestID,\n        uint256 indexed flightID,\n        uint256 indexed activatedIndex,\n        string flightRef\n    );\n    event FailedRequest(uint256 indexed requestID, uint256 indexed flightID);\n    // responses related events\n    event NewResponse(\n        uint256 indexed requestID,\n        uint256 indexed flightID,\n        address indexed oracleProvider,\n        uint64 realDeparture,\n        uint64 realArrival\n    );\n    event AcceptedResponse(\n        uint256 indexed flightID,\n        uint64 realArrival,\n        uint64 realDeparture,\n        bool isLate\n    );\n    // flights related events\n    event UpdatedFlight(\n        uint256 indexed flightID,\n        uint64 realDeparture,\n        uint64 realArrival,\n        bool isLate\n    );\n\n    modifier onlyActivatedOracleProvider(address _caller) {\n        require(\n            oracleProviderRole.isActivatedOracleProvider(_caller),\n            \"caller is not activated oracle provider\"\n        );\n        _;\n    }\n\n    modifier onlySelectedOracleProvider(uint256 _requestID) {\n        uint256[3] memory oracleProvidersIndexes = oracleProviderRole\n            .getOracleProviderIndexes(msg.sender);\n        require(\n            oracleProvidersIndexes[0] == requests[_requestID].activatedIndex ||\n                oracleProvidersIndexes[1] ==\n                requests[_requestID].activatedIndex ||\n                oracleProvidersIndexes[2] ==\n                requests[_requestID].activatedIndex,\n            \"oracle provider indexes must match request indexes\"\n        );\n        _;\n    }\n\n    modifier requireOracleProviderHasNotAnsweredRequest(\n        uint256 requestID,\n        address caller\n    ) {\n        require(\n            !responseCallers[requestID][caller],\n            \"caller has already answered\"\n        );\n        _;\n    }\n\n    modifier requireFlightExists(uint256 _flightID) {\n        (\n            ,\n            uint64 estimatedDeparture,\n            uint64 estimatedArrival,\n            ,\n            ,\n            ,\n            ,\n\n        ) = flightSuretyData.getFlight(_flightID);\n        require(\n            estimatedDeparture > 0 && estimatedArrival > 0,\n            \"flight must exists\"\n        );\n        _;\n    }\n\n    // constructor setting authorized flight delay\n    constructor(uint64 _authorizedFlightDelay) Ownable() Pausable() {\n        authorizedFlightDelay = _authorizedFlightDelay;\n    }\n\n    // initialize external contracts addresses\n    function initialize(address _flightSuretyData, address _oracleProviderRole)\n        external\n        onlyOwner\n    {\n        // registering external contracts address\n        flightSuretyData = IFlightSuretyDataOracle(_flightSuretyData);\n        oracleProviderRole = IOracleProviderRoleOracle(_oracleProviderRole);\n    }\n\n    /* operationnal status */\n\n    function setOperationnal(bool _operationnal) external onlyOwner {\n        _setOperationnal(_operationnal);\n    }\n\n    // create a request for a targeted oracle provider subset\n    function createRequest(uint256 _flightID, string calldata _flightRef)\n        external\n        onlyOperational\n        onlyActivatedOracleProvider(msg.sender)\n        requireFlightExists(_flightID)\n    {\n        uint256 _randomIndex = _rand(5);\n        currentRequestID = currentRequestID.add(1);\n        requests[currentRequestID] = Request({\n            flightID: _flightID,\n            flightRef: _flightRef,\n            activatedIndex: _randomIndex,\n            responseCount: 0\n        });\n        emit NewRequest(currentRequestID, _flightID, _randomIndex, _flightRef);\n    }\n\n    // update responses to a request and validate the accepted outcome according to multiparty consensus rules\n    function respondToRequest(\n        uint256 _requestID,\n        uint64 _realDeparture,\n        uint64 _realArrival\n    )\n        external\n        onlyOperational\n        onlyActivatedOracleProvider(msg.sender)\n        requireFlightExists(requests[_requestID].flightID)\n        requireOracleProviderHasNotAnsweredRequest(_requestID, msg.sender)\n    {\n        uint256 flightID = requests[_requestID].flightID;\n        _updateResponses(msg.sender, _requestID, _realDeparture, _realArrival);\n        _acceptResponse(\n            msg.sender,\n            _requestID,\n            _realDeparture,\n            _realArrival,\n            flightID\n        );\n    }\n\n    // update responses to a request incrementing each outcomes to decide which response makes consensus among the selected set of oracle provider\n    function _updateResponses(\n        address _caller,\n        uint256 _requestID,\n        uint64 _realDeparture,\n        uint64 _realArrival\n    ) internal {\n        // increment response count related to request\n        requests[_requestID].responseCount++;\n        // set caller of a request to msg.sender to forbid multi call for a single request\n        responseCallers[_requestID][_caller] = true;\n        // set the proposed real departure field of a request id an count agreement + 1\n        responses[_requestID][_realDeparture]++;\n        // set the proposed real arrival field of a request id an count agreement + 1\n        responses[_requestID][_realArrival]++;\n        // if first response to a request set it as the accepted answer\n        if (acceptedAnswer[_requestID][0] == 0) {\n            acceptedAnswer[_requestID][0] = _realDeparture;\n            acceptedAnswer[_requestID][1] = _realArrival;\n        }\n        // change the accepted answers according to the oracle call\n        if (\n            responses[_requestID][acceptedAnswer[_requestID][0]] >\n            responses[_requestID][_realDeparture]\n        ) {\n            acceptedAnswer[_requestID][0] = _realDeparture;\n        }\n\n        if (\n            responses[_requestID][acceptedAnswer[_requestID][1]] >\n            responses[_requestID][_realArrival]\n        ) {\n            acceptedAnswer[_requestID][1] = _realArrival;\n        }\n    }\n\n    // accept or reject an accepted response as the final one according to a set treshold constant\n    function _acceptResponse(\n        address _caller,\n        uint256 _requestID,\n        uint64 _realDeparture,\n        uint64 _realArrival,\n        uint256 flightID\n    ) internal {\n        // check if consensus treshold on the accepted answer (the most present data) is reached\n        if (\n            responses[_requestID][acceptedAnswer[_requestID][0]] >=\n            this.getActivatedOracleProvidersCount().div(2) &&\n            responses[_requestID][acceptedAnswer[_requestID][1]] >=\n            this.getActivatedOracleProvidersCount().div(2)\n        ) {\n            // get flight\n            (\n                ,\n                ,\n                uint64 _estimatedArrival,\n                ,\n                ,\n                ,\n                ,\n                uint256 insuredValue\n            ) = flightSuretyData.getFlight(flightID);\n            // update flight attributes\n            bool _isLate = _updateFlight(\n                _requestID,\n                _estimatedArrival,\n                _realDeparture,\n                _realArrival\n            );\n            // update total insured value if flight is not late (no funds to cover anymore)\n            _updateTotalInsuredValue(_isLate, insuredValue);\n            emit NewResponse(\n                _requestID,\n                flightID,\n                _caller,\n                _realDeparture,\n                _realArrival\n            );\n            emit AcceptedResponse(\n                flightID,\n                _realArrival,\n                _realDeparture,\n                _isLate\n            );\n            emit UpdatedFlight(flightID, _realDeparture, _realArrival, _isLate);\n        } else {\n            if (\n                requests[_requestID].responseCount >\n                this.getActivatedOracleProvidersCount().div(2)\n            ) {\n                uint256 _flightID = requests[_requestID].flightID;\n                emit FailedRequest(_requestID, _flightID);\n            }\n            emit NewResponse(\n                _requestID,\n                flightID,\n                _caller,\n                _realDeparture,\n                _realArrival\n            );\n        }\n    }\n\n    // check if a flight is late\n    function checkFlightIsLate(uint64 _estimatedArrival, uint64 _realArrival)\n        internal\n        view\n        returns (bool isLate)\n    {\n        if (_realArrival > _estimatedArrival + authorizedFlightDelay) {\n            return true;\n        } else {\n            return false;\n        }\n    }\n\n    function getActivatedOracleProvidersCount()\n        external\n        view\n        returns (uint256 count)\n    {\n        return oracleProviderRole.getActivatedOracleProvidersCount();\n    }\n\n    // update flight data\n    function _updateFlight(\n        uint256 _requestID,\n        uint64 _estimatedArrival,\n        uint64 _realDeparture,\n        uint64 _realArrival\n    ) internal returns (bool _isLate) {\n        _isLate = checkFlightIsLate(_estimatedArrival, _realArrival);\n        uint256 _flightID = requests[_requestID].flightID;\n        flightSuretyData.updateFlight(\n            _flightID,\n            _realDeparture,\n            _realArrival,\n            _isLate\n        );\n        return _isLate;\n    }\n\n    // update insured value if flight is not late (no funds to cover anymore)\n    function _updateTotalInsuredValue(bool _isLate, uint256 _flightInsuredValue)\n        internal\n    {\n        if (!_isLate && _flightInsuredValue > 0) {\n            uint256 totalInsuredValue = flightSuretyData.getTotalInsuredValue();\n            if (totalInsuredValue > 0) {\n                uint256 newTotalInsuredValue = totalInsuredValue.sub(\n                    _flightInsuredValue\n                );\n                flightSuretyData.setTotalInsuredValue(newTotalInsuredValue);\n            }\n        }\n    }\n}\n",
  "sourcePath": "/home/tothemoon_/Documents/FlightInsurance/contracts/FlightSuretyOracle/FlightSuretyOracle.sol",
  "compiler": {
    "name": "solc",
    "version": "0.8.0+commit.c7dfd78e.Emscripten.clang"
  },
  "schemaVersion": "3.4.2",
  "updatedAt": "2021-08-18T13:52:08.163Z",
  "networkType": "ethereum",
  "devdoc": {
    "kind": "dev",
    "methods": {},
    "version": 1
  },
  "userdoc": {
    "kind": "user",
    "methods": {},
    "version": 1
  }
}