{
  "contractName": "FlightSuretyApp",
  "abi": [
    {
      "inputs": [
        {
          "internalType": "uint256",
          "name": "_tokenHolderMinBlockRequirement",
          "type": "uint256"
        },
        {
          "internalType": "uint256",
          "name": "_proposalValidBlockNum",
          "type": "uint256"
        }
      ],
      "stateMutability": "nonpayable",
      "type": "constructor"
    },
    {
      "anonymous": false,
      "inputs": [
        {
          "indexed": true,
          "internalType": "uint256",
          "name": "proposalID",
          "type": "uint256"
        },
        {
          "indexed": false,
          "internalType": "uint256",
          "name": "insuranceCoverage",
          "type": "uint256"
        }
      ],
      "name": "ActivatedInsuranceCoverageAmendmentProposal",
      "type": "event"
    },
    {
      "anonymous": false,
      "inputs": [
        {
          "indexed": true,
          "internalType": "address",
          "name": "insuranceProvider",
          "type": "address"
        }
      ],
      "name": "ActivatedInsuranceProvider",
      "type": "event"
    },
    {
      "anonymous": false,
      "inputs": [
        {
          "indexed": true,
          "internalType": "uint256",
          "name": "proposalID",
          "type": "uint256"
        },
        {
          "indexed": false,
          "internalType": "uint256",
          "name": "lockedMembershipFee",
          "type": "uint256"
        }
      ],
      "name": "ActivatedMembershipFeeAmendmentProposal",
      "type": "event"
    },
    {
      "anonymous": false,
      "inputs": [
        {
          "indexed": true,
          "internalType": "address",
          "name": "oracleProvider",
          "type": "address"
        }
      ],
      "name": "ActivatedOracleProvider",
      "type": "event"
    },
    {
      "anonymous": false,
      "inputs": [
        {
          "indexed": true,
          "internalType": "address",
          "name": "contractOwner",
          "type": "address"
        },
        {
          "indexed": false,
          "internalType": "address",
          "name": "caller",
          "type": "address"
        },
        {
          "indexed": false,
          "internalType": "address",
          "name": "contractAddress",
          "type": "address"
        }
      ],
      "name": "AuthorizedCaller",
      "type": "event"
    },
    {
      "anonymous": false,
      "inputs": [
        {
          "indexed": true,
          "internalType": "uint256",
          "name": "flightID",
          "type": "uint256"
        },
        {
          "indexed": true,
          "internalType": "address",
          "name": "insuranceProvider",
          "type": "address"
        },
        {
          "indexed": false,
          "internalType": "uint256",
          "name": "estimatedDeparture",
          "type": "uint256"
        },
        {
          "indexed": false,
          "internalType": "uint256",
          "name": "estimatedArrival",
          "type": "uint256"
        },
        {
          "indexed": false,
          "internalType": "string",
          "name": "flightRef",
          "type": "string"
        },
        {
          "indexed": false,
          "internalType": "uint256",
          "name": "rate",
          "type": "uint256"
        }
      ],
      "name": "NewFlight",
      "type": "event"
    },
    {
      "anonymous": false,
      "inputs": [
        {
          "indexed": true,
          "internalType": "address",
          "name": "passenger",
          "type": "address"
        },
        {
          "indexed": true,
          "internalType": "address",
          "name": "insuranceProvider",
          "type": "address"
        },
        {
          "indexed": true,
          "internalType": "uint256",
          "name": "insuranceID",
          "type": "uint256"
        },
        {
          "indexed": false,
          "internalType": "uint256",
          "name": "flightID",
          "type": "uint256"
        },
        {
          "indexed": false,
          "internalType": "uint256",
          "name": "insuredValue",
          "type": "uint256"
        }
      ],
      "name": "NewInsurance",
      "type": "event"
    },
    {
      "anonymous": false,
      "inputs": [
        {
          "indexed": true,
          "internalType": "uint256",
          "name": "proposalID",
          "type": "uint256"
        },
        {
          "indexed": true,
          "internalType": "address",
          "name": "caller",
          "type": "address"
        },
        {
          "indexed": false,
          "internalType": "uint256",
          "name": "insuranceCoverage",
          "type": "uint256"
        }
      ],
      "name": "NewInsuranceCoverageAmendmentProposal",
      "type": "event"
    },
    {
      "anonymous": false,
      "inputs": [
        {
          "indexed": true,
          "internalType": "uint256",
          "name": "proposalID",
          "type": "uint256"
        },
        {
          "indexed": true,
          "internalType": "address",
          "name": "caller",
          "type": "address"
        },
        {
          "indexed": false,
          "internalType": "uint256",
          "name": "proposedMembershipFee",
          "type": "uint256"
        }
      ],
      "name": "NewMembershipFeeAmendmentProposal",
      "type": "event"
    },
    {
      "anonymous": false,
      "inputs": [
        {
          "indexed": true,
          "internalType": "address",
          "name": "owner",
          "type": "address"
        },
        {
          "indexed": true,
          "internalType": "address",
          "name": "insuranceProvider",
          "type": "address"
        },
        {
          "indexed": true,
          "internalType": "uint256",
          "name": "flightID",
          "type": "uint256"
        },
        {
          "indexed": false,
          "internalType": "uint256",
          "name": "insuredValue",
          "type": "uint256"
        },
        {
          "indexed": false,
          "internalType": "uint256",
          "name": "insuranceID",
          "type": "uint256"
        }
      ],
      "name": "NewPayout",
      "type": "event"
    },
    {
      "anonymous": false,
      "inputs": [
        {
          "indexed": true,
          "internalType": "uint256",
          "name": "proposalID",
          "type": "uint256"
        },
        {
          "indexed": true,
          "internalType": "address",
          "name": "voter",
          "type": "address"
        }
      ],
      "name": "NewVoteInsuranceCoverageAmendmentProposal",
      "type": "event"
    },
    {
      "anonymous": false,
      "inputs": [
        {
          "indexed": true,
          "internalType": "address",
          "name": "voter",
          "type": "address"
        },
        {
          "indexed": true,
          "internalType": "bool",
          "name": "side",
          "type": "bool"
        },
        {
          "indexed": true,
          "internalType": "address",
          "name": "votee",
          "type": "address"
        }
      ],
      "name": "NewVoteInsuranceProvider",
      "type": "event"
    },
    {
      "anonymous": false,
      "inputs": [
        {
          "indexed": true,
          "internalType": "uint256",
          "name": "proposalID",
          "type": "uint256"
        },
        {
          "indexed": true,
          "internalType": "address",
          "name": "voter",
          "type": "address"
        }
      ],
      "name": "NewVoteMembershipFeeAmendmentProposal",
      "type": "event"
    },
    {
      "anonymous": false,
      "inputs": [
        {
          "indexed": true,
          "internalType": "address",
          "name": "voter",
          "type": "address"
        },
        {
          "indexed": true,
          "internalType": "bool",
          "name": "side",
          "type": "bool"
        },
        {
          "indexed": true,
          "internalType": "address",
          "name": "votee",
          "type": "address"
        }
      ],
      "name": "NewVoteOracleProvider",
      "type": "event"
    },
    {
      "anonymous": false,
      "inputs": [
        {
          "indexed": true,
          "internalType": "address",
          "name": "insuranceProvider",
          "type": "address"
        }
      ],
      "name": "RegisteredInsuranceProvider",
      "type": "event"
    },
    {
      "anonymous": false,
      "inputs": [
        {
          "indexed": true,
          "internalType": "address",
          "name": "oracleProvider",
          "type": "address"
        }
      ],
      "name": "RegisteredOracleProvider",
      "type": "event"
    },
    {
      "anonymous": false,
      "inputs": [
        {
          "indexed": true,
          "internalType": "address",
          "name": "insuranceProvider",
          "type": "address"
        }
      ],
      "name": "RemovedInsuranceProvider",
      "type": "event"
    },
    {
      "anonymous": false,
      "inputs": [
        {
          "indexed": true,
          "internalType": "address",
          "name": "oracleProvider",
          "type": "address"
        }
      ],
      "name": "RemovedOracleProvider",
      "type": "event"
    },
    {
      "anonymous": false,
      "inputs": [
        {
          "indexed": true,
          "internalType": "address",
          "name": "contractOwner",
          "type": "address"
        },
        {
          "indexed": false,
          "internalType": "address",
          "name": "caller",
          "type": "address"
        },
        {
          "indexed": false,
          "internalType": "address",
          "name": "contractAddress",
          "type": "address"
        }
      ],
      "name": "UnauthorizedCaller",
      "type": "event"
    },
    {
      "inputs": [],
      "name": "destructContract",
      "outputs": [],
      "stateMutability": "nonpayable",
      "type": "function"
    },
    {
      "inputs": [],
      "name": "isOwner",
      "outputs": [
        {
          "internalType": "bool",
          "name": "_isOwner",
          "type": "bool"
        }
      ],
      "stateMutability": "view",
      "type": "function",
      "constant": true
    },
    {
      "inputs": [],
      "name": "proposalValidBlockNum",
      "outputs": [
        {
          "internalType": "uint256",
          "name": "",
          "type": "uint256"
        }
      ],
      "stateMutability": "view",
      "type": "function",
      "constant": true
    },
    {
      "inputs": [],
      "name": "tokenHolderMinBlockRequirement",
      "outputs": [
        {
          "internalType": "uint256",
          "name": "",
          "type": "uint256"
        }
      ],
      "stateMutability": "view",
      "type": "function",
      "constant": true
    },
    {
      "inputs": [
        {
          "internalType": "address",
          "name": "_newOwner",
          "type": "address"
        }
      ],
      "name": "transferOwnership",
      "outputs": [],
      "stateMutability": "nonpayable",
      "type": "function"
    },
    {
      "inputs": [
        {
          "internalType": "address",
          "name": "_flightSuretyData",
          "type": "address"
        },
        {
          "internalType": "address",
          "name": "_insuranceCoverageAmendmentProposal",
          "type": "address"
        },
        {
          "internalType": "address",
          "name": "_membershipFeeAmendmentProposal",
          "type": "address"
        },
        {
          "internalType": "address",
          "name": "_insuranceProviderRole",
          "type": "address"
        },
        {
          "internalType": "address",
          "name": "_oracleProviderRole",
          "type": "address"
        },
        {
          "internalType": "address",
          "name": "_flightSuretyShares",
          "type": "address"
        }
      ],
      "name": "initialize",
      "outputs": [],
      "stateMutability": "nonpayable",
      "type": "function"
    },
    {
      "inputs": [
        {
          "internalType": "address",
          "name": "_authorizedCaller",
          "type": "address"
        },
        {
          "internalType": "bool",
          "name": "_access",
          "type": "bool"
        }
      ],
      "name": "updateAuthorizedCallerFlightSuretyData",
      "outputs": [],
      "stateMutability": "nonpayable",
      "type": "function"
    },
    {
      "inputs": [
        {
          "internalType": "address",
          "name": "_authorizedCaller",
          "type": "address"
        },
        {
          "internalType": "bool",
          "name": "_access",
          "type": "bool"
        }
      ],
      "name": "updateAuthorizedCallerInsuranceCoverageAmendmentProposal",
      "outputs": [],
      "stateMutability": "nonpayable",
      "type": "function"
    },
    {
      "inputs": [
        {
          "internalType": "address",
          "name": "_authorizedCaller",
          "type": "address"
        },
        {
          "internalType": "bool",
          "name": "_access",
          "type": "bool"
        }
      ],
      "name": "updateAuthorizedCallerMembershipFeeAmendmentProposal",
      "outputs": [],
      "stateMutability": "nonpayable",
      "type": "function"
    },
    {
      "inputs": [
        {
          "internalType": "address",
          "name": "_authorizedCaller",
          "type": "address"
        },
        {
          "internalType": "bool",
          "name": "_access",
          "type": "bool"
        }
      ],
      "name": "updateAuthorizedCallerInsuranceProviderRole",
      "outputs": [],
      "stateMutability": "nonpayable",
      "type": "function"
    },
    {
      "inputs": [
        {
          "internalType": "address",
          "name": "_authorizedCaller",
          "type": "address"
        },
        {
          "internalType": "bool",
          "name": "_access",
          "type": "bool"
        }
      ],
      "name": "updateAuthorizedCallerOracleProviderRole",
      "outputs": [],
      "stateMutability": "nonpayable",
      "type": "function"
    },
    {
      "inputs": [
        {
          "internalType": "address",
          "name": "_authorizedCaller",
          "type": "address"
        },
        {
          "internalType": "bool",
          "name": "_access",
          "type": "bool"
        }
      ],
      "name": "updateAuthorizedCallerFlighSuretyShares",
      "outputs": [],
      "stateMutability": "nonpayable",
      "type": "function"
    },
    {
      "inputs": [],
      "name": "registerInsuranceProvider",
      "outputs": [],
      "stateMutability": "payable",
      "type": "function",
      "payable": true
    },
    {
      "inputs": [],
      "name": "registerOracleProvider",
      "outputs": [],
      "stateMutability": "payable",
      "type": "function",
      "payable": true
    },
    {
      "inputs": [
        {
          "internalType": "address",
          "name": "_account",
          "type": "address"
        }
      ],
      "name": "voteInsuranceProviderMembership",
      "outputs": [],
      "stateMutability": "nonpayable",
      "type": "function"
    },
    {
      "inputs": [
        {
          "internalType": "address",
          "name": "_account",
          "type": "address"
        }
      ],
      "name": "voteOracleProviderMembership",
      "outputs": [],
      "stateMutability": "nonpayable",
      "type": "function"
    },
    {
      "inputs": [
        {
          "internalType": "string",
          "name": "_flightRef",
          "type": "string"
        },
        {
          "internalType": "uint64",
          "name": "_estimatedDeparture",
          "type": "uint64"
        },
        {
          "internalType": "uint64",
          "name": "_estimatedArrival",
          "type": "uint64"
        },
        {
          "internalType": "uint256",
          "name": "_rate",
          "type": "uint256"
        }
      ],
      "name": "registerFlight",
      "outputs": [],
      "stateMutability": "nonpayable",
      "type": "function"
    },
    {
      "inputs": [
        {
          "internalType": "uint256",
          "name": "_flightID",
          "type": "uint256"
        }
      ],
      "name": "getFlightInitialData",
      "outputs": [
        {
          "internalType": "string",
          "name": "flightRef",
          "type": "string"
        },
        {
          "internalType": "uint64",
          "name": "estimatedDeparture",
          "type": "uint64"
        },
        {
          "internalType": "uint64",
          "name": "estimatedArrival",
          "type": "uint64"
        },
        {
          "internalType": "address",
          "name": "insuranceProvider",
          "type": "address"
        },
        {
          "internalType": "uint256",
          "name": "rate",
          "type": "uint256"
        }
      ],
      "stateMutability": "view",
      "type": "function",
      "constant": true
    },
    {
      "inputs": [
        {
          "internalType": "uint256",
          "name": "_flightID",
          "type": "uint256"
        }
      ],
      "name": "getFlightSettlementData",
      "outputs": [
        {
          "internalType": "string",
          "name": "flightRef",
          "type": "string"
        },
        {
          "internalType": "uint64",
          "name": "realDeparture",
          "type": "uint64"
        },
        {
          "internalType": "uint64",
          "name": "realArrival",
          "type": "uint64"
        },
        {
          "internalType": "bool",
          "name": "isLate",
          "type": "bool"
        },
        {
          "internalType": "address",
          "name": "insuranceProvider",
          "type": "address"
        },
        {
          "internalType": "uint256",
          "name": "insuredValue",
          "type": "uint256"
        }
      ],
      "stateMutability": "view",
      "type": "function",
      "constant": true
    },
    {
      "inputs": [
        {
          "internalType": "uint256",
          "name": "_flightID",
          "type": "uint256"
        }
      ],
      "name": "registerInsurance",
      "outputs": [],
      "stateMutability": "payable",
      "type": "function",
      "payable": true
    },
    {
      "inputs": [
        {
          "internalType": "uint256",
          "name": "_insuranceID",
          "type": "uint256"
        }
      ],
      "name": "claimInsurance",
      "outputs": [],
      "stateMutability": "payable",
      "type": "function",
      "payable": true
    },
    {
      "inputs": [],
      "name": "currentMembershipFee",
      "outputs": [
        {
          "internalType": "uint256",
          "name": "",
          "type": "uint256"
        }
      ],
      "stateMutability": "view",
      "type": "function",
      "constant": true
    },
    {
      "inputs": [],
      "name": "currentInsuranceCoverageRatio",
      "outputs": [
        {
          "internalType": "uint256",
          "name": "",
          "type": "uint256"
        }
      ],
      "stateMutability": "view",
      "type": "function",
      "constant": true
    },
    {
      "inputs": [
        {
          "internalType": "uint256",
          "name": "_proposedValue",
          "type": "uint256"
        }
      ],
      "name": "registerMembershipFeeAmendmentProposal",
      "outputs": [],
      "stateMutability": "nonpayable",
      "type": "function"
    },
    {
      "inputs": [
        {
          "internalType": "uint256",
          "name": "_proposalID",
          "type": "uint256"
        }
      ],
      "name": "voteMembershipFeeAmendmentProposal",
      "outputs": [],
      "stateMutability": "nonpayable",
      "type": "function"
    },
    {
      "inputs": [
        {
          "internalType": "uint256",
          "name": "_proposedValue",
          "type": "uint256"
        }
      ],
      "name": "registerInsuranceCoverageAmendmentProposal",
      "outputs": [],
      "stateMutability": "nonpayable",
      "type": "function"
    },
    {
      "inputs": [
        {
          "internalType": "uint256",
          "name": "_proposalID",
          "type": "uint256"
        }
      ],
      "name": "voteInsuranceCoverageAmendmentProposal",
      "outputs": [],
      "stateMutability": "nonpayable",
      "type": "function"
    },
    {
      "inputs": [],
      "name": "getOracleIndexes",
      "outputs": [
        {
          "internalType": "uint256",
          "name": "index1",
          "type": "uint256"
        },
        {
          "internalType": "uint256",
          "name": "index2",
          "type": "uint256"
        },
        {
          "internalType": "uint256",
          "name": "index3",
          "type": "uint256"
        }
      ],
      "stateMutability": "view",
      "type": "function",
      "constant": true
    }
  ],
  "bytecode": "0x60806040523480156200001157600080fd5b5060405162004d1938038062004d19833981016040819052620000349162000055565b600080546001600160a01b0319163317905560019190915560025562000079565b6000806040838503121562000068578182fd5b505080516020909101519092909150565b614c9080620000896000396000f3fe6080604052600436106101b75760003560e01c80636c548134116100ec578063be3781141161008a578063cc2a9a5b11610064578063cc2a9a5b14610489578063f2fde38b146104a9578063f55f6651146104c9578063f85920d8146104e9576101b7565b8063be37811414610429578063c7aa262814610449578063ca51f66414610469576101b7565b80639499e018116100c65780639499e018146103ae57806397a10723146103c3578063ab541398146103f4578063bbab516614610409576101b7565b80636c548134146103645780638a4fa7f01461036c5780638f32d59b1461038c576101b7565b80632e24a3ea11610159578063554a75ca11610133578063554a75ca146102d25780635ed5207b146102f25780635eeb2d881461031257806366fa5e8514610344576101b7565b80632e24a3ea1461027d578063383da3631461029257806342f3cc5f146102b2576101b7565b80631abbc610116101955780631abbc61014610215578063210870bb1461022a5780632600fc9b1461024a57806327a5fe7e1461025d576101b7565b806304a11de7146101bc578063175a2ead146101e757806317905a2f1461020b575b600080fd5b3480156101c857600080fd5b506101d16104fc565b6040516101de9190614a6b565b60405180910390f35b3480156101f357600080fd5b506101fc610589565b6040516101de93929190614abe565b6102136106c4565b005b34801561022157600080fd5b506101d1610ae6565b34801561023657600080fd5b50610213610245366004614220565b610b2b565b610213610258366004614427565b610c97565b34801561026957600080fd5b50610213610278366004614220565b6110f4565b34801561028957600080fd5b506101d1611246565b34801561029e57600080fd5b506102136102ad366004614427565b61124c565b3480156102be57600080fd5b506102136102cd366004614183565b6117a8565b3480156102de57600080fd5b506102136102ed366004614220565b611c44565b3480156102fe57600080fd5b5061021361030d366004614220565b611d94565b34801561031e57600080fd5b5061033261032d366004614427565b611ee6565b6040516101de96959493929190614674565b34801561035057600080fd5b5061021361035f366004614427565b611f90565b610213612484565b34801561037857600080fd5b50610213610387366004614427565b612808565b34801561039857600080fd5b506103a1612a87565b6040516101de91906145fe565b3480156103ba57600080fd5b50610213612a98565b3480156103cf57600080fd5b506103e36103de366004614427565b612ad0565b6040516101de95949392919061462a565b34801561040057600080fd5b506101d1612b75565b34801561041557600080fd5b50610213610424366004614220565b612b7b565b34801561043557600080fd5b50610213610444366004614183565b612ccd565b34801561045557600080fd5b50610213610464366004614220565b61316a565b34801561047557600080fd5b50610213610484366004614274565b6132bc565b34801561049557600080fd5b506102136104a436600461419f565b613504565b3480156104b557600080fd5b506102136104c4366004614183565b6136a6565b3480156104d557600080fd5b506102136104e4366004614427565b6136f2565b6102136104f7366004614427565b613973565b6000600460009054906101000a90046001600160a01b03166001600160a01b031663fde0c4636040518163ffffffff1660e01b815260040160206040518083038186803b15801561054c57600080fd5b505afa158015610560573d6000803e3d6000fd5b505050506040513d601f19601f82011682018060405250810190610584919061443f565b905090565b60075460405163775cbd8d60e01b81526000918291829133916001600160a01b039091169063775cbd8d906105c2908490600401614527565b60206040518083038186803b1580156105da57600080fd5b505afa1580156105ee573d6000803e3d6000fd5b505050506040513d601f19601f820116820180604052508101906106129190614258565b6106375760405162461bcd60e51b815260040161062e9061498d565b60405180910390fd5b6007546040516321addc4d60e11b81526001600160a01b039091169063435bb89a90610667903390600401614527565b60606040518083038186803b15801561067f57600080fd5b505afa158015610693573d6000803e3d6000fd5b505050506040513d601f19601f820116820180604052508101906106b791906144a1565b9195509350915050909192565b60065460405163d81bfa8960e01b815233916001600160a01b03169063d81bfa89906106f4908490600401614527565b60206040518083038186803b15801561070c57600080fd5b505afa158015610720573d6000803e3d6000fd5b505050506040513d601f19601f820116820180604052508101906107449190614258565b6107605760405162461bcd60e51b815260040161062e906147bb565b600554604080516332393eb760e21b815290516000926001600160a01b03169163c8e4fadc916004808301926020929190829003018186803b1580156107a557600080fd5b505afa1580156107b9573d6000803e3d6000fd5b505050506040513d601f19601f820116820180604052508101906107dd919061443f565b9050803410156107ff5760405162461bcd60e51b815260040161062e906146c6565b803411156108945760006108133483613f10565b90506000336001600160a01b03168260405161082e90614524565b60006040518083038185875af1925050503d806000811461086b576040519150601f19603f3d011682016040523d82523d6000602084013e610870565b606091505b50509050806108915760405162461bcd60e51b815260040161062e906149d4565b50505b600654604051635a2449a960e01b81526001600160a01b0390911690635a2449a9906108c4903390600401614527565b600060405180830381600087803b1580156108de57600080fd5b505af11580156108f2573d6000803e3d6000fd5b505050506000600660009054906101000a90046001600160a01b03166001600160a01b0316632dfa077c6040518163ffffffff1660e01b815260040160206040518083038186803b15801561094657600080fd5b505afa15801561095a573d6000803e3d6000fd5b505050506040513d601f19601f8201168201806040525081019061097e919061443f565b905060048111610ab557600654604051636c66623d60e11b81526001600160a01b039091169063d8ccc47a906109b8903390600401614527565b600060405180830381600087803b1580156109d257600080fd5b505af11580156109e6573d6000803e3d6000fd5b5050505060006109f4613f23565b6008546040516340c10f1960e01b81529192506001600160a01b0316906340c10f1990610a2790339085906004016145c4565b600060405180830381600087803b158015610a4157600080fd5b505af1158015610a55573d6000803e3d6000fd5b50506040513392507fcfbd886b9409cf70d4b4a060d1e556397e323b33a7000b106b281cc43b0c26419150600090a260405133907f5dbffd047c48d57a7d972a24d9fe3ced4753a2b27c6b277fc905b1607ab99afe90600090a250610ae1565b60405133907fcfbd886b9409cf70d4b4a060d1e556397e323b33a7000b106b281cc43b0c264190600090a25b505050565b600554604080516332393eb760e21b815290516000926001600160a01b03169163c8e4fadc916004808301926020929190829003018186803b15801561054c57600080fd5b6000546001600160a01b03163314610b555760405162461bcd60e51b815260040161062e90614928565b8015610bf957600854604051632c388d5d60e01b81526001600160a01b0390911690632c388d5d90610b8b908590600401614527565b600060405180830381600087803b158015610ba557600080fd5b505af1158015610bb9573d6000803e3d6000fd5b5050600854604051339350600080516020614c1b8339815191529250610bec9186916001600160a01b039091169061453b565b60405180910390a2610c93565b60085460405163256462d760e11b81526001600160a01b0390911690634ac8c5ae90610c29908590600401614527565b600060405180830381600087803b158015610c4357600080fd5b505af1158015610c57573d6000803e3d6000fd5b5050600854604051339350600080516020614c3b8339815191529250610c8a9186916001600160a01b039091169061453b565b60405180910390a25b5050565b600354604051633a4396cb60e01b815282916000916001600160a01b0390911690633a4396cb90610ccc908590600401614a6b565b60006040518083038186803b158015610ce457600080fd5b505afa158015610cf8573d6000803e3d6000fd5b505050506040513d6000823e601f3d908101601f19168201604052610d20919081019061430b565b50505050505050915050428167ffffffffffffffff1611610d535760405162461bcd60e51b815260040161062e90614806565b600354604051633a4396cb60e01b815284916000916001600160a01b0390911690633a4396cb90610d88908590600401614a6b565b60006040518083038186803b158015610da057600080fd5b505afa158015610db4573d6000803e3d6000fd5b505050506040513d6000823e601f3d908101601f19168201604052610ddc919081019061430b565b9850505050505050505080341015610e065760405162461bcd60e51b815260040161062e9061473f565b6000610e128234613f10565b9050346000610ea782600360009054906101000a90046001600160a01b03166001600160a01b031663d48b06b86040518163ffffffff1660e01b815260040160206040518083038186803b158015610e6957600080fd5b505afa158015610e7d573d6000803e3d6000fd5b505050506040513d601f19601f82011682018060405250810190610ea1919061443f565b90613f28565b90506000610eb482613f34565b905047811115610ed65760405162461bcd60e51b815260040161062e9061483d565b600354604051633a4396cb60e01b815260009182916001600160a01b0390911690633a4396cb90610f0b908e90600401614a6b565b60006040518083038186803b158015610f2357600080fd5b505afa158015610f37573d6000803e3d6000fd5b505050506040513d6000823e601f3d908101601f19168201604052610f5f919081019061430b565b9850509750505050505050600360009054906101000a90046001600160a01b03166001600160a01b031663390fc413338d846040518463ffffffff1660e01b8152600401610faf939291906145dd565b600060405180830381600087803b158015610fc957600080fd5b505af1158015610fdd573d6000803e3d6000fd5b50505050610fea81613fd0565b600354604080516317291e0560e11b815290516000926001600160a01b031691632e523c0a916004808301926020929190829003018186803b15801561102f57600080fd5b505afa158015611043573d6000803e3d6000fd5b505050506040513d601f19601f82011682018060405250810190611067919061443f565b905080836001600160a01b0316336001600160a01b03167f92de6a95faf2432685c9d5eaf71891cadcf05e0b18ec223068412a8cb52ebb608f866040516110af929190614ab0565b60405180910390a4505060405133945085156108fc02935085925090506000818181858888f193505050501580156110eb573d6000803e3d6000fd5b50505050505050565b6000546001600160a01b0316331461111e5760405162461bcd60e51b815260040161062e90614928565b80156111b557600354604051632c388d5d60e01b81526001600160a01b0390911690632c388d5d90611154908590600401614527565b600060405180830381600087803b15801561116e57600080fd5b505af1158015611182573d6000803e3d6000fd5b5050600354604051339350600080516020614c1b8339815191529250610bec9186916001600160a01b039091169061453b565b60035460405163256462d760e11b81526001600160a01b0390911690634ac8c5ae906111e5908590600401614527565b600060405180830381600087803b1580156111ff57600080fd5b505af1158015611213573d6000803e3d6000fd5b5050600354604051339350600080516020614c3b8339815191529250610c8a9186916001600160a01b039091169061453b565b60015481565b6008546040516370a0823160e01b815233916000916001600160a01b03909116906370a0823190611281908590600401614527565b60206040518083038186803b15801561129957600080fd5b505afa1580156112ad573d6000803e3d6000fd5b505050506040513d601f19601f820116820180604052508101906112d1919061443f565b116112ee5760405162461bcd60e51b815260040161062e906149fd565b600854604051631bb7b02160e11b8152339160009161137c916001600160a01b03169063376f604290611325908690600401614527565b60206040518083038186803b15801561133d57600080fd5b505afa158015611351573d6000803e3d6000fd5b505050506040513d601f19601f82011682018060405250810190611375919061443f565b4390613f10565b90506001548110156113a05760405162461bcd60e51b815260040161062e906146fd565b60055460405163086b7e0b60e21b8152339186916001600160a01b03909116906321adf82c906113d690859085906004016145c4565b60206040518083038186803b1580156113ee57600080fd5b505afa158015611402573d6000803e3d6000fd5b505050506040513d601f19601f820116820180604052508101906114269190614258565b156114435760405162461bcd60e51b815260040161062e90614956565b600554604051635d7eb9d360e11b8152879160009161147a916001600160a01b03169063bafd73a690611325908690600401614a6b565b905060025481111561149e5760405162461bcd60e51b815260040161062e90614a34565b6005546008546040516370a0823160e01b81526001600160a01b039283169263785e7c10928c92339260019216906370a08231906114e0908590600401614527565b60206040518083038186803b1580156114f857600080fd5b505afa15801561150c573d6000803e3d6000fd5b505050506040513d601f19601f82011682018060405250810190611530919061443f565b6040518563ffffffff1660e01b815260040161154f9493929190614a74565b600060405180830381600087803b15801561156957600080fd5b505af115801561157d573d6000803e3d6000fd5b5050600554600092506001600160a01b0316905063b83c24be8a60016115a16140bd565b6040518463ffffffff1660e01b81526004016115bf93929190614a9a565b60206040518083038186803b1580156115d757600080fd5b505afa1580156115eb573d6000803e3d6000fd5b505050506040513d601f19601f8201168201806040525081019061160f9190614258565b9050801561176f5760055460405163020df34960e41b81526001600160a01b03909116906320df349090611647908c90600401614a6b565b600060405180830381600087803b15801561166157600080fd5b505af1158015611675573d6000803e3d6000fd5b505050506000600560009054906101000a90046001600160a01b03166001600160a01b031663c8e4fadc6040518163ffffffff1660e01b815260040160206040518083038186803b1580156116c957600080fd5b505afa1580156116dd573d6000803e3d6000fd5b505050506040513d601f19601f82011682018060405250810190611701919061443f565b60405190915033908b907f0450a2b5feaa1ee53edb36ef2d8854b1a508547d111e43b5b1ead1b090a5daa290600090a3897f1b454f919e7ff592d633a0d62845314e86de1463aa34dea4aab7c0ab6945a73d826040516117619190614a6b565b60405180910390a25061179d565b60405133908a907f0450a2b5feaa1ee53edb36ef2d8854b1a508547d111e43b5b1ead1b090a5daa290600090a35b505050505050505050565b6008546040516370a0823160e01b815233916000916001600160a01b03909116906370a08231906117dd908590600401614527565b60206040518083038186803b1580156117f557600080fd5b505afa158015611809573d6000803e3d6000fd5b505050506040513d601f19601f8201168201806040525081019061182d919061443f565b1161184a5760405162461bcd60e51b815260040161062e906149fd565b600854604051631bb7b02160e11b81523391600091611881916001600160a01b03169063376f604290611325908690600401614527565b90506001548110156118a55760405162461bcd60e51b815260040161062e906146fd565b6006546040516283c70f60e31b8152339186916001600160a01b039091169063041e3878906118da908490869060040161453b565b60206040518083038186803b1580156118f257600080fd5b505afa158015611906573d6000803e3d6000fd5b505050506040513d601f19601f8201168201806040525081019061192a9190614258565b156119475760405162461bcd60e51b815260040161062e90614956565b6006546008546040516370a0823160e01b81526001600160a01b0392831692637cd913159233928b92909116906370a0823190611988908590600401614527565b60206040518083038186803b1580156119a057600080fd5b505afa1580156119b4573d6000803e3d6000fd5b505050506040513d601f19601f820116820180604052508101906119d8919061443f565b6040518463ffffffff1660e01b81526004016119f693929190614555565b600060405180830381600087803b158015611a1057600080fd5b505af1158015611a24573d6000803e3d6000fd5b5050600654600092506001600160a01b0316905063c287a648600189611a486140bd565b6040518463ffffffff1660e01b8152600401611a6693929190614609565b60206040518083038186803b158015611a7e57600080fd5b505afa158015611a92573d6000803e3d6000fd5b505050506040513d601f19601f82011682018060405250810190611ab69190614258565b90508015611c0257600654604051636c66623d60e11b81526001600160a01b039091169063d8ccc47a90611aee908a90600401614527565b600060405180830381600087803b158015611b0857600080fd5b505af1158015611b1c573d6000803e3d6000fd5b505050506000611b2a613f23565b6008546040516340c10f1960e01b81529192506001600160a01b0316906340c10f1990611b5d908b9085906004016145c4565b600060405180830381600087803b158015611b7757600080fd5b505af1158015611b8b573d6000803e3d6000fd5b50506040516001600160a01b038b1692506001915033907fa9d2bc6dc1b37950fdc57b26b1bcc905538ce9c54a8d46b9a043b61f61d84db990600090a46040516001600160a01b038916907f5dbffd047c48d57a7d972a24d9fe3ced4753a2b27c6b277fc905b1607ab99afe90600090a2506110eb565b6040516001600160a01b0388169060019033907fa9d2bc6dc1b37950fdc57b26b1bcc905538ce9c54a8d46b9a043b61f61d84db990600090a450505050505050565b6000546001600160a01b03163314611c6e5760405162461bcd60e51b815260040161062e90614928565b8015611d045760048054604051632c388d5d60e01b81526001600160a01b0390911691632c388d5d91611ca391869101614527565b600060405180830381600087803b158015611cbd57600080fd5b505af1158015611cd1573d6000803e3d6000fd5b5050600454604051339350600080516020614c1b8339815191529250610bec9186916001600160a01b039091169061453b565b6004805460405163256462d760e11b81526001600160a01b0390911691634ac8c5ae91611d3391869101614527565b600060405180830381600087803b158015611d4d57600080fd5b505af1158015611d61573d6000803e3d6000fd5b5050600454604051339350600080516020614c3b8339815191529250610c8a9186916001600160a01b039091169061453b565b6000546001600160a01b03163314611dbe5760405162461bcd60e51b815260040161062e90614928565b8015611e5557600654604051632c388d5d60e01b81526001600160a01b0390911690632c388d5d90611df4908590600401614527565b600060405180830381600087803b158015611e0e57600080fd5b505af1158015611e22573d6000803e3d6000fd5b5050600654604051339350600080516020614c1b8339815191529250610bec9186916001600160a01b039091169061453b565b60065460405163256462d760e11b81526001600160a01b0390911690634ac8c5ae90611e85908590600401614527565b600060405180830381600087803b158015611e9f57600080fd5b505af1158015611eb3573d6000803e3d6000fd5b5050600654604051339350600080516020614c3b8339815191529250610c8a9186916001600160a01b039091169061453b565b600354604051633a4396cb60e01b815260609160009182918291829182916001600160a01b0390911690633a4396cb90611f24908a90600401614a6b565b60006040518083038186803b158015611f3c57600080fd5b505afa158015611f50573d6000803e3d6000fd5b505050506040513d6000823e601f3d908101601f19168201604052611f78919081019061430b565b50969e939d50919b5099509750929550919350505050565b6008546040516370a0823160e01b815233916000916001600160a01b03909116906370a0823190611fc5908590600401614527565b60206040518083038186803b158015611fdd57600080fd5b505afa158015611ff1573d6000803e3d6000fd5b505050506040513d601f19601f82011682018060405250810190612015919061443f565b116120325760405162461bcd60e51b815260040161062e906149fd565b600854604051631bb7b02160e11b81523391600091612069916001600160a01b03169063376f604290611325908690600401614527565b905060015481101561208d5760405162461bcd60e51b815260040161062e906146fd565b6004805460405163a49854d960e01b8152339287926001600160a01b03169163a49854d9916120c09186918691016145c4565b60206040518083038186803b1580156120d857600080fd5b505afa1580156120ec573d6000803e3d6000fd5b505050506040513d601f19601f820116820180604052508101906121109190614258565b1561212d5760405162461bcd60e51b815260040161062e90614956565b600554604051635d7eb9d360e11b81528791600091612164916001600160a01b03169063bafd73a690611325908690600401614a6b565b90506002548111156121885760405162461bcd60e51b815260040161062e90614a34565b600480546008546040516370a0823160e01b81526001600160a01b0392831693632cb1feed938d93339360019391909216916370a08231916121cc91869101614527565b60206040518083038186803b1580156121e457600080fd5b505afa1580156121f8573d6000803e3d6000fd5b505050506040513d601f19601f8201168201806040525081019061221c919061443f565b6040518563ffffffff1660e01b815260040161223b9493929190614a74565b600060405180830381600087803b15801561225557600080fd5b505af1158015612269573d6000803e3d6000fd5b5050600454600092506001600160a01b0316905063a0aea5e08a600161228d6140bd565b6040518463ffffffff1660e01b81526004016122ab93929190614a9a565b60206040518083038186803b1580156122c357600080fd5b505afa1580156122d7573d6000803e3d6000fd5b505050506040513d601f19601f820116820180604052508101906122fb9190614258565b9050801561244c57600480546040516325c613fd60e11b81526001600160a01b0390911691634b8c27fa91612332918d9101614a6b565b600060405180830381600087803b15801561234c57600080fd5b505af1158015612360573d6000803e3d6000fd5b505050506000600460009054906101000a90046001600160a01b03166001600160a01b031663fde0c4636040518163ffffffff1660e01b815260040160206040518083038186803b1580156123b457600080fd5b505afa1580156123c8573d6000803e3d6000fd5b505050506040513d601f19601f820116820180604052508101906123ec919061443f565b60405190915033908b907f7906920cd6c70de2c0c6380adfa74d93af1ff8f5e5b03d1605194fef988add7990600090a3897f13d4caf5982979691a014920086fb5cac4da0ce48f86c7b4c0d0cadbef27fae4826040516117619190614a6b565b60405133908a907f7906920cd6c70de2c0c6380adfa74d93af1ff8f5e5b03d1605194fef988add7990600090a3505050505050505050565b600554604080516332393eb760e21b815290516000926001600160a01b03169163c8e4fadc916004808301926020929190829003018186803b1580156124c957600080fd5b505afa1580156124dd573d6000803e3d6000fd5b505050506040513d601f19601f82011682018060405250810190612501919061443f565b9050803410156125235760405162461bcd60e51b815260040161062e906146c6565b803411156125b85760006125373483613f10565b90506000336001600160a01b03168260405161255290614524565b60006040518083038185875af1925050503d806000811461258f576040519150601f19603f3d011682016040523d82523d6000602084013e612594565b606091505b50509050806125b55760405162461bcd60e51b815260040161062e906149d4565b50505b60075460405163316b047d60e01b81526001600160a01b039091169063316b047d906125e8903390600401614527565b600060405180830381600087803b15801561260257600080fd5b505af1158015612616573d6000803e3d6000fd5b505050506000600760009054906101000a90046001600160a01b03166001600160a01b03166356c589de6040518163ffffffff1660e01b815260040160206040518083038186803b15801561266a57600080fd5b505afa15801561267e573d6000803e3d6000fd5b505050506040513d601f19601f820116820180604052508101906126a2919061443f565b9050600481116127d9576007546040516324f5341760e21b81526001600160a01b03909116906393d4d05c906126dc903390600401614527565b600060405180830381600087803b1580156126f657600080fd5b505af115801561270a573d6000803e3d6000fd5b505050506000612718613f23565b6008546040516340c10f1960e01b81529192506001600160a01b0316906340c10f199061274b90339085906004016145c4565b600060405180830381600087803b15801561276557600080fd5b505af1158015612779573d6000803e3d6000fd5b50506040513392507f0418be85575ebac30df5dffbfd641fbbdaafb2b1806fc3637eb7062a70bed9329150600090a260405133907f5e06803b8b6ec4a58bfd8973f079830b31cbb81e939420c22febecc8acdb3f8d90600090a250610c93565b60405133907f0418be85575ebac30df5dffbfd641fbbdaafb2b1806fc3637eb7062a70bed93290600090a25050565b6008546040516370a0823160e01b815233916000916001600160a01b03909116906370a082319061283d908590600401614527565b60206040518083038186803b15801561285557600080fd5b505afa158015612869573d6000803e3d6000fd5b505050506040513d601f19601f8201168201806040525081019061288d919061443f565b116128aa5760405162461bcd60e51b815260040161062e906149fd565b600480546008546040516370a0823160e01b81526001600160a01b0392831693637f2020c793339388939116916370a08231916128e991869101614527565b60206040518083038186803b15801561290157600080fd5b505afa158015612915573d6000803e3d6000fd5b505050506040513d601f19601f82011682018060405250810190612939919061443f565b6040518463ffffffff1660e01b8152600401612957939291906145dd565b600060405180830381600087803b15801561297157600080fd5b505af1158015612985573d6000803e3d6000fd5b505050506000600460009054906101000a90046001600160a01b03166001600160a01b0316630b0c98686040518163ffffffff1660e01b815260040160206040518083038186803b1580156129d957600080fd5b505afa1580156129ed573d6000803e3d6000fd5b505050506040513d601f19601f82011682018060405250810190612a11919061443f565b9050336001600160a01b0316817f455712cb79d839f8ca6a0ab7a15765738906c98f331d0ee1fff1ff591550f2b685604051612a4d9190614a6b565b60405180910390a3604051339082907f7906920cd6c70de2c0c6380adfa74d93af1ff8f5e5b03d1605194fef988add7990600090a3505050565b6000546001600160a01b0316331490565b6000546001600160a01b03163314612ac25760405162461bcd60e51b815260040161062e90614928565b6000546001600160a01b0316ff5b600354604051633a4396cb60e01b81526060916000918291829182916001600160a01b031690633a4396cb90612b0a908990600401614a6b565b60006040518083038186803b158015612b2257600080fd5b505afa158015612b36573d6000803e3d6000fd5b505050506040513d6000823e601f3d908101601f19168201604052612b5e919081019061430b565b979e969d50949b5099509497509295505050505050565b60025481565b6000546001600160a01b03163314612ba55760405162461bcd60e51b815260040161062e90614928565b8015612c3c57600554604051632c388d5d60e01b81526001600160a01b0390911690632c388d5d90612bdb908590600401614527565b600060405180830381600087803b158015612bf557600080fd5b505af1158015612c09573d6000803e3d6000fd5b5050600554604051339350600080516020614c1b8339815191529250610bec9186916001600160a01b039091169061453b565b60055460405163256462d760e11b81526001600160a01b0390911690634ac8c5ae90612c6c908590600401614527565b600060405180830381600087803b158015612c8657600080fd5b505af1158015612c9a573d6000803e3d6000fd5b5050600554604051339350600080516020614c3b8339815191529250610c8a9186916001600160a01b039091169061453b565b6008546040516370a0823160e01b815233916000916001600160a01b03909116906370a0823190612d02908590600401614527565b60206040518083038186803b158015612d1a57600080fd5b505afa158015612d2e573d6000803e3d6000fd5b505050506040513d601f19601f82011682018060405250810190612d52919061443f565b11612d6f5760405162461bcd60e51b815260040161062e906149fd565b600854604051631bb7b02160e11b81523391600091612da6916001600160a01b03169063376f604290611325908690600401614527565b9050600154811015612dca5760405162461bcd60e51b815260040161062e906146fd565b60075460405163614c2bd360e11b8152339186916001600160a01b039091169063c29857a690612e00908490869060040161453b565b60206040518083038186803b158015612e1857600080fd5b505afa158015612e2c573d6000803e3d6000fd5b505050506040513d601f19601f82011682018060405250810190612e509190614258565b15612e6d5760405162461bcd60e51b815260040161062e90614956565b6007546008546040516370a0823160e01b81526001600160a01b0392831692636ba155b19233928b92909116906370a0823190612eae908590600401614527565b60206040518083038186803b158015612ec657600080fd5b505afa158015612eda573d6000803e3d6000fd5b505050506040513d601f19601f82011682018060405250810190612efe919061443f565b6040518463ffffffff1660e01b8152600401612f1c93929190614555565b600060405180830381600087803b158015612f3657600080fd5b505af1158015612f4a573d6000803e3d6000fd5b5050600754600092506001600160a01b0316905063f0a58708600189612f6e6140bd565b6040518463ffffffff1660e01b8152600401612f8c93929190614609565b60206040518083038186803b158015612fa457600080fd5b505afa158015612fb8573d6000803e3d6000fd5b505050506040513d601f19601f82011682018060405250810190612fdc9190614258565b90508015613128576007546040516324f5341760e21b81526001600160a01b03909116906393d4d05c90613014908a90600401614527565b600060405180830381600087803b15801561302e57600080fd5b505af1158015613042573d6000803e3d6000fd5b505050506000613050613f23565b6008546040516340c10f1960e01b81529192506001600160a01b0316906340c10f1990613083908b9085906004016145c4565b600060405180830381600087803b15801561309d57600080fd5b505af11580156130b1573d6000803e3d6000fd5b50506040516001600160a01b038b1692506001915033907f1b3fee018a3b7e52d087ea8e3f391b759e9e934802971c8f99e51ffdcb27d44490600090a46040516001600160a01b038916907f5e06803b8b6ec4a58bfd8973f079830b31cbb81e939420c22febecc8acdb3f8d90600090a2506110eb565b6040516001600160a01b0388169060019033907f1b3fee018a3b7e52d087ea8e3f391b759e9e934802971c8f99e51ffdcb27d44490600090a450505050505050565b6000546001600160a01b031633146131945760405162461bcd60e51b815260040161062e90614928565b801561322b57600754604051632c388d5d60e01b81526001600160a01b0390911690632c388d5d906131ca908590600401614527565b600060405180830381600087803b1580156131e457600080fd5b505af11580156131f8573d6000803e3d6000fd5b5050600754604051339350600080516020614c1b8339815191529250610bec9186916001600160a01b039091169061453b565b60075460405163256462d760e11b81526001600160a01b0390911690634ac8c5ae9061325b908590600401614527565b600060405180830381600087803b15801561327557600080fd5b505af1158015613289573d6000803e3d6000fd5b5050600754604051339350600080516020614c3b8339815191529250610c8a9186916001600160a01b039091169061453b565b60065460405163d81bfa8960e01b815233916001600160a01b03169063d81bfa89906132ec908490600401614527565b60206040518083038186803b15801561330457600080fd5b505afa158015613318573d6000803e3d6000fd5b505050506040513d601f19601f8201168201806040525081019061333c9190614258565b6133585760405162461bcd60e51b815260040161062e906147bb565b8367ffffffffffffffff168367ffffffffffffffff1683428311801561337d57504282115b801561338857508282115b801561339c5750670de0b6b3a76400008111155b6133b85760405162461bcd60e51b815260040161062e906148cd565b6003546040516351457a7960e01b81526001600160a01b03909116906351457a79906133f29033908d908d908d908d908d90600401614579565b600060405180830381600087803b15801561340c57600080fd5b505af1158015613420573d6000803e3d6000fd5b505050506000600360009054906101000a90046001600160a01b03166001600160a01b0316637cae395c6040518163ffffffff1660e01b815260040160206040518083038186803b15801561347457600080fd5b505afa158015613488573d6000803e3d6000fd5b505050506040513d601f19601f820116820180604052508101906134ac919061443f565b9050336001600160a01b0316817f67cabf62aee63d11db89c260f398a37186342310f4a0df30da1341719878147a8a8a8e8e8c6040516134f0959493929190614ad4565b60405180910390a350505050505050505050565b6000546001600160a01b0316331461352e5760405162461bcd60e51b815260040161062e90614928565b600380546001600160a01b03199081166001600160a01b038981169190911790925560048054821688841617815560058054831688851617905560068054831687851617908190556007805484168786161790556008805490931685851617909255604051635a2449a960e01b81529190921691635a2449a9916135b491339101614527565b600060405180830381600087803b1580156135ce57600080fd5b505af11580156135e2573d6000803e3d6000fd5b5050600654604051636c66623d60e11b81526001600160a01b03909116925063d8ccc47a9150613616903390600401614527565b600060405180830381600087803b15801561363057600080fd5b505af1158015613644573d6000803e3d6000fd5b50506040513392507fcfbd886b9409cf70d4b4a060d1e556397e323b33a7000b106b281cc43b0c26419150600090a260405133907f5dbffd047c48d57a7d972a24d9fe3ced4753a2b27c6b277fc905b1607ab99afe90600090a2505050505050565b6000546001600160a01b031633146136d05760405162461bcd60e51b815260040161062e90614928565b600080546001600160a01b0319166001600160a01b0392909216919091179055565b6008546040516370a0823160e01b815233916000916001600160a01b03909116906370a0823190613727908590600401614527565b60206040518083038186803b15801561373f57600080fd5b505afa158015613753573d6000803e3d6000fd5b505050506040513d601f19601f82011682018060405250810190613777919061443f565b116137945760405162461bcd60e51b815260040161062e906149fd565b6005546008546040516370a0823160e01b81526001600160a01b039283169263fb0a33459233928792909116906370a08231906137d5908590600401614527565b60206040518083038186803b1580156137ed57600080fd5b505afa158015613801573d6000803e3d6000fd5b505050506040513d601f19601f82011682018060405250810190613825919061443f565b6040518463ffffffff1660e01b8152600401613843939291906145dd565b600060405180830381600087803b15801561385d57600080fd5b505af1158015613871573d6000803e3d6000fd5b505050506000600560009054906101000a90046001600160a01b03166001600160a01b031663ca5c1b4f6040518163ffffffff1660e01b815260040160206040518083038186803b1580156138c557600080fd5b505afa1580156138d9573d6000803e3d6000fd5b505050506040513d601f19601f820116820180604052508101906138fd919061443f565b9050336001600160a01b0316817f35f1d4a02bce65638da910c669076031fb59178f55931d6d2f1a8a035e382f99856040516139399190614a6b565b60405180910390a3604051339082907f0450a2b5feaa1ee53edb36ef2d8854b1a508547d111e43b5b1ead1b090a5daa290600090a3505050565b6003546040516342fd730160e11b815282916000916001600160a01b03909116906385fae602906139a8908590600401614a6b565b60806040518083038186803b1580156139c057600080fd5b505afa1580156139d4573d6000803e3d6000fd5b505050506040513d601f19601f820116820180604052508101906139f89190614457565b5050600354604051633a4396cb60e01b81529293506000926001600160a01b039091169150633a4396cb90613a31908590600401614a6b565b60006040518083038186803b158015613a4957600080fd5b505afa158015613a5d573d6000803e3d6000fd5b505050506040513d6000823e601f3d908101601f19168201604052613a85919081019061430b565b5050509550505050505080613aac5760405162461bcd60e51b815260040161062e906148fb565b6003546040516342fd730160e11b815285916000916001600160a01b03909116906385fae60290613ae1908590600401614a6b565b60806040518083038186803b158015613af957600080fd5b505afa158015613b0d573d6000803e3d6000fd5b505050506040513d601f19601f82011682018060405250810190613b319190614457565b50925050506001600160a01b0381163314613b5e5760405162461bcd60e51b815260040161062e90614784565b6003546040516342fd730160e11b815287916000916001600160a01b03909116906385fae60290613b93908590600401614a6b565b60806040518083038186803b158015613bab57600080fd5b505afa158015613bbf573d6000803e3d6000fd5b505050506040513d601f19601f82011682018060405250810190613be39190614457565b93505050508015613c065760405162461bcd60e51b815260040161062e90614889565b6003546040516342fd730160e11b815260009182916001600160a01b03909116906385fae60290613c3b908d90600401614a6b565b60806040518083038186803b158015613c5357600080fd5b505afa158015613c67573d6000803e3d6000fd5b505050506040513d601f19601f82011682018060405250810190613c8b9190614457565b5050600354604051633a4396cb60e01b81529294509092506000916001600160a01b0390911690633a4396cb90613cc6908690600401614a6b565b60006040518083038186803b158015613cde57600080fd5b505afa158015613cf2573d6000803e3d6000fd5b505050506040513d6000823e601f3d908101601f19168201604052613d1a919081019061430b565b50509650505050505050600360009054906101000a90046001600160a01b03166001600160a01b03166326b517468c6040518263ffffffff1660e01b8152600401613d659190614a6b565b600060405180830381600087803b158015613d7f57600080fd5b505af1158015613d93573d6000803e3d6000fd5b505060035460408051631a9160d760e31b815290516001600160a01b039092169350630b3377159250613e28918691859163d48b06b891600480820192602092909190829003018186803b158015613dea57600080fd5b505afa158015613dfe573d6000803e3d6000fd5b505050506040513d601f19601f82011682018060405250810190613e22919061443f565b90613f10565b6040518263ffffffff1660e01b8152600401613e449190614a6b565b600060405180830381600087803b158015613e5e57600080fd5b505af1158015613e72573d6000803e3d6000fd5b50505050336001600160a01b03166108fc613e8c84613f34565b6040518115909202916000818181858888f19350505050158015613eb4573d6000803e3d6000fd5b5082816001600160a01b0316336001600160a01b03167f8bcc9e02955c4d671e14fe3bd5031c47f36b1591d090a4c7df99aa82d830d783858f604051613efb929190614ab0565b60405180910390a45050505050505050505050565b6000613f1c8284614b6b565b9392505050565b600190565b6000613f1c8284614b14565b600480546040805163fde0c46360e01b8152905160009384936001600160a01b03169263fde0c4639281830192602092829003018186803b158015613f7857600080fd5b505afa158015613f8c573d6000803e3d6000fd5b505050506040513d601f19601f82011682018060405250810190613fb0919061443f565b9050613fc76064613fc1858461414a565b90614156565b9150505b919050565b60035460408051631a9160d760e31b815290516000926001600160a01b03169163d48b06b8916004808301926020929190829003018186803b15801561401557600080fd5b505afa158015614029573d6000803e3d6000fd5b505050506040513d601f19601f8201168201806040525081019061404d919061443f565b6003549091506001600160a01b0316630b33771561406b8385613f28565b6040518263ffffffff1660e01b81526004016140879190614a6b565b600060405180830381600087803b1580156140a157600080fd5b505af11580156140b5573d6000803e3d6000fd5b505050505050565b60006105846002600860009054906101000a90046001600160a01b03166001600160a01b03166318160ddd6040518163ffffffff1660e01b815260040160206040518083038186803b15801561411257600080fd5b505afa158015614126573d6000803e3d6000fd5b505050506040513d601f19601f82011682018060405250810190613fc1919061443f565b6000613f1c8284614b4c565b6000613f1c8284614b2c565b8051613fcb81614bde565b8051613fcb81614bf6565b8051613fcb81614c04565b600060208284031215614194578081fd5b8135613f1c81614bde565b60008060008060008060c087890312156141b7578182fd5b86356141c281614bde565b955060208701356141d281614bde565b945060408701356141e281614bde565b935060608701356141f281614bde565b9250608087013561420281614bde565b915060a087013561421281614bde565b809150509295509295509295565b60008060408385031215614232578182fd5b823561423d81614bde565b9150602083013561424d81614bf6565b809150509250929050565b600060208284031215614269578081fd5b8151613f1c81614bf6565b60008060008060006080868803121561428b578081fd5b853567ffffffffffffffff808211156142a2578283fd5b818801915088601f8301126142b5578283fd5b8135818111156142c3578384fd5b8960208285010111156142d4578384fd5b602092830197509550508601356142ea81614c04565b925060408601356142fa81614c04565b949793965091946060013592915050565b60008060008060008060008060006101208a8c031215614329578283fd5b895167ffffffffffffffff80821115614340578485fd5b818c0191508c601f830112614353578485fd5b81518181111561436557614365614bc8565b604051601f8201601f19168101602001838111828210171561438957614389614bc8565b6040528181528382016020018f10156143a0578687fd5b6143b1826020830160208701614b82565b9b506143c39250505060208b01614178565b97506143d160408b01614178565b96506143df60608b01614178565b95506143ed60808b01614178565b94506143fb60a08b0161416d565b935061440960c08b01614162565b925060e08a015191506101008a015190509295985092959850929598565b600060208284031215614438578081fd5b5035919050565b600060208284031215614450578081fd5b5051919050565b6000806000806080858703121561446c578384fd5b8451935060208501519250604085015161448581614bde565b606086015190925061449681614bf6565b939692955090935050565b6000806000606084860312156144b5578081fd5b8351925060208401519150604084015190509250925092565b60008284528282602086013780602084860101526020601f19601f85011685010190509392505050565b60008151808452614510816020860160208601614b82565b601f01601f19169290920160200192915050565b90565b6001600160a01b0391909116815260200190565b6001600160a01b0392831681529116602082015260400190565b6001600160a01b039384168152919092166020820152604081019190915260600190565b6001600160a01b038716815260a06020820181905260009061459e90830187896144ce565b67ffffffffffffffff958616604084015293909416606082015260800152949350505050565b6001600160a01b03929092168252602082015260400190565b6001600160a01b039390931683526020830191909152604082015260600190565b901515815260200190565b92151583526001600160a01b03919091166020830152604082015260600190565b600060a0825261463d60a08301886144f8565b67ffffffffffffffff96871660208401529490951660408201526001600160a01b0392909216606083015260809091015292915050565b600060c0825261468760c08301896144f8565b67ffffffffffffffff978816602084015295909616604082015292151560608401526001600160a01b0391909116608083015260a09091015292915050565b6020808252601e908201527f696e636f7272656374206665652073656e7420746f20636f6e74726163740000604082015260600190565b60208082526022908201527f63616c6c6572206d75737420626520616e206f6c6420746f6b656e20686f6c6460408201526132b960f11b606082015260800190565b60208082526025908201527f73656e742076616c756520646f6573206e6f74206d6174636820666c69676874604082015264207261746560d81b606082015260800190565b6020808252601e908201527f63616c6c6572206d75737420626520696e737572616e6365206f776e65720000604082015260600190565b6020808252602b908201527f63616c6c6572206d7573742062652061637469766174656420696e737572616e60408201526a31b290383937bb34b232b960a91b606082015260800190565b6020808252601f908201527f666c6967687420646570617274757265206d7573742062652066757475726500604082015260600190565b6020808252602c908201527f63757272656e742066756e6473206d75737420636f766572206e657720696e7360408201526b7572616e63652076616c756560a01b606082015260800190565b60208082526024908201527f696e737572616e6365206d757374206e6f742068617665206265656e20636c616040820152631a5b595960e21b606082015260800190565b602080825260149082015273199b1a59da1d081b5d5cdd081899481d985b1a5960621b604082015260600190565b602080825260139082015272666c69676874206d757374206265206c61746560681b604082015260600190565b60208082526014908201527331b0b63632b91036bab9ba1031329037bbb732b960611b604082015260600190565b60208082526018908201527f63616c6c65722068617320616c726561647920766f7465640000000000000000604082015260600190565b60208082526027908201527f63616c6c6572206973206e6f7420616374697661746564206f7261636c6520706040820152663937bb34b232b960c91b606082015260800190565b6020808252600f908201526e1d1c985b9cd9995c8819985a5b1959608a1b604082015260600190565b6020808252601b908201527f63616c6c6572206d75737420626520746f6b656e20686f6c6465720000000000604082015260600190565b6020808252601b908201527f766f74696e672070726f706f73616c2068617320657870697265640000000000604082015260600190565b90815260200190565b9384526001600160a01b0392909216602084015215156040830152606082015260800190565b9283529015156020830152604082015260600190565b918252602082015260400190565b9283526020830191909152604082015260600190565b600067ffffffffffffffff808816835280871660208401525060806040830152614b026080830185876144ce565b90508260608301529695505050505050565b60008219821115614b2757614b27614bb2565b500190565b600082614b4757634e487b7160e01b81526012600452602481fd5b500490565b6000816000190483118215151615614b6657614b66614bb2565b500290565b600082821015614b7d57614b7d614bb2565b500390565b60005b83811015614b9d578181015183820152602001614b85565b83811115614bac576000848401525b50505050565b634e487b7160e01b600052601160045260246000fd5b634e487b7160e01b600052604160045260246000fd5b6001600160a01b0381168114614bf357600080fd5b50565b8015158114614bf357600080fd5b67ffffffffffffffff81168114614bf357600080fdfe49162bd91fa9e98bc15e1a54c488b20acf9a442cfd08a398bbdd552db92e98e7eefee6ee18d218075d0332898b2f8dbd4d9d18666bb47b86fd5bb8ddf7b188c0a2646970667358221220d4f97fc44aa343ce02b916f5ceced3e305e5f0de2500dd4df9ca9ebd50e97f6564736f6c63430008000033",
  "immutableReferences": {},
  "source": "// SPDX-License-Identifier: UNLICENSED\npragma solidity ^0.8.00;\n\nimport \"./interfaces/IFlightSuretyData.sol\";\nimport \"./interfaces/IInsuranceCoverageAmendmentProposal.sol\";\nimport \"./interfaces/IMembershipFeeAmendmentProposal.sol\";\nimport \"./interfaces/IInsuranceProviderRole.sol\";\nimport \"./interfaces/IOracleProviderRole.sol\";\nimport \"./interfaces/IFlightSuretyOracle.sol\";\nimport \"./interfaces/IFlightSuretyShares.sol\";\nimport \"../Ownable/Ownable.sol\";\nimport \"@openzeppelin/contracts/utils/math/SafeMath.sol\";\n\ncontract FlightSuretyApp is Ownable {\n    using SafeMath for uint256;\n    // insurance providers related events\n    event RegisteredInsuranceProvider(address indexed insuranceProvider);\n    event ActivatedInsuranceProvider(address indexed insuranceProvider);\n    event RemovedInsuranceProvider(address indexed insuranceProvider);\n    event NewVoteInsuranceProvider(\n        address indexed voter,\n        bool indexed side,\n        address indexed votee\n    );\n\n    // oracle providers related events\n    event RegisteredOracleProvider(address indexed oracleProvider);\n    event ActivatedOracleProvider(address indexed oracleProvider);\n    event RemovedOracleProvider(address indexed oracleProvider);\n    event NewVoteOracleProvider(\n        address indexed voter,\n        bool indexed side,\n        address indexed votee\n    );\n\n    // flights related events\n    event NewFlight(\n        uint256 indexed flightID,\n        address indexed insuranceProvider,\n        uint256 estimatedDeparture,\n        uint256 estimatedArrival,\n        string flightRef,\n        uint256 rate\n    );\n\n    // insurances related events\n    event NewInsurance(\n        address indexed passenger,\n        address indexed insuranceProvider,\n        uint256 indexed insuranceID,\n        uint256 flightID,\n        uint256 insuredValue\n    );\n\n    event NewPayout(\n        address indexed owner,\n        address indexed insuranceProvider,\n        uint256 indexed flightID,\n        uint256 insuredValue,\n        uint256 insuranceID\n    );\n\n    // settings amendment proposal related events\n    event NewMembershipFeeAmendmentProposal(\n        uint256 indexed proposalID,\n        address indexed caller,\n        uint256 proposedMembershipFee\n    );\n    event NewVoteMembershipFeeAmendmentProposal(\n        uint256 indexed proposalID,\n        address indexed voter\n    );\n    event ActivatedMembershipFeeAmendmentProposal(\n        uint256 indexed proposalID,\n        uint256 lockedMembershipFee\n    );\n    event NewInsuranceCoverageAmendmentProposal(\n        uint256 indexed proposalID,\n        address indexed caller,\n        uint256 insuranceCoverage\n    );\n    event ActivatedInsuranceCoverageAmendmentProposal(\n        uint256 indexed proposalID,\n        uint256 insuranceCoverage\n    );\n    event NewVoteInsuranceCoverageAmendmentProposal(\n        uint256 indexed proposalID,\n        address indexed voter\n    );\n\n    // authorize caller related events\n    event AuthorizedCaller(\n        address indexed contractOwner,\n        address caller,\n        address contractAddress\n    );\n    event UnauthorizedCaller(\n        address indexed contractOwner,\n        address caller,\n        address contractAddress\n    );\n\n    // public contract settings to set constraint to user vote in general\n    uint256 public tokenHolderMinBlockRequirement;\n    // public contract setting to set constraint on user proposal vote\n    uint256 public proposalValidBlockNum;\n\n    IFlightSuretyData flightSuretyData;\n    IInsuranceCoverageAmendmentProposal insuranceCoverageAmendmentProposal;\n    IMembershipFeeAmendmentProposal membershipFeeAmendmentProposal;\n    IInsuranceProviderRole insuranceProviderRole;\n    IOracleProviderRole oracleProviderRole;\n    IFlightSuretyShares flightSuretyShares;\n\n    // settings amendment proposals related checks\n\n    modifier requireTokenHolderHasNotVotedInsuranceCoverageAmendmentProposal(\n        address _caller,\n        uint256 _proposalID\n    ) {\n        require(\n            !insuranceCoverageAmendmentProposal\n                .hasVotedInsuranceCoverageAmendmentProposal(\n                    _caller,\n                    _proposalID\n                ),\n            \"caller has already voted\"\n        );\n        _;\n    }\n\n    modifier requireTokenHolderHasNotVotedMembershipFeeAmendmentProposal(\n        address _caller,\n        uint256 _proposalID\n    ) {\n        require(\n            !membershipFeeAmendmentProposal\n                .hasVotedMembershipFeeAmendmentProposal(_caller, _proposalID),\n            \"caller has already voted\"\n        );\n        _;\n    }\n\n    modifier requireProposalIsActive(uint256 proposalID) {\n        uint256 elapsedBlock = block.number.sub(\n            membershipFeeAmendmentProposal.getProposalCreatedAt(proposalID)\n        );\n        require(\n            elapsedBlock <= proposalValidBlockNum,\n            \"voting proposal has expired\"\n        );\n        _;\n    }\n\n    // flights related checks\n\n    modifier requireValidFlight(\n        uint256 estimatedDeparture,\n        uint256 estimatedArrival,\n        uint256 rate\n    ) {\n        require(\n            estimatedDeparture > block.timestamp &&\n                estimatedArrival > block.timestamp &&\n                estimatedArrival > estimatedDeparture &&\n                rate <= 1 ether,\n            \"flight must be valid\"\n        );\n        _;\n    }\n\n    // insurances related checks\n\n    modifier requireMessageValueGreatherOrEqualToFlightRate(uint256 _flightID) {\n        (, , , , , , , , uint256 rate) = flightSuretyData.getFlight(_flightID);\n        require(msg.value >= rate, \"sent value does not match flight rate\");\n        uint256 amountDue = rate.sub(msg.value);\n        _;\n        payable(msg.sender).transfer(amountDue);\n    }\n\n    modifier requireFutureFlight(uint256 _flightID) {\n        (, uint64 estimatedDeparture, , , , , , , ) = flightSuretyData\n            .getFlight(_flightID);\n        require(\n            estimatedDeparture > block.timestamp,\n            \"flight departure must be future\"\n        );\n        _;\n    }\n\n    modifier requireFlightIsLate(uint256 _insuranceID) {\n        (uint256 flightID, , , ) = flightSuretyData.getInsurance(_insuranceID);\n        (, , , , , bool isLate, , , ) = flightSuretyData.getFlight(flightID);\n        require(isLate, \"flight must be late\");\n        _;\n    }\n\n    modifier onlyInsuranceIsNotClaimed(uint256 _insuranceID) {\n        (, , , bool claimed) = flightSuretyData.getInsurance(_insuranceID);\n        require(!claimed, \"insurance must not have been claimed\");\n        _;\n    }\n    modifier onlyInsuranceOwner(uint256 _insuranceID) {\n        (, , address owner, ) = flightSuretyData.getInsurance(_insuranceID);\n        require(msg.sender == owner, \"caller must be insurance owner\");\n        _;\n    }\n\n    modifier requireTotalInsuredValueCoverage(uint256 newInsuranceValue) {\n        uint256 newTotalInsuredValue = flightSuretyData\n            .getTotalInsuredValue()\n            .add(newInsuranceValue);\n        uint256 totalFundsWithCoverage = _calculateInsuredValueBenefits(\n            newTotalInsuredValue\n        );\n        require(\n            totalFundsWithCoverage <= address(this).balance,\n            \"current funds must cover new insurance value\"\n        );\n        _;\n    }\n\n    // membership fee checks\n\n    modifier requireMembershipFee() {\n        uint256 _currentMembershipFee = membershipFeeAmendmentProposal\n            .getCurrentMembershipFee();\n        require(\n            msg.value >= _currentMembershipFee,\n            \"incorrect fee sent to contract\"\n        );\n\n        if (msg.value > _currentMembershipFee) {\n            uint256 _amountDue = msg.value.sub(_currentMembershipFee);\n            (bool success, ) = payable(msg.sender).call{value: _amountDue}(\"\");\n            require(success, \"transfer failed\");\n        }\n        _;\n    }\n\n    // common roles checks\n\n    modifier onlyActivatedProvider(address _caller) {\n        require(\n            insuranceProviderRole.isActivatedInsuranceProvider(_caller) ||\n                oracleProviderRole.isActivatedOracleProvider(_caller),\n            \"caller must be activated provider\"\n        );\n        _;\n    }\n\n    modifier onlyTokenHolder(address _caller) {\n        require(\n            flightSuretyShares.balanceOf(_caller) > 0,\n            \"caller must be token holder\"\n        );\n        _;\n    }\n\n    modifier requireTokenHolderIsOldEnough(address _caller) {\n        uint256 blockElapsed = block.number.sub(\n            flightSuretyShares.ownershipBlockNum(_caller)\n        );\n        require(\n            blockElapsed >= tokenHolderMinBlockRequirement,\n            \"caller must be an old token holder\"\n        );\n        _;\n    }\n\n    // insurance providers checks\n\n    modifier onlyRegisteredInsuranceProvider(address _caller) {\n        require(\n            insuranceProviderRole.isRegisteredInsuranceProvider(_caller),\n            \"caller must be insurance provider\"\n        );\n        _;\n    }\n\n    modifier onlyActivatedInsuranceProvider(address _caller) {\n        require(\n            insuranceProviderRole.isActivatedInsuranceProvider(_caller),\n            \"caller must be activated insurance provider\"\n        );\n        _;\n    }\n\n    modifier requireTokenHolderHasNotVotedInsuranceProviderMembership(\n        address _caller,\n        address _account\n    ) {\n        require(\n            !insuranceProviderRole.hasVotedInsuranceProviderMembership(\n                _account,\n                _caller\n            ),\n            \"caller has already voted\"\n        );\n        _;\n    }\n\n    // oracle providers checks\n\n    modifier onlyRegisteredOracleProvider(address _caller) {\n        require(\n            oracleProviderRole.isRegisteredOracleProvider(_caller),\n            \"caller must be oracle provider\"\n        );\n        _;\n    }\n\n    modifier onlyActivatedOracleProvider(address _caller) {\n        require(\n            oracleProviderRole.isActivatedOracleProvider(_caller),\n            \"caller is not activated oracle provider\"\n        );\n        _;\n    }\n\n    modifier requireTokenHolderHasNotVotedOracleProviderMembership(\n        address _caller,\n        address _account\n    ) {\n        require(\n            !oracleProviderRole.hasVotedOracleProviderMembership(\n                _account,\n                _caller\n            ),\n            \"caller has already voted\"\n        );\n        _;\n    }\n\n    constructor(\n        uint256 _tokenHolderMinBlockRequirement,\n        uint256 _proposalValidBlockNum\n    ) Ownable() {\n        // public contract settings to set constraint to user vote in general\n        tokenHolderMinBlockRequirement = _tokenHolderMinBlockRequirement;\n        // public contract setting to set constraint on user proposal vote\n        proposalValidBlockNum = _proposalValidBlockNum;\n    }\n\n    // initialize external contracts addresses\n    function initialize(\n        address _flightSuretyData,\n        address _insuranceCoverageAmendmentProposal,\n        address _membershipFeeAmendmentProposal,\n        address _insuranceProviderRole,\n        address _oracleProviderRole,\n        address _flightSuretyShares\n    ) external onlyOwner {\n        // registering external contracts address\n        flightSuretyData = IFlightSuretyData(_flightSuretyData);\n        insuranceCoverageAmendmentProposal = IInsuranceCoverageAmendmentProposal(\n            _insuranceCoverageAmendmentProposal\n        );\n        membershipFeeAmendmentProposal = IMembershipFeeAmendmentProposal(\n            _membershipFeeAmendmentProposal\n        );\n        insuranceProviderRole = IInsuranceProviderRole(_insuranceProviderRole);\n        oracleProviderRole = IOracleProviderRole(_oracleProviderRole);\n        flightSuretyShares = IFlightSuretyShares(_flightSuretyShares);\n        // make the contract owner a registered insurance provider\n        insuranceProviderRole.addInsuranceProvider(msg.sender);\n        // make the contract owner an activated insurance provider\n        insuranceProviderRole.activateInsuranceProvider(msg.sender);\n        emit RegisteredInsuranceProvider(msg.sender);\n        emit ActivatedInsuranceProvider(msg.sender);\n    }\n\n    /* external contracts calls management */\n\n    function updateAuthorizedCallerFlightSuretyData(\n        address _authorizedCaller,\n        bool _access\n    ) external onlyOwner {\n        if (_access) {\n            flightSuretyData.authorizeCaller(_authorizedCaller);\n            emit AuthorizedCaller(\n                msg.sender,\n                _authorizedCaller,\n                address(flightSuretyData)\n            );\n        } else {\n            flightSuretyData.unauthorizeCaller(_authorizedCaller);\n            emit UnauthorizedCaller(\n                msg.sender,\n                _authorizedCaller,\n                address(flightSuretyData)\n            );\n        }\n    }\n\n    function updateAuthorizedCallerInsuranceCoverageAmendmentProposal(\n        address _authorizedCaller,\n        bool _access\n    ) external onlyOwner {\n        if (_access) {\n            insuranceCoverageAmendmentProposal.authorizeCaller(\n                _authorizedCaller\n            );\n            emit AuthorizedCaller(\n                msg.sender,\n                _authorizedCaller,\n                address(insuranceCoverageAmendmentProposal)\n            );\n        } else {\n            insuranceCoverageAmendmentProposal.unauthorizeCaller(\n                _authorizedCaller\n            );\n            emit UnauthorizedCaller(\n                msg.sender,\n                _authorizedCaller,\n                address(insuranceCoverageAmendmentProposal)\n            );\n        }\n    }\n\n    function updateAuthorizedCallerMembershipFeeAmendmentProposal(\n        address _authorizedCaller,\n        bool _access\n    ) external onlyOwner {\n        if (_access) {\n            membershipFeeAmendmentProposal.authorizeCaller(_authorizedCaller);\n            emit AuthorizedCaller(\n                msg.sender,\n                _authorizedCaller,\n                address(membershipFeeAmendmentProposal)\n            );\n        } else {\n            membershipFeeAmendmentProposal.unauthorizeCaller(_authorizedCaller);\n            emit UnauthorizedCaller(\n                msg.sender,\n                _authorizedCaller,\n                address(membershipFeeAmendmentProposal)\n            );\n        }\n    }\n\n    function updateAuthorizedCallerInsuranceProviderRole(\n        address _authorizedCaller,\n        bool _access\n    ) external onlyOwner {\n        if (_access) {\n            insuranceProviderRole.authorizeCaller(_authorizedCaller);\n            emit AuthorizedCaller(\n                msg.sender,\n                _authorizedCaller,\n                address(insuranceProviderRole)\n            );\n        } else {\n            insuranceProviderRole.unauthorizeCaller(_authorizedCaller);\n            emit UnauthorizedCaller(\n                msg.sender,\n                _authorizedCaller,\n                address(insuranceProviderRole)\n            );\n        }\n    }\n\n    function updateAuthorizedCallerOracleProviderRole(\n        address _authorizedCaller,\n        bool _access\n    ) external onlyOwner {\n        if (_access) {\n            oracleProviderRole.authorizeCaller(_authorizedCaller);\n            emit AuthorizedCaller(\n                msg.sender,\n                _authorizedCaller,\n                address(oracleProviderRole)\n            );\n        } else {\n            oracleProviderRole.unauthorizeCaller(_authorizedCaller);\n            emit UnauthorizedCaller(\n                msg.sender,\n                _authorizedCaller,\n                address(oracleProviderRole)\n            );\n        }\n    }\n\n    function updateAuthorizedCallerFlighSuretyShares(\n        address _authorizedCaller,\n        bool _access\n    ) external onlyOwner {\n        if (_access) {\n            flightSuretyShares.authorizeCaller(_authorizedCaller);\n            emit AuthorizedCaller(\n                msg.sender,\n                _authorizedCaller,\n                address(flightSuretyShares)\n            );\n        } else {\n            flightSuretyShares.unauthorizeCaller(_authorizedCaller);\n            emit UnauthorizedCaller(\n                msg.sender,\n                _authorizedCaller,\n                address(flightSuretyShares)\n            );\n        }\n    }\n\n    /* providers registrations */\n\n    // insurance providers\n\n    function registerInsuranceProvider() external payable onlyActivatedInsuranceProvider(msg.sender) requireMembershipFee {\n        insuranceProviderRole.addInsuranceProvider(msg.sender);\n        uint256 registeredInsuranceProviderCount = insuranceProviderRole\n            .getRegisteredInsuranceProvidersCount();\n        if (registeredInsuranceProviderCount <= 4) {\n            insuranceProviderRole.activateInsuranceProvider(msg.sender);\n            uint256 sharesToMint = _calculateSharesToMint();\n            flightSuretyShares.mint(msg.sender, sharesToMint);\n            emit RegisteredInsuranceProvider(msg.sender);\n            emit ActivatedInsuranceProvider(msg.sender);\n        } else {\n            emit RegisteredInsuranceProvider(msg.sender);\n        }\n    }\n\n    // oracle providers\n\n    function registerOracleProvider() external payable requireMembershipFee {\n        oracleProviderRole.addOracleProvider(msg.sender);\n        uint256 registeredOracleProviderCount = oracleProviderRole\n            .getRegisteredOracleProvidersCount();\n        if (registeredOracleProviderCount <= 4) {\n            oracleProviderRole.activateOracleProvider(msg.sender);\n            uint256 sharesToMint = _calculateSharesToMint();\n            flightSuretyShares.mint(msg.sender, sharesToMint);\n            emit RegisteredOracleProvider(msg.sender);\n            emit ActivatedOracleProvider(msg.sender);\n        } else {\n            emit RegisteredOracleProvider(msg.sender);\n        }\n    }\n\n    /* votes providers */\n\n    // insurance providers\n\n    function voteInsuranceProviderMembership(address _account)\n        external\n        onlyTokenHolder(msg.sender)\n        requireTokenHolderIsOldEnough(msg.sender)\n        requireTokenHolderHasNotVotedInsuranceProviderMembership(\n            msg.sender,\n            _account\n        )\n    {\n        insuranceProviderRole.voteInsuranceProviderMembership(\n            msg.sender,\n            _account,\n            flightSuretyShares.balanceOf(msg.sender)\n        );\n        bool consensusCheck = insuranceProviderRole\n            .hasReachedConsensusInsuranceProviderMembership(\n                true,\n                _account,\n                _calculateProvidersConsensusTreshold()\n            );\n        if (consensusCheck) {\n            insuranceProviderRole.activateInsuranceProvider(_account);\n            uint256 sharesToMint = _calculateSharesToMint();\n            flightSuretyShares.mint(_account, sharesToMint);\n            emit NewVoteInsuranceProvider(msg.sender, true, _account);\n            emit ActivatedInsuranceProvider(_account);\n        } else {\n            emit NewVoteInsuranceProvider(msg.sender, true, _account);\n        }\n    }\n\n    // oracle providers\n\n    function voteOracleProviderMembership(address _account)\n        external\n        onlyTokenHolder(msg.sender)\n        requireTokenHolderIsOldEnough(msg.sender)\n        requireTokenHolderHasNotVotedOracleProviderMembership(\n            msg.sender,\n            _account\n        )\n    {\n        oracleProviderRole.voteOracleProviderMembership(\n            msg.sender,\n            _account,\n            flightSuretyShares.balanceOf(msg.sender)\n        );\n        bool consensusCheck = oracleProviderRole\n            .hasReachedConsensusOracleProviderMembership(\n                true,\n                _account,\n                _calculateProvidersConsensusTreshold()\n            );\n        if (consensusCheck) {\n            oracleProviderRole.activateOracleProvider(_account);\n            uint256 sharesToMint = _calculateSharesToMint();\n            flightSuretyShares.mint(_account, sharesToMint);\n            emit NewVoteOracleProvider(msg.sender, true, _account);\n            emit ActivatedOracleProvider(_account);\n        } else {\n            emit NewVoteOracleProvider(msg.sender, true, _account);\n        }\n    }\n\n    /* flights management */\n\n    function registerFlight(\n        string calldata _flightRef,\n        uint64 _estimatedDeparture,\n        uint64 _estimatedArrival,\n        uint256 _rate\n    )\n        external\n        onlyActivatedInsuranceProvider(msg.sender)\n        requireValidFlight(_estimatedDeparture, _estimatedArrival, _rate)\n    {\n        flightSuretyData.registerFlight(\n            msg.sender,\n            _flightRef,\n            _estimatedDeparture,\n            _estimatedArrival,\n            _rate\n        );\n        uint256 flightID = flightSuretyData.getCurrentFlightID();\n        emit NewFlight(\n            flightID,\n            msg.sender,\n            _estimatedDeparture,\n            _estimatedArrival,\n            _flightRef,\n            _rate\n        );\n    }\n\n    function getFlightInitialData(uint256 _flightID)\n        external\n        view\n        returns (\n            string memory flightRef,\n            uint64 estimatedDeparture,\n            uint64 estimatedArrival,\n            address insuranceProvider,\n            uint256 rate\n        )\n    {\n        (\n            flightRef,\n            estimatedDeparture,\n            estimatedArrival,\n            ,\n            ,\n            ,\n            insuranceProvider,\n            ,\n            rate\n        ) = flightSuretyData.getFlight(_flightID);\n        return (\n            flightRef,\n            estimatedDeparture,\n            estimatedArrival,\n            insuranceProvider,\n            rate\n        );\n    }\n\n    function getFlightSettlementData(uint256 _flightID)\n        external\n        view\n        returns (\n            string memory flightRef,\n            uint64 realDeparture,\n            uint64 realArrival,\n            bool isLate,\n            address insuranceProvider,\n            uint256 insuredValue\n        )\n    {\n        (\n            flightRef,\n            ,\n            ,\n            realDeparture,\n            realArrival,\n            isLate,\n            insuranceProvider,\n            insuredValue,\n\n        ) = flightSuretyData.getFlight(_flightID);\n        return (\n            flightRef,\n            realDeparture,\n            realArrival,\n            isLate,\n            insuranceProvider,\n            insuredValue\n        );\n    }\n\n    /* insurances management */\n\n    function registerInsurance(uint256 _flightID)\n        external\n        payable\n        requireFutureFlight(_flightID)\n        requireMessageValueGreatherOrEqualToFlightRate(_flightID)\n        requireTotalInsuredValueCoverage(msg.value)\n    {\n        // fetch flight rate\n        (\n            ,\n            ,\n            ,\n            ,\n            ,\n            ,\n            address insuranceProvider,\n            ,\n            uint256 rate\n        ) = flightSuretyData.getFlight(_flightID);\n        // create insurance for the caller\n        flightSuretyData.insure(msg.sender, _flightID, rate);\n        // update total insured value  (locking up funds to be sure to be able to cover all funds locked up in contract)\n        _incrementTotalInsuredValue(rate);\n        uint256 insuranceID = flightSuretyData.getCurrentInsuranceID();\n        emit NewInsurance(\n            msg.sender,\n            insuranceProvider,\n            insuranceID,\n            _flightID,\n            rate\n        );\n    }\n\n    function claimInsurance(uint256 _insuranceID)\n        external\n        payable\n        requireFlightIsLate(_insuranceID)\n        onlyInsuranceOwner(_insuranceID)\n        onlyInsuranceIsNotClaimed(_insuranceID)\n    {\n        // fetch the insurance insured value\n        (uint256 flightID, uint256 insuredValue, , ) = flightSuretyData\n            .getInsurance(_insuranceID);\n        // fetch the flight data\n        (, , , , , , address insuranceProvider, , ) = flightSuretyData\n            .getFlight(flightID);\n        // update insurance to claimed\n        flightSuretyData.setInsuranceToClaimed(_insuranceID);\n        // update total insured value as funds are about to be sent (unlocking funds to take new insurance contracts)\n        flightSuretyData.setTotalInsuredValue(\n            flightSuretyData.getTotalInsuredValue().sub(insuredValue)\n        );\n        // calculate the amount to transfer according to the insurance coverage policy\n        payable(msg.sender).transfer(\n            _calculateInsuredValueBenefits(insuredValue)\n        );\n        emit NewPayout(\n            msg.sender,\n            insuranceProvider,\n            flightID,\n            insuredValue,\n            _insuranceID\n        );\n    }\n\n    /* Settings amendment proposals*/\n\n    // fetch the current membership fee\n    function currentMembershipFee() external view returns (uint256) {\n        return membershipFeeAmendmentProposal.getCurrentMembershipFee();\n    }\n\n    // fetch the current insurance coverage ratio\n    function currentInsuranceCoverageRatio() external view returns (uint256) {\n        return insuranceCoverageAmendmentProposal.getCurrentInsuranceCoverage();\n    }\n\n    // membership fee amendment proposals\n\n    function registerMembershipFeeAmendmentProposal(uint256 _proposedValue)\n        external\n        onlyTokenHolder(msg.sender)\n    {\n        membershipFeeAmendmentProposal.registerMembershipFeeAmendmentProposal(\n            msg.sender,\n            _proposedValue,\n            flightSuretyShares.balanceOf(msg.sender)\n        );\n        uint256 _proposalID = membershipFeeAmendmentProposal\n            .getMembershipFeeAmendmentProposalCurrentProposalID();\n        emit NewMembershipFeeAmendmentProposal(\n            _proposalID,\n            msg.sender,\n            _proposedValue\n        );\n        emit NewVoteMembershipFeeAmendmentProposal(_proposalID, msg.sender);\n    }\n\n    function voteMembershipFeeAmendmentProposal(uint256 _proposalID)\n        external\n        onlyTokenHolder(msg.sender)\n        requireTokenHolderIsOldEnough(msg.sender)\n        requireTokenHolderHasNotVotedMembershipFeeAmendmentProposal(\n            msg.sender,\n            _proposalID\n        )\n        requireProposalIsActive(_proposalID)\n    {\n        membershipFeeAmendmentProposal.voteMembershipFeeAmendmentProposal(\n            _proposalID,\n            msg.sender,\n            true,\n            flightSuretyShares.balanceOf(msg.sender)\n        );\n        bool consensusCheck = membershipFeeAmendmentProposal\n            .hasMembershipFeeAmendmentProposalReachedConsensus(\n                _proposalID,\n                true,\n                _calculateProvidersConsensusTreshold()\n            );\n        if (consensusCheck) {\n            membershipFeeAmendmentProposal\n                .activateMembershipFeeAmendmentProposal(_proposalID);\n            uint256 lockedMembershipFee = membershipFeeAmendmentProposal\n                .getCurrentMembershipFee();\n            emit NewVoteMembershipFeeAmendmentProposal(_proposalID, msg.sender);\n            emit ActivatedMembershipFeeAmendmentProposal(\n                _proposalID,\n                lockedMembershipFee\n            );\n        } else {\n            emit NewVoteMembershipFeeAmendmentProposal(_proposalID, msg.sender);\n        }\n    }\n\n    // insurance coverage amendment proposal\n\n    function registerInsuranceCoverageAmendmentProposal(uint256 _proposedValue)\n        external\n        onlyTokenHolder(msg.sender)\n    {\n        insuranceCoverageAmendmentProposal\n            .registerInsuranceCoverageAmendmentProposal(\n                msg.sender,\n                _proposedValue,\n                flightSuretyShares.balanceOf(msg.sender)\n            );\n        uint256 _proposalID = insuranceCoverageAmendmentProposal\n            .getInsuranceCoverageAmendmentCurrentProposalID();\n        emit NewInsuranceCoverageAmendmentProposal(\n            _proposalID,\n            msg.sender,\n            _proposedValue\n        );\n        emit NewVoteInsuranceCoverageAmendmentProposal(_proposalID, msg.sender);\n    }\n\n    function voteInsuranceCoverageAmendmentProposal(uint256 _proposalID)\n        external\n        onlyTokenHolder(msg.sender)\n        requireTokenHolderIsOldEnough(msg.sender)\n        requireTokenHolderHasNotVotedInsuranceCoverageAmendmentProposal(\n            msg.sender,\n            _proposalID\n        )\n        requireProposalIsActive(_proposalID)\n    {\n        insuranceCoverageAmendmentProposal\n            .voteInsuranceCoverageAmendmentProposal(\n                _proposalID,\n                msg.sender,\n                true,\n                flightSuretyShares.balanceOf(msg.sender)\n            );\n        bool consensusCheck = insuranceCoverageAmendmentProposal\n            .hasInsuranceCoverageAmendmentProposalReachedConsensus(\n                _proposalID,\n                true,\n                _calculateProvidersConsensusTreshold()\n            );\n        if (consensusCheck) {\n            insuranceCoverageAmendmentProposal\n                .activateInsuranceCoverageAmendmentProposal(_proposalID);\n            uint256 insuranceCoverage = insuranceCoverageAmendmentProposal\n                .getCurrentInsuranceCoverage();\n            emit NewVoteInsuranceCoverageAmendmentProposal(\n                _proposalID,\n                msg.sender\n            );\n            emit ActivatedInsuranceCoverageAmendmentProposal(\n                _proposalID,\n                insuranceCoverage\n            );\n        } else {\n            emit NewVoteInsuranceCoverageAmendmentProposal(\n                _proposalID,\n                msg.sender\n            );\n        }\n    }\n\n    // fetch the oracle provider indexes\n    function getOracleIndexes()\n        external\n        view\n        onlyActivatedOracleProvider(msg.sender)\n        returns (\n            uint256 index1,\n            uint256 index2,\n            uint256 index3\n        )\n    {\n        (index1, index2, index3) = oracleProviderRole.getOracleIndexes(\n            msg.sender\n        );\n        return (index1, index2, index3);\n    }\n\n    function _incrementTotalInsuredValue(uint256 _addedValue) internal {\n        uint256 currentTotalInsuredValue = flightSuretyData\n            .getTotalInsuredValue();\n        flightSuretyData.setTotalInsuredValue(\n            currentTotalInsuredValue.add(_addedValue)\n        );\n    }\n\n    function _calculateInsuredValueBenefits(uint256 initialValue)\n        internal\n        view\n        returns (uint256 insuredValueCoverage)\n    {\n        uint256 currentInsuranceCoverage = insuranceCoverageAmendmentProposal\n            .getCurrentInsuranceCoverage();\n        return initialValue.mul(currentInsuranceCoverage).div(100);\n    }\n\n    function _calculateProvidersConsensusTreshold()\n        internal\n        view\n        returns (uint256 providersConsensusTreshold)\n    {\n        return flightSuretyShares.totalSupply().div(2);\n    }\n\n    function _calculateSharesToMint()\n        internal\n        pure\n        returns (uint256 sharesToMint)\n    {\n        return 1;\n    }\n}\n",
  "sourcePath": "/home/tothemoon_/Documents/FlightInsurance/contracts/FlightSuretyApp/FlightSuretyApp.sol",
  "compiler": {
    "name": "solc",
    "version": "0.8.0+commit.c7dfd78e.Emscripten.clang"
  },
  "schemaVersion": "3.4.2",
  "updatedAt": "2021-08-16T12:52:18.003Z",
  "networkType": "ethereum",
  "devdoc": {
    "kind": "dev",
    "methods": {},
    "version": 1
  },
  "userdoc": {
    "kind": "user",
    "methods": {},
    "version": 1
  }
}