{
  "contractName": "FlightSuretyApp",
  "abi": [
    {
      "inputs": [
        {
          "internalType": "uint256",
          "name": "_tokenHolderMinBlockRequirement",
          "type": "uint256"
        },
        {
          "internalType": "uint256",
          "name": "_proposalValidBlockNum",
          "type": "uint256"
        }
      ],
      "stateMutability": "nonpayable",
      "type": "constructor"
    },
    {
      "anonymous": false,
      "inputs": [
        {
          "indexed": true,
          "internalType": "uint256",
          "name": "proposalID",
          "type": "uint256"
        },
        {
          "indexed": false,
          "internalType": "uint256",
          "name": "insuranceCoverage",
          "type": "uint256"
        }
      ],
      "name": "ActivatedInsuranceCoverageAmendmentProposal",
      "type": "event"
    },
    {
      "anonymous": false,
      "inputs": [
        {
          "indexed": true,
          "internalType": "address",
          "name": "insuranceProvider",
          "type": "address"
        }
      ],
      "name": "ActivatedInsuranceProvider",
      "type": "event"
    },
    {
      "anonymous": false,
      "inputs": [
        {
          "indexed": true,
          "internalType": "uint256",
          "name": "proposalID",
          "type": "uint256"
        },
        {
          "indexed": false,
          "internalType": "uint256",
          "name": "lockedMembershipFee",
          "type": "uint256"
        }
      ],
      "name": "ActivatedMembershipFeeAmendmentProposal",
      "type": "event"
    },
    {
      "anonymous": false,
      "inputs": [
        {
          "indexed": true,
          "internalType": "address",
          "name": "oracleProvider",
          "type": "address"
        }
      ],
      "name": "ActivatedOracleProvider",
      "type": "event"
    },
    {
      "anonymous": false,
      "inputs": [
        {
          "indexed": true,
          "internalType": "address",
          "name": "contractOwner",
          "type": "address"
        },
        {
          "indexed": false,
          "internalType": "address",
          "name": "caller",
          "type": "address"
        },
        {
          "indexed": false,
          "internalType": "address",
          "name": "contractAddress",
          "type": "address"
        }
      ],
      "name": "AuthorizedCaller",
      "type": "event"
    },
    {
      "anonymous": false,
      "inputs": [
        {
          "indexed": true,
          "internalType": "uint256",
          "name": "flightID",
          "type": "uint256"
        },
        {
          "indexed": true,
          "internalType": "address",
          "name": "insuranceProvider",
          "type": "address"
        },
        {
          "indexed": false,
          "internalType": "uint256",
          "name": "estimatedDeparture",
          "type": "uint256"
        },
        {
          "indexed": false,
          "internalType": "uint256",
          "name": "estimatedArrival",
          "type": "uint256"
        },
        {
          "indexed": false,
          "internalType": "string",
          "name": "flightRef",
          "type": "string"
        },
        {
          "indexed": false,
          "internalType": "uint256",
          "name": "rate",
          "type": "uint256"
        }
      ],
      "name": "NewFlight",
      "type": "event"
    },
    {
      "anonymous": false,
      "inputs": [
        {
          "indexed": true,
          "internalType": "address",
          "name": "passenger",
          "type": "address"
        },
        {
          "indexed": true,
          "internalType": "address",
          "name": "insuranceProvider",
          "type": "address"
        },
        {
          "indexed": true,
          "internalType": "uint256",
          "name": "insuranceID",
          "type": "uint256"
        },
        {
          "indexed": false,
          "internalType": "uint256",
          "name": "flightID",
          "type": "uint256"
        },
        {
          "indexed": false,
          "internalType": "uint256",
          "name": "insuredValue",
          "type": "uint256"
        }
      ],
      "name": "NewInsurance",
      "type": "event"
    },
    {
      "anonymous": false,
      "inputs": [
        {
          "indexed": true,
          "internalType": "uint256",
          "name": "proposalID",
          "type": "uint256"
        },
        {
          "indexed": true,
          "internalType": "address",
          "name": "caller",
          "type": "address"
        },
        {
          "indexed": false,
          "internalType": "uint256",
          "name": "insuranceCoverage",
          "type": "uint256"
        }
      ],
      "name": "NewInsuranceCoverageAmendmentProposal",
      "type": "event"
    },
    {
      "anonymous": false,
      "inputs": [
        {
          "indexed": true,
          "internalType": "uint256",
          "name": "proposalID",
          "type": "uint256"
        },
        {
          "indexed": true,
          "internalType": "address",
          "name": "caller",
          "type": "address"
        },
        {
          "indexed": false,
          "internalType": "uint256",
          "name": "proposedMembershipFee",
          "type": "uint256"
        }
      ],
      "name": "NewMembershipFeeAmendmentProposal",
      "type": "event"
    },
    {
      "anonymous": false,
      "inputs": [
        {
          "indexed": true,
          "internalType": "address",
          "name": "owner",
          "type": "address"
        },
        {
          "indexed": true,
          "internalType": "address",
          "name": "insuranceProvider",
          "type": "address"
        },
        {
          "indexed": true,
          "internalType": "uint256",
          "name": "flightID",
          "type": "uint256"
        },
        {
          "indexed": false,
          "internalType": "uint256",
          "name": "insuredValue",
          "type": "uint256"
        },
        {
          "indexed": false,
          "internalType": "uint256",
          "name": "insuranceID",
          "type": "uint256"
        }
      ],
      "name": "NewPayout",
      "type": "event"
    },
    {
      "anonymous": false,
      "inputs": [
        {
          "indexed": true,
          "internalType": "uint256",
          "name": "proposalID",
          "type": "uint256"
        },
        {
          "indexed": true,
          "internalType": "address",
          "name": "voter",
          "type": "address"
        }
      ],
      "name": "NewVoteInsuranceCoverageAmendmentProposal",
      "type": "event"
    },
    {
      "anonymous": false,
      "inputs": [
        {
          "indexed": true,
          "internalType": "address",
          "name": "voter",
          "type": "address"
        },
        {
          "indexed": true,
          "internalType": "bool",
          "name": "side",
          "type": "bool"
        },
        {
          "indexed": true,
          "internalType": "address",
          "name": "votee",
          "type": "address"
        }
      ],
      "name": "NewVoteInsuranceProvider",
      "type": "event"
    },
    {
      "anonymous": false,
      "inputs": [
        {
          "indexed": true,
          "internalType": "uint256",
          "name": "proposalID",
          "type": "uint256"
        },
        {
          "indexed": true,
          "internalType": "address",
          "name": "voter",
          "type": "address"
        }
      ],
      "name": "NewVoteMembershipFeeAmendmentProposal",
      "type": "event"
    },
    {
      "anonymous": false,
      "inputs": [
        {
          "indexed": true,
          "internalType": "address",
          "name": "voter",
          "type": "address"
        },
        {
          "indexed": true,
          "internalType": "bool",
          "name": "side",
          "type": "bool"
        },
        {
          "indexed": true,
          "internalType": "address",
          "name": "votee",
          "type": "address"
        }
      ],
      "name": "NewVoteOracleProvider",
      "type": "event"
    },
    {
      "anonymous": false,
      "inputs": [
        {
          "indexed": true,
          "internalType": "address",
          "name": "insuranceProvider",
          "type": "address"
        }
      ],
      "name": "RegisteredInsuranceProvider",
      "type": "event"
    },
    {
      "anonymous": false,
      "inputs": [
        {
          "indexed": true,
          "internalType": "address",
          "name": "oracleProvider",
          "type": "address"
        }
      ],
      "name": "RegisteredOracleProvider",
      "type": "event"
    },
    {
      "anonymous": false,
      "inputs": [
        {
          "indexed": true,
          "internalType": "address",
          "name": "insuranceProvider",
          "type": "address"
        }
      ],
      "name": "RemovedInsuranceProvider",
      "type": "event"
    },
    {
      "anonymous": false,
      "inputs": [
        {
          "indexed": true,
          "internalType": "address",
          "name": "oracleProvider",
          "type": "address"
        }
      ],
      "name": "RemovedOracleProvider",
      "type": "event"
    },
    {
      "anonymous": false,
      "inputs": [
        {
          "indexed": true,
          "internalType": "address",
          "name": "contractOwner",
          "type": "address"
        },
        {
          "indexed": false,
          "internalType": "address",
          "name": "caller",
          "type": "address"
        },
        {
          "indexed": false,
          "internalType": "address",
          "name": "contractAddress",
          "type": "address"
        }
      ],
      "name": "UnauthorizedCaller",
      "type": "event"
    },
    {
      "inputs": [],
      "name": "destructContract",
      "outputs": [],
      "stateMutability": "nonpayable",
      "type": "function"
    },
    {
      "inputs": [],
      "name": "isOwner",
      "outputs": [
        {
          "internalType": "bool",
          "name": "_isOwner",
          "type": "bool"
        }
      ],
      "stateMutability": "view",
      "type": "function",
      "constant": true
    },
    {
      "inputs": [],
      "name": "proposalValidBlockNum",
      "outputs": [
        {
          "internalType": "uint256",
          "name": "",
          "type": "uint256"
        }
      ],
      "stateMutability": "view",
      "type": "function",
      "constant": true
    },
    {
      "inputs": [],
      "name": "tokenHolderMinBlockRequirement",
      "outputs": [
        {
          "internalType": "uint256",
          "name": "",
          "type": "uint256"
        }
      ],
      "stateMutability": "view",
      "type": "function",
      "constant": true
    },
    {
      "inputs": [
        {
          "internalType": "address",
          "name": "_newOwner",
          "type": "address"
        }
      ],
      "name": "transferOwnership",
      "outputs": [],
      "stateMutability": "nonpayable",
      "type": "function"
    },
    {
      "inputs": [
        {
          "internalType": "address",
          "name": "_flightSuretyData",
          "type": "address"
        },
        {
          "internalType": "address",
          "name": "_insuranceCoverageAmendmentProposal",
          "type": "address"
        },
        {
          "internalType": "address",
          "name": "_membershipFeeAmendmentProposal",
          "type": "address"
        },
        {
          "internalType": "address",
          "name": "_insuranceProviderRole",
          "type": "address"
        },
        {
          "internalType": "address",
          "name": "_oracleProviderRole",
          "type": "address"
        },
        {
          "internalType": "address",
          "name": "_flightSuretyShares",
          "type": "address"
        }
      ],
      "name": "initialize",
      "outputs": [],
      "stateMutability": "nonpayable",
      "type": "function"
    },
    {
      "inputs": [
        {
          "internalType": "bool",
          "name": "_operationnal",
          "type": "bool"
        }
      ],
      "name": "setOperationnal",
      "outputs": [],
      "stateMutability": "nonpayable",
      "type": "function"
    },
    {
      "inputs": [
        {
          "internalType": "address",
          "name": "_authorizedCaller",
          "type": "address"
        },
        {
          "internalType": "bool",
          "name": "_access",
          "type": "bool"
        }
      ],
      "name": "updateAuthorizedCallerFlightSuretyData",
      "outputs": [],
      "stateMutability": "nonpayable",
      "type": "function"
    },
    {
      "inputs": [
        {
          "internalType": "address",
          "name": "_authorizedCaller",
          "type": "address"
        },
        {
          "internalType": "bool",
          "name": "_access",
          "type": "bool"
        }
      ],
      "name": "updateAuthorizedCallerInsuranceCoverageAmendmentProposal",
      "outputs": [],
      "stateMutability": "nonpayable",
      "type": "function"
    },
    {
      "inputs": [
        {
          "internalType": "address",
          "name": "_authorizedCaller",
          "type": "address"
        },
        {
          "internalType": "bool",
          "name": "_access",
          "type": "bool"
        }
      ],
      "name": "updateAuthorizedCallerMembershipFeeAmendmentProposal",
      "outputs": [],
      "stateMutability": "nonpayable",
      "type": "function"
    },
    {
      "inputs": [
        {
          "internalType": "address",
          "name": "_authorizedCaller",
          "type": "address"
        },
        {
          "internalType": "bool",
          "name": "_access",
          "type": "bool"
        }
      ],
      "name": "updateAuthorizedCallerInsuranceProviderRole",
      "outputs": [],
      "stateMutability": "nonpayable",
      "type": "function"
    },
    {
      "inputs": [
        {
          "internalType": "address",
          "name": "_authorizedCaller",
          "type": "address"
        },
        {
          "internalType": "bool",
          "name": "_access",
          "type": "bool"
        }
      ],
      "name": "updateAuthorizedCallerOracleProviderRole",
      "outputs": [],
      "stateMutability": "nonpayable",
      "type": "function"
    },
    {
      "inputs": [
        {
          "internalType": "address",
          "name": "_authorizedCaller",
          "type": "address"
        },
        {
          "internalType": "bool",
          "name": "_access",
          "type": "bool"
        }
      ],
      "name": "updateAuthorizedCallerFlighSuretyShares",
      "outputs": [],
      "stateMutability": "nonpayable",
      "type": "function"
    },
    {
      "inputs": [
        {
          "internalType": "address",
          "name": "account",
          "type": "address"
        }
      ],
      "name": "registerInsuranceProvider",
      "outputs": [],
      "stateMutability": "nonpayable",
      "type": "function"
    },
    {
      "inputs": [],
      "name": "fundInsuranceProvider",
      "outputs": [],
      "stateMutability": "payable",
      "type": "function",
      "payable": true
    },
    {
      "inputs": [],
      "name": "registerOracleProvider",
      "outputs": [],
      "stateMutability": "payable",
      "type": "function",
      "payable": true
    },
    {
      "inputs": [
        {
          "internalType": "address",
          "name": "_account",
          "type": "address"
        }
      ],
      "name": "voteInsuranceProviderMembership",
      "outputs": [],
      "stateMutability": "nonpayable",
      "type": "function"
    },
    {
      "inputs": [
        {
          "internalType": "address",
          "name": "_account",
          "type": "address"
        }
      ],
      "name": "voteOracleProviderMembership",
      "outputs": [],
      "stateMutability": "nonpayable",
      "type": "function"
    },
    {
      "inputs": [
        {
          "internalType": "string",
          "name": "_flightRef",
          "type": "string"
        },
        {
          "internalType": "uint64",
          "name": "_estimatedDeparture",
          "type": "uint64"
        },
        {
          "internalType": "uint64",
          "name": "_estimatedArrival",
          "type": "uint64"
        },
        {
          "internalType": "uint256",
          "name": "_rate",
          "type": "uint256"
        }
      ],
      "name": "registerFlight",
      "outputs": [],
      "stateMutability": "nonpayable",
      "type": "function"
    },
    {
      "inputs": [
        {
          "internalType": "uint256",
          "name": "_flightID",
          "type": "uint256"
        }
      ],
      "name": "getFlightInitialData",
      "outputs": [
        {
          "internalType": "string",
          "name": "flightRef",
          "type": "string"
        },
        {
          "internalType": "uint64",
          "name": "estimatedDeparture",
          "type": "uint64"
        },
        {
          "internalType": "uint64",
          "name": "estimatedArrival",
          "type": "uint64"
        },
        {
          "internalType": "address",
          "name": "insuranceProvider",
          "type": "address"
        },
        {
          "internalType": "uint256",
          "name": "rate",
          "type": "uint256"
        }
      ],
      "stateMutability": "view",
      "type": "function",
      "constant": true
    },
    {
      "inputs": [
        {
          "internalType": "uint256",
          "name": "_flightID",
          "type": "uint256"
        }
      ],
      "name": "getFlightSettlementData",
      "outputs": [
        {
          "internalType": "string",
          "name": "flightRef",
          "type": "string"
        },
        {
          "internalType": "uint64",
          "name": "realDeparture",
          "type": "uint64"
        },
        {
          "internalType": "uint64",
          "name": "realArrival",
          "type": "uint64"
        },
        {
          "internalType": "bool",
          "name": "isLate",
          "type": "bool"
        },
        {
          "internalType": "address",
          "name": "insuranceProvider",
          "type": "address"
        },
        {
          "internalType": "uint256",
          "name": "insuredValue",
          "type": "uint256"
        }
      ],
      "stateMutability": "view",
      "type": "function",
      "constant": true
    },
    {
      "inputs": [
        {
          "internalType": "uint256",
          "name": "_flightID",
          "type": "uint256"
        }
      ],
      "name": "registerInsurance",
      "outputs": [],
      "stateMutability": "payable",
      "type": "function",
      "payable": true
    },
    {
      "inputs": [
        {
          "internalType": "uint256",
          "name": "_insuranceID",
          "type": "uint256"
        }
      ],
      "name": "claimInsurance",
      "outputs": [],
      "stateMutability": "payable",
      "type": "function",
      "payable": true
    },
    {
      "inputs": [],
      "name": "currentMembershipFee",
      "outputs": [
        {
          "internalType": "uint256",
          "name": "",
          "type": "uint256"
        }
      ],
      "stateMutability": "view",
      "type": "function",
      "constant": true
    },
    {
      "inputs": [],
      "name": "currentInsuranceCoverageRatio",
      "outputs": [
        {
          "internalType": "uint256",
          "name": "",
          "type": "uint256"
        }
      ],
      "stateMutability": "view",
      "type": "function",
      "constant": true
    },
    {
      "inputs": [
        {
          "internalType": "uint256",
          "name": "_proposedValue",
          "type": "uint256"
        }
      ],
      "name": "registerMembershipFeeAmendmentProposal",
      "outputs": [],
      "stateMutability": "nonpayable",
      "type": "function"
    },
    {
      "inputs": [
        {
          "internalType": "uint256",
          "name": "_proposalID",
          "type": "uint256"
        }
      ],
      "name": "voteMembershipFeeAmendmentProposal",
      "outputs": [],
      "stateMutability": "nonpayable",
      "type": "function"
    },
    {
      "inputs": [
        {
          "internalType": "uint256",
          "name": "_proposedValue",
          "type": "uint256"
        }
      ],
      "name": "registerInsuranceCoverageAmendmentProposal",
      "outputs": [],
      "stateMutability": "nonpayable",
      "type": "function"
    },
    {
      "inputs": [
        {
          "internalType": "uint256",
          "name": "_proposalID",
          "type": "uint256"
        }
      ],
      "name": "voteInsuranceCoverageAmendmentProposal",
      "outputs": [],
      "stateMutability": "nonpayable",
      "type": "function"
    },
    {
      "inputs": [],
      "name": "getOracleIndexes",
      "outputs": [
        {
          "internalType": "uint256",
          "name": "index1",
          "type": "uint256"
        },
        {
          "internalType": "uint256",
          "name": "index2",
          "type": "uint256"
        },
        {
          "internalType": "uint256",
          "name": "index3",
          "type": "uint256"
        }
      ],
      "stateMutability": "view",
      "type": "function",
      "constant": true
    }
  ],
  "bytecode": "0x60806040523480156200001157600080fd5b50604051620055f6380380620055f6833981016040819052620000349162000064565b6000805460ff60a01b196001600160a01b0319909116331716600160a01b17905560019190915560025562000088565b6000806040838503121562000077578182fd5b505080516020909101519092909150565b61555e80620000986000396000f3fe6080604052600436106101cd5760003560e01c80638a4fa7f0116100f7578063bbab516611610095578063cc2a9a5b11610064578063cc2a9a5b146104df578063f2fde38b146104ff578063f55f66511461051f578063f85920d81461053f576101cd565b8063bbab51661461045f578063be3781141461047f578063c7aa26281461049f578063ca51f664146104bf576101cd565b806397a10723116100d157806397a10723146103f1578063a6c131fb14610422578063ab54139814610442578063ab9269a514610457576101cd565b80638a4fa7f01461039a5780638f32d59b146103ba5780639499e018146103dc576101cd565b8063383da3631161016f5780635eeb2d881161013e5780635eeb2d881461032057806366fa5e85146103525780636c548134146103725780636de994c51461037a576101cd565b8063383da363146102a057806342f3cc5f146102c0578063554a75ca146102e05780635ed5207b14610300576101cd565b8063210870bb116101ab578063210870bb146102365780632600fc9b1461025857806327a5fe7e1461026b5780632e24a3ea1461028b576101cd565b806304a11de7146101d2578063175a2ead146101fd5780631abbc61014610221575b600080fd5b3480156101de57600080fd5b506101e7610552565b6040516101f49190615340565b60405180910390f35b34801561020957600080fd5b506102126105df565b6040516101f493929190615393565b34801561022d57600080fd5b506101e761071a565b34801561024257600080fd5b506102566102513660046149a8565b61075f565b005b610256610266366004614bcb565b6108cb565b34801561027757600080fd5b506102566102863660046149a8565b610d51565b34801561029757600080fd5b506101e7610ea3565b3480156102ac57600080fd5b506102566102bb366004614bcb565b610ea9565b3480156102cc57600080fd5b506102566102db36600461490b565b6114db565b3480156102ec57600080fd5b506102566102fb3660046149a8565b611b5b565b34801561030c57600080fd5b5061025661031b3660046149a8565b611cab565b34801561032c57600080fd5b5061034061033b366004614bcb565b611dfd565b6040516101f496959493929190614e18565b34801561035e57600080fd5b5061025661036d366004614bcb565b611ea7565b6102566124a6565b34801561038657600080fd5b5061025661039536600461490b565b612854565b3480156103a657600080fd5b506102566103b5366004614bcb565b6129b3565b3480156103c657600080fd5b506103cf612c61565b6040516101f49190614da2565b3480156103e857600080fd5b50610256612c72565b3480156103fd57600080fd5b5061041161040c366004614bcb565b612caa565b6040516101f4959493929190614dce565b34801561042e57600080fd5b5061025661043d3660046149e0565b612d4f565b34801561044e57600080fd5b506101e7612d85565b610256612d8b565b34801561046b57600080fd5b5061025661047a3660046149a8565b6131d4565b34801561048b57600080fd5b5061025661049a36600461490b565b613326565b3480156104ab57600080fd5b506102566104ba3660046149a8565b613891565b3480156104cb57600080fd5b506102566104da366004614a18565b6139e3565b3480156104eb57600080fd5b506102566104fa366004614927565b613c54565b34801561050b57600080fd5b5061025661051a36600461490b565b613df6565b34801561052b57600080fd5b5061025661053a366004614bcb565b613e42565b61025661054d366004614bcb565b6140f2565b6000600460009054906101000a90046001600160a01b03166001600160a01b031663fde0c4636040518163ffffffff1660e01b815260040160206040518083038186803b1580156105a257600080fd5b505afa1580156105b6573d6000803e3d6000fd5b505050506040513d601f19601f820116820180604052508101906105da9190614be3565b905090565b60075460405163775cbd8d60e01b81526000918291829133916001600160a01b039091169063775cbd8d90610618908490600401614ccb565b60206040518083038186803b15801561063057600080fd5b505afa158015610644573d6000803e3d6000fd5b505050506040513d601f19601f8201168201806040525081019061066891906149fc565b61068d5760405162461bcd60e51b8152600401610684906151fd565b60405180910390fd5b6007546040516321addc4d60e11b81526001600160a01b039091169063435bb89a906106bd903390600401614ccb565b60606040518083038186803b1580156106d557600080fd5b505afa1580156106e9573d6000803e3d6000fd5b505050506040513d601f19601f8201168201806040525081019061070d9190614c45565b9195509350915050909192565b600554604080516332393eb760e21b815290516000926001600160a01b03169163c8e4fadc916004808301926020929190829003018186803b1580156105a257600080fd5b6000546001600160a01b031633146107895760405162461bcd60e51b815260040161068490615198565b801561082d57600854604051632c388d5d60e01b81526001600160a01b0390911690632c388d5d906107bf908590600401614ccb565b600060405180830381600087803b1580156107d957600080fd5b505af11580156107ed573d6000803e3d6000fd5b50506008546040513393506000805160206154e983398151915292506108209186916001600160a01b0390911690614cdf565b60405180910390a26108c7565b60085460405163256462d760e11b81526001600160a01b0390911690634ac8c5ae9061085d908590600401614ccb565b600060405180830381600087803b15801561087757600080fd5b505af115801561088b573d6000803e3d6000fd5b505060085460405133935060008051602061550983398151915292506108be9186916001600160a01b0390911690614cdf565b60405180910390a25b5050565b600054600160a01b900460ff166108f45760405162461bcd60e51b8152600401610684906152a4565b600354604051633a4396cb60e01b815282916000916001600160a01b0390911690633a4396cb90610929908590600401615340565b60006040518083038186803b15801561094157600080fd5b505afa158015610955573d6000803e3d6000fd5b505050506040513d6000823e601f3d908101601f1916820160405261097d9190810190614aaf565b50505050505050915050428167ffffffffffffffff16116109b05760405162461bcd60e51b815260040161068490615076565b600354604051633a4396cb60e01b815284916000916001600160a01b0390911690633a4396cb906109e5908590600401615340565b60006040518083038186803b1580156109fd57600080fd5b505afa158015610a11573d6000803e3d6000fd5b505050506040513d6000823e601f3d908101601f19168201604052610a399190810190614aaf565b9850505050505050505080341015610a635760405162461bcd60e51b815260040161068490614ee3565b6000610a6f82346146b8565b9050346000610b0482600360009054906101000a90046001600160a01b03166001600160a01b031663d48b06b86040518163ffffffff1660e01b815260040160206040518083038186803b158015610ac657600080fd5b505afa158015610ada573d6000803e3d6000fd5b505050506040513d601f19601f82011682018060405250810190610afe9190614be3565b906146cb565b90506000610b11826146d7565b905047811115610b335760405162461bcd60e51b8152600401610684906150ad565b600354604051633a4396cb60e01b815260009182916001600160a01b0390911690633a4396cb90610b68908e90600401615340565b60006040518083038186803b158015610b8057600080fd5b505afa158015610b94573d6000803e3d6000fd5b505050506040513d6000823e601f3d908101601f19168201604052610bbc9190810190614aaf565b9850509750505050505050600360009054906101000a90046001600160a01b03166001600160a01b031663390fc413338d846040518463ffffffff1660e01b8152600401610c0c93929190614d81565b600060405180830381600087803b158015610c2657600080fd5b505af1158015610c3a573d6000803e3d6000fd5b50505050610c478161476d565b600354604080516317291e0560e11b815290516000926001600160a01b031691632e523c0a916004808301926020929190829003018186803b158015610c8c57600080fd5b505afa158015610ca0573d6000803e3d6000fd5b505050506040513d601f19601f82011682018060405250810190610cc49190614be3565b905080836001600160a01b0316336001600160a01b03167f92de6a95faf2432685c9d5eaf71891cadcf05e0b18ec223068412a8cb52ebb608f86604051610d0c929190615385565b60405180910390a4505060405133945085156108fc02935085925090506000818181858888f19350505050158015610d48573d6000803e3d6000fd5b50505050505050565b6000546001600160a01b03163314610d7b5760405162461bcd60e51b815260040161068490615198565b8015610e1257600354604051632c388d5d60e01b81526001600160a01b0390911690632c388d5d90610db1908590600401614ccb565b600060405180830381600087803b158015610dcb57600080fd5b505af1158015610ddf573d6000803e3d6000fd5b50506003546040513393506000805160206154e983398151915292506108209186916001600160a01b0390911690614cdf565b60035460405163256462d760e11b81526001600160a01b0390911690634ac8c5ae90610e42908590600401614ccb565b600060405180830381600087803b158015610e5c57600080fd5b505af1158015610e70573d6000803e3d6000fd5b505060035460405133935060008051602061550983398151915292506108be9186916001600160a01b0390911690614cdf565b60015481565b600054600160a01b900460ff16610ed25760405162461bcd60e51b8152600401610684906152a4565b6008546040516370a0823160e01b815233916000916001600160a01b03909116906370a0823190610f07908590600401614ccb565b60206040518083038186803b158015610f1f57600080fd5b505afa158015610f33573d6000803e3d6000fd5b505050506040513d601f19601f82011682018060405250810190610f579190614be3565b905060008111610f795760405162461bcd60e51b81526004016106849061526d565b600854604051631bb7b02160e11b81523391600091611007916001600160a01b03169063376f604290610fb0908690600401614ccb565b60206040518083038186803b158015610fc857600080fd5b505afa158015610fdc573d6000803e3d6000fd5b505050506040513d601f19601f820116820180604052508101906110009190614be3565b43906146b8565b905060015481101561102b5760405162461bcd60e51b815260040161068490614ea1565b60055460405163086b7e0b60e21b8152339187916001600160a01b03909116906321adf82c906110619085908590600401614d68565b60206040518083038186803b15801561107957600080fd5b505afa15801561108d573d6000803e3d6000fd5b505050506040513d601f19601f820116820180604052508101906110b191906149fc565b156110ce5760405162461bcd60e51b8152600401610684906151c6565b600554604051632992774b60e01b815288916000916001600160a01b0390911690632992774b90611103908590600401615340565b60206040518083038186803b15801561111b57600080fd5b505afa15801561112f573d6000803e3d6000fd5b505050506040513d601f19601f8201168201806040525081019061115391906149fc565b905080156111735760405162461bcd60e51b8152600401610684906152db565b600554604051635d7eb9d360e11b81528a916000916111aa916001600160a01b03169063bafd73a690610fb0908690600401615340565b90506002548111156111ce5760405162461bcd60e51b815260040161068490615309565b6005546008546040516370a0823160e01b81526001600160a01b039283169263785e7c10928f92339260019216906370a0823190611210908590600401614ccb565b60206040518083038186803b15801561122857600080fd5b505afa15801561123c573d6000803e3d6000fd5b505050506040513d601f19601f820116820180604052508101906112609190614be3565b6040518563ffffffff1660e01b815260040161127f9493929190615349565b600060405180830381600087803b15801561129957600080fd5b505af11580156112ad573d6000803e3d6000fd5b5050600554600092506001600160a01b0316905063b83c24be8d60016112d161485a565b6040518463ffffffff1660e01b81526004016112ef9392919061536f565b60206040518083038186803b15801561130757600080fd5b505afa15801561131b573d6000803e3d6000fd5b505050506040513d601f19601f8201168201806040525081019061133f91906149fc565b9050801561149f5760055460405163020df34960e41b81526001600160a01b03909116906320df349090611377908f90600401615340565b600060405180830381600087803b15801561139157600080fd5b505af11580156113a5573d6000803e3d6000fd5b505050506000600560009054906101000a90046001600160a01b03166001600160a01b031663c8e4fadc6040518163ffffffff1660e01b815260040160206040518083038186803b1580156113f957600080fd5b505afa15801561140d573d6000803e3d6000fd5b505050506040513d601f19601f820116820180604052508101906114319190614be3565b60405190915033908e907f0450a2b5feaa1ee53edb36ef2d8854b1a508547d111e43b5b1ead1b090a5daa290600090a38c7f1b454f919e7ff592d633a0d62845314e86de1463aa34dea4aab7c0ab6945a73d826040516114919190615340565b60405180910390a2506114cd565b60405133908d907f0450a2b5feaa1ee53edb36ef2d8854b1a508547d111e43b5b1ead1b090a5daa290600090a35b505050505050505050505050565b600054600160a01b900460ff166115045760405162461bcd60e51b8152600401610684906152a4565b60065460405163d81bfa8960e01b815233916001600160a01b03169063d81bfa8990611534908490600401614ccb565b60206040518083038186803b15801561154c57600080fd5b505afa158015611560573d6000803e3d6000fd5b505050506040513d601f19601f8201168201806040525081019061158491906149fc565b6115a05760405162461bcd60e51b81526004016106849061502b565b6008546040516370a0823160e01b815233916000916001600160a01b03909116906370a08231906115d5908590600401614ccb565b60206040518083038186803b1580156115ed57600080fd5b505afa158015611601573d6000803e3d6000fd5b505050506040513d601f19601f820116820180604052508101906116259190614be3565b9050600081116116475760405162461bcd60e51b81526004016106849061526d565b600854604051631bb7b02160e11b8152339160009161167e916001600160a01b03169063376f604290610fb0908690600401614ccb565b90506001548110156116a25760405162461bcd60e51b815260040161068490614ea1565b6006546040516283c70f60e31b8152339188916001600160a01b039091169063041e3878906116d79084908690600401614cdf565b60206040518083038186803b1580156116ef57600080fd5b505afa158015611703573d6000803e3d6000fd5b505050506040513d601f19601f8201168201806040525081019061172791906149fc565b156117445760405162461bcd60e51b8152600401610684906151c6565b60065460405163d81bfa8960e01b815289916001600160a01b03169063d81bfa8990611774908490600401614ccb565b60206040518083038186803b15801561178c57600080fd5b505afa1580156117a0573d6000803e3d6000fd5b505050506040513d601f19601f820116820180604052508101906117c491906149fc565b156117e15760405162461bcd60e51b815260040161068490614fa0565b6006546008546040516370a0823160e01b81526001600160a01b0392831692637cd913159233928e92909116906370a0823190611822908590600401614ccb565b60206040518083038186803b15801561183a57600080fd5b505afa15801561184e573d6000803e3d6000fd5b505050506040513d601f19601f820116820180604052508101906118729190614be3565b6040518463ffffffff1660e01b815260040161189093929190614cf9565b600060405180830381600087803b1580156118aa57600080fd5b505af11580156118be573d6000803e3d6000fd5b505060065460408051631dc549a960e31b81529051600094506001600160a01b03909216925063c287a648916001918e9161195b91600291879163ee2a4d48916004808301926020929190829003018186803b15801561191d57600080fd5b505afa158015611931573d6000803e3d6000fd5b505050506040513d601f19601f820116820180604052508101906119559190614be3565b906148af565b6040518463ffffffff1660e01b815260040161197993929190614dad565b60206040518083038186803b15801561199157600080fd5b505afa1580156119a5573d6000803e3d6000fd5b505050506040513d601f19601f820116820180604052508101906119c991906149fc565b90508015611b1557600654604051636c66623d60e11b81526001600160a01b039091169063d8ccc47a90611a01908d90600401614ccb565b600060405180830381600087803b158015611a1b57600080fd5b505af1158015611a2f573d6000803e3d6000fd5b505050506000611a3d6148bb565b6008546040516340c10f1960e01b81529192506001600160a01b0316906340c10f1990611a70908e908590600401614d68565b600060405180830381600087803b158015611a8a57600080fd5b505af1158015611a9e573d6000803e3d6000fd5b50506040516001600160a01b038e1692506001915033907fa9d2bc6dc1b37950fdc57b26b1bcc905538ce9c54a8d46b9a043b61f61d84db990600090a46040516001600160a01b038c16907f5dbffd047c48d57a7d972a24d9fe3ced4753a2b27c6b277fc905b1607ab99afe90600090a250611b4f565b6040516001600160a01b038b169060019033907fa9d2bc6dc1b37950fdc57b26b1bcc905538ce9c54a8d46b9a043b61f61d84db990600090a45b50505050505050505050565b6000546001600160a01b03163314611b855760405162461bcd60e51b815260040161068490615198565b8015611c1b5760048054604051632c388d5d60e01b81526001600160a01b0390911691632c388d5d91611bba91869101614ccb565b600060405180830381600087803b158015611bd457600080fd5b505af1158015611be8573d6000803e3d6000fd5b50506004546040513393506000805160206154e983398151915292506108209186916001600160a01b0390911690614cdf565b6004805460405163256462d760e11b81526001600160a01b0390911691634ac8c5ae91611c4a91869101614ccb565b600060405180830381600087803b158015611c6457600080fd5b505af1158015611c78573d6000803e3d6000fd5b505060045460405133935060008051602061550983398151915292506108be9186916001600160a01b0390911690614cdf565b6000546001600160a01b03163314611cd55760405162461bcd60e51b815260040161068490615198565b8015611d6c57600654604051632c388d5d60e01b81526001600160a01b0390911690632c388d5d90611d0b908590600401614ccb565b600060405180830381600087803b158015611d2557600080fd5b505af1158015611d39573d6000803e3d6000fd5b50506006546040513393506000805160206154e983398151915292506108209186916001600160a01b0390911690614cdf565b60065460405163256462d760e11b81526001600160a01b0390911690634ac8c5ae90611d9c908590600401614ccb565b600060405180830381600087803b158015611db657600080fd5b505af1158015611dca573d6000803e3d6000fd5b505060065460405133935060008051602061550983398151915292506108be9186916001600160a01b0390911690614cdf565b600354604051633a4396cb60e01b815260609160009182918291829182916001600160a01b0390911690633a4396cb90611e3b908a90600401615340565b60006040518083038186803b158015611e5357600080fd5b505afa158015611e67573d6000803e3d6000fd5b505050506040513d6000823e601f3d908101601f19168201604052611e8f9190810190614aaf565b50969e939d50919b5099509750929550919350505050565b600054600160a01b900460ff16611ed05760405162461bcd60e51b8152600401610684906152a4565b6008546040516370a0823160e01b815233916000916001600160a01b03909116906370a0823190611f05908590600401614ccb565b60206040518083038186803b158015611f1d57600080fd5b505afa158015611f31573d6000803e3d6000fd5b505050506040513d601f19601f82011682018060405250810190611f559190614be3565b905060008111611f775760405162461bcd60e51b81526004016106849061526d565b600854604051631bb7b02160e11b81523391600091611fae916001600160a01b03169063376f604290610fb0908690600401614ccb565b9050600154811015611fd25760405162461bcd60e51b815260040161068490614ea1565b6004805460405163a49854d960e01b8152339288926001600160a01b03169163a49854d991612005918691869101614d68565b60206040518083038186803b15801561201d57600080fd5b505afa158015612031573d6000803e3d6000fd5b505050506040513d601f19601f8201168201806040525081019061205591906149fc565b156120725760405162461bcd60e51b8152600401610684906151c6565b6004805460405163c7e51ab760e01b815289926000926001600160a01b03169163c7e51ab7916120a491869101615340565b60206040518083038186803b1580156120bc57600080fd5b505afa1580156120d0573d6000803e3d6000fd5b505050506040513d601f19601f820116820180604052508101906120f491906149fc565b905080156121145760405162461bcd60e51b8152600401610684906152db565b60048054604051635d7eb9d360e11b81528b9260009261214c926001600160a01b039091169163bafd73a691610fb091879101615340565b90506002548111156121705760405162461bcd60e51b815260040161068490615309565b600460009054906101000a90046001600160a01b03166001600160a01b0316632cb1feed8c336001600860009054906101000a90046001600160a01b03166001600160a01b03166370a08231336040518263ffffffff1660e01b81526004016121d99190614ccb565b60206040518083038186803b1580156121f157600080fd5b505afa158015612205573d6000803e3d6000fd5b505050506040513d601f19601f820116820180604052508101906122299190614be3565b6040518563ffffffff1660e01b81526004016122489493929190615349565b600060405180830381600087803b15801561226257600080fd5b505af1158015612276573d6000803e3d6000fd5b5050600454600092506001600160a01b0316905063a0aea5e08d600161229a61485a565b6040518463ffffffff1660e01b81526004016122b89392919061536f565b60206040518083038186803b1580156122d057600080fd5b505afa1580156122e4573d6000803e3d6000fd5b505050506040513d601f19601f8201168201806040525081019061230891906149fc565b9050801561246b57600460009054906101000a90046001600160a01b03166001600160a01b0316634b8c27fa8d6040518263ffffffff1660e01b81526004016123519190615340565b600060405180830381600087803b15801561236b57600080fd5b505af115801561237f573d6000803e3d6000fd5b505050506000600460009054906101000a90046001600160a01b03166001600160a01b031663fde0c4636040518163ffffffff1660e01b815260040160206040518083038186803b1580156123d357600080fd5b505afa1580156123e7573d6000803e3d6000fd5b505050506040513d601f19601f8201168201806040525081019061240b9190614be3565b60405190915033908e907f7906920cd6c70de2c0c6380adfa74d93af1ff8f5e5b03d1605194fef988add7990600090a38c7f13d4caf5982979691a014920086fb5cac4da0ce48f86c7b4c0d0cadbef27fae4826040516114919190615340565b60405133908d907f7906920cd6c70de2c0c6380adfa74d93af1ff8f5e5b03d1605194fef988add7990600090a3505050505050505050505050565b600054600160a01b900460ff166124cf5760405162461bcd60e51b8152600401610684906152a4565b600554604080516332393eb760e21b815290516000926001600160a01b03169163c8e4fadc916004808301926020929190829003018186803b15801561251457600080fd5b505afa158015612528573d6000803e3d6000fd5b505050506040513d601f19601f8201168201806040525081019061254c9190614be3565b90508034101561256e5760405162461bcd60e51b815260040161068490614e6a565b8034111561260357600061258234836146b8565b90506000336001600160a01b03168260405161259d90614cc8565b60006040518083038185875af1925050503d80600081146125da576040519150601f19603f3d011682016040523d82523d6000602084013e6125df565b606091505b50509050806126005760405162461bcd60e51b815260040161068490615244565b50505b60075460405163316b047d60e01b81526001600160a01b039091169063316b047d90612633903390600401614ccb565b600060405180830381600087803b15801561264d57600080fd5b505af1158015612661573d6000803e3d6000fd5b505050506000600760009054906101000a90046001600160a01b03166001600160a01b031663d3ad53136040518163ffffffff1660e01b815260040160206040518083038186803b1580156126b557600080fd5b505afa1580156126c9573d6000803e3d6000fd5b505050506040513d601f19601f820116820180604052508101906126ed9190614be3565b90506005811015612825576007546040516324f5341760e21b81526001600160a01b03909116906393d4d05c90612728903390600401614ccb565b600060405180830381600087803b15801561274257600080fd5b505af1158015612756573d6000803e3d6000fd5b5050505060006127646148bb565b6008546040516340c10f1960e01b81529192506001600160a01b0316906340c10f19906127979033908590600401614d68565b600060405180830381600087803b1580156127b157600080fd5b505af11580156127c5573d6000803e3d6000fd5b50506040513392507f0418be85575ebac30df5dffbfd641fbbdaafb2b1806fc3637eb7062a70bed9329150600090a260405133907f5e06803b8b6ec4a58bfd8973f079830b31cbb81e939420c22febecc8acdb3f8d90600090a2506108c7565b60405133907f0418be85575ebac30df5dffbfd641fbbdaafb2b1806fc3637eb7062a70bed93290600090a25050565b600054600160a01b900460ff1661287d5760405162461bcd60e51b8152600401610684906152a4565b60065460405163d81bfa8960e01b815233916001600160a01b03169063d81bfa89906128ad908490600401614ccb565b60206040518083038186803b1580156128c557600080fd5b505afa1580156128d9573d6000803e3d6000fd5b505050506040513d601f19601f820116820180604052508101906128fd91906149fc565b6129195760405162461bcd60e51b81526004016106849061502b565b600654604051635a2449a960e01b81526001600160a01b0390911690635a2449a990612949908590600401614ccb565b600060405180830381600087803b15801561296357600080fd5b505af1158015612977573d6000803e3d6000fd5b50506040516001600160a01b03851692507fcfbd886b9409cf70d4b4a060d1e556397e323b33a7000b106b281cc43b0c26419150600090a25050565b600054600160a01b900460ff166129dc5760405162461bcd60e51b8152600401610684906152a4565b6008546040516370a0823160e01b815233916000916001600160a01b03909116906370a0823190612a11908590600401614ccb565b60206040518083038186803b158015612a2957600080fd5b505afa158015612a3d573d6000803e3d6000fd5b505050506040513d601f19601f82011682018060405250810190612a619190614be3565b905060008111612a835760405162461bcd60e51b81526004016106849061526d565b600480546008546040516370a0823160e01b81526001600160a01b0392831693637f2020c793339389939116916370a0823191612ac291869101614ccb565b60206040518083038186803b158015612ada57600080fd5b505afa158015612aee573d6000803e3d6000fd5b505050506040513d601f19601f82011682018060405250810190612b129190614be3565b6040518463ffffffff1660e01b8152600401612b3093929190614d81565b600060405180830381600087803b158015612b4a57600080fd5b505af1158015612b5e573d6000803e3d6000fd5b505050506000600460009054906101000a90046001600160a01b03166001600160a01b0316630b0c98686040518163ffffffff1660e01b815260040160206040518083038186803b158015612bb257600080fd5b505afa158015612bc6573d6000803e3d6000fd5b505050506040513d601f19601f82011682018060405250810190612bea9190614be3565b9050336001600160a01b0316817f455712cb79d839f8ca6a0ab7a15765738906c98f331d0ee1fff1ff591550f2b686604051612c269190615340565b60405180910390a3604051339082907f7906920cd6c70de2c0c6380adfa74d93af1ff8f5e5b03d1605194fef988add7990600090a350505050565b6000546001600160a01b0316331490565b6000546001600160a01b03163314612c9c5760405162461bcd60e51b815260040161068490615198565b6000546001600160a01b0316ff5b600354604051633a4396cb60e01b81526060916000918291829182916001600160a01b031690633a4396cb90612ce4908990600401615340565b60006040518083038186803b158015612cfc57600080fd5b505afa158015612d10573d6000803e3d6000fd5b505050506040513d6000823e601f3d908101601f19168201604052612d389190810190614aaf565b979e969d50949b5099509497509295505050505050565b6000546001600160a01b03163314612d795760405162461bcd60e51b815260040161068490615198565b612d82816148c0565b50565b60025481565b60065460405163199b5a6b60e31b815233916001600160a01b03169063ccdad35890612dbb908490600401614ccb565b60206040518083038186803b158015612dd357600080fd5b505afa158015612de7573d6000803e3d6000fd5b505050506040513d601f19601f82011682018060405250810190612e0b91906149fc565b612e275760405162461bcd60e51b815260040161068490614f5f565b600554604080516332393eb760e21b815290516000926001600160a01b03169163c8e4fadc916004808301926020929190829003018186803b158015612e6c57600080fd5b505afa158015612e80573d6000803e3d6000fd5b505050506040513d601f19601f82011682018060405250810190612ea49190614be3565b905080341015612ec65760405162461bcd60e51b815260040161068490614e6a565b80341115612f5b576000612eda34836146b8565b90506000336001600160a01b031682604051612ef590614cc8565b60006040518083038185875af1925050503d8060008114612f32576040519150601f19603f3d011682016040523d82523d6000602084013e612f37565b606091505b5050905080612f585760405162461bcd60e51b815260040161068490615244565b50505b600554604080516332393eb760e21b815290516000926001600160a01b03169163c8e4fadc916004808301926020929190829003018186803b158015612fa057600080fd5b505afa158015612fb4573d6000803e3d6000fd5b505050506040513d601f19601f82011682018060405250810190612fd89190614be3565b600654604051639419701b60e01b81529192506001600160a01b031690639419701b9061300b9033908590600401614d68565b600060405180830381600087803b15801561302557600080fd5b505af1158015613039573d6000803e3d6000fd5b505050506000600660009054906101000a90046001600160a01b03166001600160a01b031663ee2a4d486040518163ffffffff1660e01b815260040160206040518083038186803b15801561308d57600080fd5b505afa1580156130a1573d6000803e3d6000fd5b505050506040513d601f19601f820116820180604052508101906130c59190614be3565b905060058110156131ce57600654604051636c66623d60e11b81526001600160a01b039091169063d8ccc47a90613100903390600401614ccb565b600060405180830381600087803b15801561311a57600080fd5b505af115801561312e573d6000803e3d6000fd5b50505050600061313c6148bb565b6008546040516340c10f1960e01b81529192506001600160a01b0316906340c10f199061316f9033908590600401614d68565b600060405180830381600087803b15801561318957600080fd5b505af115801561319d573d6000803e3d6000fd5b50506040513392507f5dbffd047c48d57a7d972a24d9fe3ced4753a2b27c6b277fc905b1607ab99afe9150600090a2505b50505050565b6000546001600160a01b031633146131fe5760405162461bcd60e51b815260040161068490615198565b801561329557600554604051632c388d5d60e01b81526001600160a01b0390911690632c388d5d90613234908590600401614ccb565b600060405180830381600087803b15801561324e57600080fd5b505af1158015613262573d6000803e3d6000fd5b50506005546040513393506000805160206154e983398151915292506108209186916001600160a01b0390911690614cdf565b60055460405163256462d760e11b81526001600160a01b0390911690634ac8c5ae906132c5908590600401614ccb565b600060405180830381600087803b1580156132df57600080fd5b505af11580156132f3573d6000803e3d6000fd5b505060055460405133935060008051602061550983398151915292506108be9186916001600160a01b0390911690614cdf565b600054600160a01b900460ff1661334f5760405162461bcd60e51b8152600401610684906152a4565b6008546040516370a0823160e01b815233916000916001600160a01b03909116906370a0823190613384908590600401614ccb565b60206040518083038186803b15801561339c57600080fd5b505afa1580156133b0573d6000803e3d6000fd5b505050506040513d601f19601f820116820180604052508101906133d49190614be3565b9050600081116133f65760405162461bcd60e51b81526004016106849061526d565b600854604051631bb7b02160e11b8152339160009161342d916001600160a01b03169063376f604290610fb0908690600401614ccb565b90506001548110156134515760405162461bcd60e51b815260040161068490614ea1565b60075460405163614c2bd360e11b8152339187916001600160a01b039091169063c29857a6906134879084908690600401614cdf565b60206040518083038186803b15801561349f57600080fd5b505afa1580156134b3573d6000803e3d6000fd5b505050506040513d601f19601f820116820180604052508101906134d791906149fc565b156134f45760405162461bcd60e51b8152600401610684906151c6565b60075460405163775cbd8d60e01b815288916001600160a01b03169063775cbd8d90613524908490600401614ccb565b60206040518083038186803b15801561353c57600080fd5b505afa158015613550573d6000803e3d6000fd5b505050506040513d601f19601f8201168201806040525081019061357491906149fc565b156135915760405162461bcd60e51b815260040161068490614fe7565b6007546008546040516370a0823160e01b81526001600160a01b0392831692636ba155b19233928d92909116906370a08231906135d2908590600401614ccb565b60206040518083038186803b1580156135ea57600080fd5b505afa1580156135fe573d6000803e3d6000fd5b505050506040513d601f19601f820116820180604052508101906136229190614be3565b6040518463ffffffff1660e01b815260040161364093929190614cf9565b600060405180830381600087803b15801561365a57600080fd5b505af115801561366e573d6000803e3d6000fd5b5050600754600092506001600160a01b0316905063f0a5870860018b61369261485a565b6040518463ffffffff1660e01b81526004016136b093929190614dad565b60206040518083038186803b1580156136c857600080fd5b505afa1580156136dc573d6000803e3d6000fd5b505050506040513d601f19601f8201168201806040525081019061370091906149fc565b9050801561384c576007546040516324f5341760e21b81526001600160a01b03909116906393d4d05c90613738908c90600401614ccb565b600060405180830381600087803b15801561375257600080fd5b505af1158015613766573d6000803e3d6000fd5b5050505060006137746148bb565b6008546040516340c10f1960e01b81529192506001600160a01b0316906340c10f19906137a7908d908590600401614d68565b600060405180830381600087803b1580156137c157600080fd5b505af11580156137d5573d6000803e3d6000fd5b50506040516001600160a01b038d1692506001915033907f1b3fee018a3b7e52d087ea8e3f391b759e9e934802971c8f99e51ffdcb27d44490600090a46040516001600160a01b038b16907f5e06803b8b6ec4a58bfd8973f079830b31cbb81e939420c22febecc8acdb3f8d90600090a250613886565b6040516001600160a01b038a169060019033907f1b3fee018a3b7e52d087ea8e3f391b759e9e934802971c8f99e51ffdcb27d44490600090a45b505050505050505050565b6000546001600160a01b031633146138bb5760405162461bcd60e51b815260040161068490615198565b801561395257600754604051632c388d5d60e01b81526001600160a01b0390911690632c388d5d906138f1908590600401614ccb565b600060405180830381600087803b15801561390b57600080fd5b505af115801561391f573d6000803e3d6000fd5b50506007546040513393506000805160206154e983398151915292506108209186916001600160a01b0390911690614cdf565b60075460405163256462d760e11b81526001600160a01b0390911690634ac8c5ae90613982908590600401614ccb565b600060405180830381600087803b15801561399c57600080fd5b505af11580156139b0573d6000803e3d6000fd5b505060075460405133935060008051602061550983398151915292506108be9186916001600160a01b0390911690614cdf565b600054600160a01b900460ff16613a0c5760405162461bcd60e51b8152600401610684906152a4565b60065460405163d81bfa8960e01b815233916001600160a01b03169063d81bfa8990613a3c908490600401614ccb565b60206040518083038186803b158015613a5457600080fd5b505afa158015613a68573d6000803e3d6000fd5b505050506040513d601f19601f82011682018060405250810190613a8c91906149fc565b613aa85760405162461bcd60e51b81526004016106849061502b565b8367ffffffffffffffff168367ffffffffffffffff16834283118015613acd57504282115b8015613ad857508282115b8015613aec5750670de0b6b3a76400008111155b613b085760405162461bcd60e51b81526004016106849061513d565b6003546040516351457a7960e01b81526001600160a01b03909116906351457a7990613b429033908d908d908d908d908d90600401614d1d565b600060405180830381600087803b158015613b5c57600080fd5b505af1158015613b70573d6000803e3d6000fd5b505050506000600360009054906101000a90046001600160a01b03166001600160a01b0316637cae395c6040518163ffffffff1660e01b815260040160206040518083038186803b158015613bc457600080fd5b505afa158015613bd8573d6000803e3d6000fd5b505050506040513d601f19601f82011682018060405250810190613bfc9190614be3565b9050336001600160a01b0316817f67cabf62aee63d11db89c260f398a37186342310f4a0df30da1341719878147a8a8a8e8e8c604051613c409594939291906153a9565b60405180910390a350505050505050505050565b6000546001600160a01b03163314613c7e5760405162461bcd60e51b815260040161068490615198565b600380546001600160a01b03199081166001600160a01b038981169190911790925560048054821688841617815560058054831688851617905560068054831687851617908190556007805484168786161790556008805490931685851617909255604051635a2449a960e01b81529190921691635a2449a991613d0491339101614ccb565b600060405180830381600087803b158015613d1e57600080fd5b505af1158015613d32573d6000803e3d6000fd5b5050600654604051636c66623d60e11b81526001600160a01b03909116925063d8ccc47a9150613d66903390600401614ccb565b600060405180830381600087803b158015613d8057600080fd5b505af1158015613d94573d6000803e3d6000fd5b50506040513392507fcfbd886b9409cf70d4b4a060d1e556397e323b33a7000b106b281cc43b0c26419150600090a260405133907f5dbffd047c48d57a7d972a24d9fe3ced4753a2b27c6b277fc905b1607ab99afe90600090a2505050505050565b6000546001600160a01b03163314613e205760405162461bcd60e51b815260040161068490615198565b600080546001600160a01b0319166001600160a01b0392909216919091179055565b600054600160a01b900460ff16613e6b5760405162461bcd60e51b8152600401610684906152a4565b6008546040516370a0823160e01b815233916000916001600160a01b03909116906370a0823190613ea0908590600401614ccb565b60206040518083038186803b158015613eb857600080fd5b505afa158015613ecc573d6000803e3d6000fd5b505050506040513d601f19601f82011682018060405250810190613ef09190614be3565b905060008111613f125760405162461bcd60e51b81526004016106849061526d565b6005546008546040516370a0823160e01b81526001600160a01b039283169263fb0a33459233928892909116906370a0823190613f53908590600401614ccb565b60206040518083038186803b158015613f6b57600080fd5b505afa158015613f7f573d6000803e3d6000fd5b505050506040513d601f19601f82011682018060405250810190613fa39190614be3565b6040518463ffffffff1660e01b8152600401613fc193929190614d81565b600060405180830381600087803b158015613fdb57600080fd5b505af1158015613fef573d6000803e3d6000fd5b505050506000600560009054906101000a90046001600160a01b03166001600160a01b031663ca5c1b4f6040518163ffffffff1660e01b815260040160206040518083038186803b15801561404357600080fd5b505afa158015614057573d6000803e3d6000fd5b505050506040513d601f19601f8201168201806040525081019061407b9190614be3565b9050336001600160a01b0316817f35f1d4a02bce65638da910c669076031fb59178f55931d6d2f1a8a035e382f99866040516140b79190615340565b60405180910390a3604051339082907f0450a2b5feaa1ee53edb36ef2d8854b1a508547d111e43b5b1ead1b090a5daa290600090a350505050565b600054600160a01b900460ff1661411b5760405162461bcd60e51b8152600401610684906152a4565b6003546040516342fd730160e11b815282916000916001600160a01b03909116906385fae60290614150908590600401615340565b60806040518083038186803b15801561416857600080fd5b505afa15801561417c573d6000803e3d6000fd5b505050506040513d601f19601f820116820180604052508101906141a09190614bfb565b5050600354604051633a4396cb60e01b81529293506000926001600160a01b039091169150633a4396cb906141d9908590600401615340565b60006040518083038186803b1580156141f157600080fd5b505afa158015614205573d6000803e3d6000fd5b505050506040513d6000823e601f3d908101601f1916820160405261422d9190810190614aaf565b50505095505050505050806142545760405162461bcd60e51b81526004016106849061516b565b6003546040516342fd730160e11b815285916000916001600160a01b03909116906385fae60290614289908590600401615340565b60806040518083038186803b1580156142a157600080fd5b505afa1580156142b5573d6000803e3d6000fd5b505050506040513d601f19601f820116820180604052508101906142d99190614bfb565b50925050506001600160a01b03811633146143065760405162461bcd60e51b815260040161068490614f28565b6003546040516342fd730160e11b815287916000916001600160a01b03909116906385fae6029061433b908590600401615340565b60806040518083038186803b15801561435357600080fd5b505afa158015614367573d6000803e3d6000fd5b505050506040513d601f19601f8201168201806040525081019061438b9190614bfb565b935050505080156143ae5760405162461bcd60e51b8152600401610684906150f9565b6003546040516342fd730160e11b815260009182916001600160a01b03909116906385fae602906143e3908d90600401615340565b60806040518083038186803b1580156143fb57600080fd5b505afa15801561440f573d6000803e3d6000fd5b505050506040513d601f19601f820116820180604052508101906144339190614bfb565b5050600354604051633a4396cb60e01b81529294509092506000916001600160a01b0390911690633a4396cb9061446e908690600401615340565b60006040518083038186803b15801561448657600080fd5b505afa15801561449a573d6000803e3d6000fd5b505050506040513d6000823e601f3d908101601f191682016040526144c29190810190614aaf565b50509650505050505050600360009054906101000a90046001600160a01b03166001600160a01b03166326b517468c6040518263ffffffff1660e01b815260040161450d9190615340565b600060405180830381600087803b15801561452757600080fd5b505af115801561453b573d6000803e3d6000fd5b505060035460408051631a9160d760e31b815290516001600160a01b039092169350630b33771592506145d0918691859163d48b06b891600480820192602092909190829003018186803b15801561459257600080fd5b505afa1580156145a6573d6000803e3d6000fd5b505050506040513d601f19601f820116820180604052508101906145ca9190614be3565b906146b8565b6040518263ffffffff1660e01b81526004016145ec9190615340565b600060405180830381600087803b15801561460657600080fd5b505af115801561461a573d6000803e3d6000fd5b50505050336001600160a01b03166108fc614634846146d7565b6040518115909202916000818181858888f1935050505015801561465c573d6000803e3d6000fd5b5082816001600160a01b0316336001600160a01b03167f8bcc9e02955c4d671e14fe3bd5031c47f36b1591d090a4c7df99aa82d830d783858f6040516146a3929190615385565b60405180910390a45050505050505050505050565b60006146c48284615440565b9392505050565b60006146c482846153e9565b600480546040805163fde0c46360e01b8152905160009384936001600160a01b03169263fde0c4639281830192602092829003018186803b15801561471b57600080fd5b505afa15801561472f573d6000803e3d6000fd5b505050506040513d601f19601f820116820180604052508101906147539190614be3565b9050614764606461195585846148de565b9150505b919050565b60035460408051631a9160d760e31b815290516000926001600160a01b03169163d48b06b8916004808301926020929190829003018186803b1580156147b257600080fd5b505afa1580156147c6573d6000803e3d6000fd5b505050506040513d601f19601f820116820180604052508101906147ea9190614be3565b6003549091506001600160a01b0316630b33771561480883856146cb565b6040518263ffffffff1660e01b81526004016148249190615340565b600060405180830381600087803b15801561483e57600080fd5b505af1158015614852573d6000803e3d6000fd5b505050505050565b60006105da6002600860009054906101000a90046001600160a01b03166001600160a01b03166318160ddd6040518163ffffffff1660e01b815260040160206040518083038186803b15801561191d57600080fd5b60006146c48284615401565b600190565b60008054911515600160a01b0260ff60a01b19909216919091179055565b60006146c48284615421565b8051614768816154af565b8051614768816154c4565b8051614768816154d2565b60006020828403121561491c578081fd5b81356146c4816154af565b60008060008060008060c0878903121561493f578182fd5b863561494a816154af565b9550602087013561495a816154af565b9450604087013561496a816154af565b9350606087013561497a816154af565b9250608087013561498a816154af565b915060a087013561499a816154af565b809150509295509295509295565b600080604083850312156149ba578182fd5b82356149c5816154af565b915060208301356149d5816154c4565b809150509250929050565b6000602082840312156149f1578081fd5b81356146c4816154c4565b600060208284031215614a0d578081fd5b81516146c4816154c4565b600080600080600060808688031215614a2f578081fd5b853567ffffffffffffffff80821115614a46578283fd5b818801915088601f830112614a59578283fd5b813581811115614a67578384fd5b896020828501011115614a78578384fd5b60209283019750955050860135614a8e816154d2565b92506040860135614a9e816154d2565b949793965091946060013592915050565b60008060008060008060008060006101208a8c031215614acd578283fd5b895167ffffffffffffffff80821115614ae4578485fd5b818c0191508c601f830112614af7578485fd5b815181811115614b0957614b09615499565b604051601f8201601f191681016020018381118282101715614b2d57614b2d615499565b6040528181528382016020018f1015614b44578687fd5b614b55826020830160208701615457565b9b50614b679250505060208b01614900565b9750614b7560408b01614900565b9650614b8360608b01614900565b9550614b9160808b01614900565b9450614b9f60a08b016148f5565b9350614bad60c08b016148ea565b925060e08a015191506101008a015190509295985092959850929598565b600060208284031215614bdc578081fd5b5035919050565b600060208284031215614bf4578081fd5b5051919050565b60008060008060808587031215614c10578384fd5b84519350602085015192506040850151614c29816154af565b6060860151909250614c3a816154c4565b939692955090935050565b600080600060608486031215614c59578081fd5b8351925060208401519150604084015190509250925092565b60008284528282602086013780602084860101526020601f19601f85011685010190509392505050565b60008151808452614cb4816020860160208601615457565b601f01601f19169290920160200192915050565b90565b6001600160a01b0391909116815260200190565b6001600160a01b0392831681529116602082015260400190565b6001600160a01b039384168152919092166020820152604081019190915260600190565b6001600160a01b038716815260a060208201819052600090614d429083018789614c72565b67ffffffffffffffff958616604084015293909416606082015260800152949350505050565b6001600160a01b03929092168252602082015260400190565b6001600160a01b039390931683526020830191909152604082015260600190565b901515815260200190565b92151583526001600160a01b03919091166020830152604082015260600190565b600060a08252614de160a0830188614c9c565b67ffffffffffffffff96871660208401529490951660408201526001600160a01b0392909216606083015260809091015292915050565b600060c08252614e2b60c0830189614c9c565b67ffffffffffffffff978816602084015295909616604082015292151560608401526001600160a01b0391909116608083015260a09091015292915050565b6020808252601e908201527f696e636f7272656374206665652073656e7420746f20636f6e74726163740000604082015260600190565b60208082526022908201527f63616c6c6572206d75737420626520616e206f6c6420746f6b656e20686f6c6460408201526132b960f11b606082015260800190565b60208082526025908201527f73656e742076616c756520646f6573206e6f74206d6174636820666c69676874604082015264207261746560d81b606082015260800190565b6020808252601e908201527f63616c6c6572206d75737420626520696e737572616e6365206f776e65720000604082015260600190565b60208082526021908201527f63616c6c6572206d75737420626520696e737572616e63652070726f766964656040820152603960f91b606082015260800190565b60208082526027908201527f696e737572616e63652070726f766964657220697320616c72656164792061636040820152661d1a5d985d195960ca1b606082015260800190565b60208082526024908201527f6f7261636c652070726f766964657220697320616c7265616479206163746976604082015263185d195960e21b606082015260800190565b6020808252602b908201527f63616c6c6572206d7573742062652061637469766174656420696e737572616e60408201526a31b290383937bb34b232b960a91b606082015260800190565b6020808252601f908201527f666c6967687420646570617274757265206d7573742062652066757475726500604082015260600190565b6020808252602c908201527f63757272656e742066756e6473206d75737420636f766572206e657720696e7360408201526b7572616e63652076616c756560a01b606082015260800190565b60208082526024908201527f696e737572616e6365206d757374206e6f742068617665206265656e20636c616040820152631a5b595960e21b606082015260800190565b602080825260149082015273199b1a59da1d081b5d5cdd081899481d985b1a5960621b604082015260600190565b602080825260139082015272666c69676874206d757374206265206c61746560681b604082015260600190565b60208082526014908201527331b0b63632b91036bab9ba1031329037bbb732b960611b604082015260600190565b60208082526018908201527f63616c6c65722068617320616c726561647920766f7465640000000000000000604082015260600190565b60208082526027908201527f63616c6c6572206973206e6f7420616374697661746564206f7261636c6520706040820152663937bb34b232b960c91b606082015260800190565b6020808252600f908201526e1d1c985b9cd9995c8819985a5b1959608a1b604082015260600190565b6020808252601b908201527f63616c6c6572206d75737420626520746f6b656e20686f6c6465720000000000604082015260600190565b6020808252601d908201527f636f6e7472616374206d757374206265206f7065726174696f6e6e616c000000604082015260600190565b6020808252601490820152731c1c9bdc1bdcd85b08185b1c9958591e481cd95d60621b604082015260600190565b6020808252601b908201527f766f74696e672070726f706f73616c2068617320657870697265640000000000604082015260600190565b90815260200190565b9384526001600160a01b0392909216602084015215156040830152606082015260800190565b9283529015156020830152604082015260600190565b918252602082015260400190565b9283526020830191909152604082015260600190565b600067ffffffffffffffff8088168352808716602084015250608060408301526153d7608083018587614c72565b90508260608301529695505050505050565b600082198211156153fc576153fc615483565b500190565b60008261541c57634e487b7160e01b81526012600452602481fd5b500490565b600081600019048311821515161561543b5761543b615483565b500290565b60008282101561545257615452615483565b500390565b60005b8381101561547257818101518382015260200161545a565b838111156131ce5750506000910152565b634e487b7160e01b600052601160045260246000fd5b634e487b7160e01b600052604160045260246000fd5b6001600160a01b0381168114612d8257600080fd5b8015158114612d8257600080fd5b67ffffffffffffffff81168114612d8257600080fdfe49162bd91fa9e98bc15e1a54c488b20acf9a442cfd08a398bbdd552db92e98e7eefee6ee18d218075d0332898b2f8dbd4d9d18666bb47b86fd5bb8ddf7b188c0a2646970667358221220db440834fda262ce8333b218e8cd3f250a47aca387772017043b31b9dc71985a64736f6c63430008000033",
  "immutableReferences": {},
  "source": "// SPDX-License-Identifier: UNLICENSED\npragma solidity ^0.8.00;\n\nimport \"./interfaces/IFlightSuretyData.sol\";\nimport \"./interfaces/IInsuranceCoverageAmendmentProposal.sol\";\nimport \"./interfaces/IMembershipFeeAmendmentProposal.sol\";\nimport \"./interfaces/IInsuranceProviderRole.sol\";\nimport \"./interfaces/IOracleProviderRole.sol\";\nimport \"./interfaces/IFlightSuretyOracle.sol\";\nimport \"./interfaces/IFlightSuretyShares.sol\";\nimport \"../Ownable/Ownable.sol\";\nimport \"../Pausable/Pausable.sol\";\nimport \"@openzeppelin/contracts/utils/math/SafeMath.sol\";\n\ncontract FlightSuretyApp is Ownable, Pausable {\n    using SafeMath for uint256;\n    // insurance providers related events\n    event RegisteredInsuranceProvider(address indexed insuranceProvider);\n    event ActivatedInsuranceProvider(address indexed insuranceProvider);\n    event RemovedInsuranceProvider(address indexed insuranceProvider);\n    event NewVoteInsuranceProvider(\n        address indexed voter,\n        bool indexed side,\n        address indexed votee\n    );\n\n    // oracle providers related events\n    event RegisteredOracleProvider(address indexed oracleProvider);\n    event ActivatedOracleProvider(address indexed oracleProvider);\n    event RemovedOracleProvider(address indexed oracleProvider);\n    event NewVoteOracleProvider(\n        address indexed voter,\n        bool indexed side,\n        address indexed votee\n    );\n\n    // flights related events\n    event NewFlight(\n        uint256 indexed flightID,\n        address indexed insuranceProvider,\n        uint256 estimatedDeparture,\n        uint256 estimatedArrival,\n        string flightRef,\n        uint256 rate\n    );\n\n    // insurances related events\n    event NewInsurance(\n        address indexed passenger,\n        address indexed insuranceProvider,\n        uint256 indexed insuranceID,\n        uint256 flightID,\n        uint256 insuredValue\n    );\n\n    event NewPayout(\n        address indexed owner,\n        address indexed insuranceProvider,\n        uint256 indexed flightID,\n        uint256 insuredValue,\n        uint256 insuranceID\n    );\n\n    // settings amendment proposal related events\n    event NewMembershipFeeAmendmentProposal(\n        uint256 indexed proposalID,\n        address indexed caller,\n        uint256 proposedMembershipFee\n    );\n    event NewVoteMembershipFeeAmendmentProposal(\n        uint256 indexed proposalID,\n        address indexed voter\n    );\n    event ActivatedMembershipFeeAmendmentProposal(\n        uint256 indexed proposalID,\n        uint256 lockedMembershipFee\n    );\n    event NewInsuranceCoverageAmendmentProposal(\n        uint256 indexed proposalID,\n        address indexed caller,\n        uint256 insuranceCoverage\n    );\n    event ActivatedInsuranceCoverageAmendmentProposal(\n        uint256 indexed proposalID,\n        uint256 insuranceCoverage\n    );\n    event NewVoteInsuranceCoverageAmendmentProposal(\n        uint256 indexed proposalID,\n        address indexed voter\n    );\n\n    // authorize caller related events\n    event AuthorizedCaller(\n        address indexed contractOwner,\n        address caller,\n        address contractAddress\n    );\n    event UnauthorizedCaller(\n        address indexed contractOwner,\n        address caller,\n        address contractAddress\n    );\n\n    // public contract settings to set constraint to user vote in general\n    uint256 public tokenHolderMinBlockRequirement;\n    // public contract setting to set constraint on user proposal vote\n    uint256 public proposalValidBlockNum;\n\n    IFlightSuretyData flightSuretyData;\n    IInsuranceCoverageAmendmentProposal insuranceCoverageAmendmentProposal;\n    IMembershipFeeAmendmentProposal membershipFeeAmendmentProposal;\n    IInsuranceProviderRole insuranceProviderRole;\n    IOracleProviderRole oracleProviderRole;\n    IFlightSuretyShares flightSuretyShares;\n\n    // settings amendment proposals related checks\n\n    modifier requireTokenHolderHasNotVotedInsuranceCoverageAmendmentProposal(\n        address _caller,\n        uint256 _proposalID\n    ) {\n        require(\n            !insuranceCoverageAmendmentProposal\n                .hasVotedInsuranceCoverageAmendmentProposal(\n                    _caller,\n                    _proposalID\n                ),\n            \"caller has already voted\"\n        );\n        _;\n    }\n\n    modifier requireTokenHolderHasNotVotedMembershipFeeAmendmentProposal(\n        address _caller,\n        uint256 _proposalID\n    ) {\n        require(\n            !membershipFeeAmendmentProposal\n                .hasVotedMembershipFeeAmendmentProposal(_caller, _proposalID),\n            \"caller has already voted\"\n        );\n        _;\n    }\n\n    modifier requireMembershipFeeProposalIsActive(uint256 proposalID) {\n        uint256 elapsedBlock = block.number.sub(\n            membershipFeeAmendmentProposal.getProposalCreatedAt(proposalID)\n        );\n        require(\n            elapsedBlock <= proposalValidBlockNum,\n            \"voting proposal has expired\"\n        );\n        _;\n    }\n\n    modifier requireMembershipFeeHasNotBeenSet(uint256 proposalID) {\n        bool check = membershipFeeAmendmentProposal\n            .isMembershipFeeAmendmentProposalSet(proposalID);\n        require(!check, \"proposal already set\");\n        _;\n    }\n\n    modifier requireInsuranceCoverageProposalHasNotBeenSet(uint256 proposalID) {\n        bool check = insuranceCoverageAmendmentProposal\n            .isInsuranceCoverageAmendmentProposalSet(proposalID);\n        require(!check, \"proposal already set\");\n        _;\n    }\n\n    modifier requireInsuranceCoverageProposalIsActive(uint256 proposalID) {\n        uint256 elapsedBlock = block.number.sub(\n            insuranceCoverageAmendmentProposal.getProposalCreatedAt(proposalID)\n        );\n        require(\n            elapsedBlock <= proposalValidBlockNum,\n            \"voting proposal has expired\"\n        );\n        _;\n    }\n\n    // flights related checks\n\n    modifier requireValidFlight(\n        uint256 estimatedDeparture,\n        uint256 estimatedArrival,\n        uint256 rate\n    ) {\n        require(\n            estimatedDeparture > block.timestamp &&\n                estimatedArrival > block.timestamp &&\n                estimatedArrival > estimatedDeparture &&\n                rate <= 1 ether,\n            \"flight must be valid\"\n        );\n        _;\n    }\n\n    // insurances related checks\n\n    modifier requireMessageValueGreatherOrEqualToFlightRate(uint256 _flightID) {\n        (, , , , , , , , uint256 rate) = flightSuretyData.getFlight(_flightID);\n        require(msg.value >= rate, \"sent value does not match flight rate\");\n        uint256 amountDue = rate.sub(msg.value);\n        _;\n        payable(msg.sender).transfer(amountDue);\n    }\n\n    modifier requireFutureFlight(uint256 _flightID) {\n        (, uint64 estimatedDeparture, , , , , , , ) = flightSuretyData\n            .getFlight(_flightID);\n        require(\n            estimatedDeparture > block.timestamp,\n            \"flight departure must be future\"\n        );\n        _;\n    }\n\n    modifier requireFlightIsLate(uint256 _insuranceID) {\n        (uint256 flightID, , , ) = flightSuretyData.getInsurance(_insuranceID);\n        (, , , , , bool isLate, , , ) = flightSuretyData.getFlight(flightID);\n        require(isLate, \"flight must be late\");\n        _;\n    }\n\n    modifier requireInsuranceIsNotClaimed(uint256 _insuranceID) {\n        (, , , bool claimed) = flightSuretyData.getInsurance(_insuranceID);\n        require(!claimed, \"insurance must not have been claimed\");\n        _;\n    }\n    modifier onlyInsuranceOwner(uint256 _insuranceID) {\n        (, , address owner, ) = flightSuretyData.getInsurance(_insuranceID);\n        require(msg.sender == owner, \"caller must be insurance owner\");\n        _;\n    }\n\n    modifier requireTotalInsuredValueCoverage(uint256 newInsuranceValue) {\n        uint256 newTotalInsuredValue = flightSuretyData\n            .getTotalInsuredValue()\n            .add(newInsuranceValue);\n        uint256 totalFundsWithCoverage = _calculateInsuredValueBenefits(\n            newTotalInsuredValue\n        );\n        require(\n            totalFundsWithCoverage <= address(this).balance,\n            \"current funds must cover new insurance value\"\n        );\n        _;\n    }\n\n    // membership fee checks\n\n    modifier requireMembershipFee() {\n        uint256 _currentMembershipFee = membershipFeeAmendmentProposal\n            .getCurrentMembershipFee();\n        require(\n            msg.value >= _currentMembershipFee,\n            \"incorrect fee sent to contract\"\n        );\n\n        if (msg.value > _currentMembershipFee) {\n            uint256 _amountDue = msg.value.sub(_currentMembershipFee);\n            (bool success, ) = payable(msg.sender).call{value: _amountDue}(\"\");\n            require(success, \"transfer failed\");\n        }\n        _;\n    }\n\n    // common roles checks\n\n    modifier onlyActivatedProvider(address _caller) {\n        require(\n            insuranceProviderRole.isActivatedInsuranceProvider(_caller) ||\n                oracleProviderRole.isActivatedOracleProvider(_caller),\n            \"caller must be activated provider\"\n        );\n        _;\n    }\n\n    modifier onlyTokenHolder(address _caller) {\n        uint256 callerBalance = flightSuretyShares.balanceOf(_caller);\n        require(callerBalance > 0, \"caller must be token holder\");\n        _;\n    }\n\n    modifier requireTokenHolderIsOldEnough(address _caller) {\n        uint256 blockElapsed = block.number.sub(\n            flightSuretyShares.ownershipBlockNum(_caller)\n        );\n        require(\n            blockElapsed >= tokenHolderMinBlockRequirement,\n            \"caller must be an old token holder\"\n        );\n        _;\n    }\n\n    // insurance providers checks\n\n    modifier onlyRegisteredInsuranceProvider(address _caller) {\n        require(\n            insuranceProviderRole.isRegisteredInsuranceProvider(_caller),\n            \"caller must be insurance provider\"\n        );\n        _;\n    }\n\n    modifier onlyActivatedInsuranceProvider(address _caller) {\n        require(\n            insuranceProviderRole.isActivatedInsuranceProvider(_caller),\n            \"caller must be activated insurance provider\"\n        );\n        _;\n    }\n\n    modifier requireUnactivatedInsuranceProvider(address _caller) {\n        require(\n            !insuranceProviderRole.isActivatedInsuranceProvider(_caller),\n            \"insurance provider is already activated\"\n        );\n        _;\n    }\n\n    modifier requireTokenHolderHasNotVotedInsuranceProviderMembership(\n        address _caller,\n        address _account\n    ) {\n        require(\n            !insuranceProviderRole.hasVotedInsuranceProviderMembership(\n                _account,\n                _caller\n            ),\n            \"caller has already voted\"\n        );\n        _;\n    }\n\n    // oracle providers checks\n\n    modifier onlyRegisteredOracleProvider(address _caller) {\n        require(\n            oracleProviderRole.isRegisteredOracleProvider(_caller),\n            \"caller must be oracle provider\"\n        );\n        _;\n    }\n\n    modifier onlyActivatedOracleProvider(address _caller) {\n        require(\n            oracleProviderRole.isActivatedOracleProvider(_caller),\n            \"caller is not activated oracle provider\"\n        );\n        _;\n    }\n\n    modifier requireUnactivatedOracleProvider(address _caller) {\n        require(\n            !oracleProviderRole.isActivatedOracleProvider(_caller),\n            \"oracle provider is already activated\"\n        );\n        _;\n    }\n\n    modifier requireTokenHolderHasNotVotedOracleProviderMembership(\n        address _caller,\n        address _account\n    ) {\n        require(\n            !oracleProviderRole.hasVotedOracleProviderMembership(\n                _account,\n                _caller\n            ),\n            \"caller has already voted\"\n        );\n        _;\n    }\n\n    constructor(\n        uint256 _tokenHolderMinBlockRequirement,\n        uint256 _proposalValidBlockNum\n    ) Ownable() Pausable() {\n        // public contract settings to set constraint to user vote in general\n        tokenHolderMinBlockRequirement = _tokenHolderMinBlockRequirement;\n        // public contract setting to set constraint on user proposal vote\n        proposalValidBlockNum = _proposalValidBlockNum;\n    }\n\n    // initialize external contracts addresses\n    function initialize(\n        address _flightSuretyData,\n        address _insuranceCoverageAmendmentProposal,\n        address _membershipFeeAmendmentProposal,\n        address _insuranceProviderRole,\n        address _oracleProviderRole,\n        address _flightSuretyShares\n    ) external onlyOwner {\n        // registering external contracts address\n        flightSuretyData = IFlightSuretyData(_flightSuretyData);\n        insuranceCoverageAmendmentProposal = IInsuranceCoverageAmendmentProposal(\n            _insuranceCoverageAmendmentProposal\n        );\n        membershipFeeAmendmentProposal = IMembershipFeeAmendmentProposal(\n            _membershipFeeAmendmentProposal\n        );\n        insuranceProviderRole = IInsuranceProviderRole(_insuranceProviderRole);\n        oracleProviderRole = IOracleProviderRole(_oracleProviderRole);\n        flightSuretyShares = IFlightSuretyShares(_flightSuretyShares);\n        // make the contract owner a registered insurance provider\n        insuranceProviderRole.addInsuranceProvider(msg.sender);\n        // make the contract owner an activated insurance provider\n        insuranceProviderRole.activateInsuranceProvider(msg.sender);\n        emit RegisteredInsuranceProvider(msg.sender);\n        emit ActivatedInsuranceProvider(msg.sender);\n    }\n\n    /* operationnal status */\n\n    function setOperationnal(bool _operationnal) external onlyOwner {\n        _setOperationnal(_operationnal);\n    }\n\n    /* external contracts calls management */\n\n    function updateAuthorizedCallerFlightSuretyData(\n        address _authorizedCaller,\n        bool _access\n    ) external onlyOwner {\n        if (_access) {\n            flightSuretyData.authorizeCaller(_authorizedCaller);\n            emit AuthorizedCaller(\n                msg.sender,\n                _authorizedCaller,\n                address(flightSuretyData)\n            );\n        } else {\n            flightSuretyData.unauthorizeCaller(_authorizedCaller);\n            emit UnauthorizedCaller(\n                msg.sender,\n                _authorizedCaller,\n                address(flightSuretyData)\n            );\n        }\n    }\n\n    function updateAuthorizedCallerInsuranceCoverageAmendmentProposal(\n        address _authorizedCaller,\n        bool _access\n    ) external onlyOwner {\n        if (_access) {\n            insuranceCoverageAmendmentProposal.authorizeCaller(\n                _authorizedCaller\n            );\n            emit AuthorizedCaller(\n                msg.sender,\n                _authorizedCaller,\n                address(insuranceCoverageAmendmentProposal)\n            );\n        } else {\n            insuranceCoverageAmendmentProposal.unauthorizeCaller(\n                _authorizedCaller\n            );\n            emit UnauthorizedCaller(\n                msg.sender,\n                _authorizedCaller,\n                address(insuranceCoverageAmendmentProposal)\n            );\n        }\n    }\n\n    function updateAuthorizedCallerMembershipFeeAmendmentProposal(\n        address _authorizedCaller,\n        bool _access\n    ) external onlyOwner {\n        if (_access) {\n            membershipFeeAmendmentProposal.authorizeCaller(_authorizedCaller);\n            emit AuthorizedCaller(\n                msg.sender,\n                _authorizedCaller,\n                address(membershipFeeAmendmentProposal)\n            );\n        } else {\n            membershipFeeAmendmentProposal.unauthorizeCaller(_authorizedCaller);\n            emit UnauthorizedCaller(\n                msg.sender,\n                _authorizedCaller,\n                address(membershipFeeAmendmentProposal)\n            );\n        }\n    }\n\n    function updateAuthorizedCallerInsuranceProviderRole(\n        address _authorizedCaller,\n        bool _access\n    ) external onlyOwner {\n        if (_access) {\n            insuranceProviderRole.authorizeCaller(_authorizedCaller);\n            emit AuthorizedCaller(\n                msg.sender,\n                _authorizedCaller,\n                address(insuranceProviderRole)\n            );\n        } else {\n            insuranceProviderRole.unauthorizeCaller(_authorizedCaller);\n            emit UnauthorizedCaller(\n                msg.sender,\n                _authorizedCaller,\n                address(insuranceProviderRole)\n            );\n        }\n    }\n\n    function updateAuthorizedCallerOracleProviderRole(\n        address _authorizedCaller,\n        bool _access\n    ) external onlyOwner {\n        if (_access) {\n            oracleProviderRole.authorizeCaller(_authorizedCaller);\n            emit AuthorizedCaller(\n                msg.sender,\n                _authorizedCaller,\n                address(oracleProviderRole)\n            );\n        } else {\n            oracleProviderRole.unauthorizeCaller(_authorizedCaller);\n            emit UnauthorizedCaller(\n                msg.sender,\n                _authorizedCaller,\n                address(oracleProviderRole)\n            );\n        }\n    }\n\n    function updateAuthorizedCallerFlighSuretyShares(\n        address _authorizedCaller,\n        bool _access\n    ) external onlyOwner {\n        if (_access) {\n            flightSuretyShares.authorizeCaller(_authorizedCaller);\n            emit AuthorizedCaller(\n                msg.sender,\n                _authorizedCaller,\n                address(flightSuretyShares)\n            );\n        } else {\n            flightSuretyShares.unauthorizeCaller(_authorizedCaller);\n            emit UnauthorizedCaller(\n                msg.sender,\n                _authorizedCaller,\n                address(flightSuretyShares)\n            );\n        }\n    }\n\n    /* providers registrations */\n\n    // insurance providers\n\n    function registerInsuranceProvider(address account)\n        external\n        onlyOperational\n        onlyActivatedInsuranceProvider(msg.sender)\n    {\n        insuranceProviderRole.addInsuranceProvider(account);\n        emit RegisteredInsuranceProvider(account);\n    }\n\n    // fund an insurance provider aka airline\n    function fundInsuranceProvider()\n        external\n        payable\n        onlyRegisteredInsuranceProvider(msg.sender)\n        requireMembershipFee\n    {\n        uint256 _currentMembershipFee = membershipFeeAmendmentProposal\n            .getCurrentMembershipFee();\n        insuranceProviderRole.fundInsuranceProvider(\n            msg.sender,\n            _currentMembershipFee\n        );\n        uint256 activatedAccountCount = insuranceProviderRole\n            .getActivatedInsuranceProvidersCount();\n        if (activatedAccountCount < 5) {\n            insuranceProviderRole.activateInsuranceProvider(msg.sender);\n            uint256 sharesToMint = _calculateSharesToMint();\n            flightSuretyShares.mint(msg.sender, sharesToMint);\n            emit ActivatedInsuranceProvider(msg.sender);\n        }\n    }\n\n    // oracle providers\n\n    function registerOracleProvider()\n        external\n        payable\n        onlyOperational\n        requireMembershipFee\n    {\n        oracleProviderRole.addOracleProvider(msg.sender);\n        uint256 activatedOracleProviderCount = oracleProviderRole\n            .getActivatedOracleProvidersCount();\n        if (activatedOracleProviderCount < 5) {\n            oracleProviderRole.activateOracleProvider(msg.sender);\n            uint256 sharesToMint = _calculateSharesToMint();\n            flightSuretyShares.mint(msg.sender, sharesToMint);\n            emit RegisteredOracleProvider(msg.sender);\n            emit ActivatedOracleProvider(msg.sender);\n        } else {\n            emit RegisteredOracleProvider(msg.sender);\n        }\n    }\n\n    /* votes providers */\n\n    // insurance providers\n\n    function voteInsuranceProviderMembership(address _account)\n        external\n        onlyOperational\n        onlyActivatedInsuranceProvider(msg.sender)\n        onlyTokenHolder(msg.sender)\n        requireTokenHolderIsOldEnough(msg.sender)\n        requireTokenHolderHasNotVotedInsuranceProviderMembership(\n            msg.sender,\n            _account\n        )\n        requireUnactivatedInsuranceProvider(_account)\n    {\n        insuranceProviderRole.voteInsuranceProviderMembership(\n            msg.sender,\n            _account,\n            flightSuretyShares.balanceOf(msg.sender)\n        );\n        bool consensusCheck = insuranceProviderRole\n            .hasReachedConsensusInsuranceProviderMembership(\n                true,\n                _account,\n                insuranceProviderRole.getActivatedInsuranceProvidersCount().div(\n                    2\n                )\n            );\n        if (consensusCheck) {\n            insuranceProviderRole.activateInsuranceProvider(_account);\n            uint256 sharesToMint = _calculateSharesToMint();\n            flightSuretyShares.mint(_account, sharesToMint);\n            emit NewVoteInsuranceProvider(msg.sender, true, _account);\n            emit ActivatedInsuranceProvider(_account);\n        } else {\n            emit NewVoteInsuranceProvider(msg.sender, true, _account);\n        }\n    }\n\n    // oracle providers\n\n    function voteOracleProviderMembership(address _account)\n        external\n        onlyOperational\n        onlyTokenHolder(msg.sender)\n        requireTokenHolderIsOldEnough(msg.sender)\n        requireTokenHolderHasNotVotedOracleProviderMembership(\n            msg.sender,\n            _account\n        )\n        requireUnactivatedOracleProvider(_account)\n    {\n        oracleProviderRole.voteOracleProviderMembership(\n            msg.sender,\n            _account,\n            flightSuretyShares.balanceOf(msg.sender)\n        );\n        bool consensusCheck = oracleProviderRole\n            .hasReachedConsensusOracleProviderMembership(\n                true,\n                _account,\n                _calculateProvidersConsensusTreshold()\n            );\n        if (consensusCheck) {\n            oracleProviderRole.activateOracleProvider(_account);\n            uint256 sharesToMint = _calculateSharesToMint();\n            flightSuretyShares.mint(_account, sharesToMint);\n            emit NewVoteOracleProvider(msg.sender, true, _account);\n            emit ActivatedOracleProvider(_account);\n        } else {\n            emit NewVoteOracleProvider(msg.sender, true, _account);\n        }\n    }\n\n    /* flights management */\n\n    function registerFlight(\n        string calldata _flightRef,\n        uint64 _estimatedDeparture,\n        uint64 _estimatedArrival,\n        uint256 _rate\n    )\n        external\n        onlyOperational\n        onlyActivatedInsuranceProvider(msg.sender)\n        requireValidFlight(_estimatedDeparture, _estimatedArrival, _rate)\n    {\n        flightSuretyData.registerFlight(\n            msg.sender,\n            _flightRef,\n            _estimatedDeparture,\n            _estimatedArrival,\n            _rate\n        );\n        uint256 flightID = flightSuretyData.getCurrentFlightID();\n        emit NewFlight(\n            flightID,\n            msg.sender,\n            _estimatedDeparture,\n            _estimatedArrival,\n            _flightRef,\n            _rate\n        );\n    }\n\n    function getFlightInitialData(uint256 _flightID)\n        external\n        view\n        returns (\n            string memory flightRef,\n            uint64 estimatedDeparture,\n            uint64 estimatedArrival,\n            address insuranceProvider,\n            uint256 rate\n        )\n    {\n        (\n            flightRef,\n            estimatedDeparture,\n            estimatedArrival,\n            ,\n            ,\n            ,\n            insuranceProvider,\n            ,\n            rate\n        ) = flightSuretyData.getFlight(_flightID);\n        return (\n            flightRef,\n            estimatedDeparture,\n            estimatedArrival,\n            insuranceProvider,\n            rate\n        );\n    }\n\n    function getFlightSettlementData(uint256 _flightID)\n        external\n        view\n        returns (\n            string memory flightRef,\n            uint64 realDeparture,\n            uint64 realArrival,\n            bool isLate,\n            address insuranceProvider,\n            uint256 insuredValue\n        )\n    {\n        (\n            flightRef,\n            ,\n            ,\n            realDeparture,\n            realArrival,\n            isLate,\n            insuranceProvider,\n            insuredValue,\n\n        ) = flightSuretyData.getFlight(_flightID);\n        return (\n            flightRef,\n            realDeparture,\n            realArrival,\n            isLate,\n            insuranceProvider,\n            insuredValue\n        );\n    }\n\n    /* insurances management */\n\n    function registerInsurance(uint256 _flightID)\n        external\n        payable\n        onlyOperational\n        requireFutureFlight(_flightID)\n        requireMessageValueGreatherOrEqualToFlightRate(_flightID)\n        requireTotalInsuredValueCoverage(msg.value)\n    {\n        // fetch flight rate\n        (\n            ,\n            ,\n            ,\n            ,\n            ,\n            ,\n            address insuranceProvider,\n            ,\n            uint256 rate\n        ) = flightSuretyData.getFlight(_flightID);\n        // create insurance for the caller\n        flightSuretyData.insure(msg.sender, _flightID, rate);\n        // update total insured value  (locking up funds to be sure to be able to cover all funds locked up in contract)\n        _incrementTotalInsuredValue(rate);\n        uint256 insuranceID = flightSuretyData.getCurrentInsuranceID();\n        emit NewInsurance(\n            msg.sender,\n            insuranceProvider,\n            insuranceID,\n            _flightID,\n            rate\n        );\n    }\n\n    function claimInsurance(uint256 _insuranceID)\n        external\n        payable\n        onlyOperational\n        requireFlightIsLate(_insuranceID)\n        onlyInsuranceOwner(_insuranceID)\n        requireInsuranceIsNotClaimed(_insuranceID)\n    {\n        // fetch the insurance insured value\n        (uint256 flightID, uint256 insuredValue, , ) = flightSuretyData\n            .getInsurance(_insuranceID);\n        // fetch the flight data\n        (, , , , , , address insuranceProvider, , ) = flightSuretyData\n            .getFlight(flightID);\n        // update insurance to claimed\n        flightSuretyData.setInsuranceToClaimed(_insuranceID);\n        // update total insured value as funds are about to be sent (unlocking funds to take new insurance contracts)\n        flightSuretyData.setTotalInsuredValue(\n            flightSuretyData.getTotalInsuredValue().sub(insuredValue)\n        );\n        // calculate the amount to transfer according to the insurance coverage policy\n        payable(msg.sender).transfer(\n            _calculateInsuredValueBenefits(insuredValue)\n        );\n        emit NewPayout(\n            msg.sender,\n            insuranceProvider,\n            flightID,\n            insuredValue,\n            _insuranceID\n        );\n    }\n\n    /* Settings amendment proposals*/\n\n    // fetch the current membership fee\n    function currentMembershipFee() external view returns (uint256) {\n        return membershipFeeAmendmentProposal.getCurrentMembershipFee();\n    }\n\n    // fetch the current insurance coverage ratio\n    function currentInsuranceCoverageRatio() external view returns (uint256) {\n        return insuranceCoverageAmendmentProposal.getCurrentInsuranceCoverage();\n    }\n\n    // membership fee amendment proposals\n\n    function registerMembershipFeeAmendmentProposal(uint256 _proposedValue)\n        external\n        onlyOperational\n        onlyTokenHolder(msg.sender)\n    {\n        membershipFeeAmendmentProposal.registerMembershipFeeAmendmentProposal(\n            msg.sender,\n            _proposedValue,\n            flightSuretyShares.balanceOf(msg.sender)\n        );\n        uint256 _proposalID = membershipFeeAmendmentProposal\n            .getMembershipFeeAmendmentProposalCurrentProposalID();\n        emit NewMembershipFeeAmendmentProposal(\n            _proposalID,\n            msg.sender,\n            _proposedValue\n        );\n        emit NewVoteMembershipFeeAmendmentProposal(_proposalID, msg.sender);\n    }\n\n    function voteMembershipFeeAmendmentProposal(uint256 _proposalID)\n        external\n        onlyOperational\n        onlyTokenHolder(msg.sender)\n        requireTokenHolderIsOldEnough(msg.sender)\n        requireTokenHolderHasNotVotedMembershipFeeAmendmentProposal(\n            msg.sender,\n            _proposalID\n        )\n        requireMembershipFeeHasNotBeenSet(_proposalID)\n        requireMembershipFeeProposalIsActive(_proposalID)\n    {\n        membershipFeeAmendmentProposal.voteMembershipFeeAmendmentProposal(\n            _proposalID,\n            msg.sender,\n            true,\n            flightSuretyShares.balanceOf(msg.sender)\n        );\n        bool consensusCheck = membershipFeeAmendmentProposal\n            .hasMembershipFeeAmendmentProposalReachedConsensus(\n                _proposalID,\n                true,\n                _calculateProvidersConsensusTreshold()\n            );\n        if (consensusCheck) {\n            membershipFeeAmendmentProposal\n                .activateMembershipFeeAmendmentProposal(_proposalID);\n            uint256 lockedMembershipFee = membershipFeeAmendmentProposal\n                .getCurrentMembershipFee();\n            emit NewVoteMembershipFeeAmendmentProposal(_proposalID, msg.sender);\n            emit ActivatedMembershipFeeAmendmentProposal(\n                _proposalID,\n                lockedMembershipFee\n            );\n        } else {\n            emit NewVoteMembershipFeeAmendmentProposal(_proposalID, msg.sender);\n        }\n    }\n\n    // insurance coverage amendment proposal\n\n    function registerInsuranceCoverageAmendmentProposal(uint256 _proposedValue)\n        external\n        onlyOperational\n        onlyTokenHolder(msg.sender)\n    {\n        insuranceCoverageAmendmentProposal\n            .registerInsuranceCoverageAmendmentProposal(\n                msg.sender,\n                _proposedValue,\n                flightSuretyShares.balanceOf(msg.sender)\n            );\n        uint256 _proposalID = insuranceCoverageAmendmentProposal\n            .getInsuranceCoverageAmendmentCurrentProposalID();\n        emit NewInsuranceCoverageAmendmentProposal(\n            _proposalID,\n            msg.sender,\n            _proposedValue\n        );\n        emit NewVoteInsuranceCoverageAmendmentProposal(_proposalID, msg.sender);\n    }\n\n    function voteInsuranceCoverageAmendmentProposal(uint256 _proposalID)\n        external\n        onlyOperational\n        onlyTokenHolder(msg.sender)\n        requireTokenHolderIsOldEnough(msg.sender)\n        requireTokenHolderHasNotVotedInsuranceCoverageAmendmentProposal(\n            msg.sender,\n            _proposalID\n        )\n        requireInsuranceCoverageProposalHasNotBeenSet(_proposalID)\n        requireInsuranceCoverageProposalIsActive(_proposalID)\n    {\n        insuranceCoverageAmendmentProposal\n            .voteInsuranceCoverageAmendmentProposal(\n                _proposalID,\n                msg.sender,\n                true,\n                flightSuretyShares.balanceOf(msg.sender)\n            );\n        bool consensusCheck = insuranceCoverageAmendmentProposal\n            .hasInsuranceCoverageAmendmentProposalReachedConsensus(\n                _proposalID,\n                true,\n                _calculateProvidersConsensusTreshold()\n            );\n        if (consensusCheck) {\n            insuranceCoverageAmendmentProposal\n                .activateInsuranceCoverageAmendmentProposal(_proposalID);\n            uint256 insuranceCoverage = insuranceCoverageAmendmentProposal\n                .getCurrentInsuranceCoverage();\n            emit NewVoteInsuranceCoverageAmendmentProposal(\n                _proposalID,\n                msg.sender\n            );\n            emit ActivatedInsuranceCoverageAmendmentProposal(\n                _proposalID,\n                insuranceCoverage\n            );\n        } else {\n            emit NewVoteInsuranceCoverageAmendmentProposal(\n                _proposalID,\n                msg.sender\n            );\n        }\n    }\n\n    // fetch the oracle provider indexes\n    function getOracleIndexes()\n        external\n        view\n        onlyActivatedOracleProvider(msg.sender)\n        returns (\n            uint256 index1,\n            uint256 index2,\n            uint256 index3\n        )\n    {\n        (index1, index2, index3) = oracleProviderRole.getOracleIndexes(\n            msg.sender\n        );\n        return (index1, index2, index3);\n    }\n\n    function _incrementTotalInsuredValue(uint256 _addedValue) internal {\n        uint256 currentTotalInsuredValue = flightSuretyData\n            .getTotalInsuredValue();\n        flightSuretyData.setTotalInsuredValue(\n            currentTotalInsuredValue.add(_addedValue)\n        );\n    }\n\n    function _calculateInsuredValueBenefits(uint256 initialValue)\n        internal\n        view\n        returns (uint256 insuredValueCoverage)\n    {\n        uint256 currentInsuranceCoverage = insuranceCoverageAmendmentProposal\n            .getCurrentInsuranceCoverage();\n        return initialValue.mul(currentInsuranceCoverage).div(100);\n    }\n\n    function _calculateProvidersConsensusTreshold()\n        internal\n        view\n        returns (uint256 providersConsensusTreshold)\n    {\n        return flightSuretyShares.totalSupply().div(2);\n    }\n\n    function _calculateSharesToMint()\n        internal\n        pure\n        returns (uint256 sharesToMint)\n    {\n        return 1;\n    }\n}\n",
  "sourcePath": "/home/tothemoon_/Documents/FlightInsurance/contracts/FlightSuretyApp/FlightSuretyApp.sol",
  "compiler": {
    "name": "solc",
    "version": "0.8.0+commit.c7dfd78e.Emscripten.clang"
  },
  "schemaVersion": "3.4.2",
  "updatedAt": "2021-08-18T05:03:09.417Z",
  "networkType": "ethereum",
  "devdoc": {
    "kind": "dev",
    "methods": {},
    "version": 1
  },
  "userdoc": {
    "kind": "user",
    "methods": {},
    "version": 1
  }
}