{
  "contractName": "FlightSuretyShares",
  "abi": [
    {
      "inputs": [
        {
          "internalType": "address",
          "name": "_appContractAddress",
          "type": "address"
        }
      ],
      "stateMutability": "nonpayable",
      "type": "constructor"
    },
    {
      "anonymous": false,
      "inputs": [
        {
          "indexed": true,
          "internalType": "address",
          "name": "owner",
          "type": "address"
        },
        {
          "indexed": true,
          "internalType": "address",
          "name": "spender",
          "type": "address"
        },
        {
          "indexed": false,
          "internalType": "uint256",
          "name": "value",
          "type": "uint256"
        }
      ],
      "name": "Approval",
      "type": "event"
    },
    {
      "anonymous": false,
      "inputs": [
        {
          "indexed": true,
          "internalType": "address",
          "name": "from",
          "type": "address"
        },
        {
          "indexed": true,
          "internalType": "address",
          "name": "to",
          "type": "address"
        },
        {
          "indexed": false,
          "internalType": "uint256",
          "name": "value",
          "type": "uint256"
        }
      ],
      "name": "Transfer",
      "type": "event"
    },
    {
      "inputs": [
        {
          "internalType": "address",
          "name": "owner",
          "type": "address"
        },
        {
          "internalType": "address",
          "name": "spender",
          "type": "address"
        }
      ],
      "name": "allowance",
      "outputs": [
        {
          "internalType": "uint256",
          "name": "",
          "type": "uint256"
        }
      ],
      "stateMutability": "view",
      "type": "function",
      "constant": true
    },
    {
      "inputs": [
        {
          "internalType": "address",
          "name": "spender",
          "type": "address"
        },
        {
          "internalType": "uint256",
          "name": "amount",
          "type": "uint256"
        }
      ],
      "name": "approve",
      "outputs": [
        {
          "internalType": "bool",
          "name": "",
          "type": "bool"
        }
      ],
      "stateMutability": "nonpayable",
      "type": "function"
    },
    {
      "inputs": [
        {
          "internalType": "address",
          "name": "account",
          "type": "address"
        }
      ],
      "name": "balanceOf",
      "outputs": [
        {
          "internalType": "uint256",
          "name": "",
          "type": "uint256"
        }
      ],
      "stateMutability": "view",
      "type": "function",
      "constant": true
    },
    {
      "inputs": [],
      "name": "decimals",
      "outputs": [
        {
          "internalType": "uint8",
          "name": "",
          "type": "uint8"
        }
      ],
      "stateMutability": "view",
      "type": "function",
      "constant": true
    },
    {
      "inputs": [
        {
          "internalType": "address",
          "name": "spender",
          "type": "address"
        },
        {
          "internalType": "uint256",
          "name": "subtractedValue",
          "type": "uint256"
        }
      ],
      "name": "decreaseAllowance",
      "outputs": [
        {
          "internalType": "bool",
          "name": "",
          "type": "bool"
        }
      ],
      "stateMutability": "nonpayable",
      "type": "function"
    },
    {
      "inputs": [],
      "name": "destructContract",
      "outputs": [],
      "stateMutability": "nonpayable",
      "type": "function"
    },
    {
      "inputs": [
        {
          "internalType": "address",
          "name": "spender",
          "type": "address"
        },
        {
          "internalType": "uint256",
          "name": "addedValue",
          "type": "uint256"
        }
      ],
      "name": "increaseAllowance",
      "outputs": [
        {
          "internalType": "bool",
          "name": "",
          "type": "bool"
        }
      ],
      "stateMutability": "nonpayable",
      "type": "function"
    },
    {
      "inputs": [],
      "name": "isOwner",
      "outputs": [
        {
          "internalType": "bool",
          "name": "_isOwner",
          "type": "bool"
        }
      ],
      "stateMutability": "view",
      "type": "function",
      "constant": true
    },
    {
      "inputs": [],
      "name": "name",
      "outputs": [
        {
          "internalType": "string",
          "name": "",
          "type": "string"
        }
      ],
      "stateMutability": "view",
      "type": "function",
      "constant": true
    },
    {
      "inputs": [
        {
          "internalType": "address",
          "name": "account",
          "type": "address"
        }
      ],
      "name": "ownershipBlockNum",
      "outputs": [
        {
          "internalType": "uint256",
          "name": "",
          "type": "uint256"
        }
      ],
      "stateMutability": "view",
      "type": "function",
      "constant": true
    },
    {
      "inputs": [],
      "name": "symbol",
      "outputs": [
        {
          "internalType": "string",
          "name": "",
          "type": "string"
        }
      ],
      "stateMutability": "view",
      "type": "function",
      "constant": true
    },
    {
      "inputs": [],
      "name": "totalSupply",
      "outputs": [
        {
          "internalType": "uint256",
          "name": "",
          "type": "uint256"
        }
      ],
      "stateMutability": "view",
      "type": "function",
      "constant": true
    },
    {
      "inputs": [
        {
          "internalType": "address",
          "name": "recipient",
          "type": "address"
        },
        {
          "internalType": "uint256",
          "name": "amount",
          "type": "uint256"
        }
      ],
      "name": "transfer",
      "outputs": [
        {
          "internalType": "bool",
          "name": "",
          "type": "bool"
        }
      ],
      "stateMutability": "nonpayable",
      "type": "function"
    },
    {
      "inputs": [
        {
          "internalType": "address",
          "name": "sender",
          "type": "address"
        },
        {
          "internalType": "address",
          "name": "recipient",
          "type": "address"
        },
        {
          "internalType": "uint256",
          "name": "amount",
          "type": "uint256"
        }
      ],
      "name": "transferFrom",
      "outputs": [
        {
          "internalType": "bool",
          "name": "",
          "type": "bool"
        }
      ],
      "stateMutability": "nonpayable",
      "type": "function"
    },
    {
      "inputs": [
        {
          "internalType": "address",
          "name": "_newOwner",
          "type": "address"
        }
      ],
      "name": "transferOwnership",
      "outputs": [],
      "stateMutability": "nonpayable",
      "type": "function"
    },
    {
      "inputs": [
        {
          "internalType": "address",
          "name": "_caller",
          "type": "address"
        }
      ],
      "name": "authorizeCaller",
      "outputs": [],
      "stateMutability": "nonpayable",
      "type": "function"
    },
    {
      "inputs": [
        {
          "internalType": "address",
          "name": "_caller",
          "type": "address"
        }
      ],
      "name": "unauthorizeCaller",
      "outputs": [],
      "stateMutability": "nonpayable",
      "type": "function"
    },
    {
      "inputs": [
        {
          "internalType": "address",
          "name": "account",
          "type": "address"
        },
        {
          "internalType": "uint256",
          "name": "amount",
          "type": "uint256"
        }
      ],
      "name": "mint",
      "outputs": [],
      "stateMutability": "nonpayable",
      "type": "function"
    },
    {
      "inputs": [
        {
          "internalType": "address",
          "name": "account",
          "type": "address"
        },
        {
          "internalType": "uint256",
          "name": "amount",
          "type": "uint256"
        }
      ],
      "name": "burn",
      "outputs": [],
      "stateMutability": "nonpayable",
      "type": "function"
    }
  ],
  "bytecode": "0x60806040523480156200001157600080fd5b506040516200124638038062001246833981016040819052620000349162000182565b6040805180820182526012815271466c6967687453757265747953686172657360701b60208083019182528351808501909452600384526246535360e81b9084015281519192916200008991600491620000dc565b5080516200009f906005906020840190620000dc565b5050600680546001600160a01b03191633179055506001600160a01b03166000908152600760205260409020805460ff19166001179055620001ef565b828054620000ea90620001b2565b90600052602060002090601f0160209004810192826200010e576000855562000159565b82601f106200012957805160ff191683800117855562000159565b8280016001018555821562000159579182015b82811115620001595782518255916020019190600101906200013c565b50620001679291506200016b565b5090565b5b808211156200016757600081556001016200016c565b60006020828403121562000194578081fd5b81516001600160a01b0381168114620001ab578182fd5b9392505050565b600281046001821680620001c757607f821691505b60208210811415620001e957634e487b7160e01b600052602260045260246000fd5b50919050565b61104780620001ff6000396000f3fe608060405234801561001057600080fd5b50600436106101215760003560e01c80634ac8c5ae116100ad5780639dc29fac116100715780639dc29fac1461022d578063a457c2d714610240578063a9059cbb14610253578063dd62ed3e14610266578063f2fde38b1461027957610121565b80634ac8c5ae146101ef57806370a08231146102025780638f32d59b146102155780639499e0181461021d57806395d89b411461022557610121565b80632c388d5d116100f45780632c388d5d1461018c578063313ce567146101a1578063376f6042146101b657806339509351146101c957806340c10f19146101dc57610121565b806306fdde0314610126578063095ea7b31461014457806318160ddd1461016457806323b872dd14610179575b600080fd5b61012e61028c565b60405161013b9190610c15565b60405180910390f35b610157610152366004610be1565b61031e565b60405161013b9190610c0a565b61016c61033b565b60405161013b9190610f7a565b610157610187366004610ba6565b610341565b61019f61019a366004610b53565b6103da565b005b6101a961042a565b60405161013b9190610f83565b61016c6101c4366004610b53565b61042f565b6101576101d7366004610be1565b61044e565b61019f6101ea366004610be1565b6104a2565b61019f6101fd366004610b53565b6104f4565b61016c610210366004610b53565b610541565b61015761055c565b61019f61056d565b61012e6105a5565b61019f61023b366004610be1565b6105b4565b61015761024e366004610be1565b610602565b610157610261366004610be1565b61067b565b61016c610274366004610b74565b61068f565b61019f610287366004610b53565b6106ba565b60606004805461029b90610fc0565b80601f01602080910402602001604051908101604052809291908181526020018280546102c790610fc0565b80156103145780601f106102e957610100808354040283529160200191610314565b820191906000526020600020905b8154815290600101906020018083116102f757829003601f168201915b5050505050905090565b600061033261032b610706565b848461070a565b50600192915050565b60035490565b600061034e8484846107be565b6001600160a01b03841660009081526002602052604081208161036f610706565b6001600160a01b03166001600160a01b03168152602001908152602001600020549050828110156103bb5760405162461bcd60e51b81526004016103b290610dbe565b60405180910390fd5b6103cf856103c7610706565b85840361070a565b506001949350505050565b6006546001600160a01b031633148061040257503360009081526007602052604090205460ff165b61041e5760405162461bcd60e51b81526004016103b290610d2f565b6104278161090b565b50565b601290565b6001600160a01b0381166000908152600160205260409020545b919050565b600061033261045b610706565b848460026000610469610706565b6001600160a01b03908116825260208083019390935260409182016000908120918b168152925290205461049d9190610f91565b61070a565b6006546001600160a01b03163314806104ca57503360009081526007602052604090205460ff165b6104e65760405162461bcd60e51b81526004016103b290610d2f565b6104f0828261092f565b5050565b6006546001600160a01b031633148061051c57503360009081526007602052604090205460ff165b6105385760405162461bcd60e51b81526004016103b290610d2f565b61042781610a02565b6001600160a01b031660009081526020819052604090205490565b6006546001600160a01b0316331490565b6006546001600160a01b031633146105975760405162461bcd60e51b81526004016103b290610e8c565b6006546001600160a01b0316ff5b60606005805461029b90610fc0565b6006546001600160a01b03163314806105dc57503360009081526007602052604090205460ff165b6105f85760405162461bcd60e51b81526004016103b290610d2f565b6104f08282610a23565b60008060026000610611610706565b6001600160a01b039081168252602080830193909352604091820160009081209188168152925290205490508281101561065d5760405162461bcd60e51b81526004016103b290610efe565b610671610668610706565b8585840361070a565b5060019392505050565b6000610332610688610706565b84846107be565b6001600160a01b03918216600090815260026020908152604080832093909416825291909152205490565b6006546001600160a01b031633146106e45760405162461bcd60e51b81526004016103b290610e8c565b600680546001600160a01b0319166001600160a01b0392909216919091179055565b3390565b6001600160a01b0383166107305760405162461bcd60e51b81526004016103b290610eba565b6001600160a01b0382166107565760405162461bcd60e51b81526004016103b290610ced565b6001600160a01b0380841660008181526002602090815260408083209487168084529490915290819020849055517f8c5be1e5ebec7d5bd14f71427d1e84f3dd0314c0f7b2291e5b200ac8c7c3b925906107b1908590610f7a565b60405180910390a3505050565b6001600160a01b0383166107e45760405162461bcd60e51b81526004016103b290610e47565b6001600160a01b03821661080a5760405162461bcd60e51b81526004016103b290610c68565b610815838383610b1b565b6001600160a01b0383166000908152602081905260409020548181101561084e5760405162461bcd60e51b81526004016103b290610d78565b6001600160a01b03841660009081526020819052604081208383039055610876908590610b20565b6108808343610b20565b6001600160a01b038316600090815260208190526040812080548492906108a8908490610f91565b92505081905550826001600160a01b0316846001600160a01b03167fddf252ad1be2c89b69c2b068fc378daa952ba7f163c4a11628f55a4df523b3ef846040516108f29190610f7a565b60405180910390a3610905848484610b1b565b50505050565b6001600160a01b03166000908152600760205260409020805460ff19166001179055565b6001600160a01b0382166109555760405162461bcd60e51b81526004016103b290610f43565b61096160008383610b1b565b80600360008282546109739190610f91565b9091555061098390508243610b20565b6001600160a01b038216600090815260208190526040812080548392906109ab908490610f91565b90915550506040516001600160a01b038316906000907fddf252ad1be2c89b69c2b068fc378daa952ba7f163c4a11628f55a4df523b3ef906109ee908590610f7a565b60405180910390a36104f060008383610b1b565b6001600160a01b03166000908152600760205260409020805460ff19169055565b6001600160a01b038216610a495760405162461bcd60e51b81526004016103b290610e06565b610a5582600083610b1b565b6001600160a01b03821660009081526020819052604090205481811015610a8e5760405162461bcd60e51b81526004016103b290610cab565b6001600160a01b03831660009081526020819052604081208383039055610ab6908490610b20565b8160036000828254610ac89190610fa9565b90915550506040516000906001600160a01b038516907fddf252ad1be2c89b69c2b068fc378daa952ba7f163c4a11628f55a4df523b3ef90610b0b908690610f7a565b60405180910390a3610b1b836000845b505050565b6001600160a01b03909116600090815260016020526040902055565b80356001600160a01b038116811461044957600080fd5b600060208284031215610b64578081fd5b610b6d82610b3c565b9392505050565b60008060408385031215610b86578081fd5b610b8f83610b3c565b9150610b9d60208401610b3c565b90509250929050565b600080600060608486031215610bba578081fd5b610bc384610b3c565b9250610bd160208501610b3c565b9150604084013590509250925092565b60008060408385031215610bf3578182fd5b610bfc83610b3c565b946020939093013593505050565b901515815260200190565b6000602080835283518082850152825b81811015610c4157858101830151858201604001528201610c25565b81811115610c525783604083870101525b50601f01601f1916929092016040019392505050565b60208082526023908201527f45524332303a207472616e7366657220746f20746865207a65726f206164647260408201526265737360e81b606082015260800190565b60208082526022908201527f45524332303a206275726e20616d6f756e7420657863656564732062616c616e604082015261636560f01b606082015260800190565b60208082526022908201527f45524332303a20617070726f766520746f20746865207a65726f206164647265604082015261737360f01b606082015260800190565b60208082526029908201527f63616c6c6572206d757374206265206f776e6572206f7220617574686f72697a60408201526832b21031b0b63632b960b91b606082015260800190565b60208082526026908201527f45524332303a207472616e7366657220616d6f756e7420657863656564732062604082015265616c616e636560d01b606082015260800190565b60208082526028908201527f45524332303a207472616e7366657220616d6f756e74206578636565647320616040820152676c6c6f77616e636560c01b606082015260800190565b60208082526021908201527f45524332303a206275726e2066726f6d20746865207a65726f206164647265736040820152607360f81b606082015260800190565b60208082526025908201527f45524332303a207472616e736665722066726f6d20746865207a65726f206164604082015264647265737360d81b606082015260800190565b60208082526014908201527331b0b63632b91036bab9ba1031329037bbb732b960611b604082015260600190565b60208082526024908201527f45524332303a20617070726f76652066726f6d20746865207a65726f206164646040820152637265737360e01b606082015260800190565b60208082526025908201527f45524332303a2064656372656173656420616c6c6f77616e63652062656c6f77604082015264207a65726f60d81b606082015260800190565b6020808252601f908201527f45524332303a206d696e7420746f20746865207a65726f206164647265737300604082015260600190565b90815260200190565b60ff91909116815260200190565b60008219821115610fa457610fa4610ffb565b500190565b600082821015610fbb57610fbb610ffb565b500390565b600281046001821680610fd457607f821691505b60208210811415610ff557634e487b7160e01b600052602260045260246000fd5b50919050565b634e487b7160e01b600052601160045260246000fdfea2646970667358221220122f5590e8d7907fcb580f0e6a4cb80033ee630d633a030521c920d4abf19cc164736f6c63430008000033",
  "immutableReferences": {},
  "source": "// SPDX-License-Identifier: UNLICENSED\npragma solidity ^0.8.00;\n\nimport \"../Ownable/Ownable.sol\";\nimport \"../CallerAuditable/CallerAuditable.sol\";\nimport \"./ERC20.sol\";\n\ncontract FlightSuretyShares is ERC20, Ownable, CallerAuditable {\n    mapping(address => uint256) _tokenBase;\n    modifier onlyOwnerOrAuthorizedCaller() {\n        require(\n            msg.sender == owner || authorizedCallers[msg.sender],\n            \"caller must be owner or authorized caller\"\n        );\n        _;\n    }\n\n    // constructor setting owner and initial authorized caller address aka appAddress\n    constructor(address _appContractAddress)\n        Ownable()\n        ERC20(\"FlightSuretyShares\", \"FSS\")\n    {\n        authorizedCallers[_appContractAddress] = true;\n    }\n\n    // authorize a new caller to call the contract\n    function authorizeCaller(address _caller)\n        external\n        onlyOwnerOrAuthorizedCaller\n    {\n        _authorizeCaller(_caller);\n    }\n\n    // remove an existing caller rights to call the contract\n    function unauthorizeCaller(address _caller)\n        external\n        onlyOwnerOrAuthorizedCaller\n    {\n        _unauthorizeCaller(_caller);\n    }\n\n    // allow token minting on deposit of funds by orclae or insurance providers\n    function mint(address account, uint256 amount)\n        external\n        onlyOwnerOrAuthorizedCaller\n    {\n        _mint(account, amount);\n    }\n\n    // allow token burning on ban of an account\n    function burn(address account, uint256 amount)\n        external\n        onlyOwnerOrAuthorizedCaller\n    {\n        _burn(account, amount);\n    }\n}\n",
  "sourcePath": "/home/tothemoon_/Documents/FlightInsurance/contracts/FlightSuretyShares/FlightSuretyShares.sol",
  "compiler": {
    "name": "solc",
    "version": "0.8.0+commit.c7dfd78e.Emscripten.clang"
  },
  "schemaVersion": "3.4.2",
  "updatedAt": "2021-08-16T07:14:14.510Z",
  "networkType": "ethereum",
  "devdoc": {
    "kind": "dev",
    "methods": {
      "allowance(address,address)": {
        "details": "See {IERC20-allowance}."
      },
      "approve(address,uint256)": {
        "details": "See {IERC20-approve}. Requirements: - `spender` cannot be the zero address."
      },
      "balanceOf(address)": {
        "details": "See {IERC20-balanceOf}."
      },
      "decimals()": {
        "details": "Returns the number of decimals used to get its user representation. For example, if `decimals` equals `2`, a balance of `505` tokens should be displayed to a user as `5,05` (`505 / 10 ** 2`). Tokens usually opt for a value of 18, imitating the relationship between Ether and Wei. This is the value {ERC20} uses, unless this function is overridden; NOTE: This information is only used for _display_ purposes: it in no way affects any of the arithmetic of the contract, including {IERC20-balanceOf} and {IERC20-transfer}."
      },
      "decreaseAllowance(address,uint256)": {
        "details": "Atomically decreases the allowance granted to `spender` by the caller. This is an alternative to {approve} that can be used as a mitigation for problems described in {IERC20-approve}. Emits an {Approval} event indicating the updated allowance. Requirements: - `spender` cannot be the zero address. - `spender` must have allowance for the caller of at least `subtractedValue`."
      },
      "increaseAllowance(address,uint256)": {
        "details": "Atomically increases the allowance granted to `spender` by the caller. This is an alternative to {approve} that can be used as a mitigation for problems described in {IERC20-approve}. Emits an {Approval} event indicating the updated allowance. Requirements: - `spender` cannot be the zero address."
      },
      "name()": {
        "details": "Returns the name of the token."
      },
      "ownershipBlockNum(address)": {
        "details": "Returns the name of the token."
      },
      "symbol()": {
        "details": "Returns the symbol of the token, usually a shorter version of the name."
      },
      "totalSupply()": {
        "details": "See {IERC20-totalSupply}."
      },
      "transfer(address,uint256)": {
        "details": "See {IERC20-transfer}. Requirements: - `recipient` cannot be the zero address. - the caller must have a balance of at least `amount`."
      },
      "transferFrom(address,address,uint256)": {
        "details": "See {IERC20-transferFrom}. Emits an {Approval} event indicating the updated allowance. This is not required by the EIP. See the note at the beginning of {ERC20}. Requirements: - `sender` and `recipient` cannot be the zero address. - `sender` must have a balance of at least `amount`. - the caller must have allowance for ``sender``'s tokens of at least `amount`."
      }
    },
    "version": 1
  },
  "userdoc": {
    "kind": "user",
    "methods": {},
    "version": 1
  }
}