{
  "contractName": "FlightSuretyApp",
  "abi": [
    {
      "inputs": [],
      "stateMutability": "nonpayable",
      "type": "constructor"
    },
    {
      "anonymous": false,
      "inputs": [
        {
          "indexed": true,
          "internalType": "uint256",
          "name": "proposalID",
          "type": "uint256"
        },
        {
          "indexed": false,
          "internalType": "uint256",
          "name": "insuranceCoverage",
          "type": "uint256"
        }
      ],
      "name": "ActivatedInsuranceCoverageAmendmentProposal",
      "type": "event"
    },
    {
      "anonymous": false,
      "inputs": [
        {
          "indexed": true,
          "internalType": "address",
          "name": "insuranceProvider",
          "type": "address"
        }
      ],
      "name": "ActivatedInsuranceProvider",
      "type": "event"
    },
    {
      "anonymous": false,
      "inputs": [
        {
          "indexed": true,
          "internalType": "uint256",
          "name": "proposalID",
          "type": "uint256"
        },
        {
          "indexed": false,
          "internalType": "uint256",
          "name": "lockedMembershipFee",
          "type": "uint256"
        }
      ],
      "name": "ActivatedMembershipFeeAmendmentProposal",
      "type": "event"
    },
    {
      "anonymous": false,
      "inputs": [
        {
          "indexed": true,
          "internalType": "address",
          "name": "oracleProvider",
          "type": "address"
        }
      ],
      "name": "ActivatedOracleProvider",
      "type": "event"
    },
    {
      "anonymous": false,
      "inputs": [
        {
          "indexed": false,
          "internalType": "address",
          "name": "caller",
          "type": "address"
        },
        {
          "indexed": false,
          "internalType": "address",
          "name": "contractAddress",
          "type": "address"
        }
      ],
      "name": "AuthorizedCaller",
      "type": "event"
    },
    {
      "anonymous": false,
      "inputs": [
        {
          "indexed": true,
          "internalType": "uint256",
          "name": "flightID",
          "type": "uint256"
        },
        {
          "indexed": true,
          "internalType": "address",
          "name": "insuranceProvider",
          "type": "address"
        },
        {
          "indexed": false,
          "internalType": "uint256",
          "name": "estimatedDeparture",
          "type": "uint256"
        },
        {
          "indexed": false,
          "internalType": "uint256",
          "name": "estimatedArrival",
          "type": "uint256"
        }
      ],
      "name": "NewFlight",
      "type": "event"
    },
    {
      "anonymous": false,
      "inputs": [
        {
          "indexed": true,
          "internalType": "address",
          "name": "passenger",
          "type": "address"
        },
        {
          "indexed": true,
          "internalType": "address",
          "name": "insuranceProvider",
          "type": "address"
        },
        {
          "indexed": true,
          "internalType": "uint256",
          "name": "insuranceID",
          "type": "uint256"
        },
        {
          "indexed": false,
          "internalType": "uint256",
          "name": "flightID",
          "type": "uint256"
        },
        {
          "indexed": false,
          "internalType": "uint256",
          "name": "insuredValue",
          "type": "uint256"
        }
      ],
      "name": "NewInsurance",
      "type": "event"
    },
    {
      "anonymous": false,
      "inputs": [
        {
          "indexed": true,
          "internalType": "uint256",
          "name": "proposalID",
          "type": "uint256"
        },
        {
          "indexed": false,
          "internalType": "uint256",
          "name": "insuranceCoverage",
          "type": "uint256"
        }
      ],
      "name": "NewInsuranceCoverageAmendmentProposal",
      "type": "event"
    },
    {
      "anonymous": false,
      "inputs": [
        {
          "indexed": true,
          "internalType": "uint256",
          "name": "proposalID",
          "type": "uint256"
        },
        {
          "indexed": false,
          "internalType": "uint256",
          "name": "proposedMembershipFee",
          "type": "uint256"
        }
      ],
      "name": "NewMembershipFeeAmendmentProposal",
      "type": "event"
    },
    {
      "anonymous": false,
      "inputs": [
        {
          "indexed": true,
          "internalType": "address",
          "name": "owner",
          "type": "address"
        },
        {
          "indexed": true,
          "internalType": "address",
          "name": "insuranceProvider",
          "type": "address"
        },
        {
          "indexed": true,
          "internalType": "uint256",
          "name": "insuranceID",
          "type": "uint256"
        },
        {
          "indexed": false,
          "internalType": "uint256",
          "name": "flightID",
          "type": "uint256"
        },
        {
          "indexed": false,
          "internalType": "uint256",
          "name": "insuredValue",
          "type": "uint256"
        }
      ],
      "name": "NewPayout",
      "type": "event"
    },
    {
      "anonymous": false,
      "inputs": [
        {
          "indexed": true,
          "internalType": "uint256",
          "name": "proposalID",
          "type": "uint256"
        },
        {
          "indexed": true,
          "internalType": "address",
          "name": "voter",
          "type": "address"
        }
      ],
      "name": "NewVoteInsuranceCoverageAmendmentProposal",
      "type": "event"
    },
    {
      "anonymous": false,
      "inputs": [
        {
          "indexed": true,
          "internalType": "address",
          "name": "voter",
          "type": "address"
        },
        {
          "indexed": true,
          "internalType": "bool",
          "name": "side",
          "type": "bool"
        },
        {
          "indexed": true,
          "internalType": "address",
          "name": "votee",
          "type": "address"
        }
      ],
      "name": "NewVoteInsuranceProvider",
      "type": "event"
    },
    {
      "anonymous": false,
      "inputs": [
        {
          "indexed": true,
          "internalType": "uint256",
          "name": "proposalID",
          "type": "uint256"
        },
        {
          "indexed": true,
          "internalType": "address",
          "name": "voter",
          "type": "address"
        }
      ],
      "name": "NewVoteMembershipFeeAmendmentProposal",
      "type": "event"
    },
    {
      "anonymous": false,
      "inputs": [
        {
          "indexed": true,
          "internalType": "address",
          "name": "voter",
          "type": "address"
        },
        {
          "indexed": true,
          "internalType": "bool",
          "name": "side",
          "type": "bool"
        },
        {
          "indexed": true,
          "internalType": "address",
          "name": "votee",
          "type": "address"
        }
      ],
      "name": "NewVoteOracleProvider",
      "type": "event"
    },
    {
      "anonymous": false,
      "inputs": [
        {
          "indexed": true,
          "internalType": "address",
          "name": "insuranceProvider",
          "type": "address"
        }
      ],
      "name": "RegisteredInsuranceProvider",
      "type": "event"
    },
    {
      "anonymous": false,
      "inputs": [
        {
          "indexed": true,
          "internalType": "address",
          "name": "oracleProvider",
          "type": "address"
        }
      ],
      "name": "RegisteredOracleProvider",
      "type": "event"
    },
    {
      "anonymous": false,
      "inputs": [
        {
          "indexed": true,
          "internalType": "address",
          "name": "insuranceProvider",
          "type": "address"
        }
      ],
      "name": "RemovedInsuranceProvider",
      "type": "event"
    },
    {
      "anonymous": false,
      "inputs": [
        {
          "indexed": true,
          "internalType": "address",
          "name": "oracleProvider",
          "type": "address"
        }
      ],
      "name": "RemovedOracleProvider",
      "type": "event"
    },
    {
      "anonymous": false,
      "inputs": [
        {
          "indexed": false,
          "internalType": "address",
          "name": "caller",
          "type": "address"
        },
        {
          "indexed": false,
          "internalType": "address",
          "name": "contractAddress",
          "type": "address"
        }
      ],
      "name": "UnauthorizedCaller",
      "type": "event"
    },
    {
      "inputs": [],
      "name": "destructContract",
      "outputs": [],
      "stateMutability": "nonpayable",
      "type": "function"
    },
    {
      "inputs": [
        {
          "internalType": "address",
          "name": "_newOwner",
          "type": "address"
        }
      ],
      "name": "transferOwnership",
      "outputs": [],
      "stateMutability": "nonpayable",
      "type": "function"
    },
    {
      "inputs": [
        {
          "internalType": "address",
          "name": "_flightSuretyData",
          "type": "address"
        },
        {
          "internalType": "address",
          "name": "_insuranceCoverageAmendmentProposal",
          "type": "address"
        },
        {
          "internalType": "address",
          "name": "_membershipFeeAmendmentProposal",
          "type": "address"
        },
        {
          "internalType": "address",
          "name": "_insuranceProviderRole",
          "type": "address"
        },
        {
          "internalType": "address",
          "name": "_oracleProviderRole",
          "type": "address"
        },
        {
          "internalType": "address",
          "name": "_flightSuretyShares",
          "type": "address"
        }
      ],
      "name": "initialize",
      "outputs": [],
      "stateMutability": "nonpayable",
      "type": "function"
    },
    {
      "inputs": [
        {
          "internalType": "address",
          "name": "_authorizedCaller",
          "type": "address"
        },
        {
          "internalType": "bool",
          "name": "_access",
          "type": "bool"
        }
      ],
      "name": "updateAuthorizedCallerFlightSuretyData",
      "outputs": [],
      "stateMutability": "nonpayable",
      "type": "function"
    },
    {
      "inputs": [
        {
          "internalType": "address",
          "name": "_authorizedCaller",
          "type": "address"
        },
        {
          "internalType": "bool",
          "name": "_access",
          "type": "bool"
        }
      ],
      "name": "updateAuthorizedCallerInsuranceCoverageAmendmentProposal",
      "outputs": [],
      "stateMutability": "nonpayable",
      "type": "function"
    },
    {
      "inputs": [
        {
          "internalType": "address",
          "name": "_authorizedCaller",
          "type": "address"
        },
        {
          "internalType": "bool",
          "name": "_access",
          "type": "bool"
        }
      ],
      "name": "updateAuthorizedCallerMembershipFeeAmendmentProposal",
      "outputs": [],
      "stateMutability": "nonpayable",
      "type": "function"
    },
    {
      "inputs": [
        {
          "internalType": "address",
          "name": "_authorizedCaller",
          "type": "address"
        },
        {
          "internalType": "bool",
          "name": "_access",
          "type": "bool"
        }
      ],
      "name": "updateAuthorizedCallerInsuranceProviderRole",
      "outputs": [],
      "stateMutability": "nonpayable",
      "type": "function"
    },
    {
      "inputs": [
        {
          "internalType": "address",
          "name": "_authorizedCaller",
          "type": "address"
        },
        {
          "internalType": "bool",
          "name": "_access",
          "type": "bool"
        }
      ],
      "name": "updateAuthorizedCallerOracleProviderRole",
      "outputs": [],
      "stateMutability": "nonpayable",
      "type": "function"
    },
    {
      "inputs": [
        {
          "internalType": "address",
          "name": "_authorizedCaller",
          "type": "address"
        },
        {
          "internalType": "bool",
          "name": "_access",
          "type": "bool"
        }
      ],
      "name": "updateAuthorizedCallerFlighSuretyShares",
      "outputs": [],
      "stateMutability": "nonpayable",
      "type": "function"
    },
    {
      "inputs": [],
      "name": "registerInsuranceProvider",
      "outputs": [],
      "stateMutability": "payable",
      "type": "function",
      "payable": true
    },
    {
      "inputs": [],
      "name": "registerOracleProvider",
      "outputs": [],
      "stateMutability": "payable",
      "type": "function",
      "payable": true
    },
    {
      "inputs": [
        {
          "internalType": "address",
          "name": "_account",
          "type": "address"
        }
      ],
      "name": "voteInsuranceProviderMembership",
      "outputs": [],
      "stateMutability": "nonpayable",
      "type": "function"
    },
    {
      "inputs": [
        {
          "internalType": "address",
          "name": "_account",
          "type": "address"
        }
      ],
      "name": "voteOracleProviderMembership",
      "outputs": [],
      "stateMutability": "nonpayable",
      "type": "function"
    },
    {
      "inputs": [
        {
          "internalType": "string",
          "name": "_flightRef",
          "type": "string"
        },
        {
          "internalType": "uint64",
          "name": "_estimatedDeparture",
          "type": "uint64"
        },
        {
          "internalType": "uint64",
          "name": "_estimatedArrival",
          "type": "uint64"
        },
        {
          "internalType": "uint256",
          "name": "_rate",
          "type": "uint256"
        }
      ],
      "name": "registerFlight",
      "outputs": [],
      "stateMutability": "nonpayable",
      "type": "function"
    },
    {
      "inputs": [
        {
          "internalType": "uint256",
          "name": "_flightID",
          "type": "uint256"
        }
      ],
      "name": "registerInsurance",
      "outputs": [],
      "stateMutability": "payable",
      "type": "function",
      "payable": true
    },
    {
      "inputs": [
        {
          "internalType": "uint256",
          "name": "_insuranceID",
          "type": "uint256"
        }
      ],
      "name": "claimInsurance",
      "outputs": [],
      "stateMutability": "payable",
      "type": "function",
      "payable": true
    },
    {
      "inputs": [],
      "name": "currentMembershipFee",
      "outputs": [
        {
          "internalType": "uint256",
          "name": "",
          "type": "uint256"
        }
      ],
      "stateMutability": "view",
      "type": "function",
      "constant": true
    },
    {
      "inputs": [],
      "name": "currentInsuranceCoverageRatio",
      "outputs": [
        {
          "internalType": "uint256",
          "name": "",
          "type": "uint256"
        }
      ],
      "stateMutability": "view",
      "type": "function",
      "constant": true
    },
    {
      "inputs": [
        {
          "internalType": "uint256",
          "name": "_proposedValue",
          "type": "uint256"
        }
      ],
      "name": "registerMembershipFeeAmendmentProposal",
      "outputs": [],
      "stateMutability": "nonpayable",
      "type": "function"
    },
    {
      "inputs": [
        {
          "internalType": "uint256",
          "name": "_proposalID",
          "type": "uint256"
        }
      ],
      "name": "voteMembershipFeeAmendmentProposal",
      "outputs": [],
      "stateMutability": "nonpayable",
      "type": "function"
    },
    {
      "inputs": [
        {
          "internalType": "uint256",
          "name": "_proposedValue",
          "type": "uint256"
        }
      ],
      "name": "registerInsuranceCoverageAmendmentProposal",
      "outputs": [],
      "stateMutability": "nonpayable",
      "type": "function"
    },
    {
      "inputs": [
        {
          "internalType": "uint256",
          "name": "_proposalID",
          "type": "uint256"
        }
      ],
      "name": "voteInsuranceCoverageAmendmentProposal",
      "outputs": [],
      "stateMutability": "nonpayable",
      "type": "function"
    }
  ],
  "bytecode": "0x608060405234801561001057600080fd5b50600080546001600160a01b031916331790556141f7806100326000396000f3fe6080604052600436106101355760003560e01c80636c548134116100ab578063c7aa26281161006f578063c7aa2628146102f4578063ca51f66414610314578063cc2a9a5b14610334578063f2fde38b14610354578063f55f665114610374578063f85920d81461039457610135565b80636c548134146102775780638a4fa7f01461027f5780639499e0181461029f578063bbab5166146102b4578063be378114146102d457610135565b806327a5fe7e116100fd57806327a5fe7e146101b7578063383da363146101d757806342f3cc5f146101f7578063554a75ca146102175780635ed5207b1461023757806366fa5e851461025757610135565b806304a11de71461013a57806317905a2f146101655780631abbc6101461016f578063210870bb146101845780632600fc9b146101a4575b600080fd5b34801561014657600080fd5b5061014f6103a7565b60405161015c919061403d565b60405180910390f35b61016d610429565b005b34801561017b57600080fd5b5061014f610760565b34801561019057600080fd5b5061016d61019f3660046139d0565b6107a5565b61016d6101b2366004613bfc565b610908565b3480156101c357600080fd5b5061016d6101d23660046139d0565b610d5e565b3480156101e357600080fd5b5061016d6101f2366004613bfc565b610ea8565b34801561020357600080fd5b5061016d610212366004613933565b6112f5565b34801561022357600080fd5b5061016d6102323660046139d0565b61172e565b34801561024357600080fd5b5061016d6102523660046139d0565b611878565b34801561026357600080fd5b5061016d610272366004613bfc565b6119c0565b61016d611dfe565b34801561028b57600080fd5b5061016d61029a366004613bfc565b61212d565b3480156102ab57600080fd5b5061016d6123a4565b3480156102c057600080fd5b5061016d6102cf3660046139d0565b6123dc565b3480156102e057600080fd5b5061016d6102ef366004613933565b612526565b34801561030057600080fd5b5061016d61030f3660046139d0565b612966565b34801561032057600080fd5b5061016d61032f366004613a24565b612ab0565b34801561034057600080fd5b5061016d61034f36600461394f565b612cf5565b34801561036057600080fd5b5061016d61036f366004613933565b612e3f565b34801561038057600080fd5b5061016d61038f366004613bfc565b612e8b565b61016d6103a2366004613bfc565b613102565b6002546040805163fde0c46360e01b815290516000926001600160a01b03169163fde0c463916004808301926020929190829003018186803b1580156103ec57600080fd5b505afa158015610400573d6000803e3d6000fd5b505050506040513d601f19601f820116820180604052508101906104249190613c14565b905090565b600354604080516332393eb760e21b815290516000926001600160a01b03169163c8e4fadc916004808301926020929190829003018186803b15801561046e57600080fd5b505afa158015610482573d6000803e3d6000fd5b505050506040513d601f19601f820116820180604052508101906104a69190613c14565b9050803410156104d15760405162461bcd60e51b81526004016104c890613d81565b60405180910390fd5b8034111561051157306108fc6104e734846136b3565b6040518115909202916000818181858888f1935050505015801561050f573d6000803e3d6000fd5b505b60048054604051635a2449a960e01b81526001600160a01b0390911691635a2449a99161054091339101613c76565b600060405180830381600087803b15801561055a57600080fd5b505af115801561056e573d6000803e3d6000fd5b505050506000600460009054906101000a90046001600160a01b03166001600160a01b0316632dfa077c6040518163ffffffff1660e01b815260040160206040518083038186803b1580156105c257600080fd5b505afa1580156105d6573d6000803e3d6000fd5b505050506040513d601f19601f820116820180604052508101906105fa9190613c14565b9050600481116107305760048054604051636c66623d60e11b81526001600160a01b039091169163d8ccc47a9161063391339101613c76565b600060405180830381600087803b15801561064d57600080fd5b505af1158015610661573d6000803e3d6000fd5b50505050600061066f6136c6565b6006546040516340c10f1960e01b81529192506001600160a01b0316906340c10f19906106a29033908590600401613d26565b600060405180830381600087803b1580156106bc57600080fd5b505af11580156106d0573d6000803e3d6000fd5b50506040513392507fcfbd886b9409cf70d4b4a060d1e556397e323b33a7000b106b281cc43b0c26419150600090a260405133907f5dbffd047c48d57a7d972a24d9fe3ced4753a2b27c6b277fc905b1607ab99afe90600090a25061075c565b60405133907fcfbd886b9409cf70d4b4a060d1e556397e323b33a7000b106b281cc43b0c264190600090a25b5050565b600354604080516332393eb760e21b815290516000926001600160a01b03169163c8e4fadc916004808301926020929190829003018186803b1580156103ec57600080fd5b6000546001600160a01b031633146107cf5760405162461bcd60e51b81526004016104c890613fa1565b801561086f57600654604051632c388d5d60e01b81526001600160a01b0390911690632c388d5d90610805908590600401613c76565b600060405180830381600087803b15801561081f57600080fd5b505af1158015610833573d6000803e3d6000fd5b50506006546040516000805160206141a28339815191529350610862925085916001600160a01b031690613c8a565b60405180910390a161075c565b60065460405163256462d760e11b81526001600160a01b0390911690634ac8c5ae9061089f908590600401613c76565b600060405180830381600087803b1580156108b957600080fd5b505af11580156108cd573d6000803e3d6000fd5b505060065460405160008051602061418283398151915293506108fc925085916001600160a01b031690613c8a565b60405180910390a15050565b600154604051633a4396cb60e01b815282916000916001600160a01b0390911690633a4396cb9061093d90859060040161403d565b60006040518083038186803b15801561095557600080fd5b505afa158015610969573d6000803e3d6000fd5b505050506040513d6000823e601f3d908101601f191682016040526109919190810190613abb565b50505050505050915050428167ffffffffffffffff16116109c45760405162461bcd60e51b81526004016104c890613e7f565b600154604051633a4396cb60e01b815284916000916001600160a01b0390911690633a4396cb906109f990859060040161403d565b60006040518083038186803b158015610a1157600080fd5b505afa158015610a25573d6000803e3d6000fd5b505050506040513d6000823e601f3d908101601f19168201604052610a4d9190810190613abb565b9850505050505050505080341015610a775760405162461bcd60e51b81526004016104c890613db8565b6000610a833483614102565b9050346000610b20610b1b83600160009054906101000a90046001600160a01b03166001600160a01b031663d48b06b86040518163ffffffff1660e01b815260040160206040518083038186803b158015610add57600080fd5b505afa158015610af1573d6000803e3d6000fd5b505050506040513d601f19601f82011682018060405250810190610b159190613c14565b906136cb565b6136d7565b905047811115610b425760405162461bcd60e51b81526004016104c890613eb6565b600154604051633a4396cb60e01b815260009182916001600160a01b0390911690633a4396cb90610b77908d9060040161403d565b60006040518083038186803b158015610b8f57600080fd5b505afa158015610ba3573d6000803e3d6000fd5b505050506040513d6000823e601f3d908101601f19168201604052610bcb9190810190613abb565b9850509750505050505050600160009054906101000a90046001600160a01b03166001600160a01b031663390fc413338c846040518463ffffffff1660e01b8152600401610c1b93929190613d3f565b600060405180830381600087803b158015610c3557600080fd5b505af1158015610c49573d6000803e3d6000fd5b50505050610c5681613780565b600154604080516317291e0560e11b815290516000926001600160a01b031691632e523c0a916004808301926020929190829003018186803b158015610c9b57600080fd5b505afa158015610caf573d6000803e3d6000fd5b505050506040513d601f19601f82011682018060405250810190610cd39190613c14565b905080836001600160a01b0316336001600160a01b03167f92de6a95faf2432685c9d5eaf71891cadcf05e0b18ec223068412a8cb52ebb608e86604051610d1b929190614082565b60405180910390a4505060405133935084156108fc0292508491506000818181858888f19350505050158015610d55573d6000803e3d6000fd5b50505050505050565b6000546001600160a01b03163314610d885760405162461bcd60e51b81526004016104c890613fa1565b8015610e1b57600154604051632c388d5d60e01b81526001600160a01b0390911690632c388d5d90610dbe908590600401613c76565b600060405180830381600087803b158015610dd857600080fd5b505af1158015610dec573d6000803e3d6000fd5b50506001546040516000805160206141a28339815191529350610862925085916001600160a01b031690613c8a565b60015460405163256462d760e11b81526001600160a01b0390911690634ac8c5ae90610e4b908590600401613c76565b600060405180830381600087803b158015610e6557600080fd5b505af1158015610e79573d6000803e3d6000fd5b505060015460405160008051602061418283398151915293506108fc925085916001600160a01b031690613c8a565b6006546040516370a0823160e01b815233916000916001600160a01b03909116906370a0823190610edd908590600401613c76565b60206040518083038186803b158015610ef557600080fd5b505afa158015610f09573d6000803e3d6000fd5b505050506040513d601f19601f82011682018060405250810190610f2d9190613c14565b11610f4a5760405162461bcd60e51b81526004016104c890614006565b60035460405163086b7e0b60e21b8152339184916001600160a01b03909116906321adf82c90610f809085908590600401613d26565b602060405180830381600087803b158015610f9a57600080fd5b505af1158015610fae573d6000803e3d6000fd5b505050506040513d601f19601f82011682018060405250810190610fd29190613a08565b15610fef5760405162461bcd60e51b81526004016104c890613fcf565b6003546006546040516370a0823160e01b81526001600160a01b039283169263785e7c10928892339260019216906370a0823190611031908590600401613c76565b60206040518083038186803b15801561104957600080fd5b505afa15801561105d573d6000803e3d6000fd5b505050506040513d601f19601f820116820180604052508101906110819190613c14565b6040518563ffffffff1660e01b81526004016110a09493929190614046565b600060405180830381600087803b1580156110ba57600080fd5b505af11580156110ce573d6000803e3d6000fd5b5050600354600092506001600160a01b0316905063b83c24be8660016110f261386d565b6040518463ffffffff1660e01b81526004016111109392919061406c565b60206040518083038186803b15801561112857600080fd5b505afa15801561113c573d6000803e3d6000fd5b505050506040513d601f19601f820116820180604052508101906111609190613a08565b905080156112c05760035460405163020df34960e41b81526001600160a01b03909116906320df34909061119890889060040161403d565b600060405180830381600087803b1580156111b257600080fd5b505af11580156111c6573d6000803e3d6000fd5b505050506000600360009054906101000a90046001600160a01b03166001600160a01b031663c8e4fadc6040518163ffffffff1660e01b815260040160206040518083038186803b15801561121a57600080fd5b505afa15801561122e573d6000803e3d6000fd5b505050506040513d601f19601f820116820180604052508101906112529190613c14565b604051909150339087907f0450a2b5feaa1ee53edb36ef2d8854b1a508547d111e43b5b1ead1b090a5daa290600090a3857f1b454f919e7ff592d633a0d62845314e86de1463aa34dea4aab7c0ab6945a73d826040516112b2919061403d565b60405180910390a2506112ee565b604051339086907f0450a2b5feaa1ee53edb36ef2d8854b1a508547d111e43b5b1ead1b090a5daa290600090a35b5050505050565b6006546040516370a0823160e01b815233916000916001600160a01b03909116906370a082319061132a908590600401613c76565b60206040518083038186803b15801561134257600080fd5b505afa158015611356573d6000803e3d6000fd5b505050506040513d601f19601f8201168201806040525081019061137a9190613c14565b116113975760405162461bcd60e51b81526004016104c890614006565b600480546040516283c70f60e31b8152339285926001600160a01b03169163041e3878916113c9918591879101613c8a565b60206040518083038186803b1580156113e157600080fd5b505afa1580156113f5573d6000803e3d6000fd5b505050506040513d601f19601f820116820180604052508101906114199190613a08565b156114365760405162461bcd60e51b81526004016104c890613fcf565b600480546006546040516370a0823160e01b81526001600160a01b0392831693637cd913159333938a939116916370a082319161147591869101613c76565b60206040518083038186803b15801561148d57600080fd5b505afa1580156114a1573d6000803e3d6000fd5b505050506040513d601f19601f820116820180604052508101906114c59190613c14565b6040518463ffffffff1660e01b81526004016114e393929190613ca4565b600060405180830381600087803b1580156114fd57600080fd5b505af1158015611511573d6000803e3d6000fd5b5050600454600092506001600160a01b0316905063c287a64860018761153561386d565b6040518463ffffffff1660e01b815260040161155393929190613d60565b60206040518083038186803b15801561156b57600080fd5b505afa15801561157f573d6000803e3d6000fd5b505050506040513d601f19601f820116820180604052508101906115a39190613a08565b905080156116ee5760048054604051636c66623d60e11b81526001600160a01b039091169163d8ccc47a916115da91899101613c76565b600060405180830381600087803b1580156115f457600080fd5b505af1158015611608573d6000803e3d6000fd5b5050505060006116166136c6565b6006546040516340c10f1960e01b81529192506001600160a01b0316906340c10f19906116499089908590600401613d26565b600060405180830381600087803b15801561166357600080fd5b505af1158015611677573d6000803e3d6000fd5b50506040516001600160a01b03891692506001915033907fa9d2bc6dc1b37950fdc57b26b1bcc905538ce9c54a8d46b9a043b61f61d84db990600090a46040516001600160a01b038716907f5dbffd047c48d57a7d972a24d9fe3ced4753a2b27c6b277fc905b1607ab99afe90600090a2506112ee565b6040516001600160a01b0386169060019033907fa9d2bc6dc1b37950fdc57b26b1bcc905538ce9c54a8d46b9a043b61f61d84db990600090a45050505050565b6000546001600160a01b031633146117585760405162461bcd60e51b81526004016104c890613fa1565b80156117eb57600254604051632c388d5d60e01b81526001600160a01b0390911690632c388d5d9061178e908590600401613c76565b600060405180830381600087803b1580156117a857600080fd5b505af11580156117bc573d6000803e3d6000fd5b50506002546040516000805160206141a28339815191529350610862925085916001600160a01b031690613c8a565b60025460405163256462d760e11b81526001600160a01b0390911690634ac8c5ae9061181b908590600401613c76565b600060405180830381600087803b15801561183557600080fd5b505af1158015611849573d6000803e3d6000fd5b505060025460405160008051602061418283398151915293506108fc925085916001600160a01b031690613c8a565b6000546001600160a01b031633146118a25760405162461bcd60e51b81526004016104c890613fa1565b80156119345760048054604051632c388d5d60e01b81526001600160a01b0390911691632c388d5d916118d791869101613c76565b600060405180830381600087803b1580156118f157600080fd5b505af1158015611905573d6000803e3d6000fd5b50506004546040516000805160206141a28339815191529350610862925085916001600160a01b031690613c8a565b6004805460405163256462d760e11b81526001600160a01b0390911691634ac8c5ae9161196391869101613c76565b600060405180830381600087803b15801561197d57600080fd5b505af1158015611991573d6000803e3d6000fd5b505060045460405160008051602061418283398151915293506108fc925085916001600160a01b031690613c8a565b6006546040516370a0823160e01b815233916000916001600160a01b03909116906370a08231906119f5908590600401613c76565b60206040518083038186803b158015611a0d57600080fd5b505afa158015611a21573d6000803e3d6000fd5b505050506040513d601f19601f82011682018060405250810190611a459190613c14565b11611a625760405162461bcd60e51b81526004016104c890614006565b60025460405163a49854d960e01b8152339184916001600160a01b039091169063a49854d990611a989085908590600401613d26565b602060405180830381600087803b158015611ab257600080fd5b505af1158015611ac6573d6000803e3d6000fd5b505050506040513d601f19601f82011682018060405250810190611aea9190613a08565b15611b075760405162461bcd60e51b81526004016104c890613fcf565b6002546006546040516370a0823160e01b81526001600160a01b0392831692632cb1feed928892339260019216906370a0823190611b49908590600401613c76565b60206040518083038186803b158015611b6157600080fd5b505afa158015611b75573d6000803e3d6000fd5b505050506040513d601f19601f82011682018060405250810190611b999190613c14565b6040518563ffffffff1660e01b8152600401611bb89493929190614046565b600060405180830381600087803b158015611bd257600080fd5b505af1158015611be6573d6000803e3d6000fd5b5050600254600092506001600160a01b0316905063a0aea5e0866001611c0a61386d565b6040518463ffffffff1660e01b8152600401611c289392919061406c565b60206040518083038186803b158015611c4057600080fd5b505afa158015611c54573d6000803e3d6000fd5b505050506040513d601f19601f82011682018060405250810190611c789190613a08565b90508015611dca576002546040516325c613fd60e11b81526001600160a01b0390911690634b8c27fa90611cb090889060040161403d565b600060405180830381600087803b158015611cca57600080fd5b505af1158015611cde573d6000803e3d6000fd5b505050506000600260009054906101000a90046001600160a01b03166001600160a01b031663fde0c4636040518163ffffffff1660e01b815260040160206040518083038186803b158015611d3257600080fd5b505afa158015611d46573d6000803e3d6000fd5b505050506040513d601f19601f82011682018060405250810190611d6a9190613c14565b604051909150339087907f7906920cd6c70de2c0c6380adfa74d93af1ff8f5e5b03d1605194fef988add7990600090a3857f13d4caf5982979691a014920086fb5cac4da0ce48f86c7b4c0d0cadbef27fae4826040516112b2919061403d565b604051339086907f7906920cd6c70de2c0c6380adfa74d93af1ff8f5e5b03d1605194fef988add7990600090a35050505050565b600354604080516332393eb760e21b815290516000926001600160a01b03169163c8e4fadc916004808301926020929190829003018186803b158015611e4357600080fd5b505afa158015611e57573d6000803e3d6000fd5b505050506040513d601f19601f82011682018060405250810190611e7b9190613c14565b905080341015611e9d5760405162461bcd60e51b81526004016104c890613d81565b80341115611edd57306108fc611eb334846136b3565b6040518115909202916000818181858888f19350505050158015611edb573d6000803e3d6000fd5b505b60055460405163316b047d60e01b81526001600160a01b039091169063316b047d90611f0d903390600401613c76565b600060405180830381600087803b158015611f2757600080fd5b505af1158015611f3b573d6000803e3d6000fd5b505050506000600560009054906101000a90046001600160a01b03166001600160a01b03166356c589de6040518163ffffffff1660e01b815260040160206040518083038186803b158015611f8f57600080fd5b505afa158015611fa3573d6000803e3d6000fd5b505050506040513d601f19601f82011682018060405250810190611fc79190613c14565b9050600481116120fe576005546040516324f5341760e21b81526001600160a01b03909116906393d4d05c90612001903390600401613c76565b600060405180830381600087803b15801561201b57600080fd5b505af115801561202f573d6000803e3d6000fd5b50505050600061203d6136c6565b6006546040516340c10f1960e01b81529192506001600160a01b0316906340c10f19906120709033908590600401613d26565b600060405180830381600087803b15801561208a57600080fd5b505af115801561209e573d6000803e3d6000fd5b50506040513392507f0418be85575ebac30df5dffbfd641fbbdaafb2b1806fc3637eb7062a70bed9329150600090a260405133907f5e06803b8b6ec4a58bfd8973f079830b31cbb81e939420c22febecc8acdb3f8d90600090a25061075c565b60405133907f0418be85575ebac30df5dffbfd641fbbdaafb2b1806fc3637eb7062a70bed93290600090a25050565b6006546040516370a0823160e01b815233916000916001600160a01b03909116906370a0823190612162908590600401613c76565b60206040518083038186803b15801561217a57600080fd5b505afa15801561218e573d6000803e3d6000fd5b505050506040513d601f19601f820116820180604052508101906121b29190613c14565b116121cf5760405162461bcd60e51b81526004016104c890614006565b6002546006546040516370a0823160e01b81526001600160a01b0392831692637f2020c79233928792909116906370a0823190612210908590600401613c76565b60206040518083038186803b15801561222857600080fd5b505afa15801561223c573d6000803e3d6000fd5b505050506040513d601f19601f820116820180604052508101906122609190613c14565b6040518463ffffffff1660e01b815260040161227e93929190613d3f565b600060405180830381600087803b15801561229857600080fd5b505af11580156122ac573d6000803e3d6000fd5b505050506000600260009054906101000a90046001600160a01b03166001600160a01b0316630b0c98686040518163ffffffff1660e01b815260040160206040518083038186803b15801561230057600080fd5b505afa158015612314573d6000803e3d6000fd5b505050506040513d601f19601f820116820180604052508101906123389190613c14565b9050807fa11ea86e8c477100e8e8cfb954fc0f81fd6d5e63aa52fcf34cf87e476b10dab08460405161236a919061403d565b60405180910390a2604051339082907f7906920cd6c70de2c0c6380adfa74d93af1ff8f5e5b03d1605194fef988add7990600090a3505050565b6000546001600160a01b031633146123ce5760405162461bcd60e51b81526004016104c890613fa1565b6000546001600160a01b0316ff5b6000546001600160a01b031633146124065760405162461bcd60e51b81526004016104c890613fa1565b801561249957600354604051632c388d5d60e01b81526001600160a01b0390911690632c388d5d9061243c908590600401613c76565b600060405180830381600087803b15801561245657600080fd5b505af115801561246a573d6000803e3d6000fd5b50506003546040516000805160206141a28339815191529350610862925085916001600160a01b031690613c8a565b60035460405163256462d760e11b81526001600160a01b0390911690634ac8c5ae906124c9908590600401613c76565b600060405180830381600087803b1580156124e357600080fd5b505af11580156124f7573d6000803e3d6000fd5b505060035460405160008051602061418283398151915293506108fc925085916001600160a01b031690613c8a565b6006546040516370a0823160e01b815233916000916001600160a01b03909116906370a082319061255b908590600401613c76565b60206040518083038186803b15801561257357600080fd5b505afa158015612587573d6000803e3d6000fd5b505050506040513d601f19601f820116820180604052508101906125ab9190613c14565b116125c85760405162461bcd60e51b81526004016104c890614006565b60055460405163614c2bd360e11b8152339184916001600160a01b039091169063c29857a6906125fe9084908690600401613c8a565b60206040518083038186803b15801561261657600080fd5b505afa15801561262a573d6000803e3d6000fd5b505050506040513d601f19601f8201168201806040525081019061264e9190613a08565b1561266b5760405162461bcd60e51b81526004016104c890613fcf565b6005546006546040516370a0823160e01b81526001600160a01b0392831692636ba155b19233928992909116906370a08231906126ac908590600401613c76565b60206040518083038186803b1580156126c457600080fd5b505afa1580156126d8573d6000803e3d6000fd5b505050506040513d601f19601f820116820180604052508101906126fc9190613c14565b6040518463ffffffff1660e01b815260040161271a93929190613ca4565b600060405180830381600087803b15801561273457600080fd5b505af1158015612748573d6000803e3d6000fd5b5050600554600092506001600160a01b0316905063f0a5870860018761276c61386d565b6040518463ffffffff1660e01b815260040161278a93929190613d60565b60206040518083038186803b1580156127a257600080fd5b505afa1580156127b6573d6000803e3d6000fd5b505050506040513d601f19601f820116820180604052508101906127da9190613a08565b90508015612926576005546040516324f5341760e21b81526001600160a01b03909116906393d4d05c90612812908890600401613c76565b600060405180830381600087803b15801561282c57600080fd5b505af1158015612840573d6000803e3d6000fd5b50505050600061284e6136c6565b6006546040516340c10f1960e01b81529192506001600160a01b0316906340c10f19906128819089908590600401613d26565b600060405180830381600087803b15801561289b57600080fd5b505af11580156128af573d6000803e3d6000fd5b50506040516001600160a01b03891692506001915033907f1b3fee018a3b7e52d087ea8e3f391b759e9e934802971c8f99e51ffdcb27d44490600090a46040516001600160a01b038716907f5e06803b8b6ec4a58bfd8973f079830b31cbb81e939420c22febecc8acdb3f8d90600090a2506112ee565b6040516001600160a01b0386169060019033907f1b3fee018a3b7e52d087ea8e3f391b759e9e934802971c8f99e51ffdcb27d44490600090a45050505050565b6000546001600160a01b031633146129905760405162461bcd60e51b81526004016104c890613fa1565b8015612a2357600554604051632c388d5d60e01b81526001600160a01b0390911690632c388d5d906129c6908590600401613c76565b600060405180830381600087803b1580156129e057600080fd5b505af11580156129f4573d6000803e3d6000fd5b50506005546040516000805160206141a28339815191529350610862925085916001600160a01b031690613c8a565b60055460405163256462d760e11b81526001600160a01b0390911690634ac8c5ae90612a53908590600401613c76565b600060405180830381600087803b158015612a6d57600080fd5b505af1158015612a81573d6000803e3d6000fd5b505060055460405160008051602061418283398151915293506108fc925085916001600160a01b031690613c8a565b6004805460405163d81bfa8960e01b815233926001600160a01b039092169163d81bfa8991612ae191859101613c76565b602060405180830381600087803b158015612afb57600080fd5b505af1158015612b0f573d6000803e3d6000fd5b505050506040513d601f19601f82011682018060405250810190612b339190613a08565b612b4f5760405162461bcd60e51b81526004016104c890613e34565b8367ffffffffffffffff168367ffffffffffffffff16834283118015612b7457504282115b8015612b7f57508282115b8015612b935750670de0b6b3a76400008111155b612baf5760405162461bcd60e51b81526004016104c890613f46565b6001546040516351457a7960e01b81526001600160a01b03909116906351457a7990612be99033908d908d908d908d908d90600401613cc8565b600060405180830381600087803b158015612c0357600080fd5b505af1158015612c17573d6000803e3d6000fd5b505050506000600160009054906101000a90046001600160a01b03166001600160a01b0316637cae395c6040518163ffffffff1660e01b815260040160206040518083038186803b158015612c6b57600080fd5b505afa158015612c7f573d6000803e3d6000fd5b505050506040513d601f19601f82011682018060405250810190612ca39190613c14565b9050336001600160a01b0316817fcdeb997dbca377041bba7c578038dfab13810fcfbae90890faf81289e73c44fa8a8a604051612ce1929190614090565b60405180910390a350505050505050505050565b6000546001600160a01b03163314612d1f5760405162461bcd60e51b81526004016104c890613fa1565b600180546001600160a01b03199081166001600160a01b0389811691909117909255600280548216888416179055600380548216878416179055600480548216868416178082556005805484168786161790556006805490931685851617909255604051635a2449a960e01b81529190921691635a2449a991612da491339101613c76565b600060405180830381600087803b158015612dbe57600080fd5b505af1158015612dd2573d6000803e3d6000fd5b505060048054604051636c66623d60e11b81526001600160a01b03909116935063d8ccc47a9250612e0591339101613c76565b600060405180830381600087803b158015612e1f57600080fd5b505af1158015612e33573d6000803e3d6000fd5b50505050505050505050565b6000546001600160a01b03163314612e695760405162461bcd60e51b81526004016104c890613fa1565b600080546001600160a01b0319166001600160a01b0392909216919091179055565b6006546040516370a0823160e01b815233916000916001600160a01b03909116906370a0823190612ec0908590600401613c76565b60206040518083038186803b158015612ed857600080fd5b505afa158015612eec573d6000803e3d6000fd5b505050506040513d601f19601f82011682018060405250810190612f109190613c14565b11612f2d5760405162461bcd60e51b81526004016104c890614006565b6003546006546040516370a0823160e01b81526001600160a01b039283169263fb0a33459233928792909116906370a0823190612f6e908590600401613c76565b60206040518083038186803b158015612f8657600080fd5b505afa158015612f9a573d6000803e3d6000fd5b505050506040513d601f19601f82011682018060405250810190612fbe9190613c14565b6040518463ffffffff1660e01b8152600401612fdc93929190613d3f565b600060405180830381600087803b158015612ff657600080fd5b505af115801561300a573d6000803e3d6000fd5b505050506000600360009054906101000a90046001600160a01b03166001600160a01b031663ca5c1b4f6040518163ffffffff1660e01b815260040160206040518083038186803b15801561305e57600080fd5b505afa158015613072573d6000803e3d6000fd5b505050506040513d601f19601f820116820180604052508101906130969190613c14565b9050807f64fbcd9e09bbe38142bda2568f59b9acf2836226b32dd6413ba53ff27b2a9946846040516130c8919061403d565b60405180910390a2604051339082907f0450a2b5feaa1ee53edb36ef2d8854b1a508547d111e43b5b1ead1b090a5daa290600090a3505050565b6001546040516342fd730160e11b815282916000916001600160a01b03909116906385fae6029061313790859060040161403d565b60806040518083038186803b15801561314f57600080fd5b505afa158015613163573d6000803e3d6000fd5b505050506040513d601f19601f820116820180604052508101906131879190613c2c565b5050600154604051633a4396cb60e01b81529293506000926001600160a01b039091169150633a4396cb906131c090859060040161403d565b60006040518083038186803b1580156131d857600080fd5b505afa1580156131ec573d6000803e3d6000fd5b505050506040513d6000823e601f3d908101601f191682016040526132149190810190613abb565b505050955050505050508061323b5760405162461bcd60e51b81526004016104c890613f74565b6001546040516342fd730160e11b815285916000916001600160a01b03909116906385fae6029061327090859060040161403d565b60806040518083038186803b15801561328857600080fd5b505afa15801561329c573d6000803e3d6000fd5b505050506040513d601f19601f820116820180604052508101906132c09190613c2c565b50925050506001600160a01b03811633146132ed5760405162461bcd60e51b81526004016104c890613dfd565b6001546040516342fd730160e11b815287916000916001600160a01b03909116906385fae6029061332290859060040161403d565b60806040518083038186803b15801561333a57600080fd5b505afa15801561334e573d6000803e3d6000fd5b505050506040513d601f19601f820116820180604052508101906133729190613c2c565b935050505080156133955760405162461bcd60e51b81526004016104c890613f02565b6001546040516342fd730160e11b815260009182916001600160a01b03909116906385fae602906133ca908d9060040161403d565b60806040518083038186803b1580156133e257600080fd5b505afa1580156133f6573d6000803e3d6000fd5b505050506040513d601f19601f8201168201806040525081019061341a9190613c2c565b5050600154604051633a4396cb60e01b81529294509092506000916001600160a01b0390911690633a4396cb9061345590869060040161403d565b60006040518083038186803b15801561346d57600080fd5b505afa158015613481573d6000803e3d6000fd5b505050506040513d6000823e601f3d908101601f191682016040526134a99190810190613abb565b50509650505050505050600160009054906101000a90046001600160a01b03166001600160a01b03166326b517468c6040518263ffffffff1660e01b81526004016134f4919061403d565b600060405180830381600087803b15801561350e57600080fd5b505af1158015613522573d6000803e3d6000fd5b505050506000600160009054906101000a90046001600160a01b03166001600160a01b031663d48b06b86040518163ffffffff1660e01b815260040160206040518083038186803b15801561357657600080fd5b505afa15801561358a573d6000803e3d6000fd5b505050506040513d601f19601f820116820180604052508101906135ae9190613c14565b6001549091506001600160a01b0316630b3377156135cc83866136b3565b6040518263ffffffff1660e01b81526004016135e8919061403d565b600060405180830381600087803b15801561360257600080fd5b505af1158015613616573d6000803e3d6000fd5b505050506000613625846136d7565b604051909150339082156108fc029083906000818181858888f19350505050158015613655573d6000803e3d6000fd5b508c836001600160a01b0316336001600160a01b03167f8bcc9e02955c4d671e14fe3bd5031c47f36b1591d090a4c7df99aa82d830d783888860405161369c929190614082565b60405180910390a450505050505050505050505050565b60006136bf8284614102565b9392505050565b600190565b60006136bf82846140ab565b600080600260009054906101000a90046001600160a01b03166001600160a01b031663fde0c4636040518163ffffffff1660e01b815260040160206040518083038186803b15801561372857600080fd5b505afa15801561373c573d6000803e3d6000fd5b505050506040513d601f19601f820116820180604052508101906137609190613c14565b9050613777606461377185846138fa565b90613906565b9150505b919050565b60015460408051631a9160d760e31b815290516000926001600160a01b03169163d48b06b8916004808301926020929190829003018186803b1580156137c557600080fd5b505afa1580156137d9573d6000803e3d6000fd5b505050506040513d601f19601f820116820180604052508101906137fd9190613c14565b6001549091506001600160a01b0316630b33771561381b83856136cb565b6040518263ffffffff1660e01b8152600401613837919061403d565b600060405180830381600087803b15801561385157600080fd5b505af1158015613865573d6000803e3d6000fd5b505050505050565b60006104246002600660009054906101000a90046001600160a01b03166001600160a01b03166318160ddd6040518163ffffffff1660e01b815260040160206040518083038186803b1580156138c257600080fd5b505afa1580156138d6573d6000803e3d6000fd5b505050506040513d601f19601f820116820180604052508101906137719190613c14565b60006136bf82846140e3565b60006136bf82846140c3565b805161377b81614145565b805161377b8161415d565b805161377b8161416b565b600060208284031215613944578081fd5b81356136bf81614145565b60008060008060008060c08789031215613967578182fd5b863561397281614145565b9550602087013561398281614145565b9450604087013561399281614145565b935060608701356139a281614145565b925060808701356139b281614145565b915060a08701356139c281614145565b809150509295509295509295565b600080604083850312156139e2578182fd5b82356139ed81614145565b915060208301356139fd8161415d565b809150509250929050565b600060208284031215613a19578081fd5b81516136bf8161415d565b600080600080600060808688031215613a3b578081fd5b853567ffffffffffffffff80821115613a52578283fd5b818801915088601f830112613a65578283fd5b813581811115613a73578384fd5b896020828501011115613a84578384fd5b60209283019750955050860135613a9a8161416b565b92506040860135613aaa8161416b565b949793965091946060013592915050565b60008060008060008060008060006101208a8c031215613ad9578283fd5b895167ffffffffffffffff80821115613af0578485fd5b818c0191508c601f830112613b03578485fd5b815181811115613b1557613b1561412f565b604051601f8201601f191681016020018381118282101715613b3957613b3961412f565b6040528181528382016020018f1015613b50578687fd5b8692505b81831015613b75576020838501015160208483010152602083019250613b54565b81831115613b865786602083830101525b9b50613b989250505060208b01613928565b9750613ba660408b01613928565b9650613bb460608b01613928565b9550613bc260808b01613928565b9450613bd060a08b0161391d565b9350613bde60c08b01613912565b925060e08a015191506101008a015190509295985092959850929598565b600060208284031215613c0d578081fd5b5035919050565b600060208284031215613c25578081fd5b5051919050565b60008060008060808587031215613c41578384fd5b84519350602085015192506040850151613c5a81614145565b6060860151909250613c6b8161415d565b939692955090935050565b6001600160a01b0391909116815260200190565b6001600160a01b0392831681529116602082015260400190565b6001600160a01b039384168152919092166020820152604081019190915260600190565b6001600160a01b038716815260a06020820181905281018590526000858760c084013760c086830181019190915267ffffffffffffffff94851660408301529290931660608401526080830152601f909201601f1916010192915050565b6001600160a01b03929092168252602082015260400190565b6001600160a01b039390931683526020830191909152604082015260600190565b92151583526001600160a01b03919091166020830152604082015260600190565b6020808252601e908201527f696e636f7272656374206665652073656e7420746f20636f6e74726163740000604082015260600190565b60208082526025908201527f73656e742076616c756520646f6573206e6f74206d6174636820666c69676874604082015264207261746560d81b606082015260800190565b6020808252601e908201527f63616c6c6572206d75737420626520696e737572616e6365206f776e65720000604082015260600190565b6020808252602b908201527f63616c6c6572206d7573742062652061637469766174656420696e737572616e60408201526a31b290383937bb34b232b960a91b606082015260800190565b6020808252601f908201527f666c6967687420646570617274757265206d7573742062652066757475726500604082015260600190565b6020808252602c908201527f63757272656e742066756e6473206d75737420636f766572206e657720696e7360408201526b7572616e63652076616c756560a01b606082015260800190565b60208082526024908201527f696e737572616e6365206d757374206e6f742068617665206265656e20636c616040820152631a5b595960e21b606082015260800190565b602080825260149082015273199b1a59da1d081b5d5cdd081899481d985b1a5960621b604082015260600190565b602080825260139082015272666c69676874206d757374206265206c61746560681b604082015260600190565b60208082526014908201527331b0b63632b91036bab9ba1031329037bbb732b960611b604082015260600190565b60208082526018908201527f63616c6c65722068617320616c726561647920766f7465640000000000000000604082015260600190565b6020808252601b908201527f63616c6c6572206d75737420626520746f6b656e20686f6c6465720000000000604082015260600190565b90815260200190565b9384526001600160a01b0392909216602084015215156040830152606082015260800190565b9283529015156020830152604082015260600190565b918252602082015260400190565b67ffffffffffffffff92831681529116602082015260400190565b600082198211156140be576140be614119565b500190565b6000826140de57634e487b7160e01b81526012600452602481fd5b500490565b60008160001904831182151516156140fd576140fd614119565b500290565b60008282101561411457614114614119565b500390565b634e487b7160e01b600052601160045260246000fd5b634e487b7160e01b600052604160045260246000fd5b6001600160a01b038116811461415a57600080fd5b50565b801515811461415a57600080fd5b67ffffffffffffffff8116811461415a57600080fdfe536dd9ef8353592a3222696b33828a6c11514bfd0c484dbdfd16491b4a82f8d81c9c420420e76ae7ad733b7098eb1fa04a2293da0cfbd31297ea505568760ebca26469706673582212207a260ab86685cfc69d9fb5e380f693d715adb46e0dbcb23358b232198969370464736f6c63430008000033",
  "immutableReferences": {},
  "source": "// SPDX-License-Identifier: UNLICENSED\npragma solidity ^0.8.00;\n\nimport \"./interfaces/IFlightSuretyData.sol\";\nimport \"./interfaces/IInsuranceCoverageAmendmentProposal.sol\";\nimport \"./interfaces/IMembershipFeeAmendmentProposal.sol\";\nimport \"./interfaces/IInsuranceProviderRole.sol\";\nimport \"./interfaces/IOracleProviderRole.sol\";\nimport \"./interfaces/IFlightSuretyOracle.sol\";\nimport \"./interfaces/IFlightSuretyShares.sol\";\nimport \"../Ownable/Ownable.sol\";\nimport \"@openzeppelin/contracts/utils/math/SafeMath.sol\";\n\ncontract FlightSuretyApp is Ownable {\n    using SafeMath for uint256;\n    // insurance providers related events\n    event RegisteredInsuranceProvider(address indexed insuranceProvider);\n    event ActivatedInsuranceProvider(address indexed insuranceProvider);\n    event RemovedInsuranceProvider(address indexed insuranceProvider);\n    event NewVoteInsuranceProvider(\n        address indexed voter,\n        bool indexed side,\n        address indexed votee\n    );\n\n    // oracle providers related events\n    event RegisteredOracleProvider(address indexed oracleProvider);\n    event ActivatedOracleProvider(address indexed oracleProvider);\n    event RemovedOracleProvider(address indexed oracleProvider);\n    event NewVoteOracleProvider(\n        address indexed voter,\n        bool indexed side,\n        address indexed votee\n    );\n\n    // flights related events\n    event NewFlight(\n        uint256 indexed flightID,\n        address indexed insuranceProvider,\n        uint256 estimatedDeparture,\n        uint256 estimatedArrival\n    );\n\n    // insurances related events\n    event NewInsurance(\n        address indexed passenger,\n        address indexed insuranceProvider,\n        uint256 indexed insuranceID,\n        uint256 flightID,\n        uint256 insuredValue\n    );\n\n    event NewPayout(\n        address indexed owner,\n        address indexed insuranceProvider,\n        uint256 indexed insuranceID,\n        uint256 flightID,\n        uint256 insuredValue\n    );\n\n    // settings amendment proposal related events\n    event NewMembershipFeeAmendmentProposal(\n        uint256 indexed proposalID,\n        uint256 proposedMembershipFee\n    );\n    event NewVoteMembershipFeeAmendmentProposal(\n        uint256 indexed proposalID,\n        address indexed voter\n    );\n    event ActivatedMembershipFeeAmendmentProposal(\n        uint256 indexed proposalID,\n        uint256 lockedMembershipFee\n    );\n    event NewInsuranceCoverageAmendmentProposal(\n        uint256 indexed proposalID,\n        uint256 insuranceCoverage\n    );\n    event ActivatedInsuranceCoverageAmendmentProposal(\n        uint256 indexed proposalID,\n        uint256 insuranceCoverage\n    );\n    event NewVoteInsuranceCoverageAmendmentProposal(\n        uint256 indexed proposalID,\n        address indexed voter\n    );\n\n    // authorize caller related events\n    event AuthorizedCaller(address caller, address contractAddress);\n    event UnauthorizedCaller(address caller, address contractAddress);\n\n    IFlightSuretyData flightSuretyData;\n    IInsuranceCoverageAmendmentProposal insuranceCoverageAmendmentProposal;\n    IMembershipFeeAmendmentProposal membershipFeeAmendmentProposal;\n    IInsuranceProviderRole insuranceProviderRole;\n    IOracleProviderRole oracleProviderRole;\n    IFlightSuretyShares flightSuretyShares;\n\n    // settings amendment proposals related checks\n\n    modifier requireTokenHolderHasNotVotedInsuranceCoverageAmendmentProposal(\n        address _caller,\n        uint256 _proposalID\n    ) {\n        require(\n            !insuranceCoverageAmendmentProposal\n                .hasVotedInsuranceCoverageAmendmentProposal(\n                    _caller,\n                    _proposalID\n                ),\n            \"caller has already voted\"\n        );\n        _;\n    }\n\n    modifier requireTokenHolderHasNotVotedMembershipFeeAmendmentProposal(\n        address _caller,\n        uint256 _proposalID\n    ) {\n        require(\n            !membershipFeeAmendmentProposal\n                .hasVotedMembershipFeeAmendmentProposal(_caller, _proposalID),\n            \"caller has already voted\"\n        );\n        _;\n    }\n\n    // flights related checks\n\n    modifier requireValidFlight(\n        uint256 estimatedDeparture,\n        uint256 estimatedArrival,\n        uint256 rate\n    ) {\n        require(\n            estimatedDeparture > block.timestamp &&\n                estimatedArrival > block.timestamp &&\n                estimatedArrival > estimatedDeparture &&\n                rate <= 1 ether,\n            \"flight must be valid\"\n        );\n        _;\n    }\n\n    // insurances related checks\n\n    modifier requireMessageValueGreatherOrEqualToFlightRate(uint256 _flightID) {\n        (, , , , , , , , uint256 rate) = flightSuretyData.getFlight(_flightID);\n        require(msg.value >= rate, \"sent value does not match flight rate\");\n        uint256 amountDue = rate - msg.value;\n        _;\n        payable(msg.sender).transfer(amountDue);\n    }\n\n    modifier requireFutureFlight(uint256 _flightID) {\n        (, uint64 estimatedDeparture, , , , , , , ) = flightSuretyData\n            .getFlight(_flightID);\n        require(\n            estimatedDeparture > block.timestamp,\n            \"flight departure must be future\"\n        );\n        _;\n    }\n\n    modifier requireFlightIsLate(uint256 _insuranceID) {\n        (uint256 flightID, , , ) = flightSuretyData.getInsurance(_insuranceID);\n        (, , , , , bool isLate, , , ) = flightSuretyData.getFlight(flightID);\n        require(isLate, \"flight must be late\");\n        _;\n    }\n\n    modifier onlyInsuranceIsNotClaimed(uint256 _insuranceID) {\n        (, , , bool claimed) = flightSuretyData.getInsurance(_insuranceID);\n        require(!claimed, \"insurance must not have been claimed\");\n        _;\n    }\n    modifier onlyInsuranceOwner(uint256 _insuranceID) {\n        (, , address owner, ) = flightSuretyData.getInsurance(_insuranceID);\n        require(msg.sender == owner, \"caller must be insurance owner\");\n        _;\n    }\n\n    modifier requireTotalInsuredValueCoverage(uint256 newInsuranceValue) {\n        uint256 totalFundsWithCoverage = _calculateInsuredValueBenefits(\n            flightSuretyData.getTotalInsuredValue().add(newInsuranceValue)\n        );\n        require(\n            totalFundsWithCoverage <= address(this).balance,\n            \"current funds must cover new insurance value\"\n        );\n        _;\n    }\n\n    // membership fee checks\n\n    modifier requireMembershipFee() {\n        uint256 _currentMembershipFee = membershipFeeAmendmentProposal\n            .getCurrentMembershipFee();\n        require(\n            msg.value >= _currentMembershipFee,\n            \"incorrect fee sent to contract\"\n        );\n\n        if (msg.value > _currentMembershipFee) {\n            payable(address(this)).transfer(\n                msg.value.sub(_currentMembershipFee)\n            );\n        }\n        _;\n    }\n\n    // common roles checks\n\n    modifier onlyActivatedProvider(address _caller) {\n        require(\n            insuranceProviderRole.isActivatedInsuranceProvider(_caller) ||\n                oracleProviderRole.isActivatedOracleProvider(_caller),\n            \"caller must be activated provider\"\n        );\n        _;\n    }\n\n    modifier onlyTokenHolder(address _caller) {\n        require(\n            flightSuretyShares.balanceOf(_caller) > 0,\n            \"caller must be token holder\"\n        );\n        _;\n    }\n\n    // insurance providers checks\n\n    modifier onlyRegisteredInsuranceProvider(address _caller) {\n        require(\n            insuranceProviderRole.isRegisteredInsuranceProvider(_caller),\n            \"caller must be insurance provider\"\n        );\n        _;\n    }\n\n    modifier onlyActivatedInsuranceProvider(address _caller) {\n        require(\n            insuranceProviderRole.isActivatedInsuranceProvider(_caller),\n            \"caller must be activated insurance provider\"\n        );\n        _;\n    }\n\n    modifier requireTokenHolderHasNotVotedInsuranceProviderMembership(\n        address _caller,\n        address _account\n    ) {\n        require(\n            !insuranceProviderRole.hasVotedInsuranceProviderMembership(\n                _account,\n                _caller\n            ),\n            \"caller has already voted\"\n        );\n        _;\n    }\n\n    // oracle providers checks\n\n    modifier onlyRegisteredOracleProvider(address _caller) {\n        require(\n            oracleProviderRole.isRegisteredOracleProvider(_caller),\n            \"caller must be oracle provider\"\n        );\n        _;\n    }\n\n    modifier onlyActivatedOracleProvider(address _caller) {\n        require(\n            oracleProviderRole.isActivatedOracleProvider(_caller),\n            \"caller is not activated oracle provider\"\n        );\n        _;\n    }\n\n    modifier requireTokenHolderHasNotVotedOracleProviderMembership(\n        address _caller,\n        address _account\n    ) {\n        require(\n            !oracleProviderRole.hasVotedOracleProviderMembership(\n                _account,\n                _caller\n            ),\n            \"caller has already voted\"\n        );\n        _;\n    }\n\n    constructor() Ownable() {}\n\n    // initialize external contracts addresses\n    function initialize(\n        address _flightSuretyData,\n        address _insuranceCoverageAmendmentProposal,\n        address _membershipFeeAmendmentProposal,\n        address _insuranceProviderRole,\n        address _oracleProviderRole,\n        address _flightSuretyShares\n    ) external onlyOwner {\n        // registering external contracts address\n        flightSuretyData = IFlightSuretyData(_flightSuretyData);\n        insuranceCoverageAmendmentProposal = IInsuranceCoverageAmendmentProposal(\n            _insuranceCoverageAmendmentProposal\n        );\n        membershipFeeAmendmentProposal = IMembershipFeeAmendmentProposal(\n            _membershipFeeAmendmentProposal\n        );\n        insuranceProviderRole = IInsuranceProviderRole(_insuranceProviderRole);\n        oracleProviderRole = IOracleProviderRole(_oracleProviderRole);\n        flightSuretyShares = IFlightSuretyShares(_flightSuretyShares);\n        // make the contract owner a registered insurance provider\n        insuranceProviderRole.addInsuranceProvider(msg.sender);\n        // make the contract owner an activated insurance provider\n        insuranceProviderRole.activateInsuranceProvider(msg.sender);\n    }\n\n    /* external contracts calls management */\n\n    function updateAuthorizedCallerFlightSuretyData(\n        address _authorizedCaller,\n        bool _access\n    ) external onlyOwner {\n        if (_access) {\n            flightSuretyData.authorizeCaller(_authorizedCaller);\n            emit AuthorizedCaller(_authorizedCaller, address(flightSuretyData));\n        } else {\n            flightSuretyData.unauthorizeCaller(_authorizedCaller);\n            emit UnauthorizedCaller(\n                _authorizedCaller,\n                address(flightSuretyData)\n            );\n        }\n    }\n\n    function updateAuthorizedCallerInsuranceCoverageAmendmentProposal(\n        address _authorizedCaller,\n        bool _access\n    ) external onlyOwner {\n        if (_access) {\n            insuranceCoverageAmendmentProposal.authorizeCaller(\n                _authorizedCaller\n            );\n            emit AuthorizedCaller(\n                _authorizedCaller,\n                address(insuranceCoverageAmendmentProposal)\n            );\n        } else {\n            insuranceCoverageAmendmentProposal.unauthorizeCaller(\n                _authorizedCaller\n            );\n            emit UnauthorizedCaller(\n                _authorizedCaller,\n                address(insuranceCoverageAmendmentProposal)\n            );\n        }\n    }\n\n    function updateAuthorizedCallerMembershipFeeAmendmentProposal(\n        address _authorizedCaller,\n        bool _access\n    ) external onlyOwner {\n        if (_access) {\n            membershipFeeAmendmentProposal.authorizeCaller(_authorizedCaller);\n            emit AuthorizedCaller(\n                _authorizedCaller,\n                address(membershipFeeAmendmentProposal)\n            );\n        } else {\n            membershipFeeAmendmentProposal.unauthorizeCaller(_authorizedCaller);\n            emit UnauthorizedCaller(\n                _authorizedCaller,\n                address(membershipFeeAmendmentProposal)\n            );\n        }\n    }\n\n    function updateAuthorizedCallerInsuranceProviderRole(\n        address _authorizedCaller,\n        bool _access\n    ) external onlyOwner {\n        if (_access) {\n            insuranceProviderRole.authorizeCaller(_authorizedCaller);\n            emit AuthorizedCaller(\n                _authorizedCaller,\n                address(insuranceProviderRole)\n            );\n        } else {\n            insuranceProviderRole.unauthorizeCaller(_authorizedCaller);\n            emit UnauthorizedCaller(\n                _authorizedCaller,\n                address(insuranceProviderRole)\n            );\n        }\n    }\n\n    function updateAuthorizedCallerOracleProviderRole(\n        address _authorizedCaller,\n        bool _access\n    ) external onlyOwner {\n        if (_access) {\n            oracleProviderRole.authorizeCaller(_authorizedCaller);\n            emit AuthorizedCaller(\n                _authorizedCaller,\n                address(oracleProviderRole)\n            );\n        } else {\n            oracleProviderRole.unauthorizeCaller(_authorizedCaller);\n            emit UnauthorizedCaller(\n                _authorizedCaller,\n                address(oracleProviderRole)\n            );\n        }\n    }\n\n    function updateAuthorizedCallerFlighSuretyShares(\n        address _authorizedCaller,\n        bool _access\n    ) external onlyOwner {\n        if (_access) {\n            flightSuretyShares.authorizeCaller(_authorizedCaller);\n            emit AuthorizedCaller(\n                _authorizedCaller,\n                address(flightSuretyShares)\n            );\n        } else {\n            flightSuretyShares.unauthorizeCaller(_authorizedCaller);\n            emit UnauthorizedCaller(\n                _authorizedCaller,\n                address(flightSuretyShares)\n            );\n        }\n    }\n\n    /* providers registrations */\n\n    // insurance providers\n\n    function registerInsuranceProvider() external payable requireMembershipFee {\n        insuranceProviderRole.addInsuranceProvider(msg.sender);\n        uint256 registeredInsuranceProviderCount = insuranceProviderRole\n            .getRegisteredInsuranceProvidersCount();\n        if (registeredInsuranceProviderCount <= 4) {\n            insuranceProviderRole.activateInsuranceProvider(msg.sender);\n            uint256 sharesToMint = _calculateSharesToMint();\n            flightSuretyShares.mint(msg.sender, sharesToMint);\n            emit RegisteredInsuranceProvider(msg.sender);\n            emit ActivatedInsuranceProvider(msg.sender);\n        } else {\n            emit RegisteredInsuranceProvider(msg.sender);\n        }\n    }\n\n    // oracle providers\n\n    function registerOracleProvider() external payable requireMembershipFee {\n        oracleProviderRole.addOracleProvider(msg.sender);\n        uint256 registeredOracleProviderCount = oracleProviderRole\n            .getRegisteredOracleProvidersCount();\n        if (registeredOracleProviderCount <= 4) {\n            oracleProviderRole.activateOracleProvider(msg.sender);\n            uint256 sharesToMint = _calculateSharesToMint();\n            flightSuretyShares.mint(msg.sender, sharesToMint);\n            emit RegisteredOracleProvider(msg.sender);\n            emit ActivatedOracleProvider(msg.sender);\n        } else {\n            emit RegisteredOracleProvider(msg.sender);\n        }\n    }\n\n    /* votes providers */\n\n    // insurance providers\n\n    function voteInsuranceProviderMembership(address _account)\n        external\n        onlyTokenHolder(msg.sender)\n        requireTokenHolderHasNotVotedInsuranceProviderMembership(\n            msg.sender,\n            _account\n        )\n    {\n        insuranceProviderRole.voteInsuranceProviderMembership(\n            msg.sender,\n            _account,\n            flightSuretyShares.balanceOf(msg.sender)\n        );\n        bool consensusCheck = insuranceProviderRole\n            .hasReachedConsensusInsuranceProviderMembership(\n                true,\n                _account,\n                _calculateProvidersConsensusTreshold()\n            );\n        if (consensusCheck) {\n            insuranceProviderRole.activateInsuranceProvider(_account);\n            uint256 sharesToMint = _calculateSharesToMint();\n            flightSuretyShares.mint(_account, sharesToMint);\n            emit NewVoteInsuranceProvider(msg.sender, true, _account);\n            emit ActivatedInsuranceProvider(_account);\n        } else {\n            emit NewVoteInsuranceProvider(msg.sender, true, _account);\n        }\n    }\n\n    // oracle providers\n\n    function voteOracleProviderMembership(address _account)\n        external\n        onlyTokenHolder(msg.sender)\n        requireTokenHolderHasNotVotedOracleProviderMembership(\n            msg.sender,\n            _account\n        )\n    {\n        oracleProviderRole.voteOracleProviderMembership(\n            msg.sender,\n            _account,\n            flightSuretyShares.balanceOf(msg.sender)\n        );\n        bool consensusCheck = oracleProviderRole\n            .hasReachedConsensusOracleProviderMembership(\n                true,\n                _account,\n                _calculateProvidersConsensusTreshold()\n            );\n        if (consensusCheck) {\n            oracleProviderRole.activateOracleProvider(_account);\n            uint256 sharesToMint = _calculateSharesToMint();\n            flightSuretyShares.mint(_account, sharesToMint);\n            emit NewVoteOracleProvider(msg.sender, true, _account);\n            emit ActivatedOracleProvider(_account);\n        } else {\n            emit NewVoteOracleProvider(msg.sender, true, _account);\n        }\n    }\n\n    /* flights management */\n\n    function registerFlight(\n        string calldata _flightRef,\n        uint64 _estimatedDeparture,\n        uint64 _estimatedArrival,\n        uint256 _rate\n    )\n        external\n        onlyActivatedInsuranceProvider(msg.sender)\n        requireValidFlight(_estimatedDeparture, _estimatedArrival, _rate)\n    {\n        flightSuretyData.registerFlight(\n            msg.sender,\n            _flightRef,\n            _estimatedDeparture,\n            _estimatedArrival,\n            _rate\n        );\n        uint256 flightID = flightSuretyData.getCurrentFlightID();\n        emit NewFlight(\n            flightID,\n            msg.sender,\n            _estimatedDeparture,\n            _estimatedArrival\n        );\n    }\n\n    /* insurances management */\n\n    function registerInsurance(uint256 _flightID)\n        external\n        payable\n        requireFutureFlight(_flightID)\n        requireMessageValueGreatherOrEqualToFlightRate(_flightID)\n        requireTotalInsuredValueCoverage(msg.value)\n    {\n        // fetch flight rate\n        (\n            ,\n            ,\n            ,\n            ,\n            ,\n            ,\n            address insuranceProvider,\n            ,\n            uint256 rate\n        ) = flightSuretyData.getFlight(_flightID);\n        // create insurance for the caller\n        flightSuretyData.insure(msg.sender, _flightID, rate);\n        // update total insured value  (locking up funds to be sure to be able to cover all funds locked up in contract)\n        _incrementTotalInsuredValue(rate);\n        uint256 insuranceID = flightSuretyData.getCurrentInsuranceID();\n        emit NewInsurance(\n            msg.sender,\n            insuranceProvider,\n            insuranceID,\n            _flightID,\n            rate\n        );\n    }\n\n    function claimInsurance(uint256 _insuranceID)\n        external\n        payable\n        requireFlightIsLate(_insuranceID)\n        onlyInsuranceOwner(_insuranceID)\n        onlyInsuranceIsNotClaimed(_insuranceID)\n    {\n        // fetch the insurance insured value\n        (uint256 flightID, uint256 insuredValue, , ) = flightSuretyData\n            .getInsurance(_insuranceID);\n        // fetch the flight data\n        (, , , , , , address insuranceProvider, , ) = flightSuretyData\n            .getFlight(flightID);\n        // update insurance to claimed\n        flightSuretyData.setInsuranceToClaimed(_insuranceID);\n        // update total insured value as funds are about to be sent (unlocking funds to take new insurance contracts)\n        uint256 currentTotalInsuredValue = flightSuretyData\n            .getTotalInsuredValue();\n        flightSuretyData.setTotalInsuredValue(\n            currentTotalInsuredValue.sub(insuredValue)\n        );\n        // calculate the amount to transfer according to the insurance coverage policy\n        uint256 amountToTransfer = _calculateInsuredValueBenefits(insuredValue);\n        payable(msg.sender).transfer(amountToTransfer);\n        emit NewPayout(\n            msg.sender,\n            insuranceProvider,\n            _insuranceID,\n            flightID,\n            insuredValue\n        );\n    }\n\n    /* Settings amendment proposals*/\n\n    // fetch the current membership fee\n    function currentMembershipFee() external view returns (uint256) {\n        return membershipFeeAmendmentProposal.getCurrentMembershipFee();\n    }\n\n    // fetch the current insurance coverage ratio\n    function currentInsuranceCoverageRatio() external view returns (uint256) {\n        return insuranceCoverageAmendmentProposal.getCurrentInsuranceCoverage();\n    }\n\n    // membership fee amendment proposals\n\n    function registerMembershipFeeAmendmentProposal(uint256 _proposedValue)\n        external\n        onlyTokenHolder(msg.sender)\n    {\n        membershipFeeAmendmentProposal.registerMembershipFeeAmendmentProposal(\n            msg.sender,\n            _proposedValue,\n            flightSuretyShares.balanceOf(msg.sender)\n        );\n        uint256 _proposalID = membershipFeeAmendmentProposal\n            .getMembershipFeeAmendmentProposalCurrentProposalID();\n        emit NewMembershipFeeAmendmentProposal(_proposalID, _proposedValue);\n        emit NewVoteMembershipFeeAmendmentProposal(_proposalID, msg.sender);\n    }\n\n    function voteMembershipFeeAmendmentProposal(uint256 _proposalID)\n        external\n        onlyTokenHolder(msg.sender)\n        requireTokenHolderHasNotVotedMembershipFeeAmendmentProposal(\n            msg.sender,\n            _proposalID\n        )\n    {\n        membershipFeeAmendmentProposal.voteMembershipFeeAmendmentProposal(\n            _proposalID,\n            msg.sender,\n            true,\n            flightSuretyShares.balanceOf(msg.sender)\n        );\n        bool consensusCheck = membershipFeeAmendmentProposal\n            .hasMembershipFeeAmendmentProposalReachedConsensus(\n                _proposalID,\n                true,\n                _calculateProvidersConsensusTreshold()\n            );\n        if (consensusCheck) {\n            membershipFeeAmendmentProposal\n                .activateMembershipFeeAmendmentProposal(_proposalID);\n            uint256 lockedMembershipFee = membershipFeeAmendmentProposal\n                .getCurrentMembershipFee();\n            emit NewVoteMembershipFeeAmendmentProposal(_proposalID, msg.sender);\n            emit ActivatedMembershipFeeAmendmentProposal(\n                _proposalID,\n                lockedMembershipFee\n            );\n        } else {\n            emit NewVoteMembershipFeeAmendmentProposal(_proposalID, msg.sender);\n        }\n    }\n\n    // insurance coverage amendment proposal\n\n    function registerInsuranceCoverageAmendmentProposal(uint256 _proposedValue)\n        external\n        onlyTokenHolder(msg.sender)\n    {\n        insuranceCoverageAmendmentProposal\n            .registerInsuranceCoverageAmendmentProposal(\n                msg.sender,\n                _proposedValue,\n                flightSuretyShares.balanceOf(msg.sender)\n            );\n        uint256 _proposalID = insuranceCoverageAmendmentProposal\n            .getInsuranceCoverageAmendmentCurrentProposalID();\n        emit NewInsuranceCoverageAmendmentProposal(_proposalID, _proposedValue);\n        emit NewVoteInsuranceCoverageAmendmentProposal(_proposalID, msg.sender);\n    }\n\n    function voteInsuranceCoverageAmendmentProposal(uint256 _proposalID)\n        external\n        onlyTokenHolder(msg.sender)\n        requireTokenHolderHasNotVotedInsuranceCoverageAmendmentProposal(\n            msg.sender,\n            _proposalID\n        )\n    {\n        insuranceCoverageAmendmentProposal\n            .voteInsuranceCoverageAmendmentProposal(\n                _proposalID,\n                msg.sender,\n                true,\n                flightSuretyShares.balanceOf(msg.sender)\n            );\n        bool consensusCheck = insuranceCoverageAmendmentProposal\n            .hasInsuranceCoverageAmendmentProposalReachedConsensus(\n                _proposalID,\n                true,\n                _calculateProvidersConsensusTreshold()\n            );\n        if (consensusCheck) {\n            insuranceCoverageAmendmentProposal\n                .activateInsuranceCoverageAmendmentProposal(_proposalID);\n            uint256 insuranceCoverage = insuranceCoverageAmendmentProposal\n                .getCurrentInsuranceCoverage();\n            emit NewVoteInsuranceCoverageAmendmentProposal(\n                _proposalID,\n                msg.sender\n            );\n            emit ActivatedInsuranceCoverageAmendmentProposal(\n                _proposalID,\n                insuranceCoverage\n            );\n        } else {\n            emit NewVoteInsuranceCoverageAmendmentProposal(\n                _proposalID,\n                msg.sender\n            );\n        }\n    }\n\n    function _incrementTotalInsuredValue(uint256 _addedValue) internal {\n        uint256 currentTotalInsuredValue = flightSuretyData\n            .getTotalInsuredValue();\n        flightSuretyData.setTotalInsuredValue(\n            currentTotalInsuredValue.add(_addedValue)\n        );\n    }\n\n    function _calculateInsuredValueBenefits(uint256 initialValue)\n        internal\n        view\n        returns (uint256 insuredValueCoverage)\n    {\n        uint256 currentInsuranceCoverage = insuranceCoverageAmendmentProposal\n            .getCurrentInsuranceCoverage();\n        return initialValue.mul(currentInsuranceCoverage).div(100);\n    }\n\n    function _calculateProvidersConsensusTreshold()\n        internal\n        view\n        returns (uint256 providersConsensusTreshold)\n    {\n        return flightSuretyShares.totalSupply().div(2);\n    }\n\n    function _calculateSharesToMint()\n        internal\n        pure\n        returns (uint256 sharesToMint)\n    {\n        return 1;\n    }\n}\n",
  "sourcePath": "/home/tothemoon_/Documents/FlightInsurance/contracts/FlightSuretyApp/FlightSuretyApp.sol",
  "compiler": {
    "name": "solc",
    "version": "0.8.0+commit.c7dfd78e.Emscripten.clang"
  },
  "schemaVersion": "3.4.2",
  "updatedAt": "2021-08-10T13:22:48.106Z",
  "networkType": "ethereum",
  "devdoc": {
    "kind": "dev",
    "methods": {},
    "version": 1
  },
  "userdoc": {
    "kind": "user",
    "methods": {},
    "version": 1
  }
}