{
  "contractName": "FlightSuretyApp",
  "abi": [
    {
      "inputs": [
        {
          "internalType": "uint256",
          "name": "_tokenHolderMinBlockRequirement",
          "type": "uint256"
        },
        {
          "internalType": "uint256",
          "name": "_proposalValidBlockNum",
          "type": "uint256"
        }
      ],
      "stateMutability": "nonpayable",
      "type": "constructor"
    },
    {
      "anonymous": false,
      "inputs": [
        {
          "indexed": true,
          "internalType": "uint256",
          "name": "proposalID",
          "type": "uint256"
        },
        {
          "indexed": false,
          "internalType": "uint256",
          "name": "insuranceCoverage",
          "type": "uint256"
        }
      ],
      "name": "ActivatedInsuranceCoverageAmendmentProposal",
      "type": "event"
    },
    {
      "anonymous": false,
      "inputs": [
        {
          "indexed": true,
          "internalType": "address",
          "name": "insuranceProvider",
          "type": "address"
        }
      ],
      "name": "ActivatedInsuranceProvider",
      "type": "event"
    },
    {
      "anonymous": false,
      "inputs": [
        {
          "indexed": true,
          "internalType": "uint256",
          "name": "proposalID",
          "type": "uint256"
        },
        {
          "indexed": false,
          "internalType": "uint256",
          "name": "lockedMembershipFee",
          "type": "uint256"
        }
      ],
      "name": "ActivatedMembershipFeeAmendmentProposal",
      "type": "event"
    },
    {
      "anonymous": false,
      "inputs": [
        {
          "indexed": true,
          "internalType": "address",
          "name": "oracleProvider",
          "type": "address"
        }
      ],
      "name": "ActivatedOracleProvider",
      "type": "event"
    },
    {
      "anonymous": false,
      "inputs": [
        {
          "indexed": true,
          "internalType": "address",
          "name": "contractOwner",
          "type": "address"
        },
        {
          "indexed": false,
          "internalType": "address",
          "name": "caller",
          "type": "address"
        },
        {
          "indexed": false,
          "internalType": "address",
          "name": "contractAddress",
          "type": "address"
        }
      ],
      "name": "AuthorizedCaller",
      "type": "event"
    },
    {
      "anonymous": false,
      "inputs": [
        {
          "indexed": true,
          "internalType": "address",
          "name": "insuranceProvider",
          "type": "address"
        },
        {
          "indexed": false,
          "internalType": "uint256",
          "name": "amount",
          "type": "uint256"
        }
      ],
      "name": "FundedInsuranceProvider",
      "type": "event"
    },
    {
      "anonymous": false,
      "inputs": [
        {
          "indexed": true,
          "internalType": "uint256",
          "name": "flightID",
          "type": "uint256"
        },
        {
          "indexed": true,
          "internalType": "address",
          "name": "insuranceProvider",
          "type": "address"
        },
        {
          "indexed": false,
          "internalType": "uint256",
          "name": "estimatedDeparture",
          "type": "uint256"
        },
        {
          "indexed": false,
          "internalType": "uint256",
          "name": "estimatedArrival",
          "type": "uint256"
        },
        {
          "indexed": false,
          "internalType": "string",
          "name": "flightRef",
          "type": "string"
        },
        {
          "indexed": false,
          "internalType": "uint256",
          "name": "rate",
          "type": "uint256"
        }
      ],
      "name": "NewFlight",
      "type": "event"
    },
    {
      "anonymous": false,
      "inputs": [
        {
          "indexed": true,
          "internalType": "address",
          "name": "passenger",
          "type": "address"
        },
        {
          "indexed": true,
          "internalType": "address",
          "name": "insuranceProvider",
          "type": "address"
        },
        {
          "indexed": true,
          "internalType": "uint256",
          "name": "insuranceID",
          "type": "uint256"
        },
        {
          "indexed": false,
          "internalType": "uint256",
          "name": "flightID",
          "type": "uint256"
        },
        {
          "indexed": false,
          "internalType": "uint256",
          "name": "insuredValue",
          "type": "uint256"
        }
      ],
      "name": "NewInsurance",
      "type": "event"
    },
    {
      "anonymous": false,
      "inputs": [
        {
          "indexed": true,
          "internalType": "uint256",
          "name": "proposalID",
          "type": "uint256"
        },
        {
          "indexed": true,
          "internalType": "address",
          "name": "caller",
          "type": "address"
        },
        {
          "indexed": false,
          "internalType": "uint256",
          "name": "insuranceCoverage",
          "type": "uint256"
        }
      ],
      "name": "NewInsuranceCoverageAmendmentProposal",
      "type": "event"
    },
    {
      "anonymous": false,
      "inputs": [
        {
          "indexed": true,
          "internalType": "uint256",
          "name": "proposalID",
          "type": "uint256"
        },
        {
          "indexed": true,
          "internalType": "address",
          "name": "caller",
          "type": "address"
        },
        {
          "indexed": false,
          "internalType": "uint256",
          "name": "proposedMembershipFee",
          "type": "uint256"
        }
      ],
      "name": "NewMembershipFeeAmendmentProposal",
      "type": "event"
    },
    {
      "anonymous": false,
      "inputs": [
        {
          "indexed": true,
          "internalType": "address",
          "name": "owner",
          "type": "address"
        },
        {
          "indexed": true,
          "internalType": "address",
          "name": "insuranceProvider",
          "type": "address"
        },
        {
          "indexed": true,
          "internalType": "uint256",
          "name": "flightID",
          "type": "uint256"
        },
        {
          "indexed": false,
          "internalType": "uint256",
          "name": "insuredValue",
          "type": "uint256"
        },
        {
          "indexed": false,
          "internalType": "uint256",
          "name": "insuranceID",
          "type": "uint256"
        }
      ],
      "name": "NewPayout",
      "type": "event"
    },
    {
      "anonymous": false,
      "inputs": [
        {
          "indexed": true,
          "internalType": "uint256",
          "name": "proposalID",
          "type": "uint256"
        },
        {
          "indexed": true,
          "internalType": "address",
          "name": "voter",
          "type": "address"
        }
      ],
      "name": "NewVoteInsuranceCoverageAmendmentProposal",
      "type": "event"
    },
    {
      "anonymous": false,
      "inputs": [
        {
          "indexed": true,
          "internalType": "address",
          "name": "voter",
          "type": "address"
        },
        {
          "indexed": true,
          "internalType": "bool",
          "name": "side",
          "type": "bool"
        },
        {
          "indexed": true,
          "internalType": "address",
          "name": "votee",
          "type": "address"
        }
      ],
      "name": "NewVoteInsuranceProvider",
      "type": "event"
    },
    {
      "anonymous": false,
      "inputs": [
        {
          "indexed": true,
          "internalType": "uint256",
          "name": "proposalID",
          "type": "uint256"
        },
        {
          "indexed": true,
          "internalType": "address",
          "name": "voter",
          "type": "address"
        }
      ],
      "name": "NewVoteMembershipFeeAmendmentProposal",
      "type": "event"
    },
    {
      "anonymous": false,
      "inputs": [
        {
          "indexed": true,
          "internalType": "address",
          "name": "voter",
          "type": "address"
        },
        {
          "indexed": true,
          "internalType": "bool",
          "name": "side",
          "type": "bool"
        },
        {
          "indexed": true,
          "internalType": "address",
          "name": "votee",
          "type": "address"
        }
      ],
      "name": "NewVoteOracleProvider",
      "type": "event"
    },
    {
      "anonymous": false,
      "inputs": [
        {
          "indexed": true,
          "internalType": "address",
          "name": "account",
          "type": "address"
        },
        {
          "indexed": false,
          "internalType": "uint256",
          "name": "tokenAmount",
          "type": "uint256"
        },
        {
          "indexed": false,
          "internalType": "uint256",
          "name": "tokenValue",
          "type": "uint256"
        }
      ],
      "name": "RedeemedToken",
      "type": "event"
    },
    {
      "anonymous": false,
      "inputs": [
        {
          "indexed": true,
          "internalType": "address",
          "name": "insuranceProvider",
          "type": "address"
        },
        {
          "indexed": true,
          "internalType": "address",
          "name": "caller",
          "type": "address"
        }
      ],
      "name": "RegisteredInsuranceProvider",
      "type": "event"
    },
    {
      "anonymous": false,
      "inputs": [
        {
          "indexed": true,
          "internalType": "address",
          "name": "oracleProvider",
          "type": "address"
        }
      ],
      "name": "RegisteredOracleProvider",
      "type": "event"
    },
    {
      "anonymous": false,
      "inputs": [
        {
          "indexed": true,
          "internalType": "address",
          "name": "insuranceProvider",
          "type": "address"
        }
      ],
      "name": "RemovedInsuranceProvider",
      "type": "event"
    },
    {
      "anonymous": false,
      "inputs": [
        {
          "indexed": true,
          "internalType": "address",
          "name": "oracleProvider",
          "type": "address"
        }
      ],
      "name": "RemovedOracleProvider",
      "type": "event"
    },
    {
      "anonymous": false,
      "inputs": [
        {
          "indexed": true,
          "internalType": "address",
          "name": "contractOwner",
          "type": "address"
        },
        {
          "indexed": false,
          "internalType": "address",
          "name": "caller",
          "type": "address"
        },
        {
          "indexed": false,
          "internalType": "address",
          "name": "contractAddress",
          "type": "address"
        }
      ],
      "name": "UnauthorizedCaller",
      "type": "event"
    },
    {
      "inputs": [],
      "name": "destructContract",
      "outputs": [],
      "stateMutability": "nonpayable",
      "type": "function"
    },
    {
      "inputs": [],
      "name": "isOwner",
      "outputs": [
        {
          "internalType": "bool",
          "name": "_isOwner",
          "type": "bool"
        }
      ],
      "stateMutability": "view",
      "type": "function",
      "constant": true
    },
    {
      "inputs": [],
      "name": "proposalValidBlockNum",
      "outputs": [
        {
          "internalType": "uint256",
          "name": "",
          "type": "uint256"
        }
      ],
      "stateMutability": "view",
      "type": "function",
      "constant": true
    },
    {
      "inputs": [],
      "name": "tokenHolderMinBlockRequirement",
      "outputs": [
        {
          "internalType": "uint256",
          "name": "",
          "type": "uint256"
        }
      ],
      "stateMutability": "view",
      "type": "function",
      "constant": true
    },
    {
      "inputs": [
        {
          "internalType": "address",
          "name": "_newOwner",
          "type": "address"
        }
      ],
      "name": "transferOwnership",
      "outputs": [],
      "stateMutability": "nonpayable",
      "type": "function"
    },
    {
      "inputs": [
        {
          "internalType": "address",
          "name": "_flightSuretyData",
          "type": "address"
        },
        {
          "internalType": "address",
          "name": "_insuranceCoverageAmendmentProposal",
          "type": "address"
        },
        {
          "internalType": "address",
          "name": "_membershipFeeAmendmentProposal",
          "type": "address"
        },
        {
          "internalType": "address",
          "name": "_insuranceProviderRole",
          "type": "address"
        },
        {
          "internalType": "address",
          "name": "_oracleProviderRole",
          "type": "address"
        },
        {
          "internalType": "address",
          "name": "_flightSuretyShares",
          "type": "address"
        }
      ],
      "name": "initialize",
      "outputs": [],
      "stateMutability": "nonpayable",
      "type": "function"
    },
    {
      "inputs": [
        {
          "internalType": "bool",
          "name": "_operationnal",
          "type": "bool"
        }
      ],
      "name": "setOperationnal",
      "outputs": [],
      "stateMutability": "nonpayable",
      "type": "function"
    },
    {
      "inputs": [
        {
          "internalType": "address",
          "name": "_authorizedCaller",
          "type": "address"
        },
        {
          "internalType": "bool",
          "name": "_access",
          "type": "bool"
        }
      ],
      "name": "updateAuthorizedCallerFlightSuretyData",
      "outputs": [],
      "stateMutability": "nonpayable",
      "type": "function"
    },
    {
      "inputs": [
        {
          "internalType": "address",
          "name": "_authorizedCaller",
          "type": "address"
        },
        {
          "internalType": "bool",
          "name": "_access",
          "type": "bool"
        }
      ],
      "name": "updateAuthorizedCallerInsuranceCoverageAmendmentProposal",
      "outputs": [],
      "stateMutability": "nonpayable",
      "type": "function"
    },
    {
      "inputs": [
        {
          "internalType": "address",
          "name": "_authorizedCaller",
          "type": "address"
        },
        {
          "internalType": "bool",
          "name": "_access",
          "type": "bool"
        }
      ],
      "name": "updateAuthorizedCallerMembershipFeeAmendmentProposal",
      "outputs": [],
      "stateMutability": "nonpayable",
      "type": "function"
    },
    {
      "inputs": [
        {
          "internalType": "address",
          "name": "_authorizedCaller",
          "type": "address"
        },
        {
          "internalType": "bool",
          "name": "_access",
          "type": "bool"
        }
      ],
      "name": "updateAuthorizedCallerInsuranceProviderRole",
      "outputs": [],
      "stateMutability": "nonpayable",
      "type": "function"
    },
    {
      "inputs": [
        {
          "internalType": "address",
          "name": "_authorizedCaller",
          "type": "address"
        },
        {
          "internalType": "bool",
          "name": "_access",
          "type": "bool"
        }
      ],
      "name": "updateAuthorizedCallerOracleProviderRole",
      "outputs": [],
      "stateMutability": "nonpayable",
      "type": "function"
    },
    {
      "inputs": [
        {
          "internalType": "address",
          "name": "_authorizedCaller",
          "type": "address"
        },
        {
          "internalType": "bool",
          "name": "_access",
          "type": "bool"
        }
      ],
      "name": "updateAuthorizedCallerFlighSuretyShares",
      "outputs": [],
      "stateMutability": "nonpayable",
      "type": "function"
    },
    {
      "inputs": [
        {
          "internalType": "address",
          "name": "account",
          "type": "address"
        }
      ],
      "name": "registerInsuranceProvider",
      "outputs": [],
      "stateMutability": "nonpayable",
      "type": "function"
    },
    {
      "inputs": [],
      "name": "fundInsuranceProvider",
      "outputs": [],
      "stateMutability": "payable",
      "type": "function",
      "payable": true
    },
    {
      "inputs": [],
      "name": "registerOracleProvider",
      "outputs": [],
      "stateMutability": "payable",
      "type": "function",
      "payable": true
    },
    {
      "inputs": [
        {
          "internalType": "address",
          "name": "_account",
          "type": "address"
        }
      ],
      "name": "voteInsuranceProviderMembership",
      "outputs": [],
      "stateMutability": "nonpayable",
      "type": "function"
    },
    {
      "inputs": [
        {
          "internalType": "address",
          "name": "_account",
          "type": "address"
        }
      ],
      "name": "voteOracleProviderMembership",
      "outputs": [],
      "stateMutability": "nonpayable",
      "type": "function"
    },
    {
      "inputs": [
        {
          "internalType": "string",
          "name": "_flightRef",
          "type": "string"
        },
        {
          "internalType": "uint64",
          "name": "_estimatedDeparture",
          "type": "uint64"
        },
        {
          "internalType": "uint64",
          "name": "_estimatedArrival",
          "type": "uint64"
        },
        {
          "internalType": "uint256",
          "name": "_rate",
          "type": "uint256"
        }
      ],
      "name": "registerFlight",
      "outputs": [],
      "stateMutability": "nonpayable",
      "type": "function"
    },
    {
      "inputs": [
        {
          "internalType": "uint256",
          "name": "_flightID",
          "type": "uint256"
        }
      ],
      "name": "getFlightInitialData",
      "outputs": [
        {
          "internalType": "string",
          "name": "flightRef",
          "type": "string"
        },
        {
          "internalType": "uint64",
          "name": "estimatedDeparture",
          "type": "uint64"
        },
        {
          "internalType": "uint64",
          "name": "estimatedArrival",
          "type": "uint64"
        },
        {
          "internalType": "address",
          "name": "insuranceProvider",
          "type": "address"
        },
        {
          "internalType": "uint256",
          "name": "rate",
          "type": "uint256"
        }
      ],
      "stateMutability": "view",
      "type": "function",
      "constant": true
    },
    {
      "inputs": [
        {
          "internalType": "uint256",
          "name": "_flightID",
          "type": "uint256"
        }
      ],
      "name": "getFlightSettlementData",
      "outputs": [
        {
          "internalType": "string",
          "name": "flightRef",
          "type": "string"
        },
        {
          "internalType": "uint64",
          "name": "realDeparture",
          "type": "uint64"
        },
        {
          "internalType": "uint64",
          "name": "realArrival",
          "type": "uint64"
        },
        {
          "internalType": "bool",
          "name": "isLate",
          "type": "bool"
        },
        {
          "internalType": "address",
          "name": "insuranceProvider",
          "type": "address"
        },
        {
          "internalType": "uint256",
          "name": "insuredValue",
          "type": "uint256"
        }
      ],
      "stateMutability": "view",
      "type": "function",
      "constant": true
    },
    {
      "inputs": [
        {
          "internalType": "uint256",
          "name": "_flightID",
          "type": "uint256"
        }
      ],
      "name": "registerInsurance",
      "outputs": [],
      "stateMutability": "payable",
      "type": "function",
      "payable": true
    },
    {
      "inputs": [
        {
          "internalType": "uint256",
          "name": "_insuranceID",
          "type": "uint256"
        }
      ],
      "name": "claimInsurance",
      "outputs": [],
      "stateMutability": "payable",
      "type": "function",
      "payable": true
    },
    {
      "inputs": [],
      "name": "currentMembershipFee",
      "outputs": [
        {
          "internalType": "uint256",
          "name": "",
          "type": "uint256"
        }
      ],
      "stateMutability": "view",
      "type": "function",
      "constant": true
    },
    {
      "inputs": [],
      "name": "currentInsuranceCoverageRatio",
      "outputs": [
        {
          "internalType": "uint256",
          "name": "",
          "type": "uint256"
        }
      ],
      "stateMutability": "view",
      "type": "function",
      "constant": true
    },
    {
      "inputs": [
        {
          "internalType": "uint256",
          "name": "_proposedValue",
          "type": "uint256"
        }
      ],
      "name": "registerMembershipFeeAmendmentProposal",
      "outputs": [],
      "stateMutability": "nonpayable",
      "type": "function"
    },
    {
      "inputs": [
        {
          "internalType": "uint256",
          "name": "_proposalID",
          "type": "uint256"
        }
      ],
      "name": "voteMembershipFeeAmendmentProposal",
      "outputs": [],
      "stateMutability": "nonpayable",
      "type": "function"
    },
    {
      "inputs": [
        {
          "internalType": "uint256",
          "name": "_proposedValue",
          "type": "uint256"
        }
      ],
      "name": "registerInsuranceCoverageAmendmentProposal",
      "outputs": [],
      "stateMutability": "nonpayable",
      "type": "function"
    },
    {
      "inputs": [
        {
          "internalType": "uint256",
          "name": "_proposalID",
          "type": "uint256"
        }
      ],
      "name": "voteInsuranceCoverageAmendmentProposal",
      "outputs": [],
      "stateMutability": "nonpayable",
      "type": "function"
    },
    {
      "inputs": [],
      "name": "getOracleIndexes",
      "outputs": [
        {
          "internalType": "uint256",
          "name": "index1",
          "type": "uint256"
        },
        {
          "internalType": "uint256",
          "name": "index2",
          "type": "uint256"
        },
        {
          "internalType": "uint256",
          "name": "index3",
          "type": "uint256"
        }
      ],
      "stateMutability": "view",
      "type": "function",
      "constant": true
    },
    {
      "inputs": [],
      "name": "redeemToken",
      "outputs": [],
      "stateMutability": "nonpayable",
      "type": "function"
    }
  ],
  "bytecode": "0x60806040523480156200001157600080fd5b5060405162005c0e38038062005c0e833981016040819052620000349162000064565b6000805460ff60a01b196001600160a01b0319909116331716600160a01b17905560019190915560025562000088565b6000806040838503121562000077578182fd5b505080516020909101519092909150565b615b7680620000986000396000f3fe6080604052600436106101d85760003560e01c80636de994c511610102578063bbab516611610095578063cc2a9a5b11610064578063cc2a9a5b146104ff578063f2fde38b1461051f578063f55f66511461053f578063f85920d81461055f576101d8565b8063bbab51661461047f578063be3781141461049f578063c7aa2628146104bf578063ca51f664146104df576101d8565b806397a10723116100d157806397a1072314610411578063a6c131fb14610442578063ab54139814610462578063ab9269a514610477576101d8565b80636de994c51461039a5780638a4fa7f0146103ba5780638f32d59b146103da5780639499e018146103fc576101d8565b80632f310bad1161017a5780635ed5207b116101495780635ed5207b146103205780635eeb2d881461034057806366fa5e85146103725780636c54813414610392576101d8565b80632f310bad146102ab578063383da363146102c057806342f3cc5f146102e0578063554a75ca14610300576101d8565b8063210870bb116101b6578063210870bb146102415780632600fc9b1461026357806327a5fe7e146102765780632e24a3ea14610296576101d8565b806304a11de7146101dd578063175a2ead146102085780631abbc6101461022c575b600080fd5b3480156101e957600080fd5b506101f2610572565b6040516101ff9190615954565b60405180910390f35b34801561021457600080fd5b5061021d6105ff565b6040516101ff939291906159a7565b34801561023857600080fd5b506101f261073a565b34801561024d57600080fd5b5061026161025c366004614f43565b61077f565b005b610261610271366004615166565b6108eb565b34801561028257600080fd5b50610261610291366004614f43565b610d71565b3480156102a257600080fd5b506101f2610ec3565b3480156102b757600080fd5b50610261610ec9565b3480156102cc57600080fd5b506102616102db366004615166565b611303565b3480156102ec57600080fd5b506102616102fb366004614ea6565b611935565b34801561030c57600080fd5b5061026161031b366004614f43565b611fb5565b34801561032c57600080fd5b5061026161033b366004614f43565b612105565b34801561034c57600080fd5b5061036061035b366004615166565b612257565b6040516101ff969594939291906153b3565b34801561037e57600080fd5b5061026161038d366004615166565b612301565b610261612900565b3480156103a657600080fd5b506102616103b5366004614ea6565b612cae565b3480156103c657600080fd5b506102616103d5366004615166565b612e0f565b3480156103e657600080fd5b506103ef6130bd565b6040516101ff919061533d565b34801561040857600080fd5b506102616130ce565b34801561041d57600080fd5b5061043161042c366004615166565b613106565b6040516101ff959493929190615369565b34801561044e57600080fd5b5061026161045d366004614f7b565b6131ab565b34801561046e57600080fd5b506101f26131e1565b6102616131e7565b34801561048b57600080fd5b5061026161049a366004614f43565b613755565b3480156104ab57600080fd5b506102616104ba366004614ea6565b6138a7565b3480156104cb57600080fd5b506102616104da366004614f43565b613e12565b3480156104eb57600080fd5b506102616104fa366004614fb3565b613f64565b34801561050b57600080fd5b5061026161051a366004614ec2565b6141d5565b34801561052b57600080fd5b5061026161053a366004614ea6565b614379565b34801561054b57600080fd5b5061026161055a366004615166565b6143c5565b61026161056d366004615166565b614675565b6000600460009054906101000a90046001600160a01b03166001600160a01b031663fde0c4636040518163ffffffff1660e01b815260040160206040518083038186803b1580156105c257600080fd5b505afa1580156105d6573d6000803e3d6000fd5b505050506040513d601f19601f820116820180604052508101906105fa919061517e565b905090565b60075460405163775cbd8d60e01b81526000918291829133916001600160a01b039091169063775cbd8d90610638908490600401615266565b60206040518083038186803b15801561065057600080fd5b505afa158015610664573d6000803e3d6000fd5b505050506040513d601f19601f820116820180604052508101906106889190614f97565b6106ad5760405162461bcd60e51b81526004016106a490615811565b60405180910390fd5b6007546040516321addc4d60e11b81526001600160a01b039091169063435bb89a906106dd903390600401615266565b60606040518083038186803b1580156106f557600080fd5b505afa158015610709573d6000803e3d6000fd5b505050506040513d601f19601f8201168201806040525081019061072d91906151e0565b9195509350915050909192565b600554604080516332393eb760e21b815290516000926001600160a01b03169163c8e4fadc916004808301926020929190829003018186803b1580156105c257600080fd5b6000546001600160a01b031633146107a95760405162461bcd60e51b81526004016106a49061576a565b801561084d57600854604051632c388d5d60e01b81526001600160a01b0390911690632c388d5d906107df908590600401615266565b600060405180830381600087803b1580156107f957600080fd5b505af115801561080d573d6000803e3d6000fd5b5050600854604051339350600080516020615b0183398151915292506108409186916001600160a01b039091169061527a565b60405180910390a26108e7565b60085460405163256462d760e11b81526001600160a01b0390911690634ac8c5ae9061087d908590600401615266565b600060405180830381600087803b15801561089757600080fd5b505af11580156108ab573d6000803e3d6000fd5b5050600854604051339350600080516020615b2183398151915292506108de9186916001600160a01b039091169061527a565b60405180910390a25b5050565b600054600160a01b900460ff166109145760405162461bcd60e51b81526004016106a4906158b8565b600354604051633a4396cb60e01b815282916000916001600160a01b0390911690633a4396cb90610949908590600401615954565b60006040518083038186803b15801561096157600080fd5b505afa158015610975573d6000803e3d6000fd5b505050506040513d6000823e601f3d908101601f1916820160405261099d919081019061504a565b50505050505050915050428167ffffffffffffffff16116109d05760405162461bcd60e51b81526004016106a490615648565b600354604051633a4396cb60e01b815284916000916001600160a01b0390911690633a4396cb90610a05908590600401615954565b60006040518083038186803b158015610a1d57600080fd5b505afa158015610a31573d6000803e3d6000fd5b505050506040513d6000823e601f3d908101601f19168201604052610a59919081019061504a565b9850505050505050505080341015610a835760405162461bcd60e51b81526004016106a49061547e565b6000610a8f8234614c3b565b9050346000610b2482600360009054906101000a90046001600160a01b03166001600160a01b031663d48b06b86040518163ffffffff1660e01b815260040160206040518083038186803b158015610ae657600080fd5b505afa158015610afa573d6000803e3d6000fd5b505050506040513d601f19601f82011682018060405250810190610b1e919061517e565b90614c4e565b90506000610b3182614c5a565b905047811115610b535760405162461bcd60e51b81526004016106a49061567f565b600354604051633a4396cb60e01b815260009182916001600160a01b0390911690633a4396cb90610b88908e90600401615954565b60006040518083038186803b158015610ba057600080fd5b505afa158015610bb4573d6000803e3d6000fd5b505050506040513d6000823e601f3d908101601f19168201604052610bdc919081019061504a565b9850509750505050505050600360009054906101000a90046001600160a01b03166001600160a01b031663390fc413338d846040518463ffffffff1660e01b8152600401610c2c9392919061531c565b600060405180830381600087803b158015610c4657600080fd5b505af1158015610c5a573d6000803e3d6000fd5b50505050610c6781614cf0565b600354604080516317291e0560e11b815290516000926001600160a01b031691632e523c0a916004808301926020929190829003018186803b158015610cac57600080fd5b505afa158015610cc0573d6000803e3d6000fd5b505050506040513d601f19601f82011682018060405250810190610ce4919061517e565b905080836001600160a01b0316336001600160a01b03167f92de6a95faf2432685c9d5eaf71891cadcf05e0b18ec223068412a8cb52ebb608f86604051610d2c929190615999565b60405180910390a4505060405133945085156108fc02935085925090506000818181858888f19350505050158015610d68573d6000803e3d6000fd5b50505050505050565b6000546001600160a01b03163314610d9b5760405162461bcd60e51b81526004016106a49061576a565b8015610e3257600354604051632c388d5d60e01b81526001600160a01b0390911690632c388d5d90610dd1908590600401615266565b600060405180830381600087803b158015610deb57600080fd5b505af1158015610dff573d6000803e3d6000fd5b5050600354604051339350600080516020615b0183398151915292506108409186916001600160a01b039091169061527a565b60035460405163256462d760e11b81526001600160a01b0390911690634ac8c5ae90610e62908590600401615266565b600060405180830381600087803b158015610e7c57600080fd5b505af1158015610e90573d6000803e3d6000fd5b5050600354604051339350600080516020615b2183398151915292506108de9186916001600160a01b039091169061527a565b60015481565b6008546040516370a0823160e01b815233916000916001600160a01b03909116906370a0823190610efe908590600401615266565b60206040518083038186803b158015610f1657600080fd5b505afa158015610f2a573d6000803e3d6000fd5b505050506040513d601f19601f82011682018060405250810190610f4e919061517e565b905060008111610f705760405162461bcd60e51b81526004016106a490615881565b60085460405163aaef854760e01b815233916001600160a01b03169063aaef854790610fa0908490600401615266565b60206040518083038186803b158015610fb857600080fd5b505afa158015610fcc573d6000803e3d6000fd5b505050506040513d601f19601f82011682018060405250810190610ff0919061517e565b43101561100f5760405162461bcd60e51b81526004016106a4906157cf565b60035460408051631a9160d760e31b8152905147926000926001600160a01b039091169163d48b06b891600480820192602092909190829003018186803b15801561105957600080fd5b505afa15801561106d573d6000803e3d6000fd5b505050506040513d601f19601f82011682018060405250810190611091919061517e565b90506000600860009054906101000a90046001600160a01b03166001600160a01b03166318160ddd6040518163ffffffff1660e01b815260040160206040518083038186803b1580156110e357600080fd5b505afa1580156110f7573d6000803e3d6000fd5b505050506040513d601f19601f8201168201806040525081019061111b919061517e565b6008546040516370a0823160e01b81529192506000916001600160a01b03909116906370a0823190611151903390600401615266565b60206040518083038186803b15801561116957600080fd5b505afa15801561117d573d6000803e3d6000fd5b505050506040513d601f19601f820116820180604052508101906111a1919061517e565b905060006111b0858585614ddd565b905060006111be8383614df5565b600854604051632770a7eb60e21b81529192506001600160a01b031690639dc29fac906111f19033908790600401615303565b600060405180830381600087803b15801561120b57600080fd5b505af115801561121f573d6000803e3d6000fd5b50506008546040516340c10f1960e01b81526001600160a01b0390911692506340c10f1991506112559033908790600401615303565b600060405180830381600087803b15801561126f57600080fd5b505af1158015611283573d6000803e3d6000fd5b505060405133925083156108fc02915083906000818181858888f193505050501580156112b4573d6000803e3d6000fd5b50336001600160a01b03167f5c9b0a8fe13a826ca676f5ad4f98c747b5086beb79ab58589b8211b62fa32fb984836040516112f0929190615999565b60405180910390a2505050505050505050565b600054600160a01b900460ff1661132c5760405162461bcd60e51b81526004016106a4906158b8565b6008546040516370a0823160e01b815233916000916001600160a01b03909116906370a0823190611361908590600401615266565b60206040518083038186803b15801561137957600080fd5b505afa15801561138d573d6000803e3d6000fd5b505050506040513d601f19601f820116820180604052508101906113b1919061517e565b9050600081116113d35760405162461bcd60e51b81526004016106a490615881565b600854604051631bb7b02160e11b81523391600091611461916001600160a01b03169063376f60429061140a908690600401615266565b60206040518083038186803b15801561142257600080fd5b505afa158015611436573d6000803e3d6000fd5b505050506040513d601f19601f8201168201806040525081019061145a919061517e565b4390614c3b565b90506001548110156114855760405162461bcd60e51b81526004016106a49061543c565b60055460405163086b7e0b60e21b8152339187916001600160a01b03909116906321adf82c906114bb9085908590600401615303565b60206040518083038186803b1580156114d357600080fd5b505afa1580156114e7573d6000803e3d6000fd5b505050506040513d601f19601f8201168201806040525081019061150b9190614f97565b156115285760405162461bcd60e51b81526004016106a490615798565b600554604051632992774b60e01b815288916000916001600160a01b0390911690632992774b9061155d908590600401615954565b60206040518083038186803b15801561157557600080fd5b505afa158015611589573d6000803e3d6000fd5b505050506040513d601f19601f820116820180604052508101906115ad9190614f97565b905080156115cd5760405162461bcd60e51b81526004016106a4906158ef565b600554604051635d7eb9d360e11b81528a91600091611604916001600160a01b03169063bafd73a69061140a908690600401615954565b90506002548111156116285760405162461bcd60e51b81526004016106a49061591d565b6005546008546040516370a0823160e01b81526001600160a01b039283169263785e7c10928f92339260019216906370a082319061166a908590600401615266565b60206040518083038186803b15801561168257600080fd5b505afa158015611696573d6000803e3d6000fd5b505050506040513d601f19601f820116820180604052508101906116ba919061517e565b6040518563ffffffff1660e01b81526004016116d9949392919061595d565b600060405180830381600087803b1580156116f357600080fd5b505af1158015611707573d6000803e3d6000fd5b5050600554600092506001600160a01b0316905063b83c24be8d600161172b614e01565b6040518463ffffffff1660e01b815260040161174993929190615983565b60206040518083038186803b15801561176157600080fd5b505afa158015611775573d6000803e3d6000fd5b505050506040513d601f19601f820116820180604052508101906117999190614f97565b905080156118f95760055460405163020df34960e41b81526001600160a01b03909116906320df3490906117d1908f90600401615954565b600060405180830381600087803b1580156117eb57600080fd5b505af11580156117ff573d6000803e3d6000fd5b505050506000600560009054906101000a90046001600160a01b03166001600160a01b031663c8e4fadc6040518163ffffffff1660e01b815260040160206040518083038186803b15801561185357600080fd5b505afa158015611867573d6000803e3d6000fd5b505050506040513d601f19601f8201168201806040525081019061188b919061517e565b60405190915033908e907f0450a2b5feaa1ee53edb36ef2d8854b1a508547d111e43b5b1ead1b090a5daa290600090a38c7f1b454f919e7ff592d633a0d62845314e86de1463aa34dea4aab7c0ab6945a73d826040516118eb9190615954565b60405180910390a250611927565b60405133908d907f0450a2b5feaa1ee53edb36ef2d8854b1a508547d111e43b5b1ead1b090a5daa290600090a35b505050505050505050505050565b600054600160a01b900460ff1661195e5760405162461bcd60e51b81526004016106a4906158b8565b60065460405163d81bfa8960e01b815233916001600160a01b03169063d81bfa899061198e908490600401615266565b60206040518083038186803b1580156119a657600080fd5b505afa1580156119ba573d6000803e3d6000fd5b505050506040513d601f19601f820116820180604052508101906119de9190614f97565b6119fa5760405162461bcd60e51b81526004016106a4906155fd565b6008546040516370a0823160e01b815233916000916001600160a01b03909116906370a0823190611a2f908590600401615266565b60206040518083038186803b158015611a4757600080fd5b505afa158015611a5b573d6000803e3d6000fd5b505050506040513d601f19601f82011682018060405250810190611a7f919061517e565b905060008111611aa15760405162461bcd60e51b81526004016106a490615881565b600854604051631bb7b02160e11b81523391600091611ad8916001600160a01b03169063376f60429061140a908690600401615266565b9050600154811015611afc5760405162461bcd60e51b81526004016106a49061543c565b6006546040516283c70f60e31b8152339188916001600160a01b039091169063041e387890611b31908490869060040161527a565b60206040518083038186803b158015611b4957600080fd5b505afa158015611b5d573d6000803e3d6000fd5b505050506040513d601f19601f82011682018060405250810190611b819190614f97565b15611b9e5760405162461bcd60e51b81526004016106a490615798565b60065460405163d81bfa8960e01b815289916001600160a01b03169063d81bfa8990611bce908490600401615266565b60206040518083038186803b158015611be657600080fd5b505afa158015611bfa573d6000803e3d6000fd5b505050506040513d601f19601f82011682018060405250810190611c1e9190614f97565b15611c3b5760405162461bcd60e51b81526004016106a490615572565b6006546008546040516370a0823160e01b81526001600160a01b0392831692637cd913159233928e92909116906370a0823190611c7c908590600401615266565b60206040518083038186803b158015611c9457600080fd5b505afa158015611ca8573d6000803e3d6000fd5b505050506040513d601f19601f82011682018060405250810190611ccc919061517e565b6040518463ffffffff1660e01b8152600401611cea93929190615294565b600060405180830381600087803b158015611d0457600080fd5b505af1158015611d18573d6000803e3d6000fd5b505060065460408051631dc549a960e31b81529051600094506001600160a01b03909216925063c287a648916001918e91611db591600291879163ee2a4d48916004808301926020929190829003018186803b158015611d7757600080fd5b505afa158015611d8b573d6000803e3d6000fd5b505050506040513d601f19601f82011682018060405250810190611daf919061517e565b90614e56565b6040518463ffffffff1660e01b8152600401611dd393929190615348565b60206040518083038186803b158015611deb57600080fd5b505afa158015611dff573d6000803e3d6000fd5b505050506040513d601f19601f82011682018060405250810190611e239190614f97565b90508015611f6f57600654604051636c66623d60e11b81526001600160a01b039091169063d8ccc47a90611e5b908d90600401615266565b600060405180830381600087803b158015611e7557600080fd5b505af1158015611e89573d6000803e3d6000fd5b505050506000611e97614e62565b6008546040516340c10f1960e01b81529192506001600160a01b0316906340c10f1990611eca908e908590600401615303565b600060405180830381600087803b158015611ee457600080fd5b505af1158015611ef8573d6000803e3d6000fd5b50506040516001600160a01b038e1692506001915033907fa9d2bc6dc1b37950fdc57b26b1bcc905538ce9c54a8d46b9a043b61f61d84db990600090a46040516001600160a01b038c16907f5dbffd047c48d57a7d972a24d9fe3ced4753a2b27c6b277fc905b1607ab99afe90600090a250611fa9565b6040516001600160a01b038b169060019033907fa9d2bc6dc1b37950fdc57b26b1bcc905538ce9c54a8d46b9a043b61f61d84db990600090a45b50505050505050505050565b6000546001600160a01b03163314611fdf5760405162461bcd60e51b81526004016106a49061576a565b80156120755760048054604051632c388d5d60e01b81526001600160a01b0390911691632c388d5d9161201491869101615266565b600060405180830381600087803b15801561202e57600080fd5b505af1158015612042573d6000803e3d6000fd5b5050600454604051339350600080516020615b0183398151915292506108409186916001600160a01b039091169061527a565b6004805460405163256462d760e11b81526001600160a01b0390911691634ac8c5ae916120a491869101615266565b600060405180830381600087803b1580156120be57600080fd5b505af11580156120d2573d6000803e3d6000fd5b5050600454604051339350600080516020615b2183398151915292506108de9186916001600160a01b039091169061527a565b6000546001600160a01b0316331461212f5760405162461bcd60e51b81526004016106a49061576a565b80156121c657600654604051632c388d5d60e01b81526001600160a01b0390911690632c388d5d90612165908590600401615266565b600060405180830381600087803b15801561217f57600080fd5b505af1158015612193573d6000803e3d6000fd5b5050600654604051339350600080516020615b0183398151915292506108409186916001600160a01b039091169061527a565b60065460405163256462d760e11b81526001600160a01b0390911690634ac8c5ae906121f6908590600401615266565b600060405180830381600087803b15801561221057600080fd5b505af1158015612224573d6000803e3d6000fd5b5050600654604051339350600080516020615b2183398151915292506108de9186916001600160a01b039091169061527a565b600354604051633a4396cb60e01b815260609160009182918291829182916001600160a01b0390911690633a4396cb90612295908a90600401615954565b60006040518083038186803b1580156122ad57600080fd5b505afa1580156122c1573d6000803e3d6000fd5b505050506040513d6000823e601f3d908101601f191682016040526122e9919081019061504a565b50969e939d50919b5099509750929550919350505050565b600054600160a01b900460ff1661232a5760405162461bcd60e51b81526004016106a4906158b8565b6008546040516370a0823160e01b815233916000916001600160a01b03909116906370a082319061235f908590600401615266565b60206040518083038186803b15801561237757600080fd5b505afa15801561238b573d6000803e3d6000fd5b505050506040513d601f19601f820116820180604052508101906123af919061517e565b9050600081116123d15760405162461bcd60e51b81526004016106a490615881565b600854604051631bb7b02160e11b81523391600091612408916001600160a01b03169063376f60429061140a908690600401615266565b905060015481101561242c5760405162461bcd60e51b81526004016106a49061543c565b6004805460405163a49854d960e01b8152339288926001600160a01b03169163a49854d99161245f918691869101615303565b60206040518083038186803b15801561247757600080fd5b505afa15801561248b573d6000803e3d6000fd5b505050506040513d601f19601f820116820180604052508101906124af9190614f97565b156124cc5760405162461bcd60e51b81526004016106a490615798565b6004805460405163c7e51ab760e01b815289926000926001600160a01b03169163c7e51ab7916124fe91869101615954565b60206040518083038186803b15801561251657600080fd5b505afa15801561252a573d6000803e3d6000fd5b505050506040513d601f19601f8201168201806040525081019061254e9190614f97565b9050801561256e5760405162461bcd60e51b81526004016106a4906158ef565b60048054604051635d7eb9d360e11b81528b926000926125a6926001600160a01b039091169163bafd73a69161140a91879101615954565b90506002548111156125ca5760405162461bcd60e51b81526004016106a49061591d565b600460009054906101000a90046001600160a01b03166001600160a01b0316632cb1feed8c336001600860009054906101000a90046001600160a01b03166001600160a01b03166370a08231336040518263ffffffff1660e01b81526004016126339190615266565b60206040518083038186803b15801561264b57600080fd5b505afa15801561265f573d6000803e3d6000fd5b505050506040513d601f19601f82011682018060405250810190612683919061517e565b6040518563ffffffff1660e01b81526004016126a2949392919061595d565b600060405180830381600087803b1580156126bc57600080fd5b505af11580156126d0573d6000803e3d6000fd5b5050600454600092506001600160a01b0316905063a0aea5e08d60016126f4614e01565b6040518463ffffffff1660e01b815260040161271293929190615983565b60206040518083038186803b15801561272a57600080fd5b505afa15801561273e573d6000803e3d6000fd5b505050506040513d601f19601f820116820180604052508101906127629190614f97565b905080156128c557600460009054906101000a90046001600160a01b03166001600160a01b0316634b8c27fa8d6040518263ffffffff1660e01b81526004016127ab9190615954565b600060405180830381600087803b1580156127c557600080fd5b505af11580156127d9573d6000803e3d6000fd5b505050506000600460009054906101000a90046001600160a01b03166001600160a01b031663fde0c4636040518163ffffffff1660e01b815260040160206040518083038186803b15801561282d57600080fd5b505afa158015612841573d6000803e3d6000fd5b505050506040513d601f19601f82011682018060405250810190612865919061517e565b60405190915033908e907f7906920cd6c70de2c0c6380adfa74d93af1ff8f5e5b03d1605194fef988add7990600090a38c7f13d4caf5982979691a014920086fb5cac4da0ce48f86c7b4c0d0cadbef27fae4826040516118eb9190615954565b60405133908d907f7906920cd6c70de2c0c6380adfa74d93af1ff8f5e5b03d1605194fef988add7990600090a3505050505050505050505050565b600054600160a01b900460ff166129295760405162461bcd60e51b81526004016106a4906158b8565b600554604080516332393eb760e21b815290516000926001600160a01b03169163c8e4fadc916004808301926020929190829003018186803b15801561296e57600080fd5b505afa158015612982573d6000803e3d6000fd5b505050506040513d601f19601f820116820180604052508101906129a6919061517e565b9050803410156129c85760405162461bcd60e51b81526004016106a490615405565b80341115612a5d5760006129dc3483614c3b565b90506000336001600160a01b0316826040516129f790615263565b60006040518083038185875af1925050503d8060008114612a34576040519150601f19603f3d011682016040523d82523d6000602084013e612a39565b606091505b5050905080612a5a5760405162461bcd60e51b81526004016106a490615858565b50505b60075460405163316b047d60e01b81526001600160a01b039091169063316b047d90612a8d903390600401615266565b600060405180830381600087803b158015612aa757600080fd5b505af1158015612abb573d6000803e3d6000fd5b505050506000600760009054906101000a90046001600160a01b03166001600160a01b031663d3ad53136040518163ffffffff1660e01b815260040160206040518083038186803b158015612b0f57600080fd5b505afa158015612b23573d6000803e3d6000fd5b505050506040513d601f19601f82011682018060405250810190612b47919061517e565b90506005811015612c7f576007546040516324f5341760e21b81526001600160a01b03909116906393d4d05c90612b82903390600401615266565b600060405180830381600087803b158015612b9c57600080fd5b505af1158015612bb0573d6000803e3d6000fd5b505050506000612bbe614e62565b6008546040516340c10f1960e01b81529192506001600160a01b0316906340c10f1990612bf19033908590600401615303565b600060405180830381600087803b158015612c0b57600080fd5b505af1158015612c1f573d6000803e3d6000fd5b50506040513392507f0418be85575ebac30df5dffbfd641fbbdaafb2b1806fc3637eb7062a70bed9329150600090a260405133907f5e06803b8b6ec4a58bfd8973f079830b31cbb81e939420c22febecc8acdb3f8d90600090a2506108e7565b60405133907f0418be85575ebac30df5dffbfd641fbbdaafb2b1806fc3637eb7062a70bed93290600090a25050565b600054600160a01b900460ff16612cd75760405162461bcd60e51b81526004016106a4906158b8565b60065460405163d81bfa8960e01b815233916001600160a01b03169063d81bfa8990612d07908490600401615266565b60206040518083038186803b158015612d1f57600080fd5b505afa158015612d33573d6000803e3d6000fd5b505050506040513d601f19601f82011682018060405250810190612d579190614f97565b612d735760405162461bcd60e51b81526004016106a4906155fd565b600654604051635a2449a960e01b81526001600160a01b0390911690635a2449a990612da3908590600401615266565b600060405180830381600087803b158015612dbd57600080fd5b505af1158015612dd1573d6000803e3d6000fd5b50506040513392506001600160a01b03851691507f220a7f24feb4087c39afec28243a8fdf036f63ae130215ef29a01875667f40b990600090a35050565b600054600160a01b900460ff16612e385760405162461bcd60e51b81526004016106a4906158b8565b6008546040516370a0823160e01b815233916000916001600160a01b03909116906370a0823190612e6d908590600401615266565b60206040518083038186803b158015612e8557600080fd5b505afa158015612e99573d6000803e3d6000fd5b505050506040513d601f19601f82011682018060405250810190612ebd919061517e565b905060008111612edf5760405162461bcd60e51b81526004016106a490615881565b600480546008546040516370a0823160e01b81526001600160a01b0392831693637f2020c793339389939116916370a0823191612f1e91869101615266565b60206040518083038186803b158015612f3657600080fd5b505afa158015612f4a573d6000803e3d6000fd5b505050506040513d601f19601f82011682018060405250810190612f6e919061517e565b6040518463ffffffff1660e01b8152600401612f8c9392919061531c565b600060405180830381600087803b158015612fa657600080fd5b505af1158015612fba573d6000803e3d6000fd5b505050506000600460009054906101000a90046001600160a01b03166001600160a01b0316630b0c98686040518163ffffffff1660e01b815260040160206040518083038186803b15801561300e57600080fd5b505afa158015613022573d6000803e3d6000fd5b505050506040513d601f19601f82011682018060405250810190613046919061517e565b9050336001600160a01b0316817f455712cb79d839f8ca6a0ab7a15765738906c98f331d0ee1fff1ff591550f2b6866040516130829190615954565b60405180910390a3604051339082907f7906920cd6c70de2c0c6380adfa74d93af1ff8f5e5b03d1605194fef988add7990600090a350505050565b6000546001600160a01b0316331490565b6000546001600160a01b031633146130f85760405162461bcd60e51b81526004016106a49061576a565b6000546001600160a01b0316ff5b600354604051633a4396cb60e01b81526060916000918291829182916001600160a01b031690633a4396cb90613140908990600401615954565b60006040518083038186803b15801561315857600080fd5b505afa15801561316c573d6000803e3d6000fd5b505050506040513d6000823e601f3d908101601f19168201604052613194919081019061504a565b979e969d50949b5099509497509295505050505050565b6000546001600160a01b031633146131d55760405162461bcd60e51b81526004016106a49061576a565b6131de81614e67565b50565b60025481565b60065460405163199b5a6b60e31b815233916001600160a01b03169063ccdad35890613217908490600401615266565b60206040518083038186803b15801561322f57600080fd5b505afa158015613243573d6000803e3d6000fd5b505050506040513d601f19601f820116820180604052508101906132679190614f97565b6132835760405162461bcd60e51b81526004016106a490615531565b60065460405163e55732ef60e01b815233916001600160a01b03169063e55732ef906132b3908490600401615266565b60206040518083038186803b1580156132cb57600080fd5b505afa1580156132df573d6000803e3d6000fd5b505050506040513d601f19601f820116820180604052508101906133039190614f97565b156133205760405162461bcd60e51b81526004016106a4906154fa565b600554604080516332393eb760e21b815290516000926001600160a01b03169163c8e4fadc916004808301926020929190829003018186803b15801561336557600080fd5b505afa158015613379573d6000803e3d6000fd5b505050506040513d601f19601f8201168201806040525081019061339d919061517e565b9050803410156133bf5760405162461bcd60e51b81526004016106a490615405565b803411156134545760006133d33483614c3b565b90506000336001600160a01b0316826040516133ee90615263565b60006040518083038185875af1925050503d806000811461342b576040519150601f19603f3d011682016040523d82523d6000602084013e613430565b606091505b50509050806134515760405162461bcd60e51b81526004016106a490615858565b50505b600554604080516332393eb760e21b815290516000926001600160a01b03169163c8e4fadc916004808301926020929190829003018186803b15801561349957600080fd5b505afa1580156134ad573d6000803e3d6000fd5b505050506040513d601f19601f820116820180604052508101906134d1919061517e565b600654604051639419701b60e01b81529192506001600160a01b031690639419701b906135049033908590600401615303565b600060405180830381600087803b15801561351e57600080fd5b505af1158015613532573d6000803e3d6000fd5b505050506000600660009054906101000a90046001600160a01b03166001600160a01b031663ee2a4d486040518163ffffffff1660e01b815260040160206040518083038186803b15801561358657600080fd5b505afa15801561359a573d6000803e3d6000fd5b505050506040513d601f19601f820116820180604052508101906135be919061517e565b9050600581101561370c57600654604051636c66623d60e11b81526001600160a01b039091169063d8ccc47a906135f9903390600401615266565b600060405180830381600087803b15801561361357600080fd5b505af1158015613627573d6000803e3d6000fd5b505050506000613635614e62565b6008546040516340c10f1960e01b81529192506001600160a01b0316906340c10f19906136689033908590600401615303565b600060405180830381600087803b15801561368257600080fd5b505af1158015613696573d6000803e3d6000fd5b50505050336001600160a01b03167f9fcf3424ceb758d19bbf23259078ba6141ad35ac5e5867eef477de46a133b650846040516136d39190615954565b60405180910390a260405133907f5dbffd047c48d57a7d972a24d9fe3ced4753a2b27c6b277fc905b1607ab99afe90600090a25061374e565b336001600160a01b03167f9fcf3424ceb758d19bbf23259078ba6141ad35ac5e5867eef477de46a133b650836040516137459190615954565b60405180910390a25b5050505050565b6000546001600160a01b0316331461377f5760405162461bcd60e51b81526004016106a49061576a565b801561381657600554604051632c388d5d60e01b81526001600160a01b0390911690632c388d5d906137b5908590600401615266565b600060405180830381600087803b1580156137cf57600080fd5b505af11580156137e3573d6000803e3d6000fd5b5050600554604051339350600080516020615b0183398151915292506108409186916001600160a01b039091169061527a565b60055460405163256462d760e11b81526001600160a01b0390911690634ac8c5ae90613846908590600401615266565b600060405180830381600087803b15801561386057600080fd5b505af1158015613874573d6000803e3d6000fd5b5050600554604051339350600080516020615b2183398151915292506108de9186916001600160a01b039091169061527a565b600054600160a01b900460ff166138d05760405162461bcd60e51b81526004016106a4906158b8565b6008546040516370a0823160e01b815233916000916001600160a01b03909116906370a0823190613905908590600401615266565b60206040518083038186803b15801561391d57600080fd5b505afa158015613931573d6000803e3d6000fd5b505050506040513d601f19601f82011682018060405250810190613955919061517e565b9050600081116139775760405162461bcd60e51b81526004016106a490615881565b600854604051631bb7b02160e11b815233916000916139ae916001600160a01b03169063376f60429061140a908690600401615266565b90506001548110156139d25760405162461bcd60e51b81526004016106a49061543c565b60075460405163614c2bd360e11b8152339187916001600160a01b039091169063c29857a690613a08908490869060040161527a565b60206040518083038186803b158015613a2057600080fd5b505afa158015613a34573d6000803e3d6000fd5b505050506040513d601f19601f82011682018060405250810190613a589190614f97565b15613a755760405162461bcd60e51b81526004016106a490615798565b60075460405163775cbd8d60e01b815288916001600160a01b03169063775cbd8d90613aa5908490600401615266565b60206040518083038186803b158015613abd57600080fd5b505afa158015613ad1573d6000803e3d6000fd5b505050506040513d601f19601f82011682018060405250810190613af59190614f97565b15613b125760405162461bcd60e51b81526004016106a4906155b9565b6007546008546040516370a0823160e01b81526001600160a01b0392831692636ba155b19233928d92909116906370a0823190613b53908590600401615266565b60206040518083038186803b158015613b6b57600080fd5b505afa158015613b7f573d6000803e3d6000fd5b505050506040513d601f19601f82011682018060405250810190613ba3919061517e565b6040518463ffffffff1660e01b8152600401613bc193929190615294565b600060405180830381600087803b158015613bdb57600080fd5b505af1158015613bef573d6000803e3d6000fd5b5050600754600092506001600160a01b0316905063f0a5870860018b613c13614e01565b6040518463ffffffff1660e01b8152600401613c3193929190615348565b60206040518083038186803b158015613c4957600080fd5b505afa158015613c5d573d6000803e3d6000fd5b505050506040513d601f19601f82011682018060405250810190613c819190614f97565b90508015613dcd576007546040516324f5341760e21b81526001600160a01b03909116906393d4d05c90613cb9908c90600401615266565b600060405180830381600087803b158015613cd357600080fd5b505af1158015613ce7573d6000803e3d6000fd5b505050506000613cf5614e62565b6008546040516340c10f1960e01b81529192506001600160a01b0316906340c10f1990613d28908d908590600401615303565b600060405180830381600087803b158015613d4257600080fd5b505af1158015613d56573d6000803e3d6000fd5b50506040516001600160a01b038d1692506001915033907f1b3fee018a3b7e52d087ea8e3f391b759e9e934802971c8f99e51ffdcb27d44490600090a46040516001600160a01b038b16907f5e06803b8b6ec4a58bfd8973f079830b31cbb81e939420c22febecc8acdb3f8d90600090a250613e07565b6040516001600160a01b038a169060019033907f1b3fee018a3b7e52d087ea8e3f391b759e9e934802971c8f99e51ffdcb27d44490600090a45b505050505050505050565b6000546001600160a01b03163314613e3c5760405162461bcd60e51b81526004016106a49061576a565b8015613ed357600754604051632c388d5d60e01b81526001600160a01b0390911690632c388d5d90613e72908590600401615266565b600060405180830381600087803b158015613e8c57600080fd5b505af1158015613ea0573d6000803e3d6000fd5b5050600754604051339350600080516020615b0183398151915292506108409186916001600160a01b039091169061527a565b60075460405163256462d760e11b81526001600160a01b0390911690634ac8c5ae90613f03908590600401615266565b600060405180830381600087803b158015613f1d57600080fd5b505af1158015613f31573d6000803e3d6000fd5b5050600754604051339350600080516020615b2183398151915292506108de9186916001600160a01b039091169061527a565b600054600160a01b900460ff16613f8d5760405162461bcd60e51b81526004016106a4906158b8565b60065460405163d81bfa8960e01b815233916001600160a01b03169063d81bfa8990613fbd908490600401615266565b60206040518083038186803b158015613fd557600080fd5b505afa158015613fe9573d6000803e3d6000fd5b505050506040513d601f19601f8201168201806040525081019061400d9190614f97565b6140295760405162461bcd60e51b81526004016106a4906155fd565b8367ffffffffffffffff168367ffffffffffffffff1683428311801561404e57504282115b801561405957508282115b801561406d5750670de0b6b3a76400008111155b6140895760405162461bcd60e51b81526004016106a49061570f565b6003546040516351457a7960e01b81526001600160a01b03909116906351457a79906140c39033908d908d908d908d908d906004016152b8565b600060405180830381600087803b1580156140dd57600080fd5b505af11580156140f1573d6000803e3d6000fd5b505050506000600360009054906101000a90046001600160a01b03166001600160a01b0316637cae395c6040518163ffffffff1660e01b815260040160206040518083038186803b15801561414557600080fd5b505afa158015614159573d6000803e3d6000fd5b505050506040513d601f19601f8201168201806040525081019061417d919061517e565b9050336001600160a01b0316817f67cabf62aee63d11db89c260f398a37186342310f4a0df30da1341719878147a8a8a8e8e8c6040516141c19594939291906159bd565b60405180910390a350505050505050505050565b6000546001600160a01b031633146141ff5760405162461bcd60e51b81526004016106a49061576a565b600380546001600160a01b03199081166001600160a01b038981169190911790925560048054821688841617815560058054831688851617905560068054831687851617908190556007805484168786161790556008805490931685851617909255604051635a2449a960e01b81529190921691635a2449a99161428591339101615266565b600060405180830381600087803b15801561429f57600080fd5b505af11580156142b3573d6000803e3d6000fd5b5050600654604051636c66623d60e11b81526001600160a01b03909116925063d8ccc47a91506142e7903390600401615266565b600060405180830381600087803b15801561430157600080fd5b505af1158015614315573d6000803e3d6000fd5b50506040513392508291507f220a7f24feb4087c39afec28243a8fdf036f63ae130215ef29a01875667f40b990600090a360405133907f5dbffd047c48d57a7d972a24d9fe3ced4753a2b27c6b277fc905b1607ab99afe90600090a2505050505050565b6000546001600160a01b031633146143a35760405162461bcd60e51b81526004016106a49061576a565b600080546001600160a01b0319166001600160a01b0392909216919091179055565b600054600160a01b900460ff166143ee5760405162461bcd60e51b81526004016106a4906158b8565b6008546040516370a0823160e01b815233916000916001600160a01b03909116906370a0823190614423908590600401615266565b60206040518083038186803b15801561443b57600080fd5b505afa15801561444f573d6000803e3d6000fd5b505050506040513d601f19601f82011682018060405250810190614473919061517e565b9050600081116144955760405162461bcd60e51b81526004016106a490615881565b6005546008546040516370a0823160e01b81526001600160a01b039283169263fb0a33459233928892909116906370a08231906144d6908590600401615266565b60206040518083038186803b1580156144ee57600080fd5b505afa158015614502573d6000803e3d6000fd5b505050506040513d601f19601f82011682018060405250810190614526919061517e565b6040518463ffffffff1660e01b81526004016145449392919061531c565b600060405180830381600087803b15801561455e57600080fd5b505af1158015614572573d6000803e3d6000fd5b505050506000600560009054906101000a90046001600160a01b03166001600160a01b031663ca5c1b4f6040518163ffffffff1660e01b815260040160206040518083038186803b1580156145c657600080fd5b505afa1580156145da573d6000803e3d6000fd5b505050506040513d601f19601f820116820180604052508101906145fe919061517e565b9050336001600160a01b0316817f35f1d4a02bce65638da910c669076031fb59178f55931d6d2f1a8a035e382f998660405161463a9190615954565b60405180910390a3604051339082907f0450a2b5feaa1ee53edb36ef2d8854b1a508547d111e43b5b1ead1b090a5daa290600090a350505050565b600054600160a01b900460ff1661469e5760405162461bcd60e51b81526004016106a4906158b8565b6003546040516342fd730160e11b815282916000916001600160a01b03909116906385fae602906146d3908590600401615954565b60806040518083038186803b1580156146eb57600080fd5b505afa1580156146ff573d6000803e3d6000fd5b505050506040513d601f19601f820116820180604052508101906147239190615196565b5050600354604051633a4396cb60e01b81529293506000926001600160a01b039091169150633a4396cb9061475c908590600401615954565b60006040518083038186803b15801561477457600080fd5b505afa158015614788573d6000803e3d6000fd5b505050506040513d6000823e601f3d908101601f191682016040526147b0919081019061504a565b50505095505050505050806147d75760405162461bcd60e51b81526004016106a49061573d565b6003546040516342fd730160e11b815285916000916001600160a01b03909116906385fae6029061480c908590600401615954565b60806040518083038186803b15801561482457600080fd5b505afa158015614838573d6000803e3d6000fd5b505050506040513d601f19601f8201168201806040525081019061485c9190615196565b50925050506001600160a01b03811633146148895760405162461bcd60e51b81526004016106a4906154c3565b6003546040516342fd730160e11b815287916000916001600160a01b03909116906385fae602906148be908590600401615954565b60806040518083038186803b1580156148d657600080fd5b505afa1580156148ea573d6000803e3d6000fd5b505050506040513d601f19601f8201168201806040525081019061490e9190615196565b935050505080156149315760405162461bcd60e51b81526004016106a4906156cb565b6003546040516342fd730160e11b815260009182916001600160a01b03909116906385fae60290614966908d90600401615954565b60806040518083038186803b15801561497e57600080fd5b505afa158015614992573d6000803e3d6000fd5b505050506040513d601f19601f820116820180604052508101906149b69190615196565b5050600354604051633a4396cb60e01b81529294509092506000916001600160a01b0390911690633a4396cb906149f1908690600401615954565b60006040518083038186803b158015614a0957600080fd5b505afa158015614a1d573d6000803e3d6000fd5b505050506040513d6000823e601f3d908101601f19168201604052614a45919081019061504a565b50509650505050505050600360009054906101000a90046001600160a01b03166001600160a01b03166326b517468c6040518263ffffffff1660e01b8152600401614a909190615954565b600060405180830381600087803b158015614aaa57600080fd5b505af1158015614abe573d6000803e3d6000fd5b505060035460408051631a9160d760e31b815290516001600160a01b039092169350630b3377159250614b53918691859163d48b06b891600480820192602092909190829003018186803b158015614b1557600080fd5b505afa158015614b29573d6000803e3d6000fd5b505050506040513d601f19601f82011682018060405250810190614b4d919061517e565b90614c3b565b6040518263ffffffff1660e01b8152600401614b6f9190615954565b600060405180830381600087803b158015614b8957600080fd5b505af1158015614b9d573d6000803e3d6000fd5b50505050336001600160a01b03166108fc614bb784614c5a565b6040518115909202916000818181858888f19350505050158015614bdf573d6000803e3d6000fd5b5082816001600160a01b0316336001600160a01b03167f8bcc9e02955c4d671e14fe3bd5031c47f36b1591d090a4c7df99aa82d830d783858f604051614c26929190615999565b60405180910390a45050505050505050505050565b6000614c478284615a54565b9392505050565b6000614c4782846159fd565b600480546040805163fde0c46360e01b8152905160009384936001600160a01b03169263fde0c4639281830192602092829003018186803b158015614c9e57600080fd5b505afa158015614cb2573d6000803e3d6000fd5b505050506040513d601f19601f82011682018060405250810190614cd6919061517e565b9050614ce76064611daf8584614df5565b9150505b919050565b60035460408051631a9160d760e31b815290516000926001600160a01b03169163d48b06b8916004808301926020929190829003018186803b158015614d3557600080fd5b505afa158015614d49573d6000803e3d6000fd5b505050506040513d601f19601f82011682018060405250810190614d6d919061517e565b6003549091506001600160a01b0316630b337715614d8b8385614c4e565b6040518263ffffffff1660e01b8152600401614da79190615954565b600060405180830381600087803b158015614dc157600080fd5b505af1158015614dd5573d6000803e3d6000fd5b505050505050565b6000614ded82611daf8686614c3b565b949350505050565b6000614c478284615a35565b60006105fa6002600860009054906101000a90046001600160a01b03166001600160a01b03166318160ddd6040518163ffffffff1660e01b815260040160206040518083038186803b158015611d7757600080fd5b6000614c478284615a15565b600190565b60008054911515600160a01b0260ff60a01b19909216919091179055565b8051614ceb81615ac7565b8051614ceb81615adc565b8051614ceb81615aea565b600060208284031215614eb7578081fd5b8135614c4781615ac7565b60008060008060008060c08789031215614eda578182fd5b8635614ee581615ac7565b95506020870135614ef581615ac7565b94506040870135614f0581615ac7565b93506060870135614f1581615ac7565b92506080870135614f2581615ac7565b915060a0870135614f3581615ac7565b809150509295509295509295565b60008060408385031215614f55578182fd5b8235614f6081615ac7565b91506020830135614f7081615adc565b809150509250929050565b600060208284031215614f8c578081fd5b8135614c4781615adc565b600060208284031215614fa8578081fd5b8151614c4781615adc565b600080600080600060808688031215614fca578081fd5b853567ffffffffffffffff80821115614fe1578283fd5b818801915088601f830112614ff4578283fd5b813581811115615002578384fd5b896020828501011115615013578384fd5b6020928301975095505086013561502981615aea565b9250604086013561503981615aea565b949793965091946060013592915050565b60008060008060008060008060006101208a8c031215615068578283fd5b895167ffffffffffffffff8082111561507f578485fd5b818c0191508c601f830112615092578485fd5b8151818111156150a4576150a4615ab1565b604051601f8201601f1916810160200183811182821017156150c8576150c8615ab1565b6040528181528382016020018f10156150df578687fd5b6150f0826020830160208701615a6b565b9b506151029250505060208b01614e9b565b975061511060408b01614e9b565b965061511e60608b01614e9b565b955061512c60808b01614e9b565b945061513a60a08b01614e90565b935061514860c08b01614e85565b925060e08a015191506101008a015190509295985092959850929598565b600060208284031215615177578081fd5b5035919050565b60006020828403121561518f578081fd5b5051919050565b600080600080608085870312156151ab578384fd5b845193506020850151925060408501516151c481615ac7565b60608601519092506151d581615adc565b939692955090935050565b6000806000606084860312156151f4578081fd5b8351925060208401519150604084015190509250925092565b60008284528282602086013780602084860101526020601f19601f85011685010190509392505050565b6000815180845261524f816020860160208601615a6b565b601f01601f19169290920160200192915050565b90565b6001600160a01b0391909116815260200190565b6001600160a01b0392831681529116602082015260400190565b6001600160a01b039384168152919092166020820152604081019190915260600190565b6001600160a01b038716815260a0602082018190526000906152dd908301878961520d565b67ffffffffffffffff958616604084015293909416606082015260800152949350505050565b6001600160a01b03929092168252602082015260400190565b6001600160a01b039390931683526020830191909152604082015260600190565b901515815260200190565b92151583526001600160a01b03919091166020830152604082015260600190565b600060a0825261537c60a0830188615237565b67ffffffffffffffff96871660208401529490951660408201526001600160a01b0392909216606083015260809091015292915050565b600060c082526153c660c0830189615237565b67ffffffffffffffff978816602084015295909616604082015292151560608401526001600160a01b0391909116608083015260a09091015292915050565b6020808252601e908201527f696e636f7272656374206665652073656e7420746f20636f6e74726163740000604082015260600190565b60208082526022908201527f63616c6c6572206d75737420626520616e206f6c6420746f6b656e20686f6c6460408201526132b960f11b606082015260800190565b60208082526025908201527f73656e742076616c756520646f6573206e6f74206d6174636820666c69676874604082015264207261746560d81b606082015260800190565b6020808252601e908201527f63616c6c6572206d75737420626520696e737572616e6365206f776e65720000604082015260600190565b6020808252601f908201527f6163636f756e742068617320616c7265616479206265656e2066756e64656400604082015260600190565b60208082526021908201527f63616c6c6572206d75737420626520696e737572616e63652070726f766964656040820152603960f91b606082015260800190565b60208082526027908201527f696e737572616e63652070726f766964657220697320616c72656164792061636040820152661d1a5d985d195960ca1b606082015260800190565b60208082526024908201527f6f7261636c652070726f766964657220697320616c7265616479206163746976604082015263185d195960e21b606082015260800190565b6020808252602b908201527f63616c6c6572206d7573742062652061637469766174656420696e737572616e60408201526a31b290383937bb34b232b960a91b606082015260800190565b6020808252601f908201527f666c6967687420646570617274757265206d7573742062652066757475726500604082015260600190565b6020808252602c908201527f63757272656e742066756e6473206d75737420636f766572206e657720696e7360408201526b7572616e63652076616c756560a01b606082015260800190565b60208082526024908201527f696e737572616e6365206d757374206e6f742068617665206265656e20636c616040820152631a5b595960e21b606082015260800190565b602080825260149082015273199b1a59da1d081b5d5cdd081899481d985b1a5960621b604082015260600190565b602080825260139082015272666c69676874206d757374206265206c61746560681b604082015260600190565b60208082526014908201527331b0b63632b91036bab9ba1031329037bbb732b960611b604082015260600190565b60208082526018908201527f63616c6c65722068617320616c726561647920766f7465640000000000000000604082015260600190565b60208082526022908201527f626c6f636b206c696d6974206d7573742068617665206265656e207265616368604082015261195960f21b606082015260800190565b60208082526027908201527f63616c6c6572206973206e6f7420616374697661746564206f7261636c6520706040820152663937bb34b232b960c91b606082015260800190565b6020808252600f908201526e1d1c985b9cd9995c8819985a5b1959608a1b604082015260600190565b6020808252601b908201527f63616c6c6572206d75737420626520746f6b656e20686f6c6465720000000000604082015260600190565b6020808252601d908201527f636f6e7472616374206d757374206265206f7065726174696f6e6e616c000000604082015260600190565b6020808252601490820152731c1c9bdc1bdcd85b08185b1c9958591e481cd95d60621b604082015260600190565b6020808252601b908201527f766f74696e672070726f706f73616c2068617320657870697265640000000000604082015260600190565b90815260200190565b9384526001600160a01b0392909216602084015215156040830152606082015260800190565b9283529015156020830152604082015260600190565b918252602082015260400190565b9283526020830191909152604082015260600190565b600067ffffffffffffffff8088168352808716602084015250608060408301526159eb60808301858761520d565b90508260608301529695505050505050565b60008219821115615a1057615a10615a9b565b500190565b600082615a3057634e487b7160e01b81526012600452602481fd5b500490565b6000816000190483118215151615615a4f57615a4f615a9b565b500290565b600082821015615a6657615a66615a9b565b500390565b60005b83811015615a86578181015183820152602001615a6e565b83811115615a95576000848401525b50505050565b634e487b7160e01b600052601160045260246000fd5b634e487b7160e01b600052604160045260246000fd5b6001600160a01b03811681146131de57600080fd5b80151581146131de57600080fd5b67ffffffffffffffff811681146131de57600080fdfe49162bd91fa9e98bc15e1a54c488b20acf9a442cfd08a398bbdd552db92e98e7eefee6ee18d218075d0332898b2f8dbd4d9d18666bb47b86fd5bb8ddf7b188c0a2646970667358221220e5dfebc3f9e38864b0471bb643616ea06cce39899ec6c2cb5510d7680ae95da364736f6c63430008000033",
  "immutableReferences": {},
  "source": "// SPDX-License-Identifier: UNLICENSED\npragma solidity ^0.8.00;\n\nimport \"./interfaces/IFlightSuretyData.sol\";\nimport \"./interfaces/IInsuranceCoverageAmendmentProposal.sol\";\nimport \"./interfaces/IMembershipFeeAmendmentProposal.sol\";\nimport \"./interfaces/IInsuranceProviderRole.sol\";\nimport \"./interfaces/IOracleProviderRole.sol\";\nimport \"./interfaces/IFlightSuretyOracle.sol\";\nimport \"./interfaces/IFlightSuretyShares.sol\";\nimport \"../Ownable/Ownable.sol\";\nimport \"../Pausable/Pausable.sol\";\nimport \"@openzeppelin/contracts/utils/math/SafeMath.sol\";\n\ncontract FlightSuretyApp is Ownable, Pausable {\n    using SafeMath for uint256;\n    // insurance providers related events\n    event RegisteredInsuranceProvider(\n        address indexed insuranceProvider,\n        address indexed caller\n    );\n    event FundedInsuranceProvider(\n        address indexed insuranceProvider,\n        uint256 amount\n    );\n    event ActivatedInsuranceProvider(address indexed insuranceProvider);\n    event RemovedInsuranceProvider(address indexed insuranceProvider);\n    event NewVoteInsuranceProvider(\n        address indexed voter,\n        bool indexed side,\n        address indexed votee\n    );\n\n    // oracle providers related events\n    event RegisteredOracleProvider(address indexed oracleProvider);\n    event ActivatedOracleProvider(address indexed oracleProvider);\n    event RemovedOracleProvider(address indexed oracleProvider);\n    event NewVoteOracleProvider(\n        address indexed voter,\n        bool indexed side,\n        address indexed votee\n    );\n\n    // flights related events\n    event NewFlight(\n        uint256 indexed flightID,\n        address indexed insuranceProvider,\n        uint256 estimatedDeparture,\n        uint256 estimatedArrival,\n        string flightRef,\n        uint256 rate\n    );\n\n    // insurances related events\n    event NewInsurance(\n        address indexed passenger,\n        address indexed insuranceProvider,\n        uint256 indexed insuranceID,\n        uint256 flightID,\n        uint256 insuredValue\n    );\n\n    event NewPayout(\n        address indexed owner,\n        address indexed insuranceProvider,\n        uint256 indexed flightID,\n        uint256 insuredValue,\n        uint256 insuranceID\n    );\n\n    // settings amendment proposal related events\n    event NewMembershipFeeAmendmentProposal(\n        uint256 indexed proposalID,\n        address indexed caller,\n        uint256 proposedMembershipFee\n    );\n    event NewVoteMembershipFeeAmendmentProposal(\n        uint256 indexed proposalID,\n        address indexed voter\n    );\n    event ActivatedMembershipFeeAmendmentProposal(\n        uint256 indexed proposalID,\n        uint256 lockedMembershipFee\n    );\n    event NewInsuranceCoverageAmendmentProposal(\n        uint256 indexed proposalID,\n        address indexed caller,\n        uint256 insuranceCoverage\n    );\n    event ActivatedInsuranceCoverageAmendmentProposal(\n        uint256 indexed proposalID,\n        uint256 insuranceCoverage\n    );\n    event NewVoteInsuranceCoverageAmendmentProposal(\n        uint256 indexed proposalID,\n        address indexed voter\n    );\n\n    // authorize caller related events\n    event AuthorizedCaller(\n        address indexed contractOwner,\n        address caller,\n        address contractAddress\n    );\n    event UnauthorizedCaller(\n        address indexed contractOwner,\n        address caller,\n        address contractAddress\n    );\n\n    // token related event\n    event RedeemedToken(\n        address indexed account,\n        uint256 tokenAmount,\n        uint256 tokenValue\n    );\n\n    // public contract settings to set constraint to user vote in general\n    uint256 public tokenHolderMinBlockRequirement;\n    // public contract setting to set constraint on user proposal vote\n    uint256 public proposalValidBlockNum;\n\n    IFlightSuretyData flightSuretyData;\n    IInsuranceCoverageAmendmentProposal insuranceCoverageAmendmentProposal;\n    IMembershipFeeAmendmentProposal membershipFeeAmendmentProposal;\n    IInsuranceProviderRole insuranceProviderRole;\n    IOracleProviderRole oracleProviderRole;\n    IFlightSuretyShares flightSuretyShares;\n\n    // redeem checks\n    modifier requireBlockNumBeforeRedeemReached(address _caller) {\n        require(\n            block.number >= flightSuretyShares.blockNumBeforeRedeem(_caller),\n            \"block limit must have been reached\"\n        );\n        _;\n    }\n\n    // settings amendment proposals related checks\n\n    modifier requireTokenHolderHasNotVotedInsuranceCoverageAmendmentProposal(\n        address _caller,\n        uint256 _proposalID\n    ) {\n        require(\n            !insuranceCoverageAmendmentProposal\n                .hasVotedInsuranceCoverageAmendmentProposal(\n                    _caller,\n                    _proposalID\n                ),\n            \"caller has already voted\"\n        );\n        _;\n    }\n\n    modifier requireTokenHolderHasNotVotedMembershipFeeAmendmentProposal(\n        address _caller,\n        uint256 _proposalID\n    ) {\n        require(\n            !membershipFeeAmendmentProposal\n                .hasVotedMembershipFeeAmendmentProposal(_caller, _proposalID),\n            \"caller has already voted\"\n        );\n        _;\n    }\n\n    modifier requireMembershipFeeProposalIsActive(uint256 proposalID) {\n        uint256 elapsedBlock = block.number.sub(\n            membershipFeeAmendmentProposal.getProposalCreatedAt(proposalID)\n        );\n        require(\n            elapsedBlock <= proposalValidBlockNum,\n            \"voting proposal has expired\"\n        );\n        _;\n    }\n\n    modifier requireMembershipFeeHasNotBeenSet(uint256 proposalID) {\n        bool check = membershipFeeAmendmentProposal\n            .isMembershipFeeAmendmentProposalSet(proposalID);\n        require(!check, \"proposal already set\");\n        _;\n    }\n\n    modifier requireInsuranceCoverageProposalHasNotBeenSet(uint256 proposalID) {\n        bool check = insuranceCoverageAmendmentProposal\n            .isInsuranceCoverageAmendmentProposalSet(proposalID);\n        require(!check, \"proposal already set\");\n        _;\n    }\n\n    modifier requireInsuranceCoverageProposalIsActive(uint256 proposalID) {\n        uint256 elapsedBlock = block.number.sub(\n            insuranceCoverageAmendmentProposal.getProposalCreatedAt(proposalID)\n        );\n        require(\n            elapsedBlock <= proposalValidBlockNum,\n            \"voting proposal has expired\"\n        );\n        _;\n    }\n\n    // flights related checks\n\n    modifier requireValidFlight(\n        uint256 estimatedDeparture,\n        uint256 estimatedArrival,\n        uint256 rate\n    ) {\n        require(\n            estimatedDeparture > block.timestamp &&\n                estimatedArrival > block.timestamp &&\n                estimatedArrival > estimatedDeparture &&\n                rate <= 1 ether,\n            \"flight must be valid\"\n        );\n        _;\n    }\n\n    // insurances related checks\n\n    modifier requireMessageValueGreatherOrEqualToFlightRate(uint256 _flightID) {\n        (, , , , , , , , uint256 rate) = flightSuretyData.getFlight(_flightID);\n        require(msg.value >= rate, \"sent value does not match flight rate\");\n        uint256 amountDue = rate.sub(msg.value);\n        _;\n        payable(msg.sender).transfer(amountDue);\n    }\n\n    modifier requireFutureFlight(uint256 _flightID) {\n        (, uint64 estimatedDeparture, , , , , , , ) = flightSuretyData\n            .getFlight(_flightID);\n        require(\n            estimatedDeparture > block.timestamp,\n            \"flight departure must be future\"\n        );\n        _;\n    }\n\n    modifier requireFlightIsLate(uint256 _insuranceID) {\n        (uint256 flightID, , , ) = flightSuretyData.getInsurance(_insuranceID);\n        (, , , , , bool isLate, , , ) = flightSuretyData.getFlight(flightID);\n        require(isLate, \"flight must be late\");\n        _;\n    }\n\n    modifier requireInsuranceIsNotClaimed(uint256 _insuranceID) {\n        (, , , bool claimed) = flightSuretyData.getInsurance(_insuranceID);\n        require(!claimed, \"insurance must not have been claimed\");\n        _;\n    }\n    modifier onlyInsuranceOwner(uint256 _insuranceID) {\n        (, , address owner, ) = flightSuretyData.getInsurance(_insuranceID);\n        require(msg.sender == owner, \"caller must be insurance owner\");\n        _;\n    }\n\n    modifier requireTotalInsuredValueCoverage(uint256 newInsuranceValue) {\n        uint256 newTotalInsuredValue = flightSuretyData\n            .getTotalInsuredValue()\n            .add(newInsuranceValue);\n        uint256 totalFundsWithCoverage = _calculateInsuredValueBenefits(\n            newTotalInsuredValue\n        );\n        require(\n            totalFundsWithCoverage <= address(this).balance,\n            \"current funds must cover new insurance value\"\n        );\n        _;\n    }\n\n    // membership fee checks\n\n    modifier requireMembershipFee() {\n        uint256 _currentMembershipFee = membershipFeeAmendmentProposal\n            .getCurrentMembershipFee();\n        require(\n            msg.value >= _currentMembershipFee,\n            \"incorrect fee sent to contract\"\n        );\n\n        if (msg.value > _currentMembershipFee) {\n            uint256 _amountDue = msg.value.sub(_currentMembershipFee);\n            (bool success, ) = payable(msg.sender).call{value: _amountDue}(\"\");\n            require(success, \"transfer failed\");\n        }\n        _;\n    }\n\n    // common roles checks\n\n    modifier onlyActivatedProvider(address _caller) {\n        require(\n            insuranceProviderRole.isActivatedInsuranceProvider(_caller) ||\n                oracleProviderRole.isActivatedOracleProvider(_caller),\n            \"caller must be activated provider\"\n        );\n        _;\n    }\n\n    modifier onlyTokenHolder(address _caller) {\n        uint256 callerBalance = flightSuretyShares.balanceOf(_caller);\n        require(callerBalance > 0, \"caller must be token holder\");\n        _;\n    }\n\n    modifier requireTokenHolderIsOldEnough(address _caller) {\n        uint256 blockElapsed = block.number.sub(\n            flightSuretyShares.ownershipBlockNum(_caller)\n        );\n        require(\n            blockElapsed >= tokenHolderMinBlockRequirement,\n            \"caller must be an old token holder\"\n        );\n        _;\n    }\n\n    // insurance providers checks\n\n    modifier onlyRegisteredInsuranceProvider(address _caller) {\n        require(\n            insuranceProviderRole.isRegisteredInsuranceProvider(_caller),\n            \"caller must be insurance provider\"\n        );\n        _;\n    }\n\n    modifier onlyActivatedInsuranceProvider(address _caller) {\n        require(\n            insuranceProviderRole.isActivatedInsuranceProvider(_caller),\n            \"caller must be activated insurance provider\"\n        );\n        _;\n    }\n\n    modifier requireUnactivatedInsuranceProvider(address _caller) {\n        require(\n            !insuranceProviderRole.isActivatedInsuranceProvider(_caller),\n            \"insurance provider is already activated\"\n        );\n        _;\n    }\n\n    modifier requireUnfundedInsuranceProvider(address _caller) {\n        require(\n            !insuranceProviderRole.isFundedInsuranceProvider(_caller),\n            \"account has already been funded\"\n        );\n        _;\n    }\n\n    modifier requireTokenHolderHasNotVotedInsuranceProviderMembership(\n        address _caller,\n        address _account\n    ) {\n        require(\n            !insuranceProviderRole.hasVotedInsuranceProviderMembership(\n                _account,\n                _caller\n            ),\n            \"caller has already voted\"\n        );\n        _;\n    }\n\n    // oracle providers checks\n\n    modifier onlyRegisteredOracleProvider(address _caller) {\n        require(\n            oracleProviderRole.isRegisteredOracleProvider(_caller),\n            \"caller must be oracle provider\"\n        );\n        _;\n    }\n\n    modifier onlyActivatedOracleProvider(address _caller) {\n        require(\n            oracleProviderRole.isActivatedOracleProvider(_caller),\n            \"caller is not activated oracle provider\"\n        );\n        _;\n    }\n\n    modifier requireUnactivatedOracleProvider(address _caller) {\n        require(\n            !oracleProviderRole.isActivatedOracleProvider(_caller),\n            \"oracle provider is already activated\"\n        );\n        _;\n    }\n\n    modifier requireTokenHolderHasNotVotedOracleProviderMembership(\n        address _caller,\n        address _account\n    ) {\n        require(\n            !oracleProviderRole.hasVotedOracleProviderMembership(\n                _account,\n                _caller\n            ),\n            \"caller has already voted\"\n        );\n        _;\n    }\n\n    constructor(\n        uint256 _tokenHolderMinBlockRequirement,\n        uint256 _proposalValidBlockNum\n    ) Ownable() Pausable() {\n        // public contract settings to set constraint to user vote in general\n        tokenHolderMinBlockRequirement = _tokenHolderMinBlockRequirement;\n        // public contract setting to set constraint on user proposal vote\n        proposalValidBlockNum = _proposalValidBlockNum;\n    }\n\n    // initialize external contracts addresses\n    function initialize(\n        address _flightSuretyData,\n        address _insuranceCoverageAmendmentProposal,\n        address _membershipFeeAmendmentProposal,\n        address _insuranceProviderRole,\n        address _oracleProviderRole,\n        address _flightSuretyShares\n    ) external onlyOwner {\n        // registering external contracts address\n        flightSuretyData = IFlightSuretyData(_flightSuretyData);\n        insuranceCoverageAmendmentProposal = IInsuranceCoverageAmendmentProposal(\n            _insuranceCoverageAmendmentProposal\n        );\n        membershipFeeAmendmentProposal = IMembershipFeeAmendmentProposal(\n            _membershipFeeAmendmentProposal\n        );\n        insuranceProviderRole = IInsuranceProviderRole(_insuranceProviderRole);\n        oracleProviderRole = IOracleProviderRole(_oracleProviderRole);\n        flightSuretyShares = IFlightSuretyShares(_flightSuretyShares);\n        // make the contract owner a registered insurance provider\n        insuranceProviderRole.addInsuranceProvider(msg.sender);\n        // make the contract owner an activated insurance provider\n        insuranceProviderRole.activateInsuranceProvider(msg.sender);\n        emit RegisteredInsuranceProvider(msg.sender, msg.sender);\n        emit ActivatedInsuranceProvider(msg.sender);\n    }\n\n    /* operationnal status */\n\n    function setOperationnal(bool _operationnal) external onlyOwner {\n        _setOperationnal(_operationnal);\n    }\n\n    /* external contracts calls management */\n\n    function updateAuthorizedCallerFlightSuretyData(\n        address _authorizedCaller,\n        bool _access\n    ) external onlyOwner {\n        if (_access) {\n            flightSuretyData.authorizeCaller(_authorizedCaller);\n            emit AuthorizedCaller(\n                msg.sender,\n                _authorizedCaller,\n                address(flightSuretyData)\n            );\n        } else {\n            flightSuretyData.unauthorizeCaller(_authorizedCaller);\n            emit UnauthorizedCaller(\n                msg.sender,\n                _authorizedCaller,\n                address(flightSuretyData)\n            );\n        }\n    }\n\n    function updateAuthorizedCallerInsuranceCoverageAmendmentProposal(\n        address _authorizedCaller,\n        bool _access\n    ) external onlyOwner {\n        if (_access) {\n            insuranceCoverageAmendmentProposal.authorizeCaller(\n                _authorizedCaller\n            );\n            emit AuthorizedCaller(\n                msg.sender,\n                _authorizedCaller,\n                address(insuranceCoverageAmendmentProposal)\n            );\n        } else {\n            insuranceCoverageAmendmentProposal.unauthorizeCaller(\n                _authorizedCaller\n            );\n            emit UnauthorizedCaller(\n                msg.sender,\n                _authorizedCaller,\n                address(insuranceCoverageAmendmentProposal)\n            );\n        }\n    }\n\n    function updateAuthorizedCallerMembershipFeeAmendmentProposal(\n        address _authorizedCaller,\n        bool _access\n    ) external onlyOwner {\n        if (_access) {\n            membershipFeeAmendmentProposal.authorizeCaller(_authorizedCaller);\n            emit AuthorizedCaller(\n                msg.sender,\n                _authorizedCaller,\n                address(membershipFeeAmendmentProposal)\n            );\n        } else {\n            membershipFeeAmendmentProposal.unauthorizeCaller(_authorizedCaller);\n            emit UnauthorizedCaller(\n                msg.sender,\n                _authorizedCaller,\n                address(membershipFeeAmendmentProposal)\n            );\n        }\n    }\n\n    function updateAuthorizedCallerInsuranceProviderRole(\n        address _authorizedCaller,\n        bool _access\n    ) external onlyOwner {\n        if (_access) {\n            insuranceProviderRole.authorizeCaller(_authorizedCaller);\n            emit AuthorizedCaller(\n                msg.sender,\n                _authorizedCaller,\n                address(insuranceProviderRole)\n            );\n        } else {\n            insuranceProviderRole.unauthorizeCaller(_authorizedCaller);\n            emit UnauthorizedCaller(\n                msg.sender,\n                _authorizedCaller,\n                address(insuranceProviderRole)\n            );\n        }\n    }\n\n    function updateAuthorizedCallerOracleProviderRole(\n        address _authorizedCaller,\n        bool _access\n    ) external onlyOwner {\n        if (_access) {\n            oracleProviderRole.authorizeCaller(_authorizedCaller);\n            emit AuthorizedCaller(\n                msg.sender,\n                _authorizedCaller,\n                address(oracleProviderRole)\n            );\n        } else {\n            oracleProviderRole.unauthorizeCaller(_authorizedCaller);\n            emit UnauthorizedCaller(\n                msg.sender,\n                _authorizedCaller,\n                address(oracleProviderRole)\n            );\n        }\n    }\n\n    function updateAuthorizedCallerFlighSuretyShares(\n        address _authorizedCaller,\n        bool _access\n    ) external onlyOwner {\n        if (_access) {\n            flightSuretyShares.authorizeCaller(_authorizedCaller);\n            emit AuthorizedCaller(\n                msg.sender,\n                _authorizedCaller,\n                address(flightSuretyShares)\n            );\n        } else {\n            flightSuretyShares.unauthorizeCaller(_authorizedCaller);\n            emit UnauthorizedCaller(\n                msg.sender,\n                _authorizedCaller,\n                address(flightSuretyShares)\n            );\n        }\n    }\n\n    /* providers registrations */\n\n    // insurance providers\n\n    function registerInsuranceProvider(address account)\n        external\n        onlyOperational\n        onlyActivatedInsuranceProvider(msg.sender)\n    {\n        insuranceProviderRole.addInsuranceProvider(account);\n        emit RegisteredInsuranceProvider(account, msg.sender);\n    }\n\n    // fund an insurance provider aka airline\n    function fundInsuranceProvider()\n        external\n        payable\n        onlyRegisteredInsuranceProvider(msg.sender)\n        requireUnfundedInsuranceProvider(msg.sender)\n        requireMembershipFee\n    {\n        uint256 _currentMembershipFee = membershipFeeAmendmentProposal\n            .getCurrentMembershipFee();\n        insuranceProviderRole.fundInsuranceProvider(\n            msg.sender,\n            _currentMembershipFee\n        );\n        uint256 activatedAccountCount = insuranceProviderRole\n            .getActivatedInsuranceProvidersCount();\n        if (activatedAccountCount < 5) {\n            insuranceProviderRole.activateInsuranceProvider(msg.sender);\n            uint256 sharesToMint = _calculateSharesToMint();\n            flightSuretyShares.mint(msg.sender, sharesToMint);\n            emit FundedInsuranceProvider(msg.sender, _currentMembershipFee);\n            emit ActivatedInsuranceProvider(msg.sender);\n        }else{\n            emit FundedInsuranceProvider(msg.sender, _currentMembershipFee);\n        }\n    }\n\n    // oracle providers\n\n    function registerOracleProvider()\n        external\n        payable\n        onlyOperational\n        requireMembershipFee\n    {\n        oracleProviderRole.addOracleProvider(msg.sender);\n        uint256 activatedOracleProviderCount = oracleProviderRole\n            .getActivatedOracleProvidersCount();\n        if (activatedOracleProviderCount < 5) {\n            oracleProviderRole.activateOracleProvider(msg.sender);\n            uint256 sharesToMint = _calculateSharesToMint();\n            flightSuretyShares.mint(msg.sender, sharesToMint);\n            emit RegisteredOracleProvider(msg.sender);\n            emit ActivatedOracleProvider(msg.sender);\n        } else {\n            emit RegisteredOracleProvider(msg.sender);\n        }\n    }\n\n    /* votes providers */\n\n    // insurance providers\n\n    function voteInsuranceProviderMembership(address _account)\n        external\n        onlyOperational\n        onlyActivatedInsuranceProvider(msg.sender)\n        onlyTokenHolder(msg.sender)\n        requireTokenHolderIsOldEnough(msg.sender)\n        requireTokenHolderHasNotVotedInsuranceProviderMembership(\n            msg.sender,\n            _account\n        )\n        requireUnactivatedInsuranceProvider(_account)\n    {\n        insuranceProviderRole.voteInsuranceProviderMembership(\n            msg.sender,\n            _account,\n            flightSuretyShares.balanceOf(msg.sender)\n        );\n        bool consensusCheck = insuranceProviderRole\n            .hasReachedConsensusInsuranceProviderMembership(\n                true,\n                _account,\n                insuranceProviderRole.getActivatedInsuranceProvidersCount().div(\n                    2\n                )\n            );\n        if (consensusCheck) {\n            insuranceProviderRole.activateInsuranceProvider(_account);\n            uint256 sharesToMint = _calculateSharesToMint();\n            flightSuretyShares.mint(_account, sharesToMint);\n            emit NewVoteInsuranceProvider(msg.sender, true, _account);\n            emit ActivatedInsuranceProvider(_account);\n        } else {\n            emit NewVoteInsuranceProvider(msg.sender, true, _account);\n        }\n    }\n\n    // oracle providers\n\n    function voteOracleProviderMembership(address _account)\n        external\n        onlyOperational\n        onlyTokenHolder(msg.sender)\n        requireTokenHolderIsOldEnough(msg.sender)\n        requireTokenHolderHasNotVotedOracleProviderMembership(\n            msg.sender,\n            _account\n        )\n        requireUnactivatedOracleProvider(_account)\n    {\n        oracleProviderRole.voteOracleProviderMembership(\n            msg.sender,\n            _account,\n            flightSuretyShares.balanceOf(msg.sender)\n        );\n        bool consensusCheck = oracleProviderRole\n            .hasReachedConsensusOracleProviderMembership(\n                true,\n                _account,\n                _calculateProvidersConsensusTreshold()\n            );\n        if (consensusCheck) {\n            oracleProviderRole.activateOracleProvider(_account);\n            uint256 sharesToMint = _calculateSharesToMint();\n            flightSuretyShares.mint(_account, sharesToMint);\n            emit NewVoteOracleProvider(msg.sender, true, _account);\n            emit ActivatedOracleProvider(_account);\n        } else {\n            emit NewVoteOracleProvider(msg.sender, true, _account);\n        }\n    }\n\n    /* flights management */\n\n    function registerFlight(\n        string calldata _flightRef,\n        uint64 _estimatedDeparture,\n        uint64 _estimatedArrival,\n        uint256 _rate\n    )\n        external\n        onlyOperational\n        onlyActivatedInsuranceProvider(msg.sender)\n        requireValidFlight(_estimatedDeparture, _estimatedArrival, _rate)\n    {\n        flightSuretyData.registerFlight(\n            msg.sender,\n            _flightRef,\n            _estimatedDeparture,\n            _estimatedArrival,\n            _rate\n        );\n        uint256 flightID = flightSuretyData.getCurrentFlightID();\n        emit NewFlight(\n            flightID,\n            msg.sender,\n            _estimatedDeparture,\n            _estimatedArrival,\n            _flightRef,\n            _rate\n        );\n    }\n\n    function getFlightInitialData(uint256 _flightID)\n        external\n        view\n        returns (\n            string memory flightRef,\n            uint64 estimatedDeparture,\n            uint64 estimatedArrival,\n            address insuranceProvider,\n            uint256 rate\n        )\n    {\n        (\n            flightRef,\n            estimatedDeparture,\n            estimatedArrival,\n            ,\n            ,\n            ,\n            insuranceProvider,\n            ,\n            rate\n        ) = flightSuretyData.getFlight(_flightID);\n        return (\n            flightRef,\n            estimatedDeparture,\n            estimatedArrival,\n            insuranceProvider,\n            rate\n        );\n    }\n\n    function getFlightSettlementData(uint256 _flightID)\n        external\n        view\n        returns (\n            string memory flightRef,\n            uint64 realDeparture,\n            uint64 realArrival,\n            bool isLate,\n            address insuranceProvider,\n            uint256 insuredValue\n        )\n    {\n        (\n            flightRef,\n            ,\n            ,\n            realDeparture,\n            realArrival,\n            isLate,\n            insuranceProvider,\n            insuredValue,\n\n        ) = flightSuretyData.getFlight(_flightID);\n        return (\n            flightRef,\n            realDeparture,\n            realArrival,\n            isLate,\n            insuranceProvider,\n            insuredValue\n        );\n    }\n\n    /* insurances management */\n\n    function registerInsurance(uint256 _flightID)\n        external\n        payable\n        onlyOperational\n        requireFutureFlight(_flightID)\n        requireMessageValueGreatherOrEqualToFlightRate(_flightID)\n        requireTotalInsuredValueCoverage(msg.value)\n    {\n        // fetch flight rate\n        (\n            ,\n            ,\n            ,\n            ,\n            ,\n            ,\n            address insuranceProvider,\n            ,\n            uint256 rate\n        ) = flightSuretyData.getFlight(_flightID);\n        // create insurance for the caller\n        flightSuretyData.insure(msg.sender, _flightID, rate);\n        // update total insured value  (locking up funds to be sure to be able to cover all funds locked up in contract)\n        _incrementTotalInsuredValue(rate);\n        uint256 insuranceID = flightSuretyData.getCurrentInsuranceID();\n        emit NewInsurance(\n            msg.sender,\n            insuranceProvider,\n            insuranceID,\n            _flightID,\n            rate\n        );\n    }\n\n    function claimInsurance(uint256 _insuranceID)\n        external\n        payable\n        onlyOperational\n        requireFlightIsLate(_insuranceID)\n        onlyInsuranceOwner(_insuranceID)\n        requireInsuranceIsNotClaimed(_insuranceID)\n    {\n        // fetch the insurance insured value\n        (uint256 flightID, uint256 insuredValue, , ) = flightSuretyData\n            .getInsurance(_insuranceID);\n        // fetch the flight data\n        (, , , , , , address insuranceProvider, , ) = flightSuretyData\n            .getFlight(flightID);\n        // update insurance to claimed\n        flightSuretyData.setInsuranceToClaimed(_insuranceID);\n        // update total insured value as funds are about to be sent (unlocking funds to take new insurance contracts)\n        flightSuretyData.setTotalInsuredValue(\n            flightSuretyData.getTotalInsuredValue().sub(insuredValue)\n        );\n        // calculate the amount to transfer according to the insurance coverage policy\n        payable(msg.sender).transfer(\n            _calculateInsuredValueBenefits(insuredValue)\n        );\n        emit NewPayout(\n            msg.sender,\n            insuranceProvider,\n            flightID,\n            insuredValue,\n            _insuranceID\n        );\n    }\n\n    /* Settings amendment proposals*/\n\n    // fetch the current membership fee\n    function currentMembershipFee() external view returns (uint256) {\n        return membershipFeeAmendmentProposal.getCurrentMembershipFee();\n    }\n\n    // fetch the current insurance coverage ratio\n    function currentInsuranceCoverageRatio() external view returns (uint256) {\n        return insuranceCoverageAmendmentProposal.getCurrentInsuranceCoverage();\n    }\n\n    // membership fee amendment proposals\n\n    function registerMembershipFeeAmendmentProposal(uint256 _proposedValue)\n        external\n        onlyOperational\n        onlyTokenHolder(msg.sender)\n    {\n        membershipFeeAmendmentProposal.registerMembershipFeeAmendmentProposal(\n            msg.sender,\n            _proposedValue,\n            flightSuretyShares.balanceOf(msg.sender)\n        );\n        uint256 _proposalID = membershipFeeAmendmentProposal\n            .getMembershipFeeAmendmentProposalCurrentProposalID();\n        emit NewMembershipFeeAmendmentProposal(\n            _proposalID,\n            msg.sender,\n            _proposedValue\n        );\n        emit NewVoteMembershipFeeAmendmentProposal(_proposalID, msg.sender);\n    }\n\n    function voteMembershipFeeAmendmentProposal(uint256 _proposalID)\n        external\n        onlyOperational\n        onlyTokenHolder(msg.sender)\n        requireTokenHolderIsOldEnough(msg.sender)\n        requireTokenHolderHasNotVotedMembershipFeeAmendmentProposal(\n            msg.sender,\n            _proposalID\n        )\n        requireMembershipFeeHasNotBeenSet(_proposalID)\n        requireMembershipFeeProposalIsActive(_proposalID)\n    {\n        membershipFeeAmendmentProposal.voteMembershipFeeAmendmentProposal(\n            _proposalID,\n            msg.sender,\n            true,\n            flightSuretyShares.balanceOf(msg.sender)\n        );\n        bool consensusCheck = membershipFeeAmendmentProposal\n            .hasMembershipFeeAmendmentProposalReachedConsensus(\n                _proposalID,\n                true,\n                _calculateProvidersConsensusTreshold()\n            );\n        if (consensusCheck) {\n            membershipFeeAmendmentProposal\n                .activateMembershipFeeAmendmentProposal(_proposalID);\n            uint256 lockedMembershipFee = membershipFeeAmendmentProposal\n                .getCurrentMembershipFee();\n            emit NewVoteMembershipFeeAmendmentProposal(_proposalID, msg.sender);\n            emit ActivatedMembershipFeeAmendmentProposal(\n                _proposalID,\n                lockedMembershipFee\n            );\n        } else {\n            emit NewVoteMembershipFeeAmendmentProposal(_proposalID, msg.sender);\n        }\n    }\n\n    // insurance coverage amendment proposal\n\n    function registerInsuranceCoverageAmendmentProposal(uint256 _proposedValue)\n        external\n        onlyOperational\n        onlyTokenHolder(msg.sender)\n    {\n        insuranceCoverageAmendmentProposal\n            .registerInsuranceCoverageAmendmentProposal(\n                msg.sender,\n                _proposedValue,\n                flightSuretyShares.balanceOf(msg.sender)\n            );\n        uint256 _proposalID = insuranceCoverageAmendmentProposal\n            .getInsuranceCoverageAmendmentCurrentProposalID();\n        emit NewInsuranceCoverageAmendmentProposal(\n            _proposalID,\n            msg.sender,\n            _proposedValue\n        );\n        emit NewVoteInsuranceCoverageAmendmentProposal(_proposalID, msg.sender);\n    }\n\n    function voteInsuranceCoverageAmendmentProposal(uint256 _proposalID)\n        external\n        onlyOperational\n        onlyTokenHolder(msg.sender)\n        requireTokenHolderIsOldEnough(msg.sender)\n        requireTokenHolderHasNotVotedInsuranceCoverageAmendmentProposal(\n            msg.sender,\n            _proposalID\n        )\n        requireInsuranceCoverageProposalHasNotBeenSet(_proposalID)\n        requireInsuranceCoverageProposalIsActive(_proposalID)\n    {\n        insuranceCoverageAmendmentProposal\n            .voteInsuranceCoverageAmendmentProposal(\n                _proposalID,\n                msg.sender,\n                true,\n                flightSuretyShares.balanceOf(msg.sender)\n            );\n        bool consensusCheck = insuranceCoverageAmendmentProposal\n            .hasInsuranceCoverageAmendmentProposalReachedConsensus(\n                _proposalID,\n                true,\n                _calculateProvidersConsensusTreshold()\n            );\n        if (consensusCheck) {\n            insuranceCoverageAmendmentProposal\n                .activateInsuranceCoverageAmendmentProposal(_proposalID);\n            uint256 insuranceCoverage = insuranceCoverageAmendmentProposal\n                .getCurrentInsuranceCoverage();\n            emit NewVoteInsuranceCoverageAmendmentProposal(\n                _proposalID,\n                msg.sender\n            );\n            emit ActivatedInsuranceCoverageAmendmentProposal(\n                _proposalID,\n                insuranceCoverage\n            );\n        } else {\n            emit NewVoteInsuranceCoverageAmendmentProposal(\n                _proposalID,\n                msg.sender\n            );\n        }\n    }\n\n    // fetch the oracle provider indexes\n    function getOracleIndexes()\n        external\n        view\n        onlyActivatedOracleProvider(msg.sender)\n        returns (\n            uint256 index1,\n            uint256 index2,\n            uint256 index3\n        )\n    {\n        (index1, index2, index3) = oracleProviderRole.getOracleIndexes(\n            msg.sender\n        );\n        return (index1, index2, index3);\n    }\n\n    // redeem all tokens of an account for it's share of the fund's profits\n    function redeemToken()\n        external\n        onlyTokenHolder(msg.sender)\n        requireBlockNumBeforeRedeemReached(msg.sender)\n    {\n        uint256 _totalBalance = address(this).balance;\n        uint256 _totalInsuredValue = flightSuretyData.getTotalInsuredValue();\n        uint256 _tokenSupply = flightSuretyShares.totalSupply();\n        uint256 _callerTokenBalance = flightSuretyShares.balanceOf(msg.sender);\n        uint256 _profitsPerShare = _calculateProfitsPerShare(\n            _totalBalance,\n            _totalInsuredValue,\n            _tokenSupply\n        );\n        uint256 _amountToTransfer = _callerTokenBalance.mul(_profitsPerShare);\n        // burning old token as they hav been redeemed\n        flightSuretyShares.burn(msg.sender, _callerTokenBalance);\n        // re mininting them with renewed rights aka reset coin age and block number before redeem;\n        flightSuretyShares.mint(msg.sender, _callerTokenBalance);\n        payable(msg.sender).transfer(_amountToTransfer);\n        emit RedeemedToken(msg.sender, _callerTokenBalance, _amountToTransfer);\n    }\n\n    function _incrementTotalInsuredValue(uint256 _addedValue) internal {\n        uint256 currentTotalInsuredValue = flightSuretyData\n            .getTotalInsuredValue();\n        flightSuretyData.setTotalInsuredValue(\n            currentTotalInsuredValue.add(_addedValue)\n        );\n    }\n\n    function _calculateInsuredValueBenefits(uint256 initialValue)\n        internal\n        view\n        returns (uint256 insuredValueCoverage)\n    {\n        uint256 currentInsuranceCoverage = insuranceCoverageAmendmentProposal\n            .getCurrentInsuranceCoverage();\n        return initialValue.mul(currentInsuranceCoverage).div(100);\n    }\n\n    function _calculateProvidersConsensusTreshold()\n        internal\n        view\n        returns (uint256 providersConsensusTreshold)\n    {\n        return flightSuretyShares.totalSupply().div(2);\n    }\n\n    function _calculateSharesToMint()\n        internal\n        pure\n        returns (uint256 sharesToMint)\n    {\n        return 1;\n    }\n\n    function _calculateProfitsPerShare(\n        uint256 totalBalance,\n        uint256 totalInsuredValue,\n        uint256 tokenSupply\n    ) internal pure returns (uint256 amount) {\n        return totalBalance.sub(totalInsuredValue).div(tokenSupply);\n    }\n}\n",
  "sourcePath": "/home/tothemoon_/Documents/FlightInsurance/contracts/FlightSuretyApp/FlightSuretyApp.sol",
  "compiler": {
    "name": "solc",
    "version": "0.8.0+commit.c7dfd78e.Emscripten.clang"
  },
  "schemaVersion": "3.4.2",
  "updatedAt": "2021-08-19T08:23:17.817Z",
  "networkType": "ethereum",
  "devdoc": {
    "kind": "dev",
    "methods": {},
    "version": 1
  },
  "userdoc": {
    "kind": "user",
    "methods": {},
    "version": 1
  }
}