{
  "contractName": "FlightSuretyShares",
  "abi": [
    {
      "inputs": [
        {
          "internalType": "address",
          "name": "_appContractAddress",
          "type": "address"
        }
      ],
      "stateMutability": "nonpayable",
      "type": "constructor"
    },
    {
      "anonymous": false,
      "inputs": [
        {
          "indexed": true,
          "internalType": "address",
          "name": "owner",
          "type": "address"
        },
        {
          "indexed": true,
          "internalType": "address",
          "name": "spender",
          "type": "address"
        },
        {
          "indexed": false,
          "internalType": "uint256",
          "name": "value",
          "type": "uint256"
        }
      ],
      "name": "Approval",
      "type": "event"
    },
    {
      "anonymous": false,
      "inputs": [
        {
          "indexed": true,
          "internalType": "address",
          "name": "from",
          "type": "address"
        },
        {
          "indexed": true,
          "internalType": "address",
          "name": "to",
          "type": "address"
        },
        {
          "indexed": false,
          "internalType": "uint256",
          "name": "value",
          "type": "uint256"
        }
      ],
      "name": "Transfer",
      "type": "event"
    },
    {
      "inputs": [
        {
          "internalType": "address",
          "name": "owner",
          "type": "address"
        },
        {
          "internalType": "address",
          "name": "spender",
          "type": "address"
        }
      ],
      "name": "allowance",
      "outputs": [
        {
          "internalType": "uint256",
          "name": "",
          "type": "uint256"
        }
      ],
      "stateMutability": "view",
      "type": "function",
      "constant": true
    },
    {
      "inputs": [
        {
          "internalType": "address",
          "name": "spender",
          "type": "address"
        },
        {
          "internalType": "uint256",
          "name": "amount",
          "type": "uint256"
        }
      ],
      "name": "approve",
      "outputs": [
        {
          "internalType": "bool",
          "name": "",
          "type": "bool"
        }
      ],
      "stateMutability": "nonpayable",
      "type": "function"
    },
    {
      "inputs": [
        {
          "internalType": "address",
          "name": "account",
          "type": "address"
        }
      ],
      "name": "balanceOf",
      "outputs": [
        {
          "internalType": "uint256",
          "name": "",
          "type": "uint256"
        }
      ],
      "stateMutability": "view",
      "type": "function",
      "constant": true
    },
    {
      "inputs": [],
      "name": "decimals",
      "outputs": [
        {
          "internalType": "uint8",
          "name": "",
          "type": "uint8"
        }
      ],
      "stateMutability": "view",
      "type": "function",
      "constant": true
    },
    {
      "inputs": [
        {
          "internalType": "address",
          "name": "spender",
          "type": "address"
        },
        {
          "internalType": "uint256",
          "name": "subtractedValue",
          "type": "uint256"
        }
      ],
      "name": "decreaseAllowance",
      "outputs": [
        {
          "internalType": "bool",
          "name": "",
          "type": "bool"
        }
      ],
      "stateMutability": "nonpayable",
      "type": "function"
    },
    {
      "inputs": [],
      "name": "destructContract",
      "outputs": [],
      "stateMutability": "nonpayable",
      "type": "function"
    },
    {
      "inputs": [
        {
          "internalType": "address",
          "name": "spender",
          "type": "address"
        },
        {
          "internalType": "uint256",
          "name": "addedValue",
          "type": "uint256"
        }
      ],
      "name": "increaseAllowance",
      "outputs": [
        {
          "internalType": "bool",
          "name": "",
          "type": "bool"
        }
      ],
      "stateMutability": "nonpayable",
      "type": "function"
    },
    {
      "inputs": [],
      "name": "name",
      "outputs": [
        {
          "internalType": "string",
          "name": "",
          "type": "string"
        }
      ],
      "stateMutability": "view",
      "type": "function",
      "constant": true
    },
    {
      "inputs": [],
      "name": "symbol",
      "outputs": [
        {
          "internalType": "string",
          "name": "",
          "type": "string"
        }
      ],
      "stateMutability": "view",
      "type": "function",
      "constant": true
    },
    {
      "inputs": [],
      "name": "totalSupply",
      "outputs": [
        {
          "internalType": "uint256",
          "name": "",
          "type": "uint256"
        }
      ],
      "stateMutability": "view",
      "type": "function",
      "constant": true
    },
    {
      "inputs": [
        {
          "internalType": "address",
          "name": "recipient",
          "type": "address"
        },
        {
          "internalType": "uint256",
          "name": "amount",
          "type": "uint256"
        }
      ],
      "name": "transfer",
      "outputs": [
        {
          "internalType": "bool",
          "name": "",
          "type": "bool"
        }
      ],
      "stateMutability": "nonpayable",
      "type": "function"
    },
    {
      "inputs": [
        {
          "internalType": "address",
          "name": "sender",
          "type": "address"
        },
        {
          "internalType": "address",
          "name": "recipient",
          "type": "address"
        },
        {
          "internalType": "uint256",
          "name": "amount",
          "type": "uint256"
        }
      ],
      "name": "transferFrom",
      "outputs": [
        {
          "internalType": "bool",
          "name": "",
          "type": "bool"
        }
      ],
      "stateMutability": "nonpayable",
      "type": "function"
    },
    {
      "inputs": [
        {
          "internalType": "address",
          "name": "_newOwner",
          "type": "address"
        }
      ],
      "name": "transferOwnership",
      "outputs": [],
      "stateMutability": "nonpayable",
      "type": "function"
    },
    {
      "inputs": [
        {
          "internalType": "address",
          "name": "_caller",
          "type": "address"
        }
      ],
      "name": "authorizeCaller",
      "outputs": [],
      "stateMutability": "nonpayable",
      "type": "function"
    },
    {
      "inputs": [
        {
          "internalType": "address",
          "name": "_caller",
          "type": "address"
        }
      ],
      "name": "unauthorizeCaller",
      "outputs": [],
      "stateMutability": "nonpayable",
      "type": "function"
    },
    {
      "inputs": [
        {
          "internalType": "address",
          "name": "account",
          "type": "address"
        },
        {
          "internalType": "uint256",
          "name": "amount",
          "type": "uint256"
        }
      ],
      "name": "mint",
      "outputs": [],
      "stateMutability": "nonpayable",
      "type": "function"
    },
    {
      "inputs": [
        {
          "internalType": "address",
          "name": "account",
          "type": "address"
        },
        {
          "internalType": "uint256",
          "name": "amount",
          "type": "uint256"
        }
      ],
      "name": "burn",
      "outputs": [],
      "stateMutability": "nonpayable",
      "type": "function"
    }
  ],
  "bytecode": "0x60806040523480156200001157600080fd5b506040516200119e3803806200119e83398101604081905262000034916200018c565b60405180604001604052806012815260200171466c6967687453757265747953686172657360701b8152506040518060400160405280600381526020016246535360e81b815250816003908051906020019062000093929190620000e6565b508051620000a9906004906020840190620000e6565b5050600580546001600160a01b03191633179055506001600160a01b03166000908152600660205260409020805460ff19166001179055620001f9565b828054620000f490620001bc565b90600052602060002090601f01602090048101928262000118576000855562000163565b82601f106200013357805160ff191683800117855562000163565b8280016001018555821562000163579182015b828111156200016357825182559160200191906001019062000146565b506200017192915062000175565b5090565b5b8082111562000171576000815560010162000176565b6000602082840312156200019e578081fd5b81516001600160a01b0381168114620001b5578182fd5b9392505050565b600281046001821680620001d157607f821691505b60208210811415620001f357634e487b7160e01b600052602260045260246000fd5b50919050565b610f9580620002096000396000f3fe608060405234801561001057600080fd5b506004361061010b5760003560e01c80634ac8c5ae116100a25780639dc29fac116100715780639dc29fac146101fc578063a457c2d71461020f578063a9059cbb14610222578063dd62ed3e14610235578063f2fde38b146102485761010b565b80634ac8c5ae146101c657806370a08231146101d95780639499e018146101ec57806395d89b41146101f45761010b565b80632c388d5d116100de5780632c388d5d14610176578063313ce5671461018b57806339509351146101a057806340c10f19146101b35761010b565b806306fdde0314610110578063095ea7b31461012e57806318160ddd1461014e57806323b872dd14610163575b600080fd5b61011861025b565b6040516101259190610b63565b60405180910390f35b61014161013c366004610b2f565b6102ed565b6040516101259190610b58565b61015661030a565b6040516101259190610ec8565b610141610171366004610af4565b610310565b610189610184366004610aa1565b6103a9565b005b6101936103f9565b6040516101259190610ed1565b6101416101ae366004610b2f565b6103fe565b6101896101c1366004610b2f565b610452565b6101896101d4366004610aa1565b6104a4565b6101566101e7366004610aa1565b6104f1565b610189610510565b610118610548565b61018961020a366004610b2f565b610557565b61014161021d366004610b2f565b6105a5565b610141610230366004610b2f565b61061e565b610156610243366004610ac2565b610632565b610189610256366004610aa1565b61065d565b60606003805461026a90610f0e565b80601f016020809104026020016040519081016040528092919081815260200182805461029690610f0e565b80156102e35780601f106102b8576101008083540402835291602001916102e3565b820191906000526020600020905b8154815290600101906020018083116102c657829003601f168201915b5050505050905090565b60006103016102fa6106a9565b84846106ad565b50600192915050565b60025490565b600061031d848484610761565b6001600160a01b03841660009081526001602052604081208161033e6106a9565b6001600160a01b03166001600160a01b031681526020019081526020016000205490508281101561038a5760405162461bcd60e51b815260040161038190610d0c565b60405180910390fd5b61039e856103966106a9565b8584036106ad565b506001949350505050565b6005546001600160a01b03163314806103d157503360009081526006602052604090205460ff165b6103ed5760405162461bcd60e51b815260040161038190610c7d565b6103f68161088b565b50565b601290565b600061030161040b6106a9565b8484600160006104196106a9565b6001600160a01b03908116825260208083019390935260409182016000908120918b168152925290205461044d9190610edf565b6106ad565b6005546001600160a01b031633148061047a57503360009081526006602052604090205460ff165b6104965760405162461bcd60e51b815260040161038190610c7d565b6104a082826108af565b5050565b6005546001600160a01b03163314806104cc57503360009081526006602052604090205460ff165b6104e85760405162461bcd60e51b815260040161038190610c7d565b6103f681610977565b6001600160a01b0381166000908152602081905260409020545b919050565b6005546001600160a01b0316331461053a5760405162461bcd60e51b815260040161038190610dda565b6005546001600160a01b0316ff5b60606004805461026a90610f0e565b6005546001600160a01b031633148061057f57503360009081526006602052604090205460ff165b61059b5760405162461bcd60e51b815260040161038190610c7d565b6104a08282610998565b600080600160006105b46106a9565b6001600160a01b03908116825260208083019390935260409182016000908120918816815292529020549050828110156106005760405162461bcd60e51b815260040161038190610e4c565b61061461060b6106a9565b858584036106ad565b5060019392505050565b600061030161062b6106a9565b8484610761565b6001600160a01b03918216600090815260016020908152604080832093909416825291909152205490565b6005546001600160a01b031633146106875760405162461bcd60e51b815260040161038190610dda565b600580546001600160a01b0319166001600160a01b0392909216919091179055565b3390565b6001600160a01b0383166106d35760405162461bcd60e51b815260040161038190610e08565b6001600160a01b0382166106f95760405162461bcd60e51b815260040161038190610c3b565b6001600160a01b0380841660008181526001602090815260408083209487168084529490915290819020849055517f8c5be1e5ebec7d5bd14f71427d1e84f3dd0314c0f7b2291e5b200ac8c7c3b92590610754908590610ec8565b60405180910390a3505050565b6001600160a01b0383166107875760405162461bcd60e51b815260040161038190610d95565b6001600160a01b0382166107ad5760405162461bcd60e51b815260040161038190610bb6565b6107b8838383610a85565b6001600160a01b038316600090815260208190526040902054818110156107f15760405162461bcd60e51b815260040161038190610cc6565b6001600160a01b03808516600090815260208190526040808220858503905591851681529081208054849290610828908490610edf565b92505081905550826001600160a01b0316846001600160a01b03167fddf252ad1be2c89b69c2b068fc378daa952ba7f163c4a11628f55a4df523b3ef846040516108729190610ec8565b60405180910390a3610885848484610a85565b50505050565b6001600160a01b03166000908152600660205260409020805460ff19166001179055565b6001600160a01b0382166108d55760405162461bcd60e51b815260040161038190610e91565b6108e160008383610a85565b80600260008282546108f39190610edf565b90915550506001600160a01b03821660009081526020819052604081208054839290610920908490610edf565b90915550506040516001600160a01b038316906000907fddf252ad1be2c89b69c2b068fc378daa952ba7f163c4a11628f55a4df523b3ef90610963908590610ec8565b60405180910390a36104a060008383610a85565b6001600160a01b03166000908152600660205260409020805460ff19169055565b6001600160a01b0382166109be5760405162461bcd60e51b815260040161038190610d54565b6109ca82600083610a85565b6001600160a01b03821660009081526020819052604090205481811015610a035760405162461bcd60e51b815260040161038190610bf9565b6001600160a01b0383166000908152602081905260408120838303905560028054849290610a32908490610ef7565b90915550506040516000906001600160a01b038516907fddf252ad1be2c89b69c2b068fc378daa952ba7f163c4a11628f55a4df523b3ef90610a75908690610ec8565b60405180910390a3610a85836000845b505050565b80356001600160a01b038116811461050b57600080fd5b600060208284031215610ab2578081fd5b610abb82610a8a565b9392505050565b60008060408385031215610ad4578081fd5b610add83610a8a565b9150610aeb60208401610a8a565b90509250929050565b600080600060608486031215610b08578081fd5b610b1184610a8a565b9250610b1f60208501610a8a565b9150604084013590509250925092565b60008060408385031215610b41578182fd5b610b4a83610a8a565b946020939093013593505050565b901515815260200190565b6000602080835283518082850152825b81811015610b8f57858101830151858201604001528201610b73565b81811115610ba05783604083870101525b50601f01601f1916929092016040019392505050565b60208082526023908201527f45524332303a207472616e7366657220746f20746865207a65726f206164647260408201526265737360e81b606082015260800190565b60208082526022908201527f45524332303a206275726e20616d6f756e7420657863656564732062616c616e604082015261636560f01b606082015260800190565b60208082526022908201527f45524332303a20617070726f766520746f20746865207a65726f206164647265604082015261737360f01b606082015260800190565b60208082526029908201527f63616c6c6572206d757374206265206f776e6572206f7220617574686f72697a60408201526832b21031b0b63632b960b91b606082015260800190565b60208082526026908201527f45524332303a207472616e7366657220616d6f756e7420657863656564732062604082015265616c616e636560d01b606082015260800190565b60208082526028908201527f45524332303a207472616e7366657220616d6f756e74206578636565647320616040820152676c6c6f77616e636560c01b606082015260800190565b60208082526021908201527f45524332303a206275726e2066726f6d20746865207a65726f206164647265736040820152607360f81b606082015260800190565b60208082526025908201527f45524332303a207472616e736665722066726f6d20746865207a65726f206164604082015264647265737360d81b606082015260800190565b60208082526014908201527331b0b63632b91036bab9ba1031329037bbb732b960611b604082015260600190565b60208082526024908201527f45524332303a20617070726f76652066726f6d20746865207a65726f206164646040820152637265737360e01b606082015260800190565b60208082526025908201527f45524332303a2064656372656173656420616c6c6f77616e63652062656c6f77604082015264207a65726f60d81b606082015260800190565b6020808252601f908201527f45524332303a206d696e7420746f20746865207a65726f206164647265737300604082015260600190565b90815260200190565b60ff91909116815260200190565b60008219821115610ef257610ef2610f49565b500190565b600082821015610f0957610f09610f49565b500390565b600281046001821680610f2257607f821691505b60208210811415610f4357634e487b7160e01b600052602260045260246000fd5b50919050565b634e487b7160e01b600052601160045260246000fdfea2646970667358221220b236c2c818dccd704e0a9fb4d3d9a6243e7dbe53a0806fb79ce4129e72120b0164736f6c63430008000033",
  "immutableReferences": {},
  "source": "// SPDX-License-Identifier: UNLICENSED\npragma solidity ^0.8.00;\n\nimport \"../Ownable/Ownable.sol\";\nimport \"../CallerAuditable/CallerAuditable.sol\";\nimport \"@openzeppelin/contracts/token/ERC20/ERC20.sol\";\n\ncontract FlightSuretyShares is ERC20, Ownable, CallerAuditable {\n    modifier onlyOwnerOrAuthorizedCaller() {\n        require(\n            msg.sender == owner || authorizedCallers[msg.sender],\n            \"caller must be owner or authorized caller\"\n        );\n        _;\n    }\n\n    // constructor setting owner and initial authorized caller address aka appAddress\n    constructor(address _appContractAddress)\n        Ownable()\n        ERC20(\"FlightSuretyShares\", \"FSS\")\n    {\n        authorizedCallers[_appContractAddress] = true;\n    }\n\n    // authorize a new caller to call the contract\n    function authorizeCaller(address _caller)\n        external\n        onlyOwnerOrAuthorizedCaller\n    {\n        _authorizeCaller(_caller);\n    }\n\n    // remove an existing caller rights to call the contract\n    function unauthorizeCaller(address _caller)\n        external\n        onlyOwnerOrAuthorizedCaller\n    {\n        _unauthorizeCaller(_caller);\n    }\n\n    // allow token minting on deposit of funds by orclae or insurance providers\n    function mint(address account, uint256 amount)\n        external\n        onlyOwnerOrAuthorizedCaller\n    {\n        _mint(account, amount);\n    }\n\n    // allow token burning on ban of an account\n    function burn(address account, uint256 amount)\n        external\n        onlyOwnerOrAuthorizedCaller\n    {\n        _burn(account, amount);\n    }\n}\n",
  "sourcePath": "/home/bender/Documents/FlightInsurance/contracts/FlightSuretyShares/FlightSuretyShares.sol",
  "compiler": {
    "name": "solc",
    "version": "0.8.0+commit.c7dfd78e.Emscripten.clang"
  },
  "schemaVersion": "3.4.2",
  "updatedAt": "2021-08-08T09:35:10.088Z",
  "networkType": "ethereum",
  "devdoc": {
    "kind": "dev",
    "methods": {
      "allowance(address,address)": {
        "details": "See {IERC20-allowance}."
      },
      "approve(address,uint256)": {
        "details": "See {IERC20-approve}. Requirements: - `spender` cannot be the zero address."
      },
      "balanceOf(address)": {
        "details": "See {IERC20-balanceOf}."
      },
      "decimals()": {
        "details": "Returns the number of decimals used to get its user representation. For example, if `decimals` equals `2`, a balance of `505` tokens should be displayed to a user as `5,05` (`505 / 10 ** 2`). Tokens usually opt for a value of 18, imitating the relationship between Ether and Wei. This is the value {ERC20} uses, unless this function is overridden; NOTE: This information is only used for _display_ purposes: it in no way affects any of the arithmetic of the contract, including {IERC20-balanceOf} and {IERC20-transfer}."
      },
      "decreaseAllowance(address,uint256)": {
        "details": "Atomically decreases the allowance granted to `spender` by the caller. This is an alternative to {approve} that can be used as a mitigation for problems described in {IERC20-approve}. Emits an {Approval} event indicating the updated allowance. Requirements: - `spender` cannot be the zero address. - `spender` must have allowance for the caller of at least `subtractedValue`."
      },
      "increaseAllowance(address,uint256)": {
        "details": "Atomically increases the allowance granted to `spender` by the caller. This is an alternative to {approve} that can be used as a mitigation for problems described in {IERC20-approve}. Emits an {Approval} event indicating the updated allowance. Requirements: - `spender` cannot be the zero address."
      },
      "name()": {
        "details": "Returns the name of the token."
      },
      "symbol()": {
        "details": "Returns the symbol of the token, usually a shorter version of the name."
      },
      "totalSupply()": {
        "details": "See {IERC20-totalSupply}."
      },
      "transfer(address,uint256)": {
        "details": "See {IERC20-transfer}. Requirements: - `recipient` cannot be the zero address. - the caller must have a balance of at least `amount`."
      },
      "transferFrom(address,address,uint256)": {
        "details": "See {IERC20-transferFrom}. Emits an {Approval} event indicating the updated allowance. This is not required by the EIP. See the note at the beginning of {ERC20}. Requirements: - `sender` and `recipient` cannot be the zero address. - `sender` must have a balance of at least `amount`. - the caller must have allowance for ``sender``'s tokens of at least `amount`."
      }
    },
    "version": 1
  },
  "userdoc": {
    "kind": "user",
    "methods": {},
    "version": 1
  }
}