{
  "contractName": "FlightSuretyOracle",
  "abi": [
    {
      "inputs": [],
      "stateMutability": "nonpayable",
      "type": "constructor"
    },
    {
      "anonymous": false,
      "inputs": [
        {
          "indexed": false,
          "internalType": "uint256",
          "name": "_realArrival",
          "type": "uint256"
        },
        {
          "indexed": false,
          "internalType": "uint256",
          "name": "_realDeparture",
          "type": "uint256"
        },
        {
          "indexed": false,
          "internalType": "uint256",
          "name": "_isLate",
          "type": "uint256"
        }
      ],
      "name": "AcceptedResponse",
      "type": "event"
    },
    {
      "anonymous": false,
      "inputs": [
        {
          "indexed": true,
          "internalType": "uint256",
          "name": "requestID",
          "type": "uint256"
        },
        {
          "indexed": true,
          "internalType": "uint256",
          "name": "flightID",
          "type": "uint256"
        },
        {
          "indexed": false,
          "internalType": "string",
          "name": "flightRef",
          "type": "string"
        }
      ],
      "name": "FailedRequest",
      "type": "event"
    },
    {
      "anonymous": false,
      "inputs": [
        {
          "indexed": true,
          "internalType": "uint256",
          "name": "requestID",
          "type": "uint256"
        },
        {
          "indexed": true,
          "internalType": "uint256",
          "name": "flightID",
          "type": "uint256"
        },
        {
          "indexed": false,
          "internalType": "string",
          "name": "flightRef",
          "type": "string"
        }
      ],
      "name": "NewRequest",
      "type": "event"
    },
    {
      "anonymous": false,
      "inputs": [
        {
          "indexed": true,
          "internalType": "uint256",
          "name": "requestID",
          "type": "uint256"
        },
        {
          "indexed": false,
          "internalType": "uint256",
          "name": "realDeparture",
          "type": "uint256"
        },
        {
          "indexed": false,
          "internalType": "uint256",
          "name": "realArrival",
          "type": "uint256"
        },
        {
          "indexed": false,
          "internalType": "uint256",
          "name": "isLate",
          "type": "uint256"
        }
      ],
      "name": "NewResponse",
      "type": "event"
    },
    {
      "anonymous": false,
      "inputs": [
        {
          "indexed": true,
          "internalType": "uint256",
          "name": "flightID",
          "type": "uint256"
        },
        {
          "indexed": false,
          "internalType": "uint256",
          "name": "realDeparture",
          "type": "uint256"
        },
        {
          "indexed": false,
          "internalType": "uint256",
          "name": "realArrival",
          "type": "uint256"
        },
        {
          "indexed": false,
          "internalType": "bool",
          "name": "isLate",
          "type": "bool"
        }
      ],
      "name": "UpdatedFlight",
      "type": "event"
    },
    {
      "inputs": [],
      "name": "destructContract",
      "outputs": [],
      "stateMutability": "nonpayable",
      "type": "function"
    },
    {
      "inputs": [
        {
          "internalType": "address",
          "name": "_newOwner",
          "type": "address"
        }
      ],
      "name": "transferOwnership",
      "outputs": [],
      "stateMutability": "nonpayable",
      "type": "function"
    },
    {
      "inputs": [
        {
          "internalType": "address",
          "name": "_flightSuretyData",
          "type": "address"
        },
        {
          "internalType": "address",
          "name": "_oracleProviderRole",
          "type": "address"
        }
      ],
      "name": "initialize",
      "outputs": [],
      "stateMutability": "nonpayable",
      "type": "function"
    },
    {
      "inputs": [
        {
          "internalType": "uint256",
          "name": "_flightID",
          "type": "uint256"
        },
        {
          "internalType": "string",
          "name": "_flightRef",
          "type": "string"
        }
      ],
      "name": "createRequest",
      "outputs": [],
      "stateMutability": "nonpayable",
      "type": "function"
    },
    {
      "inputs": [
        {
          "internalType": "address",
          "name": "_caller",
          "type": "address"
        },
        {
          "internalType": "uint256",
          "name": "_requestID",
          "type": "uint256"
        },
        {
          "internalType": "uint256",
          "name": "_realDeparture",
          "type": "uint256"
        },
        {
          "internalType": "uint256",
          "name": "_realArrival",
          "type": "uint256"
        },
        {
          "internalType": "uint256",
          "name": "_isLate",
          "type": "uint256"
        }
      ],
      "name": "respondToRequest",
      "outputs": [],
      "stateMutability": "nonpayable",
      "type": "function"
    }
  ],
  "bytecode": "0x608060405234801561001057600080fd5b50600080546001600160a01b0319163317905561117b806100326000396000f3fe608060405234801561001057600080fd5b50600436106100575760003560e01c806307d7644b1461005c578063485cc955146100715780639499e01814610084578063cadddd7d1461008c578063f2fde38b1461009f575b600080fd5b61006f61006a366004610ce8565b6100b2565b005b61006f61007f366004610cb0565b61017a565b61006f6101d2565b61006f61009a366004610e6f565b61020a565b61006f6100ad366004610c94565b6103b4565b60085460405163775cbd8d60e01b815233916001600160a01b03169063775cbd8d906100e2908490600401610eef565b602060405180830381600087803b1580156100fc57600080fd5b505af1158015610110573d6000803e3d6000fd5b505050506040513d601f19601f820116820180604052508101906101349190610d2b565b6101595760405162461bcd60e51b815260040161015090610f93565b60405180910390fd5b6101668686868686610400565b610172858585856105ab565b505050505050565b6000546001600160a01b031633146101a45760405162461bcd60e51b815260040161015090610f65565b600780546001600160a01b039384166001600160a01b03199182161790915560088054929093169116179055565b6000546001600160a01b031633146101fc5760405162461bcd60e51b815260040161015090610f65565b6000546001600160a01b0316ff5b60085460405163775cbd8d60e01b815233916001600160a01b03169063775cbd8d9061023a908490600401610eef565b602060405180830381600087803b15801561025457600080fd5b505af1158015610268573d6000803e3d6000fd5b505050506040513d601f19601f8201168201806040525081019061028c9190610d2b565b6102a85760405162461bcd60e51b815260040161015090610f93565b60006102b26108e4565b6002805491925060006102c4836110c6565b9190505550604051806080016040528086815260200185858080601f01602080910402602001604051908101604052809392919081815260200183838082843760009201829052509385525050506020808301859052604092830182905260025482526003815291902082518155828201518051919261034c92600185019290910190610b7d565b5060408201516103629060028301906003610c01565b5060608201518160050155905050846002547fe40cd7e4fef29cc74d9af78e6893f1b63102b131a588f6d46a75f3e79f040e3986866040516103a5929190610f03565b60405180910390a35050505050565b6000546001600160a01b031633146103de5760405162461bcd60e51b815260040161015090610f65565b600080546001600160a01b0319166001600160a01b0392909216919091179055565b600084815260036020526040812060050180549161041d836110c6565b909155505060008481526005602090815260408083206001600160a01b03891684528252808320805460ff1916600117905586835260048252808320868452909152812080549161046d836110c6565b909155505060008481526004602090815260408083208584529091528120805491610497836110c6565b9091555050600084815260046020908152604080832084845290915281208054916104c1836110c6565b909155505060008481526004602090815260408083208684528083528184205488855260068452828520548552925290912054111561050c5760008481526006602052604090208390555b6000848152600460209081526040808320858452808352818420548885526006845282852060010154855292529091205411156105585760008481526006602052604090208290600101555b6000848152600460209081526040808320848452808352818420548885526006845282852060020154855292529091205411156105a45760008481526006602052604090208190600201555b5050505050565b6000848152600460209081526040808320600683528184205484529091529020546005118015906106005750600084815260046020908152604080832060068352818420600101548452909152902054600511155b80156106305750600084815260046020908152604080832060068352818420600201548452909152902054600511155b156107a857600084815260036020526040808220546007549151633a4396cb60e01b815290929182916001600160a01b0390911690633a4396cb90610679908690600401610ee6565b60006040518083038186803b15801561069157600080fd5b505afa1580156106a5573d6000803e3d6000fd5b505050506040513d6000823e601f3d908101601f191682016040526106cd9190810190610d45565b975050965050505050506106e387878787610971565b6106ed8282610a04565b867fed89dd676a91650c6b31f799532dca44ef7be22b763895233144dec6be9d70ee87878760405161072193929190610ff2565b60405180910390a27fbaeeb2d2f262ecf4febe73bbc8d759e0eb659617bffb4e6a8dfe2b55a9e80ea885878660405161075c93929190610ff2565b60405180910390a1827fe91efb510e8104be9abbfc0d3d33bf17c65044e767c599822ac1be59fabe7f0787878560405161079893929190610fda565b60405180910390a25050506108de565b600084815260036020526040902060059081015411156108a15760008481526003602052604081208054600190910180549192916107e59061108b565b80601f01602080910402602001604051908101604052809291908181526020018280546108119061108b565b801561085e5780601f106108335761010080835404028352916020019161085e565b820191906000526020600020905b81548152906001019060200180831161084157829003601f168201915b5050505050905081867fba14b70427c62a63128dc4b7a9be67fb2e823b9655056f0185b4e9dd0180134f836040516108969190610f32565b60405180910390a350505b837fed89dd676a91650c6b31f799532dca44ef7be22b763895233144dec6be9d70ee8484846040516108d593929190610ff2565b60405180910390a25b50505050565b6108ec610c2e565b60008060006108fb6014610afe565b92506109076014610afe565b91505b828214156109235761091c6014610afe565b915061090a565b61092d6014610afe565b90505b8181148061093d57508281145b156109535761094c6014610afe565b9050610930565b60408051606081018252938452602084019290925290820152905090565b6000848152600360205260408120549060018314610990576000610993565b60015b600754604051633b5fc92f60e21b81529192506001600160a01b03169063ed7f24bc906109ca908590899089908790600401611008565b600060405180830381600087803b1580156109e457600080fd5b505af11580156109f8573d6000803e3d6000fd5b50505050505050505050565b81610afa5760075460408051631a9160d760e31b815290516000926001600160a01b03169163d48b06b8916004808301926020929190829003018186803b158015610a4e57600080fd5b505afa158015610a62573d6000803e3d6000fd5b505050506040513d601f19601f82011682018060405250810190610a869190610e57565b90506000610a948284610b6a565b600754604051630b33771560e01b81529192506001600160a01b031690630b33771590610ac5908490600401610ee6565b600060405180830381600087803b158015610adf57600080fd5b505af1158015610af3573d6000803e3d6000fd5b5050505050505b5050565b6000606460015410610b105760006001555b6001805483916000610b21836110c6565b90915550610b2f9042611030565b604051602001610b3f9190610ee6565b6040516020818303038152906040528051906020012060001c610b6291906110e1565b90505b919050565b6000610b768284611048565b9392505050565b828054610b899061108b565b90600052602060002090601f016020900481019282610bab5760008555610bf1565b82601f10610bc457805160ff1916838001178555610bf1565b82800160010185558215610bf1579182015b82811115610bf1578251825591602001919060010190610bd6565b50610bfd929150610c4c565b5090565b8260038101928215610bf15791602002820182811115610bf1578251825591602001919060010190610bd6565b60405180606001604052806003906020820280368337509192915050565b5b80821115610bfd5760008155600101610c4d565b8051610b658161112d565b80518015158114610b6557600080fd5b805167ffffffffffffffff81168114610b6557600080fd5b600060208284031215610ca5578081fd5b8135610b768161112d565b60008060408385031215610cc2578081fd5b8235610ccd8161112d565b91506020830135610cdd8161112d565b809150509250929050565b600080600080600060a08688031215610cff578081fd5b8535610d0a8161112d565b97602087013597506040870135966060810135965060800135945092505050565b600060208284031215610d3c578081fd5b610b7682610c6c565b600080600080600080600080610100898b031215610d61578283fd5b885167ffffffffffffffff80821115610d78578485fd5b818b0191508b601f830112610d8b578485fd5b815181811115610d9d57610d9d611117565b604051601f8201601f191681016020018381118282101715610dc157610dc1611117565b6040528181528382016020018e1015610dd8578687fd5b610de982602083016020870161105f565b9a50610dfb9250505060208a01610c7c565b9650610e0960408a01610c7c565b9550610e1760608a01610c7c565b9450610e2560808a01610c7c565b9350610e3360a08a01610c6c565b9250610e4160c08a01610c61565b915060e089015190509295985092959890939650565b600060208284031215610e68578081fd5b5051919050565b600080600060408486031215610e83578283fd5b83359250602084013567ffffffffffffffff80821115610ea1578384fd5b818601915086601f830112610eb4578384fd5b813581811115610ec2578485fd5b876020828501011115610ed3578485fd5b6020830194508093505050509250925092565b90815260200190565b6001600160a01b0391909116815260200190565b60006020825282602083015282846040840137818301604090810191909152601f909201601f19160101919050565b6000602082528251806020840152610f5181604085016020870161105f565b601f01601f19169190910160400192915050565b60208082526014908201527331b0b63632b91036bab9ba1031329037bbb732b960611b604082015260600190565b60208082526027908201527f63616c6c6572206973206e6f7420616374697661746564206f7261636c6520706040820152663937bb34b232b960c91b606082015260800190565b92835260208301919091521515604082015260600190565b9283526020830191909152604082015260600190565b93845267ffffffffffffffff9283166020850152911660408301521515606082015260800190565b6000821982111561104357611043611101565b500190565b60008282101561105a5761105a611101565b500390565b60005b8381101561107a578181015183820152602001611062565b838111156108de5750506000910152565b60028104600182168061109f57607f821691505b602082108114156110c057634e487b7160e01b600052602260045260246000fd5b50919050565b60006000198214156110da576110da611101565b5060010190565b6000826110fc57634e487b7160e01b81526012600452602481fd5b500690565b634e487b7160e01b600052601160045260246000fd5b634e487b7160e01b600052604160045260246000fd5b6001600160a01b038116811461114257600080fd5b5056fea26469706673582212200f64c55e9b2bd741bc8e2b0766810d811611cfa8513ba45ef0101453736c56ad64736f6c63430008000033",
  "immutableReferences": {},
  "source": "// SPDX-License-Identifier: UNLICENSED\npragma solidity ^0.8.00;\n\nimport \"../Ownable/Ownable.sol\";\nimport \"../Random/Random.sol\";\nimport \"./interfaces/IOracleProviderRoleOracle.sol\";\nimport \"./interfaces/IFlightSuretyDataOracle.sol\";\nimport \"@openzeppelin/contracts/utils/math/SafeMath.sol\";\n\ncontract FlightSuretyOracle is Ownable, Random {\n    using SafeMath for uint256;\n    struct Request {\n        uint256 flightID;\n        string flightRef;\n        uint256[3] activatedIndexes;\n        uint256 responseCount;\n    }\n\n    uint256 constant ACCEPTED_ANSWER_TRESHOLD = 5;\n    uint256 currentRequestID;\n    mapping(uint256 => Request) requests;\n    mapping(uint256 => mapping(uint256 => uint256)) responses;\n    mapping(uint256 => mapping(address => bool)) responseCallers;\n    mapping(uint256 => uint256[3]) acceptedAnswer;\n    IFlightSuretyDataOracle flightSuretyData;\n    IOracleProviderRoleOracle oracleProviderRole;\n\n    // requests related events\n    event NewRequest(\n        uint256 indexed requestID,\n        uint256 indexed flightID,\n        string flightRef\n    );\n    event FailedRequest(\n        uint256 indexed requestID,\n        uint256 indexed flightID,\n        string flightRef\n    );\n    // responses related events\n    event NewResponse(\n        uint256 indexed requestID,\n        uint256 realDeparture,\n        uint256 realArrival,\n        uint256 isLate\n    );\n    event AcceptedResponse(\n        uint256 _realArrival,\n        uint256 _realDeparture,\n        uint256 _isLate\n    );\n    // flights related events\n    event UpdatedFlight(\n        uint256 indexed flightID,\n        uint256 realDeparture,\n        uint256 realArrival,\n        bool isLate\n    );\n\n    modifier onlyActivatedOracleProvider(address _caller) {\n        require(\n            oracleProviderRole.isActivatedOracleProvider(_caller),\n            \"caller is not activated oracle provider\"\n        );\n        _;\n    }\n\n    // constructor setting owner and initial authorized caller address aka appAddress\n    constructor() Ownable() {}\n\n    // initialize external contracts addresses\n    function initialize(address _flightSuretyData, address _oracleProviderRole)\n        external\n        onlyOwner\n    {\n        // registering external contracts address\n        flightSuretyData = IFlightSuretyDataOracle(_flightSuretyData);\n        oracleProviderRole = IOracleProviderRoleOracle(_oracleProviderRole);\n    }\n\n    // create a request for a targeted oracle provider subset\n    function createRequest(uint256 _flightID, string calldata _flightRef)\n        external\n        onlyActivatedOracleProvider(msg.sender)\n    {\n        uint256[3] memory _randomIndexes = _generateRandomIndexes();\n        currentRequestID++;\n        requests[currentRequestID] = Request({\n            flightID: _flightID,\n            flightRef: _flightRef,\n            activatedIndexes: _randomIndexes,\n            responseCount: 0\n        });\n        emit NewRequest(currentRequestID, _flightID, _flightRef);\n    }\n\n    // update responses to a request and validate the accepted outcome according to multiparty consensus rules\n    function respondToRequest(\n        address _caller,\n        uint256 _requestID,\n        uint256 _realDeparture,\n        uint256 _realArrival,\n        uint256 _isLate\n    ) external onlyActivatedOracleProvider(msg.sender) {\n        _updateResponses(\n            _caller,\n            _requestID,\n            _realDeparture,\n            _realArrival,\n            _isLate\n        );\n        _acceptResponse(_requestID, _realDeparture, _realArrival, _isLate);\n    }\n\n    // update responses to a request incrementing each outcomes to decide which response makes consensus among the selected set of oracle provider\n    function _updateResponses(\n        address _caller,\n        uint256 _requestID,\n        uint256 _realDeparture,\n        uint256 _realArrival,\n        uint256 _isLate\n    ) internal {\n        requests[_requestID].responseCount++;\n        responseCallers[_requestID][_caller] = true;\n        responses[_requestID][_realDeparture]++;\n        responses[_requestID][_realArrival]++;\n        responses[_requestID][_isLate]++;\n        if (\n            responses[_requestID][acceptedAnswer[_requestID][0]] >\n            responses[_requestID][_realDeparture]\n        ) {\n            acceptedAnswer[_requestID][0] = _realDeparture;\n        }\n\n        if (\n            responses[_requestID][acceptedAnswer[_requestID][1]] >\n            responses[_requestID][_realArrival]\n        ) {\n            acceptedAnswer[_requestID][1] = _realArrival;\n        }\n\n        if (\n            responses[_requestID][acceptedAnswer[_requestID][2]] >\n            responses[_requestID][_isLate]\n        ) {\n            acceptedAnswer[_requestID][2] = _isLate;\n        }\n    }\n\n    // accept or reject an accepted response as the final one according to a set treshold constant\n    function _acceptResponse(\n        uint256 _requestID,\n        uint256 _realDeparture,\n        uint256 _realArrival,\n        uint256 _isLate\n    ) internal {\n        if (\n            responses[_requestID][acceptedAnswer[_requestID][0]] >=\n            ACCEPTED_ANSWER_TRESHOLD &&\n            responses[_requestID][acceptedAnswer[_requestID][1]] >=\n            ACCEPTED_ANSWER_TRESHOLD &&\n            responses[_requestID][acceptedAnswer[_requestID][2]] >=\n            ACCEPTED_ANSWER_TRESHOLD\n        ) {\n            uint256 _flightID = requests[_requestID].flightID;\n            (, , , , , bool isLate, , uint256 insuredValue) = flightSuretyData\n                .getFlight(_flightID);\n            // update flight attributes\n            _updateFlight(_requestID, _realDeparture, _realArrival, _isLate);\n            // update total insured value if flight is not late (no funds to cover anymore)\n            _updateTotalInsuredValue(isLate, insuredValue);\n            emit NewResponse(_requestID, _realDeparture, _realArrival, _isLate);\n            emit AcceptedResponse(_realArrival, _realDeparture, _isLate);\n            emit UpdatedFlight(_flightID, _realDeparture, _realArrival, isLate);\n        } else {\n            if (requests[_requestID].responseCount > ACCEPTED_ANSWER_TRESHOLD) {\n                uint256 _flightID = requests[_requestID].flightID;\n                string memory _flightRef = requests[_requestID].flightRef;\n                emit FailedRequest(_requestID, _flightID, _flightRef);\n            }\n            emit NewResponse(_requestID, _realDeparture, _realArrival, _isLate);\n        }\n    }\n\n    // update flight data\n    function _updateFlight(\n        uint256 _requestID,\n        uint256 _realDeparture,\n        uint256 _realArrival,\n        uint256 _isLate\n    ) internal {\n        uint256 _flightID = requests[_requestID].flightID;\n        bool isLate = (_isLate == 1) ? true : false;\n        flightSuretyData.updateFlight(\n            _flightID,\n            uint64(_realDeparture),\n            uint64(_realArrival),\n            isLate\n        );\n    }\n\n    // update insured value if flight is not late (no funds to cover anymore)\n    function _updateTotalInsuredValue(bool _isLate, uint256 _flightInsuredValue)\n        internal\n    {\n        if (!_isLate) {\n            uint256 totalInsuredValue = flightSuretyData.getTotalInsuredValue();\n            uint256 newTotalInsuredValue = totalInsuredValue.sub(\n                _flightInsuredValue\n            );\n            flightSuretyData.setTotalInsuredValue(newTotalInsuredValue);\n        }\n    }\n}\n",
  "sourcePath": "/home/bender/Documents/FlightInsurance/contracts/FlightSuretyOracle/FlightSuretyOracle.sol",
  "compiler": {
    "name": "solc",
    "version": "0.8.0+commit.c7dfd78e.Emscripten.clang"
  },
  "schemaVersion": "3.4.2",
  "updatedAt": "2021-08-08T09:35:10.061Z",
  "networkType": "ethereum",
  "devdoc": {
    "kind": "dev",
    "methods": {},
    "version": 1
  },
  "userdoc": {
    "kind": "user",
    "methods": {},
    "version": 1
  }
}