{
  "contractName": "FlightSuretyApp",
  "abi": [
    {
      "inputs": [],
      "stateMutability": "nonpayable",
      "type": "constructor"
    },
    {
      "anonymous": false,
      "inputs": [
        {
          "indexed": true,
          "internalType": "uint256",
          "name": "proposalID",
          "type": "uint256"
        },
        {
          "indexed": false,
          "internalType": "uint256",
          "name": "insuranceCoverage",
          "type": "uint256"
        }
      ],
      "name": "ActivatedInsuranceCoverageAmendmentProposal",
      "type": "event"
    },
    {
      "anonymous": false,
      "inputs": [
        {
          "indexed": true,
          "internalType": "address",
          "name": "insuranceProvider",
          "type": "address"
        }
      ],
      "name": "ActivatedInsuranceProvider",
      "type": "event"
    },
    {
      "anonymous": false,
      "inputs": [
        {
          "indexed": true,
          "internalType": "uint256",
          "name": "proposalID",
          "type": "uint256"
        },
        {
          "indexed": false,
          "internalType": "uint256",
          "name": "lockedMembershipFee",
          "type": "uint256"
        }
      ],
      "name": "ActivatedMembershipFeeAmendmentProposal",
      "type": "event"
    },
    {
      "anonymous": false,
      "inputs": [
        {
          "indexed": true,
          "internalType": "address",
          "name": "oracleProvider",
          "type": "address"
        }
      ],
      "name": "ActivatedOracleProvider",
      "type": "event"
    },
    {
      "anonymous": false,
      "inputs": [
        {
          "indexed": false,
          "internalType": "address",
          "name": "caller",
          "type": "address"
        },
        {
          "indexed": false,
          "internalType": "address",
          "name": "contractAddress",
          "type": "address"
        }
      ],
      "name": "AuthorizedCaller",
      "type": "event"
    },
    {
      "anonymous": false,
      "inputs": [
        {
          "indexed": true,
          "internalType": "uint256",
          "name": "flightID",
          "type": "uint256"
        },
        {
          "indexed": false,
          "internalType": "address",
          "name": "insuranceProvider",
          "type": "address"
        }
      ],
      "name": "NewFlight",
      "type": "event"
    },
    {
      "anonymous": false,
      "inputs": [
        {
          "indexed": true,
          "internalType": "address",
          "name": "passenger",
          "type": "address"
        },
        {
          "indexed": true,
          "internalType": "uint256",
          "name": "insuranceID",
          "type": "uint256"
        },
        {
          "indexed": true,
          "internalType": "uint256",
          "name": "flightID",
          "type": "uint256"
        },
        {
          "indexed": false,
          "internalType": "uint256",
          "name": "insuredValue",
          "type": "uint256"
        }
      ],
      "name": "NewInsurance",
      "type": "event"
    },
    {
      "anonymous": false,
      "inputs": [
        {
          "indexed": true,
          "internalType": "uint256",
          "name": "proposalID",
          "type": "uint256"
        },
        {
          "indexed": false,
          "internalType": "uint256",
          "name": "insuranceCoverage",
          "type": "uint256"
        }
      ],
      "name": "NewInsuranceCoverageAmendmentProposal",
      "type": "event"
    },
    {
      "anonymous": false,
      "inputs": [
        {
          "indexed": true,
          "internalType": "uint256",
          "name": "proposalID",
          "type": "uint256"
        },
        {
          "indexed": false,
          "internalType": "uint256",
          "name": "proposedMembershipFee",
          "type": "uint256"
        }
      ],
      "name": "NewMembershipFeeAmendmentProposal",
      "type": "event"
    },
    {
      "anonymous": false,
      "inputs": [
        {
          "indexed": true,
          "internalType": "uint256",
          "name": "insuranceID",
          "type": "uint256"
        },
        {
          "indexed": false,
          "internalType": "uint256",
          "name": "insuredValue",
          "type": "uint256"
        },
        {
          "indexed": true,
          "internalType": "address",
          "name": "owner",
          "type": "address"
        }
      ],
      "name": "NewPayout",
      "type": "event"
    },
    {
      "anonymous": false,
      "inputs": [
        {
          "indexed": true,
          "internalType": "uint256",
          "name": "proposalID",
          "type": "uint256"
        },
        {
          "indexed": true,
          "internalType": "address",
          "name": "voter",
          "type": "address"
        }
      ],
      "name": "NewVoteInsuranceCoverageAmendmentProposal",
      "type": "event"
    },
    {
      "anonymous": false,
      "inputs": [
        {
          "indexed": true,
          "internalType": "address",
          "name": "voter",
          "type": "address"
        },
        {
          "indexed": true,
          "internalType": "bool",
          "name": "side",
          "type": "bool"
        },
        {
          "indexed": true,
          "internalType": "address",
          "name": "votee",
          "type": "address"
        }
      ],
      "name": "NewVoteInsuranceProvider",
      "type": "event"
    },
    {
      "anonymous": false,
      "inputs": [
        {
          "indexed": true,
          "internalType": "uint256",
          "name": "proposalID",
          "type": "uint256"
        },
        {
          "indexed": true,
          "internalType": "address",
          "name": "voter",
          "type": "address"
        }
      ],
      "name": "NewVoteMembershipFeeAmendmentProposal",
      "type": "event"
    },
    {
      "anonymous": false,
      "inputs": [
        {
          "indexed": true,
          "internalType": "address",
          "name": "voter",
          "type": "address"
        },
        {
          "indexed": true,
          "internalType": "bool",
          "name": "side",
          "type": "bool"
        },
        {
          "indexed": true,
          "internalType": "address",
          "name": "votee",
          "type": "address"
        }
      ],
      "name": "NewVoteOracleProvider",
      "type": "event"
    },
    {
      "anonymous": false,
      "inputs": [
        {
          "indexed": true,
          "internalType": "address",
          "name": "insuranceProvider",
          "type": "address"
        }
      ],
      "name": "RegisteredInsuranceProvider",
      "type": "event"
    },
    {
      "anonymous": false,
      "inputs": [
        {
          "indexed": true,
          "internalType": "address",
          "name": "oracleProvider",
          "type": "address"
        }
      ],
      "name": "RegisteredOracleProvider",
      "type": "event"
    },
    {
      "anonymous": false,
      "inputs": [
        {
          "indexed": true,
          "internalType": "address",
          "name": "insuranceProvider",
          "type": "address"
        }
      ],
      "name": "RemovedInsuranceProvider",
      "type": "event"
    },
    {
      "anonymous": false,
      "inputs": [
        {
          "indexed": true,
          "internalType": "address",
          "name": "oracleProvider",
          "type": "address"
        }
      ],
      "name": "RemovedOracleProvider",
      "type": "event"
    },
    {
      "anonymous": false,
      "inputs": [
        {
          "indexed": false,
          "internalType": "address",
          "name": "caller",
          "type": "address"
        },
        {
          "indexed": false,
          "internalType": "address",
          "name": "contractAddress",
          "type": "address"
        }
      ],
      "name": "UnauthorizedCaller",
      "type": "event"
    },
    {
      "anonymous": false,
      "inputs": [
        {
          "indexed": true,
          "internalType": "address",
          "name": "passenger",
          "type": "address"
        },
        {
          "indexed": true,
          "internalType": "uint256",
          "name": "insuranceID",
          "type": "uint256"
        },
        {
          "indexed": true,
          "internalType": "uint256",
          "name": "flightID",
          "type": "uint256"
        }
      ],
      "name": "UpdatedInsurance",
      "type": "event"
    },
    {
      "inputs": [],
      "name": "destructContract",
      "outputs": [],
      "stateMutability": "nonpayable",
      "type": "function"
    },
    {
      "inputs": [
        {
          "internalType": "address",
          "name": "_newOwner",
          "type": "address"
        }
      ],
      "name": "transferOwnership",
      "outputs": [],
      "stateMutability": "nonpayable",
      "type": "function"
    },
    {
      "inputs": [
        {
          "internalType": "address",
          "name": "_flightSuretyData",
          "type": "address"
        },
        {
          "internalType": "address",
          "name": "_insuranceCoverageAmendmentProposal",
          "type": "address"
        },
        {
          "internalType": "address",
          "name": "_membershipFeeAmendmentProposal",
          "type": "address"
        },
        {
          "internalType": "address",
          "name": "_insuranceProviderRole",
          "type": "address"
        },
        {
          "internalType": "address",
          "name": "_oracleProviderRole",
          "type": "address"
        },
        {
          "internalType": "address",
          "name": "_flightSuretyShares",
          "type": "address"
        }
      ],
      "name": "initialize",
      "outputs": [],
      "stateMutability": "nonpayable",
      "type": "function"
    },
    {
      "inputs": [
        {
          "internalType": "address",
          "name": "_authorizedCaller",
          "type": "address"
        }
      ],
      "name": "updateAuthorizedCallerFlightSuretyData",
      "outputs": [],
      "stateMutability": "nonpayable",
      "type": "function"
    },
    {
      "inputs": [
        {
          "internalType": "address",
          "name": "_authorizedCaller",
          "type": "address"
        }
      ],
      "name": "updateAuthorizedCallerInsuranceCoverageAmendmentProposal",
      "outputs": [],
      "stateMutability": "nonpayable",
      "type": "function"
    },
    {
      "inputs": [
        {
          "internalType": "address",
          "name": "_authorizedCaller",
          "type": "address"
        }
      ],
      "name": "updateAuthorizedCallerMembershipFeeAmendmentProposal",
      "outputs": [],
      "stateMutability": "nonpayable",
      "type": "function"
    },
    {
      "inputs": [
        {
          "internalType": "address",
          "name": "_authorizedCaller",
          "type": "address"
        }
      ],
      "name": "updateAuthorizedCallerInsuranceProviderRole",
      "outputs": [],
      "stateMutability": "nonpayable",
      "type": "function"
    },
    {
      "inputs": [
        {
          "internalType": "address",
          "name": "_authorizedCaller",
          "type": "address"
        }
      ],
      "name": "updateAuthorizedCallerOracleProviderRole",
      "outputs": [],
      "stateMutability": "nonpayable",
      "type": "function"
    },
    {
      "inputs": [
        {
          "internalType": "address",
          "name": "_authorizedCaller",
          "type": "address"
        }
      ],
      "name": "updateAuthorizedCallerFlighSuretyShares",
      "outputs": [],
      "stateMutability": "nonpayable",
      "type": "function"
    },
    {
      "inputs": [],
      "name": "registerInsuranceProvider",
      "outputs": [],
      "stateMutability": "payable",
      "type": "function",
      "payable": true
    },
    {
      "inputs": [],
      "name": "registerOracleProvider",
      "outputs": [],
      "stateMutability": "payable",
      "type": "function",
      "payable": true
    },
    {
      "inputs": [
        {
          "internalType": "address",
          "name": "_account",
          "type": "address"
        }
      ],
      "name": "voteInsuranceProviderMembership",
      "outputs": [],
      "stateMutability": "nonpayable",
      "type": "function"
    },
    {
      "inputs": [
        {
          "internalType": "address",
          "name": "_account",
          "type": "address"
        }
      ],
      "name": "voteOracleProviderMembership",
      "outputs": [],
      "stateMutability": "nonpayable",
      "type": "function"
    },
    {
      "inputs": [
        {
          "internalType": "string",
          "name": "_flightRef",
          "type": "string"
        },
        {
          "internalType": "uint64",
          "name": "_estimatedDeparture",
          "type": "uint64"
        },
        {
          "internalType": "uint64",
          "name": "_estimatedArrival",
          "type": "uint64"
        },
        {
          "internalType": "uint256",
          "name": "_rate",
          "type": "uint256"
        }
      ],
      "name": "registerFlight",
      "outputs": [],
      "stateMutability": "nonpayable",
      "type": "function"
    },
    {
      "inputs": [
        {
          "internalType": "uint256",
          "name": "_flightID",
          "type": "uint256"
        }
      ],
      "name": "registerInsurance",
      "outputs": [],
      "stateMutability": "payable",
      "type": "function",
      "payable": true
    },
    {
      "inputs": [
        {
          "internalType": "uint256",
          "name": "_insuranceID",
          "type": "uint256"
        }
      ],
      "name": "claimInsurance",
      "outputs": [],
      "stateMutability": "payable",
      "type": "function",
      "payable": true
    },
    {
      "inputs": [
        {
          "internalType": "uint256",
          "name": "_proposedValue",
          "type": "uint256"
        }
      ],
      "name": "registerMembershipFeeAmendmentProposal",
      "outputs": [],
      "stateMutability": "nonpayable",
      "type": "function"
    },
    {
      "inputs": [
        {
          "internalType": "uint256",
          "name": "_proposalID",
          "type": "uint256"
        }
      ],
      "name": "voteMembershipFeeAmendmentProposal",
      "outputs": [],
      "stateMutability": "nonpayable",
      "type": "function"
    },
    {
      "inputs": [
        {
          "internalType": "uint256",
          "name": "_proposedValue",
          "type": "uint256"
        }
      ],
      "name": "registerInsuranceCoverageAmendmentProposal",
      "outputs": [],
      "stateMutability": "nonpayable",
      "type": "function"
    },
    {
      "inputs": [
        {
          "internalType": "uint256",
          "name": "_proposalID",
          "type": "uint256"
        }
      ],
      "name": "voteInsuranceCoverageAmendmentProposal",
      "outputs": [],
      "stateMutability": "nonpayable",
      "type": "function"
    }
  ],
  "bytecode": "0x608060405234801561001057600080fd5b50600080546001600160a01b031916331790556139dd806100326000396000f3fe60806040526004361061011f5760003560e01c8063be378114116100a0578063f2fde38b11610064578063f2fde38b146102be578063f55f6651146102de578063f62db836146102fe578063f850f7c21461031e578063f85920d81461033e5761011f565b8063be3781141461021e578063ca51f6641461023e578063cc2a9a5b1461025e578063d33fd4be1461027e578063e9262bf21461029e5761011f565b806366fa5e85116100e757806366fa5e85146101a15780636c548134146101c15780638a4fa7f0146101c95780639499e018146101e9578063b765fffc146101fe5761011f565b806314e51a031461012457806317905a2f146101465780632600fc9b1461014e578063383da3631461016157806342f3cc5f14610181575b600080fd5b34801561013057600080fd5b5061014461013f3660046131b7565b610351565b005b61014461041c565b61014461015c366004613446565b61074a565b34801561016d57600080fd5b5061014461017c366004613446565b610bb3565b34801561018d57600080fd5b5061014461019c3660046131b7565b611000565b3480156101ad57600080fd5b506101446101bc366004613446565b6113c9565b610144611807565b3480156101d557600080fd5b506101446101e4366004613446565b611b36565b3480156101f557600080fd5b50610144611d80565b34801561020a57600080fd5b506101446102193660046131b7565b611db8565b34801561022a57600080fd5b506101446102393660046131b7565b611e6e565b34801561024a57600080fd5b5061014461025936600461326e565b61223e565b34801561026a57600080fd5b506101446102793660046131d3565b612472565b34801561028a57600080fd5b506101446102993660046131b7565b6125bc565b3480156102aa57600080fd5b506101446102b93660046131b7565b612673565b3480156102ca57600080fd5b506101446102d93660046131b7565b61272a565b3480156102ea57600080fd5b506101446102f9366004613446565b612776565b34801561030a57600080fd5b506101446103193660046131b7565b6129b3565b34801561032a57600080fd5b506101446103393660046131b7565b612a6a565b61014461034c366004613446565b612b21565b6000546001600160a01b031633146103845760405162461bcd60e51b815260040161037b906137de565b60405180910390fd5b600154604051632c388d5d60e01b81526001600160a01b0390911690632c388d5d906103b49084906004016134bd565b600060405180830381600087803b1580156103ce57600080fd5b505af11580156103e2573d6000803e3d6000fd5b50506001546040516000805160206139888339815191529350610411925084916001600160a01b0316906134d1565b60405180910390a150565b600354604080516332393eb760e21b815290516000926001600160a01b03169163c8e4fadc916004808301926020929190829003018186803b15801561046157600080fd5b505afa158015610475573d6000803e3d6000fd5b505050506040513d601f19601f82011682018060405250810190610499919061345e565b9050803410156104bb5760405162461bcd60e51b815260040161037b906135c8565b803411156104fb57306108fc6104d1348461301a565b6040518115909202916000818181858888f193505050501580156104f9573d6000803e3d6000fd5b505b60048054604051635a2449a960e01b81526001600160a01b0390911691635a2449a99161052a913391016134bd565b600060405180830381600087803b15801561054457600080fd5b505af1158015610558573d6000803e3d6000fd5b505050506000600460009054906101000a90046001600160a01b03166001600160a01b0316632dfa077c6040518163ffffffff1660e01b815260040160206040518083038186803b1580156105ac57600080fd5b505afa1580156105c0573d6000803e3d6000fd5b505050506040513d601f19601f820116820180604052508101906105e4919061345e565b90506004811161071a5760048054604051636c66623d60e11b81526001600160a01b039091169163d8ccc47a9161061d913391016134bd565b600060405180830381600087803b15801561063757600080fd5b505af115801561064b573d6000803e3d6000fd5b50505050600061065961302d565b6006546040516340c10f1960e01b81529192506001600160a01b0316906340c10f199061068c903390859060040161356d565b600060405180830381600087803b1580156106a657600080fd5b505af11580156106ba573d6000803e3d6000fd5b50506040513392507fcfbd886b9409cf70d4b4a060d1e556397e323b33a7000b106b281cc43b0c26419150600090a260405133907f5dbffd047c48d57a7d972a24d9fe3ced4753a2b27c6b277fc905b1607ab99afe90600090a250610746565b60405133907fcfbd886b9409cf70d4b4a060d1e556397e323b33a7000b106b281cc43b0c264190600090a25b5050565b600154604051633a4396cb60e01b815282916000916001600160a01b0390911690633a4396cb9061077f90859060040161387a565b60006040518083038186803b15801561079757600080fd5b505afa1580156107ab573d6000803e3d6000fd5b505050506040513d6000823e601f3d908101601f191682016040526107d39190810190613305565b50505050505050915050428167ffffffffffffffff16116108065760405162461bcd60e51b815260040161037b906136bc565b600154604051633a4396cb60e01b815284916000916001600160a01b0390911690633a4396cb9061083b90859060040161387a565b60006040518083038186803b15801561085357600080fd5b505afa158015610867573d6000803e3d6000fd5b505050506040513d6000823e601f3d908101601f1916820160405261088f9190810190613305565b98505050505050505050803410156108b95760405162461bcd60e51b815260040161037b906135ff565b346000600160009054906101000a90046001600160a01b03166001600160a01b031663d48b06b86040518163ffffffff1660e01b815260040160206040518083038186803b15801561090a57600080fd5b505afa15801561091e573d6000803e3d6000fd5b505050506040513d601f19601f82011682018060405250810190610942919061345e565b905060006109508284613032565b9050600061095d8261303e565b90504781101561097f5760405162461bcd60e51b815260040161037b906136f3565b60015460405163390fc41360e01b81526001600160a01b039091169063390fc413906109b39033908d903490600401613586565b600060405180830381600087803b1580156109cd57600080fd5b505af11580156109e1573d6000803e3d6000fd5b505050506000600160009054906101000a90046001600160a01b03166001600160a01b031663d48b06b86040518163ffffffff1660e01b815260040160206040518083038186803b158015610a3557600080fd5b505afa158015610a49573d6000803e3d6000fd5b505050506040513d601f19601f82011682018060405250810190610a6d919061345e565b6001549091506001600160a01b0316630b337715610a8b8334613032565b6040518263ffffffff1660e01b8152600401610aa7919061387a565b600060405180830381600087803b158015610ac157600080fd5b505af1158015610ad5573d6000803e3d6000fd5b505050506000600160009054906101000a90046001600160a01b03166001600160a01b0316632e523c0a6040518163ffffffff1660e01b815260040160206040518083038186803b158015610b2957600080fd5b505afa158015610b3d573d6000803e3d6000fd5b505050506040513d601f19601f82011682018060405250810190610b61919061345e565b90508a81336001600160a01b03167f4100d825ec025b9fddcf76c88644efa49df98ccebe7c8c24219922147b46325f34604051610b9e919061387a565b60405180910390a45050505050505050505050565b6006546040516370a0823160e01b815233916000916001600160a01b03909116906370a0823190610be89085906004016134bd565b60206040518083038186803b158015610c0057600080fd5b505afa158015610c14573d6000803e3d6000fd5b505050506040513d601f19601f82011682018060405250810190610c38919061345e565b11610c555760405162461bcd60e51b815260040161037b90613843565b60035460405163086b7e0b60e21b8152339184916001600160a01b03909116906321adf82c90610c8b908590859060040161356d565b602060405180830381600087803b158015610ca557600080fd5b505af1158015610cb9573d6000803e3d6000fd5b505050506040513d601f19601f82011682018060405250810190610cdd9190613254565b15610cfa5760405162461bcd60e51b815260040161037b9061380c565b6003546006546040516370a0823160e01b81526001600160a01b039283169263785e7c10928892339260019216906370a0823190610d3c9085906004016134bd565b60206040518083038186803b158015610d5457600080fd5b505afa158015610d68573d6000803e3d6000fd5b505050506040513d601f19601f82011682018060405250810190610d8c919061345e565b6040518563ffffffff1660e01b8152600401610dab9493929190613883565b600060405180830381600087803b158015610dc557600080fd5b505af1158015610dd9573d6000803e3d6000fd5b5050600354600092506001600160a01b0316905063b83c24be866001610dfd6130e7565b6040518463ffffffff1660e01b8152600401610e1b939291906138a9565b60206040518083038186803b158015610e3357600080fd5b505afa158015610e47573d6000803e3d6000fd5b505050506040513d601f19601f82011682018060405250810190610e6b9190613254565b90508015610fcb5760035460405163020df34960e41b81526001600160a01b03909116906320df349090610ea390889060040161387a565b600060405180830381600087803b158015610ebd57600080fd5b505af1158015610ed1573d6000803e3d6000fd5b505050506000600360009054906101000a90046001600160a01b03166001600160a01b031663c8e4fadc6040518163ffffffff1660e01b815260040160206040518083038186803b158015610f2557600080fd5b505afa158015610f39573d6000803e3d6000fd5b505050506040513d601f19601f82011682018060405250810190610f5d919061345e565b604051909150339087907f0450a2b5feaa1ee53edb36ef2d8854b1a508547d111e43b5b1ead1b090a5daa290600090a3857f1b454f919e7ff592d633a0d62845314e86de1463aa34dea4aab7c0ab6945a73d82604051610fbd919061387a565b60405180910390a250610ff9565b604051339086907f0450a2b5feaa1ee53edb36ef2d8854b1a508547d111e43b5b1ead1b090a5daa290600090a35b5050505050565b6006546040516370a0823160e01b815233916000916001600160a01b03909116906370a08231906110359085906004016134bd565b60206040518083038186803b15801561104d57600080fd5b505afa158015611061573d6000803e3d6000fd5b505050506040513d601f19601f82011682018060405250810190611085919061345e565b116110a25760405162461bcd60e51b815260040161037b90613843565b600480546040516283c70f60e31b8152339285926001600160a01b03169163041e3878916110d49185918791016134d1565b60206040518083038186803b1580156110ec57600080fd5b505afa158015611100573d6000803e3d6000fd5b505050506040513d601f19601f820116820180604052508101906111249190613254565b156111415760405162461bcd60e51b815260040161037b9061380c565b600480546006546040516370a0823160e01b81526001600160a01b0392831693637cd913159333938a939116916370a0823191611180918691016134bd565b60206040518083038186803b15801561119857600080fd5b505afa1580156111ac573d6000803e3d6000fd5b505050506040513d601f19601f820116820180604052508101906111d0919061345e565b6040518463ffffffff1660e01b81526004016111ee939291906134eb565b600060405180830381600087803b15801561120857600080fd5b505af115801561121c573d6000803e3d6000fd5b5050600454600092506001600160a01b0316905063c287a6486001876112406130e7565b6040518463ffffffff1660e01b815260040161125e939291906135a7565b60206040518083038186803b15801561127657600080fd5b505afa15801561128a573d6000803e3d6000fd5b505050506040513d601f19601f820116820180604052508101906112ae9190613254565b905080156113895760048054604051636c66623d60e11b81526001600160a01b039091169163d8ccc47a916112e5918991016134bd565b600060405180830381600087803b1580156112ff57600080fd5b505af1158015611313573d6000803e3d6000fd5b50506040516001600160a01b03881692506001915033907fa9d2bc6dc1b37950fdc57b26b1bcc905538ce9c54a8d46b9a043b61f61d84db990600090a46040516001600160a01b038616907f5dbffd047c48d57a7d972a24d9fe3ced4753a2b27c6b277fc905b1607ab99afe90600090a2610ff9565b6040516001600160a01b0386169060019033907fa9d2bc6dc1b37950fdc57b26b1bcc905538ce9c54a8d46b9a043b61f61d84db990600090a45050505050565b6006546040516370a0823160e01b815233916000916001600160a01b03909116906370a08231906113fe9085906004016134bd565b60206040518083038186803b15801561141657600080fd5b505afa15801561142a573d6000803e3d6000fd5b505050506040513d601f19601f8201168201806040525081019061144e919061345e565b1161146b5760405162461bcd60e51b815260040161037b90613843565b60025460405163a49854d960e01b8152339184916001600160a01b039091169063a49854d9906114a1908590859060040161356d565b602060405180830381600087803b1580156114bb57600080fd5b505af11580156114cf573d6000803e3d6000fd5b505050506040513d601f19601f820116820180604052508101906114f39190613254565b156115105760405162461bcd60e51b815260040161037b9061380c565b6002546006546040516370a0823160e01b81526001600160a01b0392831692632cb1feed928892339260019216906370a08231906115529085906004016134bd565b60206040518083038186803b15801561156a57600080fd5b505afa15801561157e573d6000803e3d6000fd5b505050506040513d601f19601f820116820180604052508101906115a2919061345e565b6040518563ffffffff1660e01b81526004016115c19493929190613883565b600060405180830381600087803b1580156115db57600080fd5b505af11580156115ef573d6000803e3d6000fd5b5050600254600092506001600160a01b0316905063a0aea5e08660016116136130e7565b6040518463ffffffff1660e01b8152600401611631939291906138a9565b60206040518083038186803b15801561164957600080fd5b505afa15801561165d573d6000803e3d6000fd5b505050506040513d601f19601f820116820180604052508101906116819190613254565b905080156117d3576002546040516325c613fd60e11b81526001600160a01b0390911690634b8c27fa906116b990889060040161387a565b600060405180830381600087803b1580156116d357600080fd5b505af11580156116e7573d6000803e3d6000fd5b505050506000600260009054906101000a90046001600160a01b03166001600160a01b031663fde0c4636040518163ffffffff1660e01b815260040160206040518083038186803b15801561173b57600080fd5b505afa15801561174f573d6000803e3d6000fd5b505050506040513d601f19601f82011682018060405250810190611773919061345e565b604051909150339087907f7906920cd6c70de2c0c6380adfa74d93af1ff8f5e5b03d1605194fef988add7990600090a3857f13d4caf5982979691a014920086fb5cac4da0ce48f86c7b4c0d0cadbef27fae482604051610fbd919061387a565b604051339086907f7906920cd6c70de2c0c6380adfa74d93af1ff8f5e5b03d1605194fef988add7990600090a35050505050565b600354604080516332393eb760e21b815290516000926001600160a01b03169163c8e4fadc916004808301926020929190829003018186803b15801561184c57600080fd5b505afa158015611860573d6000803e3d6000fd5b505050506040513d601f19601f82011682018060405250810190611884919061345e565b9050803410156118a65760405162461bcd60e51b815260040161037b906135c8565b803411156118e657306108fc6118bc348461301a565b6040518115909202916000818181858888f193505050501580156118e4573d6000803e3d6000fd5b505b60055460405163316b047d60e01b81526001600160a01b039091169063316b047d906119169033906004016134bd565b600060405180830381600087803b15801561193057600080fd5b505af1158015611944573d6000803e3d6000fd5b505050506000600560009054906101000a90046001600160a01b03166001600160a01b03166356c589de6040518163ffffffff1660e01b815260040160206040518083038186803b15801561199857600080fd5b505afa1580156119ac573d6000803e3d6000fd5b505050506040513d601f19601f820116820180604052508101906119d0919061345e565b905060048111611b07576005546040516324f5341760e21b81526001600160a01b03909116906393d4d05c90611a0a9033906004016134bd565b600060405180830381600087803b158015611a2457600080fd5b505af1158015611a38573d6000803e3d6000fd5b505050506000611a4661302d565b6006546040516340c10f1960e01b81529192506001600160a01b0316906340c10f1990611a79903390859060040161356d565b600060405180830381600087803b158015611a9357600080fd5b505af1158015611aa7573d6000803e3d6000fd5b50506040513392507f0418be85575ebac30df5dffbfd641fbbdaafb2b1806fc3637eb7062a70bed9329150600090a260405133907f5e06803b8b6ec4a58bfd8973f079830b31cbb81e939420c22febecc8acdb3f8d90600090a250610746565b60405133907f0418be85575ebac30df5dffbfd641fbbdaafb2b1806fc3637eb7062a70bed93290600090a25050565b6006546040516370a0823160e01b815233916000916001600160a01b03909116906370a0823190611b6b9085906004016134bd565b60206040518083038186803b158015611b8357600080fd5b505afa158015611b97573d6000803e3d6000fd5b505050506040513d601f19601f82011682018060405250810190611bbb919061345e565b11611bd85760405162461bcd60e51b815260040161037b90613843565b6002546006546040516370a0823160e01b81526001600160a01b0392831692637f2020c79233928792909116906370a0823190611c199085906004016134bd565b60206040518083038186803b158015611c3157600080fd5b505afa158015611c45573d6000803e3d6000fd5b505050506040513d601f19601f82011682018060405250810190611c69919061345e565b6040518463ffffffff1660e01b8152600401611c8793929190613586565b600060405180830381600087803b158015611ca157600080fd5b505af1158015611cb5573d6000803e3d6000fd5b505050506000600260009054906101000a90046001600160a01b03166001600160a01b0316630b0c98686040518163ffffffff1660e01b815260040160206040518083038186803b158015611d0957600080fd5b505afa158015611d1d573d6000803e3d6000fd5b505050506040513d601f19601f82011682018060405250810190611d41919061345e565b9050807fa11ea86e8c477100e8e8cfb954fc0f81fd6d5e63aa52fcf34cf87e476b10dab084604051611d73919061387a565b60405180910390a2505050565b6000546001600160a01b03163314611daa5760405162461bcd60e51b815260040161037b906137de565b6000546001600160a01b0316ff5b6000546001600160a01b03163314611de25760405162461bcd60e51b815260040161037b906137de565b60048054604051632c388d5d60e01b81526001600160a01b0390911691632c388d5d91611e11918591016134bd565b600060405180830381600087803b158015611e2b57600080fd5b505af1158015611e3f573d6000803e3d6000fd5b50506004546040516000805160206139888339815191529350610411925084916001600160a01b0316906134d1565b6006546040516370a0823160e01b815233916000916001600160a01b03909116906370a0823190611ea39085906004016134bd565b60206040518083038186803b158015611ebb57600080fd5b505afa158015611ecf573d6000803e3d6000fd5b505050506040513d601f19601f82011682018060405250810190611ef3919061345e565b11611f105760405162461bcd60e51b815260040161037b90613843565b60055460405163614c2bd360e11b8152339184916001600160a01b039091169063c29857a690611f4690849086906004016134d1565b60206040518083038186803b158015611f5e57600080fd5b505afa158015611f72573d6000803e3d6000fd5b505050506040513d601f19601f82011682018060405250810190611f969190613254565b15611fb35760405162461bcd60e51b815260040161037b9061380c565b6005546006546040516370a0823160e01b81526001600160a01b0392831692636ba155b19233928992909116906370a0823190611ff49085906004016134bd565b60206040518083038186803b15801561200c57600080fd5b505afa158015612020573d6000803e3d6000fd5b505050506040513d601f19601f82011682018060405250810190612044919061345e565b6040518463ffffffff1660e01b8152600401612062939291906134eb565b600060405180830381600087803b15801561207c57600080fd5b505af1158015612090573d6000803e3d6000fd5b5050600554600092506001600160a01b0316905063f0a587086001876120b46130e7565b6040518463ffffffff1660e01b81526004016120d2939291906135a7565b60206040518083038186803b1580156120ea57600080fd5b505afa1580156120fe573d6000803e3d6000fd5b505050506040513d601f19601f820116820180604052508101906121229190613254565b905080156121fe576005546040516324f5341760e21b81526001600160a01b03909116906393d4d05c9061215a9088906004016134bd565b600060405180830381600087803b15801561217457600080fd5b505af1158015612188573d6000803e3d6000fd5b50506040516001600160a01b03881692506001915033907f1b3fee018a3b7e52d087ea8e3f391b759e9e934802971c8f99e51ffdcb27d44490600090a46040516001600160a01b038616907f5e06803b8b6ec4a58bfd8973f079830b31cbb81e939420c22febecc8acdb3f8d90600090a2610ff9565b6040516001600160a01b0386169060019033907f1b3fee018a3b7e52d087ea8e3f391b759e9e934802971c8f99e51ffdcb27d44490600090a45050505050565b6004805460405163d81bfa8960e01b815233926001600160a01b039092169163d81bfa899161226f918591016134bd565b602060405180830381600087803b15801561228957600080fd5b505af115801561229d573d6000803e3d6000fd5b505050506040513d601f19601f820116820180604052508101906122c19190613254565b6122dd5760405162461bcd60e51b815260040161037b9061367b565b8367ffffffffffffffff168367ffffffffffffffff1683428311801561230257504282115b801561230d57508282115b80156123215750670de0b6b3a76400008111155b61233d5760405162461bcd60e51b815260040161037b90613783565b6001546040516351457a7960e01b81526001600160a01b03909116906351457a79906123779033908d908d908d908d908d9060040161350f565b600060405180830381600087803b15801561239157600080fd5b505af11580156123a5573d6000803e3d6000fd5b5050600154604051637b5125d360e11b8152600093506001600160a01b03909116915063f6a24ba6906123dc9033906004016134bd565b60206040518083038186803b1580156123f457600080fd5b505afa158015612408573d6000803e3d6000fd5b505050506040513d601f19601f8201168201806040525081019061242c919061345e565b9050807f8f410e1e2dbf26a03905ce14d201e4ddf93123e90aebd6f0d3649eb77eec5a113360405161245e91906134bd565b60405180910390a250505050505050505050565b6000546001600160a01b0316331461249c5760405162461bcd60e51b815260040161037b906137de565b600180546001600160a01b03199081166001600160a01b0389811691909117909255600280548216888416179055600380548216878416179055600480548216868416178082556005805484168786161790556006805490931685851617909255604051635a2449a960e01b81529190921691635a2449a991612521913391016134bd565b600060405180830381600087803b15801561253b57600080fd5b505af115801561254f573d6000803e3d6000fd5b505060048054604051636c66623d60e11b81526001600160a01b03909116935063d8ccc47a9250612582913391016134bd565b600060405180830381600087803b15801561259c57600080fd5b505af11580156125b0573d6000803e3d6000fd5b50505050505050505050565b6000546001600160a01b031633146125e65760405162461bcd60e51b815260040161037b906137de565b600354604051632c388d5d60e01b81526001600160a01b0390911690632c388d5d906126169084906004016134bd565b600060405180830381600087803b15801561263057600080fd5b505af1158015612644573d6000803e3d6000fd5b50506003546040516000805160206139888339815191529350610411925084916001600160a01b0316906134d1565b6000546001600160a01b0316331461269d5760405162461bcd60e51b815260040161037b906137de565b600254604051632c388d5d60e01b81526001600160a01b0390911690632c388d5d906126cd9084906004016134bd565b600060405180830381600087803b1580156126e757600080fd5b505af11580156126fb573d6000803e3d6000fd5b50506002546040516000805160206139888339815191529350610411925084916001600160a01b0316906134d1565b6000546001600160a01b031633146127545760405162461bcd60e51b815260040161037b906137de565b600080546001600160a01b0319166001600160a01b0392909216919091179055565b6006546040516370a0823160e01b815233916000916001600160a01b03909116906370a08231906127ab9085906004016134bd565b60206040518083038186803b1580156127c357600080fd5b505afa1580156127d7573d6000803e3d6000fd5b505050506040513d601f19601f820116820180604052508101906127fb919061345e565b116128185760405162461bcd60e51b815260040161037b90613843565b6003546006546040516370a0823160e01b81526001600160a01b039283169263fb0a33459233928792909116906370a08231906128599085906004016134bd565b60206040518083038186803b15801561287157600080fd5b505afa158015612885573d6000803e3d6000fd5b505050506040513d601f19601f820116820180604052508101906128a9919061345e565b6040518463ffffffff1660e01b81526004016128c793929190613586565b600060405180830381600087803b1580156128e157600080fd5b505af11580156128f5573d6000803e3d6000fd5b505050506000600360009054906101000a90046001600160a01b03166001600160a01b031663ca5c1b4f6040518163ffffffff1660e01b815260040160206040518083038186803b15801561294957600080fd5b505afa15801561295d573d6000803e3d6000fd5b505050506040513d601f19601f82011682018060405250810190612981919061345e565b9050807f64fbcd9e09bbe38142bda2568f59b9acf2836226b32dd6413ba53ff27b2a994684604051611d73919061387a565b6000546001600160a01b031633146129dd5760405162461bcd60e51b815260040161037b906137de565b600554604051632c388d5d60e01b81526001600160a01b0390911690632c388d5d90612a0d9084906004016134bd565b600060405180830381600087803b158015612a2757600080fd5b505af1158015612a3b573d6000803e3d6000fd5b50506005546040516000805160206139888339815191529350610411925084916001600160a01b0316906134d1565b6000546001600160a01b03163314612a945760405162461bcd60e51b815260040161037b906137de565b600654604051632c388d5d60e01b81526001600160a01b0390911690632c388d5d90612ac49084906004016134bd565b600060405180830381600087803b158015612ade57600080fd5b505af1158015612af2573d6000803e3d6000fd5b50506006546040516000805160206139888339815191529350610411925084916001600160a01b0316906134d1565b6001546040516342fd730160e11b815282916000916001600160a01b03909116906385fae60290612b5690859060040161387a565b60806040518083038186803b158015612b6e57600080fd5b505afa158015612b82573d6000803e3d6000fd5b505050506040513d601f19601f82011682018060405250810190612ba69190613476565b5050600154604051633a4396cb60e01b81529293506000926001600160a01b039091169150633a4396cb90612bdf90859060040161387a565b60006040518083038186803b158015612bf757600080fd5b505afa158015612c0b573d6000803e3d6000fd5b505050506040513d6000823e601f3d908101601f19168201604052612c339190810190613305565b5050509550505050505080612c5a5760405162461bcd60e51b815260040161037b906137b1565b6001546040516342fd730160e11b815285916000916001600160a01b03909116906385fae60290612c8f90859060040161387a565b60806040518083038186803b158015612ca757600080fd5b505afa158015612cbb573d6000803e3d6000fd5b505050506040513d601f19601f82011682018060405250810190612cdf9190613476565b50925050506001600160a01b0381163314612d0c5760405162461bcd60e51b815260040161037b90613644565b6001546040516342fd730160e11b815287916000916001600160a01b03909116906385fae60290612d4190859060040161387a565b60806040518083038186803b158015612d5957600080fd5b505afa158015612d6d573d6000803e3d6000fd5b505050506040513d601f19601f82011682018060405250810190612d919190613476565b93505050508015612db45760405162461bcd60e51b815260040161037b9061373f565b6001546040516342fd730160e11b81526000916001600160a01b0316906385fae60290612de5908c9060040161387a565b60806040518083038186803b158015612dfd57600080fd5b505afa158015612e11573d6000803e3d6000fd5b505050506040513d601f19601f82011682018060405250810190612e359190613476565b505060015460405163135a8ba360e11b81529193506001600160a01b031691506326b5174690612e69908c9060040161387a565b600060405180830381600087803b158015612e8357600080fd5b505af1158015612e97573d6000803e3d6000fd5b505050506000600160009054906101000a90046001600160a01b03166001600160a01b031663d48b06b86040518163ffffffff1660e01b815260040160206040518083038186803b158015612eeb57600080fd5b505afa158015612eff573d6000803e3d6000fd5b505050506040513d601f19601f82011682018060405250810190612f23919061345e565b6001549091506001600160a01b0316630b337715612f41838561301a565b6040518263ffffffff1660e01b8152600401612f5d919061387a565b600060405180830381600087803b158015612f7757600080fd5b505af1158015612f8b573d6000803e3d6000fd5b505050506000612f9a8361303e565b604051909150339082156108fc029083906000818181858888f19350505050158015612fca573d6000803e3d6000fd5b50336001600160a01b03168b7f5d87c2da290a4ddce1154b290351401b6de51408bbafff74653b85b0cb4ba99c85604051613005919061387a565b60405180910390a35050505050505050505050565b60006130268284613916565b9392505050565b600190565b600061302682846138bf565b600080600260009054906101000a90046001600160a01b03166001600160a01b031663fde0c4636040518163ffffffff1660e01b815260040160206040518083038186803b15801561308f57600080fd5b505afa1580156130a3573d6000803e3d6000fd5b505050506040513d601f19601f820116820180604052508101906130c7919061345e565b90506130de60646130d88584613179565b90613185565b9150505b919050565b60006131746002600660009054906101000a90046001600160a01b03166001600160a01b03166318160ddd6040518163ffffffff1660e01b815260040160206040518083038186803b15801561313c57600080fd5b505afa158015613150573d6000803e3d6000fd5b505050506040513d601f19601f820116820180604052508101906130d8919061345e565b905090565b600061302682846138f7565b600061302682846138d7565b80516130e281613959565b805180151581146130e257600080fd5b80516130e281613971565b6000602082840312156131c8578081fd5b813561302681613959565b60008060008060008060c087890312156131eb578182fd5b86356131f681613959565b9550602087013561320681613959565b9450604087013561321681613959565b9350606087013561322681613959565b9250608087013561323681613959565b915060a087013561324681613959565b809150509295509295509295565b600060208284031215613265578081fd5b6130268261319c565b600080600080600060808688031215613285578081fd5b853567ffffffffffffffff8082111561329c578283fd5b818801915088601f8301126132af578283fd5b8135818111156132bd578384fd5b8960208285010111156132ce578384fd5b602092830197509550508601356132e481613971565b925060408601356132f481613971565b949793965091946060013592915050565b60008060008060008060008060006101208a8c031215613323578283fd5b895167ffffffffffffffff8082111561333a578485fd5b818c0191508c601f83011261334d578485fd5b81518181111561335f5761335f613943565b604051601f8201601f19168101602001838111828210171561338357613383613943565b6040528181528382016020018f101561339a578687fd5b8692505b818310156133bf57602083850101516020848301015260208301925061339e565b818311156133d05786602083830101525b9b506133e29250505060208b016131ac565b97506133f060408b016131ac565b96506133fe60608b016131ac565b955061340c60808b016131ac565b945061341a60a08b0161319c565b935061342860c08b01613191565b925060e08a015191506101008a015190509295985092959850929598565b600060208284031215613457578081fd5b5035919050565b60006020828403121561346f578081fd5b5051919050565b6000806000806080858703121561348b578384fd5b845193506020850151925060408501516134a481613959565b91506134b26060860161319c565b905092959194509250565b6001600160a01b0391909116815260200190565b6001600160a01b0392831681529116602082015260400190565b6001600160a01b039384168152919092166020820152604081019190915260600190565b6001600160a01b038716815260a06020820181905281018590526000858760c084013760c086830181019190915267ffffffffffffffff94851660408301529290931660608401526080830152601f909201601f1916010192915050565b6001600160a01b03929092168252602082015260400190565b6001600160a01b039390931683526020830191909152604082015260600190565b92151583526001600160a01b03919091166020830152604082015260600190565b6020808252601e908201527f696e636f7272656374206665652073656e7420746f20636f6e74726163740000604082015260600190565b60208082526025908201527f73656e742076616c756520646f6573206e6f74206d6174636820666c69676874604082015264207261746560d81b606082015260800190565b6020808252601e908201527f63616c6c6572206d75737420626520696e737572616e6365206f776e65720000604082015260600190565b60208082526021908201527f63616c6c6572206d75737420626520696e737572616e63652070726f766964656040820152603960f91b606082015260800190565b6020808252601f908201527f666c6967687420646570617274757265206d7573742062652066757475726500604082015260600190565b6020808252602c908201527f63757272656e742066756e6473206d75737420636f766572206e657720696e7360408201526b7572616e63652076616c756560a01b606082015260800190565b60208082526024908201527f696e737572616e6365206d757374206e6f742068617665206265656e20636c616040820152631a5b595960e21b606082015260800190565b602080825260149082015273199b1a59da1d081b5d5cdd081899481d985b1a5960621b604082015260600190565b602080825260139082015272666c69676874206d757374206265206c61746560681b604082015260600190565b60208082526014908201527331b0b63632b91036bab9ba1031329037bbb732b960611b604082015260600190565b60208082526018908201527f63616c6c65722068617320616c726561647920766f7465640000000000000000604082015260600190565b6020808252601b908201527f63616c6c6572206d75737420626520746f6b656e20686f6c6465720000000000604082015260600190565b90815260200190565b9384526001600160a01b0392909216602084015215156040830152606082015260800190565b9283529015156020830152604082015260600190565b600082198211156138d2576138d261392d565b500190565b6000826138f257634e487b7160e01b81526012600452602481fd5b500490565b60008160001904831182151516156139115761391161392d565b500290565b6000828210156139285761392861392d565b500390565b634e487b7160e01b600052601160045260246000fd5b634e487b7160e01b600052604160045260246000fd5b6001600160a01b038116811461396e57600080fd5b50565b67ffffffffffffffff8116811461396e57600080fdfe1c9c420420e76ae7ad733b7098eb1fa04a2293da0cfbd31297ea505568760ebca2646970667358221220b81f37316f748910f972e93cb4084a0c8129bba8f32fc5439e68e8b583bc4f6864736f6c63430008000033",
  "immutableReferences": {},
  "source": "// SPDX-License-Identifier: UNLICENSED\npragma solidity ^0.8.00;\n\nimport \"./interfaces/IFlightSuretyData.sol\";\nimport \"./interfaces/IInsuranceCoverageAmendmentProposal.sol\";\nimport \"./interfaces/IMembershipFeeAmendmentProposal.sol\";\nimport \"./interfaces/IInsuranceProviderRole.sol\";\nimport \"./interfaces/IOracleProviderRole.sol\";\nimport \"./interfaces/IFlightSuretyOracle.sol\";\nimport \"./interfaces/IFlightSuretyShares.sol\";\nimport \"../Ownable/Ownable.sol\";\nimport \"@openzeppelin/contracts/utils/math/SafeMath.sol\";\n\ncontract FlightSuretyApp is Ownable {\n    using SafeMath for uint256;\n    // insurance providers related events\n    event RegisteredInsuranceProvider(address indexed insuranceProvider);\n    event ActivatedInsuranceProvider(address indexed insuranceProvider);\n    event RemovedInsuranceProvider(address indexed insuranceProvider);\n    event NewVoteInsuranceProvider(\n        address indexed voter,\n        bool indexed side,\n        address indexed votee\n    );\n\n    // oracle providers related events\n    event RegisteredOracleProvider(address indexed oracleProvider);\n    event ActivatedOracleProvider(address indexed oracleProvider);\n    event RemovedOracleProvider(address indexed oracleProvider);\n    event NewVoteOracleProvider(\n        address indexed voter,\n        bool indexed side,\n        address indexed votee\n    );\n\n    // flights related events\n    event NewFlight(uint256 indexed flightID, address insuranceProvider);\n\n    // insurances related events\n    event NewInsurance(\n        address indexed passenger,\n        uint256 indexed insuranceID,\n        uint256 indexed flightID,\n        uint256 insuredValue\n    );\n    event UpdatedInsurance(\n        address indexed passenger,\n        uint256 indexed insuranceID,\n        uint256 indexed flightID\n    );\n\n    event NewPayout(\n        uint256 indexed insuranceID,\n        uint256 insuredValue,\n        address indexed owner\n    );\n\n    // settings amendment proposal related events\n    event NewMembershipFeeAmendmentProposal(\n        uint256 indexed proposalID,\n        uint256 proposedMembershipFee\n    );\n    event NewVoteMembershipFeeAmendmentProposal(\n        uint256 indexed proposalID,\n        address indexed voter\n    );\n    event ActivatedMembershipFeeAmendmentProposal(\n        uint256 indexed proposalID,\n        uint256 lockedMembershipFee\n    );\n    event NewInsuranceCoverageAmendmentProposal(\n        uint256 indexed proposalID,\n        uint256 insuranceCoverage\n    );\n    event ActivatedInsuranceCoverageAmendmentProposal(\n        uint256 indexed proposalID,\n        uint256 insuranceCoverage\n    );\n    event NewVoteInsuranceCoverageAmendmentProposal(\n        uint256 indexed proposalID,\n        address indexed voter\n    );\n\n    // authorize caller related events\n    event AuthorizedCaller(address caller, address contractAddress);\n    event UnauthorizedCaller(address caller, address contractAddress);\n\n    IFlightSuretyData flightSuretyData;\n    IInsuranceCoverageAmendmentProposal insuranceCoverageAmendmentProposal;\n    IMembershipFeeAmendmentProposal membershipFeeAmendmentProposal;\n    IInsuranceProviderRole insuranceProviderRole;\n    IOracleProviderRole oracleProviderRole;\n    IFlightSuretyShares flightSuretyShares;\n\n    // settings amendment proposals related checks\n\n    modifier requireTokenHolderHasNotVotedInsuranceCoverageAmendmentProposal(\n        address _caller,\n        uint256 _proposalID\n    ) {\n        require(\n            !insuranceCoverageAmendmentProposal\n                .hasVotedInsuranceCoverageAmendmentProposal(\n                    _caller,\n                    _proposalID\n                ),\n            \"caller has already voted\"\n        );\n        _;\n    }\n\n    modifier requireTokenHolderHasNotVotedMembershipFeeAmendmentProposal(\n        address _caller,\n        uint256 _proposalID\n    ) {\n        require(\n            !membershipFeeAmendmentProposal\n                .hasVotedMembershipFeeAmendmentProposal(_caller, _proposalID),\n            \"caller has already voted\"\n        );\n        _;\n    }\n\n    // flights related checks\n\n    modifier requireValidFlight(\n        uint256 estimatedDeparture,\n        uint256 estimatedArrival,\n        uint256 rate\n    ) {\n        require(\n            estimatedDeparture > block.timestamp &&\n                estimatedArrival > block.timestamp &&\n                estimatedArrival > estimatedDeparture &&\n                rate <= 1 ether,\n            \"flight must be valid\"\n        );\n        _;\n    }\n\n    // insurances related checks\n\n    modifier requireMessageValueGreatherOrEqualToFlightRate(uint256 _flightID) {\n        (, , , , , , , , uint256 rate) = flightSuretyData.getFlight(_flightID);\n        require(msg.value >= rate, \"sent value does not match flight rate\");\n        _;\n    }\n\n    modifier requireFutureFlight(uint256 _flightID) {\n        (, uint64 estimatedDeparture, , , , , , , ) = flightSuretyData\n            .getFlight(_flightID);\n        require(\n            estimatedDeparture > block.timestamp,\n            \"flight departure must be future\"\n        );\n        _;\n    }\n\n    modifier requireFlightIsLate(uint256 _insuranceID) {\n        (uint256 flightID, , , ) = flightSuretyData.getInsurance(_insuranceID);\n        (, , , , , bool isLate, , , ) = flightSuretyData.getFlight(flightID);\n        require(isLate, \"flight must be late\");\n        _;\n    }\n\n    modifier onlyInsuranceIsNotClaimed(uint256 _insuranceID) {\n        (, , , bool claimed) = flightSuretyData.getInsurance(_insuranceID);\n        require(!claimed, \"insurance must not have been claimed\");\n        _;\n    }\n    modifier onlyInsuranceOwner(uint256 _insuranceID) {\n        (, , address owner, ) = flightSuretyData.getInsurance(_insuranceID);\n        require(msg.sender == owner, \"caller must be insurance owner\");\n        _;\n    }\n\n    modifier requireTotalInsuredValueCoverage(uint256 newInsuranceValue) {\n        uint256 currentTotalInsuredValue = flightSuretyData\n            .getTotalInsuredValue();\n        uint256 newTotalInsuredValue = currentTotalInsuredValue.add(\n            newInsuranceValue\n        );\n        uint256 totalFundsWithCoverage = _calculateInsuredValueBenefits(\n            newTotalInsuredValue\n        );\n        require(\n            totalFundsWithCoverage >= address(this).balance,\n            \"current funds must cover new insurance value\"\n        );\n        _;\n    }\n\n    // membership fee checks\n\n    modifier requireMembershipFee() {\n        uint256 currentMembershipFee = membershipFeeAmendmentProposal\n            .getCurrentMembershipFee();\n        require(\n            msg.value >= currentMembershipFee,\n            \"incorrect fee sent to contract\"\n        );\n\n        if (msg.value > currentMembershipFee) {\n            payable(address(this)).transfer(\n                msg.value.sub(currentMembershipFee)\n            );\n        }\n        _;\n    }\n\n    // common roles checks\n\n    modifier onlyActivatedProvider(address _caller) {\n        require(\n            insuranceProviderRole.isActivatedInsuranceProvider(_caller) ||\n                oracleProviderRole.isActivatedOracleProvider(_caller),\n            \"caller must be activated provider\"\n        );\n        _;\n    }\n\n    modifier onlyTokenHolder(address _caller) {\n        require(\n            flightSuretyShares.balanceOf(_caller) > 0,\n            \"caller must be token holder\"\n        );\n        _;\n    }\n\n    // insurance providers checks\n\n    modifier onlyRegisteredInsuranceProvider(address _caller) {\n        require(\n            insuranceProviderRole.isRegisteredInsuranceProvider(_caller),\n            \"caller must be insurance provider\"\n        );\n        _;\n    }\n\n    modifier onlyActivatedInsuranceProvider(address _caller) {\n        require(\n            insuranceProviderRole.isActivatedInsuranceProvider(_caller),\n            \"caller must be insurance provider\"\n        );\n        _;\n    }\n\n    modifier requireTokenHolderHasNotVotedInsuranceProviderMembership(\n        address _caller,\n        address _account\n    ) {\n        require(\n            !insuranceProviderRole.hasVotedInsuranceProviderMembership(\n                _account,\n                _caller\n            ),\n            \"caller has already voted\"\n        );\n        _;\n    }\n\n    // oracle providers checks\n\n    modifier onlyRegisteredOracleProvider(address _caller) {\n        require(\n            oracleProviderRole.isRegisteredOracleProvider(_caller),\n            \"caller must be oracle provider\"\n        );\n        _;\n    }\n\n    modifier onlyActivatedOracleProvider(address _caller) {\n        require(\n            oracleProviderRole.isActivatedOracleProvider(_caller),\n            \"caller is not activated oracle provider\"\n        );\n        _;\n    }\n\n    modifier requireTokenHolderHasNotVotedOracleProviderMembership(\n        address _caller,\n        address _account\n    ) {\n        require(\n            !oracleProviderRole.hasVotedOracleProviderMembership(\n                _account,\n                _caller\n            ),\n            \"caller has already voted\"\n        );\n        _;\n    }\n\n    constructor() Ownable() {}\n\n    // initialize external contracts addresses\n    function initialize(\n        address _flightSuretyData,\n        address _insuranceCoverageAmendmentProposal,\n        address _membershipFeeAmendmentProposal,\n        address _insuranceProviderRole,\n        address _oracleProviderRole,\n        address _flightSuretyShares\n    ) external onlyOwner {\n        // registering external contracts address\n        flightSuretyData = IFlightSuretyData(_flightSuretyData);\n        insuranceCoverageAmendmentProposal = IInsuranceCoverageAmendmentProposal(\n            _insuranceCoverageAmendmentProposal\n        );\n        membershipFeeAmendmentProposal = IMembershipFeeAmendmentProposal(\n            _membershipFeeAmendmentProposal\n        );\n        insuranceProviderRole = IInsuranceProviderRole(_insuranceProviderRole);\n        oracleProviderRole = IOracleProviderRole(_oracleProviderRole);\n        flightSuretyShares = IFlightSuretyShares(_flightSuretyShares);\n        // make the contract owner a registered insurance provider\n        insuranceProviderRole.addInsuranceProvider(msg.sender);\n        // make the contract owner an activated insurance provider\n        insuranceProviderRole.activateInsuranceProvider(msg.sender);\n    }\n\n    /* external contracts calls management */\n\n    function updateAuthorizedCallerFlightSuretyData(address _authorizedCaller)\n        external\n        onlyOwner\n    {\n        flightSuretyData.authorizeCaller(_authorizedCaller);\n        emit AuthorizedCaller(_authorizedCaller, address(flightSuretyData));\n    }\n\n    function updateAuthorizedCallerInsuranceCoverageAmendmentProposal(\n        address _authorizedCaller\n    ) external onlyOwner {\n        insuranceCoverageAmendmentProposal.authorizeCaller(_authorizedCaller);\n        emit AuthorizedCaller(\n            _authorizedCaller,\n            address(insuranceCoverageAmendmentProposal)\n        );\n    }\n\n    function updateAuthorizedCallerMembershipFeeAmendmentProposal(\n        address _authorizedCaller\n    ) external onlyOwner {\n        membershipFeeAmendmentProposal.authorizeCaller(_authorizedCaller);\n        emit AuthorizedCaller(\n            _authorizedCaller,\n            address(membershipFeeAmendmentProposal)\n        );\n    }\n\n    function updateAuthorizedCallerInsuranceProviderRole(\n        address _authorizedCaller\n    ) external onlyOwner {\n        insuranceProviderRole.authorizeCaller(_authorizedCaller);\n        emit AuthorizedCaller(\n            _authorizedCaller,\n            address(insuranceProviderRole)\n        );\n    }\n\n    function updateAuthorizedCallerOracleProviderRole(address _authorizedCaller)\n        external\n        onlyOwner\n    {\n        oracleProviderRole.authorizeCaller(_authorizedCaller);\n        emit AuthorizedCaller(_authorizedCaller, address(oracleProviderRole));\n    }\n\n    function updateAuthorizedCallerFlighSuretyShares(address _authorizedCaller)\n        external\n        onlyOwner\n    {\n        flightSuretyShares.authorizeCaller(_authorizedCaller);\n        emit AuthorizedCaller(_authorizedCaller, address(flightSuretyShares));\n    }\n\n    /* providers registrations */\n\n    // insurance providers\n\n    function registerInsuranceProvider() external payable requireMembershipFee {\n        insuranceProviderRole.addInsuranceProvider(msg.sender);\n        uint256 registeredInsuranceProviderCount = insuranceProviderRole\n            .getRegisteredInsuranceProvidersCount();\n        if (registeredInsuranceProviderCount <= 4) {\n            insuranceProviderRole.activateInsuranceProvider(msg.sender);\n            uint256 sharesToMint = _calculateSharesToMint();\n            flightSuretyShares.mint(msg.sender, sharesToMint);\n            emit RegisteredInsuranceProvider(msg.sender);\n            emit ActivatedInsuranceProvider(msg.sender);\n        } else {\n            emit RegisteredInsuranceProvider(msg.sender);\n        }\n    }\n\n    // oracle providers\n\n    function registerOracleProvider() external payable requireMembershipFee {\n        oracleProviderRole.addOracleProvider(msg.sender);\n        uint256 registeredOracleProviderCount = oracleProviderRole\n            .getRegisteredOracleProvidersCount();\n        if (registeredOracleProviderCount <= 4) {\n            oracleProviderRole.activateOracleProvider(msg.sender);\n            uint256 sharesToMint = _calculateSharesToMint();\n            flightSuretyShares.mint(msg.sender, sharesToMint);\n            emit RegisteredOracleProvider(msg.sender);\n            emit ActivatedOracleProvider(msg.sender);\n        } else {\n            emit RegisteredOracleProvider(msg.sender);\n        }\n    }\n\n    /* votes providers */\n\n    // insurance providers\n\n    function voteInsuranceProviderMembership(address _account)\n        external\n        onlyTokenHolder(msg.sender)\n        requireTokenHolderHasNotVotedInsuranceProviderMembership(\n            msg.sender,\n            _account\n        )\n    {\n        insuranceProviderRole.voteInsuranceProviderMembership(\n            msg.sender,\n            _account,\n            flightSuretyShares.balanceOf(msg.sender)\n        );\n        bool consensusCheck = insuranceProviderRole\n            .hasReachedConsensusInsuranceProviderMembership(\n                true,\n                _account,\n                _calculateProvidersConsensusTreshold()\n            );\n        if (consensusCheck) {\n            insuranceProviderRole.activateInsuranceProvider(_account);\n            emit NewVoteInsuranceProvider(msg.sender, true, _account);\n            emit ActivatedInsuranceProvider(_account);\n        } else {\n            emit NewVoteInsuranceProvider(msg.sender, true, _account);\n        }\n    }\n\n    // oracle providers\n\n    function voteOracleProviderMembership(address _account)\n        external\n        onlyTokenHolder(msg.sender)\n        requireTokenHolderHasNotVotedOracleProviderMembership(\n            msg.sender,\n            _account\n        )\n    {\n        oracleProviderRole.voteOracleProviderMembership(\n            msg.sender,\n            _account,\n            flightSuretyShares.balanceOf(msg.sender)\n        );\n        bool consensusCheck = oracleProviderRole\n            .hasReachedConsensusOracleProviderMembership(\n                true,\n                _account,\n                _calculateProvidersConsensusTreshold()\n            );\n        if (consensusCheck) {\n            oracleProviderRole.activateOracleProvider(_account);\n            emit NewVoteOracleProvider(msg.sender, true, _account);\n            emit ActivatedOracleProvider(_account);\n        } else {\n            emit NewVoteOracleProvider(msg.sender, true, _account);\n        }\n    }\n\n    /* flights management */\n\n    function registerFlight(\n        string calldata _flightRef,\n        uint64 _estimatedDeparture,\n        uint64 _estimatedArrival,\n        uint256 _rate\n    )\n        external\n        onlyActivatedInsuranceProvider(msg.sender)\n        requireValidFlight(_estimatedDeparture, _estimatedArrival, _rate)\n    {\n        flightSuretyData.registerFlight(\n            msg.sender,\n            _flightRef,\n            _estimatedDeparture,\n            _estimatedArrival,\n            _rate\n        );\n        uint256 flightID = flightSuretyData.getCurrentFlightID(msg.sender);\n        emit NewFlight(flightID, msg.sender);\n    }\n\n    /* insurances management */\n\n    function registerInsurance(uint256 _flightID)\n        external\n        payable\n        requireFutureFlight(_flightID)\n        requireMessageValueGreatherOrEqualToFlightRate(_flightID)\n        requireTotalInsuredValueCoverage(msg.value)\n    {\n        // create insurance for the caller\n        flightSuretyData.insure(msg.sender, _flightID, msg.value);\n        // update total insured value  (locking up funds to be sure to be able to cover all funds locked up in contract)\n        uint256 currentTotalInsuredValue = flightSuretyData\n            .getTotalInsuredValue();\n        flightSuretyData.setTotalInsuredValue(\n            currentTotalInsuredValue.add(msg.value)\n        );\n        uint256 insuranceID = flightSuretyData.getCurrentInsuranceID();\n        emit NewInsurance(msg.sender, insuranceID, _flightID, msg.value);\n    }\n\n    function claimInsurance(uint256 _insuranceID)\n        external\n        payable\n        requireFlightIsLate(_insuranceID)\n        onlyInsuranceOwner(_insuranceID)\n        onlyInsuranceIsNotClaimed(_insuranceID)\n    {\n        // fetch the insurance insured value\n        (, uint256 insuredValue, , ) = flightSuretyData.getInsurance(\n            _insuranceID\n        );\n        // update insurance to claimed\n        flightSuretyData.setInsuranceToClaimed(_insuranceID);\n        // update total insured value as funds are about to be sent (unlocking funds to take new insurance contracts)\n        uint256 currentTotalInsuredValue = flightSuretyData\n            .getTotalInsuredValue();\n        flightSuretyData.setTotalInsuredValue(\n            currentTotalInsuredValue.sub(insuredValue)\n        );\n        // calculate the amount to transfer according to the insurance coverage policy\n        uint256 amountToTransfer = _calculateInsuredValueBenefits(insuredValue);\n        payable(msg.sender).transfer(amountToTransfer);\n        emit NewPayout(_insuranceID, insuredValue, msg.sender);\n    }\n\n    /* Settings amendment proposals*/\n\n    // membership fee amendment proposals\n\n    function registerMembershipFeeAmendmentProposal(uint256 _proposedValue)\n        external\n        onlyTokenHolder(msg.sender)\n    {\n        membershipFeeAmendmentProposal.registerMembershipFeeAmendmentProposal(\n            msg.sender,\n            _proposedValue,\n            flightSuretyShares.balanceOf(msg.sender)\n        );\n        uint256 _proposalID = membershipFeeAmendmentProposal\n            .getMembershipFeeAmendmentProposalCurrentProposalID();\n        emit NewMembershipFeeAmendmentProposal(_proposalID, _proposedValue);\n    }\n\n    function voteMembershipFeeAmendmentProposal(uint256 _proposalID)\n        external\n        onlyTokenHolder(msg.sender)\n        requireTokenHolderHasNotVotedMembershipFeeAmendmentProposal(\n            msg.sender,\n            _proposalID\n        )\n    {\n        membershipFeeAmendmentProposal.voteMembershipFeeAmendmentProposal(\n            _proposalID,\n            msg.sender,\n            true,\n            flightSuretyShares.balanceOf(msg.sender)\n        );\n        bool consensusCheck = membershipFeeAmendmentProposal\n            .hasMembershipFeeAmendmentProposalReachedConsensus(\n                _proposalID,\n                true,\n                _calculateProvidersConsensusTreshold()\n            );\n        if (consensusCheck) {\n            membershipFeeAmendmentProposal\n                .activateMembershipFeeAmendmentProposal(_proposalID);\n            uint256 lockedMembershipFee = membershipFeeAmendmentProposal\n                .getCurrentMembershipFee();\n            emit NewVoteMembershipFeeAmendmentProposal(_proposalID, msg.sender);\n            emit ActivatedMembershipFeeAmendmentProposal(\n                _proposalID,\n                lockedMembershipFee\n            );\n        } else {\n            emit NewVoteMembershipFeeAmendmentProposal(_proposalID, msg.sender);\n        }\n    }\n\n    // insurance coverage amendment proposal\n\n    function registerInsuranceCoverageAmendmentProposal(uint256 _proposedValue)\n        external\n        onlyTokenHolder(msg.sender)\n    {\n        insuranceCoverageAmendmentProposal\n            .registerInsuranceCoverageAmendmentProposal(\n                msg.sender,\n                _proposedValue,\n                flightSuretyShares.balanceOf(msg.sender)\n            );\n        uint256 _proposalID = insuranceCoverageAmendmentProposal\n            .getInsuranceCoverageAmendmentCurrentProposalID();\n        emit NewInsuranceCoverageAmendmentProposal(_proposalID, _proposedValue);\n    }\n\n    function voteInsuranceCoverageAmendmentProposal(uint256 _proposalID)\n        external\n        onlyTokenHolder(msg.sender)\n        requireTokenHolderHasNotVotedInsuranceCoverageAmendmentProposal(\n            msg.sender,\n            _proposalID\n        )\n    {\n        insuranceCoverageAmendmentProposal\n            .voteInsuranceCoverageAmendmentProposal(\n                _proposalID,\n                msg.sender,\n                true,\n                flightSuretyShares.balanceOf(msg.sender)\n            );\n        bool consensusCheck = insuranceCoverageAmendmentProposal\n            .hasInsuranceCoverageAmendmentProposalReachedConsensus(\n                _proposalID,\n                true,\n                _calculateProvidersConsensusTreshold()\n            );\n        if (consensusCheck) {\n            insuranceCoverageAmendmentProposal\n                .activateInsuranceCoverageAmendmentProposal(_proposalID);\n            uint256 insuranceCoverage = insuranceCoverageAmendmentProposal\n                .getCurrentInsuranceCoverage();\n            emit NewVoteInsuranceCoverageAmendmentProposal(\n                _proposalID,\n                msg.sender\n            );\n            emit ActivatedInsuranceCoverageAmendmentProposal(\n                _proposalID,\n                insuranceCoverage\n            );\n        } else {\n            emit NewVoteInsuranceCoverageAmendmentProposal(\n                _proposalID,\n                msg.sender\n            );\n        }\n    }\n\n    function _calculateInsuredValueBenefits(uint256 initialValue)\n        internal\n        view\n        returns (uint256 insuredValueCoverage)\n    {\n        uint256 currentInsuranceCoverage = insuranceCoverageAmendmentProposal\n            .getCurrentInsuranceCoverage();\n        return initialValue.mul(currentInsuranceCoverage).div(100);\n    }\n\n    function _calculateProvidersConsensusTreshold()\n        internal\n        view\n        returns (uint256 providersConsensusTreshold)\n    {\n        return flightSuretyShares.totalSupply().div(2);\n    }\n\n    function _calculateSharesToMint()\n        internal\n        pure\n        returns (uint256 sharesToMint)\n    {\n        return 1;\n    }\n}\n",
  "sourcePath": "/home/bender/Documents/FlightInsurance/contracts/FlightSuretyApp/FlightSuretyApp.sol",
  "compiler": {
    "name": "solc",
    "version": "0.8.0+commit.c7dfd78e.Emscripten.clang"
  },
  "schemaVersion": "3.4.2",
  "updatedAt": "2021-08-08T09:35:10.036Z",
  "networkType": "ethereum",
  "devdoc": {
    "kind": "dev",
    "methods": {},
    "version": 1
  },
  "userdoc": {
    "kind": "user",
    "methods": {},
    "version": 1
  }
}