{
  "contractName": "FlighSuretyData",
  "abi": [
    {
      "inputs": [
        {
          "internalType": "address",
          "name": "_appContractAddress",
          "type": "address"
        },
        {
          "internalType": "address",
          "name": "_oracleContractAddress",
          "type": "address"
        }
      ],
      "stateMutability": "nonpayable",
      "type": "constructor"
    },
    {
      "inputs": [],
      "name": "destructContract",
      "outputs": [],
      "stateMutability": "nonpayable",
      "type": "function"
    },
    {
      "inputs": [
        {
          "internalType": "address",
          "name": "_newOwner",
          "type": "address"
        }
      ],
      "name": "transferOwnership",
      "outputs": [],
      "stateMutability": "nonpayable",
      "type": "function"
    },
    {
      "inputs": [
        {
          "internalType": "address",
          "name": "_caller",
          "type": "address"
        }
      ],
      "name": "authorizeCaller",
      "outputs": [],
      "stateMutability": "nonpayable",
      "type": "function"
    },
    {
      "inputs": [
        {
          "internalType": "address",
          "name": "_caller",
          "type": "address"
        }
      ],
      "name": "unauthorizeCaller",
      "outputs": [],
      "stateMutability": "nonpayable",
      "type": "function"
    },
    {
      "inputs": [
        {
          "internalType": "address",
          "name": "_caller",
          "type": "address"
        },
        {
          "internalType": "string",
          "name": "_flightRef",
          "type": "string"
        },
        {
          "internalType": "uint64",
          "name": "_estimatedDeparture",
          "type": "uint64"
        },
        {
          "internalType": "uint64",
          "name": "_estimatedArrival",
          "type": "uint64"
        },
        {
          "internalType": "uint256",
          "name": "_rate",
          "type": "uint256"
        }
      ],
      "name": "registerFlight",
      "outputs": [],
      "stateMutability": "nonpayable",
      "type": "function"
    },
    {
      "inputs": [
        {
          "internalType": "uint256",
          "name": "_flightID",
          "type": "uint256"
        },
        {
          "internalType": "uint64",
          "name": "_realDeparture",
          "type": "uint64"
        },
        {
          "internalType": "uint64",
          "name": "_realArrival",
          "type": "uint64"
        },
        {
          "internalType": "bool",
          "name": "_isLate",
          "type": "bool"
        }
      ],
      "name": "updateFlight",
      "outputs": [],
      "stateMutability": "nonpayable",
      "type": "function"
    },
    {
      "inputs": [],
      "name": "getCurrentFlightID",
      "outputs": [
        {
          "internalType": "uint256",
          "name": "",
          "type": "uint256"
        }
      ],
      "stateMutability": "view",
      "type": "function"
    },
    {
      "inputs": [
        {
          "internalType": "uint256",
          "name": "_flightID",
          "type": "uint256"
        }
      ],
      "name": "getFlight",
      "outputs": [
        {
          "internalType": "string",
          "name": "flightRef",
          "type": "string"
        },
        {
          "internalType": "uint64",
          "name": "estimatedDeparture",
          "type": "uint64"
        },
        {
          "internalType": "uint64",
          "name": "estimatedArrival",
          "type": "uint64"
        },
        {
          "internalType": "uint64",
          "name": "realDeparture",
          "type": "uint64"
        },
        {
          "internalType": "uint64",
          "name": "realArrival",
          "type": "uint64"
        },
        {
          "internalType": "bool",
          "name": "isLate",
          "type": "bool"
        },
        {
          "internalType": "address",
          "name": "insuranceProvider",
          "type": "address"
        },
        {
          "internalType": "uint256",
          "name": "insuredValue",
          "type": "uint256"
        },
        {
          "internalType": "uint256",
          "name": "rate",
          "type": "uint256"
        }
      ],
      "stateMutability": "view",
      "type": "function"
    },
    {
      "inputs": [
        {
          "internalType": "address",
          "name": "_caller",
          "type": "address"
        },
        {
          "internalType": "uint256",
          "name": "_flightID",
          "type": "uint256"
        },
        {
          "internalType": "uint256",
          "name": "_insuredValue",
          "type": "uint256"
        }
      ],
      "name": "insure",
      "outputs": [],
      "stateMutability": "nonpayable",
      "type": "function"
    },
    {
      "inputs": [
        {
          "internalType": "uint256",
          "name": "_insuranceID",
          "type": "uint256"
        }
      ],
      "name": "setInsuranceToClaimed",
      "outputs": [],
      "stateMutability": "nonpayable",
      "type": "function"
    },
    {
      "inputs": [
        {
          "internalType": "uint256",
          "name": "_totalInsuredValue",
          "type": "uint256"
        }
      ],
      "name": "setTotalInsuredValue",
      "outputs": [],
      "stateMutability": "nonpayable",
      "type": "function"
    },
    {
      "inputs": [],
      "name": "getCurrentInsuranceID",
      "outputs": [
        {
          "internalType": "uint256",
          "name": "",
          "type": "uint256"
        }
      ],
      "stateMutability": "view",
      "type": "function"
    },
    {
      "inputs": [
        {
          "internalType": "uint256",
          "name": "_insuranceID",
          "type": "uint256"
        }
      ],
      "name": "getInsurance",
      "outputs": [
        {
          "internalType": "uint256",
          "name": "flightID",
          "type": "uint256"
        },
        {
          "internalType": "uint256",
          "name": "insuredValue",
          "type": "uint256"
        },
        {
          "internalType": "address",
          "name": "owner",
          "type": "address"
        },
        {
          "internalType": "bool",
          "name": "claimed",
          "type": "bool"
        }
      ],
      "stateMutability": "view",
      "type": "function"
    },
    {
      "inputs": [],
      "name": "getTotalInsuredValue",
      "outputs": [
        {
          "internalType": "uint256",
          "name": "",
          "type": "uint256"
        }
      ],
      "stateMutability": "view",
      "type": "function"
    }
  ],
  "bytecode": "0x608060405234801561001057600080fd5b5060405161127038038061127083398101604081905261002f9161009b565b600080546001600160a01b031916331781556001600160a01b039283168152600160208190526040808320805460ff199081168417909155939094168252929020805490911690911790556100cd565b80516001600160a01b038116811461009657600080fd5b919050565b600080604083850312156100ad578182fd5b6100b68361007f565b91506100c46020840161007f565b90509250929050565b611194806100dc6000396000f3fe608060405234801561001057600080fd5b50600436106100ea5760003560e01c806351457a791161008c5780639499e018116100665780639499e018146101d4578063d48b06b8146101dc578063ed7f24bc146101e4578063f2fde38b146101f7576100ea565b806351457a79146101965780637cae395c146101a957806385fae602146101b1576100ea565b80632e523c0a116100c85780632e523c0a1461012a578063390fc413146101485780633a4396cb1461015b5780634ac8c5ae14610183576100ea565b80630b337715146100ef57806326b51746146101045780632c388d5d14610117575b600080fd5b6101026100fd366004610eb5565b61020a565b005b610102610112366004610eb5565b610247565b610102610125366004610dbb565b61029a565b6101326102ea565b60405161013f91906110ab565b60405180910390f35b610102610156366004610e83565b610320565b61016e610169366004610eb5565b61041e565b60405161013f99989796959493929190610f3f565b610102610191366004610dbb565b610673565b6101026101a4366004610ddc565b6106c0565b61013261089b565b6101c46101bf366004610eb5565b6108d1565b60405161013f94939291906110b4565b610102610965565b61013261099d565b6101026101f2366004610ecd565b6109d3565b610102610205366004610dbb565b610c5b565b3360009081526001602052604090205460ff166102425760405162461bcd60e51b815260040161023990611046565b60405180910390fd5b600655565b3360009081526001602052604090205460ff166102765760405162461bcd60e51b815260040161023990611046565b6000908152600560205260409020600201805460ff60a01b1916600160a01b179055565b6000546001600160a01b03163314806102c257503360009081526001602052604090205460ff165b6102de5760405162461bcd60e51b815260040161023990610ffd565b6102e781610ca7565b50565b3360009081526001602052604081205460ff166103195760405162461bcd60e51b815260040161023990611046565b5060045490565b3360009081526001602052604090205460ff1661034f5760405162461bcd60e51b815260040161023990611046565b6004805490600061035f8361112d565b90915550506040805160808101825283815260208082018490526001600160a01b03861682840152600060608301819052858152600391829052928320018054919284926103ae9084906110da565b90915550506004546000908152600560209081526040918290208351815590830151600182015590820151600290910180546060909301511515600160a01b0260ff60a01b196001600160a01b039093166001600160a01b03199094169390931791909116919091179055505050565b3360009081526001602052604081205460609190819081908190819081908190819060ff1661045f5760405162461bcd60e51b815260040161023990611046565b60008a81526003602052604080822081516101208101909252805482908290610487906110f2565b80601f01602080910402602001604051908101604052809291908181526020018280546104b3906110f2565b80156105005780601f106104d557610100808354040283529160200191610500565b820191906000526020600020905b8154815290600101906020018083116104e357829003601f168201915b505050505081526020016001820160009054906101000a90046001600160401b03166001600160401b03166001600160401b031681526020016001820160089054906101000a90046001600160401b03166001600160401b03166001600160401b031681526020016001820160109054906101000a90046001600160401b03166001600160401b03166001600160401b031681526020016001820160189054906101000a90046001600160401b03166001600160401b03166001600160401b031681526020016002820160009054906101000a900460ff161515151581526020016002820160019054906101000a90046001600160a01b03166001600160a01b03166001600160a01b03168152602001600382015481526020016004820154815250509050806000015181602001518260400151836060015184608001518560a001518660c001518760e00151886101000151995099509950995099509950995099509950509193959799909294969850565b6000546001600160a01b031633148061069b57503360009081526001602052604090205460ff165b6106b75760405162461bcd60e51b815260040161023990610ffd565b6102e781610cce565b3360009081526001602052604090205460ff166106ef5760405162461bcd60e51b815260040161023990611046565b604080516101406020601f880181900402820181019092526101208101868152600092829190899089908190850183828082843760009201829052509385525050506001600160401b03808816602084015286166040830152606082018190526080820181905260a082018190526001600160a01b038a1660c083015260e08201819052610100909101849052600280549293509061078d8361112d565b909155505060025460009081526003602090815260409091208251805184936107ba928492910190610cef565b50602082015160018201805460408501516060860151608087015167ffffffffffffffff199093166001600160401b039586161767ffffffffffffffff60401b1916600160401b928616929092029190911767ffffffffffffffff60801b1916600160801b91851691909102176001600160c01b0316600160c01b939091169290920291909117905560a082015160028201805460c085015160ff1990911692151592909217610100600160a81b0319166101006001600160a01b03909316830217905560e083015160038301559091015160049091015550505050505050565b3360009081526001602052604081205460ff166108ca5760405162461bcd60e51b815260040161023990611046565b5060025490565b3360009081526001602052604081205481908190819060ff166109065760405162461bcd60e51b815260040161023990611046565b505050600091825250600560209081526040918290208251608081018452815480825260018301549382018490526002909201546001600160a01b038116948201859052600160a01b900460ff16151560609091018190529093919291565b6000546001600160a01b0316331461098f5760405162461bcd60e51b81526004016102399061107d565b6000546001600160a01b0316ff5b3360009081526001602052604081205460ff166109cc5760405162461bcd60e51b815260040161023990611046565b5060065490565b3360009081526001602052604090205460ff16610a025760405162461bcd60e51b815260040161023990611046565b60008481526003602052604080822081516101208101909252805482908290610a2a906110f2565b80601f0160208091040260200160405190810160405280929190818152602001828054610a56906110f2565b8015610aa35780601f10610a7857610100808354040283529160200191610aa3565b820191906000526020600020905b815481529060010190602001808311610a8657829003601f168201915b505050918352505060018201546001600160401b03808216602080850191909152600160401b83048216604080860191909152600160801b84048316606080870191909152600160c01b9094048316608080870191909152600287015460ff8116151560a0808901919091526001600160a01b03610100928390041660c08901526003808a015460e08a015260049099015491909701528b8416948801949094529189169286019290925286151592850192909252600089815292815291208251805193945084939192610b7c92849290910190610cef565b50602082015160018201805460408501516060860151608087015167ffffffffffffffff199093166001600160401b039586161767ffffffffffffffff60401b1916600160401b928616929092029190911767ffffffffffffffff60801b1916600160801b91851691909102176001600160c01b0316600160c01b939091169290920291909117905560a082015160028201805460c085015160ff1990911692151592909217610100600160a81b0319166101006001600160a01b03909316830217905560e08301516003830155909101516004909101555050505050565b6000546001600160a01b03163314610c855760405162461bcd60e51b81526004016102399061107d565b600080546001600160a01b0319166001600160a01b0392909216919091179055565b6001600160a01b03166000908152600160208190526040909120805460ff19169091179055565b6001600160a01b03166000908152600160205260409020805460ff19169055565b828054610cfb906110f2565b90600052602060002090601f016020900481019282610d1d5760008555610d63565b82601f10610d3657805160ff1916838001178555610d63565b82800160010185558215610d63579182015b82811115610d63578251825591602001919060010190610d48565b50610d6f929150610d73565b5090565b5b80821115610d6f5760008155600101610d74565b80356001600160a01b0381168114610d9f57600080fd5b919050565b80356001600160401b0381168114610d9f57600080fd5b600060208284031215610dcc578081fd5b610dd582610d88565b9392505050565b60008060008060008060a08789031215610df4578182fd5b610dfd87610d88565b955060208701356001600160401b0380821115610e18578384fd5b818901915089601f830112610e2b578384fd5b813581811115610e39578485fd5b8a6020828501011115610e4a578485fd5b602083019750809650505050610e6260408801610da4565b9250610e7060608801610da4565b9150608087013590509295509295509295565b600080600060608486031215610e97578283fd5b610ea084610d88565b95602085013595506040909401359392505050565b600060208284031215610ec6578081fd5b5035919050565b60008060008060808587031215610ee2578384fd5b84359350610ef260208601610da4565b9250610f0060408601610da4565b915060608501358015158114610f14578182fd5b939692955090935050565b6001600160a01b03169052565b15159052565b6001600160401b03169052565b60006101208083528b5180828501528291505b80821015610f74576020828e0101516101408386010152602082019150610f52565b80821115610f86578261014082860101525b601f01601f19168301610140019150610fa49050602083018b610f32565b610fb1604083018a610f32565b610fbe6060830189610f32565b610fcb6080830188610f32565b610fd860a0830187610f2c565b610fe560c0830186610f1f565b60e08201939093526101000152979650505050505050565b60208082526029908201527f63616c6c6572206d757374206265206f776e6572206f7220617574686f72697a60408201526832b21031b0b63632b960b91b606082015260800190565b60208082526019908201527f63616c6c6572206d75737420626520617574686f72697a656400000000000000604082015260600190565b60208082526014908201527331b0b63632b91036bab9ba1031329037bbb732b960611b604082015260600190565b90815260200190565b93845260208401929092526001600160a01b031660408301521515606082015260800190565b600082198211156110ed576110ed611148565b500190565b60028104600182168061110657607f821691505b6020821081141561112757634e487b7160e01b600052602260045260246000fd5b50919050565b600060001982141561114157611141611148565b5060010190565b634e487b7160e01b600052601160045260246000fdfea26469706673582212203130c5d1eb0cfc0bec36c2d1a5a55a2c53aaafd8815a1d2811d0671b2514a90964736f6c63430008000033",
  "immutableReferences": {},
  "source": "// SPDX-License-Identifier: UNLICENSED\npragma solidity ^0.8.00;\n\nimport \"../Ownable/Ownable.sol\";\nimport \"../CallerAuditable/CallerAuditable.sol\";\nimport \"./FlighSuretyDataBase.sol\";\n\ncontract FlighSuretyData is Ownable, CallerAuditable, FlightSuretyDataBase {\n    modifier onlyOwnerOrAuthorizedCaller() {\n        require(\n            msg.sender == owner || authorizedCallers[msg.sender],\n            \"caller must be owner or authorized caller\"\n        );\n        _;\n    }\n\n    // constructor setting owner and initial authorized caller address aka appAddress\n    constructor(address _appContractAddress, address _oracleContractAddress)\n        Ownable()\n    {\n        authorizedCallers[_appContractAddress] = true;\n        authorizedCallers[_oracleContractAddress] = true;\n    }\n\n    /** caller authorization */\n    // authorize a new caller to call the contract\n    function authorizeCaller(address _caller)\n        external\n        onlyOwnerOrAuthorizedCaller\n    {\n        _authorizeCaller(_caller);\n    }\n\n    // remove an existing caller rights to call the contract\n    function unauthorizeCaller(address _caller)\n        external\n        onlyOwnerOrAuthorizedCaller\n    {\n        _unauthorizeCaller(_caller);\n    }\n\n    // flights  management\n    // register a new flight for a given insurance provider aka airline\n    function registerFlight(\n        address _caller,\n        string calldata _flightRef,\n        uint64 _estimatedDeparture,\n        uint64 _estimatedArrival,\n        uint256 _rate\n    ) external onlyAuthorizedCaller {\n        Flight memory _flight = Flight({\n            flightRef: _flightRef,\n            estimatedDeparture: _estimatedDeparture,\n            estimatedArrival: _estimatedArrival,\n            realDeparture: 0,\n            realArrival: 0,\n            isLate: false,\n            insuranceProvider: _caller,\n            insuredValue: 0,\n            rate: _rate\n        });\n\n        currentFlightID++;\n        flights[currentFlightID] = _flight;\n    }\n\n    // update flight data\n    function updateFlight(\n        uint256 _flightID,\n        uint64 _realDeparture,\n        uint64 _realArrival,\n        bool _isLate\n    ) external onlyAuthorizedCaller {\n        Flight memory _flight = flights[_flightID];\n        _flight.realDeparture = _realDeparture;\n        _flight.realArrival = _realArrival;\n        _flight.isLate = _isLate;\n        flights[_flightID] = _flight;\n    }\n\n    // get current autoincrementing id of a given insurance provider aka airline\n    function getCurrentFlightID()\n        external\n        view\n        onlyAuthorizedCaller\n        returns (uint256)\n    {\n        return currentFlightID;\n    }\n\n    // fetch a flight\n    function getFlight(uint256 _flightID)\n        external\n        view\n        onlyAuthorizedCaller\n        returns (\n            string memory flightRef,\n            uint64 estimatedDeparture,\n            uint64 estimatedArrival,\n            uint64 realDeparture,\n            uint64 realArrival,\n            bool isLate,\n            address insuranceProvider,\n            uint256 insuredValue,\n            uint256 rate\n        )\n    {\n        Flight memory flight = flights[_flightID];\n        return (\n            flight.flightRef,\n            flight.estimatedDeparture,\n            flight.estimatedArrival,\n            flight.realDeparture,\n            flight.realArrival,\n            flight.isLate,\n            flight.insuranceProvider,\n            flight.insuredValue,\n            flight.rate\n        );\n    }\n\n    /** insurance management */\n\n    // insure a passenger for a given flight\n    function insure(\n        address _caller,\n        uint256 _flightID,\n        uint256 _insuredValue\n    ) external onlyAuthorizedCaller {\n        currentInsuranceID++;\n        Insurance memory _insurance = Insurance({\n            flightID: _flightID,\n            insuredValue: _insuredValue,\n            owner: _caller,\n            claimed: false\n        });\n        flights[_flightID].insuredValue += _insuredValue;\n        insurances[currentInsuranceID] = _insurance;\n    }\n\n    // set an insurance claimed attribute to true\n    function setInsuranceToClaimed(uint256 _insuranceID)\n        external\n        onlyAuthorizedCaller\n    {\n        insurances[_insuranceID].claimed = true;\n    }\n\n    // amend the total insured value\n    function setTotalInsuredValue(uint256 _totalInsuredValue)\n        external\n        onlyAuthorizedCaller\n    {\n        totalInsuredValue = _totalInsuredValue;\n    }\n\n    // fetch the current autoincrementing ID of a given passenger\n    function getCurrentInsuranceID()\n        external\n        view\n        onlyAuthorizedCaller\n        returns (uint256)\n    {\n        return currentInsuranceID;\n    }\n\n    // fetch a passenger's insurance\n    function getInsurance(uint256 _insuranceID)\n        external\n        view\n        onlyAuthorizedCaller\n        returns (\n            uint256 flightID,\n            uint256 insuredValue,\n            address owner,\n            bool claimed\n        )\n    {\n        Insurance memory insurance = insurances[_insuranceID];\n        return (\n            insurance.flightID,\n            insurance.insuredValue,\n            insurance.owner,\n            insurance.claimed\n        );\n    }\n\n    // fetch the current total insured value\n    function getTotalInsuredValue()\n        external\n        view\n        onlyAuthorizedCaller\n        returns (uint256)\n    {\n        return totalInsuredValue;\n    }\n}\n",
  "sourcePath": "/home/bender/Documents/FlightInsurance/contracts/FlightSuretyData/FlighSuretyData.sol",
  "compiler": {
    "name": "solc",
    "version": "0.8.0+commit.c7dfd78e.Emscripten.clang"
  },
  "schemaVersion": "3.4.2",
  "updatedAt": "2021-08-08T09:21:00.066Z",
  "devdoc": {
    "kind": "dev",
    "methods": {},
    "version": 1
  },
  "userdoc": {
    "kind": "user",
    "methods": {
      "authorizeCaller(address)": {
        "notice": "caller authorization "
      },
      "insure(address,uint256,uint256)": {
        "notice": "insurance management "
      }
    },
    "version": 1
  }
}