{
  "contractName": "InsuranceProviderRole",
  "abi": [
    {
      "inputs": [
        {
          "internalType": "address",
          "name": "_appContractAddress",
          "type": "address"
        }
      ],
      "stateMutability": "nonpayable",
      "type": "constructor"
    },
    {
      "inputs": [],
      "name": "destructContract",
      "outputs": [],
      "stateMutability": "nonpayable",
      "type": "function"
    },
    {
      "inputs": [
        {
          "internalType": "address",
          "name": "_newOwner",
          "type": "address"
        }
      ],
      "name": "transferOwnership",
      "outputs": [],
      "stateMutability": "nonpayable",
      "type": "function"
    },
    {
      "inputs": [
        {
          "internalType": "address",
          "name": "_caller",
          "type": "address"
        }
      ],
      "name": "authorizeCaller",
      "outputs": [],
      "stateMutability": "nonpayable",
      "type": "function"
    },
    {
      "inputs": [
        {
          "internalType": "address",
          "name": "_caller",
          "type": "address"
        }
      ],
      "name": "unauthorizeCaller",
      "outputs": [],
      "stateMutability": "nonpayable",
      "type": "function"
    },
    {
      "inputs": [
        {
          "internalType": "address",
          "name": "_caller",
          "type": "address"
        }
      ],
      "name": "isRegisteredInsuranceProvider",
      "outputs": [
        {
          "internalType": "bool",
          "name": "",
          "type": "bool"
        }
      ],
      "stateMutability": "view",
      "type": "function",
      "constant": true
    },
    {
      "inputs": [
        {
          "internalType": "address",
          "name": "_caller",
          "type": "address"
        }
      ],
      "name": "isActivatedInsuranceProvider",
      "outputs": [
        {
          "internalType": "bool",
          "name": "",
          "type": "bool"
        }
      ],
      "stateMutability": "view",
      "type": "function",
      "constant": true
    },
    {
      "inputs": [
        {
          "internalType": "address",
          "name": "_account",
          "type": "address"
        },
        {
          "internalType": "address",
          "name": "_caller",
          "type": "address"
        }
      ],
      "name": "hasVotedInsuranceProviderMembership",
      "outputs": [
        {
          "internalType": "bool",
          "name": "",
          "type": "bool"
        }
      ],
      "stateMutability": "view",
      "type": "function",
      "constant": true
    },
    {
      "inputs": [
        {
          "internalType": "bool",
          "name": "_side",
          "type": "bool"
        },
        {
          "internalType": "address",
          "name": "_caller",
          "type": "address"
        },
        {
          "internalType": "uint256",
          "name": "consensusTreshold",
          "type": "uint256"
        }
      ],
      "name": "hasReachedConsensusInsuranceProviderMembership",
      "outputs": [
        {
          "internalType": "bool",
          "name": "",
          "type": "bool"
        }
      ],
      "stateMutability": "view",
      "type": "function",
      "constant": true
    },
    {
      "inputs": [],
      "name": "getRegisteredInsuranceProvidersCount",
      "outputs": [
        {
          "internalType": "uint256",
          "name": "count",
          "type": "uint256"
        }
      ],
      "stateMutability": "view",
      "type": "function",
      "constant": true
    },
    {
      "inputs": [],
      "name": "getActivatedInsuranceProvidersCount",
      "outputs": [
        {
          "internalType": "uint256",
          "name": "count",
          "type": "uint256"
        }
      ],
      "stateMutability": "view",
      "type": "function",
      "constant": true
    },
    {
      "inputs": [
        {
          "internalType": "address",
          "name": "_caller",
          "type": "address"
        }
      ],
      "name": "addInsuranceProvider",
      "outputs": [],
      "stateMutability": "nonpayable",
      "type": "function"
    },
    {
      "inputs": [
        {
          "internalType": "address",
          "name": "_account",
          "type": "address"
        }
      ],
      "name": "renounceInsuranceProvider",
      "outputs": [],
      "stateMutability": "nonpayable",
      "type": "function"
    },
    {
      "inputs": [
        {
          "internalType": "address",
          "name": "_caller",
          "type": "address"
        },
        {
          "internalType": "address",
          "name": "_account",
          "type": "address"
        },
        {
          "internalType": "uint256",
          "name": "_voteWeight",
          "type": "uint256"
        }
      ],
      "name": "voteInsuranceProviderMembership",
      "outputs": [],
      "stateMutability": "nonpayable",
      "type": "function"
    },
    {
      "inputs": [
        {
          "internalType": "address",
          "name": "_account",
          "type": "address"
        }
      ],
      "name": "activateInsuranceProvider",
      "outputs": [],
      "stateMutability": "nonpayable",
      "type": "function"
    }
  ],
  "bytecode": "0x608060405234801561001057600080fd5b50604051610afc380380610afc83398101604081905261002f9161006b565b600080546001600160a01b031916331781556001600160a01b03919091168152600160208190526040909120805460ff19169091179055610099565b60006020828403121561007c578081fd5b81516001600160a01b0381168114610092578182fd5b9392505050565b610a54806100a86000396000f3fe608060405234801561001057600080fd5b50600436106100ea5760003560e01c8063ae20a65c1161008c578063d81bfa8911610066578063d81bfa89146101bc578063d8ccc47a146101cf578063ee2a4d48146101e2578063f2fde38b146101ea576100ea565b8063ae20a65c14610183578063c287a64814610196578063ccdad358146101a9576100ea565b80634ac8c5ae116100c85780634ac8c5ae146101425780635a2449a9146101555780637cd91315146101685780639499e0181461017b576100ea565b8063041e3878146100ef5780632c388d5d146101185780632dfa077c1461012d575b600080fd5b6101026100fd366004610887565b6101fd565b60405161010f9190610917565b60405180910390f35b61012b61012636600461086d565b610248565b005b610135610298565b60405161010f91906109d0565b61012b61015036600461086d565b6102d4565b61012b61016336600461086d565b610321565b61012b6101763660046108b9565b610359565b61012b61039c565b61012b61019136600461086d565b6103d4565b6101026101a43660046108f4565b61040c565b6101026101b736600461086d565b610452565b6101026101ca36600461086d565b610492565b61012b6101dd36600461086d565b6104ca565b610135610502565b61012b6101f836600461086d565b610539565b3360009081526001602052604081205460ff166102355760405162461bcd60e51b815260040161022c9061096b565b60405180910390fd5b61023f8383610585565b90505b92915050565b6000546001600160a01b031633148061027057503360009081526001602052604090205460ff165b61028c5760405162461bcd60e51b815260040161022c90610922565b61029581610593565b50565b3360009081526001602052604081205460ff166102c75760405162461bcd60e51b815260040161022c9061096b565b6102cf6105ba565b905090565b6000546001600160a01b03163314806102fc57503360009081526001602052604090205460ff165b6103185760405162461bcd60e51b815260040161022c90610922565b610295816105c6565b3360009081526001602052604090205460ff166103505760405162461bcd60e51b815260040161022c9061096b565b610295816105e7565b3360009081526001602052604090205460ff166103885760405162461bcd60e51b815260040161022c9061096b565b610397600684600185856105f2565b505050565b6000546001600160a01b031633146103c65760405162461bcd60e51b815260040161022c906109a2565b6000546001600160a01b0316ff5b3360009081526001602052604090205460ff166104035760405162461bcd60e51b815260040161022c9061096b565b61029581610668565b3360009081526001602052604081205460ff1661043b5760405162461bcd60e51b815260040161022c9061096b565b6104486006858585610673565b90505b9392505050565b3360009081526001602052604081205460ff166104815760405162461bcd60e51b815260040161022c9061096b565b61048a826106b1565b90505b919050565b3360009081526001602052604081205460ff166104c15760405162461bcd60e51b815260040161022c9061096b565b61048a826106be565b3360009081526001602052604090205460ff166104f95760405162461bcd60e51b815260040161022c9061096b565b610295816106cb565b3360009081526001602052604081205460ff166105315760405162461bcd60e51b815260040161022c9061096b565b6102cf6106d6565b6000546001600160a01b031633146105635760405162461bcd60e51b815260040161022c906109a2565b600080546001600160a01b0319166001600160a01b0392909216919091179055565b600061023f600684846106e2565b6001600160a01b03166000908152600160208190526040909120805460ff19169091179055565b60006102cf6002610724565b6001600160a01b03166000908152600160205260409020805460ff19169055565b61029560028261072b565b6001600160a01b0382166000908152602086815260408083208615158452909152812080548392906106259084906109d9565b9091555050506001600160a01b03908116600090815260019490940160209081526040808620949092168552929092529120805460ff1916911515919091179055565b61029560028261076b565b6001600160a01b038216600090815260208581526040808320861515845290915281205482116106a5575060016106a9565b5060005b949350505050565b600061048a60028361079b565b600061048a6002836107cc565b6102956002826107f7565b60006102cf6002610837565b6001600160a01b038082166000908152600185016020908152604080832093861683529290529081205460ff161561071c5750600161044b565b50600061044b565b6002015490565b6001600160a01b0381166000908152602083905260409020805460ff19166001908117909155600283015461075f9161083e565b82600201819055505050565b6001600160a01b0381166000908152602083905260409020805460ff19169055600282015461075f90600161084a565b6001600160a01b03811660009081526020839052604081205460ff16156107c457506001610242565b506000610242565b6001600160a01b038116600090815260018301602052604081205460ff16156107c457506001610242565b6001600160a01b038116600090815260018381016020526040909120805460ff191682179055600383015461082b9161083e565b82600301819055505050565b6003015490565b600061023f82846109d9565b600061023f82846109f1565b80356001600160a01b038116811461048d57600080fd5b60006020828403121561087e578081fd5b61023f82610856565b60008060408385031215610899578081fd5b6108a283610856565b91506108b060208401610856565b90509250929050565b6000806000606084860312156108cd578081fd5b6108d684610856565b92506108e460208501610856565b9150604084013590509250925092565b600080600060608486031215610908578283fd5b833580151581146108d6578384fd5b901515815260200190565b60208082526029908201527f63616c6c6572206d757374206265206f776e6572206f7220617574686f72697a60408201526832b21031b0b63632b960b91b606082015260800190565b60208082526019908201527f63616c6c6572206d75737420626520617574686f72697a656400000000000000604082015260600190565b60208082526014908201527331b0b63632b91036bab9ba1031329037bbb732b960611b604082015260600190565b90815260200190565b600082198211156109ec576109ec610a08565b500190565b600082821015610a0357610a03610a08565b500390565b634e487b7160e01b600052601160045260246000fdfea2646970667358221220762eeae81ed7505200b02faa22bca0e2eb3a36eca0b3497d9738b51f3d2f5f8f64736f6c63430008000033",
  "immutableReferences": {},
  "source": "// SPDX-License-Identifier: UNLICENSED\npragma solidity ^0.8.00;\n\nimport \"../libraries/Rolable.sol\";\nimport \"../libraries/Votable.sol\";\nimport \"../Ownable/Ownable.sol\";\nimport \"../CallerAuditable/CallerAuditable.sol\";\n\ncontract InsuranceProviderRole is Ownable, CallerAuditable {\n    using Rolable for Rolable.Role;\n    Rolable.Role insuranceProviders;\n    using Votable for Votable.MembershipVote;\n    Votable.MembershipVote insuranceProvidersVote;\n\n    modifier onlyOwnerOrAuthorizedCaller(){\n        require(msg.sender == owner || authorizedCallers[msg.sender], \"caller must be owner or authorized caller\");\n        _;\n    }\n\n    // constructor setting owner and initial authorized caller address aka appAddress\n    constructor(address _appContractAddress) Ownable() {\n        authorizedCallers[_appContractAddress] = true;\n    }\n\n    /** caller authorization */\n\n    // authorize a new caller to call the contract\n    function authorizeCaller(address _caller) external onlyOwnerOrAuthorizedCaller{\n        _authorizeCaller(_caller);\n    }\n\n    // remove an existing caller rights to call the contract\n    function unauthorizeCaller(address _caller) external onlyOwnerOrAuthorizedCaller{\n        _unauthorizeCaller(_caller);\n    }\n\n    /** insurance providers management (CHECK + ADD + REMOVE + VOTE) */\n\n    // check if an insurance provider aka airline is registered\n    function isRegisteredInsuranceProvider(address _caller)\n        external\n        view\n        onlyAuthorizedCaller\n        returns (bool)\n    {\n        return _isRegisteredInsuranceProvider(_caller);\n    }\n\n    // check if an insurance provider aka airline is activated\n    function isActivatedInsuranceProvider(address _caller)\n        external\n        view\n        onlyAuthorizedCaller\n        returns (bool)\n    {\n        return _isActivatedInsuranceProvider(_caller);\n    }\n\n    // check if the caller has voted for insurance provider memebrship of an account\n    function hasVotedInsuranceProviderMembership(\n        address _account,\n        address _caller\n    ) external view onlyAuthorizedCaller returns (bool) {\n        return _hasVotedInsuranceProviderMembership(_account, _caller);\n    }\n\n    // check if an address currently voted for insurance provider membership has reached consensus among the community\n    function hasReachedConsensusInsuranceProviderMembership(\n        bool _side,\n        address _caller,\n        uint256 consensusTreshold\n    ) external view onlyAuthorizedCaller returns (bool) {\n        return  insuranceProvidersVote.hasReachedConsensusMembership(\n                _side,\n                _caller,\n                consensusTreshold\n            );\n    }\n\n    // fetch current registered insurance provider count\n    function getRegisteredInsuranceProvidersCount()\n        external\n        view\n        onlyAuthorizedCaller\n        returns (uint256 count)\n    {\n        return _getRegisteredInsuranceProvidersCount();\n    }\n\n    // fetch current activated insurance provider count\n    function getActivatedInsuranceProvidersCount()\n        external\n        view\n        onlyAuthorizedCaller\n        returns (uint256 count)\n    {\n        return _getActivatedInsuranceProvidersCount();\n    }\n\n    // register an insurance provider aka airline\n    function addInsuranceProvider(address _caller)\n        external\n        onlyAuthorizedCaller\n    {\n        _addInsuranceProvider(_caller);\n    }\n\n    // remove an insurance provider aka airline\n    function renounceInsuranceProvider(address _account)\n        external\n        onlyAuthorizedCaller\n    {\n        _renounceInsuranceProvider(_account);\n    }\n\n    // vote for an insurance provider aka airline activation and membership\n    function voteInsuranceProviderMembership(address _caller, address _account,  uint256 _voteWeight)\n        external\n        onlyAuthorizedCaller\n    {\n         insuranceProvidersVote.voteMembership(_caller, true, _account, _voteWeight);\n    }\n\n    // activate an insurance provider aka airline\n    function activateInsuranceProvider(address _account)\n        external\n        onlyAuthorizedCaller\n    {\n        _activateInsuranceProvider(_account);\n    }\n\n    function _isRegisteredInsuranceProvider(address _caller)\n        internal\n        view\n        returns (bool)\n    {\n        return insuranceProviders.isRegistered(_caller);\n    }\n\n    function _isActivatedInsuranceProvider(address _caller)\n        internal\n        view\n        returns (bool)\n    {\n        return insuranceProviders.isActivated(_caller);\n    }\n\n    function _hasVotedInsuranceProviderMembership(\n        address _account,\n        address _caller\n    ) internal view returns (bool) {\n        return insuranceProvidersVote.hasVotedMembership(_account, _caller);\n    }\n\n\n    function _getRegisteredInsuranceProvidersCount()\n        internal\n        view\n        returns (uint256 count)\n    {\n        return insuranceProviders.getRegisteredAccountsCount();\n    }\n\n    function _getActivatedInsuranceProvidersCount()\n        internal\n        view\n        returns (uint256 count)\n    {\n        return insuranceProviders.getActiveAccountsCount();\n    }\n\n    function _addInsuranceProvider(address _account) internal {\n        insuranceProviders.add(_account);\n    }\n\n    function _renounceInsuranceProvider(address _account) internal {\n        insuranceProviders.remove(_account);\n    }\n\n    function _activateInsuranceProvider(address _account) internal {\n        insuranceProviders.activate(_account);\n    }\n}\n",
  "sourcePath": "/home/bender/Documents/FlightInsurance/contracts/roles/InsuranceProviderRole.sol",
  "compiler": {
    "name": "solc",
    "version": "0.8.0+commit.c7dfd78e.Emscripten.clang"
  },
  "schemaVersion": "3.4.2",
  "updatedAt": "2021-08-08T09:35:10.095Z",
  "networkType": "ethereum",
  "devdoc": {
    "kind": "dev",
    "methods": {},
    "version": 1
  },
  "userdoc": {
    "kind": "user",
    "methods": {
      "authorizeCaller(address)": {
        "notice": "caller authorization "
      },
      "isRegisteredInsuranceProvider(address)": {
        "notice": "insurance providers management (CHECK + ADD + REMOVE + VOTE) "
      }
    },
    "version": 1
  }
}