{
  "contractName": "InsuranceCoverageAmendmentProposal",
  "abi": [
    {
      "inputs": [
        {
          "internalType": "address",
          "name": "_appContractAddress",
          "type": "address"
        }
      ],
      "stateMutability": "nonpayable",
      "type": "constructor"
    },
    {
      "inputs": [],
      "name": "destructContract",
      "outputs": [],
      "stateMutability": "nonpayable",
      "type": "function"
    },
    {
      "inputs": [
        {
          "internalType": "address",
          "name": "_newOwner",
          "type": "address"
        }
      ],
      "name": "transferOwnership",
      "outputs": [],
      "stateMutability": "nonpayable",
      "type": "function"
    },
    {
      "inputs": [
        {
          "internalType": "address",
          "name": "_caller",
          "type": "address"
        }
      ],
      "name": "authorizeCaller",
      "outputs": [],
      "stateMutability": "nonpayable",
      "type": "function"
    },
    {
      "inputs": [
        {
          "internalType": "address",
          "name": "_caller",
          "type": "address"
        }
      ],
      "name": "unauthorizeCaller",
      "outputs": [],
      "stateMutability": "nonpayable",
      "type": "function"
    },
    {
      "inputs": [
        {
          "internalType": "address",
          "name": "_caller",
          "type": "address"
        },
        {
          "internalType": "uint256",
          "name": "_proposedValue",
          "type": "uint256"
        },
        {
          "internalType": "uint256",
          "name": "_voteWeight",
          "type": "uint256"
        }
      ],
      "name": "registerInsuranceCoverageAmendmentProposal",
      "outputs": [],
      "stateMutability": "nonpayable",
      "type": "function"
    },
    {
      "inputs": [
        {
          "internalType": "uint256",
          "name": "_proposalID",
          "type": "uint256"
        },
        {
          "internalType": "address",
          "name": "_caller",
          "type": "address"
        },
        {
          "internalType": "bool",
          "name": "_side",
          "type": "bool"
        },
        {
          "internalType": "uint256",
          "name": "_voteWeight",
          "type": "uint256"
        }
      ],
      "name": "voteInsuranceCoverageAmendmentProposal",
      "outputs": [],
      "stateMutability": "nonpayable",
      "type": "function"
    },
    {
      "inputs": [
        {
          "internalType": "uint256",
          "name": "_proposalID",
          "type": "uint256"
        }
      ],
      "name": "activateInsuranceCoverageAmendmentProposal",
      "outputs": [],
      "stateMutability": "nonpayable",
      "type": "function"
    },
    {
      "inputs": [
        {
          "internalType": "address",
          "name": "_caller",
          "type": "address"
        },
        {
          "internalType": "uint256",
          "name": "_proposalID",
          "type": "uint256"
        }
      ],
      "name": "hasVotedInsuranceCoverageAmendmentProposal",
      "outputs": [
        {
          "internalType": "bool",
          "name": "_hasVoted",
          "type": "bool"
        }
      ],
      "stateMutability": "view",
      "type": "function",
      "constant": true
    },
    {
      "inputs": [
        {
          "internalType": "uint256",
          "name": "_proposalID",
          "type": "uint256"
        },
        {
          "internalType": "bool",
          "name": "_side",
          "type": "bool"
        }
      ],
      "name": "getVoteCountInsuranceCoverageAmendmentProposal",
      "outputs": [
        {
          "internalType": "uint256",
          "name": "count",
          "type": "uint256"
        }
      ],
      "stateMutability": "view",
      "type": "function",
      "constant": true
    },
    {
      "inputs": [],
      "name": "getCurrentInsuranceCoverage",
      "outputs": [
        {
          "internalType": "uint256",
          "name": "_currentInsuranceCoverage",
          "type": "uint256"
        }
      ],
      "stateMutability": "view",
      "type": "function",
      "constant": true
    },
    {
      "inputs": [
        {
          "internalType": "uint256",
          "name": "_proposalID",
          "type": "uint256"
        },
        {
          "internalType": "bool",
          "name": "_side",
          "type": "bool"
        },
        {
          "internalType": "uint256",
          "name": "_consensusTreshold",
          "type": "uint256"
        }
      ],
      "name": "hasInsuranceCoverageAmendmentProposalReachedConsensus",
      "outputs": [
        {
          "internalType": "bool",
          "name": "",
          "type": "bool"
        }
      ],
      "stateMutability": "view",
      "type": "function",
      "constant": true
    },
    {
      "inputs": [],
      "name": "getInsuranceCoverageAmendmentCurrentProposalID",
      "outputs": [
        {
          "internalType": "uint256",
          "name": "currentProposalID",
          "type": "uint256"
        }
      ],
      "stateMutability": "view",
      "type": "function",
      "constant": true
    }
  ],
  "bytecode": "0x608060405234801561001057600080fd5b50604051610a0c380380610a0c83398101604081905261002f91610070565b600080546001600160a01b031916331781556001600160a01b03919091168152600160208190526040909120805460ff19169091179055609660055561009e565b600060208284031215610081578081fd5b81516001600160a01b0381168114610097578182fd5b9392505050565b61095f806100ad6000396000f3fe608060405234801561001057600080fd5b50600436106100b45760003560e01c80637f2020c7116100715780637f2020c7146101385780639499e0181461014b578063a0aea5e014610153578063a49854d914610173578063f2fde38b14610186578063fde0c46314610199576100b4565b80630b0c9868146100b9578063130dccaf146100d75780632c388d5d146100ea5780632cb1feed146100ff5780634ac8c5ae146101125780634b8c27fa14610125575b600080fd5b6100c16101a1565b6040516100ce91906108d7565b60405180910390f35b6100c16100e53660046107bf565b6101e6565b6100fd6100f83660046106ef565b610228565b005b6100fd61010d36600461077c565b610278565b6100fd6101203660046106ef565b6102b9565b6100fd610133366004610764565b610306565b6100fd610146366004610732565b61033e565b6100fd61037d565b6101666101613660046107ea565b6103b5565b6040516100ce919061081e565b610166610181366004610709565b6103f9565b6100fd6101943660046106ef565b610432565b6100c161047e565b3360009081526001602052604081205460ff166101d95760405162461bcd60e51b81526004016101d090610872565b60405180910390fd5b6101e16104b4565b905090565b3360009081526001602052604081205460ff166102155760405162461bcd60e51b81526004016101d090610872565b61021f83836104ba565b90505b92915050565b6000546001600160a01b031633148061025057503360009081526001602052604090205460ff165b61026c5760405162461bcd60e51b81526004016101d090610829565b610275816104c6565b50565b3360009081526001602052604090205460ff166102a75760405162461bcd60e51b81526004016101d090610872565b6102b3848484846104ed565b50505050565b6000546001600160a01b03163314806102e157503360009081526001602052604090205460ff165b6102fd5760405162461bcd60e51b81526004016101d090610829565b61027581610507565b3360009081526001602052604090205460ff166103355760405162461bcd60e51b81526004016101d090610872565b61027581610528565b3360009081526001602052604090205460ff1661036d5760405162461bcd60e51b81526004016101d090610872565b61037883838361055a565b505050565b6000546001600160a01b031633146103a75760405162461bcd60e51b81526004016101d0906108a9565b6000546001600160a01b0316ff5b3360009081526001602052604081205460ff166103e45760405162461bcd60e51b81526004016101d090610872565b6103ef8484846105b3565b90505b9392505050565b3360009081526001602052604081205460ff166104285760405162461bcd60e51b81526004016101d090610872565b61021f83836105cc565b6000546001600160a01b0316331461045c5760405162461bcd60e51b81526004016101d0906108a9565b600080546001600160a01b0319166001600160a01b0392909216919091179055565b3360009081526001602052604081205460ff166104ad5760405162461bcd60e51b81526004016101d090610872565b5060055490565b60025490565b600061021f83836105e4565b6001600160a01b03166000908152600160208190526040909120805460ff19169091179055565b60008481526003602052604090206102b3908484846105fc565b6001600160a01b03166000908152600160205260409020805460ff19169055565b600090815260046020908152604091829020825180840190935280548084526001909101549290910191909152600555565b604080518082019091528281524260208201526002805490600061057d836108f8565b9091555050600280546000908152600460209081526040909120835181559083015160019182015590546102b3918690856104ed565b60008381526003602052604081206103ef908484610653565b600081815260036020526040812061021f908461067b565b600082815260036020526040812061021f90836106ae565b8115156000908152602085905260408120805483929061061d9084906108e0565b9091555050506001600160a01b03909116600090815260019092016020526040909120805491151560ff19909216919091179055565b8115156000908152602084905260408120548211610673575060016103f2565b5060006103f2565b6001600160a01b038116600090815260018301602052604081205460ff16156106a657506001610222565b506000610222565b15156000908152602091909152604090205490565b80356001600160a01b03811681146106da57600080fd5b919050565b803580151581146106da57600080fd5b600060208284031215610700578081fd5b61021f826106c3565b6000806040838503121561071b578081fd5b610724836106c3565b946020939093013593505050565b600080600060608486031215610746578081fd5b61074f846106c3565b95602085013595506040909401359392505050565b600060208284031215610775578081fd5b5035919050565b60008060008060808587031215610791578081fd5b843593506107a1602086016106c3565b92506107af604086016106df565b9396929550929360600135925050565b600080604083850312156107d1578182fd5b823591506107e1602084016106df565b90509250929050565b6000806000606084860312156107fe578283fd5b8335925061080e602085016106df565b9150604084013590509250925092565b901515815260200190565b60208082526029908201527f63616c6c6572206d757374206265206f776e6572206f7220617574686f72697a60408201526832b21031b0b63632b960b91b606082015260800190565b60208082526019908201527f63616c6c6572206d75737420626520617574686f72697a656400000000000000604082015260600190565b60208082526014908201527331b0b63632b91036bab9ba1031329037bbb732b960611b604082015260600190565b90815260200190565b600082198211156108f3576108f3610913565b500190565b600060001982141561090c5761090c610913565b5060010190565b634e487b7160e01b600052601160045260246000fdfea26469706673582212200e8fd3c478e7cbd6580da65d8e3629f03f69428157ac85c8c23e621ce333457164736f6c63430008000033",
  "immutableReferences": {},
  "source": "// SPDX-License-Identifier: UNLICENSED\npragma solidity ^0.8.00;\n\nimport \"../../Ownable/Ownable.sol\";\nimport \"../../CallerAuditable/CallerAuditable.sol\";\nimport \"../SettingAmendmentProposal/SettingAmendmentProposal.sol\";\n\ncontract InsuranceCoverageAmendmentProposal is\n    Ownable,\n    CallerAuditable,\n    SettingAmendmentProposal\n{\n    uint256 currentInsuranceCoverage;\n\n    modifier onlyOwnerOrAuthorizedCaller() {\n        require(\n            msg.sender == owner || authorizedCallers[msg.sender],\n            \"caller must be owner or authorized caller\"\n        );\n        _;\n    }\n\n    // constructor setting owner and initial authorized caller address aka appAddress\n    constructor(address _appContractAddress) Ownable() {\n        authorizedCallers[_appContractAddress] = true;\n        currentInsuranceCoverage = 150;\n    }\n\n    /** caller authorization */\n\n    // authorize a new caller to call the contract\n    function authorizeCaller(address _caller)\n        external\n        onlyOwnerOrAuthorizedCaller\n    {\n        _authorizeCaller(_caller);\n    }\n\n    // remove an existing caller rights to call the contract\n    function unauthorizeCaller(address _caller)\n        external\n        onlyOwnerOrAuthorizedCaller\n    {\n        _unauthorizeCaller(_caller);\n    }\n\n    // register a new insurance coverage ammendment proposal\n    function registerInsuranceCoverageAmendmentProposal(\n        address _caller,\n        uint256 _proposedValue,\n        uint256 _voteWeight\n    ) external onlyAuthorizedCaller {\n        _registerProposal(_caller, _proposedValue, _voteWeight);\n    }\n\n    // vote an existing insurance coverage amendment proposal\n    function voteInsuranceCoverageAmendmentProposal(\n        uint256 _proposalID,\n        address _caller,\n        bool _side,\n        uint256 _voteWeight\n    ) external onlyAuthorizedCaller {\n        _voteProposal(_proposalID, _caller, _side, _voteWeight);\n    }\n\n    // activate an existing insurance coverage amendment proposal\n    function activateInsuranceCoverageAmendmentProposal(uint256 _proposalID)\n        external\n        onlyAuthorizedCaller\n    {\n        _activateInsuranceCoverageAmendmentProposal(_proposalID);\n    }\n\n    // check wether a voter as already voted for a specific proposal\n    function hasVotedInsuranceCoverageAmendmentProposal(\n        address _caller,\n        uint256 _proposalID\n    ) external view onlyAuthorizedCaller returns (bool _hasVoted) {\n        return _hasVotedProposal(_caller, _proposalID);\n    }\n\n    // fetch the current vote count for an insurance coverage amendment proposal\n    function getVoteCountInsuranceCoverageAmendmentProposal(\n        uint256 _proposalID,\n        bool _side\n    ) external view onlyAuthorizedCaller returns (uint256 count) {\n        return\n            _getVoteCountInsuranceCoverageAmendmentProposal(_proposalID, _side);\n    }\n\n    // fetch the current insurance coverage\n    function getCurrentInsuranceCoverage()\n        external\n        view\n        onlyAuthorizedCaller\n        returns (uint256 _currentInsuranceCoverage)\n    {\n        return currentInsuranceCoverage;\n    }\n\n    // check weather a proposal has reached consensus\n    function hasInsuranceCoverageAmendmentProposalReachedConsensus(\n        uint256 _proposalID,\n        bool _side,\n        uint256 _consensusTreshold\n    ) external view onlyAuthorizedCaller returns (bool) {\n        return _hasReachedConsensus(_proposalID, _side, _consensusTreshold);\n    }\n\n    // fetch the membership proposal current proposal ID\n    function getInsuranceCoverageAmendmentCurrentProposalID()\n        external\n        view\n        onlyAuthorizedCaller\n        returns (uint256 currentProposalID)\n    {\n        return _getInsuranceCoverageAmendmentCurrentProposalID();\n    }\n\n    function _activateInsuranceCoverageAmendmentProposal(uint256 _proposalID)\n        internal\n    {\n        Proposal memory _proposal = proposals[_proposalID];\n        currentInsuranceCoverage = _proposal.proposedValue;\n    }\n\n    function _getVoteCountInsuranceCoverageAmendmentProposal(\n        uint256 _proposalID,\n        bool _side\n    ) internal view returns (uint256 count) {\n        return _getVoteCount(_proposalID, _side);\n    }\n\n    function _getInsuranceCoverageAmendmentCurrentProposalID()\n        internal\n        view\n        returns (uint256 _currentProposalID)\n    {\n        return currentProposalID;\n    }\n}\n",
  "sourcePath": "/home/bender/Documents/FlightInsurance/contracts/amendmentProposals/InsuranceCoverageAmendmentProposal/InsuranceCoverageAmendmentProposal.sol",
  "compiler": {
    "name": "solc",
    "version": "0.8.0+commit.c7dfd78e.Emscripten.clang"
  },
  "schemaVersion": "3.4.2",
  "updatedAt": "2021-08-08T09:35:10.110Z",
  "networkType": "ethereum",
  "devdoc": {
    "kind": "dev",
    "methods": {},
    "version": 1
  },
  "userdoc": {
    "kind": "user",
    "methods": {
      "authorizeCaller(address)": {
        "notice": "caller authorization "
      }
    },
    "version": 1
  }
}