{
  "contractName": "MembershipFeeAmendmentProposal",
  "abi": [
    {
      "inputs": [
        {
          "internalType": "address",
          "name": "_appContractAddress",
          "type": "address"
        }
      ],
      "stateMutability": "nonpayable",
      "type": "constructor"
    },
    {
      "inputs": [],
      "name": "destructContract",
      "outputs": [],
      "stateMutability": "nonpayable",
      "type": "function"
    },
    {
      "inputs": [
        {
          "internalType": "address",
          "name": "_newOwner",
          "type": "address"
        }
      ],
      "name": "transferOwnership",
      "outputs": [],
      "stateMutability": "nonpayable",
      "type": "function"
    },
    {
      "inputs": [
        {
          "internalType": "address",
          "name": "_caller",
          "type": "address"
        }
      ],
      "name": "authorizeCaller",
      "outputs": [],
      "stateMutability": "nonpayable",
      "type": "function"
    },
    {
      "inputs": [
        {
          "internalType": "address",
          "name": "_caller",
          "type": "address"
        }
      ],
      "name": "unauthorizeCaller",
      "outputs": [],
      "stateMutability": "nonpayable",
      "type": "function"
    },
    {
      "inputs": [
        {
          "internalType": "address",
          "name": "_caller",
          "type": "address"
        },
        {
          "internalType": "uint256",
          "name": "_proposedValue",
          "type": "uint256"
        },
        {
          "internalType": "uint256",
          "name": "_voteWeight",
          "type": "uint256"
        }
      ],
      "name": "registerMembershipFeeAmendmentProposal",
      "outputs": [],
      "stateMutability": "nonpayable",
      "type": "function"
    },
    {
      "inputs": [
        {
          "internalType": "uint256",
          "name": "_proposalID",
          "type": "uint256"
        },
        {
          "internalType": "address",
          "name": "_caller",
          "type": "address"
        },
        {
          "internalType": "bool",
          "name": "_side",
          "type": "bool"
        },
        {
          "internalType": "uint256",
          "name": "_voteWeight",
          "type": "uint256"
        }
      ],
      "name": "voteMembershipFeeAmendmentProposal",
      "outputs": [],
      "stateMutability": "nonpayable",
      "type": "function"
    },
    {
      "inputs": [
        {
          "internalType": "uint256",
          "name": "_proposalID",
          "type": "uint256"
        }
      ],
      "name": "activateMembershipFeeAmendmentProposal",
      "outputs": [],
      "stateMutability": "nonpayable",
      "type": "function"
    },
    {
      "inputs": [
        {
          "internalType": "address",
          "name": "_caller",
          "type": "address"
        },
        {
          "internalType": "uint256",
          "name": "_proposalID",
          "type": "uint256"
        }
      ],
      "name": "hasVotedMembershipFeeAmendmentProposal",
      "outputs": [
        {
          "internalType": "bool",
          "name": "_hasVoted",
          "type": "bool"
        }
      ],
      "stateMutability": "view",
      "type": "function",
      "constant": true
    },
    {
      "inputs": [
        {
          "internalType": "uint256",
          "name": "_proposalID",
          "type": "uint256"
        },
        {
          "internalType": "bool",
          "name": "_side",
          "type": "bool"
        }
      ],
      "name": "getVoteCountMembershipFeeAmendmentProposal",
      "outputs": [
        {
          "internalType": "uint256",
          "name": "count",
          "type": "uint256"
        }
      ],
      "stateMutability": "view",
      "type": "function",
      "constant": true
    },
    {
      "inputs": [],
      "name": "getCurrentMembershipFee",
      "outputs": [
        {
          "internalType": "uint256",
          "name": "currentInsuranceCoverage",
          "type": "uint256"
        }
      ],
      "stateMutability": "view",
      "type": "function",
      "constant": true
    },
    {
      "inputs": [],
      "name": "getMembershipFeeAmendmentProposalCurrentProposalID",
      "outputs": [
        {
          "internalType": "uint256",
          "name": "currentProposalID",
          "type": "uint256"
        }
      ],
      "stateMutability": "view",
      "type": "function",
      "constant": true
    },
    {
      "inputs": [
        {
          "internalType": "uint256",
          "name": "_proposalID",
          "type": "uint256"
        },
        {
          "internalType": "bool",
          "name": "_side",
          "type": "bool"
        },
        {
          "internalType": "uint256",
          "name": "_consensusTreshold",
          "type": "uint256"
        }
      ],
      "name": "hasMembershipFeeAmendmentProposalReachedConsensus",
      "outputs": [
        {
          "internalType": "bool",
          "name": "",
          "type": "bool"
        }
      ],
      "stateMutability": "view",
      "type": "function",
      "constant": true
    }
  ],
  "bytecode": "0x608060405234801561001057600080fd5b50604051610a13380380610a1383398101604081905261002f91610077565b600080546001600160a01b031916331781556001600160a01b03919091168152600160208190526040909120805460ff19169091179055678ac7230489e800006005556100a5565b600060208284031215610088578081fd5b81516001600160a01b038116811461009e578182fd5b9392505050565b61095f806100b46000396000f3fe608060405234801561001057600080fd5b50600436106100b45760003560e01c80639499e018116100715780639499e01814610150578063b83c24be14610158578063c8e4fadc1461016b578063ca5c1b4f14610173578063f2fde38b1461017b578063fb0a33451461018e576100b4565b806320df3490146100b957806321adf82c146100ce5780632c388d5d146100f75780634ac8c5ae1461010a578063785e7c101461011d57806384c72f9414610130575b600080fd5b6100cc6100c7366004610764565b6101a1565b005b6100e16100dc366004610709565b6101e5565b6040516100ee919061081e565b60405180910390f35b6100cc6101053660046106ef565b610227565b6100cc6101183660046106ef565b610274565b6100cc61012b36600461077c565b6102c1565b61014361013e3660046107bf565b610302565b6040516100ee91906108d7565b6100cc61033b565b6100e16101663660046107ea565b610373565b6101436103b7565b6101436103ed565b6100cc6101893660046106ef565b610429565b6100cc61019c366004610732565b610475565b3360009081526001602052604090205460ff166101d95760405162461bcd60e51b81526004016101d090610872565b60405180910390fd5b6101e2816104b4565b50565b3360009081526001602052604081205460ff166102145760405162461bcd60e51b81526004016101d090610872565b61021e83836104e6565b90505b92915050565b6000546001600160a01b031633148061024f57503360009081526001602052604090205460ff165b61026b5760405162461bcd60e51b81526004016101d090610829565b6101e2816104fe565b6000546001600160a01b031633148061029c57503360009081526001602052604090205460ff165b6102b85760405162461bcd60e51b81526004016101d090610829565b6101e281610525565b3360009081526001602052604090205460ff166102f05760405162461bcd60e51b81526004016101d090610872565b6102fc84848484610546565b50505050565b3360009081526001602052604081205460ff166103315760405162461bcd60e51b81526004016101d090610872565b61021e8383610560565b6000546001600160a01b031633146103655760405162461bcd60e51b81526004016101d0906108a9565b6000546001600160a01b0316ff5b3360009081526001602052604081205460ff166103a25760405162461bcd60e51b81526004016101d090610872565b6103ad84848461056c565b90505b9392505050565b3360009081526001602052604081205460ff166103e65760405162461bcd60e51b81526004016101d090610872565b5060055490565b3360009081526001602052604081205460ff1661041c5760405162461bcd60e51b81526004016101d090610872565b610424610585565b905090565b6000546001600160a01b031633146104535760405162461bcd60e51b81526004016101d0906108a9565b600080546001600160a01b0319166001600160a01b0392909216919091179055565b3360009081526001602052604090205460ff166104a45760405162461bcd60e51b81526004016101d090610872565b6104af83838361058b565b505050565b600090815260046020908152604091829020825180840190935280548084526001909101549290910191909152600555565b600081815260036020526040812061021e90846105e4565b6001600160a01b03166000908152600160208190526040909120805460ff19169091179055565b6001600160a01b03166000908152600160205260409020805460ff19169055565b60008481526003602052604090206102fc90848484610617565b600061021e838361066e565b60008381526003602052604081206103ad908484610686565b60025490565b60408051808201909152828152426020820152600280549060006105ae836108f8565b9091555050600280546000908152600460209081526040909120835181559083015160019182015590546102fc91869085610546565b6001600160a01b038116600090815260018301602052604081205460ff161561060f57506001610221565b506000610221565b811515600090815260208590526040812080548392906106389084906108e0565b9091555050506001600160a01b03909116600090815260019092016020526040909120805491151560ff19909216919091179055565b600082815260036020526040812061021e90836106ae565b81151560009081526020849052604081205482116106a6575060016103b0565b5060006103b0565b15156000908152602091909152604090205490565b80356001600160a01b03811681146106da57600080fd5b919050565b803580151581146106da57600080fd5b600060208284031215610700578081fd5b61021e826106c3565b6000806040838503121561071b578081fd5b610724836106c3565b946020939093013593505050565b600080600060608486031215610746578081fd5b61074f846106c3565b95602085013595506040909401359392505050565b600060208284031215610775578081fd5b5035919050565b60008060008060808587031215610791578081fd5b843593506107a1602086016106c3565b92506107af604086016106df565b9396929550929360600135925050565b600080604083850312156107d1578182fd5b823591506107e1602084016106df565b90509250929050565b6000806000606084860312156107fe578283fd5b8335925061080e602085016106df565b9150604084013590509250925092565b901515815260200190565b60208082526029908201527f63616c6c6572206d757374206265206f776e6572206f7220617574686f72697a60408201526832b21031b0b63632b960b91b606082015260800190565b60208082526019908201527f63616c6c6572206d75737420626520617574686f72697a656400000000000000604082015260600190565b60208082526014908201527331b0b63632b91036bab9ba1031329037bbb732b960611b604082015260600190565b90815260200190565b600082198211156108f3576108f3610913565b500190565b600060001982141561090c5761090c610913565b5060010190565b634e487b7160e01b600052601160045260246000fdfea264697066735822122029c750e7de7724c50b1fd32949bbd55fc6fe08e6311407e3d512cb79ab77bc8864736f6c63430008000033",
  "immutableReferences": {},
  "source": "// SPDX-License-Identifier: UNLICENSED\npragma solidity ^0.8.00;\n\nimport \"../../Ownable/Ownable.sol\";\nimport \"../../CallerAuditable/CallerAuditable.sol\";\nimport \"../SettingAmendmentProposal/SettingAmendmentProposal.sol\";\n\ncontract MembershipFeeAmendmentProposal is\n    Ownable,\n    CallerAuditable,\n    SettingAmendmentProposal\n{\n    uint256 currentMembershipfee;\n\n    modifier onlyOwnerOrAuthorizedCaller() {\n        require(\n            msg.sender == owner || authorizedCallers[msg.sender],\n            \"caller must be owner or authorized caller\"\n        );\n        _;\n    }\n\n    // constructor setting owner and initial authorized caller address aka appAddress\n    constructor(address _appContractAddress) Ownable() {\n        authorizedCallers[_appContractAddress] = true;\n        currentMembershipfee = 10 ether;\n    }\n\n    /** caller authorization */\n\n    // authorize a new caller to call the contract\n    function authorizeCaller(address _caller)\n        external\n        onlyOwnerOrAuthorizedCaller\n    {\n        _authorizeCaller(_caller);\n    }\n\n    // remove an existing caller rights to call the contract\n    function unauthorizeCaller(address _caller)\n        external\n        onlyOwnerOrAuthorizedCaller\n    {\n        _unauthorizeCaller(_caller);\n    }\n\n    // register a new membership amendment proposal\n    function registerMembershipFeeAmendmentProposal(\n        address _caller,\n        uint256 _proposedValue,\n        uint256 _voteWeight\n    ) external onlyAuthorizedCaller {\n        _registerProposal(_caller, _proposedValue, _voteWeight);\n    }\n\n    // vote an exitsing memebership fee amendment proposal\n    function voteMembershipFeeAmendmentProposal(\n        uint256 _proposalID,\n        address _caller,\n        bool _side,\n        uint256 _voteWeight\n    ) external onlyAuthorizedCaller {\n        _voteProposal(_proposalID, _caller, _side, _voteWeight);\n    }\n\n    // activate an existing membership fee amendement proposal\n    function activateMembershipFeeAmendmentProposal(uint256 _proposalID)\n        external\n        onlyAuthorizedCaller\n    {\n        _activateMembershipFeeAmendmentProposal(_proposalID);\n    }\n\n    // check wether a voter as already voted for a specific proposal\n    function hasVotedMembershipFeeAmendmentProposal(\n        address _caller,\n        uint256 _proposalID\n    ) external view onlyAuthorizedCaller returns (bool _hasVoted) {\n        return _hasVotedProposal(_caller, _proposalID);\n    }\n\n    // fetch the current vote count for a membership fee amendment proposal\n    function getVoteCountMembershipFeeAmendmentProposal(\n        uint256 _proposalID,\n        bool _side\n    ) external view onlyAuthorizedCaller returns (uint256 count) {\n        return _getVoteCountMembershipFeeAmendmentProposal(_proposalID, _side);\n    }\n\n    // fetch the current membership fee\n    function getCurrentMembershipFee()\n        external\n        view\n        onlyAuthorizedCaller\n        returns (uint256 currentInsuranceCoverage)\n    {\n        return currentMembershipfee;\n    }\n\n    // fetch the membership proposal current proposal ID\n    function getMembershipFeeAmendmentProposalCurrentProposalID()\n        external\n        view\n        onlyAuthorizedCaller\n        returns (uint256 currentProposalID)\n    {\n        return _getMembershipFeeAmendmentProposalCurrentProposalID();\n    }\n\n    // check weather a proposal has reached consensus\n    function hasMembershipFeeAmendmentProposalReachedConsensus(\n        uint256 _proposalID,\n        bool _side,\n        uint256 _consensusTreshold\n    ) external view onlyAuthorizedCaller returns (bool) {\n        return _hasReachedConsensus(_proposalID, _side, _consensusTreshold);\n    }\n\n    function _activateMembershipFeeAmendmentProposal(uint256 _proposalID)\n        internal\n    {\n        Proposal memory _proposal = proposals[_proposalID];\n        currentMembershipfee = _proposal.proposedValue;\n    }\n\n    function _getVoteCountMembershipFeeAmendmentProposal(\n        uint256 _proposalID,\n        bool _side\n    ) internal view returns (uint256 count) {\n        return _getVoteCount(_proposalID, _side);\n    }\n\n    function _getMembershipFeeAmendmentProposalCurrentProposalID()\n        internal\n        view\n        returns (uint256 _currentProposalID)\n    {\n        return currentProposalID;\n    }\n}\n",
  "sourcePath": "/home/bender/Documents/FlightInsurance/contracts/amendmentProposals/MembershipFeeAmendmentProposal/MembershipFeeAmendmentProposal.sol",
  "compiler": {
    "name": "solc",
    "version": "0.8.0+commit.c7dfd78e.Emscripten.clang"
  },
  "schemaVersion": "3.4.2",
  "updatedAt": "2021-08-08T09:35:10.117Z",
  "networkType": "ethereum",
  "devdoc": {
    "kind": "dev",
    "methods": {},
    "version": 1
  },
  "userdoc": {
    "kind": "user",
    "methods": {
      "authorizeCaller(address)": {
        "notice": "caller authorization "
      }
    },
    "version": 1
  }
}