{
  "contractName": "OracleProviderRole",
  "abi": [
    {
      "inputs": [
        {
          "internalType": "address",
          "name": "_appContractAddress",
          "type": "address"
        },
        {
          "internalType": "address",
          "name": "_oracleContractAddress",
          "type": "address"
        }
      ],
      "stateMutability": "nonpayable",
      "type": "constructor"
    },
    {
      "inputs": [],
      "name": "destructContract",
      "outputs": [],
      "stateMutability": "nonpayable",
      "type": "function"
    },
    {
      "inputs": [
        {
          "internalType": "address",
          "name": "_newOwner",
          "type": "address"
        }
      ],
      "name": "transferOwnership",
      "outputs": [],
      "stateMutability": "nonpayable",
      "type": "function"
    },
    {
      "inputs": [
        {
          "internalType": "address",
          "name": "_caller",
          "type": "address"
        }
      ],
      "name": "authorizeCaller",
      "outputs": [],
      "stateMutability": "nonpayable",
      "type": "function"
    },
    {
      "inputs": [
        {
          "internalType": "address",
          "name": "_caller",
          "type": "address"
        }
      ],
      "name": "unauthorizeCaller",
      "outputs": [],
      "stateMutability": "nonpayable",
      "type": "function"
    },
    {
      "inputs": [
        {
          "internalType": "address",
          "name": "_caller",
          "type": "address"
        }
      ],
      "name": "isRegisteredOracleProvider",
      "outputs": [
        {
          "internalType": "bool",
          "name": "",
          "type": "bool"
        }
      ],
      "stateMutability": "view",
      "type": "function",
      "constant": true
    },
    {
      "inputs": [
        {
          "internalType": "address",
          "name": "_caller",
          "type": "address"
        }
      ],
      "name": "isActivatedOracleProvider",
      "outputs": [
        {
          "internalType": "bool",
          "name": "",
          "type": "bool"
        }
      ],
      "stateMutability": "view",
      "type": "function",
      "constant": true
    },
    {
      "inputs": [
        {
          "internalType": "address",
          "name": "_account",
          "type": "address"
        },
        {
          "internalType": "address",
          "name": "_caller",
          "type": "address"
        }
      ],
      "name": "hasVotedOracleProviderMembership",
      "outputs": [
        {
          "internalType": "bool",
          "name": "",
          "type": "bool"
        }
      ],
      "stateMutability": "view",
      "type": "function",
      "constant": true
    },
    {
      "inputs": [
        {
          "internalType": "bool",
          "name": "_side",
          "type": "bool"
        },
        {
          "internalType": "address",
          "name": "_caller",
          "type": "address"
        },
        {
          "internalType": "uint256",
          "name": "consensusTreshold",
          "type": "uint256"
        }
      ],
      "name": "hasReachedConsensusOracleProviderMembership",
      "outputs": [
        {
          "internalType": "bool",
          "name": "",
          "type": "bool"
        }
      ],
      "stateMutability": "view",
      "type": "function",
      "constant": true
    },
    {
      "inputs": [],
      "name": "getRegisteredOracleProvidersCount",
      "outputs": [
        {
          "internalType": "uint256",
          "name": "count",
          "type": "uint256"
        }
      ],
      "stateMutability": "view",
      "type": "function",
      "constant": true
    },
    {
      "inputs": [],
      "name": "getActivatedOracleProvidersCount",
      "outputs": [
        {
          "internalType": "uint256",
          "name": "count",
          "type": "uint256"
        }
      ],
      "stateMutability": "view",
      "type": "function",
      "constant": true
    },
    {
      "inputs": [
        {
          "internalType": "address",
          "name": "_caller",
          "type": "address"
        }
      ],
      "name": "addOracleProvider",
      "outputs": [],
      "stateMutability": "nonpayable",
      "type": "function"
    },
    {
      "inputs": [
        {
          "internalType": "address",
          "name": "_account",
          "type": "address"
        }
      ],
      "name": "renounceOracleProvider",
      "outputs": [],
      "stateMutability": "nonpayable",
      "type": "function"
    },
    {
      "inputs": [
        {
          "internalType": "address",
          "name": "_caller",
          "type": "address"
        },
        {
          "internalType": "address",
          "name": "_account",
          "type": "address"
        },
        {
          "internalType": "uint256",
          "name": "_voteWeight",
          "type": "uint256"
        }
      ],
      "name": "voteOracleProviderMembership",
      "outputs": [],
      "stateMutability": "nonpayable",
      "type": "function"
    },
    {
      "inputs": [
        {
          "internalType": "address",
          "name": "_account",
          "type": "address"
        }
      ],
      "name": "activateOracleProvider",
      "outputs": [],
      "stateMutability": "nonpayable",
      "type": "function"
    }
  ],
  "bytecode": "0x608060405234801561001057600080fd5b50604051610d07380380610d0783398101604081905261002f9161009b565b600080546001600160a01b031916331781556001600160a01b039283168152600160208190526040808320805460ff199081168417909155939094168252929020805490911690911790556100cd565b80516001600160a01b038116811461009657600080fd5b919050565b600080604083850312156100ad578182fd5b6100b68361007f565b91506100c46020840161007f565b90509250929050565b610c2b806100dc6000396000f3fe608060405234801561001057600080fd5b50600436106100ea5760003560e01c806393d4d05c1161008c578063c29857a611610066578063c29857a6146101bc578063d3ad5313146101cf578063f0a58708146101d7578063f2fde38b146101ea576100ea565b806393d4d05c1461018e5780639499e018146101a1578063a1edd046146101a9576100ea565b80634ac8c5ae116100c85780634ac8c5ae1461012a57806356c589de1461013d5780636ba155b11461015b578063775cbd8d1461016e576100ea565b80632c388d5d146100ef578063316b047d146101045780633a6de7ba14610117575b600080fd5b6101026100fd366004610a09565b6101fd565b005b610102610112366004610a09565b610256565b610102610125366004610a09565b61028e565b610102610138366004610a09565b6102c6565b610145610313565b6040516101529190610ab3565b60405180910390f35b610102610169366004610a55565b61034f565b61018161017c366004610a09565b610392565b6040516101529190610abc565b61010261019c366004610a09565b6103d2565b61010261040a565b6101816101b7366004610a09565b610442565b6101816101ca366004610a23565b61047a565b6101456104bc565b6101816101e5366004610a90565b6104f3565b6101026101f8366004610a09565b610539565b6000546001600160a01b031633148061022557503360009081526001602052604090205460ff165b61024a5760405162461bcd60e51b815260040161024190610ac7565b60405180910390fd5b61025381610585565b50565b3360009081526001602052604090205460ff166102855760405162461bcd60e51b815260040161024190610b10565b610253816105ac565b3360009081526001602052604090205460ff166102bd5760405162461bcd60e51b815260040161024190610b10565b610253816105b7565b6000546001600160a01b03163314806102ee57503360009081526001602052604090205460ff165b61030a5760405162461bcd60e51b815260040161024190610ac7565b610253816105c2565b3360009081526001602052604081205460ff166103425760405162461bcd60e51b815260040161024190610b10565b61034a6105e3565b905090565b3360009081526001602052604090205460ff1661037e5760405162461bcd60e51b815260040161024190610b10565b61038d600783600186856105ef565b505050565b3360009081526001602052604081205460ff166103c15760405162461bcd60e51b815260040161024190610b10565b6103ca82610665565b90505b919050565b3360009081526001602052604090205460ff166104015760405162461bcd60e51b815260040161024190610b10565b61025381610672565b6000546001600160a01b031633146104345760405162461bcd60e51b815260040161024190610b47565b6000546001600160a01b0316ff5b3360009081526001602052604081205460ff166104715760405162461bcd60e51b815260040161024190610b10565b6103ca82610686565b3360009081526001602052604081205460ff166104a95760405162461bcd60e51b815260040161024190610b10565b6104b38383610693565b90505b92915050565b3360009081526001602052604081205460ff166104eb5760405162461bcd60e51b815260040161024190610b10565b61034a6106a1565b3360009081526001602052604081205460ff166105225760405162461bcd60e51b815260040161024190610b10565b61052f60078585856106ad565b90505b9392505050565b6000546001600160a01b031633146105635760405162461bcd60e51b815260040161024190610b47565b600080546001600160a01b0319166001600160a01b0392909216919091179055565b6001600160a01b03166000908152600160208190526040909120805460ff19169091179055565b6102536003826106eb565b61025360038261072b565b6001600160a01b03166000908152600160205260409020805460ff19169055565b600061034a600361075b565b6001600160a01b038216600090815260208681526040808320861515845290915281208054839290610622908490610b75565b9091555050506001600160a01b03908116600090815260019490940160209081526040808620949092168552929092529120805460ff1916911515919091179055565b60006103ca600383610762565b61067d600382610795565b610253816107d5565b60006103ca600383610806565b60006104b36007848461082f565b600061034a6003610871565b6001600160a01b038216600090815260208581526040808320861515845290915281205482116106df575060016106e3565b5060005b949350505050565b6001600160a01b0381166000908152602083905260409020805460ff19166001908117909155600283015461071f91610878565b82600201819055505050565b6001600160a01b0381166000908152602083905260409020805460ff19169055600282015461071f906001610884565b6002015490565b6001600160a01b038116600090815260018301602052604081205460ff161561078d575060016104b6565b5060006104b6565b6001600160a01b038116600090815260018381016020526040909120805460ff19168217905560038301546107c991610878565b82600301819055505050565b60006107df610890565b6001600160a01b038316600090815260096020526040902090915061038d90826003610981565b6001600160a01b03811660009081526020839052604081205460ff161561078d575060016104b6565b6001600160a01b038082166000908152600185016020908152604080832093861683529290529081205460ff161561086957506001610532565b506000610532565b6003015490565b60006104b38284610b75565b60006104b38284610b8d565b6108986109bf565b60008060006108a7601461091d565b92506108b3601461091d565b91505b828214156108cf576108c8601461091d565b91506108b6565b6108d9601461091d565b90505b818114806108e957508281145b156108ff576108f8601461091d565b90506108dc565b60408051606081018252938452602084019290925290820152905090565b600060646002541061092f5760006002555b600280548391600061094083610ba4565b9091555061094e9042610b75565b60405160200161095e9190610ab3565b6040516020818303038152906040528051906020012060001c6103ca9190610bbf565b82600381019282156109af579160200282015b828111156109af578251825591602001919060010190610994565b506109bb9291506109dd565b5090565b60405180606001604052806003906020820280368337509192915050565b5b808211156109bb57600081556001016109de565b80356001600160a01b03811681146103cd57600080fd5b600060208284031215610a1a578081fd5b6104b3826109f2565b60008060408385031215610a35578081fd5b610a3e836109f2565b9150610a4c602084016109f2565b90509250929050565b600080600060608486031215610a69578081fd5b610a72846109f2565b9250610a80602085016109f2565b9150604084013590509250925092565b600080600060608486031215610aa4578283fd5b83358015158114610a72578384fd5b90815260200190565b901515815260200190565b60208082526029908201527f63616c6c6572206d757374206265206f776e6572206f7220617574686f72697a60408201526832b21031b0b63632b960b91b606082015260800190565b60208082526019908201527f63616c6c6572206d75737420626520617574686f72697a656400000000000000604082015260600190565b60208082526014908201527331b0b63632b91036bab9ba1031329037bbb732b960611b604082015260600190565b60008219821115610b8857610b88610bdf565b500190565b600082821015610b9f57610b9f610bdf565b500390565b6000600019821415610bb857610bb8610bdf565b5060010190565b600082610bda57634e487b7160e01b81526012600452602481fd5b500690565b634e487b7160e01b600052601160045260246000fdfea2646970667358221220922c797b56dde5ca95ea40e2f12d7c554c35e4fa16bd57517feb208cef3a808664736f6c63430008000033",
  "immutableReferences": {},
  "source": "// SPDX-License-Identifier: UNLICENSED\npragma solidity ^0.8.00;\n\nimport \"../libraries/Rolable.sol\";\nimport \"../libraries/Votable.sol\";\nimport \"../Ownable/Ownable.sol\";\nimport \"../CallerAuditable/CallerAuditable.sol\";\nimport \"../Random/Random.sol\";\n\ncontract OracleProviderRole is Ownable, CallerAuditable, Random {\n    using Rolable for Rolable.Role;\n    Rolable.Role oracleProviders;\n    using Votable for Votable.MembershipVote;\n    Votable.MembershipVote oracleProvidersVote;\n    mapping(address => uint256[3]) oracleProvidersIndexes;\n\n    modifier onlyOwnerOrAuthorizedCaller() {\n        require(\n            msg.sender == owner || authorizedCallers[msg.sender],\n            \"caller must be owner or authorized caller\"\n        );\n        _;\n    }\n\n    // constructor setting owner and initial authorized caller address aka appAddress\n    constructor(address _appContractAddress, address _oracleContractAddress)\n        Ownable()\n    {\n        authorizedCallers[_appContractAddress] = true;\n        authorizedCallers[_oracleContractAddress] = true;\n    }\n\n    /** caller authorization */\n\n    // authorize a new caller to call the contract\n    function authorizeCaller(address _caller)\n        external\n        onlyOwnerOrAuthorizedCaller\n    {\n        _authorizeCaller(_caller);\n    }\n\n    // remove an existing caller rights to call the contract\n    function unauthorizeCaller(address _caller)\n        external\n        onlyOwnerOrAuthorizedCaller\n    {\n        _unauthorizeCaller(_caller);\n    }\n\n    /** oracle providers management (CHECK + ADD + REMOVE + VOTE) */\n\n    // check if an oracle provider is registered\n    function isRegisteredOracleProvider(address _caller)\n        external\n        view\n        onlyAuthorizedCaller\n        returns (bool)\n    {\n        return _isRegisteredOracleProvider(_caller);\n    }\n\n    // check if an oracle provider is activated\n    function isActivatedOracleProvider(address _caller)\n        external\n        view\n        onlyAuthorizedCaller\n        returns (bool)\n    {\n        return _isActivatedOracleProvider(_caller);\n    }\n\n    // check if a given caller has voted for the membership of an other address\n    function hasVotedOracleProviderMembership(address _account, address _caller)\n        external\n        view\n        onlyAuthorizedCaller\n        returns (bool)\n    {\n        return _hasVotedOracleProviderMembership(_account, _caller);\n    }\n\n    // check if an address currently voted for oracle provider membership has reached consensus among the community\n    function hasReachedConsensusOracleProviderMembership(\n        bool _side,\n        address _caller,\n        uint256 consensusTreshold\n    ) external view onlyAuthorizedCaller returns (bool) {\n        return\n            oracleProvidersVote.hasReachedConsensusMembership(\n                _side,\n                _caller,\n                consensusTreshold\n            );\n    }\n\n    // fetch current registered oracle provider count\n    function getRegisteredOracleProvidersCount()\n        external\n        view\n        onlyAuthorizedCaller\n        returns (uint256 count)\n    {\n        return _getRegisteredOracleProvidersCount();\n    }\n\n    // fetch current activated oracle provider count\n    function getActivatedOracleProvidersCount()\n        external\n        view\n        onlyAuthorizedCaller\n        returns (uint256 count)\n    {\n        return _getActivatedOracleProvidersCount();\n    }\n\n    // register an oracle provider is registered\n    function addOracleProvider(address _caller) external onlyAuthorizedCaller {\n        _addOracleProvider(_caller);\n    }\n\n    // remove an existing oracle provider\n    function renounceOracleProvider(address _account)\n        external\n        onlyAuthorizedCaller\n    {\n        _renounceOracleProvider(_account);\n    }\n\n    // vote for an oracle provider activation and membership\n    function voteOracleProviderMembership(\n        address _caller,\n        address _account,\n        uint256 _voteWeight\n    ) external onlyAuthorizedCaller {\n        oracleProvidersVote.voteMembership(\n            _account,\n            true,\n            _caller,\n            _voteWeight\n        );\n    }\n\n    // activate an oracle provider\n    function activateOracleProvider(address _account)\n        external\n        onlyAuthorizedCaller\n    {\n        _activateOracleProvider(_account);\n    }\n\n    function _isRegisteredOracleProvider(address _caller)\n        internal\n        view\n        returns (bool)\n    {\n        return oracleProviders.isRegistered(_caller);\n    }\n\n    function _isActivatedOracleProvider(address _caller)\n        internal\n        view\n        returns (bool)\n    {\n        return oracleProviders.isActivated(_caller);\n    }\n\n    function _hasVotedOracleProviderMembership(\n        address _account,\n        address _caller\n    ) internal view returns (bool) {\n        return oracleProvidersVote.hasVotedMembership(_account, _caller);\n    }\n\n    function _getRegisteredOracleProvidersCount()\n        internal\n        view\n        returns (uint256 count)\n    {\n        return oracleProviders.getRegisteredAccountsCount();\n    }\n\n    function _getActivatedOracleProvidersCount()\n        internal\n        view\n        returns (uint256 count)\n    {\n        return oracleProviders.getActiveAccountsCount();\n    }\n\n    function _addOracleProvider(address _account) internal {\n        oracleProviders.add(_account);\n    }\n\n    function _renounceOracleProvider(address _account) internal {\n        oracleProviders.remove(_account);\n    }\n\n    function _setOracleIndexes(address _account) internal {\n        uint256[3] memory _randomIndexes = _generateRandomIndexes();\n        oracleProvidersIndexes[_account] = _randomIndexes;\n    }\n\n    function _activateOracleProvider(address _account) internal {\n        oracleProviders.activate(_account);\n        _setOracleIndexes(_account);\n    }\n}\n",
  "sourcePath": "/home/bender/Documents/FlightInsurance/contracts/roles/OracleProviderRole.sol",
  "compiler": {
    "name": "solc",
    "version": "0.8.0+commit.c7dfd78e.Emscripten.clang"
  },
  "schemaVersion": "3.4.2",
  "updatedAt": "2021-08-08T09:35:10.103Z",
  "networkType": "ethereum",
  "devdoc": {
    "kind": "dev",
    "methods": {},
    "version": 1
  },
  "userdoc": {
    "kind": "user",
    "methods": {
      "authorizeCaller(address)": {
        "notice": "caller authorization "
      },
      "isRegisteredOracleProvider(address)": {
        "notice": "oracle providers management (CHECK + ADD + REMOVE + VOTE) "
      }
    },
    "version": 1
  }
}