{
  "contractName": "Ownable",
  "abi": [
    {
      "inputs": [],
      "stateMutability": "nonpayable",
      "type": "constructor"
    },
    {
      "inputs": [
        {
          "internalType": "address",
          "name": "_newOwner",
          "type": "address"
        }
      ],
      "name": "transferOwnership",
      "outputs": [],
      "stateMutability": "nonpayable",
      "type": "function"
    },
    {
      "inputs": [],
      "name": "destructContract",
      "outputs": [],
      "stateMutability": "nonpayable",
      "type": "function"
    }
  ],
  "bytecode": "0x608060405234801561001057600080fd5b50600080546001600160a01b03191633179055610177806100326000396000f3fe608060405234801561001057600080fd5b50600436106100365760003560e01c80639499e0181461003b578063f2fde38b14610045575b600080fd5b610043610058565b005b6100436100533660046100e5565b610099565b6000546001600160a01b0316331461008b5760405162461bcd60e51b815260040161008290610113565b60405180910390fd5b6000546001600160a01b0316ff5b6000546001600160a01b031633146100c35760405162461bcd60e51b815260040161008290610113565b600080546001600160a01b0319166001600160a01b0392909216919091179055565b6000602082840312156100f6578081fd5b81356001600160a01b038116811461010c578182fd5b9392505050565b60208082526014908201527331b0b63632b91036bab9ba1031329037bbb732b960611b60408201526060019056fea264697066735822122077e0da931548d60e1e2c04fdabe9df4d0cd1d28edf47df2644adbdfe72c3e79464736f6c63430008000033",
  "immutableReferences": {},
  "source": "// SPDX-License-Identifier: UNLICENSED\npragma solidity ^0.8.00;\n\ncontract Ownable {\n    address owner;\n\n    constructor() {\n        owner = msg.sender;\n    }\n\n    modifier onlyOwner() {\n        require(msg.sender == owner, \"caller must be owner\");\n        _;\n    }\n\n    function transferOwnership(address _newOwner) external onlyOwner {\n        owner = _newOwner;\n    }\n\n    function destructContract() external onlyOwner {\n        selfdestruct(payable(owner));\n    }\n}\n",
  "sourcePath": "/home/bender/Documents/FlightInsurance/contracts/Ownable/Ownable.sol",
  "compiler": {
    "name": "solc",
    "version": "0.8.0+commit.c7dfd78e.Emscripten.clang"
  },
  "schemaVersion": "3.4.2",
  "updatedAt": "2021-08-08T09:21:00.080Z",
  "devdoc": {
    "kind": "dev",
    "methods": {},
    "version": 1
  },
  "userdoc": {
    "kind": "user",
    "methods": {},
    "version": 1
  }
}